{"contracts/senseilock.sol":{"SenseiLock":{"abi":[{"anonymous":false,"inputs":[{"indexed":true,"internalType":"uint256","name":"id","type":"uint256"},{"indexed":false,"internalType":"address","name":"token","type":"address"},{"indexed":false,"internalType":"address","name":"owner","type":"address"},{"indexed":false,"internalType":"uint256","name":"amount","type":"uint256"},{"indexed":false,"internalType":"uint256","name":"unlockDate","type":"uint256"}],"name":"LockAdded","type":"event"},{"anonymous":false,"inputs":[{"indexed":true,"internalType":"uint256","name":"id","type":"uint256"},{"indexed":false,"internalType":"address","name":"token","type":"address"},{"indexed":false,"internalType":"address","name":"owner","type":"address"},{"indexed":false,"internalType":"uint256","name":"amount","type":"uint256"},{"indexed":false,"internalType":"uint256","name":"unlockedAt","type":"uint256"}],"name":"LockRemoved","type":"event"},{"anonymous":false,"inputs":[{"indexed":true,"internalType":"uint256","name":"id","type":"uint256"},{"indexed":false,"internalType":"address","name":"token","type":"address"},{"indexed":false,"internalType":"address","name":"owner","type":"address"},{"indexed":false,"internalType":"uint256","name":"newAmount","type":"uint256"},{"indexed":false,"internalType":"uint256","name":"newUnlockDate","type":"uint256"}],"name":"LockUpdated","type":"event"},{"inputs":[],"name":"allLocks","outputs":[{"components":[{"internalType":"uint256","name":"id","type":"uint256"},{"internalType":"address","name":"token","type":"address"},{"internalType":"address","name":"owner","type":"address"},{"internalType":"uint256","name":"amount","type":"uint256"},{"internalType":"uint256","name":"lockDate","type":"uint256"},{"internalType":"uint256","name":"unlockDate","type":"uint256"}],"internalType":"struct SenseiLock.Lock[]","name":"","type":"tuple[]"}],"stateMutability":"view","type":"function"},{"inputs":[],"name":"allLpTokenLockedCount","outputs":[{"internalType":"uint256","name":"","type":"uint256"}],"stateMutability":"view","type":"function"},{"inputs":[],"name":"allNormalTokenLockedCount","outputs":[{"internalType":"uint256","name":"","type":"uint256"}],"stateMutability":"view","type":"function"},{"inputs":[{"internalType":"address","name":"","type":"address"}],"name":"cumulativeLockInfo","outputs":[{"internalType":"address","name":"token","type":"address"},{"internalType":"address","name":"factory","type":"address"},{"internalType":"uint256","name":"amount","type":"uint256"},{"internalType":"uint8","name":"decimals","type":"uint8"},{"internalType":"string","name":"name","type":"string"},{"internalType":"string","name":"symbol","type":"string"}],"stateMutability":"view","type":"function"},{"inputs":[{"internalType":"uint256","name":"lockId","type":"uint256"},{"internalType":"uint256","name":"newAmount","type":"uint256"},{"internalType":"uint256","name":"newUnlockDate","type":"uint256"}],"name":"editLock","outputs":[],"stateMutability":"payable","type":"function"},{"inputs":[{"internalType":"uint256","name":"start","type":"uint256"},{"internalType":"uint256","name":"end","type":"uint256"}],"name":"getCumulativeLpTokenLockInfo","outputs":[{"components":[{"internalType":"address","name":"token","type":"address"},{"internalType":"address","name":"factory","type":"address"},{"internalType":"uint256","name":"amount","type":"uint256"},{"internalType":"uint8","name":"decimals","type":"uint8"},{"internalType":"string","name":"name","type":"string"},{"internalType":"string","name":"symbol","type":"string"}],"internalType":"struct SenseiLock.CumulativeLockInfo[]","name":"","type":"tuple[]"}],"stateMutability":"view","type":"function"},{"inputs":[{"internalType":"uint256","name":"index","type":"uint256"}],"name":"getCumulativeLpTokenLockInfoAt","outputs":[{"components":[{"internalType":"address","name":"token","type":"address"},{"internalType":"address","name":"factory","type":"address"},{"internalType":"uint256","name":"amount","type":"uint256"},{"internalType":"uint8","name":"decimals","type":"uint8"},{"internalType":"string","name":"name","type":"string"},{"internalType":"string","name":"symbol","type":"string"}],"internalType":"struct SenseiLock.CumulativeLockInfo","name":"","type":"tuple"}],"stateMutability":"view","type":"function"},{"inputs":[{"internalType":"uint256","name":"start","type":"uint256"},{"internalType":"uint256","name":"end","type":"uint256"}],"name":"getCumulativeNormalTokenLockInfo","outputs":[{"components":[{"internalType":"address","name":"token","type":"address"},{"internalType":"address","name":"factory","type":"address"},{"internalType":"uint256","name":"amount","type":"uint256"},{"internalType":"uint8","name":"decimals","type":"uint8"},{"internalType":"string","name":"name","type":"string"},{"internalType":"string","name":"symbol","type":"string"}],"internalType":"struct SenseiLock.CumulativeLockInfo[]","name":"","type":"tuple[]"}],"stateMutability":"view","type":"function"},{"inputs":[{"internalType":"uint256","name":"index","type":"uint256"}],"name":"getCumulativeNormalTokenLockInfoAt","outputs":[{"components":[{"internalType":"address","name":"token","type":"address"},{"internalType":"address","name":"factory","type":"address"},{"internalType":"uint256","name":"amount","type":"uint256"},{"internalType":"uint8","name":"decimals","type":"uint8"},{"internalType":"string","name":"name","type":"string"},{"internalType":"string","name":"symbol","type":"string"}],"internalType":"struct SenseiLock.CumulativeLockInfo","name":"","type":"tuple"}],"stateMutability":"view","type":"function"},{"inputs":[{"internalType":"uint256","name":"index","type":"uint256"}],"name":"getLock","outputs":[{"components":[{"internalType":"uint256","name":"id","type":"uint256"},{"internalType":"address","name":"token","type":"address"},{"internalType":"address","name":"owner","type":"address"},{"internalType":"uint256","name":"amount","type":"uint256"},{"internalType":"uint256","name":"lockDate","type":"uint256"},{"internalType":"uint256","name":"unlockDate","type":"uint256"}],"internalType":"struct SenseiLock.Lock","name":"","type":"tuple"}],"stateMutability":"view","type":"function"},{"inputs":[{"internalType":"address","name":"token","type":"address"},{"internalType":"uint256","name":"start","type":"uint256"},{"internalType":"uint256","name":"end","type":"uint256"}],"name":"getLocksForToken","outputs":[{"components":[{"internalType":"uint256","name":"id","type":"uint256"},{"internalType":"address","name":"token","type":"address"},{"internalType":"address","name":"owner","type":"address"},{"internalType":"uint256","name":"amount","type":"uint256"},{"internalType":"uint256","name":"lockDate","type":"uint256"},{"internalType":"uint256","name":"unlockDate","type":"uint256"}],"internalType":"struct SenseiLock.Lock[]","name":"","type":"tuple[]"}],"stateMutability":"view","type":"function"},{"inputs":[],"name":"getTotalLockCount","outputs":[{"internalType":"uint256","name":"","type":"uint256"}],"stateMutability":"view","type":"function"},{"inputs":[{"internalType":"address","name":"owner","type":"address"},{"internalType":"address","name":"token","type":"address"},{"internalType":"bool","name":"isLpToken","type":"bool"},{"internalType":"uint256","name":"amount","type":"uint256"},{"internalType":"uint256","name":"unlockDate","type":"uint256"}],"name":"lock","outputs":[{"internalType":"uint256","name":"id","type":"uint256"}],"stateMutability":"payable","type":"function"},{"inputs":[{"internalType":"address","name":"user","type":"address"}],"name":"lpLockCountForUser","outputs":[{"internalType":"uint256","name":"","type":"uint256"}],"stateMutability":"view","type":"function"},{"inputs":[{"internalType":"address","name":"user","type":"address"},{"internalType":"uint256","name":"index","type":"uint256"}],"name":"lpLockForUserAtIndex","outputs":[{"components":[{"internalType":"uint256","name":"id","type":"uint256"},{"internalType":"address","name":"token","type":"address"},{"internalType":"address","name":"owner","type":"address"},{"internalType":"uint256","name":"amount","type":"uint256"},{"internalType":"uint256","name":"lockDate","type":"uint256"},{"internalType":"uint256","name":"unlockDate","type":"uint256"}],"internalType":"struct SenseiLock.Lock","name":"","type":"tuple"}],"stateMutability":"view","type":"function"},{"inputs":[{"internalType":"address","name":"user","type":"address"}],"name":"lpLocksForUser","outputs":[{"components":[{"internalType":"uint256","name":"id","type":"uint256"},{"internalType":"address","name":"token","type":"address"},{"internalType":"address","name":"owner","type":"address"},{"internalType":"uint256","name":"amount","type":"uint256"},{"internalType":"uint256","name":"lockDate","type":"uint256"},{"internalType":"uint256","name":"unlockDate","type":"uint256"}],"internalType":"struct SenseiLock.Lock[]","name":"","type":"tuple[]"}],"stateMutability":"view","type":"function"},{"inputs":[{"internalType":"address","name":"user","type":"address"}],"name":"normalLockCountForUser","outputs":[{"internalType":"uint256","name":"","type":"uint256"}],"stateMutability":"view","type":"function"},{"inputs":[{"internalType":"address","name":"user","type":"address"},{"internalType":"uint256","name":"index","type":"uint256"}],"name":"normalLockForUserAtIndex","outputs":[{"components":[{"internalType":"uint256","name":"id","type":"uint256"},{"internalType":"address","name":"token","type":"address"},{"internalType":"address","name":"owner","type":"address"},{"internalType":"uint256","name":"amount","type":"uint256"},{"internalType":"uint256","name":"lockDate","type":"uint256"},{"internalType":"uint256","name":"unlockDate","type":"uint256"}],"internalType":"struct SenseiLock.Lock","name":"","type":"tuple"}],"stateMutability":"view","type":"function"},{"inputs":[{"internalType":"address","name":"user","type":"address"}],"name":"normalLocksForUser","outputs":[{"components":[{"internalType":"uint256","name":"id","type":"uint256"},{"internalType":"address","name":"token","type":"address"},{"internalType":"address","name":"owner","type":"address"},{"internalType":"uint256","name":"amount","type":"uint256"},{"internalType":"uint256","name":"lockDate","type":"uint256"},{"internalType":"uint256","name":"unlockDate","type":"uint256"}],"internalType":"struct SenseiLock.Lock[]","name":"","type":"tuple[]"}],"stateMutability":"view","type":"function"},{"inputs":[{"internalType":"address","name":"token","type":"address"}],"name":"totalLockCountForToken","outputs":[{"internalType":"uint256","name":"","type":"uint256"}],"stateMutability":"view","type":"function"},{"inputs":[{"internalType":"address","name":"user","type":"address"}],"name":"totalLockCountForUser","outputs":[{"internalType":"uint256","name":"","type":"uint256"}],"stateMutability":"view","type":"function"},{"inputs":[],"name":"totalTokenLockedCount","outputs":[{"internalType":"uint256","name":"","type":"uint256"}],"stateMutability":"view","type":"function"},{"inputs":[{"internalType":"uint256","name":"lockId","type":"uint256"}],"name":"unlock","outputs":[],"stateMutability":"nonpayable","type":"function"}],"evm":{"bytecode":{"linkReferences":{},"object":"6080806040523461001657612af9908161001c8239f35b600080fdfe608080604052600436101561001357600080fd5b60003560e01c90816307873ef114611b6c575080631982242c14611b4a578063332f26d714611a70578063475831c814611a525780635fbdf739146119c5578063618df7a31461195f5780636198e3391461173457806364be5b39146109aa57806376c12822146108c05780637e6706d314610898578063a20b8c18146107f2578063aec640c6146106c9578063aef0e5401461064f578063b3b9aa4814610408578063b982922e146103ea578063cd83eadc1461039d578063d68f4dd114610373578063da1d8cff146102de578063e1444fd61461023a578063e3676f8814610200578063eb80bdae146101c6578063eeacf7861461013f5763fd981c661461011c57600080fd5b3461013a57600036600319011261013a576020600054604051908152f35b600080fd5b3461013a57604036600319011261013a5760c06101b76101b16101a5610163611ba2565b6024359061016f61291e565b506001600160a01b0316600081815260016020526040902054610193908310612a47565b60005260016020526040600020611fb4565b90549060031b1c612106565b506128cc565b6101c46040518092611bb8565bf35b3461013a57602036600319011261013a576001600160a01b036101e7611ba2565b1660005260026020526020604060002054604051908152f35b3461013a57602036600319011261013a576001600160a01b03610221611ba2565b1660005260086020526020604060002054604051908152f35b3461013a57602036600319011261013a576001600160a01b038061025c611ba2565b1660005260076020526040600020906102da8183541691600184015416926102cc60028201549160ff6003820154166102a3600561029c60048501611dda565b9301611dda565b93604051978897885260208801526040870152606086015260c0608086015260c0850190611c79565b9083820360a0850152611c79565b0390f35b3461013a5760208060031936011261013a576001600160a01b03610300611ba2565b16908160005260028082526040600020549161031b836129f7565b9360005b84811061033457604051806102da8882611bf8565b61036e90826000528484526103536101b16101a5836040600020611fb4565b61035d82896129e3565b5261036881886129e3565b506129d4565b61031f565b3461013a57602036600319011261013a5761038c61291e565b5060c06101b76101b1600435612106565b3461013a57602036600319011261013a576001600160a01b036103be611ba2565b16600052600260205260206103e26040600020546001835260406000205490611f5b565b604051908152f35b3461013a57600036600319011261013a576020600354604051908152f35b606036600319011261013a57600435602435906104346044359161042f6000548210612210565b612106565b50906002820160018060a01b039361045085835416331461224e565b60038401928354908115610616578061057b575b50816104a6575b50506104a1836005600080516020612aa48339815191529554968060018401541694541694549101549060405194859485611e9f565b0390a2005b909381851061051c5784866104cd6104a194600080516020612aa4833981519152986122a5565b91826104dd575b5050509361046b565b60018401906104f384848454163090339061273c565b8755541660005260076020526105126002604060002001918254611f5b565b90558686816104d4565b60405162461bcd60e51b815260206004820152603160248201527f4e657720616d6f756e742073686f756c64206e6f74206265206c657373207468604482015270185b8818dd5c9c995b9d08185b5bdd5b9d607a1b6064820152608490fd5b6005860180548210158061060d575b15610596575586610464565b60a460405162461bcd60e51b815260206004820152604460248201527f4e657720756e6c6f636b2074696d652073686f756c64206e6f7420626520626560448201527f666f7265206f6c6420756e6c6f636b2074696d65206f722063757272656e742060648201526374696d6560e01b6084820152fd5b5042821161058a565b60405162461bcd60e51b8152602060048201526011602482015270131bd8dac81dd85cc81d5b9b1bd8dad959607a1b6044820152606490fd5b3461013a5760208060031936011261013a576001600160a01b03610671611ba2565b16908160005260018082526040600020549161068c836129f7565b9360005b8481106106a557604051806102da8882611bf8565b6106c490826000528484526103536101b16101a5836040600020611fb4565b610690565b3461013a576106d736611c40565b60038054909290808310156107dc575b506106f281836122a5565b6001908181018091116107c65761070890612984565b9360005b8484111561072257604051806102da8882611d00565b6107ba6107c09161073286611f99565b9060018060a01b039182915490871b1c166000526107a060056020600781526040600020906040519461076486611d9c565b8083541686528a83015416908501526002810154604085015260ff8882015416606085015261079560048201611dda565b608085015201611dda565b60a08201526107af828a6129e3565b5261036881896129e3565b936129d4565b9261070c565b634e487b7160e01b600052601160045260246000fd5b90915060001981019081116107c65790836106e7565b3461013a57602036600319011261013a5761080b612950565b506102da61081a600435611f99565b9060018060a01b03918291549060031b1c16600052600760205261087f600560406000206040519361084b85611d9c565b80825416855260018201541660208501526002810154604085015260ff600382015416606085015261079560048201611dda565b60a0820152604051918291602083526020830190611c9e565b3461013a57602036600319011261013a576108b1612950565b506102da61081a600435611f68565b3461013a576108ce36611c40565b6005805490929080831015610994575b506108e981836122a5565b6001908181018091116107c6576108ff90612984565b9360005b8484111561091957604051806102da8882611d00565b6107ba61098e91836107a061092d88611f68565b60018060a09593951b03809454600392831b1c1660005260ff602091600783526040600020926040519661096088611d9c565b8085541688528c85015416908701526002830154604087015282015416606085015261079560048201611dda565b92610903565b90915060001981019081116107c65790836108de565b60a036600319011261013a576109be611ba2565b6024356001600160a01b038116900361013a5760448035801515810361013a574260843511156116df576064351561169b571561122b5760405163c45a015560e01b81526020816004816024356001600160a01b03165afa6000918161120a575b50610a675760405162461bcd60e51b815260206004820152601c60248201527b2a3434b9903a37b5b2b71034b9903737ba1030902628103a37b5b2b760211b81840152606490fd5b906001600160a01b0382161515806110f1575b156110ad5750610a9260843560643560243585612137565b9060018060a01b0383166000526001602052610ab2826040600020612098565b50610ac76024356001600160a01b031661204b565b506001600160a01b03602435811660009081526007602052604090208054909291811615610b72575b505091600080516020612a84833981519152610b6792600260209501610b196064358254611f5b565b905560018060a01b036024351660005260088552610b3b816040600020612098565b509283925b610b50606435303360243561273c565b604051918291608435906064359060243585611e9f565b0390a2604051908152f35b6001600160a01b0319166024356001600160a01b03169081178355604051630dfe168160e01b815294929190602090869060049082905afa948515610f205760009561108c575b5060405163d21220a760e01b8152906020826004816024356001600160a01b03165afa918215610f205760009261105b575b506001830180546001600160a01b0319166001600160a01b0392831617905560405163313ce56760e01b81529060209082906004908290602435165afa908115610f205760009161102c575b5060038301805460ff191660ff929092169190911790556040516306fdde0360e01b8152946000866004816024356001600160a01b03165afa958615610f205760009661100f575b5085516001600160401b038111610ede57610c9d6004850154611d62565b601f8111610fc8575b506020601f8211600114610f56579080600093926004998592610f4b575b50508160011b9184199060031b1c191617878501555b6040516395d89b4160e01b815296879182906001600160a01b03165afa908115610f2057600495600092610f2c575b506040516395d89b4160e01b81529560009187919082906001600160a01b03165afa948515610f2057600095610ef4575b506021610d88916040519681610d5a899351809260208087019101611c56565b8201602f60f81b6020820152610d798251809360208785019101611c56565b01036001810187520185611db7565b83516001600160401b038111610ede57610da56005830154611d62565b94601f8611610e93575b602095508590601f8311600114610e0f579282610b679693600293600080516020612a8483398151915296600092610e04575b50508160011b916000199060031b1c19161760058201555b9395505092610af0565b015190508980610de2565b9060058401600052866000209160005b601f1985168110610e7c575083600293600080516020612a848339815191529693600193610b679a97601f19811610610e63575b505050811b016005820155610dfa565b015160001960f88460031b161c19169055898080610e53565b919288600181928685015181550194019201610e1f565b600583016000526020600020601f830160051c81019660208410610ed4575b601f0160051c01955b868110610ec85750610daf565b60008155600101610ebb565b9096508690610eb2565b634e487b7160e01b600052604160045260246000fd5b610d88919550610f186021913d806000833e610f108183611db7565b810190611efd565b959150610d3a565b6040513d6000823e3d90fd5b6000919250610f44903d8084833e610f108183611db7565b9190610d09565b015190508980610cc4565b6004850160005260206000209760005b601f1984168110610fb05750916004986001926000959483601f19811610610f98575b505050811b0187850155610cda565b0151851960f88460031b161c19169055898080610f89565b828201518a5560019099019860209283019201610f66565b600485016000526020600020601f830160051c810160208410611008575b601f830160051c82018110610ffc575050610ca6565b60008155600101610fe6565b5080610fe6565b6110259196503d806000833e610f108183611db7565b9486610c7f565b61104e915060203d602011611054575b6110468183611db7565b810190611ec9565b86610c37565b503d61103c565b61107e91925060203d602011611085575b6110768183611db7565b810190611e80565b9086610beb565b503d61106c565b6110a691955060203d602011611085576110768183611db7565b9385610bb9565b6064907f5468697320746f6b656e206973206e6f742061204c5020746f6b656e2e0000006040519162461bcd60e51b835260206004840152601d6024840152820152fd5b50604051630dfe168160e01b81526020816004816024356001600160a01b03165afa908115610f20576000916111eb575b5060405163d21220a760e01b81526020816004816024356001600160a01b03165afa908115610f20576000916111cc575b5060405163e6a4390560e01b81526001600160a01b03928316600482015290821660248201529060209082908490829087165afa908115610f20576000916111ad575b506024356001600160a01b03908116911614610a7a565b6111c6915060203d602011611085576110768183611db7565b84611196565b6111e5915060203d602011611085576110768183611db7565b85611153565b611204915060203d602011611085576110768183611db7565b84611122565b61122491925060203d602011611085576110768183611db7565b9084610a1f565b5061123e60843560643560243584612137565b60018060a01b038216600052600260205261125d816040600020612098565b506112726024356001600160a01b0316611fcc565b506001600160a01b0360243581166000908152600760205260409020805490918116156112ed575b5091600080516020612a84833981519152610b67926002602095016112c26064358254611f5b565b905560018060a01b0360243516600052600885526112e4816040600020612098565b50928392610b40565b6001820180546001600160a01b0319908116909155166024356001600160a01b0316908117825560405163313ce56760e01b815291929190602090829060049082905afa908115610f205760009161167c575b5060038301805460ff191660ff929092169190911790556040516306fdde0360e01b8152926000846004816024356001600160a01b03165afa938415610f205760009461165f575b5083516001600160401b038111610ede576113a66004850154611d62565b601f8111611618575b506020601f82116001146115a957819293949560009261159e575b50508160011b916000199060031b1c19161760048401555b82546001600160a01b0319166024356001600160a01b031690811784556040516395d89b4160e01b81529390600090859060049082905afa938415610f2057600094611581575b5083516001600160401b038111610ede576114476005830154611d62565b94601f8611611536575b602095508590601f83116001146114b2579282610b679693600293600080516020612a84833981519152966000926114a7575b50508160011b916000199060031b1c19161760058201555b93955050925061129a565b015190508980611484565b9060058401600052866000209160005b601f198516811061151f575083600293600080516020612a848339815191529693600193610b679a97601f19811610611506575b505050811b01600582015561149c565b015160001960f88460031b161c191690558980806114f6565b9192886001819286850151815501940192016114c2565b600583016000526020600020601f830160051c81019660208410611577575b601f0160051c01955b86811061156b5750611451565b6000815560010161155e565b9096508690611555565b6115979194503d806000833e610f108183611db7565b9284611429565b0151905085806113ca565b6004850160005260206000209060005b601f1984168110611600575060019394959683601f198116106115e7575b505050811b0160048401556113e2565b015160001960f88460031b161c191690558580806115d7565b9091602060018192858b0151815501930191016115b9565b600485016000526020600020601f830160051c810160208410611658575b601f830160051c8201811061164c5750506113af565b60008155600101611636565b5080611636565b6116759194503d806000833e610f108183611db7565b9284611388565b611695915060203d602011611054576110468183611db7565b84611340565b60405162461bcd60e51b815260206004820152601f60248201527f416d6f756e742073686f756c642062652067726561746572207468616e20300081840152606490fd5b60405162461bcd60e51b815260206004820152602860248201527f556e6c6f636b20646174652073686f756c6420626520616674657220637572728184015267656e742074696d6560c01b6064820152608490fd5b3461013a5760208060031936011261013a57600435906117576000548310612210565b61176082612106565b509160018060a01b0361177a81600286015416331461224e565b6005840154421061191f5760038401938454156118e65760006001820195838754168252600786526040822094846001870154161515908184146118cc576117cc903385526001895260408520612485565b505b6002825496018054878082111586146118bc5750508381555b5415611890575b5055818554166000526008845261180b6040600020825490612485565b50845460405163a9059cbb60e01b958101959095523360248601526044808601859052855282169360808101906001600160401b03821181831017610ede577fc6532367992b32e42a62dd89fc3574876d97d081a263aa6e030f34b79b7e6e8b9561187892604052612575565b54935416906104a16040519283924291339085611e9f565b82146118aa576118a28488541661239c565b505b876117ee565b6118b6848854166122b2565b506118a4565b6118c5916122a5565b81556117e7565b6118e0903385526002895260408520612485565b506117ce565b60405162461bcd60e51b81526004810185905260116024820152704e6f7468696e6720746f20756e6c6f636b60781b6044820152606490fd5b60405162461bcd60e51b81526004810184905260186024820152774974206973206e6f742074696d6520746f20756e6c6f636b60401b6044820152606490fd5b3461013a57604036600319011261013a5760c06101b76101b16101a5611983611ba2565b6024359061198f61291e565b506001600160a01b03166000818152600260205260409020546119b3908310612a47565b60005260026020526040600020611fb4565b3461013a57600036600319011261013a576000546119e2816128b5565b6119ef6040519182611db7565b81815260008080527f290decd9548b62a8d60345a988386fc84ba6bc95484008f6362f93160ef3e563929060208084015b838310611a3557604051806102da8782611bf8565b600682600192611a44896128cc565b815201960192019194611a20565b3461013a57600036600319011261013a576020600554604051908152f35b3461013a57606036600319011261013a57611a89611ba2565b6001600160a01b0316600081815260086020818152604090922054604435926024359291841015611b30575b611abf83856122a5565b600181018091116107c657611ad3906129f7565b9460005b85851115611aed57604051806102da8982611bf8565b611b24611b2a9183600052858552611b0f6101b16101a5896040600020611fb4565b611b19828b6129e3565b52610368818a6129e3565b946129d4565b93611ad7565b925060406000205460001981019081116107c65792611ab5565b3461013a57600036600319011261013a5760206103e260035460055490611f5b565b3461013a57602036600319011261013a576020906001600160a01b03611b90611ba2565b16600052600182526040600020548152f35b600435906001600160a01b038216820361013a57565b60a0809180518452600180831b03806020830151166020860152604082015116604085015260608101516060850152608081015160808501520151910152565b6020908160408183019282815285518094520193019160005b828110611c1f575050505090565b909192938260c082611c346001948951611bb8565b01950193929101611c11565b604090600319011261013a576004359060243590565b60005b838110611c695750506000910152565b8181015183820152602001611c59565b90602091611c9281518092818552858086019101611c56565b601f01601f1916010190565b611cfd9160018060a01b0380835116825260208301511660208201526040820151604082015260ff606083015116606082015260a0611cec608084015160c0608085015260c0840190611c79565b9201519060a0818403910152611c79565b90565b602080820190808352835180925260408301928160408460051b8301019501936000915b848310611d345750505050505090565b9091929394958480611d52600193603f198682030187528a51611c9e565b9801930193019194939290611d24565b90600182811c92168015611d92575b6020831014611d7c57565b634e487b7160e01b600052602260045260246000fd5b91607f1691611d71565b60c081019081106001600160401b03821117610ede57604052565b601f909101601f19168101906001600160401b03821190821017610ede57604052565b9060405191826000825492611dee84611d62565b908184526001948581169081600014611e5d5750600114611e1a575b5050611e1892500383611db7565b565b9093915060005260209081600020936000915b818310611e45575050611e1893508201013880611e0a565b85548884018501529485019487945091830191611e2d565b915050611e1894506020925060ff191682840152151560051b8201013880611e0a565b9081602091031261013a57516001600160a01b038116810361013a5790565b6001600160a01b039182168152911660208201526040810191909152606081019190915260800190565b9081602091031261013a575160ff8116810361013a5790565b6001600160401b038111610ede57601f01601f191660200190565b60208183031261013a578051906001600160401b03821161013a570181601f8201121561013a578051611f2f81611ee2565b92611f3d6040519485611db7565b8184526020828401011161013a57611cfd9160208085019101611c56565b919082018092116107c657565b600554811015611f8357600560005260206000200190600090565b634e487b7160e01b600052603260045260246000fd5b600354811015611f8357600360005260206000200190600090565b8054821015611f835760005260206000200190600090565b60008181526006602052604081205461204657600554600160401b81101561203257908261201e61200584600160409601600555611f68565b819391549060031b600019811b9283911b169119161790565b905560055492815260066020522055600190565b634e487b7160e01b82526041600452602482fd5b905090565b60008181526004602052604081205461204657600354600160401b81101561203257908261208461200584600160409601600355611f99565b905560035492815260046020522055600190565b9190600183016000908282528060205260408220541560001461210057845494600160401b8610156120ec57836120dc612005886001604098999a01855584611fb4565b9055549382526020522055600190565b634e487b7160e01b83526041600452602483fd5b50925050565b906000918254811015612123578280526006602084209102019190565b634e487b7160e01b83526032600452602483fd5b909391926000948554946040519361214e85611d9c565b8685526020850160018060a01b03809416815283604087019216825260608601928352608086019342855260a08701958652600160401b8910156121fc5760018901808b558910156121e85760208a806005999a9b9c522060068b02019751885580600189019251169160018060a01b03199283825416179055600288019251169082541617905551600385015551600484015551910155565b634e487b7160e01b8a52603260045260248afd5b634e487b7160e01b8a52604160045260248afd5b1561221757565b60405162461bcd60e51b815260206004820152600f60248201526e125b9d985b1a59081b1bd8dac81a59608a1b6044820152606490fd5b1561225557565b60405162461bcd60e51b815260206004820152602260248201527f596f7520617265206e6f7420746865206f776e6572206f662074686973206c6f604482015261636b60f01b6064820152608490fd5b919082039182116107c657565b60008181526006602052604081205490919080156123975760001990808201818111612383576005549083820191821161236f5780820361233b575b50505060055480156123275781019061230682611f68565b909182549160031b1b19169055600555815260066020526040812055600190565b634e487b7160e01b84526031600452602484fd5b61235961234a61200593611f68565b90549060031b1c928392611f68565b90558452600660205260408420553880806122ee565b634e487b7160e01b86526011600452602486fd5b634e487b7160e01b85526011600452602485fd5b505090565b60009080825260049081602052604083205480151560001461247f576000199080820181811161246c576003549083820191821161245957808203612426575b5050506003548015612413578101906123f482611f99565b909182549160031b1b1916905560035582526020526040812055600190565b634e487b7160e01b855260318452602485fd5b61244461243561200593611f99565b90549060031b1c928392611f99565b905585528360205260408520553880806123dc565b634e487b7160e01b875260118652602487fd5b634e487b7160e01b865260118552602486fd5b50505090565b9060018201906000928184528260205260408420549081151560001461256e576000199180830181811161255a5782549084820191821161254657808203612511575b505050805480156124fd578201916124e08383611fb4565b909182549160031b1b191690555582526020526040812055600190565b634e487b7160e01b86526031600452602486fd5b6125316125216120059386611fb4565b90549060031b1c92839286611fb4565b905586528460205260408620553880806124c8565b634e487b7160e01b88526011600452602488fd5b634e487b7160e01b87526011600452602487fd5b5050505090565b604080516001600160a01b03929092169291908101906001600160401b03821181831017610ede57612609916040526020938482527f5361666545524332303a206c6f772d6c6576656c2063616c6c206661696c6564858301526000808587829751910182855af13d1561269b573d916125ee83611ee2565b926125fc6040519485611db7565b83523d868885013e61269f565b805180612617575b50505050565b818491810103126126975782015190811591821503612694575061263d57808080612611565b6084906040519062461bcd60e51b82526004820152602a60248201527f5361666545524332303a204552433230206f7065726174696f6e20646964206e6044820152691bdd081cdd58d8d9595960b21b6064820152fd5b80fd5b5080fd5b6060915b9192901561270157508151156126b3575090565b3b156126bc5790565b60405162461bcd60e51b815260206004820152601d60248201527f416464726573733a2063616c6c20746f206e6f6e2d636f6e74726163740000006044820152606490fd5b8251909150156127145750805190602001fd5b60405162461bcd60e51b815260206004820152908190612738906024830190611c79565b0390fd5b929060018060a01b03809416604093845192866370a0823160e01b9283865216908160048601526020978886602481885afa9586156128aa5760009661287b575b5087516323b872dd60e01b8a82015291166024820152604481018290526064808201879052815260a08101926001600160401b03841182851017610ede576127cb6024928a958a5286612575565b87519485938492835260048301525afa90811561287057600091612841575b50906127f5916122a5565b036127fe575050565b60649250519062461bcd60e51b82526004820152601f60248201527f4e6f7420656e6f75676820746f6b656e20776173207472616e736665726564006044820152fd5b908582813d8311612869575b6128578183611db7565b810103126126945750516127f56127ea565b503d61284d565b84513d6000823e3d90fd5b90958982813d83116128a3575b6128928183611db7565b81010312612694575051943861277d565b503d612888565b88513d6000823e3d90fd5b6001600160401b038111610ede5760051b60200190565b906040516128d981611d9c565b8254815260018301546001600160a01b0390811660208301526002840154166040820152600383015460608201526004830154608082015260059092015460a0830152565b6040519061292b82611d9c565b8160a06000918281528260208201528260408201528260608201528260808201520152565b6040519061295d82611d9c565b606060a0836000815260006020820152600060408201526000838201528260808201520152565b9061298e826128b5565b61299b6040519182611db7565b82815280926129ac601f19916128b5565b019060005b8281106129bd57505050565b6020906129c8612950565b828285010152016129b1565b60001981146107c65760010190565b8051821015611f835760209160051b010190565b90612a01826128b5565b612a0e6040519182611db7565b8281528092612a1f601f19916128b5565b019060005b828110612a3057505050565b602090612a3b61291e565b82828501015201612a24565b15612a4e57565b60405162461bcd60e51b815260206004820152600d60248201526c092dcecc2d8d2c840d2dcc8caf609b1b6044820152606490fdfe694af1cc8727cdd0afbdd53d9b87b69248bd490224e9dd090e788546506e076fa8b26360df8d5e154ffa5a8a7e894e85f781acfbbef0b744fb9551d8fd0fd36ca2646970667358221220b672c1c5e4e7745d2059e16e155e2d693c3714e79a4b7a707ec94bd3d117e40864736f6c63430008110033","opcodes":"PUSH1 0x80 DUP1 PUSH1 0x40 MSTORE CALLVALUE PUSH2 0x16 JUMPI PUSH2 0x2AF9 SWAP1 DUP2 PUSH2 0x1C DUP3 CODECOPY RETURN JUMPDEST PUSH1 0x0 DUP1 REVERT INVALID PUSH1 0x80 DUP1 PUSH1 0x40 MSTORE PUSH1 0x4 CALLDATASIZE LT ISZERO PUSH2 0x13 JUMPI PUSH1 0x0 DUP1 REVERT JUMPDEST PUSH1 0x0 CALLDATALOAD PUSH1 0xE0 SHR SWAP1 DUP2 PUSH4 0x7873EF1 EQ PUSH2 0x1B6C JUMPI POP DUP1 PUSH4 0x1982242C EQ PUSH2 0x1B4A JUMPI DUP1 PUSH4 0x332F26D7 EQ PUSH2 0x1A70 JUMPI DUP1 PUSH4 0x475831C8 EQ PUSH2 0x1A52 JUMPI DUP1 PUSH4 0x5FBDF739 EQ PUSH2 0x19C5 JUMPI DUP1 PUSH4 0x618DF7A3 EQ PUSH2 0x195F JUMPI DUP1 PUSH4 0x6198E339 EQ PUSH2 0x1734 JUMPI DUP1 PUSH4 0x64BE5B39 EQ PUSH2 0x9AA JUMPI DUP1 PUSH4 0x76C12822 EQ PUSH2 0x8C0 JUMPI DUP1 PUSH4 0x7E6706D3 EQ PUSH2 0x898 JUMPI DUP1 PUSH4 0xA20B8C18 EQ PUSH2 0x7F2 JUMPI DUP1 PUSH4 0xAEC640C6 EQ PUSH2 0x6C9 JUMPI DUP1 PUSH4 0xAEF0E540 EQ PUSH2 0x64F JUMPI DUP1 PUSH4 0xB3B9AA48 EQ PUSH2 0x408 JUMPI DUP1 PUSH4 0xB982922E EQ PUSH2 0x3EA JUMPI DUP1 PUSH4 0xCD83EADC EQ PUSH2 0x39D JUMPI DUP1 PUSH4 0xD68F4DD1 EQ PUSH2 0x373 JUMPI DUP1 PUSH4 0xDA1D8CFF EQ PUSH2 0x2DE JUMPI DUP1 PUSH4 0xE1444FD6 EQ PUSH2 0x23A JUMPI DUP1 PUSH4 0xE3676F88 EQ PUSH2 0x200 JUMPI DUP1 PUSH4 0xEB80BDAE EQ PUSH2 0x1C6 JUMPI DUP1 PUSH4 0xEEACF786 EQ PUSH2 0x13F JUMPI PUSH4 0xFD981C66 EQ PUSH2 0x11C JUMPI PUSH1 0x0 DUP1 REVERT JUMPDEST CALLVALUE PUSH2 0x13A JUMPI PUSH1 0x0 CALLDATASIZE PUSH1 0x3 NOT ADD SLT PUSH2 0x13A JUMPI PUSH1 0x20 PUSH1 0x0 SLOAD PUSH1 0x40 MLOAD SWAP1 DUP2 MSTORE RETURN JUMPDEST PUSH1 0x0 DUP1 REVERT JUMPDEST CALLVALUE PUSH2 0x13A JUMPI PUSH1 0x40 CALLDATASIZE PUSH1 0x3 NOT ADD SLT PUSH2 0x13A JUMPI PUSH1 0xC0 PUSH2 0x1B7 PUSH2 0x1B1 PUSH2 0x1A5 PUSH2 0x163 PUSH2 0x1BA2 JUMP JUMPDEST PUSH1 0x24 CALLDATALOAD SWAP1 PUSH2 0x16F PUSH2 0x291E JUMP JUMPDEST POP PUSH1 0x1 PUSH1 0x1 PUSH1 0xA0 SHL SUB AND PUSH1 0x0 DUP2 DUP2 MSTORE PUSH1 0x1 PUSH1 0x20 MSTORE PUSH1 0x40 SWAP1 KECCAK256 SLOAD PUSH2 0x193 SWAP1 DUP4 LT PUSH2 0x2A47 JUMP JUMPDEST PUSH1 0x0 MSTORE PUSH1 0x1 PUSH1 0x20 MSTORE PUSH1 0x40 PUSH1 0x0 KECCAK256 PUSH2 0x1FB4 JUMP JUMPDEST SWAP1 SLOAD SWAP1 PUSH1 0x3 SHL SHR PUSH2 0x2106 JUMP JUMPDEST POP PUSH2 0x28CC JUMP JUMPDEST PUSH2 0x1C4 PUSH1 0x40 MLOAD DUP1 SWAP3 PUSH2 0x1BB8 JUMP JUMPDEST RETURN JUMPDEST CALLVALUE PUSH2 0x13A JUMPI PUSH1 0x20 CALLDATASIZE PUSH1 0x3 NOT ADD SLT PUSH2 0x13A JUMPI PUSH1 0x1 PUSH1 0x1 PUSH1 0xA0 SHL SUB PUSH2 0x1E7 PUSH2 0x1BA2 JUMP JUMPDEST AND PUSH1 0x0 MSTORE PUSH1 0x2 PUSH1 0x20 MSTORE PUSH1 0x20 PUSH1 0x40 PUSH1 0x0 KECCAK256 SLOAD PUSH1 0x40 MLOAD SWAP1 DUP2 MSTORE RETURN JUMPDEST CALLVALUE PUSH2 0x13A JUMPI PUSH1 0x20 CALLDATASIZE PUSH1 0x3 NOT ADD SLT PUSH2 0x13A JUMPI PUSH1 0x1 PUSH1 0x1 PUSH1 0xA0 SHL SUB PUSH2 0x221 PUSH2 0x1BA2 JUMP JUMPDEST AND PUSH1 0x0 MSTORE PUSH1 0x8 PUSH1 0x20 MSTORE PUSH1 0x20 PUSH1 0x40 PUSH1 0x0 KECCAK256 SLOAD PUSH1 0x40 MLOAD SWAP1 DUP2 MSTORE RETURN JUMPDEST CALLVALUE PUSH2 0x13A JUMPI PUSH1 0x20 CALLDATASIZE PUSH1 0x3 NOT ADD SLT PUSH2 0x13A JUMPI PUSH1 0x1 PUSH1 0x1 PUSH1 0xA0 SHL SUB DUP1 PUSH2 0x25C PUSH2 0x1BA2 JUMP JUMPDEST AND PUSH1 0x0 MSTORE PUSH1 0x7 PUSH1 0x20 MSTORE PUSH1 0x40 PUSH1 0x0 KECCAK256 SWAP1 PUSH2 0x2DA DUP2 DUP4 SLOAD AND SWAP2 PUSH1 0x1 DUP5 ADD SLOAD AND SWAP3 PUSH2 0x2CC PUSH1 0x2 DUP3 ADD SLOAD SWAP2 PUSH1 0xFF PUSH1 0x3 DUP3 ADD SLOAD AND PUSH2 0x2A3 PUSH1 0x5 PUSH2 0x29C PUSH1 0x4 DUP6 ADD PUSH2 0x1DDA JUMP JUMPDEST SWAP4 ADD PUSH2 0x1DDA JUMP JUMPDEST SWAP4 PUSH1 0x40 MLOAD SWAP8 DUP9 SWAP8 DUP9 MSTORE PUSH1 0x20 DUP9 ADD MSTORE PUSH1 0x40 DUP8 ADD MSTORE PUSH1 0x60 DUP7 ADD MSTORE PUSH1 0xC0 PUSH1 0x80 DUP7 ADD MSTORE PUSH1 0xC0 DUP6 ADD SWAP1 PUSH2 0x1C79 JUMP JUMPDEST SWAP1 DUP4 DUP3 SUB PUSH1 0xA0 DUP6 ADD MSTORE PUSH2 0x1C79 JUMP JUMPDEST SUB SWAP1 RETURN JUMPDEST CALLVALUE PUSH2 0x13A JUMPI PUSH1 0x20 DUP1 PUSH1 0x3 NOT CALLDATASIZE ADD SLT PUSH2 0x13A JUMPI PUSH1 0x1 PUSH1 0x1 PUSH1 0xA0 SHL SUB PUSH2 0x300 PUSH2 0x1BA2 JUMP JUMPDEST AND SWAP1 DUP2 PUSH1 0x0 MSTORE PUSH1 0x2 DUP1 DUP3 MSTORE PUSH1 0x40 PUSH1 0x0 KECCAK256 SLOAD SWAP2 PUSH2 0x31B DUP4 PUSH2 0x29F7 JUMP JUMPDEST SWAP4 PUSH1 0x0 JUMPDEST DUP5 DUP2 LT PUSH2 0x334 JUMPI PUSH1 0x40 MLOAD DUP1 PUSH2 0x2DA DUP9 DUP3 PUSH2 0x1BF8 JUMP JUMPDEST PUSH2 0x36E SWAP1 DUP3 PUSH1 0x0 MSTORE DUP5 DUP5 MSTORE PUSH2 0x353 PUSH2 0x1B1 PUSH2 0x1A5 DUP4 PUSH1 0x40 PUSH1 0x0 KECCAK256 PUSH2 0x1FB4 JUMP JUMPDEST PUSH2 0x35D DUP3 DUP10 PUSH2 0x29E3 JUMP JUMPDEST MSTORE PUSH2 0x368 DUP2 DUP9 PUSH2 0x29E3 JUMP JUMPDEST POP PUSH2 0x29D4 JUMP JUMPDEST PUSH2 0x31F JUMP JUMPDEST CALLVALUE PUSH2 0x13A JUMPI PUSH1 0x20 CALLDATASIZE PUSH1 0x3 NOT ADD SLT PUSH2 0x13A JUMPI PUSH2 0x38C PUSH2 0x291E JUMP JUMPDEST POP PUSH1 0xC0 PUSH2 0x1B7 PUSH2 0x1B1 PUSH1 0x4 CALLDATALOAD PUSH2 0x2106 JUMP JUMPDEST CALLVALUE PUSH2 0x13A JUMPI PUSH1 0x20 CALLDATASIZE PUSH1 0x3 NOT ADD SLT PUSH2 0x13A JUMPI PUSH1 0x1 PUSH1 0x1 PUSH1 0xA0 SHL SUB PUSH2 0x3BE PUSH2 0x1BA2 JUMP JUMPDEST AND PUSH1 0x0 MSTORE PUSH1 0x2 PUSH1 0x20 MSTORE PUSH1 0x20 PUSH2 0x3E2 PUSH1 0x40 PUSH1 0x0 KECCAK256 SLOAD PUSH1 0x1 DUP4 MSTORE PUSH1 0x40 PUSH1 0x0 KECCAK256 SLOAD SWAP1 PUSH2 0x1F5B JUMP JUMPDEST PUSH1 0x40 MLOAD SWAP1 DUP2 MSTORE RETURN JUMPDEST CALLVALUE PUSH2 0x13A JUMPI PUSH1 0x0 CALLDATASIZE PUSH1 0x3 NOT ADD SLT PUSH2 0x13A JUMPI PUSH1 0x20 PUSH1 0x3 SLOAD PUSH1 0x40 MLOAD SWAP1 DUP2 MSTORE RETURN JUMPDEST PUSH1 0x60 CALLDATASIZE PUSH1 0x3 NOT ADD SLT PUSH2 0x13A JUMPI PUSH1 0x4 CALLDATALOAD PUSH1 0x24 CALLDATALOAD SWAP1 PUSH2 0x434 PUSH1 0x44 CALLDATALOAD SWAP2 PUSH2 0x42F PUSH1 0x0 SLOAD DUP3 LT PUSH2 0x2210 JUMP JUMPDEST PUSH2 0x2106 JUMP JUMPDEST POP SWAP1 PUSH1 0x2 DUP3 ADD PUSH1 0x1 DUP1 PUSH1 0xA0 SHL SUB SWAP4 PUSH2 0x450 DUP6 DUP4 SLOAD AND CALLER EQ PUSH2 0x224E JUMP JUMPDEST PUSH1 0x3 DUP5 ADD SWAP3 DUP4 SLOAD SWAP1 DUP2 ISZERO PUSH2 0x616 JUMPI DUP1 PUSH2 0x57B JUMPI JUMPDEST POP DUP2 PUSH2 0x4A6 JUMPI JUMPDEST POP POP PUSH2 0x4A1 DUP4 PUSH1 0x5 PUSH1 0x0 DUP1 MLOAD PUSH1 0x20 PUSH2 0x2AA4 DUP4 CODECOPY DUP2 MLOAD SWAP2 MSTORE SWAP6 SLOAD SWAP7 DUP1 PUSH1 0x1 DUP5 ADD SLOAD AND SWAP5 SLOAD AND SWAP5 SLOAD SWAP2 ADD SLOAD SWAP1 PUSH1 0x40 MLOAD SWAP5 DUP6 SWAP5 DUP6 PUSH2 0x1E9F JUMP JUMPDEST SUB SWAP1 LOG2 STOP JUMPDEST SWAP1 SWAP4 DUP2 DUP6 LT PUSH2 0x51C JUMPI DUP5 DUP7 PUSH2 0x4CD PUSH2 0x4A1 SWAP5 PUSH1 0x0 DUP1 MLOAD PUSH1 0x20 PUSH2 0x2AA4 DUP4 CODECOPY DUP2 MLOAD SWAP2 MSTORE SWAP9 PUSH2 0x22A5 JUMP JUMPDEST SWAP2 DUP3 PUSH2 0x4DD JUMPI JUMPDEST POP POP POP SWAP4 PUSH2 0x46B JUMP JUMPDEST PUSH1 0x1 DUP5 ADD SWAP1 PUSH2 0x4F3 DUP5 DUP5 DUP5 SLOAD AND ADDRESS SWAP1 CALLER SWAP1 PUSH2 0x273C JUMP JUMPDEST DUP8 SSTORE SLOAD AND PUSH1 0x0 MSTORE PUSH1 0x7 PUSH1 0x20 MSTORE PUSH2 0x512 PUSH1 0x2 PUSH1 0x40 PUSH1 0x0 KECCAK256 ADD SWAP2 DUP3 SLOAD PUSH2 0x1F5B JUMP JUMPDEST SWAP1 SSTORE DUP7 DUP7 DUP2 PUSH2 0x4D4 JUMP JUMPDEST PUSH1 0x40 MLOAD PUSH3 0x461BCD PUSH1 0xE5 SHL DUP2 MSTORE PUSH1 0x20 PUSH1 0x4 DUP3 ADD MSTORE PUSH1 0x31 PUSH1 0x24 DUP3 ADD MSTORE PUSH32 0x4E657720616D6F756E742073686F756C64206E6F74206265206C657373207468 PUSH1 0x44 DUP3 ADD MSTORE PUSH17 0x185B8818DD5C9C995B9D08185B5BDD5B9D PUSH1 0x7A SHL PUSH1 0x64 DUP3 ADD MSTORE PUSH1 0x84 SWAP1 REVERT JUMPDEST PUSH1 0x5 DUP7 ADD DUP1 SLOAD DUP3 LT ISZERO DUP1 PUSH2 0x60D JUMPI JUMPDEST ISZERO PUSH2 0x596 JUMPI SSTORE DUP7 PUSH2 0x464 JUMP JUMPDEST PUSH1 0xA4 PUSH1 0x40 MLOAD PUSH3 0x461BCD PUSH1 0xE5 SHL DUP2 MSTORE PUSH1 0x20 PUSH1 0x4 DUP3 ADD MSTORE PUSH1 0x44 PUSH1 0x24 DUP3 ADD MSTORE PUSH32 0x4E657720756E6C6F636B2074696D652073686F756C64206E6F74206265206265 PUSH1 0x44 DUP3 ADD MSTORE PUSH32 0x666F7265206F6C6420756E6C6F636B2074696D65206F722063757272656E7420 PUSH1 0x64 DUP3 ADD MSTORE PUSH4 0x74696D65 PUSH1 0xE0 SHL PUSH1 0x84 DUP3 ADD MSTORE REVERT JUMPDEST POP TIMESTAMP DUP3 GT PUSH2 0x58A JUMP JUMPDEST PUSH1 0x40 MLOAD PUSH3 0x461BCD PUSH1 0xE5 SHL DUP2 MSTORE PUSH1 0x20 PUSH1 0x4 DUP3 ADD MSTORE PUSH1 0x11 PUSH1 0x24 DUP3 ADD MSTORE PUSH17 0x131BD8DAC81DD85CC81D5B9B1BD8DAD959 PUSH1 0x7A SHL PUSH1 0x44 DUP3 ADD MSTORE PUSH1 0x64 SWAP1 REVERT JUMPDEST CALLVALUE PUSH2 0x13A JUMPI PUSH1 0x20 DUP1 PUSH1 0x3 NOT CALLDATASIZE ADD SLT PUSH2 0x13A JUMPI PUSH1 0x1 PUSH1 0x1 PUSH1 0xA0 SHL SUB PUSH2 0x671 PUSH2 0x1BA2 JUMP JUMPDEST AND SWAP1 DUP2 PUSH1 0x0 MSTORE PUSH1 0x1 DUP1 DUP3 MSTORE PUSH1 0x40 PUSH1 0x0 KECCAK256 SLOAD SWAP2 PUSH2 0x68C DUP4 PUSH2 0x29F7 JUMP JUMPDEST SWAP4 PUSH1 0x0 JUMPDEST DUP5 DUP2 LT PUSH2 0x6A5 JUMPI PUSH1 0x40 MLOAD DUP1 PUSH2 0x2DA DUP9 DUP3 PUSH2 0x1BF8 JUMP JUMPDEST PUSH2 0x6C4 SWAP1 DUP3 PUSH1 0x0 MSTORE DUP5 DUP5 MSTORE PUSH2 0x353 PUSH2 0x1B1 PUSH2 0x1A5 DUP4 PUSH1 0x40 PUSH1 0x0 KECCAK256 PUSH2 0x1FB4 JUMP JUMPDEST PUSH2 0x690 JUMP JUMPDEST CALLVALUE PUSH2 0x13A JUMPI PUSH2 0x6D7 CALLDATASIZE PUSH2 0x1C40 JUMP JUMPDEST PUSH1 0x3 DUP1 SLOAD SWAP1 SWAP3 SWAP1 DUP1 DUP4 LT ISZERO PUSH2 0x7DC JUMPI JUMPDEST POP PUSH2 0x6F2 DUP2 DUP4 PUSH2 0x22A5 JUMP JUMPDEST PUSH1 0x1 SWAP1 DUP2 DUP2 ADD DUP1 SWAP2 GT PUSH2 0x7C6 JUMPI PUSH2 0x708 SWAP1 PUSH2 0x2984 JUMP JUMPDEST SWAP4 PUSH1 0x0 JUMPDEST DUP5 DUP5 GT ISZERO PUSH2 0x722 JUMPI PUSH1 0x40 MLOAD DUP1 PUSH2 0x2DA DUP9 DUP3 PUSH2 0x1D00 JUMP JUMPDEST PUSH2 0x7BA PUSH2 0x7C0 SWAP2 PUSH2 0x732 DUP7 PUSH2 0x1F99 JUMP JUMPDEST SWAP1 PUSH1 0x1 DUP1 PUSH1 0xA0 SHL SUB SWAP2 DUP3 SWAP2 SLOAD SWAP1 DUP8 SHL SHR AND PUSH1 0x0 MSTORE PUSH2 0x7A0 PUSH1 0x5 PUSH1 0x20 PUSH1 0x7 DUP2 MSTORE PUSH1 0x40 PUSH1 0x0 KECCAK256 SWAP1 PUSH1 0x40 MLOAD SWAP5 PUSH2 0x764 DUP7 PUSH2 0x1D9C JUMP JUMPDEST DUP1 DUP4 SLOAD AND DUP7 MSTORE DUP11 DUP4 ADD SLOAD AND SWAP1 DUP6 ADD MSTORE PUSH1 0x2 DUP2 ADD SLOAD PUSH1 0x40 DUP6 ADD MSTORE PUSH1 0xFF DUP9 DUP3 ADD SLOAD AND PUSH1 0x60 DUP6 ADD MSTORE PUSH2 0x795 PUSH1 0x4 DUP3 ADD PUSH2 0x1DDA JUMP JUMPDEST PUSH1 0x80 DUP6 ADD MSTORE ADD PUSH2 0x1DDA JUMP JUMPDEST PUSH1 0xA0 DUP3 ADD MSTORE PUSH2 0x7AF DUP3 DUP11 PUSH2 0x29E3 JUMP JUMPDEST MSTORE PUSH2 0x368 DUP2 DUP10 PUSH2 0x29E3 JUMP JUMPDEST SWAP4 PUSH2 0x29D4 JUMP JUMPDEST SWAP3 PUSH2 0x70C JUMP JUMPDEST PUSH4 0x4E487B71 PUSH1 0xE0 SHL PUSH1 0x0 MSTORE PUSH1 0x11 PUSH1 0x4 MSTORE PUSH1 0x24 PUSH1 0x0 REVERT JUMPDEST SWAP1 SWAP2 POP PUSH1 0x0 NOT DUP2 ADD SWAP1 DUP2 GT PUSH2 0x7C6 JUMPI SWAP1 DUP4 PUSH2 0x6E7 JUMP JUMPDEST CALLVALUE PUSH2 0x13A JUMPI PUSH1 0x20 CALLDATASIZE PUSH1 0x3 NOT ADD SLT PUSH2 0x13A JUMPI PUSH2 0x80B PUSH2 0x2950 JUMP JUMPDEST POP PUSH2 0x2DA PUSH2 0x81A PUSH1 0x4 CALLDATALOAD PUSH2 0x1F99 JUMP JUMPDEST SWAP1 PUSH1 0x1 DUP1 PUSH1 0xA0 SHL SUB SWAP2 DUP3 SWAP2 SLOAD SWAP1 PUSH1 0x3 SHL SHR AND PUSH1 0x0 MSTORE PUSH1 0x7 PUSH1 0x20 MSTORE PUSH2 0x87F PUSH1 0x5 PUSH1 0x40 PUSH1 0x0 KECCAK256 PUSH1 0x40 MLOAD SWAP4 PUSH2 0x84B DUP6 PUSH2 0x1D9C JUMP JUMPDEST DUP1 DUP3 SLOAD AND DUP6 MSTORE PUSH1 0x1 DUP3 ADD SLOAD AND PUSH1 0x20 DUP6 ADD MSTORE PUSH1 0x2 DUP2 ADD SLOAD PUSH1 0x40 DUP6 ADD MSTORE PUSH1 0xFF PUSH1 0x3 DUP3 ADD SLOAD AND PUSH1 0x60 DUP6 ADD MSTORE PUSH2 0x795 PUSH1 0x4 DUP3 ADD PUSH2 0x1DDA JUMP JUMPDEST PUSH1 0xA0 DUP3 ADD MSTORE PUSH1 0x40 MLOAD SWAP2 DUP3 SWAP2 PUSH1 0x20 DUP4 MSTORE PUSH1 0x20 DUP4 ADD SWAP1 PUSH2 0x1C9E JUMP JUMPDEST CALLVALUE PUSH2 0x13A JUMPI PUSH1 0x20 CALLDATASIZE PUSH1 0x3 NOT ADD SLT PUSH2 0x13A JUMPI PUSH2 0x8B1 PUSH2 0x2950 JUMP JUMPDEST POP PUSH2 0x2DA PUSH2 0x81A PUSH1 0x4 CALLDATALOAD PUSH2 0x1F68 JUMP JUMPDEST CALLVALUE PUSH2 0x13A JUMPI PUSH2 0x8CE CALLDATASIZE PUSH2 0x1C40 JUMP JUMPDEST PUSH1 0x5 DUP1 SLOAD SWAP1 SWAP3 SWAP1 DUP1 DUP4 LT ISZERO PUSH2 0x994 JUMPI JUMPDEST POP PUSH2 0x8E9 DUP2 DUP4 PUSH2 0x22A5 JUMP JUMPDEST PUSH1 0x1 SWAP1 DUP2 DUP2 ADD DUP1 SWAP2 GT PUSH2 0x7C6 JUMPI PUSH2 0x8FF SWAP1 PUSH2 0x2984 JUMP JUMPDEST SWAP4 PUSH1 0x0 JUMPDEST DUP5 DUP5 GT ISZERO PUSH2 0x919 JUMPI PUSH1 0x40 MLOAD DUP1 PUSH2 0x2DA DUP9 DUP3 PUSH2 0x1D00 JUMP JUMPDEST PUSH2 0x7BA PUSH2 0x98E SWAP2 DUP4 PUSH2 0x7A0 PUSH2 0x92D DUP9 PUSH2 0x1F68 JUMP JUMPDEST PUSH1 0x1 DUP1 PUSH1 0xA0 SWAP6 SWAP4 SWAP6 SHL SUB DUP1 SWAP5 SLOAD PUSH1 0x3 SWAP3 DUP4 SHL SHR AND PUSH1 0x0 MSTORE PUSH1 0xFF PUSH1 0x20 SWAP2 PUSH1 0x7 DUP4 MSTORE PUSH1 0x40 PUSH1 0x0 KECCAK256 SWAP3 PUSH1 0x40 MLOAD SWAP7 PUSH2 0x960 DUP9 PUSH2 0x1D9C JUMP JUMPDEST DUP1 DUP6 SLOAD AND DUP9 MSTORE DUP13 DUP6 ADD SLOAD AND SWAP1 DUP8 ADD MSTORE PUSH1 0x2 DUP4 ADD SLOAD PUSH1 0x40 DUP8 ADD MSTORE DUP3 ADD SLOAD AND PUSH1 0x60 DUP6 ADD MSTORE PUSH2 0x795 PUSH1 0x4 DUP3 ADD PUSH2 0x1DDA JUMP JUMPDEST SWAP3 PUSH2 0x903 JUMP JUMPDEST SWAP1 SWAP2 POP PUSH1 0x0 NOT DUP2 ADD SWAP1 DUP2 GT PUSH2 0x7C6 JUMPI SWAP1 DUP4 PUSH2 0x8DE JUMP JUMPDEST PUSH1 0xA0 CALLDATASIZE PUSH1 0x3 NOT ADD SLT PUSH2 0x13A JUMPI PUSH2 0x9BE PUSH2 0x1BA2 JUMP JUMPDEST PUSH1 0x24 CALLDATALOAD PUSH1 0x1 PUSH1 0x1 PUSH1 0xA0 SHL SUB DUP2 AND SWAP1 SUB PUSH2 0x13A JUMPI PUSH1 0x44 DUP1 CALLDATALOAD DUP1 ISZERO ISZERO DUP2 SUB PUSH2 0x13A JUMPI TIMESTAMP PUSH1 0x84 CALLDATALOAD GT ISZERO PUSH2 0x16DF JUMPI PUSH1 0x64 CALLDATALOAD ISZERO PUSH2 0x169B JUMPI ISZERO PUSH2 0x122B JUMPI PUSH1 0x40 MLOAD PUSH4 0xC45A0155 PUSH1 0xE0 SHL DUP2 MSTORE PUSH1 0x20 DUP2 PUSH1 0x4 DUP2 PUSH1 0x24 CALLDATALOAD PUSH1 0x1 PUSH1 0x1 PUSH1 0xA0 SHL SUB AND GAS STATICCALL PUSH1 0x0 SWAP2 DUP2 PUSH2 0x120A JUMPI JUMPDEST POP PUSH2 0xA67 JUMPI PUSH1 0x40 MLOAD PUSH3 0x461BCD PUSH1 0xE5 SHL DUP2 MSTORE PUSH1 0x20 PUSH1 0x4 DUP3 ADD MSTORE PUSH1 0x1C PUSH1 0x24 DUP3 ADD MSTORE PUSH28 0x2A3434B9903A37B5B2B71034B9903737BA1030902628103A37B5B2B7 PUSH1 0x21 SHL DUP2 DUP5 ADD MSTORE PUSH1 0x64 SWAP1 REVERT JUMPDEST SWAP1 PUSH1 0x1 PUSH1 0x1 PUSH1 0xA0 SHL SUB DUP3 AND ISZERO ISZERO DUP1 PUSH2 0x10F1 JUMPI JUMPDEST ISZERO PUSH2 0x10AD JUMPI POP PUSH2 0xA92 PUSH1 0x84 CALLDATALOAD PUSH1 0x64 CALLDATALOAD PUSH1 0x24 CALLDATALOAD DUP6 PUSH2 0x2137 JUMP JUMPDEST SWAP1 PUSH1 0x1 DUP1 PUSH1 0xA0 SHL SUB DUP4 AND PUSH1 0x0 MSTORE PUSH1 0x1 PUSH1 0x20 MSTORE PUSH2 0xAB2 DUP3 PUSH1 0x40 PUSH1 0x0 KECCAK256 PUSH2 0x2098 JUMP JUMPDEST POP PUSH2 0xAC7 PUSH1 0x24 CALLDATALOAD PUSH1 0x1 PUSH1 0x1 PUSH1 0xA0 SHL SUB AND PUSH2 0x204B JUMP JUMPDEST POP PUSH1 0x1 PUSH1 0x1 PUSH1 0xA0 SHL SUB PUSH1 0x24 CALLDATALOAD DUP2 AND PUSH1 0x0 SWAP1 DUP2 MSTORE PUSH1 0x7 PUSH1 0x20 MSTORE PUSH1 0x40 SWAP1 KECCAK256 DUP1 SLOAD SWAP1 SWAP3 SWAP2 DUP2 AND ISZERO PUSH2 0xB72 JUMPI JUMPDEST POP POP SWAP2 PUSH1 0x0 DUP1 MLOAD PUSH1 0x20 PUSH2 0x2A84 DUP4 CODECOPY DUP2 MLOAD SWAP2 MSTORE PUSH2 0xB67 SWAP3 PUSH1 0x2 PUSH1 0x20 SWAP6 ADD PUSH2 0xB19 PUSH1 0x64 CALLDATALOAD DUP3 SLOAD PUSH2 0x1F5B JUMP JUMPDEST SWAP1 SSTORE PUSH1 0x1 DUP1 PUSH1 0xA0 SHL SUB PUSH1 0x24 CALLDATALOAD AND PUSH1 0x0 MSTORE PUSH1 0x8 DUP6 MSTORE PUSH2 0xB3B DUP2 PUSH1 0x40 PUSH1 0x0 KECCAK256 PUSH2 0x2098 JUMP JUMPDEST POP SWAP3 DUP4 SWAP3 JUMPDEST PUSH2 0xB50 PUSH1 0x64 CALLDATALOAD ADDRESS CALLER PUSH1 0x24 CALLDATALOAD PUSH2 0x273C JUMP JUMPDEST PUSH1 0x40 MLOAD SWAP2 DUP3 SWAP2 PUSH1 0x84 CALLDATALOAD SWAP1 PUSH1 0x64 CALLDATALOAD SWAP1 PUSH1 0x24 CALLDATALOAD DUP6 PUSH2 0x1E9F JUMP JUMPDEST SUB SWAP1 LOG2 PUSH1 0x40 MLOAD SWAP1 DUP2 MSTORE RETURN JUMPDEST PUSH1 0x1 PUSH1 0x1 PUSH1 0xA0 SHL SUB NOT AND PUSH1 0x24 CALLDATALOAD PUSH1 0x1 PUSH1 0x1 PUSH1 0xA0 SHL SUB AND SWAP1 DUP2 OR DUP4 SSTORE PUSH1 0x40 MLOAD PUSH4 0xDFE1681 PUSH1 0xE0 SHL DUP2 MSTORE SWAP5 SWAP3 SWAP2 SWAP1 PUSH1 0x20 SWAP1 DUP7 SWAP1 PUSH1 0x4 SWAP1 DUP3 SWAP1 GAS STATICCALL SWAP5 DUP6 ISZERO PUSH2 0xF20 JUMPI PUSH1 0x0 SWAP6 PUSH2 0x108C JUMPI JUMPDEST POP PUSH1 0x40 MLOAD PUSH4 0xD21220A7 PUSH1 0xE0 SHL DUP2 MSTORE SWAP1 PUSH1 0x20 DUP3 PUSH1 0x4 DUP2 PUSH1 0x24 CALLDATALOAD PUSH1 0x1 PUSH1 0x1 PUSH1 0xA0 SHL SUB AND GAS STATICCALL SWAP2 DUP3 ISZERO PUSH2 0xF20 JUMPI PUSH1 0x0 SWAP3 PUSH2 0x105B JUMPI JUMPDEST POP PUSH1 0x1 DUP4 ADD DUP1 SLOAD PUSH1 0x1 PUSH1 0x1 PUSH1 0xA0 SHL SUB NOT AND PUSH1 0x1 PUSH1 0x1 PUSH1 0xA0 SHL SUB SWAP3 DUP4 AND OR SWAP1 SSTORE PUSH1 0x40 MLOAD PUSH4 0x313CE567 PUSH1 0xE0 SHL DUP2 MSTORE SWAP1 PUSH1 0x20 SWAP1 DUP3 SWAP1 PUSH1 0x4 SWAP1 DUP3 SWAP1 PUSH1 0x24 CALLDATALOAD AND GAS STATICCALL SWAP1 DUP2 ISZERO PUSH2 0xF20 JUMPI PUSH1 0x0 SWAP2 PUSH2 0x102C JUMPI JUMPDEST POP PUSH1 0x3 DUP4 ADD DUP1 SLOAD PUSH1 0xFF NOT AND PUSH1 0xFF SWAP3 SWAP1 SWAP3 AND SWAP2 SWAP1 SWAP2 OR SWAP1 SSTORE PUSH1 0x40 MLOAD PUSH4 0x6FDDE03 PUSH1 0xE0 SHL DUP2 MSTORE SWAP5 PUSH1 0x0 DUP7 PUSH1 0x4 DUP2 PUSH1 0x24 CALLDATALOAD PUSH1 0x1 PUSH1 0x1 PUSH1 0xA0 SHL SUB AND GAS STATICCALL SWAP6 DUP7 ISZERO PUSH2 0xF20 JUMPI PUSH1 0x0 SWAP7 PUSH2 0x100F JUMPI JUMPDEST POP DUP6 MLOAD PUSH1 0x1 PUSH1 0x1 PUSH1 0x40 SHL SUB DUP2 GT PUSH2 0xEDE JUMPI PUSH2 0xC9D PUSH1 0x4 DUP6 ADD SLOAD PUSH2 0x1D62 JUMP JUMPDEST PUSH1 0x1F DUP2 GT PUSH2 0xFC8 JUMPI JUMPDEST POP PUSH1 0x20 PUSH1 0x1F DUP3 GT PUSH1 0x1 EQ PUSH2 0xF56 JUMPI SWAP1 DUP1 PUSH1 0x0 SWAP4 SWAP3 PUSH1 0x4 SWAP10 DUP6 SWAP3 PUSH2 0xF4B JUMPI JUMPDEST POP POP DUP2 PUSH1 0x1 SHL SWAP2 DUP5 NOT SWAP1 PUSH1 0x3 SHL SHR NOT AND OR DUP8 DUP6 ADD SSTORE JUMPDEST PUSH1 0x40 MLOAD PUSH4 0x95D89B41 PUSH1 0xE0 SHL DUP2 MSTORE SWAP7 DUP8 SWAP2 DUP3 SWAP1 PUSH1 0x1 PUSH1 0x1 PUSH1 0xA0 SHL SUB AND GAS STATICCALL SWAP1 DUP2 ISZERO PUSH2 0xF20 JUMPI PUSH1 0x4 SWAP6 PUSH1 0x0 SWAP3 PUSH2 0xF2C JUMPI JUMPDEST POP PUSH1 0x40 MLOAD PUSH4 0x95D89B41 PUSH1 0xE0 SHL DUP2 MSTORE SWAP6 PUSH1 0x0 SWAP2 DUP8 SWAP2 SWAP1 DUP3 SWAP1 PUSH1 0x1 PUSH1 0x1 PUSH1 0xA0 SHL SUB AND GAS STATICCALL SWAP5 DUP6 ISZERO PUSH2 0xF20 JUMPI PUSH1 0x0 SWAP6 PUSH2 0xEF4 JUMPI JUMPDEST POP PUSH1 0x21 PUSH2 0xD88 SWAP2 PUSH1 0x40 MLOAD SWAP7 DUP2 PUSH2 0xD5A DUP10 SWAP4 MLOAD DUP1 SWAP3 PUSH1 0x20 DUP1 DUP8 ADD SWAP2 ADD PUSH2 0x1C56 JUMP JUMPDEST DUP3 ADD PUSH1 0x2F PUSH1 0xF8 SHL PUSH1 0x20 DUP3 ADD MSTORE PUSH2 0xD79 DUP3 MLOAD DUP1 SWAP4 PUSH1 0x20 DUP8 DUP6 ADD SWAP2 ADD PUSH2 0x1C56 JUMP JUMPDEST ADD SUB PUSH1 0x1 DUP2 ADD DUP8 MSTORE ADD DUP6 PUSH2 0x1DB7 JUMP JUMPDEST DUP4 MLOAD PUSH1 0x1 PUSH1 0x1 PUSH1 0x40 SHL SUB DUP2 GT PUSH2 0xEDE JUMPI PUSH2 0xDA5 PUSH1 0x5 DUP4 ADD SLOAD PUSH2 0x1D62 JUMP JUMPDEST SWAP5 PUSH1 0x1F DUP7 GT PUSH2 0xE93 JUMPI JUMPDEST PUSH1 0x20 SWAP6 POP DUP6 SWAP1 PUSH1 0x1F DUP4 GT PUSH1 0x1 EQ PUSH2 0xE0F JUMPI SWAP3 DUP3 PUSH2 0xB67 SWAP7 SWAP4 PUSH1 0x2 SWAP4 PUSH1 0x0 DUP1 MLOAD PUSH1 0x20 PUSH2 0x2A84 DUP4 CODECOPY DUP2 MLOAD SWAP2 MSTORE SWAP7 PUSH1 0x0 SWAP3 PUSH2 0xE04 JUMPI JUMPDEST POP POP DUP2 PUSH1 0x1 SHL SWAP2 PUSH1 0x0 NOT SWAP1 PUSH1 0x3 SHL SHR NOT AND OR PUSH1 0x5 DUP3 ADD SSTORE JUMPDEST SWAP4 SWAP6 POP POP SWAP3 PUSH2 0xAF0 JUMP JUMPDEST ADD MLOAD SWAP1 POP DUP10 DUP1 PUSH2 0xDE2 JUMP JUMPDEST SWAP1 PUSH1 0x5 DUP5 ADD PUSH1 0x0 MSTORE DUP7 PUSH1 0x0 KECCAK256 SWAP2 PUSH1 0x0 JUMPDEST PUSH1 0x1F NOT DUP6 AND DUP2 LT PUSH2 0xE7C JUMPI POP DUP4 PUSH1 0x2 SWAP4 PUSH1 0x0 DUP1 MLOAD PUSH1 0x20 PUSH2 0x2A84 DUP4 CODECOPY DUP2 MLOAD SWAP2 MSTORE SWAP7 SWAP4 PUSH1 0x1 SWAP4 PUSH2 0xB67 SWAP11 SWAP8 PUSH1 0x1F NOT DUP2 AND LT PUSH2 0xE63 JUMPI JUMPDEST POP POP POP DUP2 SHL ADD PUSH1 0x5 DUP3 ADD SSTORE PUSH2 0xDFA JUMP JUMPDEST ADD MLOAD PUSH1 0x0 NOT PUSH1 0xF8 DUP5 PUSH1 0x3 SHL AND SHR NOT AND SWAP1 SSTORE DUP10 DUP1 DUP1 PUSH2 0xE53 JUMP JUMPDEST SWAP2 SWAP3 DUP9 PUSH1 0x1 DUP2 SWAP3 DUP7 DUP6 ADD MLOAD DUP2 SSTORE ADD SWAP5 ADD SWAP3 ADD PUSH2 0xE1F JUMP JUMPDEST PUSH1 0x5 DUP4 ADD PUSH1 0x0 MSTORE PUSH1 0x20 PUSH1 0x0 KECCAK256 PUSH1 0x1F DUP4 ADD PUSH1 0x5 SHR DUP2 ADD SWAP7 PUSH1 0x20 DUP5 LT PUSH2 0xED4 JUMPI JUMPDEST PUSH1 0x1F ADD PUSH1 0x5 SHR ADD SWAP6 JUMPDEST DUP7 DUP2 LT PUSH2 0xEC8 JUMPI POP PUSH2 0xDAF JUMP JUMPDEST PUSH1 0x0 DUP2 SSTORE PUSH1 0x1 ADD PUSH2 0xEBB JUMP JUMPDEST SWAP1 SWAP7 POP DUP7 SWAP1 PUSH2 0xEB2 JUMP JUMPDEST PUSH4 0x4E487B71 PUSH1 0xE0 SHL PUSH1 0x0 MSTORE PUSH1 0x41 PUSH1 0x4 MSTORE PUSH1 0x24 PUSH1 0x0 REVERT JUMPDEST PUSH2 0xD88 SWAP2 SWAP6 POP PUSH2 0xF18 PUSH1 0x21 SWAP2 RETURNDATASIZE DUP1 PUSH1 0x0 DUP4 RETURNDATACOPY PUSH2 0xF10 DUP2 DUP4 PUSH2 0x1DB7 JUMP JUMPDEST DUP2 ADD SWAP1 PUSH2 0x1EFD JUMP JUMPDEST SWAP6 SWAP2 POP PUSH2 0xD3A JUMP JUMPDEST PUSH1 0x40 MLOAD RETURNDATASIZE PUSH1 0x0 DUP3 RETURNDATACOPY RETURNDATASIZE SWAP1 REVERT JUMPDEST PUSH1 0x0 SWAP2 SWAP3 POP PUSH2 0xF44 SWAP1 RETURNDATASIZE DUP1 DUP5 DUP4 RETURNDATACOPY PUSH2 0xF10 DUP2 DUP4 PUSH2 0x1DB7 JUMP JUMPDEST SWAP2 SWAP1 PUSH2 0xD09 JUMP JUMPDEST ADD MLOAD SWAP1 POP DUP10 DUP1 PUSH2 0xCC4 JUMP JUMPDEST PUSH1 0x4 DUP6 ADD PUSH1 0x0 MSTORE PUSH1 0x20 PUSH1 0x0 KECCAK256 SWAP8 PUSH1 0x0 JUMPDEST PUSH1 0x1F NOT DUP5 AND DUP2 LT PUSH2 0xFB0 JUMPI POP SWAP2 PUSH1 0x4 SWAP9 PUSH1 0x1 SWAP3 PUSH1 0x0 SWAP6 SWAP5 DUP4 PUSH1 0x1F NOT DUP2 AND LT PUSH2 0xF98 JUMPI JUMPDEST POP POP POP DUP2 SHL ADD DUP8 DUP6 ADD SSTORE PUSH2 0xCDA JUMP JUMPDEST ADD MLOAD DUP6 NOT PUSH1 0xF8 DUP5 PUSH1 0x3 SHL AND SHR NOT AND SWAP1 SSTORE DUP10 DUP1 DUP1 PUSH2 0xF89 JUMP JUMPDEST DUP3 DUP3 ADD MLOAD DUP11 SSTORE PUSH1 0x1 SWAP1 SWAP10 ADD SWAP9 PUSH1 0x20 SWAP3 DUP4 ADD SWAP3 ADD PUSH2 0xF66 JUMP JUMPDEST PUSH1 0x4 DUP6 ADD PUSH1 0x0 MSTORE PUSH1 0x20 PUSH1 0x0 KECCAK256 PUSH1 0x1F DUP4 ADD PUSH1 0x5 SHR DUP2 ADD PUSH1 0x20 DUP5 LT PUSH2 0x1008 JUMPI JUMPDEST PUSH1 0x1F DUP4 ADD PUSH1 0x5 SHR DUP3 ADD DUP2 LT PUSH2 0xFFC JUMPI POP POP PUSH2 0xCA6 JUMP JUMPDEST PUSH1 0x0 DUP2 SSTORE PUSH1 0x1 ADD PUSH2 0xFE6 JUMP JUMPDEST POP DUP1 PUSH2 0xFE6 JUMP JUMPDEST PUSH2 0x1025 SWAP2 SWAP7 POP RETURNDATASIZE DUP1 PUSH1 0x0 DUP4 RETURNDATACOPY PUSH2 0xF10 DUP2 DUP4 PUSH2 0x1DB7 JUMP JUMPDEST SWAP5 DUP7 PUSH2 0xC7F JUMP JUMPDEST PUSH2 0x104E SWAP2 POP PUSH1 0x20 RETURNDATASIZE PUSH1 0x20 GT PUSH2 0x1054 JUMPI JUMPDEST PUSH2 0x1046 DUP2 DUP4 PUSH2 0x1DB7 JUMP JUMPDEST DUP2 ADD SWAP1 PUSH2 0x1EC9 JUMP JUMPDEST DUP7 PUSH2 0xC37 JUMP JUMPDEST POP RETURNDATASIZE PUSH2 0x103C JUMP JUMPDEST PUSH2 0x107E SWAP2 SWAP3 POP PUSH1 0x20 RETURNDATASIZE PUSH1 0x20 GT PUSH2 0x1085 JUMPI JUMPDEST PUSH2 0x1076 DUP2 DUP4 PUSH2 0x1DB7 JUMP JUMPDEST DUP2 ADD SWAP1 PUSH2 0x1E80 JUMP JUMPDEST SWAP1 DUP7 PUSH2 0xBEB JUMP JUMPDEST POP RETURNDATASIZE PUSH2 0x106C JUMP JUMPDEST PUSH2 0x10A6 SWAP2 SWAP6 POP PUSH1 0x20 RETURNDATASIZE PUSH1 0x20 GT PUSH2 0x1085 JUMPI PUSH2 0x1076 DUP2 DUP4 PUSH2 0x1DB7 JUMP JUMPDEST SWAP4 DUP6 PUSH2 0xBB9 JUMP JUMPDEST PUSH1 0x64 SWAP1 PUSH32 0x5468697320746F6B656E206973206E6F742061204C5020746F6B656E2E000000 PUSH1 0x40 MLOAD SWAP2 PUSH3 0x461BCD PUSH1 0xE5 SHL DUP4 MSTORE PUSH1 0x20 PUSH1 0x4 DUP5 ADD MSTORE PUSH1 0x1D PUSH1 0x24 DUP5 ADD MSTORE DUP3 ADD MSTORE REVERT JUMPDEST POP PUSH1 0x40 MLOAD PUSH4 0xDFE1681 PUSH1 0xE0 SHL DUP2 MSTORE PUSH1 0x20 DUP2 PUSH1 0x4 DUP2 PUSH1 0x24 CALLDATALOAD PUSH1 0x1 PUSH1 0x1 PUSH1 0xA0 SHL SUB AND GAS STATICCALL SWAP1 DUP2 ISZERO PUSH2 0xF20 JUMPI PUSH1 0x0 SWAP2 PUSH2 0x11EB JUMPI JUMPDEST POP PUSH1 0x40 MLOAD PUSH4 0xD21220A7 PUSH1 0xE0 SHL DUP2 MSTORE PUSH1 0x20 DUP2 PUSH1 0x4 DUP2 PUSH1 0x24 CALLDATALOAD PUSH1 0x1 PUSH1 0x1 PUSH1 0xA0 SHL SUB AND GAS STATICCALL SWAP1 DUP2 ISZERO PUSH2 0xF20 JUMPI PUSH1 0x0 SWAP2 PUSH2 0x11CC JUMPI JUMPDEST POP PUSH1 0x40 MLOAD PUSH4 0xE6A43905 PUSH1 0xE0 SHL DUP2 MSTORE PUSH1 0x1 PUSH1 0x1 PUSH1 0xA0 SHL SUB SWAP3 DUP4 AND PUSH1 0x4 DUP3 ADD MSTORE SWAP1 DUP3 AND PUSH1 0x24 DUP3 ADD MSTORE SWAP1 PUSH1 0x20 SWAP1 DUP3 SWAP1 DUP5 SWAP1 DUP3 SWAP1 DUP8 AND GAS STATICCALL SWAP1 DUP2 ISZERO PUSH2 0xF20 JUMPI PUSH1 0x0 SWAP2 PUSH2 0x11AD JUMPI JUMPDEST POP PUSH1 0x24 CALLDATALOAD PUSH1 0x1 PUSH1 0x1 PUSH1 0xA0 SHL SUB SWAP1 DUP2 AND SWAP2 AND EQ PUSH2 0xA7A JUMP JUMPDEST PUSH2 0x11C6 SWAP2 POP PUSH1 0x20 RETURNDATASIZE PUSH1 0x20 GT PUSH2 0x1085 JUMPI PUSH2 0x1076 DUP2 DUP4 PUSH2 0x1DB7 JUMP JUMPDEST DUP5 PUSH2 0x1196 JUMP JUMPDEST PUSH2 0x11E5 SWAP2 POP PUSH1 0x20 RETURNDATASIZE PUSH1 0x20 GT PUSH2 0x1085 JUMPI PUSH2 0x1076 DUP2 DUP4 PUSH2 0x1DB7 JUMP JUMPDEST DUP6 PUSH2 0x1153 JUMP JUMPDEST PUSH2 0x1204 SWAP2 POP PUSH1 0x20 RETURNDATASIZE PUSH1 0x20 GT PUSH2 0x1085 JUMPI PUSH2 0x1076 DUP2 DUP4 PUSH2 0x1DB7 JUMP JUMPDEST DUP5 PUSH2 0x1122 JUMP JUMPDEST PUSH2 0x1224 SWAP2 SWAP3 POP PUSH1 0x20 RETURNDATASIZE PUSH1 0x20 GT PUSH2 0x1085 JUMPI PUSH2 0x1076 DUP2 DUP4 PUSH2 0x1DB7 JUMP JUMPDEST SWAP1 DUP5 PUSH2 0xA1F JUMP JUMPDEST POP PUSH2 0x123E PUSH1 0x84 CALLDATALOAD PUSH1 0x64 CALLDATALOAD PUSH1 0x24 CALLDATALOAD DUP5 PUSH2 0x2137 JUMP JUMPDEST PUSH1 0x1 DUP1 PUSH1 0xA0 SHL SUB DUP3 AND PUSH1 0x0 MSTORE PUSH1 0x2 PUSH1 0x20 MSTORE PUSH2 0x125D DUP2 PUSH1 0x40 PUSH1 0x0 KECCAK256 PUSH2 0x2098 JUMP JUMPDEST POP PUSH2 0x1272 PUSH1 0x24 CALLDATALOAD PUSH1 0x1 PUSH1 0x1 PUSH1 0xA0 SHL SUB AND PUSH2 0x1FCC JUMP JUMPDEST POP PUSH1 0x1 PUSH1 0x1 PUSH1 0xA0 SHL SUB PUSH1 0x24 CALLDATALOAD DUP2 AND PUSH1 0x0 SWAP1 DUP2 MSTORE PUSH1 0x7 PUSH1 0x20 MSTORE PUSH1 0x40 SWAP1 KECCAK256 DUP1 SLOAD SWAP1 SWAP2 DUP2 AND ISZERO PUSH2 0x12ED JUMPI JUMPDEST POP SWAP2 PUSH1 0x0 DUP1 MLOAD PUSH1 0x20 PUSH2 0x2A84 DUP4 CODECOPY DUP2 MLOAD SWAP2 MSTORE PUSH2 0xB67 SWAP3 PUSH1 0x2 PUSH1 0x20 SWAP6 ADD PUSH2 0x12C2 PUSH1 0x64 CALLDATALOAD DUP3 SLOAD PUSH2 0x1F5B JUMP JUMPDEST SWAP1 SSTORE PUSH1 0x1 DUP1 PUSH1 0xA0 SHL SUB PUSH1 0x24 CALLDATALOAD AND PUSH1 0x0 MSTORE PUSH1 0x8 DUP6 MSTORE PUSH2 0x12E4 DUP2 PUSH1 0x40 PUSH1 0x0 KECCAK256 PUSH2 0x2098 JUMP JUMPDEST POP SWAP3 DUP4 SWAP3 PUSH2 0xB40 JUMP JUMPDEST PUSH1 0x1 DUP3 ADD DUP1 SLOAD PUSH1 0x1 PUSH1 0x1 PUSH1 0xA0 SHL SUB NOT SWAP1 DUP2 AND SWAP1 SWAP2 SSTORE AND PUSH1 0x24 CALLDATALOAD PUSH1 0x1 PUSH1 0x1 PUSH1 0xA0 SHL SUB AND SWAP1 DUP2 OR DUP3 SSTORE PUSH1 0x40 MLOAD PUSH4 0x313CE567 PUSH1 0xE0 SHL DUP2 MSTORE SWAP2 SWAP3 SWAP2 SWAP1 PUSH1 0x20 SWAP1 DUP3 SWAP1 PUSH1 0x4 SWAP1 DUP3 SWAP1 GAS STATICCALL SWAP1 DUP2 ISZERO PUSH2 0xF20 JUMPI PUSH1 0x0 SWAP2 PUSH2 0x167C JUMPI JUMPDEST POP PUSH1 0x3 DUP4 ADD DUP1 SLOAD PUSH1 0xFF NOT AND PUSH1 0xFF SWAP3 SWAP1 SWAP3 AND SWAP2 SWAP1 SWAP2 OR SWAP1 SSTORE PUSH1 0x40 MLOAD PUSH4 0x6FDDE03 PUSH1 0xE0 SHL DUP2 MSTORE SWAP3 PUSH1 0x0 DUP5 PUSH1 0x4 DUP2 PUSH1 0x24 CALLDATALOAD PUSH1 0x1 PUSH1 0x1 PUSH1 0xA0 SHL SUB AND GAS STATICCALL SWAP4 DUP5 ISZERO PUSH2 0xF20 JUMPI PUSH1 0x0 SWAP5 PUSH2 0x165F JUMPI JUMPDEST POP DUP4 MLOAD PUSH1 0x1 PUSH1 0x1 PUSH1 0x40 SHL SUB DUP2 GT PUSH2 0xEDE JUMPI PUSH2 0x13A6 PUSH1 0x4 DUP6 ADD SLOAD PUSH2 0x1D62 JUMP JUMPDEST PUSH1 0x1F DUP2 GT PUSH2 0x1618 JUMPI JUMPDEST POP PUSH1 0x20 PUSH1 0x1F DUP3 GT PUSH1 0x1 EQ PUSH2 0x15A9 JUMPI DUP2 SWAP3 SWAP4 SWAP5 SWAP6 PUSH1 0x0 SWAP3 PUSH2 0x159E JUMPI JUMPDEST POP POP DUP2 PUSH1 0x1 SHL SWAP2 PUSH1 0x0 NOT SWAP1 PUSH1 0x3 SHL SHR NOT AND OR PUSH1 0x4 DUP5 ADD SSTORE JUMPDEST DUP3 SLOAD PUSH1 0x1 PUSH1 0x1 PUSH1 0xA0 SHL SUB NOT AND PUSH1 0x24 CALLDATALOAD PUSH1 0x1 PUSH1 0x1 PUSH1 0xA0 SHL SUB AND SWAP1 DUP2 OR DUP5 SSTORE PUSH1 0x40 MLOAD PUSH4 0x95D89B41 PUSH1 0xE0 SHL DUP2 MSTORE SWAP4 SWAP1 PUSH1 0x0 SWAP1 DUP6 SWAP1 PUSH1 0x4 SWAP1 DUP3 SWAP1 GAS STATICCALL SWAP4 DUP5 ISZERO PUSH2 0xF20 JUMPI PUSH1 0x0 SWAP5 PUSH2 0x1581 JUMPI JUMPDEST POP DUP4 MLOAD PUSH1 0x1 PUSH1 0x1 PUSH1 0x40 SHL SUB DUP2 GT PUSH2 0xEDE JUMPI PUSH2 0x1447 PUSH1 0x5 DUP4 ADD SLOAD PUSH2 0x1D62 JUMP JUMPDEST SWAP5 PUSH1 0x1F DUP7 GT PUSH2 0x1536 JUMPI JUMPDEST PUSH1 0x20 SWAP6 POP DUP6 SWAP1 PUSH1 0x1F DUP4 GT PUSH1 0x1 EQ PUSH2 0x14B2 JUMPI SWAP3 DUP3 PUSH2 0xB67 SWAP7 SWAP4 PUSH1 0x2 SWAP4 PUSH1 0x0 DUP1 MLOAD PUSH1 0x20 PUSH2 0x2A84 DUP4 CODECOPY DUP2 MLOAD SWAP2 MSTORE SWAP7 PUSH1 0x0 SWAP3 PUSH2 0x14A7 JUMPI JUMPDEST POP POP DUP2 PUSH1 0x1 SHL SWAP2 PUSH1 0x0 NOT SWAP1 PUSH1 0x3 SHL SHR NOT AND OR PUSH1 0x5 DUP3 ADD SSTORE JUMPDEST SWAP4 SWAP6 POP POP SWAP3 POP PUSH2 0x129A JUMP JUMPDEST ADD MLOAD SWAP1 POP DUP10 DUP1 PUSH2 0x1484 JUMP JUMPDEST SWAP1 PUSH1 0x5 DUP5 ADD PUSH1 0x0 MSTORE DUP7 PUSH1 0x0 KECCAK256 SWAP2 PUSH1 0x0 JUMPDEST PUSH1 0x1F NOT DUP6 AND DUP2 LT PUSH2 0x151F JUMPI POP DUP4 PUSH1 0x2 SWAP4 PUSH1 0x0 DUP1 MLOAD PUSH1 0x20 PUSH2 0x2A84 DUP4 CODECOPY DUP2 MLOAD SWAP2 MSTORE SWAP7 SWAP4 PUSH1 0x1 SWAP4 PUSH2 0xB67 SWAP11 SWAP8 PUSH1 0x1F NOT DUP2 AND LT PUSH2 0x1506 JUMPI JUMPDEST POP POP POP DUP2 SHL ADD PUSH1 0x5 DUP3 ADD SSTORE PUSH2 0x149C JUMP JUMPDEST ADD MLOAD PUSH1 0x0 NOT PUSH1 0xF8 DUP5 PUSH1 0x3 SHL AND SHR NOT AND SWAP1 SSTORE DUP10 DUP1 DUP1 PUSH2 0x14F6 JUMP JUMPDEST SWAP2 SWAP3 DUP9 PUSH1 0x1 DUP2 SWAP3 DUP7 DUP6 ADD MLOAD DUP2 SSTORE ADD SWAP5 ADD SWAP3 ADD PUSH2 0x14C2 JUMP JUMPDEST PUSH1 0x5 DUP4 ADD PUSH1 0x0 MSTORE PUSH1 0x20 PUSH1 0x0 KECCAK256 PUSH1 0x1F DUP4 ADD PUSH1 0x5 SHR DUP2 ADD SWAP7 PUSH1 0x20 DUP5 LT PUSH2 0x1577 JUMPI JUMPDEST PUSH1 0x1F ADD PUSH1 0x5 SHR ADD SWAP6 JUMPDEST DUP7 DUP2 LT PUSH2 0x156B JUMPI POP PUSH2 0x1451 JUMP JUMPDEST PUSH1 0x0 DUP2 SSTORE PUSH1 0x1 ADD PUSH2 0x155E JUMP JUMPDEST SWAP1 SWAP7 POP DUP7 SWAP1 PUSH2 0x1555 JUMP JUMPDEST PUSH2 0x1597 SWAP2 SWAP5 POP RETURNDATASIZE DUP1 PUSH1 0x0 DUP4 RETURNDATACOPY PUSH2 0xF10 DUP2 DUP4 PUSH2 0x1DB7 JUMP JUMPDEST SWAP3 DUP5 PUSH2 0x1429 JUMP JUMPDEST ADD MLOAD SWAP1 POP DUP6 DUP1 PUSH2 0x13CA JUMP JUMPDEST PUSH1 0x4 DUP6 ADD PUSH1 0x0 MSTORE PUSH1 0x20 PUSH1 0x0 KECCAK256 SWAP1 PUSH1 0x0 JUMPDEST PUSH1 0x1F NOT DUP5 AND DUP2 LT PUSH2 0x1600 JUMPI POP PUSH1 0x1 SWAP4 SWAP5 SWAP6 SWAP7 DUP4 PUSH1 0x1F NOT DUP2 AND LT PUSH2 0x15E7 JUMPI JUMPDEST POP POP POP DUP2 SHL ADD PUSH1 0x4 DUP5 ADD SSTORE PUSH2 0x13E2 JUMP JUMPDEST ADD MLOAD PUSH1 0x0 NOT PUSH1 0xF8 DUP5 PUSH1 0x3 SHL AND SHR NOT AND SWAP1 SSTORE DUP6 DUP1 DUP1 PUSH2 0x15D7 JUMP JUMPDEST SWAP1 SWAP2 PUSH1 0x20 PUSH1 0x1 DUP2 SWAP3 DUP6 DUP12 ADD MLOAD DUP2 SSTORE ADD SWAP4 ADD SWAP2 ADD PUSH2 0x15B9 JUMP JUMPDEST PUSH1 0x4 DUP6 ADD PUSH1 0x0 MSTORE PUSH1 0x20 PUSH1 0x0 KECCAK256 PUSH1 0x1F DUP4 ADD PUSH1 0x5 SHR DUP2 ADD PUSH1 0x20 DUP5 LT PUSH2 0x1658 JUMPI JUMPDEST PUSH1 0x1F DUP4 ADD PUSH1 0x5 SHR DUP3 ADD DUP2 LT PUSH2 0x164C JUMPI POP POP PUSH2 0x13AF JUMP JUMPDEST PUSH1 0x0 DUP2 SSTORE PUSH1 0x1 ADD PUSH2 0x1636 JUMP JUMPDEST POP DUP1 PUSH2 0x1636 JUMP JUMPDEST PUSH2 0x1675 SWAP2 SWAP5 POP RETURNDATASIZE DUP1 PUSH1 0x0 DUP4 RETURNDATACOPY PUSH2 0xF10 DUP2 DUP4 PUSH2 0x1DB7 JUMP JUMPDEST SWAP3 DUP5 PUSH2 0x1388 JUMP JUMPDEST PUSH2 0x1695 SWAP2 POP PUSH1 0x20 RETURNDATASIZE PUSH1 0x20 GT PUSH2 0x1054 JUMPI PUSH2 0x1046 DUP2 DUP4 PUSH2 0x1DB7 JUMP JUMPDEST DUP5 PUSH2 0x1340 JUMP JUMPDEST PUSH1 0x40 MLOAD PUSH3 0x461BCD PUSH1 0xE5 SHL DUP2 MSTORE PUSH1 0x20 PUSH1 0x4 DUP3 ADD MSTORE PUSH1 0x1F PUSH1 0x24 DUP3 ADD MSTORE PUSH32 0x416D6F756E742073686F756C642062652067726561746572207468616E203000 DUP2 DUP5 ADD MSTORE PUSH1 0x64 SWAP1 REVERT JUMPDEST PUSH1 0x40 MLOAD PUSH3 0x461BCD PUSH1 0xE5 SHL DUP2 MSTORE PUSH1 0x20 PUSH1 0x4 DUP3 ADD MSTORE PUSH1 0x28 PUSH1 0x24 DUP3 ADD MSTORE PUSH32 0x556E6C6F636B20646174652073686F756C642062652061667465722063757272 DUP2 DUP5 ADD MSTORE PUSH8 0x656E742074696D65 PUSH1 0xC0 SHL PUSH1 0x64 DUP3 ADD MSTORE PUSH1 0x84 SWAP1 REVERT JUMPDEST CALLVALUE PUSH2 0x13A JUMPI PUSH1 0x20 DUP1 PUSH1 0x3 NOT CALLDATASIZE ADD SLT PUSH2 0x13A JUMPI PUSH1 0x4 CALLDATALOAD SWAP1 PUSH2 0x1757 PUSH1 0x0 SLOAD DUP4 LT PUSH2 0x2210 JUMP JUMPDEST PUSH2 0x1760 DUP3 PUSH2 0x2106 JUMP JUMPDEST POP SWAP2 PUSH1 0x1 DUP1 PUSH1 0xA0 SHL SUB PUSH2 0x177A DUP2 PUSH1 0x2 DUP7 ADD SLOAD AND CALLER EQ PUSH2 0x224E JUMP JUMPDEST PUSH1 0x5 DUP5 ADD SLOAD TIMESTAMP LT PUSH2 0x191F JUMPI PUSH1 0x3 DUP5 ADD SWAP4 DUP5 SLOAD ISZERO PUSH2 0x18E6 JUMPI PUSH1 0x0 PUSH1 0x1 DUP3 ADD SWAP6 DUP4 DUP8 SLOAD AND DUP3 MSTORE PUSH1 0x7 DUP7 MSTORE PUSH1 0x40 DUP3 KECCAK256 SWAP5 DUP5 PUSH1 0x1 DUP8 ADD SLOAD AND ISZERO ISZERO SWAP1 DUP2 DUP5 EQ PUSH2 0x18CC JUMPI PUSH2 0x17CC SWAP1 CALLER DUP6 MSTORE PUSH1 0x1 DUP10 MSTORE PUSH1 0x40 DUP6 KECCAK256 PUSH2 0x2485 JUMP JUMPDEST POP JUMPDEST PUSH1 0x2 DUP3 SLOAD SWAP7 ADD DUP1 SLOAD DUP8 DUP1 DUP3 GT ISZERO DUP7 EQ PUSH2 0x18BC JUMPI POP POP DUP4 DUP2 SSTORE JUMPDEST SLOAD ISZERO PUSH2 0x1890 JUMPI JUMPDEST POP SSTORE DUP2 DUP6 SLOAD AND PUSH1 0x0 MSTORE PUSH1 0x8 DUP5 MSTORE PUSH2 0x180B PUSH1 0x40 PUSH1 0x0 KECCAK256 DUP3 SLOAD SWAP1 PUSH2 0x2485 JUMP JUMPDEST POP DUP5 SLOAD PUSH1 0x40 MLOAD PUSH4 0xA9059CBB PUSH1 0xE0 SHL SWAP6 DUP2 ADD SWAP6 SWAP1 SWAP6 MSTORE CALLER PUSH1 0x24 DUP7 ADD MSTORE PUSH1 0x44 DUP1 DUP7 ADD DUP6 SWAP1 MSTORE DUP6 MSTORE DUP3 AND SWAP4 PUSH1 0x80 DUP2 ADD SWAP1 PUSH1 0x1 PUSH1 0x1 PUSH1 0x40 SHL SUB DUP3 GT DUP2 DUP4 LT OR PUSH2 0xEDE JUMPI PUSH32 0xC6532367992B32E42A62DD89FC3574876D97D081A263AA6E030F34B79B7E6E8B SWAP6 PUSH2 0x1878 SWAP3 PUSH1 0x40 MSTORE PUSH2 0x2575 JUMP JUMPDEST SLOAD SWAP4 SLOAD AND SWAP1 PUSH2 0x4A1 PUSH1 0x40 MLOAD SWAP3 DUP4 SWAP3 TIMESTAMP SWAP2 CALLER SWAP1 DUP6 PUSH2 0x1E9F JUMP JUMPDEST DUP3 EQ PUSH2 0x18AA JUMPI PUSH2 0x18A2 DUP5 DUP9 SLOAD AND PUSH2 0x239C JUMP JUMPDEST POP JUMPDEST DUP8 PUSH2 0x17EE JUMP JUMPDEST PUSH2 0x18B6 DUP5 DUP9 SLOAD AND PUSH2 0x22B2 JUMP JUMPDEST POP PUSH2 0x18A4 JUMP JUMPDEST PUSH2 0x18C5 SWAP2 PUSH2 0x22A5 JUMP JUMPDEST DUP2 SSTORE PUSH2 0x17E7 JUMP JUMPDEST PUSH2 0x18E0 SWAP1 CALLER DUP6 MSTORE PUSH1 0x2 DUP10 MSTORE PUSH1 0x40 DUP6 KECCAK256 PUSH2 0x2485 JUMP JUMPDEST POP PUSH2 0x17CE JUMP JUMPDEST PUSH1 0x40 MLOAD PUSH3 0x461BCD PUSH1 0xE5 SHL DUP2 MSTORE PUSH1 0x4 DUP2 ADD DUP6 SWAP1 MSTORE PUSH1 0x11 PUSH1 0x24 DUP3 ADD MSTORE PUSH17 0x4E6F7468696E6720746F20756E6C6F636B PUSH1 0x78 SHL PUSH1 0x44 DUP3 ADD MSTORE PUSH1 0x64 SWAP1 REVERT JUMPDEST PUSH1 0x40 MLOAD PUSH3 0x461BCD PUSH1 0xE5 SHL DUP2 MSTORE PUSH1 0x4 DUP2 ADD DUP5 SWAP1 MSTORE PUSH1 0x18 PUSH1 0x24 DUP3 ADD MSTORE PUSH24 0x4974206973206E6F742074696D6520746F20756E6C6F636B PUSH1 0x40 SHL PUSH1 0x44 DUP3 ADD MSTORE PUSH1 0x64 SWAP1 REVERT JUMPDEST CALLVALUE PUSH2 0x13A JUMPI PUSH1 0x40 CALLDATASIZE PUSH1 0x3 NOT ADD SLT PUSH2 0x13A JUMPI PUSH1 0xC0 PUSH2 0x1B7 PUSH2 0x1B1 PUSH2 0x1A5 PUSH2 0x1983 PUSH2 0x1BA2 JUMP JUMPDEST PUSH1 0x24 CALLDATALOAD SWAP1 PUSH2 0x198F PUSH2 0x291E JUMP JUMPDEST POP PUSH1 0x1 PUSH1 0x1 PUSH1 0xA0 SHL SUB AND PUSH1 0x0 DUP2 DUP2 MSTORE PUSH1 0x2 PUSH1 0x20 MSTORE PUSH1 0x40 SWAP1 KECCAK256 SLOAD PUSH2 0x19B3 SWAP1 DUP4 LT PUSH2 0x2A47 JUMP JUMPDEST PUSH1 0x0 MSTORE PUSH1 0x2 PUSH1 0x20 MSTORE PUSH1 0x40 PUSH1 0x0 KECCAK256 PUSH2 0x1FB4 JUMP JUMPDEST CALLVALUE PUSH2 0x13A JUMPI PUSH1 0x0 CALLDATASIZE PUSH1 0x3 NOT ADD SLT PUSH2 0x13A JUMPI PUSH1 0x0 SLOAD PUSH2 0x19E2 DUP2 PUSH2 0x28B5 JUMP JUMPDEST PUSH2 0x19EF PUSH1 0x40 MLOAD SWAP2 DUP3 PUSH2 0x1DB7 JUMP JUMPDEST DUP2 DUP2 MSTORE PUSH1 0x0 DUP1 DUP1 MSTORE PUSH32 0x290DECD9548B62A8D60345A988386FC84BA6BC95484008F6362F93160EF3E563 SWAP3 SWAP1 PUSH1 0x20 DUP1 DUP5 ADD JUMPDEST DUP4 DUP4 LT PUSH2 0x1A35 JUMPI PUSH1 0x40 MLOAD DUP1 PUSH2 0x2DA DUP8 DUP3 PUSH2 0x1BF8 JUMP JUMPDEST PUSH1 0x6 DUP3 PUSH1 0x1 SWAP3 PUSH2 0x1A44 DUP10 PUSH2 0x28CC JUMP JUMPDEST DUP2 MSTORE ADD SWAP7 ADD SWAP3 ADD SWAP2 SWAP5 PUSH2 0x1A20 JUMP JUMPDEST CALLVALUE PUSH2 0x13A JUMPI PUSH1 0x0 CALLDATASIZE PUSH1 0x3 NOT ADD SLT PUSH2 0x13A JUMPI PUSH1 0x20 PUSH1 0x5 SLOAD PUSH1 0x40 MLOAD SWAP1 DUP2 MSTORE RETURN JUMPDEST CALLVALUE PUSH2 0x13A JUMPI PUSH1 0x60 CALLDATASIZE PUSH1 0x3 NOT ADD SLT PUSH2 0x13A JUMPI PUSH2 0x1A89 PUSH2 0x1BA2 JUMP JUMPDEST PUSH1 0x1 PUSH1 0x1 PUSH1 0xA0 SHL SUB AND PUSH1 0x0 DUP2 DUP2 MSTORE PUSH1 0x8 PUSH1 0x20 DUP2 DUP2 MSTORE PUSH1 0x40 SWAP1 SWAP3 KECCAK256 SLOAD PUSH1 0x44 CALLDATALOAD SWAP3 PUSH1 0x24 CALLDATALOAD SWAP3 SWAP2 DUP5 LT ISZERO PUSH2 0x1B30 JUMPI JUMPDEST PUSH2 0x1ABF DUP4 DUP6 PUSH2 0x22A5 JUMP JUMPDEST PUSH1 0x1 DUP2 ADD DUP1 SWAP2 GT PUSH2 0x7C6 JUMPI PUSH2 0x1AD3 SWAP1 PUSH2 0x29F7 JUMP JUMPDEST SWAP5 PUSH1 0x0 JUMPDEST DUP6 DUP6 GT ISZERO PUSH2 0x1AED JUMPI PUSH1 0x40 MLOAD DUP1 PUSH2 0x2DA DUP10 DUP3 PUSH2 0x1BF8 JUMP JUMPDEST PUSH2 0x1B24 PUSH2 0x1B2A SWAP2 DUP4 PUSH1 0x0 MSTORE DUP6 DUP6 MSTORE PUSH2 0x1B0F PUSH2 0x1B1 PUSH2 0x1A5 DUP10 PUSH1 0x40 PUSH1 0x0 KECCAK256 PUSH2 0x1FB4 JUMP JUMPDEST PUSH2 0x1B19 DUP3 DUP12 PUSH2 0x29E3 JUMP JUMPDEST MSTORE PUSH2 0x368 DUP2 DUP11 PUSH2 0x29E3 JUMP JUMPDEST SWAP5 PUSH2 0x29D4 JUMP JUMPDEST SWAP4 PUSH2 0x1AD7 JUMP JUMPDEST SWAP3 POP PUSH1 0x40 PUSH1 0x0 KECCAK256 SLOAD PUSH1 0x0 NOT DUP2 ADD SWAP1 DUP2 GT PUSH2 0x7C6 JUMPI SWAP3 PUSH2 0x1AB5 JUMP JUMPDEST CALLVALUE PUSH2 0x13A JUMPI PUSH1 0x0 CALLDATASIZE PUSH1 0x3 NOT ADD SLT PUSH2 0x13A JUMPI PUSH1 0x20 PUSH2 0x3E2 PUSH1 0x3 SLOAD PUSH1 0x5 SLOAD SWAP1 PUSH2 0x1F5B JUMP JUMPDEST CALLVALUE PUSH2 0x13A JUMPI PUSH1 0x20 CALLDATASIZE PUSH1 0x3 NOT ADD SLT PUSH2 0x13A JUMPI PUSH1 0x20 SWAP1 PUSH1 0x1 PUSH1 0x1 PUSH1 0xA0 SHL SUB PUSH2 0x1B90 PUSH2 0x1BA2 JUMP JUMPDEST AND PUSH1 0x0 MSTORE PUSH1 0x1 DUP3 MSTORE PUSH1 0x40 PUSH1 0x0 KECCAK256 SLOAD DUP2 MSTORE RETURN JUMPDEST PUSH1 0x4 CALLDATALOAD SWAP1 PUSH1 0x1 PUSH1 0x1 PUSH1 0xA0 SHL SUB DUP3 AND DUP3 SUB PUSH2 0x13A JUMPI JUMP JUMPDEST PUSH1 0xA0 DUP1 SWAP2 DUP1 MLOAD DUP5 MSTORE PUSH1 0x1 DUP1 DUP4 SHL SUB DUP1 PUSH1 0x20 DUP4 ADD MLOAD AND PUSH1 0x20 DUP7 ADD MSTORE PUSH1 0x40 DUP3 ADD MLOAD AND PUSH1 0x40 DUP6 ADD MSTORE PUSH1 0x60 DUP2 ADD MLOAD PUSH1 0x60 DUP6 ADD MSTORE PUSH1 0x80 DUP2 ADD MLOAD PUSH1 0x80 DUP6 ADD MSTORE ADD MLOAD SWAP2 ADD MSTORE JUMP JUMPDEST PUSH1 0x20 SWAP1 DUP2 PUSH1 0x40 DUP2 DUP4 ADD SWAP3 DUP3 DUP2 MSTORE DUP6 MLOAD DUP1 SWAP5 MSTORE ADD SWAP4 ADD SWAP2 PUSH1 0x0 JUMPDEST DUP3 DUP2 LT PUSH2 0x1C1F JUMPI POP POP POP POP SWAP1 JUMP JUMPDEST SWAP1 SWAP2 SWAP3 SWAP4 DUP3 PUSH1 0xC0 DUP3 PUSH2 0x1C34 PUSH1 0x1 SWAP5 DUP10 MLOAD PUSH2 0x1BB8 JUMP JUMPDEST ADD SWAP6 ADD SWAP4 SWAP3 SWAP2 ADD PUSH2 0x1C11 JUMP JUMPDEST PUSH1 0x40 SWAP1 PUSH1 0x3 NOT ADD SLT PUSH2 0x13A JUMPI PUSH1 0x4 CALLDATALOAD SWAP1 PUSH1 0x24 CALLDATALOAD SWAP1 JUMP JUMPDEST PUSH1 0x0 JUMPDEST DUP4 DUP2 LT PUSH2 0x1C69 JUMPI POP POP PUSH1 0x0 SWAP2 ADD MSTORE JUMP JUMPDEST DUP2 DUP2 ADD MLOAD DUP4 DUP3 ADD MSTORE PUSH1 0x20 ADD PUSH2 0x1C59 JUMP JUMPDEST SWAP1 PUSH1 0x20 SWAP2 PUSH2 0x1C92 DUP2 MLOAD DUP1 SWAP3 DUP2 DUP6 MSTORE DUP6 DUP1 DUP7 ADD SWAP2 ADD PUSH2 0x1C56 JUMP JUMPDEST PUSH1 0x1F ADD PUSH1 0x1F NOT AND ADD ADD SWAP1 JUMP JUMPDEST PUSH2 0x1CFD SWAP2 PUSH1 0x1 DUP1 PUSH1 0xA0 SHL SUB DUP1 DUP4 MLOAD AND DUP3 MSTORE PUSH1 0x20 DUP4 ADD MLOAD AND PUSH1 0x20 DUP3 ADD MSTORE PUSH1 0x40 DUP3 ADD MLOAD PUSH1 0x40 DUP3 ADD MSTORE PUSH1 0xFF PUSH1 0x60 DUP4 ADD MLOAD AND PUSH1 0x60 DUP3 ADD MSTORE PUSH1 0xA0 PUSH2 0x1CEC PUSH1 0x80 DUP5 ADD MLOAD PUSH1 0xC0 PUSH1 0x80 DUP6 ADD MSTORE PUSH1 0xC0 DUP5 ADD SWAP1 PUSH2 0x1C79 JUMP JUMPDEST SWAP3 ADD MLOAD SWAP1 PUSH1 0xA0 DUP2 DUP5 SUB SWAP2 ADD MSTORE PUSH2 0x1C79 JUMP JUMPDEST SWAP1 JUMP JUMPDEST PUSH1 0x20 DUP1 DUP3 ADD SWAP1 DUP1 DUP4 MSTORE DUP4 MLOAD DUP1 SWAP3 MSTORE PUSH1 0x40 DUP4 ADD SWAP3 DUP2 PUSH1 0x40 DUP5 PUSH1 0x5 SHL DUP4 ADD ADD SWAP6 ADD SWAP4 PUSH1 0x0 SWAP2 JUMPDEST DUP5 DUP4 LT PUSH2 0x1D34 JUMPI POP POP POP POP POP POP SWAP1 JUMP JUMPDEST SWAP1 SWAP2 SWAP3 SWAP4 SWAP5 SWAP6 DUP5 DUP1 PUSH2 0x1D52 PUSH1 0x1 SWAP4 PUSH1 0x3F NOT DUP7 DUP3 SUB ADD DUP8 MSTORE DUP11 MLOAD PUSH2 0x1C9E JUMP JUMPDEST SWAP9 ADD SWAP4 ADD SWAP4 ADD SWAP2 SWAP5 SWAP4 SWAP3 SWAP1 PUSH2 0x1D24 JUMP JUMPDEST SWAP1 PUSH1 0x1 DUP3 DUP2 SHR SWAP3 AND DUP1 ISZERO PUSH2 0x1D92 JUMPI JUMPDEST PUSH1 0x20 DUP4 LT EQ PUSH2 0x1D7C JUMPI JUMP JUMPDEST PUSH4 0x4E487B71 PUSH1 0xE0 SHL PUSH1 0x0 MSTORE PUSH1 0x22 PUSH1 0x4 MSTORE PUSH1 0x24 PUSH1 0x0 REVERT JUMPDEST SWAP2 PUSH1 0x7F AND SWAP2 PUSH2 0x1D71 JUMP JUMPDEST PUSH1 0xC0 DUP2 ADD SWAP1 DUP2 LT PUSH1 0x1 PUSH1 0x1 PUSH1 0x40 SHL SUB DUP3 GT OR PUSH2 0xEDE JUMPI PUSH1 0x40 MSTORE JUMP JUMPDEST PUSH1 0x1F SWAP1 SWAP2 ADD PUSH1 0x1F NOT AND DUP2 ADD SWAP1 PUSH1 0x1 PUSH1 0x1 PUSH1 0x40 SHL SUB DUP3 GT SWAP1 DUP3 LT OR PUSH2 0xEDE JUMPI PUSH1 0x40 MSTORE JUMP JUMPDEST SWAP1 PUSH1 0x40 MLOAD SWAP2 DUP3 PUSH1 0x0 DUP3 SLOAD SWAP3 PUSH2 0x1DEE DUP5 PUSH2 0x1D62 JUMP JUMPDEST SWAP1 DUP2 DUP5 MSTORE PUSH1 0x1 SWAP5 DUP6 DUP2 AND SWAP1 DUP2 PUSH1 0x0 EQ PUSH2 0x1E5D JUMPI POP PUSH1 0x1 EQ PUSH2 0x1E1A JUMPI JUMPDEST POP POP PUSH2 0x1E18 SWAP3 POP SUB DUP4 PUSH2 0x1DB7 JUMP JUMPDEST JUMP JUMPDEST SWAP1 SWAP4 SWAP2 POP PUSH1 0x0 MSTORE PUSH1 0x20 SWAP1 DUP2 PUSH1 0x0 KECCAK256 SWAP4 PUSH1 0x0 SWAP2 JUMPDEST DUP2 DUP4 LT PUSH2 0x1E45 JUMPI POP POP PUSH2 0x1E18 SWAP4 POP DUP3 ADD ADD CODESIZE DUP1 PUSH2 0x1E0A JUMP JUMPDEST DUP6 SLOAD DUP9 DUP5 ADD DUP6 ADD MSTORE SWAP5 DUP6 ADD SWAP5 DUP8 SWAP5 POP SWAP2 DUP4 ADD SWAP2 PUSH2 0x1E2D JUMP JUMPDEST SWAP2 POP POP PUSH2 0x1E18 SWAP5 POP PUSH1 0x20 SWAP3 POP PUSH1 0xFF NOT AND DUP3 DUP5 ADD MSTORE ISZERO ISZERO PUSH1 0x5 SHL DUP3 ADD ADD CODESIZE DUP1 PUSH2 0x1E0A JUMP JUMPDEST SWAP1 DUP2 PUSH1 0x20 SWAP2 SUB SLT PUSH2 0x13A JUMPI MLOAD PUSH1 0x1 PUSH1 0x1 PUSH1 0xA0 SHL SUB DUP2 AND DUP2 SUB PUSH2 0x13A JUMPI SWAP1 JUMP JUMPDEST PUSH1 0x1 PUSH1 0x1 PUSH1 0xA0 SHL SUB SWAP2 DUP3 AND DUP2 MSTORE SWAP2 AND PUSH1 0x20 DUP3 ADD MSTORE PUSH1 0x40 DUP2 ADD SWAP2 SWAP1 SWAP2 MSTORE PUSH1 0x60 DUP2 ADD SWAP2 SWAP1 SWAP2 MSTORE PUSH1 0x80 ADD SWAP1 JUMP JUMPDEST SWAP1 DUP2 PUSH1 0x20 SWAP2 SUB SLT PUSH2 0x13A JUMPI MLOAD PUSH1 0xFF DUP2 AND DUP2 SUB PUSH2 0x13A JUMPI SWAP1 JUMP JUMPDEST PUSH1 0x1 PUSH1 0x1 PUSH1 0x40 SHL SUB DUP2 GT PUSH2 0xEDE JUMPI PUSH1 0x1F ADD PUSH1 0x1F NOT AND PUSH1 0x20 ADD SWAP1 JUMP JUMPDEST PUSH1 0x20 DUP2 DUP4 SUB SLT PUSH2 0x13A JUMPI DUP1 MLOAD SWAP1 PUSH1 0x1 PUSH1 0x1 PUSH1 0x40 SHL SUB DUP3 GT PUSH2 0x13A JUMPI ADD DUP2 PUSH1 0x1F DUP3 ADD SLT ISZERO PUSH2 0x13A JUMPI DUP1 MLOAD PUSH2 0x1F2F DUP2 PUSH2 0x1EE2 JUMP JUMPDEST SWAP3 PUSH2 0x1F3D PUSH1 0x40 MLOAD SWAP5 DUP6 PUSH2 0x1DB7 JUMP JUMPDEST DUP2 DUP5 MSTORE PUSH1 0x20 DUP3 DUP5 ADD ADD GT PUSH2 0x13A JUMPI PUSH2 0x1CFD SWAP2 PUSH1 0x20 DUP1 DUP6 ADD SWAP2 ADD PUSH2 0x1C56 JUMP JUMPDEST SWAP2 SWAP1 DUP3 ADD DUP1 SWAP3 GT PUSH2 0x7C6 JUMPI JUMP JUMPDEST PUSH1 0x5 SLOAD DUP2 LT ISZERO PUSH2 0x1F83 JUMPI PUSH1 0x5 PUSH1 0x0 MSTORE PUSH1 0x20 PUSH1 0x0 KECCAK256 ADD SWAP1 PUSH1 0x0 SWAP1 JUMP JUMPDEST PUSH4 0x4E487B71 PUSH1 0xE0 SHL PUSH1 0x0 MSTORE PUSH1 0x32 PUSH1 0x4 MSTORE PUSH1 0x24 PUSH1 0x0 REVERT JUMPDEST PUSH1 0x3 SLOAD DUP2 LT ISZERO PUSH2 0x1F83 JUMPI PUSH1 0x3 PUSH1 0x0 MSTORE PUSH1 0x20 PUSH1 0x0 KECCAK256 ADD SWAP1 PUSH1 0x0 SWAP1 JUMP JUMPDEST DUP1 SLOAD DUP3 LT ISZERO PUSH2 0x1F83 JUMPI PUSH1 0x0 MSTORE PUSH1 0x20 PUSH1 0x0 KECCAK256 ADD SWAP1 PUSH1 0x0 SWAP1 JUMP JUMPDEST PUSH1 0x0 DUP2 DUP2 MSTORE PUSH1 0x6 PUSH1 0x20 MSTORE PUSH1 0x40 DUP2 KECCAK256 SLOAD PUSH2 0x2046 JUMPI PUSH1 0x5 SLOAD PUSH1 0x1 PUSH1 0x40 SHL DUP2 LT ISZERO PUSH2 0x2032 JUMPI SWAP1 DUP3 PUSH2 0x201E PUSH2 0x2005 DUP5 PUSH1 0x1 PUSH1 0x40 SWAP7 ADD PUSH1 0x5 SSTORE PUSH2 0x1F68 JUMP JUMPDEST DUP2 SWAP4 SWAP2 SLOAD SWAP1 PUSH1 0x3 SHL PUSH1 0x0 NOT DUP2 SHL SWAP3 DUP4 SWAP2 SHL AND SWAP2 NOT AND OR SWAP1 JUMP JUMPDEST SWAP1 SSTORE PUSH1 0x5 SLOAD SWAP3 DUP2 MSTORE PUSH1 0x6 PUSH1 0x20 MSTORE KECCAK256 SSTORE PUSH1 0x1 SWAP1 JUMP JUMPDEST PUSH4 0x4E487B71 PUSH1 0xE0 SHL DUP3 MSTORE PUSH1 0x41 PUSH1 0x4 MSTORE PUSH1 0x24 DUP3 REVERT JUMPDEST SWAP1 POP SWAP1 JUMP JUMPDEST PUSH1 0x0 DUP2 DUP2 MSTORE PUSH1 0x4 PUSH1 0x20 MSTORE PUSH1 0x40 DUP2 KECCAK256 SLOAD PUSH2 0x2046 JUMPI PUSH1 0x3 SLOAD PUSH1 0x1 PUSH1 0x40 SHL DUP2 LT ISZERO PUSH2 0x2032 JUMPI SWAP1 DUP3 PUSH2 0x2084 PUSH2 0x2005 DUP5 PUSH1 0x1 PUSH1 0x40 SWAP7 ADD PUSH1 0x3 SSTORE PUSH2 0x1F99 JUMP JUMPDEST SWAP1 SSTORE PUSH1 0x3 SLOAD SWAP3 DUP2 MSTORE PUSH1 0x4 PUSH1 0x20 MSTORE KECCAK256 SSTORE PUSH1 0x1 SWAP1 JUMP JUMPDEST SWAP2 SWAP1 PUSH1 0x1 DUP4 ADD PUSH1 0x0 SWAP1 DUP3 DUP3 MSTORE DUP1 PUSH1 0x20 MSTORE PUSH1 0x40 DUP3 KECCAK256 SLOAD ISZERO PUSH1 0x0 EQ PUSH2 0x2100 JUMPI DUP5 SLOAD SWAP5 PUSH1 0x1 PUSH1 0x40 SHL DUP7 LT ISZERO PUSH2 0x20EC JUMPI DUP4 PUSH2 0x20DC PUSH2 0x2005 DUP9 PUSH1 0x1 PUSH1 0x40 SWAP9 SWAP10 SWAP11 ADD DUP6 SSTORE DUP5 PUSH2 0x1FB4 JUMP JUMPDEST SWAP1 SSTORE SLOAD SWAP4 DUP3 MSTORE PUSH1 0x20 MSTORE KECCAK256 SSTORE PUSH1 0x1 SWAP1 JUMP JUMPDEST PUSH4 0x4E487B71 PUSH1 0xE0 SHL DUP4 MSTORE PUSH1 0x41 PUSH1 0x4 MSTORE PUSH1 0x24 DUP4 REVERT JUMPDEST POP SWAP3 POP POP JUMP JUMPDEST SWAP1 PUSH1 0x0 SWAP2 DUP3 SLOAD DUP2 LT ISZERO PUSH2 0x2123 JUMPI DUP3 DUP1 MSTORE PUSH1 0x6 PUSH1 0x20 DUP5 KECCAK256 SWAP2 MUL ADD SWAP2 SWAP1 JUMP JUMPDEST PUSH4 0x4E487B71 PUSH1 0xE0 SHL DUP4 MSTORE PUSH1 0x32 PUSH1 0x4 MSTORE PUSH1 0x24 DUP4 REVERT JUMPDEST SWAP1 SWAP4 SWAP2 SWAP3 PUSH1 0x0 SWAP5 DUP6 SLOAD SWAP5 PUSH1 0x40 MLOAD SWAP4 PUSH2 0x214E DUP6 PUSH2 0x1D9C JUMP JUMPDEST DUP7 DUP6 MSTORE PUSH1 0x20 DUP6 ADD PUSH1 0x1 DUP1 PUSH1 0xA0 SHL SUB DUP1 SWAP5 AND DUP2 MSTORE DUP4 PUSH1 0x40 DUP8 ADD SWAP3 AND DUP3 MSTORE PUSH1 0x60 DUP7 ADD SWAP3 DUP4 MSTORE PUSH1 0x80 DUP7 ADD SWAP4 TIMESTAMP DUP6 MSTORE PUSH1 0xA0 DUP8 ADD SWAP6 DUP7 MSTORE PUSH1 0x1 PUSH1 0x40 SHL DUP10 LT ISZERO PUSH2 0x21FC JUMPI PUSH1 0x1 DUP10 ADD DUP1 DUP12 SSTORE DUP10 LT ISZERO PUSH2 0x21E8 JUMPI PUSH1 0x20 DUP11 DUP1 PUSH1 0x5 SWAP10 SWAP11 SWAP12 SWAP13 MSTORE KECCAK256 PUSH1 0x6 DUP12 MUL ADD SWAP8 MLOAD DUP9 SSTORE DUP1 PUSH1 0x1 DUP10 ADD SWAP3 MLOAD AND SWAP2 PUSH1 0x1 DUP1 PUSH1 0xA0 SHL SUB NOT SWAP3 DUP4 DUP3 SLOAD AND OR SWAP1 SSTORE PUSH1 0x2 DUP9 ADD SWAP3 MLOAD AND SWAP1 DUP3 SLOAD AND OR SWAP1 SSTORE MLOAD PUSH1 0x3 DUP6 ADD SSTORE MLOAD PUSH1 0x4 DUP5 ADD SSTORE MLOAD SWAP2 ADD SSTORE JUMP JUMPDEST PUSH4 0x4E487B71 PUSH1 0xE0 SHL DUP11 MSTORE PUSH1 0x32 PUSH1 0x4 MSTORE PUSH1 0x24 DUP11 REVERT JUMPDEST PUSH4 0x4E487B71 PUSH1 0xE0 SHL DUP11 MSTORE PUSH1 0x41 PUSH1 0x4 MSTORE PUSH1 0x24 DUP11 REVERT JUMPDEST ISZERO PUSH2 0x2217 JUMPI JUMP JUMPDEST PUSH1 0x40 MLOAD PUSH3 0x461BCD PUSH1 0xE5 SHL DUP2 MSTORE PUSH1 0x20 PUSH1 0x4 DUP3 ADD MSTORE PUSH1 0xF PUSH1 0x24 DUP3 ADD MSTORE PUSH15 0x125B9D985B1A59081B1BD8DAC81A59 PUSH1 0x8A SHL PUSH1 0x44 DUP3 ADD MSTORE PUSH1 0x64 SWAP1 REVERT JUMPDEST ISZERO PUSH2 0x2255 JUMPI JUMP JUMPDEST PUSH1 0x40 MLOAD PUSH3 0x461BCD PUSH1 0xE5 SHL DUP2 MSTORE PUSH1 0x20 PUSH1 0x4 DUP3 ADD MSTORE PUSH1 0x22 PUSH1 0x24 DUP3 ADD MSTORE PUSH32 0x596F7520617265206E6F7420746865206F776E6572206F662074686973206C6F PUSH1 0x44 DUP3 ADD MSTORE PUSH2 0x636B PUSH1 0xF0 SHL PUSH1 0x64 DUP3 ADD MSTORE PUSH1 0x84 SWAP1 REVERT JUMPDEST SWAP2 SWAP1 DUP3 SUB SWAP2 DUP3 GT PUSH2 0x7C6 JUMPI JUMP JUMPDEST PUSH1 0x0 DUP2 DUP2 MSTORE PUSH1 0x6 PUSH1 0x20 MSTORE PUSH1 0x40 DUP2 KECCAK256 SLOAD SWAP1 SWAP2 SWAP1 DUP1 ISZERO PUSH2 0x2397 JUMPI PUSH1 0x0 NOT SWAP1 DUP1 DUP3 ADD DUP2 DUP2 GT PUSH2 0x2383 JUMPI PUSH1 0x5 SLOAD SWAP1 DUP4 DUP3 ADD SWAP2 DUP3 GT PUSH2 0x236F JUMPI DUP1 DUP3 SUB PUSH2 0x233B JUMPI JUMPDEST POP POP POP PUSH1 0x5 SLOAD DUP1 ISZERO PUSH2 0x2327 JUMPI DUP2 ADD SWAP1 PUSH2 0x2306 DUP3 PUSH2 0x1F68 JUMP JUMPDEST SWAP1 SWAP2 DUP3 SLOAD SWAP2 PUSH1 0x3 SHL SHL NOT AND SWAP1 SSTORE PUSH1 0x5 SSTORE DUP2 MSTORE PUSH1 0x6 PUSH1 0x20 MSTORE PUSH1 0x40 DUP2 KECCAK256 SSTORE PUSH1 0x1 SWAP1 JUMP JUMPDEST PUSH4 0x4E487B71 PUSH1 0xE0 SHL DUP5 MSTORE PUSH1 0x31 PUSH1 0x4 MSTORE PUSH1 0x24 DUP5 REVERT JUMPDEST PUSH2 0x2359 PUSH2 0x234A PUSH2 0x2005 SWAP4 PUSH2 0x1F68 JUMP JUMPDEST SWAP1 SLOAD SWAP1 PUSH1 0x3 SHL SHR SWAP3 DUP4 SWAP3 PUSH2 0x1F68 JUMP JUMPDEST SWAP1 SSTORE DUP5 MSTORE PUSH1 0x6 PUSH1 0x20 MSTORE PUSH1 0x40 DUP5 KECCAK256 SSTORE CODESIZE DUP1 DUP1 PUSH2 0x22EE JUMP JUMPDEST PUSH4 0x4E487B71 PUSH1 0xE0 SHL DUP7 MSTORE PUSH1 0x11 PUSH1 0x4 MSTORE PUSH1 0x24 DUP7 REVERT JUMPDEST PUSH4 0x4E487B71 PUSH1 0xE0 SHL DUP6 MSTORE PUSH1 0x11 PUSH1 0x4 MSTORE PUSH1 0x24 DUP6 REVERT JUMPDEST POP POP SWAP1 JUMP JUMPDEST PUSH1 0x0 SWAP1 DUP1 DUP3 MSTORE PUSH1 0x4 SWAP1 DUP2 PUSH1 0x20 MSTORE PUSH1 0x40 DUP4 KECCAK256 SLOAD DUP1 ISZERO ISZERO PUSH1 0x0 EQ PUSH2 0x247F JUMPI PUSH1 0x0 NOT SWAP1 DUP1 DUP3 ADD DUP2 DUP2 GT PUSH2 0x246C JUMPI PUSH1 0x3 SLOAD SWAP1 DUP4 DUP3 ADD SWAP2 DUP3 GT PUSH2 0x2459 JUMPI DUP1 DUP3 SUB PUSH2 0x2426 JUMPI JUMPDEST POP POP POP PUSH1 0x3 SLOAD DUP1 ISZERO PUSH2 0x2413 JUMPI DUP2 ADD SWAP1 PUSH2 0x23F4 DUP3 PUSH2 0x1F99 JUMP JUMPDEST SWAP1 SWAP2 DUP3 SLOAD SWAP2 PUSH1 0x3 SHL SHL NOT AND SWAP1 SSTORE PUSH1 0x3 SSTORE DUP3 MSTORE PUSH1 0x20 MSTORE PUSH1 0x40 DUP2 KECCAK256 SSTORE PUSH1 0x1 SWAP1 JUMP JUMPDEST PUSH4 0x4E487B71 PUSH1 0xE0 SHL DUP6 MSTORE PUSH1 0x31 DUP5 MSTORE PUSH1 0x24 DUP6 REVERT JUMPDEST PUSH2 0x2444 PUSH2 0x2435 PUSH2 0x2005 SWAP4 PUSH2 0x1F99 JUMP JUMPDEST SWAP1 SLOAD SWAP1 PUSH1 0x3 SHL SHR SWAP3 DUP4 SWAP3 PUSH2 0x1F99 JUMP JUMPDEST SWAP1 SSTORE DUP6 MSTORE DUP4 PUSH1 0x20 MSTORE PUSH1 0x40 DUP6 KECCAK256 SSTORE CODESIZE DUP1 DUP1 PUSH2 0x23DC JUMP JUMPDEST PUSH4 0x4E487B71 PUSH1 0xE0 SHL DUP8 MSTORE PUSH1 0x11 DUP7 MSTORE PUSH1 0x24 DUP8 REVERT JUMPDEST PUSH4 0x4E487B71 PUSH1 0xE0 SHL DUP7 MSTORE PUSH1 0x11 DUP6 MSTORE PUSH1 0x24 DUP7 REVERT JUMPDEST POP POP POP SWAP1 JUMP JUMPDEST SWAP1 PUSH1 0x1 DUP3 ADD SWAP1 PUSH1 0x0 SWAP3 DUP2 DUP5 MSTORE DUP3 PUSH1 0x20 MSTORE PUSH1 0x40 DUP5 KECCAK256 SLOAD SWAP1 DUP2 ISZERO ISZERO PUSH1 0x0 EQ PUSH2 0x256E JUMPI PUSH1 0x0 NOT SWAP2 DUP1 DUP4 ADD DUP2 DUP2 GT PUSH2 0x255A JUMPI DUP3 SLOAD SWAP1 DUP5 DUP3 ADD SWAP2 DUP3 GT PUSH2 0x2546 JUMPI DUP1 DUP3 SUB PUSH2 0x2511 JUMPI JUMPDEST POP POP POP DUP1 SLOAD DUP1 ISZERO PUSH2 0x24FD JUMPI DUP3 ADD SWAP2 PUSH2 0x24E0 DUP4 DUP4 PUSH2 0x1FB4 JUMP JUMPDEST SWAP1 SWAP2 DUP3 SLOAD SWAP2 PUSH1 0x3 SHL SHL NOT AND SWAP1 SSTORE SSTORE DUP3 MSTORE PUSH1 0x20 MSTORE PUSH1 0x40 DUP2 KECCAK256 SSTORE PUSH1 0x1 SWAP1 JUMP JUMPDEST PUSH4 0x4E487B71 PUSH1 0xE0 SHL DUP7 MSTORE PUSH1 0x31 PUSH1 0x4 MSTORE PUSH1 0x24 DUP7 REVERT JUMPDEST PUSH2 0x2531 PUSH2 0x2521 PUSH2 0x2005 SWAP4 DUP7 PUSH2 0x1FB4 JUMP JUMPDEST SWAP1 SLOAD SWAP1 PUSH1 0x3 SHL SHR SWAP3 DUP4 SWAP3 DUP7 PUSH2 0x1FB4 JUMP JUMPDEST SWAP1 SSTORE DUP7 MSTORE DUP5 PUSH1 0x20 MSTORE PUSH1 0x40 DUP7 KECCAK256 SSTORE CODESIZE DUP1 DUP1 PUSH2 0x24C8 JUMP JUMPDEST PUSH4 0x4E487B71 PUSH1 0xE0 SHL DUP9 MSTORE PUSH1 0x11 PUSH1 0x4 MSTORE PUSH1 0x24 DUP9 REVERT JUMPDEST PUSH4 0x4E487B71 PUSH1 0xE0 SHL DUP8 MSTORE PUSH1 0x11 PUSH1 0x4 MSTORE PUSH1 0x24 DUP8 REVERT JUMPDEST POP POP POP POP SWAP1 JUMP JUMPDEST PUSH1 0x40 DUP1 MLOAD PUSH1 0x1 PUSH1 0x1 PUSH1 0xA0 SHL SUB SWAP3 SWAP1 SWAP3 AND SWAP3 SWAP2 SWAP1 DUP2 ADD SWAP1 PUSH1 0x1 PUSH1 0x1 PUSH1 0x40 SHL SUB DUP3 GT DUP2 DUP4 LT OR PUSH2 0xEDE JUMPI PUSH2 0x2609 SWAP2 PUSH1 0x40 MSTORE PUSH1 0x20 SWAP4 DUP5 DUP3 MSTORE PUSH32 0x5361666545524332303A206C6F772D6C6576656C2063616C6C206661696C6564 DUP6 DUP4 ADD MSTORE PUSH1 0x0 DUP1 DUP6 DUP8 DUP3 SWAP8 MLOAD SWAP2 ADD DUP3 DUP6 GAS CALL RETURNDATASIZE ISZERO PUSH2 0x269B JUMPI RETURNDATASIZE SWAP2 PUSH2 0x25EE DUP4 PUSH2 0x1EE2 JUMP JUMPDEST SWAP3 PUSH2 0x25FC PUSH1 0x40 MLOAD SWAP5 DUP6 PUSH2 0x1DB7 JUMP JUMPDEST DUP4 MSTORE RETURNDATASIZE DUP7 DUP9 DUP6 ADD RETURNDATACOPY PUSH2 0x269F JUMP JUMPDEST DUP1 MLOAD DUP1 PUSH2 0x2617 JUMPI JUMPDEST POP POP POP POP JUMP JUMPDEST DUP2 DUP5 SWAP2 DUP2 ADD SUB SLT PUSH2 0x2697 JUMPI DUP3 ADD MLOAD SWAP1 DUP2 ISZERO SWAP2 DUP3 ISZERO SUB PUSH2 0x2694 JUMPI POP PUSH2 0x263D JUMPI DUP1 DUP1 DUP1 PUSH2 0x2611 JUMP JUMPDEST PUSH1 0x84 SWAP1 PUSH1 0x40 MLOAD SWAP1 PUSH3 0x461BCD PUSH1 0xE5 SHL DUP3 MSTORE PUSH1 0x4 DUP3 ADD MSTORE PUSH1 0x2A PUSH1 0x24 DUP3 ADD MSTORE PUSH32 0x5361666545524332303A204552433230206F7065726174696F6E20646964206E PUSH1 0x44 DUP3 ADD MSTORE PUSH10 0x1BDD081CDD58D8D95959 PUSH1 0xB2 SHL PUSH1 0x64 DUP3 ADD MSTORE REVERT JUMPDEST DUP1 REVERT JUMPDEST POP DUP1 REVERT JUMPDEST PUSH1 0x60 SWAP2 JUMPDEST SWAP2 SWAP3 SWAP1 ISZERO PUSH2 0x2701 JUMPI POP DUP2 MLOAD ISZERO PUSH2 0x26B3 JUMPI POP SWAP1 JUMP JUMPDEST EXTCODESIZE ISZERO PUSH2 0x26BC JUMPI SWAP1 JUMP JUMPDEST PUSH1 0x40 MLOAD PUSH3 0x461BCD PUSH1 0xE5 SHL DUP2 MSTORE PUSH1 0x20 PUSH1 0x4 DUP3 ADD MSTORE PUSH1 0x1D PUSH1 0x24 DUP3 ADD MSTORE PUSH32 0x416464726573733A2063616C6C20746F206E6F6E2D636F6E7472616374000000 PUSH1 0x44 DUP3 ADD MSTORE PUSH1 0x64 SWAP1 REVERT JUMPDEST DUP3 MLOAD SWAP1 SWAP2 POP ISZERO PUSH2 0x2714 JUMPI POP DUP1 MLOAD SWAP1 PUSH1 0x20 ADD REVERT JUMPDEST PUSH1 0x40 MLOAD PUSH3 0x461BCD PUSH1 0xE5 SHL DUP2 MSTORE PUSH1 0x20 PUSH1 0x4 DUP3 ADD MSTORE SWAP1 DUP2 SWAP1 PUSH2 0x2738 SWAP1 PUSH1 0x24 DUP4 ADD SWAP1 PUSH2 0x1C79 JUMP JUMPDEST SUB SWAP1 REVERT JUMPDEST SWAP3 SWAP1 PUSH1 0x1 DUP1 PUSH1 0xA0 SHL SUB DUP1 SWAP5 AND PUSH1 0x40 SWAP4 DUP5 MLOAD SWAP3 DUP7 PUSH4 0x70A08231 PUSH1 0xE0 SHL SWAP3 DUP4 DUP7 MSTORE AND SWAP1 DUP2 PUSH1 0x4 DUP7 ADD MSTORE PUSH1 0x20 SWAP8 DUP9 DUP7 PUSH1 0x24 DUP2 DUP9 GAS STATICCALL SWAP6 DUP7 ISZERO PUSH2 0x28AA JUMPI PUSH1 0x0 SWAP7 PUSH2 0x287B JUMPI JUMPDEST POP DUP8 MLOAD PUSH4 0x23B872DD PUSH1 0xE0 SHL DUP11 DUP3 ADD MSTORE SWAP2 AND PUSH1 0x24 DUP3 ADD MSTORE PUSH1 0x44 DUP2 ADD DUP3 SWAP1 MSTORE PUSH1 0x64 DUP1 DUP3 ADD DUP8 SWAP1 MSTORE DUP2 MSTORE PUSH1 0xA0 DUP2 ADD SWAP3 PUSH1 0x1 PUSH1 0x1 PUSH1 0x40 SHL SUB DUP5 GT DUP3 DUP6 LT OR PUSH2 0xEDE JUMPI PUSH2 0x27CB PUSH1 0x24 SWAP3 DUP11 SWAP6 DUP11 MSTORE DUP7 PUSH2 0x2575 JUMP JUMPDEST DUP8 MLOAD SWAP5 DUP6 SWAP4 DUP5 SWAP3 DUP4 MSTORE PUSH1 0x4 DUP4 ADD MSTORE GAS STATICCALL SWAP1 DUP2 ISZERO PUSH2 0x2870 JUMPI PUSH1 0x0 SWAP2 PUSH2 0x2841 JUMPI JUMPDEST POP SWAP1 PUSH2 0x27F5 SWAP2 PUSH2 0x22A5 JUMP JUMPDEST SUB PUSH2 0x27FE JUMPI POP POP JUMP JUMPDEST PUSH1 0x64 SWAP3 POP MLOAD SWAP1 PUSH3 0x461BCD PUSH1 0xE5 SHL DUP3 MSTORE PUSH1 0x4 DUP3 ADD MSTORE PUSH1 0x1F PUSH1 0x24 DUP3 ADD MSTORE PUSH32 0x4E6F7420656E6F75676820746F6B656E20776173207472616E73666572656400 PUSH1 0x44 DUP3 ADD MSTORE REVERT JUMPDEST SWAP1 DUP6 DUP3 DUP2 RETURNDATASIZE DUP4 GT PUSH2 0x2869 JUMPI JUMPDEST PUSH2 0x2857 DUP2 DUP4 PUSH2 0x1DB7 JUMP JUMPDEST DUP2 ADD SUB SLT PUSH2 0x2694 JUMPI POP MLOAD PUSH2 0x27F5 PUSH2 0x27EA JUMP JUMPDEST POP RETURNDATASIZE PUSH2 0x284D JUMP JUMPDEST DUP5 MLOAD RETURNDATASIZE PUSH1 0x0 DUP3 RETURNDATACOPY RETURNDATASIZE SWAP1 REVERT JUMPDEST SWAP1 SWAP6 DUP10 DUP3 DUP2 RETURNDATASIZE DUP4 GT PUSH2 0x28A3 JUMPI JUMPDEST PUSH2 0x2892 DUP2 DUP4 PUSH2 0x1DB7 JUMP JUMPDEST DUP2 ADD SUB SLT PUSH2 0x2694 JUMPI POP MLOAD SWAP5 CODESIZE PUSH2 0x277D JUMP JUMPDEST POP RETURNDATASIZE PUSH2 0x2888 JUMP JUMPDEST DUP9 MLOAD RETURNDATASIZE PUSH1 0x0 DUP3 RETURNDATACOPY RETURNDATASIZE SWAP1 REVERT JUMPDEST PUSH1 0x1 PUSH1 0x1 PUSH1 0x40 SHL SUB DUP2 GT PUSH2 0xEDE JUMPI PUSH1 0x5 SHL PUSH1 0x20 ADD SWAP1 JUMP JUMPDEST SWAP1 PUSH1 0x40 MLOAD PUSH2 0x28D9 DUP2 PUSH2 0x1D9C JUMP JUMPDEST DUP3 SLOAD DUP2 MSTORE PUSH1 0x1 DUP4 ADD SLOAD PUSH1 0x1 PUSH1 0x1 PUSH1 0xA0 SHL SUB SWAP1 DUP2 AND PUSH1 0x20 DUP4 ADD MSTORE PUSH1 0x2 DUP5 ADD SLOAD AND PUSH1 0x40 DUP3 ADD MSTORE PUSH1 0x3 DUP4 ADD SLOAD PUSH1 0x60 DUP3 ADD MSTORE PUSH1 0x4 DUP4 ADD SLOAD PUSH1 0x80 DUP3 ADD MSTORE PUSH1 0x5 SWAP1 SWAP3 ADD SLOAD PUSH1 0xA0 DUP4 ADD MSTORE JUMP JUMPDEST PUSH1 0x40 MLOAD SWAP1 PUSH2 0x292B DUP3 PUSH2 0x1D9C JUMP JUMPDEST DUP2 PUSH1 0xA0 PUSH1 0x0 SWAP2 DUP3 DUP2 MSTORE DUP3 PUSH1 0x20 DUP3 ADD MSTORE DUP3 PUSH1 0x40 DUP3 ADD MSTORE DUP3 PUSH1 0x60 DUP3 ADD MSTORE DUP3 PUSH1 0x80 DUP3 ADD MSTORE ADD MSTORE JUMP JUMPDEST PUSH1 0x40 MLOAD SWAP1 PUSH2 0x295D DUP3 PUSH2 0x1D9C JUMP JUMPDEST PUSH1 0x60 PUSH1 0xA0 DUP4 PUSH1 0x0 DUP2 MSTORE PUSH1 0x0 PUSH1 0x20 DUP3 ADD MSTORE PUSH1 0x0 PUSH1 0x40 DUP3 ADD MSTORE PUSH1 0x0 DUP4 DUP3 ADD MSTORE DUP3 PUSH1 0x80 DUP3 ADD MSTORE ADD MSTORE JUMP JUMPDEST SWAP1 PUSH2 0x298E DUP3 PUSH2 0x28B5 JUMP JUMPDEST PUSH2 0x299B PUSH1 0x40 MLOAD SWAP2 DUP3 PUSH2 0x1DB7 JUMP JUMPDEST DUP3 DUP2 MSTORE DUP1 SWAP3 PUSH2 0x29AC PUSH1 0x1F NOT SWAP2 PUSH2 0x28B5 JUMP JUMPDEST ADD SWAP1 PUSH1 0x0 JUMPDEST DUP3 DUP2 LT PUSH2 0x29BD JUMPI POP POP POP JUMP JUMPDEST PUSH1 0x20 SWAP1 PUSH2 0x29C8 PUSH2 0x2950 JUMP JUMPDEST DUP3 DUP3 DUP6 ADD ADD MSTORE ADD PUSH2 0x29B1 JUMP JUMPDEST PUSH1 0x0 NOT DUP2 EQ PUSH2 0x7C6 JUMPI PUSH1 0x1 ADD SWAP1 JUMP JUMPDEST DUP1 MLOAD DUP3 LT ISZERO PUSH2 0x1F83 JUMPI PUSH1 0x20 SWAP2 PUSH1 0x5 SHL ADD ADD SWAP1 JUMP JUMPDEST SWAP1 PUSH2 0x2A01 DUP3 PUSH2 0x28B5 JUMP JUMPDEST PUSH2 0x2A0E PUSH1 0x40 MLOAD SWAP2 DUP3 PUSH2 0x1DB7 JUMP JUMPDEST DUP3 DUP2 MSTORE DUP1 SWAP3 PUSH2 0x2A1F PUSH1 0x1F NOT SWAP2 PUSH2 0x28B5 JUMP JUMPDEST ADD SWAP1 PUSH1 0x0 JUMPDEST DUP3 DUP2 LT PUSH2 0x2A30 JUMPI POP POP POP JUMP JUMPDEST PUSH1 0x20 SWAP1 PUSH2 0x2A3B PUSH2 0x291E JUMP JUMPDEST DUP3 DUP3 DUP6 ADD ADD MSTORE ADD PUSH2 0x2A24 JUMP JUMPDEST ISZERO PUSH2 0x2A4E JUMPI JUMP JUMPDEST PUSH1 0x40 MLOAD PUSH3 0x461BCD PUSH1 0xE5 SHL DUP2 MSTORE PUSH1 0x20 PUSH1 0x4 DUP3 ADD MSTORE PUSH1 0xD PUSH1 0x24 DUP3 ADD MSTORE PUSH13 0x92DCECC2D8D2C840D2DCC8CAF PUSH1 0x9B SHL PUSH1 0x44 DUP3 ADD MSTORE PUSH1 0x64 SWAP1 REVERT INVALID PUSH10 0x4AF1CC8727CDD0AFBDD5 RETURNDATASIZE SWAP12 DUP8 0xB6 SWAP3 BASEFEE 0xBD 0x49 MUL 0x24 0xE9 0xDD MULMOD 0xE PUSH25 0x8546506E076FA8B26360DF8D5E154FFA5A8A7E894E85F781AC 0xFB 0xBE CREATE 0xB7 DIFFICULTY 0xFB SWAP6 MLOAD 0xD8 REVERT 0xF 0xD3 PUSH13 0xA2646970667358221220B672C1 0xC5 0xE4 0xE7 PUSH21 0x5D2059E16E155E2D693C3714E79A4B7A707EC94BD3 0xD1 OR 0xE4 ADDMOD PUSH5 0x736F6C6343 STOP ADDMOD GT STOP CALLER "},"methodIdentifiers":{"allLocks()":"5fbdf739","allLpTokenLockedCount()":"b982922e","allNormalTokenLockedCount()":"475831c8","cumulativeLockInfo(address)":"e1444fd6","editLock(uint256,uint256,uint256)":"b3b9aa48","getCumulativeLpTokenLockInfo(uint256,uint256)":"aec640c6","getCumulativeLpTokenLockInfoAt(uint256)":"a20b8c18","getCumulativeNormalTokenLockInfo(uint256,uint256)":"76c12822","getCumulativeNormalTokenLockInfoAt(uint256)":"7e6706d3","getLock(uint256)":"d68f4dd1","getLocksForToken(address,uint256,uint256)":"332f26d7","getTotalLockCount()":"fd981c66","lock(address,address,bool,uint256,uint256)":"64be5b39","lpLockCountForUser(address)":"07873ef1","lpLockForUserAtIndex(address,uint256)":"eeacf786","lpLocksForUser(address)":"aef0e540","normalLockCountForUser(address)":"eb80bdae","normalLockForUserAtIndex(address,uint256)":"618df7a3","normalLocksForUser(address)":"da1d8cff","totalLockCountForToken(address)":"e3676f88","totalLockCountForUser(address)":"cd83eadc","totalTokenLockedCount()":"1982242c","unlock(uint256)":"6198e339"}}}}}