{"contracts/depositWithdraw.sol":{"DepositWithdraw":{"abi":[{"inputs":[{"internalType":"address","name":"_receiver","type":"address"},{"internalType":"address","name":"_verifier","type":"address"},{"internalType":"address[]","name":"_tokenList","type":"address[]"}],"stateMutability":"nonpayable","type":"constructor"},{"anonymous":false,"inputs":[{"indexed":false,"internalType":"string","name":"orderId","type":"string"},{"indexed":false,"internalType":"address","name":"user","type":"address"},{"indexed":false,"internalType":"address","name":"token","type":"address"},{"indexed":false,"internalType":"uint256","name":"timestamp","type":"uint256"}],"name":"Cancel","type":"event"},{"anonymous":false,"inputs":[{"indexed":false,"internalType":"address","name":"user","type":"address"},{"indexed":false,"internalType":"address","name":"token","type":"address"},{"indexed":false,"internalType":"uint256","name":"amount","type":"uint256"},{"indexed":false,"internalType":"uint256","name":"timestamp","type":"uint256"}],"name":"Deposit","type":"event"},{"anonymous":false,"inputs":[{"indexed":true,"internalType":"address","name":"previousOwner","type":"address"},{"indexed":true,"internalType":"address","name":"newOwner","type":"address"}],"name":"OwnershipTransferred","type":"event"},{"anonymous":false,"inputs":[{"indexed":false,"internalType":"string","name":"orderId","type":"string"},{"indexed":false,"internalType":"address","name":"user","type":"address"},{"indexed":false,"internalType":"address","name":"token","type":"address"},{"indexed":false,"internalType":"uint256","name":"amount","type":"uint256"},{"indexed":false,"internalType":"uint256","name":"timestamp","type":"uint256"}],"name":"Withdraw","type":"event"},{"inputs":[{"internalType":"string","name":"_orderId","type":"string"},{"internalType":"address","name":"_token","type":"address"},{"internalType":"bytes","name":"_signature","type":"bytes"}],"name":"cancel","outputs":[],"stateMutability":"nonpayable","type":"function"},{"inputs":[{"internalType":"string","name":"","type":"string"}],"name":"cancelOrderIds","outputs":[{"internalType":"bool","name":"","type":"bool"}],"stateMutability":"view","type":"function"},{"inputs":[{"internalType":"address","name":"_token","type":"address"},{"internalType":"uint256","name":"_amount","type":"uint256"}],"name":"deposit","outputs":[],"stateMutability":"payable","type":"function"},{"inputs":[],"name":"depositFee","outputs":[{"internalType":"uint256","name":"","type":"uint256"}],"stateMutability":"view","type":"function"},{"inputs":[{"internalType":"string","name":"","type":"string"}],"name":"executeOrderIds","outputs":[{"internalType":"bool","name":"","type":"bool"}],"stateMutability":"view","type":"function"},{"inputs":[],"name":"owner","outputs":[{"internalType":"address","name":"","type":"address"}],"stateMutability":"view","type":"function"},{"inputs":[],"name":"receiver","outputs":[{"internalType":"address","name":"","type":"address"}],"stateMutability":"view","type":"function"},{"inputs":[],"name":"renounceOwnership","outputs":[],"stateMutability":"nonpayable","type":"function"},{"inputs":[{"internalType":"uint256","name":"_depositFee","type":"uint256"}],"name":"setDepositFee","outputs":[],"stateMutability":"nonpayable","type":"function"},{"inputs":[{"internalType":"address","name":"_receiver","type":"address"}],"name":"setReceiver","outputs":[],"stateMutability":"nonpayable","type":"function"},{"inputs":[{"internalType":"address","name":"_token","type":"address"}],"name":"setToken","outputs":[],"stateMutability":"nonpayable","type":"function"},{"inputs":[{"internalType":"address","name":"_verifier","type":"address"}],"name":"setVerifier","outputs":[],"stateMutability":"nonpayable","type":"function"},{"inputs":[{"internalType":"uint256","name":"_withdrawFee","type":"uint256"}],"name":"setWithdrawFee","outputs":[],"stateMutability":"nonpayable","type":"function"},{"inputs":[{"internalType":"address","name":"","type":"address"}],"name":"tokenList","outputs":[{"internalType":"bool","name":"","type":"bool"}],"stateMutability":"view","type":"function"},{"inputs":[{"internalType":"address","name":"newOwner","type":"address"}],"name":"transferOwnership","outputs":[],"stateMutability":"nonpayable","type":"function"},{"inputs":[],"name":"verifier","outputs":[{"internalType":"address","name":"","type":"address"}],"stateMutability":"view","type":"function"},{"inputs":[{"internalType":"string","name":"_orderId","type":"string"},{"internalType":"address","name":"_token","type":"address"},{"internalType":"uint256","name":"_amount","type":"uint256"},{"internalType":"bytes","name":"_signature","type":"bytes"}],"name":"withdraw","outputs":[],"stateMutability":"nonpayable","type":"function"},{"inputs":[],"name":"withdrawFee","outputs":[{"internalType":"uint256","name":"","type":"uint256"}],"stateMutability":"view","type":"function"}],"evm":{"bytecode":{"linkReferences":{},"object":"60406080815234620001a95762001349803803806200001e81620001c4565b9283398101606082820312620001a9576200003982620001ea565b91602062000049818301620001ea565b928583015160018060401b0393848211620001a957019080601f83011215620001a9578151938411620001ae5760059184831b9084806200008c818501620001c4565b809881520192820101928311620001a9579697968401905b8282106200018957505060008054336001600160a01b0319808316821784556001600160a01b039a93978b9690955093909286929083167f8be0079c531659141344cd1fd0a4f28419497f9722a3daafe3b4186f6b6457e08a80a360019a8b998a8055168360025416176002551690600354161760035584975b62000133575b86516111499081620002008239f35b8151881015620001835787811b82018401518316855260068452868520805460ff19168717905560001988146200016f5796850196856200011e565b634e487b7160e01b85526011600452602485fd5b62000124565b8480916200019a849b9a9b620001ea565b815201910190979697620000a4565b600080fd5b634e487b7160e01b600052604160045260246000fd5b6040519190601f01601f191682016001600160401b03811183821017620001ae57604052565b51906001600160a01b0382168203620001a95756fe6040608081526004908136101561001557600080fd5b600091823560e01c908163144fa6d714610b115781631f15035a1461077b5781632b7ac3f31461075257816347e7ef24146105e1578163490ae210146105bf5781635437988d1461057a578163616f0c2d1461052b57816364e9f35f146104ed57816367a52793146104cf578163715018a614610487578163718da7ee146104425781638da5cb5b1461041a578163a2c7d844146103b6578163b6ac642a14610394578163c8fc3766146101e8578163e941fa78146101c9578163f2fde38b14610114575063f7260d3e146100e957600080fd5b3461011057816003193601126101105760035490516001600160a01b039091168152602090f35b5080fd5b9050346101c55760203660031901126101c55761012f610b54565b90610138610c37565b6001600160a01b0391821692831561017357505082546001600160a01b0319811683178455166000805160206110b48339815191528380a380f35b906020608492519162461bcd60e51b8352820152602660248201527f4f776e61626c653a206e6577206f776e657220697320746865207a65726f206160448201526564647265737360d01b6064820152fd5b8280fd5b5050346101105781600319360112610110576020906005549051908152f35b9050346101c55760603660031901126101c5576001600160401b039080358281116103905761021a9036908301610bbe565b91610223610b6f565b9160443591821161038c5761023a91369101610bbe565b9060018060a01b0390818116918287526020936006855260ff87892054168015610384575b61026890610c8f565b86518581019080885195888a019661028181868a610c14565b820190600160601b60019003199060601b16898201523360601b6034820152036028810182526048016102b49082610b85565b5190206102c09061103e565b906102ca91610f81565b6102d690929192610e6c565b80600254169116146102e790610da1565b8451838186516102f8818387610c14565b810160088152030190205460ff161561031090610d54565b8285518080938751809261032392610c14565b8101600881520301902060ff1981541660011790558351938493608085526080850161034e91610e47565b923390850152830152426060830152037fbfe316277bd1a5d8818d228d89ee27c57269bed56aeb1102fca854011919062b91a180f35b50831561025f565b8580fd5b8480fd5b839034610110576020366003190112610110576103af610c37565b3560055580f35b828434610417576020366003190112610417578235906001600160401b038211610417575061040260206103f0819560ff94369101610bbe565b81855193828580945193849201610c14565b81016008815203019020541690519015158152f35b80fd5b505034610110578160031936011261011057905490516001600160a01b039091168152602090f35b83346104175760203660031901126104175761045c610b54565b610464610c37565b600380546001600160a01b0319166001600160a01b039290921691909117905580f35b83346104175780600319360112610417576104a0610c37565b80546001600160a01b03198116825581906001600160a01b03166000805160206110b48339815191528280a380f35b9050346101c557826003193601126101c55760209250549051908152f35b5050346101105760203660031901126101105760209160ff9082906001600160a01b03610518610b54565b1681526006855220541690519015158152f35b828434610417576020366003190112610417578235906001600160401b038211610417575061056560206103f0819560ff94369101610bbe565b81016007815203019020541690519015158152f35b833461041757602036600319011261041757610594610b54565b61059c610c37565b600280546001600160a01b0319166001600160a01b039290921691909117905580f35b839034610110576020366003190112610110576105da610c37565b8035905580f35b918091506003193601126101c5576105f7610b54565b9060243591610604610cfe565b6001600160a01b0316808552600660209081528286205490949060ff16801561074a575b61063190610c8f565b816106c15734840361066e5750916000805160206110f483398151915293916080935b815193338552840152820152426060820152a16001805580f35b825162461bcd60e51b8152908101859052602760248201527f6465706f73697457697468647261773a20496e76616c6964206465706f73697460448201526608185b5bdd5b9d60ca1b6064820152608490fd5b8294939251906323b872dd60e01b82523390820152306024820152826044820152838160648189865af1801561074057916000805160206110f483398151915295916080959493610713575b50610654565b61073290853d8711610739575b61072a8183610b85565b810190610ce6565b503861070d565b503d610720565b85513d88823e3d90fd5b508115610628565b50503461011057816003193601126101105760025490516001600160a01b039091168152602090f35b9050346101c55760803660031901126101c5576001600160401b03908035828111610390576107ad9036908301610bbe565b916107b6610b6f565b60443591606435908111610b0d576107d19036908501610bbe565b926107da610cfe565b60018060a01b0390818316928389526020956006875260ff898b2054168015610b05575b61080790610c8f565b88519160ff8951938981818d019661082081838a610c14565b810160078152030190205416610ac157916108e66108d86108d08a946108cb858f8f60688f916108f69c6108c3938561087d8f9761086b898b60ff9351809381928b51928391610c14565b81016008815203019020541615610d54565b51958693610893828601998a9251928391610c14565b84019260018060601b03199060601b169083015260348201523360601b6054820152036048810184520182610b85565b51902061103e565b610f81565b919091610e6c565b868060025416911614610da1565b8951809381928b51928391610c14565b81016007815203019020600160ff19825416179055600554808502908582041485151715610aae5790612710899392049084156000146109d657508280808061093f858a610e09565b8181156109cd575b3390f1156109c357828092918192600354168282156109ba575bf1156109b05790610992939291600080516020611094833981519152955b805195869560a0875260a0870190610e47565b93339086015284015260608301524260808301520390a16001805580f35b84513d87823e3d90fd5b506108fc610961565b87513d84823e3d90fd5b506108fc610947565b9092506109e38386610e09565b88519287848c8180610a0363a9059cbb60e01b97888352338a8401610e2c565b03918a5af1908115610aa4578894610a3092610a87575b5060035416948a51958694859485528401610e2c565b03818a865af18015610a7d5795610992959493929160008051602061109483398151915297610a60575b5061097f565b610a7690853d87116107395761072a8183610b85565b5038610a5a565b86513d89823e3d90fd5b610a9d90863d88116107395761072a8183610b85565b5038610a1a565b8a513d8d823e3d90fd5b634e487b7160e01b895260118252602489fd5b895162461bcd60e51b8152808501899052602a60248201526000805160206110d48339815191526044820152691b88195e1958dd5d195960b21b6064820152608490fd5b5084156107fe565b8680fd5b50503461011057602036600319011261011057610b2c610b54565b610b34610c37565b6001600160a01b0316825260066020528120805460ff1916600117905580f35b600435906001600160a01b0382168203610b6a57565b600080fd5b602435906001600160a01b0382168203610b6a57565b601f909101601f19168101906001600160401b03821190821017610ba857604052565b634e487b7160e01b600052604160045260246000fd5b81601f82011215610b6a578035906001600160401b038211610ba85760405192610bf2601f8401601f191660200185610b85565b82845260208383010111610b6a57816000926020809301838601378301015290565b60005b838110610c275750506000910152565b8181015183820152602001610c17565b6000546001600160a01b03163303610c4b57565b606460405162461bcd60e51b815260206004820152602060248201527f4f776e61626c653a2063616c6c6572206973206e6f7420746865206f776e65726044820152fd5b15610c9657565b60405162461bcd60e51b815260206004820152602260248201527f6465706f73697457697468647261773a20746f6b656e206e6f7420616c6c6f77604482015261195960f21b6064820152608490fd5b90816020910312610b6a57518015158103610b6a5790565b600260015414610d0f576002600155565b60405162461bcd60e51b815260206004820152601f60248201527f5265656e7472616e637947756172643a207265656e7472616e742063616c6c006044820152606490fd5b15610d5b57565b60405162461bcd60e51b815260206004820152602a60248201526000805160206110d48339815191526044820152691b8818d85b98d95b195960b21b6064820152608490fd5b15610da857565b60405162461bcd60e51b815260206004820152603360248201527f6465706f73697457697468647261773a204d657373616765206d7573742062656044820152721039b4b3b732b210313c902b32b934b334b2b960691b6064820152608490fd5b91908203918211610e1657565b634e487b7160e01b600052601160045260246000fd5b6001600160a01b039091168152602081019190915260400190565b90602091610e6081518092818552858086019101610c14565b601f01601f1916010190565b6005811015610f6b5780610e7d5750565b60018103610ec55760405162461bcd60e51b815260206004820152601860248201527745434453413a20696e76616c6964207369676e617475726560401b6044820152606490fd5b60028103610f125760405162461bcd60e51b815260206004820152601f60248201527f45434453413a20696e76616c6964207369676e6174757265206c656e677468006044820152606490fd5b600314610f1b57565b60405162461bcd60e51b815260206004820152602260248201527f45434453413a20696e76616c6964207369676e6174757265202773272076616c604482015261756560f01b6064820152608490fd5b634e487b7160e01b600052602160045260246000fd5b906041815114600014610faf57610fab916020820151906060604084015193015160001a90610fb9565b9091565b5050600090600290565b9291906fa2a8918ca85bafe22016d0b997e4df60600160ff1b0383116110325791608094939160ff602094604051948552168484015260408301526060820152600093849182805260015afa156110255781516001600160a01b0381161561101f579190565b50600190565b50604051903d90823e3d90fd5b50505050600090600390565b6040517b0ca2ba3432b932bab69029b4b3b732b21026b2b9b9b0b3b29d05199960211b60208201908152603c80830193909352918152606081016001600160401b03811182821017610ba8576040525190209056fed64c21970d492e8c762aa7701b4f7192bfd2eccb0adfd5b7ebf2208a13f663008be0079c531659141344cd1fd0a4f28419497f9722a3daafe3b4186f6b6457e06465706f73697457697468647261773a204f7264657249642068616420626565dcbc1c05240f31ff3ad067ef1ee35ce4997762752e3a095284754544f4c709d7a264697066735822122001492d2682a09a9180b4234402bfc629f7524ac0785c98a0b6931e4a421ec84764736f6c63430008110033","opcodes":"PUSH1 0x40 PUSH1 0x80 DUP2 MSTORE CALLVALUE PUSH3 0x1A9 JUMPI PUSH3 0x1349 DUP1 CODESIZE SUB DUP1 PUSH3 0x1E DUP2 PUSH3 0x1C4 JUMP JUMPDEST SWAP3 DUP4 CODECOPY DUP2 ADD PUSH1 0x60 DUP3 DUP3 SUB SLT PUSH3 0x1A9 JUMPI PUSH3 0x39 DUP3 PUSH3 0x1EA JUMP JUMPDEST SWAP2 PUSH1 0x20 PUSH3 0x49 DUP2 DUP4 ADD PUSH3 0x1EA JUMP JUMPDEST SWAP3 DUP6 DUP4 ADD MLOAD PUSH1 0x1 DUP1 PUSH1 0x40 SHL SUB SWAP4 DUP5 DUP3 GT PUSH3 0x1A9 JUMPI ADD SWAP1 DUP1 PUSH1 0x1F DUP4 ADD SLT ISZERO PUSH3 0x1A9 JUMPI DUP2 MLOAD SWAP4 DUP5 GT PUSH3 0x1AE JUMPI PUSH1 0x5 SWAP2 DUP5 DUP4 SHL SWAP1 DUP5 DUP1 PUSH3 0x8C DUP2 DUP6 ADD PUSH3 0x1C4 JUMP JUMPDEST DUP1 SWAP9 DUP2 MSTORE ADD SWAP3 DUP3 ADD ADD SWAP3 DUP4 GT PUSH3 0x1A9 JUMPI SWAP7 SWAP8 SWAP7 DUP5 ADD SWAP1 JUMPDEST DUP3 DUP3 LT PUSH3 0x189 JUMPI POP POP PUSH1 0x0 DUP1 SLOAD CALLER PUSH1 0x1 PUSH1 0x1 PUSH1 0xA0 SHL SUB NOT DUP1 DUP4 AND DUP3 OR DUP5 SSTORE PUSH1 0x1 PUSH1 0x1 PUSH1 0xA0 SHL SUB SWAP11 SWAP4 SWAP8 DUP12 SWAP7 SWAP1 SWAP6 POP SWAP4 SWAP1 SWAP3 DUP7 SWAP3 SWAP1 DUP4 AND PUSH32 0x8BE0079C531659141344CD1FD0A4F28419497F9722A3DAAFE3B4186F6B6457E0 DUP11 DUP1 LOG3 PUSH1 0x1 SWAP11 DUP12 SWAP10 DUP11 DUP1 SSTORE AND DUP4 PUSH1 0x2 SLOAD AND OR PUSH1 0x2 SSTORE AND SWAP1 PUSH1 0x3 SLOAD AND OR PUSH1 0x3 SSTORE DUP5 SWAP8 JUMPDEST PUSH3 0x133 JUMPI JUMPDEST DUP7 MLOAD PUSH2 0x1149 SWAP1 DUP2 PUSH3 0x200 DUP3 CODECOPY RETURN JUMPDEST DUP2 MLOAD DUP9 LT ISZERO PUSH3 0x183 JUMPI DUP8 DUP2 SHL DUP3 ADD DUP5 ADD MLOAD DUP4 AND DUP6 MSTORE PUSH1 0x6 DUP5 MSTORE DUP7 DUP6 KECCAK256 DUP1 SLOAD PUSH1 0xFF NOT AND DUP8 OR SWAP1 SSTORE PUSH1 0x0 NOT DUP9 EQ PUSH3 0x16F JUMPI SWAP7 DUP6 ADD SWAP7 DUP6 PUSH3 0x11E JUMP JUMPDEST PUSH4 0x4E487B71 PUSH1 0xE0 SHL DUP6 MSTORE PUSH1 0x11 PUSH1 0x4 MSTORE PUSH1 0x24 DUP6 REVERT JUMPDEST PUSH3 0x124 JUMP JUMPDEST DUP5 DUP1 SWAP2 PUSH3 0x19A DUP5 SWAP12 SWAP11 SWAP12 PUSH3 0x1EA JUMP JUMPDEST DUP2 MSTORE ADD SWAP2 ADD SWAP1 SWAP8 SWAP7 SWAP8 PUSH3 0xA4 JUMP JUMPDEST PUSH1 0x0 DUP1 REVERT JUMPDEST PUSH4 0x4E487B71 PUSH1 0xE0 SHL PUSH1 0x0 MSTORE PUSH1 0x41 PUSH1 0x4 MSTORE PUSH1 0x24 PUSH1 0x0 REVERT JUMPDEST PUSH1 0x40 MLOAD SWAP2 SWAP1 PUSH1 0x1F ADD PUSH1 0x1F NOT AND DUP3 ADD PUSH1 0x1 PUSH1 0x1 PUSH1 0x40 SHL SUB DUP2 GT DUP4 DUP3 LT OR PUSH3 0x1AE JUMPI PUSH1 0x40 MSTORE JUMP JUMPDEST MLOAD SWAP1 PUSH1 0x1 PUSH1 0x1 PUSH1 0xA0 SHL SUB DUP3 AND DUP3 SUB PUSH3 0x1A9 JUMPI JUMP INVALID PUSH1 0x40 PUSH1 0x80 DUP2 MSTORE PUSH1 0x4 SWAP1 DUP2 CALLDATASIZE LT ISZERO PUSH2 0x15 JUMPI PUSH1 0x0 DUP1 REVERT JUMPDEST PUSH1 0x0 SWAP2 DUP3 CALLDATALOAD PUSH1 0xE0 SHR SWAP1 DUP2 PUSH4 0x144FA6D7 EQ PUSH2 0xB11 JUMPI DUP2 PUSH4 0x1F15035A EQ PUSH2 0x77B JUMPI DUP2 PUSH4 0x2B7AC3F3 EQ PUSH2 0x752 JUMPI DUP2 PUSH4 0x47E7EF24 EQ PUSH2 0x5E1 JUMPI DUP2 PUSH4 0x490AE210 EQ PUSH2 0x5BF JUMPI DUP2 PUSH4 0x5437988D EQ PUSH2 0x57A JUMPI DUP2 PUSH4 0x616F0C2D EQ PUSH2 0x52B JUMPI DUP2 PUSH4 0x64E9F35F EQ PUSH2 0x4ED JUMPI DUP2 PUSH4 0x67A52793 EQ PUSH2 0x4CF JUMPI DUP2 PUSH4 0x715018A6 EQ PUSH2 0x487 JUMPI DUP2 PUSH4 0x718DA7EE EQ PUSH2 0x442 JUMPI DUP2 PUSH4 0x8DA5CB5B EQ PUSH2 0x41A JUMPI DUP2 PUSH4 0xA2C7D844 EQ PUSH2 0x3B6 JUMPI DUP2 PUSH4 0xB6AC642A EQ PUSH2 0x394 JUMPI DUP2 PUSH4 0xC8FC3766 EQ PUSH2 0x1E8 JUMPI DUP2 PUSH4 0xE941FA78 EQ PUSH2 0x1C9 JUMPI DUP2 PUSH4 0xF2FDE38B EQ PUSH2 0x114 JUMPI POP PUSH4 0xF7260D3E EQ PUSH2 0xE9 JUMPI PUSH1 0x0 DUP1 REVERT JUMPDEST CALLVALUE PUSH2 0x110 JUMPI DUP2 PUSH1 0x3 NOT CALLDATASIZE ADD SLT PUSH2 0x110 JUMPI PUSH1 0x3 SLOAD SWAP1 MLOAD PUSH1 0x1 PUSH1 0x1 PUSH1 0xA0 SHL SUB SWAP1 SWAP2 AND DUP2 MSTORE PUSH1 0x20 SWAP1 RETURN JUMPDEST POP DUP1 REVERT JUMPDEST SWAP1 POP CALLVALUE PUSH2 0x1C5 JUMPI PUSH1 0x20 CALLDATASIZE PUSH1 0x3 NOT ADD SLT PUSH2 0x1C5 JUMPI PUSH2 0x12F PUSH2 0xB54 JUMP JUMPDEST SWAP1 PUSH2 0x138 PUSH2 0xC37 JUMP JUMPDEST PUSH1 0x1 PUSH1 0x1 PUSH1 0xA0 SHL SUB SWAP2 DUP3 AND SWAP3 DUP4 ISZERO PUSH2 0x173 JUMPI POP POP DUP3 SLOAD PUSH1 0x1 PUSH1 0x1 PUSH1 0xA0 SHL SUB NOT DUP2 AND DUP4 OR DUP5 SSTORE AND PUSH1 0x0 DUP1 MLOAD PUSH1 0x20 PUSH2 0x10B4 DUP4 CODECOPY DUP2 MLOAD SWAP2 MSTORE DUP4 DUP1 LOG3 DUP1 RETURN JUMPDEST SWAP1 PUSH1 0x20 PUSH1 0x84 SWAP3 MLOAD SWAP2 PUSH3 0x461BCD PUSH1 0xE5 SHL DUP4 MSTORE DUP3 ADD MSTORE PUSH1 0x26 PUSH1 0x24 DUP3 ADD MSTORE PUSH32 0x4F776E61626C653A206E6577206F776E657220697320746865207A65726F2061 PUSH1 0x44 DUP3 ADD MSTORE PUSH6 0x646472657373 PUSH1 0xD0 SHL PUSH1 0x64 DUP3 ADD MSTORE REVERT JUMPDEST DUP3 DUP1 REVERT JUMPDEST POP POP CALLVALUE PUSH2 0x110 JUMPI DUP2 PUSH1 0x3 NOT CALLDATASIZE ADD SLT PUSH2 0x110 JUMPI PUSH1 0x20 SWAP1 PUSH1 0x5 SLOAD SWAP1 MLOAD SWAP1 DUP2 MSTORE RETURN JUMPDEST SWAP1 POP CALLVALUE PUSH2 0x1C5 JUMPI PUSH1 0x60 CALLDATASIZE PUSH1 0x3 NOT ADD SLT PUSH2 0x1C5 JUMPI PUSH1 0x1 PUSH1 0x1 PUSH1 0x40 SHL SUB SWAP1 DUP1 CALLDATALOAD DUP3 DUP2 GT PUSH2 0x390 JUMPI PUSH2 0x21A SWAP1 CALLDATASIZE SWAP1 DUP4 ADD PUSH2 0xBBE JUMP JUMPDEST SWAP2 PUSH2 0x223 PUSH2 0xB6F JUMP JUMPDEST SWAP2 PUSH1 0x44 CALLDATALOAD SWAP2 DUP3 GT PUSH2 0x38C JUMPI PUSH2 0x23A SWAP2 CALLDATASIZE SWAP2 ADD PUSH2 0xBBE JUMP JUMPDEST SWAP1 PUSH1 0x1 DUP1 PUSH1 0xA0 SHL SUB SWAP1 DUP2 DUP2 AND SWAP2 DUP3 DUP8 MSTORE PUSH1 0x20 SWAP4 PUSH1 0x6 DUP6 MSTORE PUSH1 0xFF DUP8 DUP10 KECCAK256 SLOAD AND DUP1 ISZERO PUSH2 0x384 JUMPI JUMPDEST PUSH2 0x268 SWAP1 PUSH2 0xC8F JUMP JUMPDEST DUP7 MLOAD DUP6 DUP2 ADD SWAP1 DUP1 DUP9 MLOAD SWAP6 DUP9 DUP11 ADD SWAP7 PUSH2 0x281 DUP2 DUP7 DUP11 PUSH2 0xC14 JUMP JUMPDEST DUP3 ADD SWAP1 PUSH1 0x1 PUSH1 0x60 SHL PUSH1 0x1 SWAP1 SUB NOT SWAP1 PUSH1 0x60 SHL AND DUP10 DUP3 ADD MSTORE CALLER PUSH1 0x60 SHL PUSH1 0x34 DUP3 ADD MSTORE SUB PUSH1 0x28 DUP2 ADD DUP3 MSTORE PUSH1 0x48 ADD PUSH2 0x2B4 SWAP1 DUP3 PUSH2 0xB85 JUMP JUMPDEST MLOAD SWAP1 KECCAK256 PUSH2 0x2C0 SWAP1 PUSH2 0x103E JUMP JUMPDEST SWAP1 PUSH2 0x2CA SWAP2 PUSH2 0xF81 JUMP JUMPDEST PUSH2 0x2D6 SWAP1 SWAP3 SWAP2 SWAP3 PUSH2 0xE6C JUMP JUMPDEST DUP1 PUSH1 0x2 SLOAD AND SWAP2 AND EQ PUSH2 0x2E7 SWAP1 PUSH2 0xDA1 JUMP JUMPDEST DUP5 MLOAD DUP4 DUP2 DUP7 MLOAD PUSH2 0x2F8 DUP2 DUP4 DUP8 PUSH2 0xC14 JUMP JUMPDEST DUP2 ADD PUSH1 0x8 DUP2 MSTORE SUB ADD SWAP1 KECCAK256 SLOAD PUSH1 0xFF AND ISZERO PUSH2 0x310 SWAP1 PUSH2 0xD54 JUMP JUMPDEST DUP3 DUP6 MLOAD DUP1 DUP1 SWAP4 DUP8 MLOAD DUP1 SWAP3 PUSH2 0x323 SWAP3 PUSH2 0xC14 JUMP JUMPDEST DUP2 ADD PUSH1 0x8 DUP2 MSTORE SUB ADD SWAP1 KECCAK256 PUSH1 0xFF NOT DUP2 SLOAD AND PUSH1 0x1 OR SWAP1 SSTORE DUP4 MLOAD SWAP4 DUP5 SWAP4 PUSH1 0x80 DUP6 MSTORE PUSH1 0x80 DUP6 ADD PUSH2 0x34E SWAP2 PUSH2 0xE47 JUMP JUMPDEST SWAP3 CALLER SWAP1 DUP6 ADD MSTORE DUP4 ADD MSTORE TIMESTAMP PUSH1 0x60 DUP4 ADD MSTORE SUB PUSH32 0xBFE316277BD1A5D8818D228D89EE27C57269BED56AEB1102FCA854011919062B SWAP2 LOG1 DUP1 RETURN JUMPDEST POP DUP4 ISZERO PUSH2 0x25F JUMP JUMPDEST DUP6 DUP1 REVERT JUMPDEST DUP5 DUP1 REVERT JUMPDEST DUP4 SWAP1 CALLVALUE PUSH2 0x110 JUMPI PUSH1 0x20 CALLDATASIZE PUSH1 0x3 NOT ADD SLT PUSH2 0x110 JUMPI PUSH2 0x3AF PUSH2 0xC37 JUMP JUMPDEST CALLDATALOAD PUSH1 0x5 SSTORE DUP1 RETURN JUMPDEST DUP3 DUP5 CALLVALUE PUSH2 0x417 JUMPI PUSH1 0x20 CALLDATASIZE PUSH1 0x3 NOT ADD SLT PUSH2 0x417 JUMPI DUP3 CALLDATALOAD SWAP1 PUSH1 0x1 PUSH1 0x1 PUSH1 0x40 SHL SUB DUP3 GT PUSH2 0x417 JUMPI POP PUSH2 0x402 PUSH1 0x20 PUSH2 0x3F0 DUP2 SWAP6 PUSH1 0xFF SWAP5 CALLDATASIZE SWAP2 ADD PUSH2 0xBBE JUMP JUMPDEST DUP2 DUP6 MLOAD SWAP4 DUP3 DUP6 DUP1 SWAP5 MLOAD SWAP4 DUP5 SWAP3 ADD PUSH2 0xC14 JUMP JUMPDEST DUP2 ADD PUSH1 0x8 DUP2 MSTORE SUB ADD SWAP1 KECCAK256 SLOAD AND SWAP1 MLOAD SWAP1 ISZERO ISZERO DUP2 MSTORE RETURN JUMPDEST DUP1 REVERT JUMPDEST POP POP CALLVALUE PUSH2 0x110 JUMPI DUP2 PUSH1 0x3 NOT CALLDATASIZE ADD SLT PUSH2 0x110 JUMPI SWAP1 SLOAD SWAP1 MLOAD PUSH1 0x1 PUSH1 0x1 PUSH1 0xA0 SHL SUB SWAP1 SWAP2 AND DUP2 MSTORE PUSH1 0x20 SWAP1 RETURN JUMPDEST DUP4 CALLVALUE PUSH2 0x417 JUMPI PUSH1 0x20 CALLDATASIZE PUSH1 0x3 NOT ADD SLT PUSH2 0x417 JUMPI PUSH2 0x45C PUSH2 0xB54 JUMP JUMPDEST PUSH2 0x464 PUSH2 0xC37 JUMP JUMPDEST PUSH1 0x3 DUP1 SLOAD PUSH1 0x1 PUSH1 0x1 PUSH1 0xA0 SHL SUB NOT AND PUSH1 0x1 PUSH1 0x1 PUSH1 0xA0 SHL SUB SWAP3 SWAP1 SWAP3 AND SWAP2 SWAP1 SWAP2 OR SWAP1 SSTORE DUP1 RETURN JUMPDEST DUP4 CALLVALUE PUSH2 0x417 JUMPI DUP1 PUSH1 0x3 NOT CALLDATASIZE ADD SLT PUSH2 0x417 JUMPI PUSH2 0x4A0 PUSH2 0xC37 JUMP JUMPDEST DUP1 SLOAD PUSH1 0x1 PUSH1 0x1 PUSH1 0xA0 SHL SUB NOT DUP2 AND DUP3 SSTORE DUP2 SWAP1 PUSH1 0x1 PUSH1 0x1 PUSH1 0xA0 SHL SUB AND PUSH1 0x0 DUP1 MLOAD PUSH1 0x20 PUSH2 0x10B4 DUP4 CODECOPY DUP2 MLOAD SWAP2 MSTORE DUP3 DUP1 LOG3 DUP1 RETURN JUMPDEST SWAP1 POP CALLVALUE PUSH2 0x1C5 JUMPI DUP3 PUSH1 0x3 NOT CALLDATASIZE ADD SLT PUSH2 0x1C5 JUMPI PUSH1 0x20 SWAP3 POP SLOAD SWAP1 MLOAD SWAP1 DUP2 MSTORE RETURN JUMPDEST POP POP CALLVALUE PUSH2 0x110 JUMPI PUSH1 0x20 CALLDATASIZE PUSH1 0x3 NOT ADD SLT PUSH2 0x110 JUMPI PUSH1 0x20 SWAP2 PUSH1 0xFF SWAP1 DUP3 SWAP1 PUSH1 0x1 PUSH1 0x1 PUSH1 0xA0 SHL SUB PUSH2 0x518 PUSH2 0xB54 JUMP JUMPDEST AND DUP2 MSTORE PUSH1 0x6 DUP6 MSTORE KECCAK256 SLOAD AND SWAP1 MLOAD SWAP1 ISZERO ISZERO DUP2 MSTORE RETURN JUMPDEST DUP3 DUP5 CALLVALUE PUSH2 0x417 JUMPI PUSH1 0x20 CALLDATASIZE PUSH1 0x3 NOT ADD SLT PUSH2 0x417 JUMPI DUP3 CALLDATALOAD SWAP1 PUSH1 0x1 PUSH1 0x1 PUSH1 0x40 SHL SUB DUP3 GT PUSH2 0x417 JUMPI POP PUSH2 0x565 PUSH1 0x20 PUSH2 0x3F0 DUP2 SWAP6 PUSH1 0xFF SWAP5 CALLDATASIZE SWAP2 ADD PUSH2 0xBBE JUMP JUMPDEST DUP2 ADD PUSH1 0x7 DUP2 MSTORE SUB ADD SWAP1 KECCAK256 SLOAD AND SWAP1 MLOAD SWAP1 ISZERO ISZERO DUP2 MSTORE RETURN JUMPDEST DUP4 CALLVALUE PUSH2 0x417 JUMPI PUSH1 0x20 CALLDATASIZE PUSH1 0x3 NOT ADD SLT PUSH2 0x417 JUMPI PUSH2 0x594 PUSH2 0xB54 JUMP JUMPDEST PUSH2 0x59C PUSH2 0xC37 JUMP JUMPDEST PUSH1 0x2 DUP1 SLOAD PUSH1 0x1 PUSH1 0x1 PUSH1 0xA0 SHL SUB NOT AND PUSH1 0x1 PUSH1 0x1 PUSH1 0xA0 SHL SUB SWAP3 SWAP1 SWAP3 AND SWAP2 SWAP1 SWAP2 OR SWAP1 SSTORE DUP1 RETURN JUMPDEST DUP4 SWAP1 CALLVALUE PUSH2 0x110 JUMPI PUSH1 0x20 CALLDATASIZE PUSH1 0x3 NOT ADD SLT PUSH2 0x110 JUMPI PUSH2 0x5DA PUSH2 0xC37 JUMP JUMPDEST DUP1 CALLDATALOAD SWAP1 SSTORE DUP1 RETURN JUMPDEST SWAP2 DUP1 SWAP2 POP PUSH1 0x3 NOT CALLDATASIZE ADD SLT PUSH2 0x1C5 JUMPI PUSH2 0x5F7 PUSH2 0xB54 JUMP JUMPDEST SWAP1 PUSH1 0x24 CALLDATALOAD SWAP2 PUSH2 0x604 PUSH2 0xCFE JUMP JUMPDEST PUSH1 0x1 PUSH1 0x1 PUSH1 0xA0 SHL SUB AND DUP1 DUP6 MSTORE PUSH1 0x6 PUSH1 0x20 SWAP1 DUP2 MSTORE DUP3 DUP7 KECCAK256 SLOAD SWAP1 SWAP5 SWAP1 PUSH1 0xFF AND DUP1 ISZERO PUSH2 0x74A JUMPI JUMPDEST PUSH2 0x631 SWAP1 PUSH2 0xC8F JUMP JUMPDEST DUP2 PUSH2 0x6C1 JUMPI CALLVALUE DUP5 SUB PUSH2 0x66E JUMPI POP SWAP2 PUSH1 0x0 DUP1 MLOAD PUSH1 0x20 PUSH2 0x10F4 DUP4 CODECOPY DUP2 MLOAD SWAP2 MSTORE SWAP4 SWAP2 PUSH1 0x80 SWAP4 JUMPDEST DUP2 MLOAD SWAP4 CALLER DUP6 MSTORE DUP5 ADD MSTORE DUP3 ADD MSTORE TIMESTAMP PUSH1 0x60 DUP3 ADD MSTORE LOG1 PUSH1 0x1 DUP1 SSTORE DUP1 RETURN JUMPDEST DUP3 MLOAD PUSH3 0x461BCD PUSH1 0xE5 SHL DUP2 MSTORE SWAP1 DUP2 ADD DUP6 SWAP1 MSTORE PUSH1 0x27 PUSH1 0x24 DUP3 ADD MSTORE PUSH32 0x6465706F73697457697468647261773A20496E76616C6964206465706F736974 PUSH1 0x44 DUP3 ADD MSTORE PUSH7 0x8185B5BDD5B9D PUSH1 0xCA SHL PUSH1 0x64 DUP3 ADD MSTORE PUSH1 0x84 SWAP1 REVERT JUMPDEST DUP3 SWAP5 SWAP4 SWAP3 MLOAD SWAP1 PUSH4 0x23B872DD PUSH1 0xE0 SHL DUP3 MSTORE CALLER SWAP1 DUP3 ADD MSTORE ADDRESS PUSH1 0x24 DUP3 ADD MSTORE DUP3 PUSH1 0x44 DUP3 ADD MSTORE DUP4 DUP2 PUSH1 0x64 DUP2 DUP10 DUP7 GAS CALL DUP1 ISZERO PUSH2 0x740 JUMPI SWAP2 PUSH1 0x0 DUP1 MLOAD PUSH1 0x20 PUSH2 0x10F4 DUP4 CODECOPY DUP2 MLOAD SWAP2 MSTORE SWAP6 SWAP2 PUSH1 0x80 SWAP6 SWAP5 SWAP4 PUSH2 0x713 JUMPI JUMPDEST POP PUSH2 0x654 JUMP JUMPDEST PUSH2 0x732 SWAP1 DUP6 RETURNDATASIZE DUP8 GT PUSH2 0x739 JUMPI JUMPDEST PUSH2 0x72A DUP2 DUP4 PUSH2 0xB85 JUMP JUMPDEST DUP2 ADD SWAP1 PUSH2 0xCE6 JUMP JUMPDEST POP CODESIZE PUSH2 0x70D JUMP JUMPDEST POP RETURNDATASIZE PUSH2 0x720 JUMP JUMPDEST DUP6 MLOAD RETURNDATASIZE DUP9 DUP3 RETURNDATACOPY RETURNDATASIZE SWAP1 REVERT JUMPDEST POP DUP2 ISZERO PUSH2 0x628 JUMP JUMPDEST POP POP CALLVALUE PUSH2 0x110 JUMPI DUP2 PUSH1 0x3 NOT CALLDATASIZE ADD SLT PUSH2 0x110 JUMPI PUSH1 0x2 SLOAD SWAP1 MLOAD PUSH1 0x1 PUSH1 0x1 PUSH1 0xA0 SHL SUB SWAP1 SWAP2 AND DUP2 MSTORE PUSH1 0x20 SWAP1 RETURN JUMPDEST SWAP1 POP CALLVALUE PUSH2 0x1C5 JUMPI PUSH1 0x80 CALLDATASIZE PUSH1 0x3 NOT ADD SLT PUSH2 0x1C5 JUMPI PUSH1 0x1 PUSH1 0x1 PUSH1 0x40 SHL SUB SWAP1 DUP1 CALLDATALOAD DUP3 DUP2 GT PUSH2 0x390 JUMPI PUSH2 0x7AD SWAP1 CALLDATASIZE SWAP1 DUP4 ADD PUSH2 0xBBE JUMP JUMPDEST SWAP2 PUSH2 0x7B6 PUSH2 0xB6F JUMP JUMPDEST PUSH1 0x44 CALLDATALOAD SWAP2 PUSH1 0x64 CALLDATALOAD SWAP1 DUP2 GT PUSH2 0xB0D JUMPI PUSH2 0x7D1 SWAP1 CALLDATASIZE SWAP1 DUP6 ADD PUSH2 0xBBE JUMP JUMPDEST SWAP3 PUSH2 0x7DA PUSH2 0xCFE JUMP JUMPDEST PUSH1 0x1 DUP1 PUSH1 0xA0 SHL SUB SWAP1 DUP2 DUP4 AND SWAP3 DUP4 DUP10 MSTORE PUSH1 0x20 SWAP6 PUSH1 0x6 DUP8 MSTORE PUSH1 0xFF DUP10 DUP12 KECCAK256 SLOAD AND DUP1 ISZERO PUSH2 0xB05 JUMPI JUMPDEST PUSH2 0x807 SWAP1 PUSH2 0xC8F JUMP JUMPDEST DUP9 MLOAD SWAP2 PUSH1 0xFF DUP10 MLOAD SWAP4 DUP10 DUP2 DUP2 DUP14 ADD SWAP7 PUSH2 0x820 DUP2 DUP4 DUP11 PUSH2 0xC14 JUMP JUMPDEST DUP2 ADD PUSH1 0x7 DUP2 MSTORE SUB ADD SWAP1 KECCAK256 SLOAD AND PUSH2 0xAC1 JUMPI SWAP2 PUSH2 0x8E6 PUSH2 0x8D8 PUSH2 0x8D0 DUP11 SWAP5 PUSH2 0x8CB DUP6 DUP16 DUP16 PUSH1 0x68 DUP16 SWAP2 PUSH2 0x8F6 SWAP13 PUSH2 0x8C3 SWAP4 DUP6 PUSH2 0x87D DUP16 SWAP8 PUSH2 0x86B DUP10 DUP12 PUSH1 0xFF SWAP4 MLOAD DUP1 SWAP4 DUP2 SWAP3 DUP12 MLOAD SWAP3 DUP4 SWAP2 PUSH2 0xC14 JUMP JUMPDEST DUP2 ADD PUSH1 0x8 DUP2 MSTORE SUB ADD SWAP1 KECCAK256 SLOAD AND ISZERO PUSH2 0xD54 JUMP JUMPDEST MLOAD SWAP6 DUP7 SWAP4 PUSH2 0x893 DUP3 DUP7 ADD SWAP10 DUP11 SWAP3 MLOAD SWAP3 DUP4 SWAP2 PUSH2 0xC14 JUMP JUMPDEST DUP5 ADD SWAP3 PUSH1 0x1 DUP1 PUSH1 0x60 SHL SUB NOT SWAP1 PUSH1 0x60 SHL AND SWAP1 DUP4 ADD MSTORE PUSH1 0x34 DUP3 ADD MSTORE CALLER PUSH1 0x60 SHL PUSH1 0x54 DUP3 ADD MSTORE SUB PUSH1 0x48 DUP2 ADD DUP5 MSTORE ADD DUP3 PUSH2 0xB85 JUMP JUMPDEST MLOAD SWAP1 KECCAK256 PUSH2 0x103E JUMP JUMPDEST PUSH2 0xF81 JUMP JUMPDEST SWAP2 SWAP1 SWAP2 PUSH2 0xE6C JUMP JUMPDEST DUP7 DUP1 PUSH1 0x2 SLOAD AND SWAP2 AND EQ PUSH2 0xDA1 JUMP JUMPDEST DUP10 MLOAD DUP1 SWAP4 DUP2 SWAP3 DUP12 MLOAD SWAP3 DUP4 SWAP2 PUSH2 0xC14 JUMP JUMPDEST DUP2 ADD PUSH1 0x7 DUP2 MSTORE SUB ADD SWAP1 KECCAK256 PUSH1 0x1 PUSH1 0xFF NOT DUP3 SLOAD AND OR SWAP1 SSTORE PUSH1 0x5 SLOAD DUP1 DUP6 MUL SWAP1 DUP6 DUP3 DIV EQ DUP6 ISZERO OR ISZERO PUSH2 0xAAE JUMPI SWAP1 PUSH2 0x2710 DUP10 SWAP4 SWAP3 DIV SWAP1 DUP5 ISZERO PUSH1 0x0 EQ PUSH2 0x9D6 JUMPI POP DUP3 DUP1 DUP1 DUP1 PUSH2 0x93F DUP6 DUP11 PUSH2 0xE09 JUMP JUMPDEST DUP2 DUP2 ISZERO PUSH2 0x9CD JUMPI JUMPDEST CALLER SWAP1 CALL ISZERO PUSH2 0x9C3 JUMPI DUP3 DUP1 SWAP3 SWAP2 DUP2 SWAP3 PUSH1 0x3 SLOAD AND DUP3 DUP3 ISZERO PUSH2 0x9BA JUMPI JUMPDEST CALL ISZERO PUSH2 0x9B0 JUMPI SWAP1 PUSH2 0x992 SWAP4 SWAP3 SWAP2 PUSH1 0x0 DUP1 MLOAD PUSH1 0x20 PUSH2 0x1094 DUP4 CODECOPY DUP2 MLOAD SWAP2 MSTORE SWAP6 JUMPDEST DUP1 MLOAD SWAP6 DUP7 SWAP6 PUSH1 0xA0 DUP8 MSTORE PUSH1 0xA0 DUP8 ADD SWAP1 PUSH2 0xE47 JUMP JUMPDEST SWAP4 CALLER SWAP1 DUP7 ADD MSTORE DUP5 ADD MSTORE PUSH1 0x60 DUP4 ADD MSTORE TIMESTAMP PUSH1 0x80 DUP4 ADD MSTORE SUB SWAP1 LOG1 PUSH1 0x1 DUP1 SSTORE DUP1 RETURN JUMPDEST DUP5 MLOAD RETURNDATASIZE DUP8 DUP3 RETURNDATACOPY RETURNDATASIZE SWAP1 REVERT JUMPDEST POP PUSH2 0x8FC PUSH2 0x961 JUMP JUMPDEST DUP8 MLOAD RETURNDATASIZE DUP5 DUP3 RETURNDATACOPY RETURNDATASIZE SWAP1 REVERT JUMPDEST POP PUSH2 0x8FC PUSH2 0x947 JUMP JUMPDEST SWAP1 SWAP3 POP PUSH2 0x9E3 DUP4 DUP7 PUSH2 0xE09 JUMP JUMPDEST DUP9 MLOAD SWAP3 DUP8 DUP5 DUP13 DUP2 DUP1 PUSH2 0xA03 PUSH4 0xA9059CBB PUSH1 0xE0 SHL SWAP8 DUP9 DUP4 MSTORE CALLER DUP11 DUP5 ADD PUSH2 0xE2C JUMP JUMPDEST SUB SWAP2 DUP11 GAS CALL SWAP1 DUP2 ISZERO PUSH2 0xAA4 JUMPI DUP9 SWAP5 PUSH2 0xA30 SWAP3 PUSH2 0xA87 JUMPI JUMPDEST POP PUSH1 0x3 SLOAD AND SWAP5 DUP11 MLOAD SWAP6 DUP7 SWAP5 DUP6 SWAP5 DUP6 MSTORE DUP5 ADD PUSH2 0xE2C JUMP JUMPDEST SUB DUP2 DUP11 DUP7 GAS CALL DUP1 ISZERO PUSH2 0xA7D JUMPI SWAP6 PUSH2 0x992 SWAP6 SWAP5 SWAP4 SWAP3 SWAP2 PUSH1 0x0 DUP1 MLOAD PUSH1 0x20 PUSH2 0x1094 DUP4 CODECOPY DUP2 MLOAD SWAP2 MSTORE SWAP8 PUSH2 0xA60 JUMPI JUMPDEST POP PUSH2 0x97F JUMP JUMPDEST PUSH2 0xA76 SWAP1 DUP6 RETURNDATASIZE DUP8 GT PUSH2 0x739 JUMPI PUSH2 0x72A DUP2 DUP4 PUSH2 0xB85 JUMP JUMPDEST POP CODESIZE PUSH2 0xA5A JUMP JUMPDEST DUP7 MLOAD RETURNDATASIZE DUP10 DUP3 RETURNDATACOPY RETURNDATASIZE SWAP1 REVERT JUMPDEST PUSH2 0xA9D SWAP1 DUP7 RETURNDATASIZE DUP9 GT PUSH2 0x739 JUMPI PUSH2 0x72A DUP2 DUP4 PUSH2 0xB85 JUMP JUMPDEST POP CODESIZE PUSH2 0xA1A JUMP JUMPDEST DUP11 MLOAD RETURNDATASIZE DUP14 DUP3 RETURNDATACOPY RETURNDATASIZE SWAP1 REVERT JUMPDEST PUSH4 0x4E487B71 PUSH1 0xE0 SHL DUP10 MSTORE PUSH1 0x11 DUP3 MSTORE PUSH1 0x24 DUP10 REVERT JUMPDEST DUP10 MLOAD PUSH3 0x461BCD PUSH1 0xE5 SHL DUP2 MSTORE DUP1 DUP6 ADD DUP10 SWAP1 MSTORE PUSH1 0x2A PUSH1 0x24 DUP3 ADD MSTORE PUSH1 0x0 DUP1 MLOAD PUSH1 0x20 PUSH2 0x10D4 DUP4 CODECOPY DUP2 MLOAD SWAP2 MSTORE PUSH1 0x44 DUP3 ADD MSTORE PUSH10 0x1B88195E1958DD5D1959 PUSH1 0xB2 SHL PUSH1 0x64 DUP3 ADD MSTORE PUSH1 0x84 SWAP1 REVERT JUMPDEST POP DUP5 ISZERO PUSH2 0x7FE JUMP JUMPDEST DUP7 DUP1 REVERT JUMPDEST POP POP CALLVALUE PUSH2 0x110 JUMPI PUSH1 0x20 CALLDATASIZE PUSH1 0x3 NOT ADD SLT PUSH2 0x110 JUMPI PUSH2 0xB2C PUSH2 0xB54 JUMP JUMPDEST PUSH2 0xB34 PUSH2 0xC37 JUMP JUMPDEST PUSH1 0x1 PUSH1 0x1 PUSH1 0xA0 SHL SUB AND DUP3 MSTORE PUSH1 0x6 PUSH1 0x20 MSTORE DUP2 KECCAK256 DUP1 SLOAD PUSH1 0xFF NOT AND PUSH1 0x1 OR SWAP1 SSTORE DUP1 RETURN JUMPDEST PUSH1 0x4 CALLDATALOAD SWAP1 PUSH1 0x1 PUSH1 0x1 PUSH1 0xA0 SHL SUB DUP3 AND DUP3 SUB PUSH2 0xB6A JUMPI JUMP JUMPDEST PUSH1 0x0 DUP1 REVERT JUMPDEST PUSH1 0x24 CALLDATALOAD SWAP1 PUSH1 0x1 PUSH1 0x1 PUSH1 0xA0 SHL SUB DUP3 AND DUP3 SUB PUSH2 0xB6A JUMPI JUMP JUMPDEST PUSH1 0x1F SWAP1 SWAP2 ADD PUSH1 0x1F NOT AND DUP2 ADD SWAP1 PUSH1 0x1 PUSH1 0x1 PUSH1 0x40 SHL SUB DUP3 GT SWAP1 DUP3 LT OR PUSH2 0xBA8 JUMPI PUSH1 0x40 MSTORE JUMP JUMPDEST PUSH4 0x4E487B71 PUSH1 0xE0 SHL PUSH1 0x0 MSTORE PUSH1 0x41 PUSH1 0x4 MSTORE PUSH1 0x24 PUSH1 0x0 REVERT JUMPDEST DUP2 PUSH1 0x1F DUP3 ADD SLT ISZERO PUSH2 0xB6A JUMPI DUP1 CALLDATALOAD SWAP1 PUSH1 0x1 PUSH1 0x1 PUSH1 0x40 SHL SUB DUP3 GT PUSH2 0xBA8 JUMPI PUSH1 0x40 MLOAD SWAP3 PUSH2 0xBF2 PUSH1 0x1F DUP5 ADD PUSH1 0x1F NOT AND PUSH1 0x20 ADD DUP6 PUSH2 0xB85 JUMP JUMPDEST DUP3 DUP5 MSTORE PUSH1 0x20 DUP4 DUP4 ADD ADD GT PUSH2 0xB6A JUMPI DUP2 PUSH1 0x0 SWAP3 PUSH1 0x20 DUP1 SWAP4 ADD DUP4 DUP7 ADD CALLDATACOPY DUP4 ADD ADD MSTORE SWAP1 JUMP JUMPDEST PUSH1 0x0 JUMPDEST DUP4 DUP2 LT PUSH2 0xC27 JUMPI POP POP PUSH1 0x0 SWAP2 ADD MSTORE JUMP JUMPDEST DUP2 DUP2 ADD MLOAD DUP4 DUP3 ADD MSTORE PUSH1 0x20 ADD PUSH2 0xC17 JUMP JUMPDEST PUSH1 0x0 SLOAD PUSH1 0x1 PUSH1 0x1 PUSH1 0xA0 SHL SUB AND CALLER SUB PUSH2 0xC4B JUMPI JUMP JUMPDEST PUSH1 0x64 PUSH1 0x40 MLOAD PUSH3 0x461BCD PUSH1 0xE5 SHL DUP2 MSTORE PUSH1 0x20 PUSH1 0x4 DUP3 ADD MSTORE PUSH1 0x20 PUSH1 0x24 DUP3 ADD MSTORE PUSH32 0x4F776E61626C653A2063616C6C6572206973206E6F7420746865206F776E6572 PUSH1 0x44 DUP3 ADD MSTORE REVERT JUMPDEST ISZERO PUSH2 0xC96 JUMPI JUMP JUMPDEST PUSH1 0x40 MLOAD PUSH3 0x461BCD PUSH1 0xE5 SHL DUP2 MSTORE PUSH1 0x20 PUSH1 0x4 DUP3 ADD MSTORE PUSH1 0x22 PUSH1 0x24 DUP3 ADD MSTORE PUSH32 0x6465706F73697457697468647261773A20746F6B656E206E6F7420616C6C6F77 PUSH1 0x44 DUP3 ADD MSTORE PUSH2 0x1959 PUSH1 0xF2 SHL PUSH1 0x64 DUP3 ADD MSTORE PUSH1 0x84 SWAP1 REVERT JUMPDEST SWAP1 DUP2 PUSH1 0x20 SWAP2 SUB SLT PUSH2 0xB6A JUMPI MLOAD DUP1 ISZERO ISZERO DUP2 SUB PUSH2 0xB6A JUMPI SWAP1 JUMP JUMPDEST PUSH1 0x2 PUSH1 0x1 SLOAD EQ PUSH2 0xD0F JUMPI PUSH1 0x2 PUSH1 0x1 SSTORE JUMP JUMPDEST PUSH1 0x40 MLOAD PUSH3 0x461BCD PUSH1 0xE5 SHL DUP2 MSTORE PUSH1 0x20 PUSH1 0x4 DUP3 ADD MSTORE PUSH1 0x1F PUSH1 0x24 DUP3 ADD MSTORE PUSH32 0x5265656E7472616E637947756172643A207265656E7472616E742063616C6C00 PUSH1 0x44 DUP3 ADD MSTORE PUSH1 0x64 SWAP1 REVERT JUMPDEST ISZERO PUSH2 0xD5B JUMPI JUMP JUMPDEST PUSH1 0x40 MLOAD PUSH3 0x461BCD PUSH1 0xE5 SHL DUP2 MSTORE PUSH1 0x20 PUSH1 0x4 DUP3 ADD MSTORE PUSH1 0x2A PUSH1 0x24 DUP3 ADD MSTORE PUSH1 0x0 DUP1 MLOAD PUSH1 0x20 PUSH2 0x10D4 DUP4 CODECOPY DUP2 MLOAD SWAP2 MSTORE PUSH1 0x44 DUP3 ADD MSTORE PUSH10 0x1B8818D85B98D95B1959 PUSH1 0xB2 SHL PUSH1 0x64 DUP3 ADD MSTORE PUSH1 0x84 SWAP1 REVERT JUMPDEST ISZERO PUSH2 0xDA8 JUMPI JUMP JUMPDEST PUSH1 0x40 MLOAD PUSH3 0x461BCD PUSH1 0xE5 SHL DUP2 MSTORE PUSH1 0x20 PUSH1 0x4 DUP3 ADD MSTORE PUSH1 0x33 PUSH1 0x24 DUP3 ADD MSTORE PUSH32 0x6465706F73697457697468647261773A204D657373616765206D757374206265 PUSH1 0x44 DUP3 ADD MSTORE PUSH19 0x1039B4B3B732B210313C902B32B934B334B2B9 PUSH1 0x69 SHL PUSH1 0x64 DUP3 ADD MSTORE PUSH1 0x84 SWAP1 REVERT JUMPDEST SWAP2 SWAP1 DUP3 SUB SWAP2 DUP3 GT PUSH2 0xE16 JUMPI JUMP JUMPDEST PUSH4 0x4E487B71 PUSH1 0xE0 SHL PUSH1 0x0 MSTORE PUSH1 0x11 PUSH1 0x4 MSTORE PUSH1 0x24 PUSH1 0x0 REVERT JUMPDEST PUSH1 0x1 PUSH1 0x1 PUSH1 0xA0 SHL SUB SWAP1 SWAP2 AND DUP2 MSTORE PUSH1 0x20 DUP2 ADD SWAP2 SWAP1 SWAP2 MSTORE PUSH1 0x40 ADD SWAP1 JUMP JUMPDEST SWAP1 PUSH1 0x20 SWAP2 PUSH2 0xE60 DUP2 MLOAD DUP1 SWAP3 DUP2 DUP6 MSTORE DUP6 DUP1 DUP7 ADD SWAP2 ADD PUSH2 0xC14 JUMP JUMPDEST PUSH1 0x1F ADD PUSH1 0x1F NOT AND ADD ADD SWAP1 JUMP JUMPDEST PUSH1 0x5 DUP2 LT ISZERO PUSH2 0xF6B JUMPI DUP1 PUSH2 0xE7D JUMPI POP JUMP JUMPDEST PUSH1 0x1 DUP2 SUB PUSH2 0xEC5 JUMPI PUSH1 0x40 MLOAD PUSH3 0x461BCD PUSH1 0xE5 SHL DUP2 MSTORE PUSH1 0x20 PUSH1 0x4 DUP3 ADD MSTORE PUSH1 0x18 PUSH1 0x24 DUP3 ADD MSTORE PUSH24 0x45434453413A20696E76616C6964207369676E6174757265 PUSH1 0x40 SHL PUSH1 0x44 DUP3 ADD MSTORE PUSH1 0x64 SWAP1 REVERT JUMPDEST PUSH1 0x2 DUP2 SUB PUSH2 0xF12 JUMPI PUSH1 0x40 MLOAD PUSH3 0x461BCD PUSH1 0xE5 SHL DUP2 MSTORE PUSH1 0x20 PUSH1 0x4 DUP3 ADD MSTORE PUSH1 0x1F PUSH1 0x24 DUP3 ADD MSTORE PUSH32 0x45434453413A20696E76616C6964207369676E6174757265206C656E67746800 PUSH1 0x44 DUP3 ADD MSTORE PUSH1 0x64 SWAP1 REVERT JUMPDEST PUSH1 0x3 EQ PUSH2 0xF1B JUMPI JUMP JUMPDEST PUSH1 0x40 MLOAD PUSH3 0x461BCD PUSH1 0xE5 SHL DUP2 MSTORE PUSH1 0x20 PUSH1 0x4 DUP3 ADD MSTORE PUSH1 0x22 PUSH1 0x24 DUP3 ADD MSTORE PUSH32 0x45434453413A20696E76616C6964207369676E6174757265202773272076616C PUSH1 0x44 DUP3 ADD MSTORE PUSH2 0x7565 PUSH1 0xF0 SHL PUSH1 0x64 DUP3 ADD MSTORE PUSH1 0x84 SWAP1 REVERT JUMPDEST PUSH4 0x4E487B71 PUSH1 0xE0 SHL PUSH1 0x0 MSTORE PUSH1 0x21 PUSH1 0x4 MSTORE PUSH1 0x24 PUSH1 0x0 REVERT JUMPDEST SWAP1 PUSH1 0x41 DUP2 MLOAD EQ PUSH1 0x0 EQ PUSH2 0xFAF JUMPI PUSH2 0xFAB SWAP2 PUSH1 0x20 DUP3 ADD MLOAD SWAP1 PUSH1 0x60 PUSH1 0x40 DUP5 ADD MLOAD SWAP4 ADD MLOAD PUSH1 0x0 BYTE SWAP1 PUSH2 0xFB9 JUMP JUMPDEST SWAP1 SWAP2 JUMP JUMPDEST POP POP PUSH1 0x0 SWAP1 PUSH1 0x2 SWAP1 JUMP JUMPDEST SWAP3 SWAP2 SWAP1 PUSH16 0xA2A8918CA85BAFE22016D0B997E4DF60 PUSH1 0x1 PUSH1 0xFF SHL SUB DUP4 GT PUSH2 0x1032 JUMPI SWAP2 PUSH1 0x80 SWAP5 SWAP4 SWAP2 PUSH1 0xFF PUSH1 0x20 SWAP5 PUSH1 0x40 MLOAD SWAP5 DUP6 MSTORE AND DUP5 DUP5 ADD MSTORE PUSH1 0x40 DUP4 ADD MSTORE PUSH1 0x60 DUP3 ADD MSTORE PUSH1 0x0 SWAP4 DUP5 SWAP2 DUP3 DUP1 MSTORE PUSH1 0x1 GAS STATICCALL ISZERO PUSH2 0x1025 JUMPI DUP2 MLOAD PUSH1 0x1 PUSH1 0x1 PUSH1 0xA0 SHL SUB DUP2 AND ISZERO PUSH2 0x101F JUMPI SWAP2 SWAP1 JUMP JUMPDEST POP PUSH1 0x1 SWAP1 JUMP JUMPDEST POP PUSH1 0x40 MLOAD SWAP1 RETURNDATASIZE SWAP1 DUP3 RETURNDATACOPY RETURNDATASIZE SWAP1 REVERT JUMPDEST POP POP POP POP PUSH1 0x0 SWAP1 PUSH1 0x3 SWAP1 JUMP JUMPDEST PUSH1 0x40 MLOAD PUSH28 0xCA2BA3432B932BAB69029B4B3B732B21026B2B9B9B0B3B29D051999 PUSH1 0x21 SHL PUSH1 0x20 DUP3 ADD SWAP1 DUP2 MSTORE PUSH1 0x3C DUP1 DUP4 ADD SWAP4 SWAP1 SWAP4 MSTORE SWAP2 DUP2 MSTORE PUSH1 0x60 DUP2 ADD PUSH1 0x1 PUSH1 0x1 PUSH1 0x40 SHL SUB DUP2 GT DUP3 DUP3 LT OR PUSH2 0xBA8 JUMPI PUSH1 0x40 MSTORE MLOAD SWAP1 KECCAK256 SWAP1 JUMP INVALID 0xD6 0x4C 0x21 SWAP8 0xD 0x49 0x2E DUP13 PUSH23 0x2AA7701B4F7192BFD2ECCB0ADFD5B7EBF2208A13F66300 DUP12 0xE0 SMOD SWAP13 MSTORE8 AND MSIZE EQ SGT DIFFICULTY 0xCD 0x1F 0xD0 LOG4 CALLCODE DUP5 NOT 0x49 PUSH32 0x9722A3DAAFE3B4186F6B6457E06465706F73697457697468647261773A204F72 PUSH5 0x6572496420 PUSH9 0x616420626565DCBC1C SDIV 0x24 0xF BALANCE SELFDESTRUCT GASPRICE 0xD0 PUSH8 0xEF1EE35CE4997762 PUSH22 0x2E3A095284754544F4C709D7A2646970667358221220 ADD 0x49 0x2D 0x26 DUP3 LOG0 SWAP11 SWAP2 DUP1 0xB4 0x23 DIFFICULTY MUL 0xBF 0xC6 0x29 0xF7 MSTORE 0x4A 0xC0 PUSH25 0x5C98A0B6931E4A421EC84764736F6C63430008110033000000 "},"methodIdentifiers":{"cancel(string,address,bytes)":"c8fc3766","cancelOrderIds(string)":"a2c7d844","deposit(address,uint256)":"47e7ef24","depositFee()":"67a52793","executeOrderIds(string)":"616f0c2d","owner()":"8da5cb5b","receiver()":"f7260d3e","renounceOwnership()":"715018a6","setDepositFee(uint256)":"490ae210","setReceiver(address)":"718da7ee","setToken(address)":"144fa6d7","setVerifier(address)":"5437988d","setWithdrawFee(uint256)":"b6ac642a","tokenList(address)":"64e9f35f","transferOwnership(address)":"f2fde38b","verifier()":"2b7ac3f3","withdraw(string,address,uint256,bytes)":"1f15035a","withdrawFee()":"e941fa78"}}}}}