{"contracts/LaunchpadDeployer.sol":{"LaunchpadDeployer":{"abi":[{"anonymous":false,"inputs":[{"indexed":true,"internalType":"address","name":"previousOwner","type":"address"},{"indexed":true,"internalType":"address","name":"newOwner","type":"address"}],"name":"OwnershipTransferred","type":"event"},{"anonymous":false,"inputs":[{"indexed":false,"internalType":"address","name":"launchpad","type":"address"},{"indexed":false,"internalType":"address","name":"deployer","type":"address"},{"indexed":false,"internalType":"address","name":"tokenSale","type":"address"},{"indexed":false,"internalType":"enum IEnums.LAUNCHPAD_TYPE","name":"launchPadType","type":"uint8"},{"indexed":false,"internalType":"uint256","name":"startTime","type":"uint256"},{"indexed":false,"internalType":"uint256","name":"endTime","type":"uint256"}],"name":"launchpadDeployed","type":"event"},{"anonymous":false,"inputs":[{"indexed":false,"internalType":"address","name":"launchpad","type":"address"},{"indexed":false,"internalType":"uint256","name":"softcap","type":"uint256"},{"indexed":false,"internalType":"uint256","name":"hardcap","type":"uint256"},{"indexed":false,"internalType":"uint256","name":"rate","type":"uint256"}],"name":"launchpadDeployedParameter","type":"event"},{"anonymous":false,"inputs":[{"indexed":false,"internalType":"address","name":"launchpad","type":"address"},{"indexed":false,"internalType":"uint256","name":"newRaisedAmount","type":"uint256"}],"name":"launchpadRaisedChanged","type":"event"},{"anonymous":false,"inputs":[{"indexed":false,"internalType":"address","name":"launchpad","type":"address"},{"indexed":false,"internalType":"uint256","name":"state","type":"uint256"}],"name":"launchpadStateChanged","type":"event"},{"inputs":[{"internalType":"address","name":"_user","type":"address"},{"internalType":"address","name":"_token","type":"address"},{"internalType":"enum IEnums.LAUNCHPAD_TYPE","name":"_launchpadType","type":"uint8"}],"name":"addToUserLaunchpad","outputs":[],"stateMutability":"nonpayable","type":"function"},{"inputs":[{"internalType":"address","name":"_token","type":"address"},{"internalType":"uint256","name":"_newState","type":"uint256"}],"name":"changeLaunchpadState","outputs":[],"stateMutability":"nonpayable","type":"function"},{"inputs":[{"internalType":"uint256[2]","name":"_caps","type":"uint256[2]"},{"internalType":"uint256[3]","name":"_times","type":"uint256[3]"},{"internalType":"uint256[2]","name":"_rates","type":"uint256[2]"},{"internalType":"uint256[2]","name":"_limits","type":"uint256[2]"},{"internalType":"uint256[2]","name":"_adminFees","type":"uint256[2]"},{"internalType":"address[2]","name":"_tokens","type":"address[2]"},{"internalType":"string","name":"_URIData","type":"string"},{"internalType":"bool","name":"_refundWhenFinish","type":"bool"},{"internalType":"enum IEnums.LAUNCHPAD_TYPE","name":"_launchpadType","type":"uint8"}],"name":"createLaunchpad","outputs":[],"stateMutability":"payable","type":"function"},{"inputs":[],"name":"deployCost","outputs":[{"internalType":"uint256","name":"","type":"uint256"}],"stateMutability":"view","type":"function"},{"inputs":[],"name":"getAllLaunchpads","outputs":[{"internalType":"address[]","name":"","type":"address[]"},{"internalType":"address[]","name":"","type":"address[]"}],"stateMutability":"view","type":"function"},{"inputs":[{"internalType":"uint256","name":"startIndex","type":"uint256"},{"internalType":"uint256","name":"endIndex","type":"uint256"},{"internalType":"enum IEnums.LAUNCHPAD_TYPE","name":"_launchpadType","type":"uint8"}],"name":"getDeployedLaunchpads","outputs":[{"internalType":"address[]","name":"","type":"address[]"}],"stateMutability":"view","type":"function"},{"inputs":[{"internalType":"address","name":"_user","type":"address"},{"internalType":"enum IEnums.LAUNCHPAD_TYPE","name":"_launchpadType","type":"uint8"}],"name":"getUserContributions","outputs":[{"internalType":"uint256[]","name":"ids","type":"uint256[]"},{"internalType":"uint256[]","name":"contributions","type":"uint256[]"}],"stateMutability":"view","type":"function"},{"inputs":[{"internalType":"enum IEnums.LAUNCHPAD_TYPE","name":"","type":"uint8"},{"internalType":"uint256","name":"","type":"uint256"}],"name":"launchpadById","outputs":[{"internalType":"address","name":"","type":"address"}],"stateMutability":"view","type":"function"},{"inputs":[{"internalType":"address","name":"","type":"address"}],"name":"launchpadByToken","outputs":[{"internalType":"address","name":"","type":"address"}],"stateMutability":"view","type":"function"},{"inputs":[{"internalType":"enum IEnums.LAUNCHPAD_TYPE","name":"","type":"uint8"}],"name":"launchpadCount","outputs":[{"internalType":"uint256","name":"","type":"uint256"}],"stateMutability":"view","type":"function"},{"inputs":[{"internalType":"enum IEnums.LAUNCHPAD_TYPE","name":"","type":"uint8"},{"internalType":"address","name":"","type":"address"}],"name":"launchpadIdByAddress","outputs":[{"internalType":"uint256","name":"","type":"uint256"}],"stateMutability":"view","type":"function"},{"inputs":[{"internalType":"address","name":"_token","type":"address"},{"internalType":"uint256","name":"_currentRaisedAmount","type":"uint256"}],"name":"launchpadRaisedAmountChangedReport","outputs":[],"stateMutability":"nonpayable","type":"function"},{"inputs":[],"name":"owner","outputs":[{"internalType":"address","name":"","type":"address"}],"stateMutability":"view","type":"function"},{"inputs":[],"name":"renounceOwnership","outputs":[],"stateMutability":"nonpayable","type":"function"},{"inputs":[{"internalType":"uint256","name":"_price","type":"uint256"}],"name":"setDeployPrice","outputs":[],"stateMutability":"nonpayable","type":"function"},{"inputs":[{"internalType":"address","name":"newOwner","type":"address"}],"name":"transferOwnership","outputs":[],"stateMutability":"nonpayable","type":"function"},{"inputs":[{"internalType":"enum IEnums.LAUNCHPAD_TYPE","name":"","type":"uint8"},{"internalType":"address","name":"","type":"address"},{"internalType":"uint256","name":"","type":"uint256"}],"name":"userLaunchpadCreated","outputs":[{"internalType":"address","name":"","type":"address"}],"stateMutability":"view","type":"function"},{"inputs":[{"internalType":"enum IEnums.LAUNCHPAD_TYPE","name":"","type":"uint8"},{"internalType":"address","name":"","type":"address"},{"internalType":"uint256","name":"","type":"uint256"}],"name":"userLaunchpadInvested","outputs":[{"internalType":"address","name":"","type":"address"}],"stateMutability":"view","type":"function"}],"evm":{"bytecode":{"linkReferences":{},"object":"608080604052346100665760008054336001600160a01b0319821681178355916001600160a01b03909116907f8be0079c531659141344cd1fd0a4f28419497f9722a3daafe3b4186f6b6457e09080a3662386f26fc100006001556144e9908161006c8239f35b600080fdfe608060405260043610156200001357600080fd5b6000803560e01c8062682bcc14620013d7578063070e6e7e146200125057806307fcebce14620011795780636adfc3ba146200088e578063715018a614620008415780637240e0e514620007ea5780637788a7ee14620007ca578063783997c2146200077b5780637c0bb6b7146200062d57806386cb9e0c14620006065780638da5cb5b14620005dd5780638e7780dc14620005a2578063913b7e1d14620004d7578063a8f5ab0114620003b0578063c1282e111462000271578063e1fa682514620001f0578063f007735c14620001b05763f2fde38b14620000f557600080fd5b34620001ad576020366003190112620001ad576200011262001442565b6200011c62001627565b6001600160a01b0390811690811562000159576000548260018060a01b03198216176000551660008051602062004494833981519152600080a380f35b60405162461bcd60e51b815260206004820152602660248201527f4f776e61626c653a206e6577206f776e657220697320746865207a65726f206160448201526564647265737360d01b6064820152608490fd5b80fd5b5034620001ad576020366003190112620001ad576020906001600160a01b039060409082620001de62001442565b16815260028452205416604051908152f35b5034620001ad57620002023662001475565b92909160028110156200025b576000526006602052604060002060018060a01b038093166000526020526040600020908154841015620001ad57506020926200024b916200152d565b9190546040519260031b1c168152f35b634e487b7160e01b600052602160045260246000fd5b5034620001ad576060366003190112620001ad5760043560243590604435926002841015620001ad5782620002a685620014c5565b5411156200037a575b818303918383116200036457600183018093116200035057620002d38293620016de565b9481935b85851115620002fc5760405160208082528190620002f89082018a620015e8565b0390f35b6200034262000349916200031084620014df565b6200031c8887620016b8565b875260205260408620546001600160a01b03166200033b828b62001726565b5262001716565b9462001716565b93620002d7565b634e487b7160e01b82526011600452602482fd5b634e487b7160e01b600052601160045260246000fd5b91506200038783620014c5565b5460001981019081116200039c5791620002af565b634e487b7160e01b83526011600452602483fd5b5034620001ad576060366003190112620001ad57620003ce62001442565b620003d86200145e565b906044356002811015620004d3576001600160a01b039283168452600260209081526040852054909390811633036200049157620004168262001513565b921691826000528352604060002033600052835260ff60406000205416156200043d578380f35b806200044d6200046992620014ab565b836000528452620004633360406000206200173b565b62001513565b90600052815260406000209033600052526040600020600160ff198254161790553880808380f35b60405162461bcd60e51b815260048101859052601a60248201527913db9b1e481b185d5b98da1c18591cc818d85b88191bc818591960321b6044820152606490fd5b8380fd5b5034620001ad576040366003190112620001ad576001600160a01b0380620004fe62001442565b16808352600260205281604084205416330362000560577f0656e59848b3556e8a75b1dafd624f3048d64208d9a41f88255d5065ad0f2845916200055a918452600260205260408420541660405191829160243590836200177e565b0390a180f35b60405162461bcd60e51b815260206004820152601a60248201527913db9b1e481b185d5b98da1c18591cc818d85b881c995c1bdc9d60321b6044820152606490fd5b5034620001ad576020366003190112620001ad57600435906002821015620001ad575060005260036020526020604060002054604051908152f35b5034620001ad5780600319360112620001ad57546040516001600160a01b039091168152602090f35b5034620001ad576020366003190112620001ad576200062462001627565b60043560015580f35b5034620001ad5780600319360112620001ad57600360209081527f3617319a054d772f909f7c479a2cebe5066e836a939412e32403c99029b92eff54600160008190527fa15bc60c955c405d20d9149c709e2460f1c2d9a497496a7f46004d1772c3054c549293929190620006a282620016de565b93620006ae84620016de565b93808411156200077357835b825b858110620006f257620006e488620002f88b8a604051948594604086526040860190620015e8565b9184830390850152620015e8565b80826200070e921062000740575b838110620007145762001716565b620006bc565b600086815260048b526040908190208287528b528520546001600160a01b03166200033b828a62001726565b600080805260048b526040908190208287528b528520546001600160a01b03166200076c828b62001726565b5262000700565b8093620006ba565b5034620001ad576040366003190112620001ad576004356002811015620007c65790620007aa602092620014df565b60243582528252604060018060a01b0391205416604051908152f35b5080fd5b5034620001ad5780600319360112620001ad576020600154604051908152f35b5034620001ad576040366003190112620001ad57600435906002821015620001ad5750620008226200081b6200145e565b91620014f9565b9060018060a01b03166000526020526020604060002054604051908152f35b5034620001ad5780600319360112620001ad576200085e62001627565b600080546001600160a01b0319811682556001600160a01b0316600080516020620044948339815191528280a380f35b50610200366003190112620001ad573660231215620001ad57604051620008b58162001592565b8036604411620010ca576004905b60448210620011685750503660631215620007c65760405190606082016001600160401b03811183821017620011545760405260a490823683116200112e576044905b838210620011435750503660c31215620004d35760405190620009298262001592565b8160e49336851162000ec357905b848210620011325750503661010312156200112e57604051916200095b8362001592565b8261012494368611620010e257905b8582106200111d57505036610143121562000e8957604051926200098e8462001592565b8361016495368711620010c657905b8682106200110c57505036610183121562000ec35760405194620009c18662001592565b856101a49136831162000f4157905b828210620010e6575050356001600160401b038111620010e25736602382011215620010e2576004810135906001600160401b038211620010ce5788906040519262000a276020601f19601f8401160185620015c4565b8084523660248284010111620010ca578060246020930183860137830101526101c435908115158203620010c65760026101e4351015620010c65760018060a01b03875116600154341062001086578952600260205260408920546001600160a01b0316620010455760016101e4351462000fd5575b8854604051936001600160a01b039091169290612ce685018086116001600160401b039091111762000fc15790849291612ce6620017ae853962000ae6612ce685018962001680565b8a8c612ce686016040015b6003821062000fa65750505062000b249062000b1560a0612ce68701018962001680565b60e0612ce68601019062001680565b62000b38610120612ce68501018962001680565b888b612ce68501610160015b6002821062000f825750505061022091826101a0612ce68601015280518093612ce6860101528b5b83811062000f64575050610240938b8584612ce687010101526101c0612ce68501015215156101e0612ce68401015262000bb2610200612ce68401016101e435620016aa565b601f8019910116612ce682010103019087f092831562000f595781516020840151865192516001600160a01b0396871696909316929162000bf4919062001799565b60405163313ce56760e01b8152602081600481875afa90811562000f4e578a9162000f07575b50604d60ff82161162000ef357602092670de0b6b3a764000062000c4a8c969460ff60649516600a0a9062001799565b04908062000ed0575b5060405194859384926323b872dd60e01b84523360048501528a602485015260448401525af1801562000e7e5762000e8d575b5062000c956101e435620014c5565b5484516001600160a01b0316875260026020526040872080546001600160a01b0319908116861790915562000ccd6101e435620014df565b82895260205284604089209182541617905562000ced6101e435620014f9565b848852602052604087205562000d066101e435620014c5565b62000d12815462001716565b90556101e435865260076020526040862033875260205262000d3883604088206200173b565b823b1562000e895760405163f2fde38b60e01b8152336004820152868160248183885af1801562000e7e5762000e4d575b508580808060018060a01b038154168190341562000e42575b3491f11562000e37577f589a716cd5278b5c277fd8770eac218d80d0ec36c646f8bbf15b63087e80cec660c07fe31c3c24729eccfac2ce4c9524b19e43d913c84c44f83fa601cbaf7893ce06c29660809660018060a01b0390511690602081519101519060405192888452336020850152604084015262000e0a606084016101e435620016aa565b8883015260a0820152a160208251920151905191604051938452602084015260408301526060820152a180f35b6040513d87823e3d90fd5b6108fc915062000d82565b9095906001600160401b03811162000e6a57604052943862000d69565b634e487b7160e01b82526041600452602482fd5b6040513d89823e3d90fd5b8580fd5b6020813d60201162000ec7575b8162000ea960209383620015c4565b8101031262000ec357518015150362000e89573862000c86565b8680fd5b3d915062000e9a565b9061271062000ee462000eec938362001799565b0490620016b8565b3862000c53565b634e487b7160e01b8a52601160045260248afd5b90506020813d60201162000f45575b8162000f2560209383620015c4565b8101031262000f41575160ff8116810362000f41573862000c1a565b8980fd5b3d915062000f16565b6040513d8c823e3d90fd5b6040513d88823e3d90fd5b6020828201810151610240612ce68a01840101528795500162000b6c565b82516001600160a01b03168152879550602092830192600192909201910162000b44565b82518152889650602092830192600192909201910162000af1565b634e487b7160e01b8b52604160045260248bfd5b845115806200103b575b806200102e575b62000a9d5760405162461bcd60e51b815260206004820152601b60248201527a125b9d985b1a590818dc99585d19481b185d5b98da081a5b9c1d5d602a1b6044820152606490fd5b5060208301511562000fe6565b5082511562000fdf565b60405162461bcd60e51b815260206004820152601960248201527813185d5b98da1c185908185b1c9958591e4818dc99585d1959603a1b6044820152606490fd5b60405162461bcd60e51b81526020600482015260186024820152774e6f7420656e6f75676820424e4220746f206465706c6f7960401b6044820152606490fd5b8880fd5b8280fd5b634e487b7160e01b89526041600452602489fd5b8780fd5b81356001600160a01b03811681036200110857815260209182019101620009d0565b8a80fd5b81358152602091820191016200099d565b81358152602091820191016200096a565b8480fd5b813581526020918201910162000937565b813581526020918201910162000906565b634e487b7160e01b84526041600452602484fd5b8135815260209182019101620008c3565b5034620001ad576040366003190112620001ad576001600160a01b0380620011a062001442565b1680835260026020528160408420541633036200120e5782526002602052604080832080546001600160a01b031981811690925591517f88b4950cd633eb83502dc130d021af06d80a2e22f3f0fc48ec3efdea1fc5751793909283926200055a92602435921616836200177e565b60405162461bcd60e51b815260206004820152601a6024820152794f6e6c79206c61756e6368706164732063616e2072656d6f766560301b6044820152606490fd5b5034620001ad576040366003190112620001ad576200126e62001442565b6024908135916002831015806200112e576200128a84620014ab565b6001600160a01b039384168087526020918252604087205491969193620012b185620016de565b96620012bd86620016de565b96845b878110620012f657620012e88a620002f88d8c6040519485946040865260408601906200155c565b91848303908501526200155c565b6200130183620014ab565b8587528b528682620013178360408a206200152d565b90549060031b1c1690620013c457908b85928589526005825260408920818a5282528c6200134b8460408c20549262001726565b5260405193848092634a4643f760e01b82528a60048301525afa801562000e7e5787906200138c575b6200138692506200033b828c62001726565b620012c0565b50908b81813d8311620013bc575b620013a68183620015c4565b8101031262000ec3579062001386915162001374565b503d6200139a565b634e487b7160e01b875260216004528487fd5b5034620001ad57620013e93662001475565b92909160028110156200142e57815260076020526040812060018060a01b03809316825260205260408120908154841015620001ad57506020926200024b916200152d565b634e487b7160e01b82526021600452602482fd5b600435906001600160a01b03821682036200145957565b600080fd5b602435906001600160a01b03821682036200145957565b6060906003190112620014595760043560028110156200145957906024356001600160a01b038116810362001459579060443590565b60028110156200025b576000526006602052604060002090565b60028110156200025b576000526003602052604060002090565b60028110156200025b576000526004602052604060002090565b60028110156200025b576000526005602052604060002090565b60028110156200025b576000526008602052604060002090565b8054821015620015465760005260206000200190600090565b634e487b7160e01b600052603260045260246000fd5b90815180825260208080930193019160005b8281106200157d575050505090565b8351855293810193928101926001016200156e565b604081019081106001600160401b03821117620015ae57604052565b634e487b7160e01b600052604160045260246000fd5b601f909101601f19168101906001600160401b03821190821017620015ae57604052565b90815180825260208080930193019160005b82811062001609575050505090565b83516001600160a01b031685529381019392810192600101620015fa565b6000546001600160a01b031633036200163c57565b606460405162461bcd60e51b815260206004820152602060248201527f4f776e61626c653a2063616c6c6572206973206e6f7420746865206f776e65726044820152fd5b6000915b600283106200169257505050565b60019082518152602080910192019201919062001684565b9060028210156200025b5752565b919082018092116200036457565b6001600160401b038111620015ae5760051b60200190565b90620016ea82620016c6565b620016f96040519182620015c4565b82815280926200170c601f1991620016c6565b0190602036910137565b6000198114620003645760010190565b8051821015620015465760209160051b010190565b8054600160401b811015620015ae576200175b916001820181556200152d565b819291549060031b9160018060a01b039283811b93849216901b16911916179055565b6001600160a01b039091168152602081019190915260400190565b81810292918115918404141715620003645756fe6080604052346200045f5762002ce6803803806200001d81620004c8565b928339810190610220818303126200045f576200003b8282620004ee565b9082605f820112156200045f5760405191606083016001600160401b03811184821017620004495760405260a08201838582116200045f57859060408501905b838210620004945750506200009091620004ee565b6200009f8560e08501620004ee565b91620000b0866101208601620004ee565b908661017f860112156200045f57620000c8620004a8565b916101a08601838982116200045f576101608801905b82821062000479575050516001600160401b0381116200045f57860188601f820112156200045f578051906001600160401b03821162000449576200012d601f8301601f1916602001620004c8565b99828b52602083830101116200045f5760005b8281106200046457505060206000918a010152620001626101c0870162000534565b916101e08701519687151588036200045f5761020001519760028910156200045f5760206040926000543360018060a01b0382167f8be0079c531659141344cd1fd0a4f28419497f9722a3daafe3b4186f6b6457e0600080a36001600160a81b0319163360ff60a01b191617600055600180556012805461ff0019166101001790558051600255015160035580516004556020810151600655015160075587516001600160401b0381116200044957600c54600181811c911680156200043e575b60208210146200042857601f8111620003be575b50602098601f82116001146200032b57908060209798999a8894936000926200031f575b50508160011b916000199060031b1c191617600c555b805160115501516010558151600d80546001600160a01b03199081166001600160a01b039384161790915592850151600e80548516918316919091179055600f805490931691161790558051600955015160089081556020820151600a559051600b556012805461ff00191692151590911b61ff0016919091179055601880546001600160a81b03191660a09290921b60ff60a01b16919091173317905560405161279c90816200054a8239f35b0151905038806200025b565b600c600090815290997fdf6966c971051c3d54ec59162606531493a51404a002842f56009d7e5cf4a8c791601f198416905b818110620003a557509183916020999a9b9c8a9695600195106200038b575b505050811b01600c5562000271565b015160001960f88460031b161c191690553880806200037c565b91926020600181928f870151815501940192016200035d565b600c6000527fdf6966c971051c3d54ec59162606531493a51404a002842f56009d7e5cf4a8c7601f830160051c810191602084106200041d575b601f0160051c01905b81811062000410575062000237565b6000815560010162000401565b9091508190620003f8565b634e487b7160e01b600052602260045260246000fd5b90607f169062000223565b634e487b7160e01b600052604160045260246000fd5b600080fd5b60208183018101518c83018201520162000140565b60208091620004888462000534565b815201910190620000de565b81518152879250602091820191016200007b565b60408051919082016001600160401b038111838210176200044957604052565b6040519190601f01601f191682016001600160401b038111838210176200044957604052565b9080601f830112156200045f5762000505620004a8565b8092604081019283116200045f57905b828210620005235750505090565b815181526020918201910162000515565b51906001600160a01b03821682036200045f5756fe608060405260048036101561001357600080fd5b600090813560e01c908163040b6583146120405781630521b4da146120225781630b9f2c4a14611fef5781630f6b172414611fcc578163200d2ed214611fae57816326bfb58914611f8857816329763ed014611f6a5781632a0fccd514611dd55781632afcf480146117f457816330f50fd21461176a5781633197cbb61461174c5781633998fbb01461172e57816339b012b8146117105781633a66c278146116f257816342706c391461161e57816342f39381146116005781634a4643f7146115c45781635072b0841461140757816358371ccd146113e95781635c975abb146113c457816362f47ba714611383578163715018a61461133b57816376320b241461131d578163782dae0a146112ff57816378e97925146112e15781637b7a7ca7146112be5781637cc1f867146110335781637d7cd77214610fa55781637d88209714610f875781638da5cb5b14610f605781638f86f5ea1461090f578163906a26e0146108f15781639cccac37146108b5578163a1ac390714610825578163a20ecbbb14610807578163a4f3a7c7146107de578163b5545a3c14610670578163b59bd59114610525578163b9420310146104fc578163c5c4744c146104de578163e7e104901461030a578163f2fde38b1461024e57508063f851a440146102255763fb86a4041461020557600080fd5b346102225780600319360112610222576020600354604051908152f35b80fd5b5034610222578060031936011261022257600f546040516001600160a01b039091168152602090f35b905034610306576020366003190112610306576001600160a01b03813581811692908390036103025761027f6121cd565b82156102af57506000548260018060a01b031982161760005516600080516020612747833981519152600080a380f35b60849060206040519162461bcd60e51b8352820152602660248201527f4f776e61626c653a206e6577206f776e657220697320746865207a65726f206160448201526564647265737360d01b6064820152fd5b8380fd5b5080fd5b90503461030657816003193601126103065781546001600160a01b03908116331480156104d1575b61033b90612343565b6103436122e0565b61034b612633565b600260175582816018541682600d5416813b156104c25782916044839260405194859384926303fe75e760e11b84528a840152600260248401525af180156104c6576104ae575b5050600d54166040516370a0823160e01b815230838201526020928382602481865afa9081156104a3578492869261046b575b50926103e8938660405180968195829463a9059cbb60e01b8452339084016122ac565b03925af1801561046057610432575b827f7d789068b0deed1c53f4572064780ab55e54305e6df362874c45ad39c4c3766e604051806104283342836122c7565b0390a16001805580f35b8161045192903d10610459575b61044981836120bb565b810190612248565b5038806103f7565b503d61043f565b6040513d85823e3d90fd5b8381949293503d831161049c575b61048381836120bb565b8101031261049757905183916103e86103c5565b600080fd5b503d610479565b6040513d87823e3d90fd5b6104b790612077565b6104c2578238610392565b8280fd5b6040513d84823e3d90fd5b50600f5481163314610332565b82346102225780600319360112610222576020601454604051908152f35b8234610222578060031936011261022257600d546040516001600160a01b039091168152602090f35b823461022257806003193601126102225760165490610543826123c9565b9061055160405192836120bb565b82825261055d836123c9565b601f1991906020848101918401368337610576866123c9565b9561058460405197886120bb565b808752610590816123c9565b8783019501368637835b81811061061f57505060405195869560408701906040885251809152606087019390855b8181106105ff57505050858303868301525180835291810193925b8281106105e857505050500390f35b8351855286955093810193928101926001016105d9565b82516001600160a01b0316865289985094840194918401916001016105be565b80610664918695979899949652601b865260018060a01b0360408620541680610648838c6123e0565b52855260198652604085205461065e82866123e0565b52612260565b9695949293919661059a565b90503461030657816003193601126103065761068a6122e0565b6017546002146107d95761069c612633565b3382526020601981526040832054918215610789573384526019825260408420849055600e546001600160a01b031690816107105750505081808080843382f11561070357610428600080516020612727833981519152915b6040519182913390836122c7565b50604051903d90823e3d90fd5b83610735949284928760405180988195829463a9059cbb60e01b8452339084016122ac565b03925af191821561077e576000805160206127278339815191529361042893610760575b50506106f5565b8161077692903d106104595761044981836120bb565b503880610759565b6040513d86823e3d90fd5b6084916040519162461bcd60e51b8352820152602560248201527f4c61756e63687061643a205573657220646f65736e27742068617665206465706044820152646f7369747360d81b6064820152fd5b61069c565b8234610222578060031936011261022257600e546040516001600160a01b039091168152602090f35b82346102225780600319360112610222576020600854604051908152f35b82346102225761083436612180565b61083c6121cd565b825b818110610849578380f35b61088a906001600160a01b038061086961086484878961238f565b6123b5565b168652601c9060209082825260ff60408920541661088f575b505050612260565b61083e565b61089d61086485888a61238f565b1687525260408520805460ff19169055858080610882565b90503461030657602036600319011261030657356001600160a01b03811690819003610306578160409160209352601a83522054604051908152f35b82346102225780600319360112610222576020600254604051908152f35b90503461030657816003193601126103065781546001600160a01b0390811633148015610f53575b61094090612343565b6109486122e0565b6109506124db565b60ff60185460a01c166002811015610f40578391908015908180610f35575b610eac575b60011480610ea1575b610dae575b60016017558283916011549081610d82575b505080610d29575b5060105480610d11575b50600e54821680610beb57504790838080808487600f5416828215610be2575bf1156104605783806109db8194938294612336565b818115610bd9575b3390f115610703575b600d546040516370a0823160e01b815230818601526020949183168582602481845afa9081156104a35786928692610ba4575b5085929190811515908180610b95575b610b37575b5080610b27575b610acf575b505050816018541691600d5416823b1561030257604484928360405195869485936303fe75e760e11b8552840152600160248401525af180156104c657610abb575b507f99e95c9a161a7c99d3dc664b3058a5482967afe83ae408003ebd3223d68c2964604083601354825191428352820152a16001805580f35b610ac490612077565b610306578138610a82565b604485600d541691604051948593849263a9059cbb60e01b845261dead8985015260248401525af1801561077e57610b0a575b848491610a40565b610b2090853d87116104595761044981836120bb565b5038610b02565b5060ff60125460081c1615610a3b565b935091604051809463a9059cbb60e01b8252818981610b5987338c84016122ac565b03925af1918215610b8a578693889315610a3457610b8390843d86116104595761044981836120bb565b5038610a34565b6040513d88823e3d90fd5b5060ff60125460081c16610a2f565b955091905084813d8311610bd2575b610bbd81836120bb565b81010312610497579251859385919085610a1f565b503d610bb3565b506108fc6109e3565b506108fc6109c6565b6040516370a0823160e01b81523086820152602092918382602481845afa908115610b8a5787928792610cdb575b50908484610c44949388600f54168a60405180988195829463a9059cbb60e01b9a8b855284016122ac565b03925af18015610cd057610c7f948694610c6992610cb3575b5087600e541692612336565b91876040518096819582948352338d84016122ac565b03925af1801561077e57610c95575b50506109ec565b81610cab92903d106104595761044981836120bb565b503880610c8e565b610cc990863d88116104595761044981836120bb565b5038610c5d565b6040513d89823e3d90fd5b96509150508285813d8311610d0a575b610cf581836120bb565b81010312610497579351869486919084610c19565b503d610ceb565b6127109150610d229060135461226f565b04386109a6565b6020610d559184600d541685600f54168760405180968195829463a9059cbb60e01b84528d84016122ac565b03925af1801561077e571561099c57610d7b9060203d81116104595761044981836120bb565b503861099c565b6127109250610d99919015610da15760145461226f565b043880610994565b610da96123f4565b61226f565b9091506024602083600d5416604051928380926370a0823160e01b825230898301525afa9081156104a3578591610e70575b50612710610df8610def6123f4565b6011549061226f565b0410610e0657908391610982565b60848360206040519162461bcd60e51b8352820152604060248201527f4c61756e63687061642846616972293a20416c6c20746f6b656e2073616c652060448201527f6e65656420726169736564206265666f726520656e642073616c652074696d656064820152fd5b90506020813d8211610e99575b81610e8a602093836120bb565b81010312610497575138610de0565b3d9150610e7d565b50600754421061097d565b90919250601554610ec05790849291610974565b60405162461bcd60e51b8152602081860152604260248201527f4c61756e6368706164284e6f726d616c293a20416c6c20746f6b656e2073616c60448201527f65206e65656420726169736564206265666f726520656e642073616c652074696064820152616d6560f01b608482015260a490fd5b50600754421061096f565b634e487b7160e01b845260218352602484fd5b50600f5481163314610937565b8234610222578060031936011261022257546040516001600160a01b039091168152602090f35b82346102225780600319360112610222576020601354604051908152f35b823461022257610fb436612180565b610fbc6121cd565b825b818110610fc9578380f35b611005906001600160a01b0380610fe461086484878961238f565b168652601c9060209082825260ff6040892054161561100a57505050612260565b610fbe565b61101861086485888a61238f565b1687525260408520805460ff19166001179055858080610882565b90503461030657816003193601126103065760408051611052816120a0565b3690376040516001600160401b03929060608101848111828210176112a95760405260609036903760408051611087816120a0565b36903760408051611097816120a0565b369037604051906110a7826120a0565b600254825260035460208301526040519360608501908111858210176112a95760405282548452600654602085015260075460408501526040516110ea816120a0565b6009548152600854602082015260405191611104836120a0565b600b548352600a54602084015260018060a01b039283600d541693600e54169160125492601354916017549360ff60185460a01c169660405192600084600c549161114e836120de565b808352926001811690811561128a575060011461123c575b929e92611175925003856120bb565b611182604051809c612158565b9b60408b015b60038210611225575050916111b86111ca926111ae60ff999897969560a08e0190612158565b60e08c0190612158565b610220806101208c01528a0190612118565b9661014089015261016088015283831615156101808801526101a08701526101c086015260081c1615156101e08401526002811015611210578293506102008301520390f35b602184634e487b7160e01b6000525260246000fd5b6020808f92600193518152019e019101909c611188565b50600c600090815290916000805160206127078339815191525b81831061126e57505090602061117592820101611166565b6020919350806001915483858b01015201910190918692611256565b6020925061117594915060ff191682840152151560051b820101611166565b604184634e487b7160e01b6000525260246000fd5b8234610222578060031936011261022257602060ff601254166040519015158152f35b90503461030657816003193601126103065760209054604051908152f35b82346102225780600319360112610222576020600b54604051908152f35b82346102225780600319360112610222576020600a54604051908152f35b82346102225780600319360112610222576113546121cd565b600080546001600160a01b0319811682556001600160a01b03166000805160206127478339815191528280a380f35b90503461030657602036600319011261030657356001600160a01b038116908190036103065760408260ff9260209452601c84522054166040519015158152f35b823461022257806003193601126102225760ff6020915460a01c166040519015158152f35b82346102225780600319360112610222576020600754604051908152f35b82346102225780600319360112610222576114206122e0565b6114286124db565b60ff60185460a01c1660028110156115b15761156057338152601a602052604081208054908290556015548180821161154f575050816015555b80156114fc57602081611499939460018060a01b03600d5416908660405180978195829463a9059cbb60e01b8452339084016122ac565b03925af1908115610460577f3beb98421d990a16ca9090d8d7c25aaeeff9d855a287ac0854e6bee846ba990d92610428926114de575b506040519182913390836122c7565b6114f59060203d81116104595761044981836120bb565b50846114cf565b60405162461bcd60e51b8152602081850152602660248201527f4c61756e63687061643a20557365722068617665206e6f20746f6b656e20746f60448201526520636c61696d60d01b6064820152608490fd5b61155891612336565b601555611462565b338152601960205261157e60408220546115786123f4565b9061226f565b60135490811561159c57043382526019602052816040812055611462565b601284634e487b7160e01b6000525260246000fd5b506021602492634e487b7160e01b835252fd5b90503461030657602036600319011261030657356001600160a01b03811690819003610306578160409160209352601983522054604051908152f35b82346102225780600319360112610222576020600954604051908152f35b8234610222578060031936011261022257604051600090600c54611641816120de565b8083526001918083169081156116ca5750600114611682575b61167e8361166a818703826120bb565b604051918291602083526020830190612118565b0390f35b600c600090815260209450916000805160206127078339815191525b8284106116b75750505081019091019061166a8161165a565b805485850187015292850192810161169e565b61167e955061166a93506020915091849260ff191682840152151560051b820101935061165a565b82346102225780600319360112610222576020601554604051908152f35b82346102225780600319360112610222576020601054604051908152f35b82346102225780600319360112610222576020600554604051908152f35b82346102225780600319360112610222576020600654604051908152f35b905034610306576020366003190112610306576117856121cd565b600554611793573560055580f35b60849060206040519162461bcd60e51b8352820152603460248201527f4c61756e63687061643a20456e64206f662077686974656c6973742074696d6560448201527320686164206265656e20736574206265666f726560601b6064820152fd5b90506020806003193601126104c25781359161180e6122e0565b60ff6012541680611dbf575b611d60575b601754611d20578054421115611cde57426006541115611c925760ff60185460a01c166002811015611c7f5715611c1d575b600e546001600160a01b03929085908290851680611bc957505050348403611b7c575b33855260198152604085205415611b4c575b338552601981526040852061189c858254612225565b905560ff60185460a01c166002811015611b3957156119b6575b506118c383601354612225565b60135583826018541683600d541690803b156104c25760648392604051948593849263a8f5ab0160e01b8452338985015260248401528160448401525af180156104a3576119a1575b50908391816018541691600d54169160145490803b1561199d57611948938580946040519687958694859363913b7e1d60e01b855284016122ac565b03925af180156104c657611989575b506040517f04da1776b54ebfe9617caf57a31e9a4b2f316bfd0ee0614d6c61597ae94ba25190806104283386836122c7565b61199290612077565b610306578138611957565b8480fd5b6119ae9094919294612077565b92903861190c565b338552601981526040852054600b5411611ae657338552601981526040852054600a5410611a93576119ea6009548561226f565b828285600d54166040519283809263313ce56760e01b82525afa8015610cd057601a92611578611a2b92670de0b6b3a7640000948b91611a66575b5061229b565b0491611a3983601454612225565b601455611a4883601554612225565b60155533875252611a5e60408620918254612225565b9055386118b6565b611a869150873d8911611a8c575b611a7e81836120bb565b810190612282565b38611a25565b503d611a74565b60405162461bcd60e51b815291820152602760248201527f4c61756e63687061643a204d617820636f6e747269627574696f6e206e6f74206044820152661c995858da195960ca1b606482015260849150fd5b60405162461bcd60e51b815291820152602760248201527f4c61756e63687061643a204d696e20636f6e747269627574696f6e206e6f74206044820152661c995858da195960ca1b606482015260849150fd5b634e487b7160e01b865260218352602486fd5b601680548652601b82526040862080546001600160a01b0319163317905554611b7490612260565b601655611886565b60405162461bcd60e51b815291820152602160248201527f4c61756e63687061643a20496e76616c6964207061796d656e7420616d6f756e6044820152601d60fa1b606482015260849150fd5b6064604051809481936323b872dd60e01b835233898401523060248401528a60448401525af18015610b8a57611c00575b50611874565b611c1690823d84116104595761044981836120bb565b5038611bfa565b611c2960135484612225565b6003541015611851576084916040519162461bcd60e51b8352820152602260248201527f4c61756e6368706164284e6f726d616c293a2048617264636170207265616368604482015261195960f21b6064820152fd5b634e487b7160e01b855260218252602485fd5b6084916040519162461bcd60e51b8352820152602160248201527f4c61756e63687061643a2053616c6520697320616c726561647920636c6f73656044820152601960fa1b6064820152fd5b6064916040519162461bcd60e51b8352820152601f60248201527f4c61756e63687061643a2053616c65206973206e6f74206f70656e20796574006044820152fd5b6064916040519162461bcd60e51b8352820152601b60248201527a2630bab731b43830b21d1029b0b6329034b9903737ba1037b832b760291b6044820152fd5b6005548015159081611db4575b5061181f576064916040519162461bcd60e51b8352820152601e60248201527f4c61756e63687061643a20557365722063616e206e6f7420696e7665737400006044820152fd5b905042101538611d6d565b50338452601c825260ff6040852054161561181a565b823461022257602080600319360112610306576001600160401b03908335908282116103025736602383011215610302578185013594838611611f535760405195601f1993611e2b601f830186168501896120bb565b8188523660248383010111611f66578187926024869301838b013788010152611e526121cd565b8551938411611f535750611e67600c546120de565b601f8111611f0f575b508091601f8411600114611ead5750508293829392611ea2575b50508160011b916000199060031b1c191617600c5580f35b015190508380611e8a565b839291921694600c85528285209285905b878210611ef7575050836001959610611ede575b505050811b01600c5580f35b015160001960f88460031b161c19169055838080611ed2565b80600185968294968601518155019501930190611ebe565b600c8552818520601f850160051c810191838610611f49575b601f0160051c01905b818110611f3e5750611e70565b858155600101611f31565b9091508190611f28565b634e487b7160e01b855260419052602484fd5b8680fd5b82346102225780600319360112610222576020601154604051908152f35b8234610222578060031936011261022257602060ff60125460081c166040519015158152f35b82346102225780600319360112610222576020601754604051908152f35b82346102225780600319360112610222576020611fe76123f4565b604051908152f35b9050346103065760203660031901126103065790602091358152601b8252604060018060a01b0391205416604051908152f35b82346102225780600319360112610222576020601654604051908152f35b9050346103065760203660031901126103065735801515809103610306576120666121cd565b60ff80196012541691161760125580f35b6001600160401b03811161208a57604052565b634e487b7160e01b600052604160045260246000fd5b604081019081106001600160401b0382111761208a57604052565b601f909101601f19168101906001600160401b0382119082101761208a57604052565b90600182811c9216801561210e575b60208310146120f857565b634e487b7160e01b600052602260045260246000fd5b91607f16916120ed565b919082519283825260005b848110612144575050826000602080949584010152601f8019910116010190565b602081830181015184830182015201612123565b6000915b6002831061216957505050565b60019082518152602080910192019201919061215c565b906020600319830112610497576001600160401b03916004359083821161049757806023830112156104975781600401359384116104975760248460051b83010111610497576024019190565b6000546001600160a01b031633036121e157565b606460405162461bcd60e51b815260206004820152602060248201527f4f776e61626c653a2063616c6c6572206973206e6f7420746865206f776e65726044820152fd5b9190820180921161223257565b634e487b7160e01b600052601160045260246000fd5b90816020910312610497575180151581036104975790565b60001981146122325760010190565b8181029291811591840414171561223257565b90816020910312610497575160ff811681036104975790565b60ff16604d811161223257600a0a90565b6001600160a01b039091168152602081019190915260400190565b9081526001600160a01b03909116602082015260400190565b6002600154146122f1576002600155565b60405162461bcd60e51b815260206004820152601f60248201527f5265656e7472616e637947756172643a207265656e7472616e742063616c6c006044820152606490fd5b9190820391821161223257565b1561234a57565b60405162461bcd60e51b815260206004820152601d60248201527f4c61756e63687061643a2043616c6c6572206e6f7420616c6c6f7765640000006044820152606490fd5b919081101561239f5760051b0190565b634e487b7160e01b600052603260045260246000fd5b356001600160a01b03811681036104975790565b6001600160401b03811161208a5760051b60200190565b805182101561239f5760209160051b010190565b60046124056003546009549061226f565b600d5460405163313ce56760e01b81529260209184919082906001600160a01b03165afa90811561246a5761157861244e92670de0b6b3a764000094600091612452575061229b565b0490565b611a86915060203d8111611a8c57611a7e81836120bb565b6040513d6000823e3d90fd5b1561247d57565b60405162461bcd60e51b815260206004820152603060248201527f4c61756e63687061643a2053616c6520697320616c72656164792066696e697360448201526f1a1959081bdc8818d85b98d95b1b195960821b6064820152608490fd5b6006544211156125d0576124f160175415612476565b60ff60185460a01c1660028110156125ba57612569576013546002541161251457565b60405162461bcd60e51b815260206004820152602760248201527f4c61756e6368706164284e6f726d616c293a20536f667420636170206e6f74206044820152661c995858da195960ca1b6064820152608490fd5b6013546003541161257657565b606460405162461bcd60e51b815260206004820152602060248201527f4c61756e63687061642846616972293a20436170206e6f7420726561636865646044820152fd5b634e487b7160e01b600052602160045260246000fd5b60405162461bcd60e51b815260206004820152603560248201527f4c61756e63687061643a2046696e697368696e67206c61756e636870616420646044820152746f6573206e6f7420617661696c61626c65206e6f7760581b6064820152608490fd5b61263f60175415612476565b60ff60185460a01c1660028110156125ba576126b457601354600254111561266357565b60405162461bcd60e51b815260206004820152602360248201527f4c61756e6368706164284e6f726d616c293a20536f66742063617020726561636044820152621a195960ea1b6064820152608490fd5b60135460035411156126c257565b60405162461bcd60e51b815260206004820152601c60248201527b13185d5b98da1c18590a11985a5c8a4e8810d85c081c995858da195960221b6044820152606490fdfedf6966c971051c3d54ec59162606531493a51404a002842f56009d7e5cf4a8c7edb8f34a75dc967013bac8c91f25135d59bc85673d66fc55a7dbd7ed3f8a1f698be0079c531659141344cd1fd0a4f28419497f9722a3daafe3b4186f6b6457e0a264697066735822122031a962b978090d5ed6fdc72cd13d096cfd800796fe416d9a55f0d173e70b67e864736f6c634300081100338be0079c531659141344cd1fd0a4f28419497f9722a3daafe3b4186f6b6457e0a26469706673582212203c86c38a1018e6e4051e853fe3ef842ddbb28d45d9465cef589c9242d6b3827c64736f6c63430008110033","opcodes":"PUSH1 0x80 DUP1 PUSH1 0x40 MSTORE CALLVALUE PUSH2 0x66 JUMPI PUSH1 0x0 DUP1 SLOAD CALLER PUSH1 0x1 PUSH1 0x1 PUSH1 0xA0 SHL SUB NOT DUP3 AND DUP2 OR DUP4 SSTORE SWAP2 PUSH1 0x1 PUSH1 0x1 PUSH1 0xA0 SHL SUB SWAP1 SWAP2 AND SWAP1 PUSH32 0x8BE0079C531659141344CD1FD0A4F28419497F9722A3DAAFE3B4186F6B6457E0 SWAP1 DUP1 LOG3 PUSH7 0x2386F26FC10000 PUSH1 0x1 SSTORE PUSH2 0x44E9 SWAP1 DUP2 PUSH2 0x6C DUP3 CODECOPY RETURN JUMPDEST PUSH1 0x0 DUP1 REVERT INVALID PUSH1 0x80 PUSH1 0x40 MSTORE PUSH1 0x4 CALLDATASIZE LT ISZERO PUSH3 0x13 JUMPI PUSH1 0x0 DUP1 REVERT JUMPDEST PUSH1 0x0 DUP1 CALLDATALOAD PUSH1 0xE0 SHR DUP1 PUSH3 0x682BCC EQ PUSH3 0x13D7 JUMPI DUP1 PUSH4 0x70E6E7E EQ PUSH3 0x1250 JUMPI DUP1 PUSH4 0x7FCEBCE EQ PUSH3 0x1179 JUMPI DUP1 PUSH4 0x6ADFC3BA EQ PUSH3 0x88E JUMPI DUP1 PUSH4 0x715018A6 EQ PUSH3 0x841 JUMPI DUP1 PUSH4 0x7240E0E5 EQ PUSH3 0x7EA JUMPI DUP1 PUSH4 0x7788A7EE EQ PUSH3 0x7CA JUMPI DUP1 PUSH4 0x783997C2 EQ PUSH3 0x77B JUMPI DUP1 PUSH4 0x7C0BB6B7 EQ PUSH3 0x62D JUMPI DUP1 PUSH4 0x86CB9E0C EQ PUSH3 0x606 JUMPI DUP1 PUSH4 0x8DA5CB5B EQ PUSH3 0x5DD JUMPI DUP1 PUSH4 0x8E7780DC EQ PUSH3 0x5A2 JUMPI DUP1 PUSH4 0x913B7E1D EQ PUSH3 0x4D7 JUMPI DUP1 PUSH4 0xA8F5AB01 EQ PUSH3 0x3B0 JUMPI DUP1 PUSH4 0xC1282E11 EQ PUSH3 0x271 JUMPI DUP1 PUSH4 0xE1FA6825 EQ PUSH3 0x1F0 JUMPI DUP1 PUSH4 0xF007735C EQ PUSH3 0x1B0 JUMPI PUSH4 0xF2FDE38B EQ PUSH3 0xF5 JUMPI PUSH1 0x0 DUP1 REVERT JUMPDEST CALLVALUE PUSH3 0x1AD JUMPI PUSH1 0x20 CALLDATASIZE PUSH1 0x3 NOT ADD SLT PUSH3 0x1AD JUMPI PUSH3 0x112 PUSH3 0x1442 JUMP JUMPDEST PUSH3 0x11C PUSH3 0x1627 JUMP JUMPDEST PUSH1 0x1 PUSH1 0x1 PUSH1 0xA0 SHL SUB SWAP1 DUP2 AND SWAP1 DUP2 ISZERO PUSH3 0x159 JUMPI PUSH1 0x0 SLOAD DUP3 PUSH1 0x1 DUP1 PUSH1 0xA0 SHL SUB NOT DUP3 AND OR PUSH1 0x0 SSTORE AND PUSH1 0x0 DUP1 MLOAD PUSH1 0x20 PUSH3 0x4494 DUP4 CODECOPY DUP2 MLOAD SWAP2 MSTORE PUSH1 0x0 DUP1 LOG3 DUP1 RETURN JUMPDEST PUSH1 0x40 MLOAD PUSH3 0x461BCD PUSH1 0xE5 SHL DUP2 MSTORE PUSH1 0x20 PUSH1 0x4 DUP3 ADD MSTORE PUSH1 0x26 PUSH1 0x24 DUP3 ADD MSTORE PUSH32 0x4F776E61626C653A206E6577206F776E657220697320746865207A65726F2061 PUSH1 0x44 DUP3 ADD MSTORE PUSH6 0x646472657373 PUSH1 0xD0 SHL PUSH1 0x64 DUP3 ADD MSTORE PUSH1 0x84 SWAP1 REVERT JUMPDEST DUP1 REVERT JUMPDEST POP CALLVALUE PUSH3 0x1AD JUMPI PUSH1 0x20 CALLDATASIZE PUSH1 0x3 NOT ADD SLT PUSH3 0x1AD JUMPI PUSH1 0x20 SWAP1 PUSH1 0x1 PUSH1 0x1 PUSH1 0xA0 SHL SUB SWAP1 PUSH1 0x40 SWAP1 DUP3 PUSH3 0x1DE PUSH3 0x1442 JUMP JUMPDEST AND DUP2 MSTORE PUSH1 0x2 DUP5 MSTORE KECCAK256 SLOAD AND PUSH1 0x40 MLOAD SWAP1 DUP2 MSTORE RETURN JUMPDEST POP CALLVALUE PUSH3 0x1AD JUMPI PUSH3 0x202 CALLDATASIZE PUSH3 0x1475 JUMP JUMPDEST SWAP3 SWAP1 SWAP2 PUSH1 0x2 DUP2 LT ISZERO PUSH3 0x25B JUMPI PUSH1 0x0 MSTORE PUSH1 0x6 PUSH1 0x20 MSTORE PUSH1 0x40 PUSH1 0x0 KECCAK256 PUSH1 0x1 DUP1 PUSH1 0xA0 SHL SUB DUP1 SWAP4 AND PUSH1 0x0 MSTORE PUSH1 0x20 MSTORE PUSH1 0x40 PUSH1 0x0 KECCAK256 SWAP1 DUP2 SLOAD DUP5 LT ISZERO PUSH3 0x1AD JUMPI POP PUSH1 0x20 SWAP3 PUSH3 0x24B SWAP2 PUSH3 0x152D JUMP JUMPDEST SWAP2 SWAP1 SLOAD PUSH1 0x40 MLOAD SWAP3 PUSH1 0x3 SHL SHR AND DUP2 MSTORE RETURN JUMPDEST PUSH4 0x4E487B71 PUSH1 0xE0 SHL PUSH1 0x0 MSTORE PUSH1 0x21 PUSH1 0x4 MSTORE PUSH1 0x24 PUSH1 0x0 REVERT JUMPDEST POP CALLVALUE PUSH3 0x1AD JUMPI PUSH1 0x60 CALLDATASIZE PUSH1 0x3 NOT ADD SLT PUSH3 0x1AD JUMPI PUSH1 0x4 CALLDATALOAD PUSH1 0x24 CALLDATALOAD SWAP1 PUSH1 0x44 CALLDATALOAD SWAP3 PUSH1 0x2 DUP5 LT ISZERO PUSH3 0x1AD JUMPI DUP3 PUSH3 0x2A6 DUP6 PUSH3 0x14C5 JUMP JUMPDEST SLOAD GT ISZERO PUSH3 0x37A JUMPI JUMPDEST DUP2 DUP4 SUB SWAP2 DUP4 DUP4 GT PUSH3 0x364 JUMPI PUSH1 0x1 DUP4 ADD DUP1 SWAP4 GT PUSH3 0x350 JUMPI PUSH3 0x2D3 DUP3 SWAP4 PUSH3 0x16DE JUMP JUMPDEST SWAP5 DUP2 SWAP4 JUMPDEST DUP6 DUP6 GT ISZERO PUSH3 0x2FC JUMPI PUSH1 0x40 MLOAD PUSH1 0x20 DUP1 DUP3 MSTORE DUP2 SWAP1 PUSH3 0x2F8 SWAP1 DUP3 ADD DUP11 PUSH3 0x15E8 JUMP JUMPDEST SUB SWAP1 RETURN JUMPDEST PUSH3 0x342 PUSH3 0x349 SWAP2 PUSH3 0x310 DUP5 PUSH3 0x14DF JUMP JUMPDEST PUSH3 0x31C DUP9 DUP8 PUSH3 0x16B8 JUMP JUMPDEST DUP8 MSTORE PUSH1 0x20 MSTORE PUSH1 0x40 DUP7 KECCAK256 SLOAD PUSH1 0x1 PUSH1 0x1 PUSH1 0xA0 SHL SUB AND PUSH3 0x33B DUP3 DUP12 PUSH3 0x1726 JUMP JUMPDEST MSTORE PUSH3 0x1716 JUMP JUMPDEST SWAP5 PUSH3 0x1716 JUMP JUMPDEST SWAP4 PUSH3 0x2D7 JUMP JUMPDEST PUSH4 0x4E487B71 PUSH1 0xE0 SHL DUP3 MSTORE PUSH1 0x11 PUSH1 0x4 MSTORE PUSH1 0x24 DUP3 REVERT JUMPDEST PUSH4 0x4E487B71 PUSH1 0xE0 SHL PUSH1 0x0 MSTORE PUSH1 0x11 PUSH1 0x4 MSTORE PUSH1 0x24 PUSH1 0x0 REVERT JUMPDEST SWAP2 POP PUSH3 0x387 DUP4 PUSH3 0x14C5 JUMP JUMPDEST SLOAD PUSH1 0x0 NOT DUP2 ADD SWAP1 DUP2 GT PUSH3 0x39C JUMPI SWAP2 PUSH3 0x2AF JUMP JUMPDEST PUSH4 0x4E487B71 PUSH1 0xE0 SHL DUP4 MSTORE PUSH1 0x11 PUSH1 0x4 MSTORE PUSH1 0x24 DUP4 REVERT JUMPDEST POP CALLVALUE PUSH3 0x1AD JUMPI PUSH1 0x60 CALLDATASIZE PUSH1 0x3 NOT ADD SLT PUSH3 0x1AD JUMPI PUSH3 0x3CE PUSH3 0x1442 JUMP JUMPDEST PUSH3 0x3D8 PUSH3 0x145E JUMP JUMPDEST SWAP1 PUSH1 0x44 CALLDATALOAD PUSH1 0x2 DUP2 LT ISZERO PUSH3 0x4D3 JUMPI PUSH1 0x1 PUSH1 0x1 PUSH1 0xA0 SHL SUB SWAP3 DUP4 AND DUP5 MSTORE PUSH1 0x2 PUSH1 0x20 SWAP1 DUP2 MSTORE PUSH1 0x40 DUP6 KECCAK256 SLOAD SWAP1 SWAP4 SWAP1 DUP2 AND CALLER SUB PUSH3 0x491 JUMPI PUSH3 0x416 DUP3 PUSH3 0x1513 JUMP JUMPDEST SWAP3 AND SWAP2 DUP3 PUSH1 0x0 MSTORE DUP4 MSTORE PUSH1 0x40 PUSH1 0x0 KECCAK256 CALLER PUSH1 0x0 MSTORE DUP4 MSTORE PUSH1 0xFF PUSH1 0x40 PUSH1 0x0 KECCAK256 SLOAD AND ISZERO PUSH3 0x43D JUMPI DUP4 DUP1 RETURN JUMPDEST DUP1 PUSH3 0x44D PUSH3 0x469 SWAP3 PUSH3 0x14AB JUMP JUMPDEST DUP4 PUSH1 0x0 MSTORE DUP5 MSTORE PUSH3 0x463 CALLER PUSH1 0x40 PUSH1 0x0 KECCAK256 PUSH3 0x173B JUMP JUMPDEST PUSH3 0x1513 JUMP JUMPDEST SWAP1 PUSH1 0x0 MSTORE DUP2 MSTORE PUSH1 0x40 PUSH1 0x0 KECCAK256 SWAP1 CALLER PUSH1 0x0 MSTORE MSTORE PUSH1 0x40 PUSH1 0x0 KECCAK256 PUSH1 0x1 PUSH1 0xFF NOT DUP3 SLOAD AND OR SWAP1 SSTORE CODESIZE DUP1 DUP1 DUP4 DUP1 RETURN JUMPDEST PUSH1 0x40 MLOAD PUSH3 0x461BCD PUSH1 0xE5 SHL DUP2 MSTORE PUSH1 0x4 DUP2 ADD DUP6 SWAP1 MSTORE PUSH1 0x1A PUSH1 0x24 DUP3 ADD MSTORE PUSH26 0x13DB9B1E481B185D5B98DA1C18591CC818D85B88191BC8185919 PUSH1 0x32 SHL PUSH1 0x44 DUP3 ADD MSTORE PUSH1 0x64 SWAP1 REVERT JUMPDEST DUP4 DUP1 REVERT JUMPDEST POP CALLVALUE PUSH3 0x1AD JUMPI PUSH1 0x40 CALLDATASIZE PUSH1 0x3 NOT ADD SLT PUSH3 0x1AD JUMPI PUSH1 0x1 PUSH1 0x1 PUSH1 0xA0 SHL SUB DUP1 PUSH3 0x4FE PUSH3 0x1442 JUMP JUMPDEST AND DUP1 DUP4 MSTORE PUSH1 0x2 PUSH1 0x20 MSTORE DUP2 PUSH1 0x40 DUP5 KECCAK256 SLOAD AND CALLER SUB PUSH3 0x560 JUMPI PUSH32 0x656E59848B3556E8A75B1DAFD624F3048D64208D9A41F88255D5065AD0F2845 SWAP2 PUSH3 0x55A SWAP2 DUP5 MSTORE PUSH1 0x2 PUSH1 0x20 MSTORE PUSH1 0x40 DUP5 KECCAK256 SLOAD AND PUSH1 0x40 MLOAD SWAP2 DUP3 SWAP2 PUSH1 0x24 CALLDATALOAD SWAP1 DUP4 PUSH3 0x177E JUMP JUMPDEST SUB SWAP1 LOG1 DUP1 RETURN JUMPDEST PUSH1 0x40 MLOAD PUSH3 0x461BCD PUSH1 0xE5 SHL DUP2 MSTORE PUSH1 0x20 PUSH1 0x4 DUP3 ADD MSTORE PUSH1 0x1A PUSH1 0x24 DUP3 ADD MSTORE PUSH26 0x13DB9B1E481B185D5B98DA1C18591CC818D85B881C995C1BDC9D PUSH1 0x32 SHL PUSH1 0x44 DUP3 ADD MSTORE PUSH1 0x64 SWAP1 REVERT JUMPDEST POP CALLVALUE PUSH3 0x1AD JUMPI PUSH1 0x20 CALLDATASIZE PUSH1 0x3 NOT ADD SLT PUSH3 0x1AD JUMPI PUSH1 0x4 CALLDATALOAD SWAP1 PUSH1 0x2 DUP3 LT ISZERO PUSH3 0x1AD JUMPI POP PUSH1 0x0 MSTORE PUSH1 0x3 PUSH1 0x20 MSTORE PUSH1 0x20 PUSH1 0x40 PUSH1 0x0 KECCAK256 SLOAD PUSH1 0x40 MLOAD SWAP1 DUP2 MSTORE RETURN JUMPDEST POP CALLVALUE PUSH3 0x1AD JUMPI DUP1 PUSH1 0x3 NOT CALLDATASIZE ADD SLT PUSH3 0x1AD JUMPI SLOAD PUSH1 0x40 MLOAD PUSH1 0x1 PUSH1 0x1 PUSH1 0xA0 SHL SUB SWAP1 SWAP2 AND DUP2 MSTORE PUSH1 0x20 SWAP1 RETURN JUMPDEST POP CALLVALUE PUSH3 0x1AD JUMPI PUSH1 0x20 CALLDATASIZE PUSH1 0x3 NOT ADD SLT PUSH3 0x1AD JUMPI PUSH3 0x624 PUSH3 0x1627 JUMP JUMPDEST PUSH1 0x4 CALLDATALOAD PUSH1 0x1 SSTORE DUP1 RETURN JUMPDEST POP CALLVALUE PUSH3 0x1AD JUMPI DUP1 PUSH1 0x3 NOT CALLDATASIZE ADD SLT PUSH3 0x1AD JUMPI PUSH1 0x3 PUSH1 0x20 SWAP1 DUP2 MSTORE PUSH32 0x3617319A054D772F909F7C479A2CEBE5066E836A939412E32403C99029B92EFF SLOAD PUSH1 0x1 PUSH1 0x0 DUP2 SWAP1 MSTORE PUSH32 0xA15BC60C955C405D20D9149C709E2460F1C2D9A497496A7F46004D1772C3054C SLOAD SWAP3 SWAP4 SWAP3 SWAP2 SWAP1 PUSH3 0x6A2 DUP3 PUSH3 0x16DE JUMP JUMPDEST SWAP4 PUSH3 0x6AE DUP5 PUSH3 0x16DE JUMP JUMPDEST SWAP4 DUP1 DUP5 GT ISZERO PUSH3 0x773 JUMPI DUP4 JUMPDEST DUP3 JUMPDEST DUP6 DUP2 LT PUSH3 0x6F2 JUMPI PUSH3 0x6E4 DUP9 PUSH3 0x2F8 DUP12 DUP11 PUSH1 0x40 MLOAD SWAP5 DUP6 SWAP5 PUSH1 0x40 DUP7 MSTORE PUSH1 0x40 DUP7 ADD SWAP1 PUSH3 0x15E8 JUMP JUMPDEST SWAP2 DUP5 DUP4 SUB SWAP1 DUP6 ADD MSTORE PUSH3 0x15E8 JUMP JUMPDEST DUP1 DUP3 PUSH3 0x70E SWAP3 LT PUSH3 0x740 JUMPI JUMPDEST DUP4 DUP2 LT PUSH3 0x714 JUMPI PUSH3 0x1716 JUMP JUMPDEST PUSH3 0x6BC JUMP JUMPDEST PUSH1 0x0 DUP7 DUP2 MSTORE PUSH1 0x4 DUP12 MSTORE PUSH1 0x40 SWAP1 DUP2 SWAP1 KECCAK256 DUP3 DUP8 MSTORE DUP12 MSTORE DUP6 KECCAK256 SLOAD PUSH1 0x1 PUSH1 0x1 PUSH1 0xA0 SHL SUB AND PUSH3 0x33B DUP3 DUP11 PUSH3 0x1726 JUMP JUMPDEST PUSH1 0x0 DUP1 DUP1 MSTORE PUSH1 0x4 DUP12 MSTORE PUSH1 0x40 SWAP1 DUP2 SWAP1 KECCAK256 DUP3 DUP8 MSTORE DUP12 MSTORE DUP6 KECCAK256 SLOAD PUSH1 0x1 PUSH1 0x1 PUSH1 0xA0 SHL SUB AND PUSH3 0x76C DUP3 DUP12 PUSH3 0x1726 JUMP JUMPDEST MSTORE PUSH3 0x700 JUMP JUMPDEST DUP1 SWAP4 PUSH3 0x6BA JUMP JUMPDEST POP CALLVALUE PUSH3 0x1AD JUMPI PUSH1 0x40 CALLDATASIZE PUSH1 0x3 NOT ADD SLT PUSH3 0x1AD JUMPI PUSH1 0x4 CALLDATALOAD PUSH1 0x2 DUP2 LT ISZERO PUSH3 0x7C6 JUMPI SWAP1 PUSH3 0x7AA PUSH1 0x20 SWAP3 PUSH3 0x14DF JUMP JUMPDEST PUSH1 0x24 CALLDATALOAD DUP3 MSTORE DUP3 MSTORE PUSH1 0x40 PUSH1 0x1 DUP1 PUSH1 0xA0 SHL SUB SWAP2 KECCAK256 SLOAD AND PUSH1 0x40 MLOAD SWAP1 DUP2 MSTORE RETURN JUMPDEST POP DUP1 REVERT JUMPDEST POP CALLVALUE PUSH3 0x1AD JUMPI DUP1 PUSH1 0x3 NOT CALLDATASIZE ADD SLT PUSH3 0x1AD JUMPI PUSH1 0x20 PUSH1 0x1 SLOAD PUSH1 0x40 MLOAD SWAP1 DUP2 MSTORE RETURN JUMPDEST POP CALLVALUE PUSH3 0x1AD JUMPI PUSH1 0x40 CALLDATASIZE PUSH1 0x3 NOT ADD SLT PUSH3 0x1AD JUMPI PUSH1 0x4 CALLDATALOAD SWAP1 PUSH1 0x2 DUP3 LT ISZERO PUSH3 0x1AD JUMPI POP PUSH3 0x822 PUSH3 0x81B PUSH3 0x145E JUMP JUMPDEST SWAP2 PUSH3 0x14F9 JUMP JUMPDEST SWAP1 PUSH1 0x1 DUP1 PUSH1 0xA0 SHL SUB AND PUSH1 0x0 MSTORE PUSH1 0x20 MSTORE PUSH1 0x20 PUSH1 0x40 PUSH1 0x0 KECCAK256 SLOAD PUSH1 0x40 MLOAD SWAP1 DUP2 MSTORE RETURN JUMPDEST POP CALLVALUE PUSH3 0x1AD JUMPI DUP1 PUSH1 0x3 NOT CALLDATASIZE ADD SLT PUSH3 0x1AD JUMPI PUSH3 0x85E PUSH3 0x1627 JUMP JUMPDEST PUSH1 0x0 DUP1 SLOAD PUSH1 0x1 PUSH1 0x1 PUSH1 0xA0 SHL SUB NOT DUP2 AND DUP3 SSTORE PUSH1 0x1 PUSH1 0x1 PUSH1 0xA0 SHL SUB AND PUSH1 0x0 DUP1 MLOAD PUSH1 0x20 PUSH3 0x4494 DUP4 CODECOPY DUP2 MLOAD SWAP2 MSTORE DUP3 DUP1 LOG3 DUP1 RETURN JUMPDEST POP PUSH2 0x200 CALLDATASIZE PUSH1 0x3 NOT ADD SLT PUSH3 0x1AD JUMPI CALLDATASIZE PUSH1 0x23 SLT ISZERO PUSH3 0x1AD JUMPI PUSH1 0x40 MLOAD PUSH3 0x8B5 DUP2 PUSH3 0x1592 JUMP JUMPDEST DUP1 CALLDATASIZE PUSH1 0x44 GT PUSH3 0x10CA JUMPI PUSH1 0x4 SWAP1 JUMPDEST PUSH1 0x44 DUP3 LT PUSH3 0x1168 JUMPI POP POP CALLDATASIZE PUSH1 0x63 SLT ISZERO PUSH3 0x7C6 JUMPI PUSH1 0x40 MLOAD SWAP1 PUSH1 0x60 DUP3 ADD PUSH1 0x1 PUSH1 0x1 PUSH1 0x40 SHL SUB DUP2 GT DUP4 DUP3 LT OR PUSH3 0x1154 JUMPI PUSH1 0x40 MSTORE PUSH1 0xA4 SWAP1 DUP3 CALLDATASIZE DUP4 GT PUSH3 0x112E JUMPI PUSH1 0x44 SWAP1 JUMPDEST DUP4 DUP3 LT PUSH3 0x1143 JUMPI POP POP CALLDATASIZE PUSH1 0xC3 SLT ISZERO PUSH3 0x4D3 JUMPI PUSH1 0x40 MLOAD SWAP1 PUSH3 0x929 DUP3 PUSH3 0x1592 JUMP JUMPDEST DUP2 PUSH1 0xE4 SWAP4 CALLDATASIZE DUP6 GT PUSH3 0xEC3 JUMPI SWAP1 JUMPDEST DUP5 DUP3 LT PUSH3 0x1132 JUMPI POP POP CALLDATASIZE PUSH2 0x103 SLT ISZERO PUSH3 0x112E JUMPI PUSH1 0x40 MLOAD SWAP2 PUSH3 0x95B DUP4 PUSH3 0x1592 JUMP JUMPDEST DUP3 PUSH2 0x124 SWAP5 CALLDATASIZE DUP7 GT PUSH3 0x10E2 JUMPI SWAP1 JUMPDEST DUP6 DUP3 LT PUSH3 0x111D JUMPI POP POP CALLDATASIZE PUSH2 0x143 SLT ISZERO PUSH3 0xE89 JUMPI PUSH1 0x40 MLOAD SWAP3 PUSH3 0x98E DUP5 PUSH3 0x1592 JUMP JUMPDEST DUP4 PUSH2 0x164 SWAP6 CALLDATASIZE DUP8 GT PUSH3 0x10C6 JUMPI SWAP1 JUMPDEST DUP7 DUP3 LT PUSH3 0x110C JUMPI POP POP CALLDATASIZE PUSH2 0x183 SLT ISZERO PUSH3 0xEC3 JUMPI PUSH1 0x40 MLOAD SWAP5 PUSH3 0x9C1 DUP7 PUSH3 0x1592 JUMP JUMPDEST DUP6 PUSH2 0x1A4 SWAP2 CALLDATASIZE DUP4 GT PUSH3 0xF41 JUMPI SWAP1 JUMPDEST DUP3 DUP3 LT PUSH3 0x10E6 JUMPI POP POP CALLDATALOAD PUSH1 0x1 PUSH1 0x1 PUSH1 0x40 SHL SUB DUP2 GT PUSH3 0x10E2 JUMPI CALLDATASIZE PUSH1 0x23 DUP3 ADD SLT ISZERO PUSH3 0x10E2 JUMPI PUSH1 0x4 DUP2 ADD CALLDATALOAD SWAP1 PUSH1 0x1 PUSH1 0x1 PUSH1 0x40 SHL SUB DUP3 GT PUSH3 0x10CE JUMPI DUP9 SWAP1 PUSH1 0x40 MLOAD SWAP3 PUSH3 0xA27 PUSH1 0x20 PUSH1 0x1F NOT PUSH1 0x1F DUP5 ADD AND ADD DUP6 PUSH3 0x15C4 JUMP JUMPDEST DUP1 DUP5 MSTORE CALLDATASIZE PUSH1 0x24 DUP3 DUP5 ADD ADD GT PUSH3 0x10CA JUMPI DUP1 PUSH1 0x24 PUSH1 0x20 SWAP4 ADD DUP4 DUP7 ADD CALLDATACOPY DUP4 ADD ADD MSTORE PUSH2 0x1C4 CALLDATALOAD SWAP1 DUP2 ISZERO ISZERO DUP3 SUB PUSH3 0x10C6 JUMPI PUSH1 0x2 PUSH2 0x1E4 CALLDATALOAD LT ISZERO PUSH3 0x10C6 JUMPI PUSH1 0x1 DUP1 PUSH1 0xA0 SHL SUB DUP8 MLOAD AND PUSH1 0x1 SLOAD CALLVALUE LT PUSH3 0x1086 JUMPI DUP10 MSTORE PUSH1 0x2 PUSH1 0x20 MSTORE PUSH1 0x40 DUP10 KECCAK256 SLOAD PUSH1 0x1 PUSH1 0x1 PUSH1 0xA0 SHL SUB AND PUSH3 0x1045 JUMPI PUSH1 0x1 PUSH2 0x1E4 CALLDATALOAD EQ PUSH3 0xFD5 JUMPI JUMPDEST DUP9 SLOAD PUSH1 0x40 MLOAD SWAP4 PUSH1 0x1 PUSH1 0x1 PUSH1 0xA0 SHL SUB SWAP1 SWAP2 AND SWAP3 SWAP1 PUSH2 0x2CE6 DUP6 ADD DUP1 DUP7 GT PUSH1 0x1 PUSH1 0x1 PUSH1 0x40 SHL SUB SWAP1 SWAP2 GT OR PUSH3 0xFC1 JUMPI SWAP1 DUP5 SWAP3 SWAP2 PUSH2 0x2CE6 PUSH3 0x17AE DUP6 CODECOPY PUSH3 0xAE6 PUSH2 0x2CE6 DUP6 ADD DUP10 PUSH3 0x1680 JUMP JUMPDEST DUP11 DUP13 PUSH2 0x2CE6 DUP7 ADD PUSH1 0x40 ADD JUMPDEST PUSH1 0x3 DUP3 LT PUSH3 0xFA6 JUMPI POP POP POP PUSH3 0xB24 SWAP1 PUSH3 0xB15 PUSH1 0xA0 PUSH2 0x2CE6 DUP8 ADD ADD DUP10 PUSH3 0x1680 JUMP JUMPDEST PUSH1 0xE0 PUSH2 0x2CE6 DUP7 ADD ADD SWAP1 PUSH3 0x1680 JUMP JUMPDEST PUSH3 0xB38 PUSH2 0x120 PUSH2 0x2CE6 DUP6 ADD ADD DUP10 PUSH3 0x1680 JUMP JUMPDEST DUP9 DUP12 PUSH2 0x2CE6 DUP6 ADD PUSH2 0x160 ADD JUMPDEST PUSH1 0x2 DUP3 LT PUSH3 0xF82 JUMPI POP POP POP PUSH2 0x220 SWAP2 DUP3 PUSH2 0x1A0 PUSH2 0x2CE6 DUP7 ADD ADD MSTORE DUP1 MLOAD DUP1 SWAP4 PUSH2 0x2CE6 DUP7 ADD ADD MSTORE DUP12 JUMPDEST DUP4 DUP2 LT PUSH3 0xF64 JUMPI POP POP PUSH2 0x240 SWAP4 DUP12 DUP6 DUP5 PUSH2 0x2CE6 DUP8 ADD ADD ADD MSTORE PUSH2 0x1C0 PUSH2 0x2CE6 DUP6 ADD ADD MSTORE ISZERO ISZERO PUSH2 0x1E0 PUSH2 0x2CE6 DUP5 ADD ADD MSTORE PUSH3 0xBB2 PUSH2 0x200 PUSH2 0x2CE6 DUP5 ADD ADD PUSH2 0x1E4 CALLDATALOAD PUSH3 0x16AA JUMP JUMPDEST PUSH1 0x1F DUP1 NOT SWAP2 ADD AND PUSH2 0x2CE6 DUP3 ADD ADD SUB ADD SWAP1 DUP8 CREATE SWAP3 DUP4 ISZERO PUSH3 0xF59 JUMPI DUP2 MLOAD PUSH1 0x20 DUP5 ADD MLOAD DUP7 MLOAD SWAP3 MLOAD PUSH1 0x1 PUSH1 0x1 PUSH1 0xA0 SHL SUB SWAP7 DUP8 AND SWAP7 SWAP1 SWAP4 AND SWAP3 SWAP2 PUSH3 0xBF4 SWAP2 SWAP1 PUSH3 0x1799 JUMP JUMPDEST PUSH1 0x40 MLOAD PUSH4 0x313CE567 PUSH1 0xE0 SHL DUP2 MSTORE PUSH1 0x20 DUP2 PUSH1 0x4 DUP2 DUP8 GAS STATICCALL SWAP1 DUP2 ISZERO PUSH3 0xF4E JUMPI DUP11 SWAP2 PUSH3 0xF07 JUMPI JUMPDEST POP PUSH1 0x4D PUSH1 0xFF DUP3 AND GT PUSH3 0xEF3 JUMPI PUSH1 0x20 SWAP3 PUSH8 0xDE0B6B3A7640000 PUSH3 0xC4A DUP13 SWAP7 SWAP5 PUSH1 0xFF PUSH1 0x64 SWAP6 AND PUSH1 0xA EXP SWAP1 PUSH3 0x1799 JUMP JUMPDEST DIV SWAP1 DUP1 PUSH3 0xED0 JUMPI JUMPDEST POP PUSH1 0x40 MLOAD SWAP5 DUP6 SWAP4 DUP5 SWAP3 PUSH4 0x23B872DD PUSH1 0xE0 SHL DUP5 MSTORE CALLER PUSH1 0x4 DUP6 ADD MSTORE DUP11 PUSH1 0x24 DUP6 ADD MSTORE PUSH1 0x44 DUP5 ADD MSTORE GAS CALL DUP1 ISZERO PUSH3 0xE7E JUMPI PUSH3 0xE8D JUMPI JUMPDEST POP PUSH3 0xC95 PUSH2 0x1E4 CALLDATALOAD PUSH3 0x14C5 JUMP JUMPDEST SLOAD DUP5 MLOAD PUSH1 0x1 PUSH1 0x1 PUSH1 0xA0 SHL SUB AND DUP8 MSTORE PUSH1 0x2 PUSH1 0x20 MSTORE PUSH1 0x40 DUP8 KECCAK256 DUP1 SLOAD PUSH1 0x1 PUSH1 0x1 PUSH1 0xA0 SHL SUB NOT SWAP1 DUP2 AND DUP7 OR SWAP1 SWAP2 SSTORE PUSH3 0xCCD PUSH2 0x1E4 CALLDATALOAD PUSH3 0x14DF JUMP JUMPDEST DUP3 DUP10 MSTORE PUSH1 0x20 MSTORE DUP5 PUSH1 0x40 DUP10 KECCAK256 SWAP2 DUP3 SLOAD AND OR SWAP1 SSTORE PUSH3 0xCED PUSH2 0x1E4 CALLDATALOAD PUSH3 0x14F9 JUMP JUMPDEST DUP5 DUP9 MSTORE PUSH1 0x20 MSTORE PUSH1 0x40 DUP8 KECCAK256 SSTORE PUSH3 0xD06 PUSH2 0x1E4 CALLDATALOAD PUSH3 0x14C5 JUMP JUMPDEST PUSH3 0xD12 DUP2 SLOAD PUSH3 0x1716 JUMP JUMPDEST SWAP1 SSTORE PUSH2 0x1E4 CALLDATALOAD DUP7 MSTORE PUSH1 0x7 PUSH1 0x20 MSTORE PUSH1 0x40 DUP7 KECCAK256 CALLER DUP8 MSTORE PUSH1 0x20 MSTORE PUSH3 0xD38 DUP4 PUSH1 0x40 DUP9 KECCAK256 PUSH3 0x173B JUMP JUMPDEST DUP3 EXTCODESIZE ISZERO PUSH3 0xE89 JUMPI PUSH1 0x40 MLOAD PUSH4 0xF2FDE38B PUSH1 0xE0 SHL DUP2 MSTORE CALLER PUSH1 0x4 DUP3 ADD MSTORE DUP7 DUP2 PUSH1 0x24 DUP2 DUP4 DUP9 GAS CALL DUP1 ISZERO PUSH3 0xE7E JUMPI PUSH3 0xE4D JUMPI JUMPDEST POP DUP6 DUP1 DUP1 DUP1 PUSH1 0x1 DUP1 PUSH1 0xA0 SHL SUB DUP2 SLOAD AND DUP2 SWAP1 CALLVALUE ISZERO PUSH3 0xE42 JUMPI JUMPDEST CALLVALUE SWAP2 CALL ISZERO PUSH3 0xE37 JUMPI PUSH32 0x589A716CD5278B5C277FD8770EAC218D80D0EC36C646F8BBF15B63087E80CEC6 PUSH1 0xC0 PUSH32 0xE31C3C24729ECCFAC2CE4C9524B19E43D913C84C44F83FA601CBAF7893CE06C2 SWAP7 PUSH1 0x80 SWAP7 PUSH1 0x1 DUP1 PUSH1 0xA0 SHL SUB SWAP1 MLOAD AND SWAP1 PUSH1 0x20 DUP2 MLOAD SWAP2 ADD MLOAD SWAP1 PUSH1 0x40 MLOAD SWAP3 DUP9 DUP5 MSTORE CALLER PUSH1 0x20 DUP6 ADD MSTORE PUSH1 0x40 DUP5 ADD MSTORE PUSH3 0xE0A PUSH1 0x60 DUP5 ADD PUSH2 0x1E4 CALLDATALOAD PUSH3 0x16AA JUMP JUMPDEST DUP9 DUP4 ADD MSTORE PUSH1 0xA0 DUP3 ADD MSTORE LOG1 PUSH1 0x20 DUP3 MLOAD SWAP3 ADD MLOAD SWAP1 MLOAD SWAP2 PUSH1 0x40 MLOAD SWAP4 DUP5 MSTORE PUSH1 0x20 DUP5 ADD MSTORE PUSH1 0x40 DUP4 ADD MSTORE PUSH1 0x60 DUP3 ADD MSTORE LOG1 DUP1 RETURN JUMPDEST PUSH1 0x40 MLOAD RETURNDATASIZE DUP8 DUP3 RETURNDATACOPY RETURNDATASIZE SWAP1 REVERT JUMPDEST PUSH2 0x8FC SWAP2 POP PUSH3 0xD82 JUMP JUMPDEST SWAP1 SWAP6 SWAP1 PUSH1 0x1 PUSH1 0x1 PUSH1 0x40 SHL SUB DUP2 GT PUSH3 0xE6A JUMPI PUSH1 0x40 MSTORE SWAP5 CODESIZE PUSH3 0xD69 JUMP JUMPDEST PUSH4 0x4E487B71 PUSH1 0xE0 SHL DUP3 MSTORE PUSH1 0x41 PUSH1 0x4 MSTORE PUSH1 0x24 DUP3 REVERT JUMPDEST PUSH1 0x40 MLOAD RETURNDATASIZE DUP10 DUP3 RETURNDATACOPY RETURNDATASIZE SWAP1 REVERT JUMPDEST DUP6 DUP1 REVERT JUMPDEST PUSH1 0x20 DUP2 RETURNDATASIZE PUSH1 0x20 GT PUSH3 0xEC7 JUMPI JUMPDEST DUP2 PUSH3 0xEA9 PUSH1 0x20 SWAP4 DUP4 PUSH3 0x15C4 JUMP JUMPDEST DUP2 ADD SUB SLT PUSH3 0xEC3 JUMPI MLOAD DUP1 ISZERO ISZERO SUB PUSH3 0xE89 JUMPI CODESIZE PUSH3 0xC86 JUMP JUMPDEST DUP7 DUP1 REVERT JUMPDEST RETURNDATASIZE SWAP2 POP PUSH3 0xE9A JUMP JUMPDEST SWAP1 PUSH2 0x2710 PUSH3 0xEE4 PUSH3 0xEEC SWAP4 DUP4 PUSH3 0x1799 JUMP JUMPDEST DIV SWAP1 PUSH3 0x16B8 JUMP JUMPDEST CODESIZE PUSH3 0xC53 JUMP JUMPDEST PUSH4 0x4E487B71 PUSH1 0xE0 SHL DUP11 MSTORE PUSH1 0x11 PUSH1 0x4 MSTORE PUSH1 0x24 DUP11 REVERT JUMPDEST SWAP1 POP PUSH1 0x20 DUP2 RETURNDATASIZE PUSH1 0x20 GT PUSH3 0xF45 JUMPI JUMPDEST DUP2 PUSH3 0xF25 PUSH1 0x20 SWAP4 DUP4 PUSH3 0x15C4 JUMP JUMPDEST DUP2 ADD SUB SLT PUSH3 0xF41 JUMPI MLOAD PUSH1 0xFF DUP2 AND DUP2 SUB PUSH3 0xF41 JUMPI CODESIZE PUSH3 0xC1A JUMP JUMPDEST DUP10 DUP1 REVERT JUMPDEST RETURNDATASIZE SWAP2 POP PUSH3 0xF16 JUMP JUMPDEST PUSH1 0x40 MLOAD RETURNDATASIZE DUP13 DUP3 RETURNDATACOPY RETURNDATASIZE SWAP1 REVERT JUMPDEST PUSH1 0x40 MLOAD RETURNDATASIZE DUP9 DUP3 RETURNDATACOPY RETURNDATASIZE SWAP1 REVERT JUMPDEST PUSH1 0x20 DUP3 DUP3 ADD DUP2 ADD MLOAD PUSH2 0x240 PUSH2 0x2CE6 DUP11 ADD DUP5 ADD ADD MSTORE DUP8 SWAP6 POP ADD PUSH3 0xB6C JUMP JUMPDEST DUP3 MLOAD PUSH1 0x1 PUSH1 0x1 PUSH1 0xA0 SHL SUB AND DUP2 MSTORE DUP8 SWAP6 POP PUSH1 0x20 SWAP3 DUP4 ADD SWAP3 PUSH1 0x1 SWAP3 SWAP1 SWAP3 ADD SWAP2 ADD PUSH3 0xB44 JUMP JUMPDEST DUP3 MLOAD DUP2 MSTORE DUP9 SWAP7 POP PUSH1 0x20 SWAP3 DUP4 ADD SWAP3 PUSH1 0x1 SWAP3 SWAP1 SWAP3 ADD SWAP2 ADD PUSH3 0xAF1 JUMP JUMPDEST PUSH4 0x4E487B71 PUSH1 0xE0 SHL DUP12 MSTORE PUSH1 0x41 PUSH1 0x4 MSTORE PUSH1 0x24 DUP12 REVERT JUMPDEST DUP5 MLOAD ISZERO DUP1 PUSH3 0x103B JUMPI JUMPDEST DUP1 PUSH3 0x102E JUMPI JUMPDEST PUSH3 0xA9D JUMPI PUSH1 0x40 MLOAD PUSH3 0x461BCD PUSH1 0xE5 SHL DUP2 MSTORE PUSH1 0x20 PUSH1 0x4 DUP3 ADD MSTORE PUSH1 0x1B PUSH1 0x24 DUP3 ADD MSTORE PUSH27 0x125B9D985B1A590818DC99585D19481B185D5B98DA081A5B9C1D5D PUSH1 0x2A SHL PUSH1 0x44 DUP3 ADD MSTORE PUSH1 0x64 SWAP1 REVERT JUMPDEST POP PUSH1 0x20 DUP4 ADD MLOAD ISZERO PUSH3 0xFE6 JUMP JUMPDEST POP DUP3 MLOAD ISZERO PUSH3 0xFDF JUMP JUMPDEST PUSH1 0x40 MLOAD PUSH3 0x461BCD PUSH1 0xE5 SHL DUP2 MSTORE PUSH1 0x20 PUSH1 0x4 DUP3 ADD MSTORE PUSH1 0x19 PUSH1 0x24 DUP3 ADD MSTORE PUSH25 0x13185D5B98DA1C185908185B1C9958591E4818DC99585D1959 PUSH1 0x3A SHL PUSH1 0x44 DUP3 ADD MSTORE PUSH1 0x64 SWAP1 REVERT JUMPDEST PUSH1 0x40 MLOAD PUSH3 0x461BCD PUSH1 0xE5 SHL DUP2 MSTORE PUSH1 0x20 PUSH1 0x4 DUP3 ADD MSTORE PUSH1 0x18 PUSH1 0x24 DUP3 ADD MSTORE PUSH24 0x4E6F7420656E6F75676820424E4220746F206465706C6F79 PUSH1 0x40 SHL PUSH1 0x44 DUP3 ADD MSTORE PUSH1 0x64 SWAP1 REVERT JUMPDEST DUP9 DUP1 REVERT JUMPDEST DUP3 DUP1 REVERT JUMPDEST PUSH4 0x4E487B71 PUSH1 0xE0 SHL DUP10 MSTORE PUSH1 0x41 PUSH1 0x4 MSTORE PUSH1 0x24 DUP10 REVERT JUMPDEST DUP8 DUP1 REVERT JUMPDEST DUP2 CALLDATALOAD PUSH1 0x1 PUSH1 0x1 PUSH1 0xA0 SHL SUB DUP2 AND DUP2 SUB PUSH3 0x1108 JUMPI DUP2 MSTORE PUSH1 0x20 SWAP2 DUP3 ADD SWAP2 ADD PUSH3 0x9D0 JUMP JUMPDEST DUP11 DUP1 REVERT JUMPDEST DUP2 CALLDATALOAD DUP2 MSTORE PUSH1 0x20 SWAP2 DUP3 ADD SWAP2 ADD PUSH3 0x99D JUMP JUMPDEST DUP2 CALLDATALOAD DUP2 MSTORE PUSH1 0x20 SWAP2 DUP3 ADD SWAP2 ADD PUSH3 0x96A JUMP JUMPDEST DUP5 DUP1 REVERT JUMPDEST DUP2 CALLDATALOAD DUP2 MSTORE PUSH1 0x20 SWAP2 DUP3 ADD SWAP2 ADD PUSH3 0x937 JUMP JUMPDEST DUP2 CALLDATALOAD DUP2 MSTORE PUSH1 0x20 SWAP2 DUP3 ADD SWAP2 ADD PUSH3 0x906 JUMP JUMPDEST PUSH4 0x4E487B71 PUSH1 0xE0 SHL DUP5 MSTORE PUSH1 0x41 PUSH1 0x4 MSTORE PUSH1 0x24 DUP5 REVERT JUMPDEST DUP2 CALLDATALOAD DUP2 MSTORE PUSH1 0x20 SWAP2 DUP3 ADD SWAP2 ADD PUSH3 0x8C3 JUMP JUMPDEST POP CALLVALUE PUSH3 0x1AD JUMPI PUSH1 0x40 CALLDATASIZE PUSH1 0x3 NOT ADD SLT PUSH3 0x1AD JUMPI PUSH1 0x1 PUSH1 0x1 PUSH1 0xA0 SHL SUB DUP1 PUSH3 0x11A0 PUSH3 0x1442 JUMP JUMPDEST AND DUP1 DUP4 MSTORE PUSH1 0x2 PUSH1 0x20 MSTORE DUP2 PUSH1 0x40 DUP5 KECCAK256 SLOAD AND CALLER SUB PUSH3 0x120E JUMPI DUP3 MSTORE PUSH1 0x2 PUSH1 0x20 MSTORE PUSH1 0x40 DUP1 DUP4 KECCAK256 DUP1 SLOAD PUSH1 0x1 PUSH1 0x1 PUSH1 0xA0 SHL SUB NOT DUP2 DUP2 AND SWAP1 SWAP3 SSTORE SWAP2 MLOAD PUSH32 0x88B4950CD633EB83502DC130D021AF06D80A2E22F3F0FC48EC3EFDEA1FC57517 SWAP4 SWAP1 SWAP3 DUP4 SWAP3 PUSH3 0x55A SWAP3 PUSH1 0x24 CALLDATALOAD SWAP3 AND AND DUP4 PUSH3 0x177E JUMP JUMPDEST PUSH1 0x40 MLOAD PUSH3 0x461BCD PUSH1 0xE5 SHL DUP2 MSTORE PUSH1 0x20 PUSH1 0x4 DUP3 ADD MSTORE PUSH1 0x1A PUSH1 0x24 DUP3 ADD MSTORE PUSH26 0x4F6E6C79206C61756E6368706164732063616E2072656D6F7665 PUSH1 0x30 SHL PUSH1 0x44 DUP3 ADD MSTORE PUSH1 0x64 SWAP1 REVERT JUMPDEST POP CALLVALUE PUSH3 0x1AD JUMPI PUSH1 0x40 CALLDATASIZE PUSH1 0x3 NOT ADD SLT PUSH3 0x1AD JUMPI PUSH3 0x126E PUSH3 0x1442 JUMP JUMPDEST PUSH1 0x24 SWAP1 DUP2 CALLDATALOAD SWAP2 PUSH1 0x2 DUP4 LT ISZERO DUP1 PUSH3 0x112E JUMPI PUSH3 0x128A DUP5 PUSH3 0x14AB JUMP JUMPDEST PUSH1 0x1 PUSH1 0x1 PUSH1 0xA0 SHL SUB SWAP4 DUP5 AND DUP1 DUP8 MSTORE PUSH1 0x20 SWAP2 DUP3 MSTORE PUSH1 0x40 DUP8 KECCAK256 SLOAD SWAP2 SWAP7 SWAP2 SWAP4 PUSH3 0x12B1 DUP6 PUSH3 0x16DE JUMP JUMPDEST SWAP7 PUSH3 0x12BD DUP7 PUSH3 0x16DE JUMP JUMPDEST SWAP7 DUP5 JUMPDEST DUP8 DUP2 LT PUSH3 0x12F6 JUMPI PUSH3 0x12E8 DUP11 PUSH3 0x2F8 DUP14 DUP13 PUSH1 0x40 MLOAD SWAP5 DUP6 SWAP5 PUSH1 0x40 DUP7 MSTORE PUSH1 0x40 DUP7 ADD SWAP1 PUSH3 0x155C JUMP JUMPDEST SWAP2 DUP5 DUP4 SUB SWAP1 DUP6 ADD MSTORE PUSH3 0x155C JUMP JUMPDEST PUSH3 0x1301 DUP4 PUSH3 0x14AB JUMP JUMPDEST DUP6 DUP8 MSTORE DUP12 MSTORE DUP7 DUP3 PUSH3 0x1317 DUP4 PUSH1 0x40 DUP11 KECCAK256 PUSH3 0x152D JUMP JUMPDEST SWAP1 SLOAD SWAP1 PUSH1 0x3 SHL SHR AND SWAP1 PUSH3 0x13C4 JUMPI SWAP1 DUP12 DUP6 SWAP3 DUP6 DUP10 MSTORE PUSH1 0x5 DUP3 MSTORE PUSH1 0x40 DUP10 KECCAK256 DUP2 DUP11 MSTORE DUP3 MSTORE DUP13 PUSH3 0x134B DUP5 PUSH1 0x40 DUP13 KECCAK256 SLOAD SWAP3 PUSH3 0x1726 JUMP JUMPDEST MSTORE PUSH1 0x40 MLOAD SWAP4 DUP5 DUP1 SWAP3 PUSH4 0x4A4643F7 PUSH1 0xE0 SHL DUP3 MSTORE DUP11 PUSH1 0x4 DUP4 ADD MSTORE GAS STATICCALL DUP1 ISZERO PUSH3 0xE7E JUMPI DUP8 SWAP1 PUSH3 0x138C JUMPI JUMPDEST PUSH3 0x1386 SWAP3 POP PUSH3 0x33B DUP3 DUP13 PUSH3 0x1726 JUMP JUMPDEST PUSH3 0x12C0 JUMP JUMPDEST POP SWAP1 DUP12 DUP2 DUP2 RETURNDATASIZE DUP4 GT PUSH3 0x13BC JUMPI JUMPDEST PUSH3 0x13A6 DUP2 DUP4 PUSH3 0x15C4 JUMP JUMPDEST DUP2 ADD SUB SLT PUSH3 0xEC3 JUMPI SWAP1 PUSH3 0x1386 SWAP2 MLOAD PUSH3 0x1374 JUMP JUMPDEST POP RETURNDATASIZE PUSH3 0x139A JUMP JUMPDEST PUSH4 0x4E487B71 PUSH1 0xE0 SHL DUP8 MSTORE PUSH1 0x21 PUSH1 0x4 MSTORE DUP5 DUP8 REVERT JUMPDEST POP CALLVALUE PUSH3 0x1AD JUMPI PUSH3 0x13E9 CALLDATASIZE PUSH3 0x1475 JUMP JUMPDEST SWAP3 SWAP1 SWAP2 PUSH1 0x2 DUP2 LT ISZERO PUSH3 0x142E JUMPI DUP2 MSTORE PUSH1 0x7 PUSH1 0x20 MSTORE PUSH1 0x40 DUP2 KECCAK256 PUSH1 0x1 DUP1 PUSH1 0xA0 SHL SUB DUP1 SWAP4 AND DUP3 MSTORE PUSH1 0x20 MSTORE PUSH1 0x40 DUP2 KECCAK256 SWAP1 DUP2 SLOAD DUP5 LT ISZERO PUSH3 0x1AD JUMPI POP PUSH1 0x20 SWAP3 PUSH3 0x24B SWAP2 PUSH3 0x152D JUMP JUMPDEST PUSH4 0x4E487B71 PUSH1 0xE0 SHL DUP3 MSTORE PUSH1 0x21 PUSH1 0x4 MSTORE PUSH1 0x24 DUP3 REVERT JUMPDEST PUSH1 0x4 CALLDATALOAD SWAP1 PUSH1 0x1 PUSH1 0x1 PUSH1 0xA0 SHL SUB DUP3 AND DUP3 SUB PUSH3 0x1459 JUMPI JUMP JUMPDEST PUSH1 0x0 DUP1 REVERT JUMPDEST PUSH1 0x24 CALLDATALOAD SWAP1 PUSH1 0x1 PUSH1 0x1 PUSH1 0xA0 SHL SUB DUP3 AND DUP3 SUB PUSH3 0x1459 JUMPI JUMP JUMPDEST PUSH1 0x60 SWAP1 PUSH1 0x3 NOT ADD SLT PUSH3 0x1459 JUMPI PUSH1 0x4 CALLDATALOAD PUSH1 0x2 DUP2 LT ISZERO PUSH3 0x1459 JUMPI SWAP1 PUSH1 0x24 CALLDATALOAD PUSH1 0x1 PUSH1 0x1 PUSH1 0xA0 SHL SUB DUP2 AND DUP2 SUB PUSH3 0x1459 JUMPI SWAP1 PUSH1 0x44 CALLDATALOAD SWAP1 JUMP JUMPDEST PUSH1 0x2 DUP2 LT ISZERO PUSH3 0x25B JUMPI PUSH1 0x0 MSTORE PUSH1 0x6 PUSH1 0x20 MSTORE PUSH1 0x40 PUSH1 0x0 KECCAK256 SWAP1 JUMP JUMPDEST PUSH1 0x2 DUP2 LT ISZERO PUSH3 0x25B JUMPI PUSH1 0x0 MSTORE PUSH1 0x3 PUSH1 0x20 MSTORE PUSH1 0x40 PUSH1 0x0 KECCAK256 SWAP1 JUMP JUMPDEST PUSH1 0x2 DUP2 LT ISZERO PUSH3 0x25B JUMPI PUSH1 0x0 MSTORE PUSH1 0x4 PUSH1 0x20 MSTORE PUSH1 0x40 PUSH1 0x0 KECCAK256 SWAP1 JUMP JUMPDEST PUSH1 0x2 DUP2 LT ISZERO PUSH3 0x25B JUMPI PUSH1 0x0 MSTORE PUSH1 0x5 PUSH1 0x20 MSTORE PUSH1 0x40 PUSH1 0x0 KECCAK256 SWAP1 JUMP JUMPDEST PUSH1 0x2 DUP2 LT ISZERO PUSH3 0x25B JUMPI PUSH1 0x0 MSTORE PUSH1 0x8 PUSH1 0x20 MSTORE PUSH1 0x40 PUSH1 0x0 KECCAK256 SWAP1 JUMP JUMPDEST DUP1 SLOAD DUP3 LT ISZERO PUSH3 0x1546 JUMPI PUSH1 0x0 MSTORE PUSH1 0x20 PUSH1 0x0 KECCAK256 ADD SWAP1 PUSH1 0x0 SWAP1 JUMP JUMPDEST PUSH4 0x4E487B71 PUSH1 0xE0 SHL PUSH1 0x0 MSTORE PUSH1 0x32 PUSH1 0x4 MSTORE PUSH1 0x24 PUSH1 0x0 REVERT JUMPDEST SWAP1 DUP2 MLOAD DUP1 DUP3 MSTORE PUSH1 0x20 DUP1 DUP1 SWAP4 ADD SWAP4 ADD SWAP2 PUSH1 0x0 JUMPDEST DUP3 DUP2 LT PUSH3 0x157D JUMPI POP POP POP POP SWAP1 JUMP JUMPDEST DUP4 MLOAD DUP6 MSTORE SWAP4 DUP2 ADD SWAP4 SWAP3 DUP2 ADD SWAP3 PUSH1 0x1 ADD PUSH3 0x156E JUMP JUMPDEST PUSH1 0x40 DUP2 ADD SWAP1 DUP2 LT PUSH1 0x1 PUSH1 0x1 PUSH1 0x40 SHL SUB DUP3 GT OR PUSH3 0x15AE JUMPI PUSH1 0x40 MSTORE JUMP JUMPDEST PUSH4 0x4E487B71 PUSH1 0xE0 SHL PUSH1 0x0 MSTORE PUSH1 0x41 PUSH1 0x4 MSTORE PUSH1 0x24 PUSH1 0x0 REVERT JUMPDEST PUSH1 0x1F SWAP1 SWAP2 ADD PUSH1 0x1F NOT AND DUP2 ADD SWAP1 PUSH1 0x1 PUSH1 0x1 PUSH1 0x40 SHL SUB DUP3 GT SWAP1 DUP3 LT OR PUSH3 0x15AE JUMPI PUSH1 0x40 MSTORE JUMP JUMPDEST SWAP1 DUP2 MLOAD DUP1 DUP3 MSTORE PUSH1 0x20 DUP1 DUP1 SWAP4 ADD SWAP4 ADD SWAP2 PUSH1 0x0 JUMPDEST DUP3 DUP2 LT PUSH3 0x1609 JUMPI POP POP POP POP SWAP1 JUMP JUMPDEST DUP4 MLOAD PUSH1 0x1 PUSH1 0x1 PUSH1 0xA0 SHL SUB AND DUP6 MSTORE SWAP4 DUP2 ADD SWAP4 SWAP3 DUP2 ADD SWAP3 PUSH1 0x1 ADD PUSH3 0x15FA JUMP JUMPDEST PUSH1 0x0 SLOAD PUSH1 0x1 PUSH1 0x1 PUSH1 0xA0 SHL SUB AND CALLER SUB PUSH3 0x163C JUMPI JUMP JUMPDEST PUSH1 0x64 PUSH1 0x40 MLOAD PUSH3 0x461BCD PUSH1 0xE5 SHL DUP2 MSTORE PUSH1 0x20 PUSH1 0x4 DUP3 ADD MSTORE PUSH1 0x20 PUSH1 0x24 DUP3 ADD MSTORE PUSH32 0x4F776E61626C653A2063616C6C6572206973206E6F7420746865206F776E6572 PUSH1 0x44 DUP3 ADD MSTORE REVERT JUMPDEST PUSH1 0x0 SWAP2 JUMPDEST PUSH1 0x2 DUP4 LT PUSH3 0x1692 JUMPI POP POP POP JUMP JUMPDEST PUSH1 0x1 SWAP1 DUP3 MLOAD DUP2 MSTORE PUSH1 0x20 DUP1 SWAP2 ADD SWAP3 ADD SWAP3 ADD SWAP2 SWAP1 PUSH3 0x1684 JUMP JUMPDEST SWAP1 PUSH1 0x2 DUP3 LT ISZERO PUSH3 0x25B JUMPI MSTORE JUMP JUMPDEST SWAP2 SWAP1 DUP3 ADD DUP1 SWAP3 GT PUSH3 0x364 JUMPI JUMP JUMPDEST PUSH1 0x1 PUSH1 0x1 PUSH1 0x40 SHL SUB DUP2 GT PUSH3 0x15AE JUMPI PUSH1 0x5 SHL PUSH1 0x20 ADD SWAP1 JUMP JUMPDEST SWAP1 PUSH3 0x16EA DUP3 PUSH3 0x16C6 JUMP JUMPDEST PUSH3 0x16F9 PUSH1 0x40 MLOAD SWAP2 DUP3 PUSH3 0x15C4 JUMP JUMPDEST DUP3 DUP2 MSTORE DUP1 SWAP3 PUSH3 0x170C PUSH1 0x1F NOT SWAP2 PUSH3 0x16C6 JUMP JUMPDEST ADD SWAP1 PUSH1 0x20 CALLDATASIZE SWAP2 ADD CALLDATACOPY JUMP JUMPDEST PUSH1 0x0 NOT DUP2 EQ PUSH3 0x364 JUMPI PUSH1 0x1 ADD SWAP1 JUMP JUMPDEST DUP1 MLOAD DUP3 LT ISZERO PUSH3 0x1546 JUMPI PUSH1 0x20 SWAP2 PUSH1 0x5 SHL ADD ADD SWAP1 JUMP JUMPDEST DUP1 SLOAD PUSH1 0x1 PUSH1 0x40 SHL DUP2 LT ISZERO PUSH3 0x15AE JUMPI PUSH3 0x175B SWAP2 PUSH1 0x1 DUP3 ADD DUP2 SSTORE PUSH3 0x152D JUMP JUMPDEST DUP2 SWAP3 SWAP2 SLOAD SWAP1 PUSH1 0x3 SHL SWAP2 PUSH1 0x1 DUP1 PUSH1 0xA0 SHL SUB SWAP3 DUP4 DUP2 SHL SWAP4 DUP5 SWAP3 AND SWAP1 SHL AND SWAP2 NOT AND OR SWAP1 SSTORE JUMP JUMPDEST PUSH1 0x1 PUSH1 0x1 PUSH1 0xA0 SHL SUB SWAP1 SWAP2 AND DUP2 MSTORE PUSH1 0x20 DUP2 ADD SWAP2 SWAP1 SWAP2 MSTORE PUSH1 0x40 ADD SWAP1 JUMP JUMPDEST DUP2 DUP2 MUL SWAP3 SWAP2 DUP2 ISZERO SWAP2 DUP5 DIV EQ OR ISZERO PUSH3 0x364 JUMPI JUMP INVALID PUSH1 0x80 PUSH1 0x40 MSTORE CALLVALUE PUSH3 0x45F JUMPI PUSH3 0x2CE6 DUP1 CODESIZE SUB DUP1 PUSH3 0x1D DUP2 PUSH3 0x4C8 JUMP JUMPDEST SWAP3 DUP4 CODECOPY DUP2 ADD SWAP1 PUSH2 0x220 DUP2 DUP4 SUB SLT PUSH3 0x45F JUMPI PUSH3 0x3B DUP3 DUP3 PUSH3 0x4EE JUMP JUMPDEST SWAP1 DUP3 PUSH1 0x5F DUP3 ADD SLT ISZERO PUSH3 0x45F JUMPI PUSH1 0x40 MLOAD SWAP2 PUSH1 0x60 DUP4 ADD PUSH1 0x1 PUSH1 0x1 PUSH1 0x40 SHL SUB DUP2 GT DUP5 DUP3 LT OR PUSH3 0x449 JUMPI PUSH1 0x40 MSTORE PUSH1 0xA0 DUP3 ADD DUP4 DUP6 DUP3 GT PUSH3 0x45F JUMPI DUP6 SWAP1 PUSH1 0x40 DUP6 ADD SWAP1 JUMPDEST DUP4 DUP3 LT PUSH3 0x494 JUMPI POP POP PUSH3 0x90 SWAP2 PUSH3 0x4EE JUMP JUMPDEST PUSH3 0x9F DUP6 PUSH1 0xE0 DUP6 ADD PUSH3 0x4EE JUMP JUMPDEST SWAP2 PUSH3 0xB0 DUP7 PUSH2 0x120 DUP7 ADD PUSH3 0x4EE JUMP JUMPDEST SWAP1 DUP7 PUSH2 0x17F DUP7 ADD SLT ISZERO PUSH3 0x45F JUMPI PUSH3 0xC8 PUSH3 0x4A8 JUMP JUMPDEST SWAP2 PUSH2 0x1A0 DUP7 ADD DUP4 DUP10 DUP3 GT PUSH3 0x45F JUMPI PUSH2 0x160 DUP9 ADD SWAP1 JUMPDEST DUP3 DUP3 LT PUSH3 0x479 JUMPI POP POP MLOAD PUSH1 0x1 PUSH1 0x1 PUSH1 0x40 SHL SUB DUP2 GT PUSH3 0x45F JUMPI DUP7 ADD DUP9 PUSH1 0x1F DUP3 ADD SLT ISZERO PUSH3 0x45F JUMPI DUP1 MLOAD SWAP1 PUSH1 0x1 PUSH1 0x1 PUSH1 0x40 SHL SUB DUP3 GT PUSH3 0x449 JUMPI PUSH3 0x12D PUSH1 0x1F DUP4 ADD PUSH1 0x1F NOT AND PUSH1 0x20 ADD PUSH3 0x4C8 JUMP JUMPDEST SWAP10 DUP3 DUP12 MSTORE PUSH1 0x20 DUP4 DUP4 ADD ADD GT PUSH3 0x45F JUMPI PUSH1 0x0 JUMPDEST DUP3 DUP2 LT PUSH3 0x464 JUMPI POP POP PUSH1 0x20 PUSH1 0x0 SWAP2 DUP11 ADD ADD MSTORE PUSH3 0x162 PUSH2 0x1C0 DUP8 ADD PUSH3 0x534 JUMP JUMPDEST SWAP2 PUSH2 0x1E0 DUP8 ADD MLOAD SWAP7 DUP8 ISZERO ISZERO DUP9 SUB PUSH3 0x45F JUMPI PUSH2 0x200 ADD MLOAD SWAP8 PUSH1 0x2 DUP10 LT ISZERO PUSH3 0x45F JUMPI PUSH1 0x20 PUSH1 0x40 SWAP3 PUSH1 0x0 SLOAD CALLER PUSH1 0x1 DUP1 PUSH1 0xA0 SHL SUB DUP3 AND PUSH32 0x8BE0079C531659141344CD1FD0A4F28419497F9722A3DAAFE3B4186F6B6457E0 PUSH1 0x0 DUP1 LOG3 PUSH1 0x1 PUSH1 0x1 PUSH1 0xA8 SHL SUB NOT AND CALLER PUSH1 0xFF PUSH1 0xA0 SHL NOT AND OR PUSH1 0x0 SSTORE PUSH1 0x1 DUP1 SSTORE PUSH1 0x12 DUP1 SLOAD PUSH2 0xFF00 NOT AND PUSH2 0x100 OR SWAP1 SSTORE DUP1 MLOAD PUSH1 0x2 SSTORE ADD MLOAD PUSH1 0x3 SSTORE DUP1 MLOAD PUSH1 0x4 SSTORE PUSH1 0x20 DUP2 ADD MLOAD PUSH1 0x6 SSTORE ADD MLOAD PUSH1 0x7 SSTORE DUP8 MLOAD PUSH1 0x1 PUSH1 0x1 PUSH1 0x40 SHL SUB DUP2 GT PUSH3 0x449 JUMPI PUSH1 0xC SLOAD PUSH1 0x1 DUP2 DUP2 SHR SWAP2 AND DUP1 ISZERO PUSH3 0x43E JUMPI JUMPDEST PUSH1 0x20 DUP3 LT EQ PUSH3 0x428 JUMPI PUSH1 0x1F DUP2 GT PUSH3 0x3BE JUMPI JUMPDEST POP PUSH1 0x20 SWAP9 PUSH1 0x1F DUP3 GT PUSH1 0x1 EQ PUSH3 0x32B JUMPI SWAP1 DUP1 PUSH1 0x20 SWAP8 SWAP9 SWAP10 SWAP11 DUP9 SWAP5 SWAP4 PUSH1 0x0 SWAP3 PUSH3 0x31F JUMPI JUMPDEST POP POP DUP2 PUSH1 0x1 SHL SWAP2 PUSH1 0x0 NOT SWAP1 PUSH1 0x3 SHL SHR NOT AND OR PUSH1 0xC SSTORE JUMPDEST DUP1 MLOAD PUSH1 0x11 SSTORE ADD MLOAD PUSH1 0x10 SSTORE DUP2 MLOAD PUSH1 0xD DUP1 SLOAD PUSH1 0x1 PUSH1 0x1 PUSH1 0xA0 SHL SUB NOT SWAP1 DUP2 AND PUSH1 0x1 PUSH1 0x1 PUSH1 0xA0 SHL SUB SWAP4 DUP5 AND OR SWAP1 SWAP2 SSTORE SWAP3 DUP6 ADD MLOAD PUSH1 0xE DUP1 SLOAD DUP6 AND SWAP2 DUP4 AND SWAP2 SWAP1 SWAP2 OR SWAP1 SSTORE PUSH1 0xF DUP1 SLOAD SWAP1 SWAP4 AND SWAP2 AND OR SWAP1 SSTORE DUP1 MLOAD PUSH1 0x9 SSTORE ADD MLOAD PUSH1 0x8 SWAP1 DUP2 SSTORE PUSH1 0x20 DUP3 ADD MLOAD PUSH1 0xA SSTORE SWAP1 MLOAD PUSH1 0xB SSTORE PUSH1 0x12 DUP1 SLOAD PUSH2 0xFF00 NOT AND SWAP3 ISZERO ISZERO SWAP1 SWAP2 SHL PUSH2 0xFF00 AND SWAP2 SWAP1 SWAP2 OR SWAP1 SSTORE PUSH1 0x18 DUP1 SLOAD PUSH1 0x1 PUSH1 0x1 PUSH1 0xA8 SHL SUB NOT AND PUSH1 0xA0 SWAP3 SWAP1 SWAP3 SHL PUSH1 0xFF PUSH1 0xA0 SHL AND SWAP2 SWAP1 SWAP2 OR CALLER OR SWAP1 SSTORE PUSH1 0x40 MLOAD PUSH2 0x279C SWAP1 DUP2 PUSH3 0x54A DUP3 CODECOPY RETURN JUMPDEST ADD MLOAD SWAP1 POP CODESIZE DUP1 PUSH3 0x25B JUMP JUMPDEST PUSH1 0xC PUSH1 0x0 SWAP1 DUP2 MSTORE SWAP1 SWAP10 PUSH32 0xDF6966C971051C3D54EC59162606531493A51404A002842F56009D7E5CF4A8C7 SWAP2 PUSH1 0x1F NOT DUP5 AND SWAP1 JUMPDEST DUP2 DUP2 LT PUSH3 0x3A5 JUMPI POP SWAP2 DUP4 SWAP2 PUSH1 0x20 SWAP10 SWAP11 SWAP12 SWAP13 DUP11 SWAP7 SWAP6 PUSH1 0x1 SWAP6 LT PUSH3 0x38B JUMPI JUMPDEST POP POP POP DUP2 SHL ADD PUSH1 0xC SSTORE PUSH3 0x271 JUMP JUMPDEST ADD MLOAD PUSH1 0x0 NOT PUSH1 0xF8 DUP5 PUSH1 0x3 SHL AND SHR NOT AND SWAP1 SSTORE CODESIZE DUP1 DUP1 PUSH3 0x37C JUMP JUMPDEST SWAP2 SWAP3 PUSH1 0x20 PUSH1 0x1 DUP2 SWAP3 DUP16 DUP8 ADD MLOAD DUP2 SSTORE ADD SWAP5 ADD SWAP3 ADD PUSH3 0x35D JUMP JUMPDEST PUSH1 0xC PUSH1 0x0 MSTORE PUSH32 0xDF6966C971051C3D54EC59162606531493A51404A002842F56009D7E5CF4A8C7 PUSH1 0x1F DUP4 ADD PUSH1 0x5 SHR DUP2 ADD SWAP2 PUSH1 0x20 DUP5 LT PUSH3 0x41D JUMPI JUMPDEST PUSH1 0x1F ADD PUSH1 0x5 SHR ADD SWAP1 JUMPDEST DUP2 DUP2 LT PUSH3 0x410 JUMPI POP PUSH3 0x237 JUMP JUMPDEST PUSH1 0x0 DUP2 SSTORE PUSH1 0x1 ADD PUSH3 0x401 JUMP JUMPDEST SWAP1 SWAP2 POP DUP2 SWAP1 PUSH3 0x3F8 JUMP JUMPDEST PUSH4 0x4E487B71 PUSH1 0xE0 SHL PUSH1 0x0 MSTORE PUSH1 0x22 PUSH1 0x4 MSTORE PUSH1 0x24 PUSH1 0x0 REVERT JUMPDEST SWAP1 PUSH1 0x7F AND SWAP1 PUSH3 0x223 JUMP JUMPDEST PUSH4 0x4E487B71 PUSH1 0xE0 SHL PUSH1 0x0 MSTORE PUSH1 0x41 PUSH1 0x4 MSTORE PUSH1 0x24 PUSH1 0x0 REVERT JUMPDEST PUSH1 0x0 DUP1 REVERT JUMPDEST PUSH1 0x20 DUP2 DUP4 ADD DUP2 ADD MLOAD DUP13 DUP4 ADD DUP3 ADD MSTORE ADD PUSH3 0x140 JUMP JUMPDEST PUSH1 0x20 DUP1 SWAP2 PUSH3 0x488 DUP5 PUSH3 0x534 JUMP JUMPDEST DUP2 MSTORE ADD SWAP2 ADD SWAP1 PUSH3 0xDE JUMP JUMPDEST DUP2 MLOAD DUP2 MSTORE DUP8 SWAP3 POP PUSH1 0x20 SWAP2 DUP3 ADD SWAP2 ADD PUSH3 0x7B JUMP JUMPDEST PUSH1 0x40 DUP1 MLOAD SWAP2 SWAP1 DUP3 ADD PUSH1 0x1 PUSH1 0x1 PUSH1 0x40 SHL SUB DUP2 GT DUP4 DUP3 LT OR PUSH3 0x449 JUMPI PUSH1 0x40 MSTORE JUMP JUMPDEST PUSH1 0x40 MLOAD SWAP2 SWAP1 PUSH1 0x1F ADD PUSH1 0x1F NOT AND DUP3 ADD PUSH1 0x1 PUSH1 0x1 PUSH1 0x40 SHL SUB DUP2 GT DUP4 DUP3 LT OR PUSH3 0x449 JUMPI PUSH1 0x40 MSTORE JUMP JUMPDEST SWAP1 DUP1 PUSH1 0x1F DUP4 ADD SLT ISZERO PUSH3 0x45F JUMPI PUSH3 0x505 PUSH3 0x4A8 JUMP JUMPDEST DUP1 SWAP3 PUSH1 0x40 DUP2 ADD SWAP3 DUP4 GT PUSH3 0x45F JUMPI SWAP1 JUMPDEST DUP3 DUP3 LT PUSH3 0x523 JUMPI POP POP POP SWAP1 JUMP JUMPDEST DUP2 MLOAD DUP2 MSTORE PUSH1 0x20 SWAP2 DUP3 ADD SWAP2 ADD PUSH3 0x515 JUMP JUMPDEST MLOAD SWAP1 PUSH1 0x1 PUSH1 0x1 PUSH1 0xA0 SHL SUB DUP3 AND DUP3 SUB PUSH3 0x45F JUMPI JUMP INVALID PUSH1 0x80 PUSH1 0x40 MSTORE PUSH1 0x4 DUP1 CALLDATASIZE LT ISZERO PUSH2 0x13 JUMPI PUSH1 0x0 DUP1 REVERT JUMPDEST PUSH1 0x0 SWAP1 DUP2 CALLDATALOAD PUSH1 0xE0 SHR SWAP1 DUP2 PUSH4 0x40B6583 EQ PUSH2 0x2040 JUMPI DUP2 PUSH4 0x521B4DA EQ PUSH2 0x2022 JUMPI DUP2 PUSH4 0xB9F2C4A EQ PUSH2 0x1FEF JUMPI DUP2 PUSH4 0xF6B1724 EQ PUSH2 0x1FCC JUMPI DUP2 PUSH4 0x200D2ED2 EQ PUSH2 0x1FAE JUMPI DUP2 PUSH4 0x26BFB589 EQ PUSH2 0x1F88 JUMPI DUP2 PUSH4 0x29763ED0 EQ PUSH2 0x1F6A JUMPI DUP2 PUSH4 0x2A0FCCD5 EQ PUSH2 0x1DD5 JUMPI DUP2 PUSH4 0x2AFCF480 EQ PUSH2 0x17F4 JUMPI DUP2 PUSH4 0x30F50FD2 EQ PUSH2 0x176A JUMPI DUP2 PUSH4 0x3197CBB6 EQ PUSH2 0x174C JUMPI DUP2 PUSH4 0x3998FBB0 EQ PUSH2 0x172E JUMPI DUP2 PUSH4 0x39B012B8 EQ PUSH2 0x1710 JUMPI DUP2 PUSH4 0x3A66C278 EQ PUSH2 0x16F2 JUMPI DUP2 PUSH4 0x42706C39 EQ PUSH2 0x161E JUMPI DUP2 PUSH4 0x42F39381 EQ PUSH2 0x1600 JUMPI DUP2 PUSH4 0x4A4643F7 EQ PUSH2 0x15C4 JUMPI DUP2 PUSH4 0x5072B084 EQ PUSH2 0x1407 JUMPI DUP2 PUSH4 0x58371CCD EQ PUSH2 0x13E9 JUMPI DUP2 PUSH4 0x5C975ABB EQ PUSH2 0x13C4 JUMPI DUP2 PUSH4 0x62F47BA7 EQ PUSH2 0x1383 JUMPI DUP2 PUSH4 0x715018A6 EQ PUSH2 0x133B JUMPI DUP2 PUSH4 0x76320B24 EQ PUSH2 0x131D JUMPI DUP2 PUSH4 0x782DAE0A EQ PUSH2 0x12FF JUMPI DUP2 PUSH4 0x78E97925 EQ PUSH2 0x12E1 JUMPI DUP2 PUSH4 0x7B7A7CA7 EQ PUSH2 0x12BE JUMPI DUP2 PUSH4 0x7CC1F867 EQ PUSH2 0x1033 JUMPI DUP2 PUSH4 0x7D7CD772 EQ PUSH2 0xFA5 JUMPI DUP2 PUSH4 0x7D882097 EQ PUSH2 0xF87 JUMPI DUP2 PUSH4 0x8DA5CB5B EQ PUSH2 0xF60 JUMPI DUP2 PUSH4 0x8F86F5EA EQ PUSH2 0x90F JUMPI DUP2 PUSH4 0x906A26E0 EQ PUSH2 0x8F1 JUMPI DUP2 PUSH4 0x9CCCAC37 EQ PUSH2 0x8B5 JUMPI DUP2 PUSH4 0xA1AC3907 EQ PUSH2 0x825 JUMPI DUP2 PUSH4 0xA20ECBBB EQ PUSH2 0x807 JUMPI DUP2 PUSH4 0xA4F3A7C7 EQ PUSH2 0x7DE JUMPI DUP2 PUSH4 0xB5545A3C EQ PUSH2 0x670 JUMPI DUP2 PUSH4 0xB59BD591 EQ PUSH2 0x525 JUMPI DUP2 PUSH4 0xB9420310 EQ PUSH2 0x4FC JUMPI DUP2 PUSH4 0xC5C4744C EQ PUSH2 0x4DE JUMPI DUP2 PUSH4 0xE7E10490 EQ PUSH2 0x30A JUMPI DUP2 PUSH4 0xF2FDE38B EQ PUSH2 0x24E JUMPI POP DUP1 PUSH4 0xF851A440 EQ PUSH2 0x225 JUMPI PUSH4 0xFB86A404 EQ PUSH2 0x205 JUMPI PUSH1 0x0 DUP1 REVERT JUMPDEST CALLVALUE PUSH2 0x222 JUMPI DUP1 PUSH1 0x3 NOT CALLDATASIZE ADD SLT PUSH2 0x222 JUMPI PUSH1 0x20 PUSH1 0x3 SLOAD PUSH1 0x40 MLOAD SWAP1 DUP2 MSTORE RETURN JUMPDEST DUP1 REVERT JUMPDEST POP CALLVALUE PUSH2 0x222 JUMPI DUP1 PUSH1 0x3 NOT CALLDATASIZE ADD SLT PUSH2 0x222 JUMPI PUSH1 0xF SLOAD PUSH1 0x40 MLOAD PUSH1 0x1 PUSH1 0x1 PUSH1 0xA0 SHL SUB SWAP1 SWAP2 AND DUP2 MSTORE PUSH1 0x20 SWAP1 RETURN JUMPDEST SWAP1 POP CALLVALUE PUSH2 0x306 JUMPI PUSH1 0x20 CALLDATASIZE PUSH1 0x3 NOT ADD SLT PUSH2 0x306 JUMPI PUSH1 0x1 PUSH1 0x1 PUSH1 0xA0 SHL SUB DUP2 CALLDATALOAD DUP2 DUP2 AND SWAP3 SWAP1 DUP4 SWAP1 SUB PUSH2 0x302 JUMPI PUSH2 0x27F PUSH2 0x21CD JUMP JUMPDEST DUP3 ISZERO PUSH2 0x2AF JUMPI POP PUSH1 0x0 SLOAD DUP3 PUSH1 0x1 DUP1 PUSH1 0xA0 SHL SUB NOT DUP3 AND OR PUSH1 0x0 SSTORE AND PUSH1 0x0 DUP1 MLOAD PUSH1 0x20 PUSH2 0x2747 DUP4 CODECOPY DUP2 MLOAD SWAP2 MSTORE PUSH1 0x0 DUP1 LOG3 DUP1 RETURN JUMPDEST PUSH1 0x84 SWAP1 PUSH1 0x20 PUSH1 0x40 MLOAD SWAP2 PUSH3 0x461BCD PUSH1 0xE5 SHL DUP4 MSTORE DUP3 ADD MSTORE PUSH1 0x26 PUSH1 0x24 DUP3 ADD MSTORE PUSH32 0x4F776E61626C653A206E6577206F776E657220697320746865207A65726F2061 PUSH1 0x44 DUP3 ADD MSTORE PUSH6 0x646472657373 PUSH1 0xD0 SHL PUSH1 0x64 DUP3 ADD MSTORE REVERT JUMPDEST DUP4 DUP1 REVERT JUMPDEST POP DUP1 REVERT JUMPDEST SWAP1 POP CALLVALUE PUSH2 0x306 JUMPI DUP2 PUSH1 0x3 NOT CALLDATASIZE ADD SLT PUSH2 0x306 JUMPI DUP2 SLOAD PUSH1 0x1 PUSH1 0x1 PUSH1 0xA0 SHL SUB SWAP1 DUP2 AND CALLER EQ DUP1 ISZERO PUSH2 0x4D1 JUMPI JUMPDEST PUSH2 0x33B SWAP1 PUSH2 0x2343 JUMP JUMPDEST PUSH2 0x343 PUSH2 0x22E0 JUMP JUMPDEST PUSH2 0x34B PUSH2 0x2633 JUMP JUMPDEST PUSH1 0x2 PUSH1 0x17 SSTORE DUP3 DUP2 PUSH1 0x18 SLOAD AND DUP3 PUSH1 0xD SLOAD AND DUP2 EXTCODESIZE ISZERO PUSH2 0x4C2 JUMPI DUP3 SWAP2 PUSH1 0x44 DUP4 SWAP3 PUSH1 0x40 MLOAD SWAP5 DUP6 SWAP4 DUP5 SWAP3 PUSH4 0x3FE75E7 PUSH1 0xE1 SHL DUP5 MSTORE DUP11 DUP5 ADD MSTORE PUSH1 0x2 PUSH1 0x24 DUP5 ADD MSTORE GAS CALL DUP1 ISZERO PUSH2 0x4C6 JUMPI PUSH2 0x4AE JUMPI JUMPDEST POP POP PUSH1 0xD SLOAD AND PUSH1 0x40 MLOAD PUSH4 0x70A08231 PUSH1 0xE0 SHL DUP2 MSTORE ADDRESS DUP4 DUP3 ADD MSTORE PUSH1 0x20 SWAP3 DUP4 DUP3 PUSH1 0x24 DUP2 DUP7 GAS STATICCALL SWAP1 DUP2 ISZERO PUSH2 0x4A3 JUMPI DUP5 SWAP3 DUP7 SWAP3 PUSH2 0x46B JUMPI JUMPDEST POP SWAP3 PUSH2 0x3E8 SWAP4 DUP7 PUSH1 0x40 MLOAD DUP1 SWAP7 DUP2 SWAP6 DUP3 SWAP5 PUSH4 0xA9059CBB PUSH1 0xE0 SHL DUP5 MSTORE CALLER SWAP1 DUP5 ADD PUSH2 0x22AC JUMP JUMPDEST SUB SWAP3 GAS CALL DUP1 ISZERO PUSH2 0x460 JUMPI PUSH2 0x432 JUMPI JUMPDEST DUP3 PUSH32 0x7D789068B0DEED1C53F4572064780AB55E54305E6DF362874C45AD39C4C3766E PUSH1 0x40 MLOAD DUP1 PUSH2 0x428 CALLER TIMESTAMP DUP4 PUSH2 0x22C7 JUMP JUMPDEST SUB SWAP1 LOG1 PUSH1 0x1 DUP1 SSTORE DUP1 RETURN JUMPDEST DUP2 PUSH2 0x451 SWAP3 SWAP1 RETURNDATASIZE LT PUSH2 0x459 JUMPI JUMPDEST PUSH2 0x449 DUP2 DUP4 PUSH2 0x20BB JUMP JUMPDEST DUP2 ADD SWAP1 PUSH2 0x2248 JUMP JUMPDEST POP CODESIZE DUP1 PUSH2 0x3F7 JUMP JUMPDEST POP RETURNDATASIZE PUSH2 0x43F JUMP JUMPDEST PUSH1 0x40 MLOAD RETURNDATASIZE DUP6 DUP3 RETURNDATACOPY RETURNDATASIZE SWAP1 REVERT JUMPDEST DUP4 DUP2 SWAP5 SWAP3 SWAP4 POP RETURNDATASIZE DUP4 GT PUSH2 0x49C JUMPI JUMPDEST PUSH2 0x483 DUP2 DUP4 PUSH2 0x20BB JUMP JUMPDEST DUP2 ADD SUB SLT PUSH2 0x497 JUMPI SWAP1 MLOAD DUP4 SWAP2 PUSH2 0x3E8 PUSH2 0x3C5 JUMP JUMPDEST PUSH1 0x0 DUP1 REVERT JUMPDEST POP RETURNDATASIZE PUSH2 0x479 JUMP JUMPDEST PUSH1 0x40 MLOAD RETURNDATASIZE DUP8 DUP3 RETURNDATACOPY RETURNDATASIZE SWAP1 REVERT JUMPDEST PUSH2 0x4B7 SWAP1 PUSH2 0x2077 JUMP JUMPDEST PUSH2 0x4C2 JUMPI DUP3 CODESIZE PUSH2 0x392 JUMP JUMPDEST DUP3 DUP1 REVERT JUMPDEST PUSH1 0x40 MLOAD RETURNDATASIZE DUP5 DUP3 RETURNDATACOPY RETURNDATASIZE SWAP1 REVERT JUMPDEST POP PUSH1 0xF SLOAD DUP2 AND CALLER EQ PUSH2 0x332 JUMP JUMPDEST DUP3 CALLVALUE PUSH2 0x222 JUMPI DUP1 PUSH1 0x3 NOT CALLDATASIZE ADD SLT PUSH2 0x222 JUMPI PUSH1 0x20 PUSH1 0x14 SLOAD PUSH1 0x40 MLOAD SWAP1 DUP2 MSTORE RETURN JUMPDEST DUP3 CALLVALUE PUSH2 0x222 JUMPI DUP1 PUSH1 0x3 NOT CALLDATASIZE ADD SLT PUSH2 0x222 JUMPI PUSH1 0xD SLOAD PUSH1 0x40 MLOAD PUSH1 0x1 PUSH1 0x1 PUSH1 0xA0 SHL SUB SWAP1 SWAP2 AND DUP2 MSTORE PUSH1 0x20 SWAP1 RETURN JUMPDEST DUP3 CALLVALUE PUSH2 0x222 JUMPI DUP1 PUSH1 0x3 NOT CALLDATASIZE ADD SLT PUSH2 0x222 JUMPI PUSH1 0x16 SLOAD SWAP1 PUSH2 0x543 DUP3 PUSH2 0x23C9 JUMP JUMPDEST SWAP1 PUSH2 0x551 PUSH1 0x40 MLOAD SWAP3 DUP4 PUSH2 0x20BB JUMP JUMPDEST DUP3 DUP3 MSTORE PUSH2 0x55D DUP4 PUSH2 0x23C9 JUMP JUMPDEST PUSH1 0x1F NOT SWAP2 SWAP1 PUSH1 0x20 DUP5 DUP2 ADD SWAP2 DUP5 ADD CALLDATASIZE DUP4 CALLDATACOPY PUSH2 0x576 DUP7 PUSH2 0x23C9 JUMP JUMPDEST SWAP6 PUSH2 0x584 PUSH1 0x40 MLOAD SWAP8 DUP9 PUSH2 0x20BB JUMP JUMPDEST DUP1 DUP8 MSTORE PUSH2 0x590 DUP2 PUSH2 0x23C9 JUMP JUMPDEST DUP8 DUP4 ADD SWAP6 ADD CALLDATASIZE DUP7 CALLDATACOPY DUP4 JUMPDEST DUP2 DUP2 LT PUSH2 0x61F JUMPI POP POP PUSH1 0x40 MLOAD SWAP6 DUP7 SWAP6 PUSH1 0x40 DUP8 ADD SWAP1 PUSH1 0x40 DUP9 MSTORE MLOAD DUP1 SWAP2 MSTORE PUSH1 0x60 DUP8 ADD SWAP4 SWAP1 DUP6 JUMPDEST DUP2 DUP2 LT PUSH2 0x5FF JUMPI POP POP POP DUP6 DUP4 SUB DUP7 DUP4 ADD MSTORE MLOAD DUP1 DUP4 MSTORE SWAP2 DUP2 ADD SWAP4 SWAP3 JUMPDEST DUP3 DUP2 LT PUSH2 0x5E8 JUMPI POP POP POP POP SUB SWAP1 RETURN JUMPDEST DUP4 MLOAD DUP6 MSTORE DUP7 SWAP6 POP SWAP4 DUP2 ADD SWAP4 SWAP3 DUP2 ADD SWAP3 PUSH1 0x1 ADD PUSH2 0x5D9 JUMP JUMPDEST DUP3 MLOAD PUSH1 0x1 PUSH1 0x1 PUSH1 0xA0 SHL SUB AND DUP7 MSTORE DUP10 SWAP9 POP SWAP5 DUP5 ADD SWAP5 SWAP2 DUP5 ADD SWAP2 PUSH1 0x1 ADD PUSH2 0x5BE JUMP JUMPDEST DUP1 PUSH2 0x664 SWAP2 DUP7 SWAP6 SWAP8 SWAP9 SWAP10 SWAP5 SWAP7 MSTORE PUSH1 0x1B DUP7 MSTORE PUSH1 0x1 DUP1 PUSH1 0xA0 SHL SUB PUSH1 0x40 DUP7 KECCAK256 SLOAD AND DUP1 PUSH2 0x648 DUP4 DUP13 PUSH2 0x23E0 JUMP JUMPDEST MSTORE DUP6 MSTORE PUSH1 0x19 DUP7 MSTORE PUSH1 0x40 DUP6 KECCAK256 SLOAD PUSH2 0x65E DUP3 DUP7 PUSH2 0x23E0 JUMP JUMPDEST MSTORE PUSH2 0x2260 JUMP JUMPDEST SWAP7 SWAP6 SWAP5 SWAP3 SWAP4 SWAP2 SWAP7 PUSH2 0x59A JUMP JUMPDEST SWAP1 POP CALLVALUE PUSH2 0x306 JUMPI DUP2 PUSH1 0x3 NOT CALLDATASIZE ADD SLT PUSH2 0x306 JUMPI PUSH2 0x68A PUSH2 0x22E0 JUMP JUMPDEST PUSH1 0x17 SLOAD PUSH1 0x2 EQ PUSH2 0x7D9 JUMPI PUSH2 0x69C PUSH2 0x2633 JUMP JUMPDEST CALLER DUP3 MSTORE PUSH1 0x20 PUSH1 0x19 DUP2 MSTORE PUSH1 0x40 DUP4 KECCAK256 SLOAD SWAP2 DUP3 ISZERO PUSH2 0x789 JUMPI CALLER DUP5 MSTORE PUSH1 0x19 DUP3 MSTORE PUSH1 0x40 DUP5 KECCAK256 DUP5 SWAP1 SSTORE PUSH1 0xE SLOAD PUSH1 0x1 PUSH1 0x1 PUSH1 0xA0 SHL SUB AND SWAP1 DUP2 PUSH2 0x710 JUMPI POP POP POP DUP2 DUP1 DUP1 DUP1 DUP5 CALLER DUP3 CALL ISZERO PUSH2 0x703 JUMPI PUSH2 0x428 PUSH1 0x0 DUP1 MLOAD PUSH1 0x20 PUSH2 0x2727 DUP4 CODECOPY DUP2 MLOAD SWAP2 MSTORE SWAP2 JUMPDEST PUSH1 0x40 MLOAD SWAP2 DUP3 SWAP2 CALLER SWAP1 DUP4 PUSH2 0x22C7 JUMP JUMPDEST POP PUSH1 0x40 MLOAD SWAP1 RETURNDATASIZE SWAP1 DUP3 RETURNDATACOPY RETURNDATASIZE SWAP1 REVERT JUMPDEST DUP4 PUSH2 0x735 SWAP5 SWAP3 DUP5 SWAP3 DUP8 PUSH1 0x40 MLOAD DUP1 SWAP9 DUP2 SWAP6 DUP3 SWAP5 PUSH4 0xA9059CBB PUSH1 0xE0 SHL DUP5 MSTORE CALLER SWAP1 DUP5 ADD PUSH2 0x22AC JUMP JUMPDEST SUB SWAP3 GAS CALL SWAP2 DUP3 ISZERO PUSH2 0x77E JUMPI PUSH1 0x0 DUP1 MLOAD PUSH1 0x20 PUSH2 0x2727 DUP4 CODECOPY DUP2 MLOAD SWAP2 MSTORE SWAP4 PUSH2 0x428 SWAP4 PUSH2 0x760 JUMPI JUMPDEST POP POP PUSH2 0x6F5 JUMP JUMPDEST DUP2 PUSH2 0x776 SWAP3 SWAP1 RETURNDATASIZE LT PUSH2 0x459 JUMPI PUSH2 0x449 DUP2 DUP4 PUSH2 0x20BB JUMP JUMPDEST POP CODESIZE DUP1 PUSH2 0x759 JUMP JUMPDEST PUSH1 0x40 MLOAD RETURNDATASIZE DUP7 DUP3 RETURNDATACOPY RETURNDATASIZE SWAP1 REVERT JUMPDEST PUSH1 0x84 SWAP2 PUSH1 0x40 MLOAD SWAP2 PUSH3 0x461BCD PUSH1 0xE5 SHL DUP4 MSTORE DUP3 ADD MSTORE PUSH1 0x25 PUSH1 0x24 DUP3 ADD MSTORE PUSH32 0x4C61756E63687061643A205573657220646F65736E2774206861766520646570 PUSH1 0x44 DUP3 ADD MSTORE PUSH5 0x6F73697473 PUSH1 0xD8 SHL PUSH1 0x64 DUP3 ADD MSTORE REVERT JUMPDEST PUSH2 0x69C JUMP JUMPDEST DUP3 CALLVALUE PUSH2 0x222 JUMPI DUP1 PUSH1 0x3 NOT CALLDATASIZE ADD SLT PUSH2 0x222 JUMPI PUSH1 0xE SLOAD PUSH1 0x40 MLOAD PUSH1 0x1 PUSH1 0x1 PUSH1 0xA0 SHL SUB SWAP1 SWAP2 AND DUP2 MSTORE PUSH1 0x20 SWAP1 RETURN JUMPDEST DUP3 CALLVALUE PUSH2 0x222 JUMPI DUP1 PUSH1 0x3 NOT CALLDATASIZE ADD SLT PUSH2 0x222 JUMPI PUSH1 0x20 PUSH1 0x8 SLOAD PUSH1 0x40 MLOAD SWAP1 DUP2 MSTORE RETURN JUMPDEST DUP3 CALLVALUE PUSH2 0x222 JUMPI PUSH2 0x834 CALLDATASIZE PUSH2 0x2180 JUMP JUMPDEST PUSH2 0x83C PUSH2 0x21CD JUMP JUMPDEST DUP3 JUMPDEST DUP2 DUP2 LT PUSH2 0x849 JUMPI DUP4 DUP1 RETURN JUMPDEST PUSH2 0x88A SWAP1 PUSH1 0x1 PUSH1 0x1 PUSH1 0xA0 SHL SUB DUP1 PUSH2 0x869 PUSH2 0x864 DUP5 DUP8 DUP10 PUSH2 0x238F JUMP JUMPDEST PUSH2 0x23B5 JUMP JUMPDEST AND DUP7 MSTORE PUSH1 0x1C SWAP1 PUSH1 0x20 SWAP1 DUP3 DUP3 MSTORE PUSH1 0xFF PUSH1 0x40 DUP10 KECCAK256 SLOAD AND PUSH2 0x88F JUMPI JUMPDEST POP POP POP PUSH2 0x2260 JUMP JUMPDEST PUSH2 0x83E JUMP JUMPDEST PUSH2 0x89D PUSH2 0x864 DUP6 DUP9 DUP11 PUSH2 0x238F JUMP JUMPDEST AND DUP8 MSTORE MSTORE PUSH1 0x40 DUP6 KECCAK256 DUP1 SLOAD PUSH1 0xFF NOT AND SWAP1 SSTORE DUP6 DUP1 DUP1 PUSH2 0x882 JUMP JUMPDEST SWAP1 POP CALLVALUE PUSH2 0x306 JUMPI PUSH1 0x20 CALLDATASIZE PUSH1 0x3 NOT ADD SLT PUSH2 0x306 JUMPI CALLDATALOAD PUSH1 0x1 PUSH1 0x1 PUSH1 0xA0 SHL SUB DUP2 AND SWAP1 DUP2 SWAP1 SUB PUSH2 0x306 JUMPI DUP2 PUSH1 0x40 SWAP2 PUSH1 0x20 SWAP4 MSTORE PUSH1 0x1A DUP4 MSTORE KECCAK256 SLOAD PUSH1 0x40 MLOAD SWAP1 DUP2 MSTORE RETURN JUMPDEST DUP3 CALLVALUE PUSH2 0x222 JUMPI DUP1 PUSH1 0x3 NOT CALLDATASIZE ADD SLT PUSH2 0x222 JUMPI PUSH1 0x20 PUSH1 0x2 SLOAD PUSH1 0x40 MLOAD SWAP1 DUP2 MSTORE RETURN JUMPDEST SWAP1 POP CALLVALUE PUSH2 0x306 JUMPI DUP2 PUSH1 0x3 NOT CALLDATASIZE ADD SLT PUSH2 0x306 JUMPI DUP2 SLOAD PUSH1 0x1 PUSH1 0x1 PUSH1 0xA0 SHL SUB SWAP1 DUP2 AND CALLER EQ DUP1 ISZERO PUSH2 0xF53 JUMPI JUMPDEST PUSH2 0x940 SWAP1 PUSH2 0x2343 JUMP JUMPDEST PUSH2 0x948 PUSH2 0x22E0 JUMP JUMPDEST PUSH2 0x950 PUSH2 0x24DB JUMP JUMPDEST PUSH1 0xFF PUSH1 0x18 SLOAD PUSH1 0xA0 SHR AND PUSH1 0x2 DUP2 LT ISZERO PUSH2 0xF40 JUMPI DUP4 SWAP2 SWAP1 DUP1 ISZERO SWAP1 DUP2 DUP1 PUSH2 0xF35 JUMPI JUMPDEST PUSH2 0xEAC JUMPI JUMPDEST PUSH1 0x1 EQ DUP1 PUSH2 0xEA1 JUMPI JUMPDEST PUSH2 0xDAE JUMPI JUMPDEST PUSH1 0x1 PUSH1 0x17 SSTORE DUP3 DUP4 SWAP2 PUSH1 0x11 SLOAD SWAP1 DUP2 PUSH2 0xD82 JUMPI JUMPDEST POP POP DUP1 PUSH2 0xD29 JUMPI JUMPDEST POP PUSH1 0x10 SLOAD DUP1 PUSH2 0xD11 JUMPI JUMPDEST POP PUSH1 0xE SLOAD DUP3 AND DUP1 PUSH2 0xBEB JUMPI POP SELFBALANCE SWAP1 DUP4 DUP1 DUP1 DUP1 DUP5 DUP8 PUSH1 0xF SLOAD AND DUP3 DUP3 ISZERO PUSH2 0xBE2 JUMPI JUMPDEST CALL ISZERO PUSH2 0x460 JUMPI DUP4 DUP1 PUSH2 0x9DB DUP2 SWAP5 SWAP4 DUP3 SWAP5 PUSH2 0x2336 JUMP JUMPDEST DUP2 DUP2 ISZERO PUSH2 0xBD9 JUMPI JUMPDEST CALLER SWAP1 CALL ISZERO PUSH2 0x703 JUMPI JUMPDEST PUSH1 0xD SLOAD PUSH1 0x40 MLOAD PUSH4 0x70A08231 PUSH1 0xE0 SHL DUP2 MSTORE ADDRESS DUP2 DUP7 ADD MSTORE PUSH1 0x20 SWAP5 SWAP2 DUP4 AND DUP6 DUP3 PUSH1 0x24 DUP2 DUP5 GAS STATICCALL SWAP1 DUP2 ISZERO PUSH2 0x4A3 JUMPI DUP7 SWAP3 DUP7 SWAP3 PUSH2 0xBA4 JUMPI JUMPDEST POP DUP6 SWAP3 SWAP2 SWAP1 DUP2 ISZERO ISZERO SWAP1 DUP2 DUP1 PUSH2 0xB95 JUMPI JUMPDEST PUSH2 0xB37 JUMPI JUMPDEST POP DUP1 PUSH2 0xB27 JUMPI JUMPDEST PUSH2 0xACF JUMPI JUMPDEST POP POP POP DUP2 PUSH1 0x18 SLOAD AND SWAP2 PUSH1 0xD SLOAD AND DUP3 EXTCODESIZE ISZERO PUSH2 0x302 JUMPI PUSH1 0x44 DUP5 SWAP3 DUP4 PUSH1 0x40 MLOAD SWAP6 DUP7 SWAP5 DUP6 SWAP4 PUSH4 0x3FE75E7 PUSH1 0xE1 SHL DUP6 MSTORE DUP5 ADD MSTORE PUSH1 0x1 PUSH1 0x24 DUP5 ADD MSTORE GAS CALL DUP1 ISZERO PUSH2 0x4C6 JUMPI PUSH2 0xABB JUMPI JUMPDEST POP PUSH32 0x99E95C9A161A7C99D3DC664B3058A5482967AFE83AE408003EBD3223D68C2964 PUSH1 0x40 DUP4 PUSH1 0x13 SLOAD DUP3 MLOAD SWAP2 TIMESTAMP DUP4 MSTORE DUP3 ADD MSTORE LOG1 PUSH1 0x1 DUP1 SSTORE DUP1 RETURN JUMPDEST PUSH2 0xAC4 SWAP1 PUSH2 0x2077 JUMP JUMPDEST PUSH2 0x306 JUMPI DUP2 CODESIZE PUSH2 0xA82 JUMP JUMPDEST PUSH1 0x44 DUP6 PUSH1 0xD SLOAD AND SWAP2 PUSH1 0x40 MLOAD SWAP5 DUP6 SWAP4 DUP5 SWAP3 PUSH4 0xA9059CBB PUSH1 0xE0 SHL DUP5 MSTORE PUSH2 0xDEAD DUP10 DUP6 ADD MSTORE PUSH1 0x24 DUP5 ADD MSTORE GAS CALL DUP1 ISZERO PUSH2 0x77E JUMPI PUSH2 0xB0A JUMPI JUMPDEST DUP5 DUP5 SWAP2 PUSH2 0xA40 JUMP JUMPDEST PUSH2 0xB20 SWAP1 DUP6 RETURNDATASIZE DUP8 GT PUSH2 0x459 JUMPI PUSH2 0x449 DUP2 DUP4 PUSH2 0x20BB JUMP JUMPDEST POP CODESIZE PUSH2 0xB02 JUMP JUMPDEST POP PUSH1 0xFF PUSH1 0x12 SLOAD PUSH1 0x8 SHR AND ISZERO PUSH2 0xA3B JUMP JUMPDEST SWAP4 POP SWAP2 PUSH1 0x40 MLOAD DUP1 SWAP5 PUSH4 0xA9059CBB PUSH1 0xE0 SHL DUP3 MSTORE DUP2 DUP10 DUP2 PUSH2 0xB59 DUP8 CALLER DUP13 DUP5 ADD PUSH2 0x22AC JUMP JUMPDEST SUB SWAP3 GAS CALL SWAP2 DUP3 ISZERO PUSH2 0xB8A JUMPI DUP7 SWAP4 DUP9 SWAP4 ISZERO PUSH2 0xA34 JUMPI PUSH2 0xB83 SWAP1 DUP5 RETURNDATASIZE DUP7 GT PUSH2 0x459 JUMPI PUSH2 0x449 DUP2 DUP4 PUSH2 0x20BB JUMP JUMPDEST POP CODESIZE PUSH2 0xA34 JUMP JUMPDEST PUSH1 0x40 MLOAD RETURNDATASIZE DUP9 DUP3 RETURNDATACOPY RETURNDATASIZE SWAP1 REVERT JUMPDEST POP PUSH1 0xFF PUSH1 0x12 SLOAD PUSH1 0x8 SHR AND PUSH2 0xA2F JUMP JUMPDEST SWAP6 POP SWAP2 SWAP1 POP DUP5 DUP2 RETURNDATASIZE DUP4 GT PUSH2 0xBD2 JUMPI JUMPDEST PUSH2 0xBBD DUP2 DUP4 PUSH2 0x20BB JUMP JUMPDEST DUP2 ADD SUB SLT PUSH2 0x497 JUMPI SWAP3 MLOAD DUP6 SWAP4 DUP6 SWAP2 SWAP1 DUP6 PUSH2 0xA1F JUMP JUMPDEST POP RETURNDATASIZE PUSH2 0xBB3 JUMP JUMPDEST POP PUSH2 0x8FC PUSH2 0x9E3 JUMP JUMPDEST POP PUSH2 0x8FC PUSH2 0x9C6 JUMP JUMPDEST PUSH1 0x40 MLOAD PUSH4 0x70A08231 PUSH1 0xE0 SHL DUP2 MSTORE ADDRESS DUP7 DUP3 ADD MSTORE PUSH1 0x20 SWAP3 SWAP2 DUP4 DUP3 PUSH1 0x24 DUP2 DUP5 GAS STATICCALL SWAP1 DUP2 ISZERO PUSH2 0xB8A JUMPI DUP8 SWAP3 DUP8 SWAP3 PUSH2 0xCDB JUMPI JUMPDEST POP SWAP1 DUP5 DUP5 PUSH2 0xC44 SWAP5 SWAP4 DUP9 PUSH1 0xF SLOAD AND DUP11 PUSH1 0x40 MLOAD DUP1 SWAP9 DUP2 SWAP6 DUP3 SWAP5 PUSH4 0xA9059CBB PUSH1 0xE0 SHL SWAP11 DUP12 DUP6 MSTORE DUP5 ADD PUSH2 0x22AC JUMP JUMPDEST SUB SWAP3 GAS CALL DUP1 ISZERO PUSH2 0xCD0 JUMPI PUSH2 0xC7F SWAP5 DUP7 SWAP5 PUSH2 0xC69 SWAP3 PUSH2 0xCB3 JUMPI JUMPDEST POP DUP8 PUSH1 0xE SLOAD AND SWAP3 PUSH2 0x2336 JUMP JUMPDEST SWAP2 DUP8 PUSH1 0x40 MLOAD DUP1 SWAP7 DUP2 SWAP6 DUP3 SWAP5 DUP4 MSTORE CALLER DUP14 DUP5 ADD PUSH2 0x22AC JUMP JUMPDEST SUB SWAP3 GAS CALL DUP1 ISZERO PUSH2 0x77E JUMPI PUSH2 0xC95 JUMPI JUMPDEST POP POP PUSH2 0x9EC JUMP JUMPDEST DUP2 PUSH2 0xCAB SWAP3 SWAP1 RETURNDATASIZE LT PUSH2 0x459 JUMPI PUSH2 0x449 DUP2 DUP4 PUSH2 0x20BB JUMP JUMPDEST POP CODESIZE DUP1 PUSH2 0xC8E JUMP JUMPDEST PUSH2 0xCC9 SWAP1 DUP7 RETURNDATASIZE DUP9 GT PUSH2 0x459 JUMPI PUSH2 0x449 DUP2 DUP4 PUSH2 0x20BB JUMP JUMPDEST POP CODESIZE PUSH2 0xC5D JUMP JUMPDEST PUSH1 0x40 MLOAD RETURNDATASIZE DUP10 DUP3 RETURNDATACOPY RETURNDATASIZE SWAP1 REVERT JUMPDEST SWAP7 POP SWAP2 POP POP DUP3 DUP6 DUP2 RETURNDATASIZE DUP4 GT PUSH2 0xD0A JUMPI JUMPDEST PUSH2 0xCF5 DUP2 DUP4 PUSH2 0x20BB JUMP JUMPDEST DUP2 ADD SUB SLT PUSH2 0x497 JUMPI SWAP4 MLOAD DUP7 SWAP5 DUP7 SWAP2 SWAP1 DUP5 PUSH2 0xC19 JUMP JUMPDEST POP RETURNDATASIZE PUSH2 0xCEB JUMP JUMPDEST PUSH2 0x2710 SWAP2 POP PUSH2 0xD22 SWAP1 PUSH1 0x13 SLOAD PUSH2 0x226F JUMP JUMPDEST DIV CODESIZE PUSH2 0x9A6 JUMP JUMPDEST PUSH1 0x20 PUSH2 0xD55 SWAP2 DUP5 PUSH1 0xD SLOAD AND DUP6 PUSH1 0xF SLOAD AND DUP8 PUSH1 0x40 MLOAD DUP1 SWAP7 DUP2 SWAP6 DUP3 SWAP5 PUSH4 0xA9059CBB PUSH1 0xE0 SHL DUP5 MSTORE DUP14 DUP5 ADD PUSH2 0x22AC JUMP JUMPDEST SUB SWAP3 GAS CALL DUP1 ISZERO PUSH2 0x77E JUMPI ISZERO PUSH2 0x99C JUMPI PUSH2 0xD7B SWAP1 PUSH1 0x20 RETURNDATASIZE DUP2 GT PUSH2 0x459 JUMPI PUSH2 0x449 DUP2 DUP4 PUSH2 0x20BB JUMP JUMPDEST POP CODESIZE PUSH2 0x99C JUMP JUMPDEST PUSH2 0x2710 SWAP3 POP PUSH2 0xD99 SWAP2 SWAP1 ISZERO PUSH2 0xDA1 JUMPI PUSH1 0x14 SLOAD PUSH2 0x226F JUMP JUMPDEST DIV CODESIZE DUP1 PUSH2 0x994 JUMP JUMPDEST PUSH2 0xDA9 PUSH2 0x23F4 JUMP JUMPDEST PUSH2 0x226F JUMP JUMPDEST SWAP1 SWAP2 POP PUSH1 0x24 PUSH1 0x20 DUP4 PUSH1 0xD SLOAD AND PUSH1 0x40 MLOAD SWAP3 DUP4 DUP1 SWAP3 PUSH4 0x70A08231 PUSH1 0xE0 SHL DUP3 MSTORE ADDRESS DUP10 DUP4 ADD MSTORE GAS STATICCALL SWAP1 DUP2 ISZERO PUSH2 0x4A3 JUMPI DUP6 SWAP2 PUSH2 0xE70 JUMPI JUMPDEST POP PUSH2 0x2710 PUSH2 0xDF8 PUSH2 0xDEF PUSH2 0x23F4 JUMP JUMPDEST PUSH1 0x11 SLOAD SWAP1 PUSH2 0x226F JUMP JUMPDEST DIV LT PUSH2 0xE06 JUMPI SWAP1 DUP4 SWAP2 PUSH2 0x982 JUMP JUMPDEST PUSH1 0x84 DUP4 PUSH1 0x20 PUSH1 0x40 MLOAD SWAP2 PUSH3 0x461BCD PUSH1 0xE5 SHL DUP4 MSTORE DUP3 ADD MSTORE PUSH1 0x40 PUSH1 0x24 DUP3 ADD MSTORE PUSH32 0x4C61756E63687061642846616972293A20416C6C20746F6B656E2073616C6520 PUSH1 0x44 DUP3 ADD MSTORE PUSH32 0x6E65656420726169736564206265666F726520656E642073616C652074696D65 PUSH1 0x64 DUP3 ADD MSTORE REVERT JUMPDEST SWAP1 POP PUSH1 0x20 DUP2 RETURNDATASIZE DUP3 GT PUSH2 0xE99 JUMPI JUMPDEST DUP2 PUSH2 0xE8A PUSH1 0x20 SWAP4 DUP4 PUSH2 0x20BB JUMP JUMPDEST DUP2 ADD SUB SLT PUSH2 0x497 JUMPI MLOAD CODESIZE PUSH2 0xDE0 JUMP JUMPDEST RETURNDATASIZE SWAP2 POP PUSH2 0xE7D JUMP JUMPDEST POP PUSH1 0x7 SLOAD TIMESTAMP LT PUSH2 0x97D JUMP JUMPDEST SWAP1 SWAP2 SWAP3 POP PUSH1 0x15 SLOAD PUSH2 0xEC0 JUMPI SWAP1 DUP5 SWAP3 SWAP2 PUSH2 0x974 JUMP JUMPDEST PUSH1 0x40 MLOAD PUSH3 0x461BCD PUSH1 0xE5 SHL DUP2 MSTORE PUSH1 0x20 DUP2 DUP7 ADD MSTORE PUSH1 0x42 PUSH1 0x24 DUP3 ADD MSTORE PUSH32 0x4C61756E6368706164284E6F726D616C293A20416C6C20746F6B656E2073616C PUSH1 0x44 DUP3 ADD MSTORE PUSH32 0x65206E65656420726169736564206265666F726520656E642073616C65207469 PUSH1 0x64 DUP3 ADD MSTORE PUSH2 0x6D65 PUSH1 0xF0 SHL PUSH1 0x84 DUP3 ADD MSTORE PUSH1 0xA4 SWAP1 REVERT JUMPDEST POP PUSH1 0x7 SLOAD TIMESTAMP LT PUSH2 0x96F JUMP JUMPDEST PUSH4 0x4E487B71 PUSH1 0xE0 SHL DUP5 MSTORE PUSH1 0x21 DUP4 MSTORE PUSH1 0x24 DUP5 REVERT JUMPDEST POP PUSH1 0xF SLOAD DUP2 AND CALLER EQ PUSH2 0x937 JUMP JUMPDEST DUP3 CALLVALUE PUSH2 0x222 JUMPI DUP1 PUSH1 0x3 NOT CALLDATASIZE ADD SLT PUSH2 0x222 JUMPI SLOAD PUSH1 0x40 MLOAD PUSH1 0x1 PUSH1 0x1 PUSH1 0xA0 SHL SUB SWAP1 SWAP2 AND DUP2 MSTORE PUSH1 0x20 SWAP1 RETURN JUMPDEST DUP3 CALLVALUE PUSH2 0x222 JUMPI DUP1 PUSH1 0x3 NOT CALLDATASIZE ADD SLT PUSH2 0x222 JUMPI PUSH1 0x20 PUSH1 0x13 SLOAD PUSH1 0x40 MLOAD SWAP1 DUP2 MSTORE RETURN JUMPDEST DUP3 CALLVALUE PUSH2 0x222 JUMPI PUSH2 0xFB4 CALLDATASIZE PUSH2 0x2180 JUMP JUMPDEST PUSH2 0xFBC PUSH2 0x21CD JUMP JUMPDEST DUP3 JUMPDEST DUP2 DUP2 LT PUSH2 0xFC9 JUMPI DUP4 DUP1 RETURN JUMPDEST PUSH2 0x1005 SWAP1 PUSH1 0x1 PUSH1 0x1 PUSH1 0xA0 SHL SUB DUP1 PUSH2 0xFE4 PUSH2 0x864 DUP5 DUP8 DUP10 PUSH2 0x238F JUMP JUMPDEST AND DUP7 MSTORE PUSH1 0x1C SWAP1 PUSH1 0x20 SWAP1 DUP3 DUP3 MSTORE PUSH1 0xFF PUSH1 0x40 DUP10 KECCAK256 SLOAD AND ISZERO PUSH2 0x100A JUMPI POP POP POP PUSH2 0x2260 JUMP JUMPDEST PUSH2 0xFBE JUMP JUMPDEST PUSH2 0x1018 PUSH2 0x864 DUP6 DUP9 DUP11 PUSH2 0x238F JUMP JUMPDEST AND DUP8 MSTORE MSTORE PUSH1 0x40 DUP6 KECCAK256 DUP1 SLOAD PUSH1 0xFF NOT AND PUSH1 0x1 OR SWAP1 SSTORE DUP6 DUP1 DUP1 PUSH2 0x882 JUMP JUMPDEST SWAP1 POP CALLVALUE PUSH2 0x306 JUMPI DUP2 PUSH1 0x3 NOT CALLDATASIZE ADD SLT PUSH2 0x306 JUMPI PUSH1 0x40 DUP1 MLOAD PUSH2 0x1052 DUP2 PUSH2 0x20A0 JUMP JUMPDEST CALLDATASIZE SWAP1 CALLDATACOPY PUSH1 0x40 MLOAD PUSH1 0x1 PUSH1 0x1 PUSH1 0x40 SHL SUB SWAP3 SWAP1 PUSH1 0x60 DUP2 ADD DUP5 DUP2 GT DUP3 DUP3 LT OR PUSH2 0x12A9 JUMPI PUSH1 0x40 MSTORE PUSH1 0x60 SWAP1 CALLDATASIZE SWAP1 CALLDATACOPY PUSH1 0x40 DUP1 MLOAD PUSH2 0x1087 DUP2 PUSH2 0x20A0 JUMP JUMPDEST CALLDATASIZE SWAP1 CALLDATACOPY PUSH1 0x40 DUP1 MLOAD PUSH2 0x1097 DUP2 PUSH2 0x20A0 JUMP JUMPDEST CALLDATASIZE SWAP1 CALLDATACOPY PUSH1 0x40 MLOAD SWAP1 PUSH2 0x10A7 DUP3 PUSH2 0x20A0 JUMP JUMPDEST PUSH1 0x2 SLOAD DUP3 MSTORE PUSH1 0x3 SLOAD PUSH1 0x20 DUP4 ADD MSTORE PUSH1 0x40 MLOAD SWAP4 PUSH1 0x60 DUP6 ADD SWAP1 DUP2 GT DUP6 DUP3 LT OR PUSH2 0x12A9 JUMPI PUSH1 0x40 MSTORE DUP3 SLOAD DUP5 MSTORE PUSH1 0x6 SLOAD PUSH1 0x20 DUP6 ADD MSTORE PUSH1 0x7 SLOAD PUSH1 0x40 DUP6 ADD MSTORE PUSH1 0x40 MLOAD PUSH2 0x10EA DUP2 PUSH2 0x20A0 JUMP JUMPDEST PUSH1 0x9 SLOAD DUP2 MSTORE PUSH1 0x8 SLOAD PUSH1 0x20 DUP3 ADD MSTORE PUSH1 0x40 MLOAD SWAP2 PUSH2 0x1104 DUP4 PUSH2 0x20A0 JUMP JUMPDEST PUSH1 0xB SLOAD DUP4 MSTORE PUSH1 0xA SLOAD PUSH1 0x20 DUP5 ADD MSTORE PUSH1 0x1 DUP1 PUSH1 0xA0 SHL SUB SWAP3 DUP4 PUSH1 0xD SLOAD AND SWAP4 PUSH1 0xE SLOAD AND SWAP2 PUSH1 0x12 SLOAD SWAP3 PUSH1 0x13 SLOAD SWAP2 PUSH1 0x17 SLOAD SWAP4 PUSH1 0xFF PUSH1 0x18 SLOAD PUSH1 0xA0 SHR AND SWAP7 PUSH1 0x40 MLOAD SWAP3 PUSH1 0x0 DUP5 PUSH1 0xC SLOAD SWAP2 PUSH2 0x114E DUP4 PUSH2 0x20DE JUMP JUMPDEST DUP1 DUP4 MSTORE SWAP3 PUSH1 0x1 DUP2 AND SWAP1 DUP2 ISZERO PUSH2 0x128A JUMPI POP PUSH1 0x1 EQ PUSH2 0x123C JUMPI JUMPDEST SWAP3 SWAP15 SWAP3 PUSH2 0x1175 SWAP3 POP SUB DUP6 PUSH2 0x20BB JUMP JUMPDEST PUSH2 0x1182 PUSH1 0x40 MLOAD DUP1 SWAP13 PUSH2 0x2158 JUMP JUMPDEST SWAP12 PUSH1 0x40 DUP12 ADD JUMPDEST PUSH1 0x3 DUP3 LT PUSH2 0x1225 JUMPI POP POP SWAP2 PUSH2 0x11B8 PUSH2 0x11CA SWAP3 PUSH2 0x11AE PUSH1 0xFF SWAP10 SWAP9 SWAP8 SWAP7 SWAP6 PUSH1 0xA0 DUP15 ADD SWAP1 PUSH2 0x2158 JUMP JUMPDEST PUSH1 0xE0 DUP13 ADD SWAP1 PUSH2 0x2158 JUMP JUMPDEST PUSH2 0x220 DUP1 PUSH2 0x120 DUP13 ADD MSTORE DUP11 ADD SWAP1 PUSH2 0x2118 JUMP JUMPDEST SWAP7 PUSH2 0x140 DUP10 ADD MSTORE PUSH2 0x160 DUP9 ADD MSTORE DUP4 DUP4 AND ISZERO ISZERO PUSH2 0x180 DUP9 ADD MSTORE PUSH2 0x1A0 DUP8 ADD MSTORE PUSH2 0x1C0 DUP7 ADD MSTORE PUSH1 0x8 SHR AND ISZERO ISZERO PUSH2 0x1E0 DUP5 ADD MSTORE PUSH1 0x2 DUP2 LT ISZERO PUSH2 0x1210 JUMPI DUP3 SWAP4 POP PUSH2 0x200 DUP4 ADD MSTORE SUB SWAP1 RETURN JUMPDEST PUSH1 0x21 DUP5 PUSH4 0x4E487B71 PUSH1 0xE0 SHL PUSH1 0x0 MSTORE MSTORE PUSH1 0x24 PUSH1 0x0 REVERT JUMPDEST PUSH1 0x20 DUP1 DUP16 SWAP3 PUSH1 0x1 SWAP4 MLOAD DUP2 MSTORE ADD SWAP15 ADD SWAP2 ADD SWAP1 SWAP13 PUSH2 0x1188 JUMP JUMPDEST POP PUSH1 0xC PUSH1 0x0 SWAP1 DUP2 MSTORE SWAP1 SWAP2 PUSH1 0x0 DUP1 MLOAD PUSH1 0x20 PUSH2 0x2707 DUP4 CODECOPY DUP2 MLOAD SWAP2 MSTORE JUMPDEST DUP2 DUP4 LT PUSH2 0x126E JUMPI POP POP SWAP1 PUSH1 0x20 PUSH2 0x1175 SWAP3 DUP3 ADD ADD PUSH2 0x1166 JUMP JUMPDEST PUSH1 0x20 SWAP2 SWAP4 POP DUP1 PUSH1 0x1 SWAP2 SLOAD DUP4 DUP6 DUP12 ADD ADD MSTORE ADD SWAP2 ADD SWAP1 SWAP2 DUP7 SWAP3 PUSH2 0x1256 JUMP JUMPDEST PUSH1 0x20 SWAP3 POP PUSH2 0x1175 SWAP5 SWAP2 POP PUSH1 0xFF NOT AND DUP3 DUP5 ADD MSTORE ISZERO ISZERO PUSH1 0x5 SHL DUP3 ADD ADD PUSH2 0x1166 JUMP JUMPDEST PUSH1 0x41 DUP5 PUSH4 0x4E487B71 PUSH1 0xE0 SHL PUSH1 0x0 MSTORE MSTORE PUSH1 0x24 PUSH1 0x0 REVERT JUMPDEST DUP3 CALLVALUE PUSH2 0x222 JUMPI DUP1 PUSH1 0x3 NOT CALLDATASIZE ADD SLT PUSH2 0x222 JUMPI PUSH1 0x20 PUSH1 0xFF PUSH1 0x12 SLOAD AND PUSH1 0x40 MLOAD SWAP1 ISZERO ISZERO DUP2 MSTORE RETURN JUMPDEST SWAP1 POP CALLVALUE PUSH2 0x306 JUMPI DUP2 PUSH1 0x3 NOT CALLDATASIZE ADD SLT PUSH2 0x306 JUMPI PUSH1 0x20 SWAP1 SLOAD PUSH1 0x40 MLOAD SWAP1 DUP2 MSTORE RETURN JUMPDEST DUP3 CALLVALUE PUSH2 0x222 JUMPI DUP1 PUSH1 0x3 NOT CALLDATASIZE ADD SLT PUSH2 0x222 JUMPI PUSH1 0x20 PUSH1 0xB SLOAD PUSH1 0x40 MLOAD SWAP1 DUP2 MSTORE RETURN JUMPDEST DUP3 CALLVALUE PUSH2 0x222 JUMPI DUP1 PUSH1 0x3 NOT CALLDATASIZE ADD SLT PUSH2 0x222 JUMPI PUSH1 0x20 PUSH1 0xA SLOAD PUSH1 0x40 MLOAD SWAP1 DUP2 MSTORE RETURN JUMPDEST DUP3 CALLVALUE PUSH2 0x222 JUMPI DUP1 PUSH1 0x3 NOT CALLDATASIZE ADD SLT PUSH2 0x222 JUMPI PUSH2 0x1354 PUSH2 0x21CD JUMP JUMPDEST PUSH1 0x0 DUP1 SLOAD PUSH1 0x1 PUSH1 0x1 PUSH1 0xA0 SHL SUB NOT DUP2 AND DUP3 SSTORE PUSH1 0x1 PUSH1 0x1 PUSH1 0xA0 SHL SUB AND PUSH1 0x0 DUP1 MLOAD PUSH1 0x20 PUSH2 0x2747 DUP4 CODECOPY DUP2 MLOAD SWAP2 MSTORE DUP3 DUP1 LOG3 DUP1 RETURN JUMPDEST SWAP1 POP CALLVALUE PUSH2 0x306 JUMPI PUSH1 0x20 CALLDATASIZE PUSH1 0x3 NOT ADD SLT PUSH2 0x306 JUMPI CALLDATALOAD PUSH1 0x1 PUSH1 0x1 PUSH1 0xA0 SHL SUB DUP2 AND SWAP1 DUP2 SWAP1 SUB PUSH2 0x306 JUMPI PUSH1 0x40 DUP3 PUSH1 0xFF SWAP3 PUSH1 0x20 SWAP5 MSTORE PUSH1 0x1C DUP5 MSTORE KECCAK256 SLOAD AND PUSH1 0x40 MLOAD SWAP1 ISZERO ISZERO DUP2 MSTORE RETURN JUMPDEST DUP3 CALLVALUE PUSH2 0x222 JUMPI DUP1 PUSH1 0x3 NOT CALLDATASIZE ADD SLT PUSH2 0x222 JUMPI PUSH1 0xFF PUSH1 0x20 SWAP2 SLOAD PUSH1 0xA0 SHR AND PUSH1 0x40 MLOAD SWAP1 ISZERO ISZERO DUP2 MSTORE RETURN JUMPDEST DUP3 CALLVALUE PUSH2 0x222 JUMPI DUP1 PUSH1 0x3 NOT CALLDATASIZE ADD SLT PUSH2 0x222 JUMPI PUSH1 0x20 PUSH1 0x7 SLOAD PUSH1 0x40 MLOAD SWAP1 DUP2 MSTORE RETURN JUMPDEST DUP3 CALLVALUE PUSH2 0x222 JUMPI DUP1 PUSH1 0x3 NOT CALLDATASIZE ADD SLT PUSH2 0x222 JUMPI PUSH2 0x1420 PUSH2 0x22E0 JUMP JUMPDEST PUSH2 0x1428 PUSH2 0x24DB JUMP JUMPDEST PUSH1 0xFF PUSH1 0x18 SLOAD PUSH1 0xA0 SHR AND PUSH1 0x2 DUP2 LT ISZERO PUSH2 0x15B1 JUMPI PUSH2 0x1560 JUMPI CALLER DUP2 MSTORE PUSH1 0x1A PUSH1 0x20 MSTORE PUSH1 0x40 DUP2 KECCAK256 DUP1 SLOAD SWAP1 DUP3 SWAP1 SSTORE PUSH1 0x15 SLOAD DUP2 DUP1 DUP3 GT PUSH2 0x154F JUMPI POP POP DUP2 PUSH1 0x15 SSTORE JUMPDEST DUP1 ISZERO PUSH2 0x14FC JUMPI PUSH1 0x20 DUP2 PUSH2 0x1499 SWAP4 SWAP5 PUSH1 0x1 DUP1 PUSH1 0xA0 SHL SUB PUSH1 0xD SLOAD AND SWAP1 DUP7 PUSH1 0x40 MLOAD DUP1 SWAP8 DUP2 SWAP6 DUP3 SWAP5 PUSH4 0xA9059CBB PUSH1 0xE0 SHL DUP5 MSTORE CALLER SWAP1 DUP5 ADD PUSH2 0x22AC JUMP JUMPDEST SUB SWAP3 GAS CALL SWAP1 DUP2 ISZERO PUSH2 0x460 JUMPI PUSH32 0x3BEB98421D990A16CA9090D8D7C25AAEEFF9D855A287AC0854E6BEE846BA990D SWAP3 PUSH2 0x428 SWAP3 PUSH2 0x14DE JUMPI JUMPDEST POP PUSH1 0x40 MLOAD SWAP2 DUP3 SWAP2 CALLER SWAP1 DUP4 PUSH2 0x22C7 JUMP JUMPDEST PUSH2 0x14F5 SWAP1 PUSH1 0x20 RETURNDATASIZE DUP2 GT PUSH2 0x459 JUMPI PUSH2 0x449 DUP2 DUP4 PUSH2 0x20BB JUMP JUMPDEST POP DUP5 PUSH2 0x14CF JUMP JUMPDEST PUSH1 0x40 MLOAD PUSH3 0x461BCD PUSH1 0xE5 SHL DUP2 MSTORE PUSH1 0x20 DUP2 DUP6 ADD MSTORE PUSH1 0x26 PUSH1 0x24 DUP3 ADD MSTORE PUSH32 0x4C61756E63687061643A20557365722068617665206E6F20746F6B656E20746F PUSH1 0x44 DUP3 ADD MSTORE PUSH6 0x20636C61696D PUSH1 0xD0 SHL PUSH1 0x64 DUP3 ADD MSTORE PUSH1 0x84 SWAP1 REVERT JUMPDEST PUSH2 0x1558 SWAP2 PUSH2 0x2336 JUMP JUMPDEST PUSH1 0x15 SSTORE PUSH2 0x1462 JUMP JUMPDEST CALLER DUP2 MSTORE PUSH1 0x19 PUSH1 0x20 MSTORE PUSH2 0x157E PUSH1 0x40 DUP3 KECCAK256 SLOAD PUSH2 0x1578 PUSH2 0x23F4 JUMP JUMPDEST SWAP1 PUSH2 0x226F JUMP JUMPDEST PUSH1 0x13 SLOAD SWAP1 DUP2 ISZERO PUSH2 0x159C JUMPI DIV CALLER DUP3 MSTORE PUSH1 0x19 PUSH1 0x20 MSTORE DUP2 PUSH1 0x40 DUP2 KECCAK256 SSTORE PUSH2 0x1462 JUMP JUMPDEST PUSH1 0x12 DUP5 PUSH4 0x4E487B71 PUSH1 0xE0 SHL PUSH1 0x0 MSTORE MSTORE PUSH1 0x24 PUSH1 0x0 REVERT JUMPDEST POP PUSH1 0x21 PUSH1 0x24 SWAP3 PUSH4 0x4E487B71 PUSH1 0xE0 SHL DUP4 MSTORE MSTORE REVERT JUMPDEST SWAP1 POP CALLVALUE PUSH2 0x306 JUMPI PUSH1 0x20 CALLDATASIZE PUSH1 0x3 NOT ADD SLT PUSH2 0x306 JUMPI CALLDATALOAD PUSH1 0x1 PUSH1 0x1 PUSH1 0xA0 SHL SUB DUP2 AND SWAP1 DUP2 SWAP1 SUB PUSH2 0x306 JUMPI DUP2 PUSH1 0x40 SWAP2 PUSH1 0x20 SWAP4 MSTORE PUSH1 0x19 DUP4 MSTORE KECCAK256 SLOAD PUSH1 0x40 MLOAD SWAP1 DUP2 MSTORE RETURN JUMPDEST DUP3 CALLVALUE PUSH2 0x222 JUMPI DUP1 PUSH1 0x3 NOT CALLDATASIZE ADD SLT PUSH2 0x222 JUMPI PUSH1 0x20 PUSH1 0x9 SLOAD PUSH1 0x40 MLOAD SWAP1 DUP2 MSTORE RETURN JUMPDEST DUP3 CALLVALUE PUSH2 0x222 JUMPI DUP1 PUSH1 0x3 NOT CALLDATASIZE ADD SLT PUSH2 0x222 JUMPI PUSH1 0x40 MLOAD PUSH1 0x0 SWAP1 PUSH1 0xC SLOAD PUSH2 0x1641 DUP2 PUSH2 0x20DE JUMP JUMPDEST DUP1 DUP4 MSTORE PUSH1 0x1 SWAP2 DUP1 DUP4 AND SWAP1 DUP2 ISZERO PUSH2 0x16CA JUMPI POP PUSH1 0x1 EQ PUSH2 0x1682 JUMPI JUMPDEST PUSH2 0x167E DUP4 PUSH2 0x166A DUP2 DUP8 SUB DUP3 PUSH2 0x20BB JUMP JUMPDEST PUSH1 0x40 MLOAD SWAP2 DUP3 SWAP2 PUSH1 0x20 DUP4 MSTORE PUSH1 0x20 DUP4 ADD SWAP1 PUSH2 0x2118 JUMP JUMPDEST SUB SWAP1 RETURN JUMPDEST PUSH1 0xC PUSH1 0x0 SWAP1 DUP2 MSTORE PUSH1 0x20 SWAP5 POP SWAP2 PUSH1 0x0 DUP1 MLOAD PUSH1 0x20 PUSH2 0x2707 DUP4 CODECOPY DUP2 MLOAD SWAP2 MSTORE JUMPDEST DUP3 DUP5 LT PUSH2 0x16B7 JUMPI POP POP POP DUP2 ADD SWAP1 SWAP2 ADD SWAP1 PUSH2 0x166A DUP2 PUSH2 0x165A JUMP JUMPDEST DUP1 SLOAD DUP6 DUP6 ADD DUP8 ADD MSTORE SWAP3 DUP6 ADD SWAP3 DUP2 ADD PUSH2 0x169E JUMP JUMPDEST PUSH2 0x167E SWAP6 POP PUSH2 0x166A SWAP4 POP PUSH1 0x20 SWAP2 POP SWAP2 DUP5 SWAP3 PUSH1 0xFF NOT AND DUP3 DUP5 ADD MSTORE ISZERO ISZERO PUSH1 0x5 SHL DUP3 ADD ADD SWAP4 POP PUSH2 0x165A JUMP JUMPDEST DUP3 CALLVALUE PUSH2 0x222 JUMPI DUP1 PUSH1 0x3 NOT CALLDATASIZE ADD SLT PUSH2 0x222 JUMPI PUSH1 0x20 PUSH1 0x15 SLOAD PUSH1 0x40 MLOAD SWAP1 DUP2 MSTORE RETURN JUMPDEST DUP3 CALLVALUE PUSH2 0x222 JUMPI DUP1 PUSH1 0x3 NOT CALLDATASIZE ADD SLT PUSH2 0x222 JUMPI PUSH1 0x20 PUSH1 0x10 SLOAD PUSH1 0x40 MLOAD SWAP1 DUP2 MSTORE RETURN JUMPDEST DUP3 CALLVALUE PUSH2 0x222 JUMPI DUP1 PUSH1 0x3 NOT CALLDATASIZE ADD SLT PUSH2 0x222 JUMPI PUSH1 0x20 PUSH1 0x5 SLOAD PUSH1 0x40 MLOAD SWAP1 DUP2 MSTORE RETURN JUMPDEST DUP3 CALLVALUE PUSH2 0x222 JUMPI DUP1 PUSH1 0x3 NOT CALLDATASIZE ADD SLT PUSH2 0x222 JUMPI PUSH1 0x20 PUSH1 0x6 SLOAD PUSH1 0x40 MLOAD SWAP1 DUP2 MSTORE RETURN JUMPDEST SWAP1 POP CALLVALUE PUSH2 0x306 JUMPI PUSH1 0x20 CALLDATASIZE PUSH1 0x3 NOT ADD SLT PUSH2 0x306 JUMPI PUSH2 0x1785 PUSH2 0x21CD JUMP JUMPDEST PUSH1 0x5 SLOAD PUSH2 0x1793 JUMPI CALLDATALOAD PUSH1 0x5 SSTORE DUP1 RETURN JUMPDEST PUSH1 0x84 SWAP1 PUSH1 0x20 PUSH1 0x40 MLOAD SWAP2 PUSH3 0x461BCD PUSH1 0xE5 SHL DUP4 MSTORE DUP3 ADD MSTORE PUSH1 0x34 PUSH1 0x24 DUP3 ADD MSTORE PUSH32 0x4C61756E63687061643A20456E64206F662077686974656C6973742074696D65 PUSH1 0x44 DUP3 ADD MSTORE PUSH20 0x20686164206265656E20736574206265666F7265 PUSH1 0x60 SHL PUSH1 0x64 DUP3 ADD MSTORE REVERT JUMPDEST SWAP1 POP PUSH1 0x20 DUP1 PUSH1 0x3 NOT CALLDATASIZE ADD SLT PUSH2 0x4C2 JUMPI DUP2 CALLDATALOAD SWAP2 PUSH2 0x180E PUSH2 0x22E0 JUMP JUMPDEST PUSH1 0xFF PUSH1 0x12 SLOAD AND DUP1 PUSH2 0x1DBF JUMPI JUMPDEST PUSH2 0x1D60 JUMPI JUMPDEST PUSH1 0x17 SLOAD PUSH2 0x1D20 JUMPI DUP1 SLOAD TIMESTAMP GT ISZERO PUSH2 0x1CDE JUMPI TIMESTAMP PUSH1 0x6 SLOAD GT ISZERO PUSH2 0x1C92 JUMPI PUSH1 0xFF PUSH1 0x18 SLOAD PUSH1 0xA0 SHR AND PUSH1 0x2 DUP2 LT ISZERO PUSH2 0x1C7F JUMPI ISZERO PUSH2 0x1C1D JUMPI JUMPDEST PUSH1 0xE SLOAD PUSH1 0x1 PUSH1 0x1 PUSH1 0xA0 SHL SUB SWAP3 SWAP1 DUP6 SWAP1 DUP3 SWAP1 DUP6 AND DUP1 PUSH2 0x1BC9 JUMPI POP POP POP CALLVALUE DUP5 SUB PUSH2 0x1B7C JUMPI JUMPDEST CALLER DUP6 MSTORE PUSH1 0x19 DUP2 MSTORE PUSH1 0x40 DUP6 KECCAK256 SLOAD ISZERO PUSH2 0x1B4C JUMPI JUMPDEST CALLER DUP6 MSTORE PUSH1 0x19 DUP2 MSTORE PUSH1 0x40 DUP6 KECCAK256 PUSH2 0x189C DUP6 DUP3 SLOAD PUSH2 0x2225 JUMP JUMPDEST SWAP1 SSTORE PUSH1 0xFF PUSH1 0x18 SLOAD PUSH1 0xA0 SHR AND PUSH1 0x2 DUP2 LT ISZERO PUSH2 0x1B39 JUMPI ISZERO PUSH2 0x19B6 JUMPI JUMPDEST POP PUSH2 0x18C3 DUP4 PUSH1 0x13 SLOAD PUSH2 0x2225 JUMP JUMPDEST PUSH1 0x13 SSTORE DUP4 DUP3 PUSH1 0x18 SLOAD AND DUP4 PUSH1 0xD SLOAD AND SWAP1 DUP1 EXTCODESIZE ISZERO PUSH2 0x4C2 JUMPI PUSH1 0x64 DUP4 SWAP3 PUSH1 0x40 MLOAD SWAP5 DUP6 SWAP4 DUP5 SWAP3 PUSH4 0xA8F5AB01 PUSH1 0xE0 SHL DUP5 MSTORE CALLER DUP10 DUP6 ADD MSTORE PUSH1 0x24 DUP5 ADD MSTORE DUP2 PUSH1 0x44 DUP5 ADD MSTORE GAS CALL DUP1 ISZERO PUSH2 0x4A3 JUMPI PUSH2 0x19A1 JUMPI JUMPDEST POP SWAP1 DUP4 SWAP2 DUP2 PUSH1 0x18 SLOAD AND SWAP2 PUSH1 0xD SLOAD AND SWAP2 PUSH1 0x14 SLOAD SWAP1 DUP1 EXTCODESIZE ISZERO PUSH2 0x199D JUMPI PUSH2 0x1948 SWAP4 DUP6 DUP1 SWAP5 PUSH1 0x40 MLOAD SWAP7 DUP8 SWAP6 DUP7 SWAP5 DUP6 SWAP4 PUSH4 0x913B7E1D PUSH1 0xE0 SHL DUP6 MSTORE DUP5 ADD PUSH2 0x22AC JUMP JUMPDEST SUB SWAP3 GAS CALL DUP1 ISZERO PUSH2 0x4C6 JUMPI PUSH2 0x1989 JUMPI JUMPDEST POP PUSH1 0x40 MLOAD PUSH32 0x4DA1776B54EBFE9617CAF57A31E9A4B2F316BFD0EE0614D6C61597AE94BA251 SWAP1 DUP1 PUSH2 0x428 CALLER DUP7 DUP4 PUSH2 0x22C7 JUMP JUMPDEST PUSH2 0x1992 SWAP1 PUSH2 0x2077 JUMP JUMPDEST PUSH2 0x306 JUMPI DUP2 CODESIZE PUSH2 0x1957 JUMP JUMPDEST DUP5 DUP1 REVERT JUMPDEST PUSH2 0x19AE SWAP1 SWAP5 SWAP2 SWAP3 SWAP5 PUSH2 0x2077 JUMP JUMPDEST SWAP3 SWAP1 CODESIZE PUSH2 0x190C JUMP JUMPDEST CALLER DUP6 MSTORE PUSH1 0x19 DUP2 MSTORE PUSH1 0x40 DUP6 KECCAK256 SLOAD PUSH1 0xB SLOAD GT PUSH2 0x1AE6 JUMPI CALLER DUP6 MSTORE PUSH1 0x19 DUP2 MSTORE PUSH1 0x40 DUP6 KECCAK256 SLOAD PUSH1 0xA SLOAD LT PUSH2 0x1A93 JUMPI PUSH2 0x19EA PUSH1 0x9 SLOAD DUP6 PUSH2 0x226F JUMP JUMPDEST DUP3 DUP3 DUP6 PUSH1 0xD SLOAD AND PUSH1 0x40 MLOAD SWAP3 DUP4 DUP1 SWAP3 PUSH4 0x313CE567 PUSH1 0xE0 SHL DUP3 MSTORE GAS STATICCALL DUP1 ISZERO PUSH2 0xCD0 JUMPI PUSH1 0x1A SWAP3 PUSH2 0x1578 PUSH2 0x1A2B SWAP3 PUSH8 0xDE0B6B3A7640000 SWAP5 DUP12 SWAP2 PUSH2 0x1A66 JUMPI JUMPDEST POP PUSH2 0x229B JUMP JUMPDEST DIV SWAP2 PUSH2 0x1A39 DUP4 PUSH1 0x14 SLOAD PUSH2 0x2225 JUMP JUMPDEST PUSH1 0x14 SSTORE PUSH2 0x1A48 DUP4 PUSH1 0x15 SLOAD PUSH2 0x2225 JUMP JUMPDEST PUSH1 0x15 SSTORE CALLER DUP8 MSTORE MSTORE PUSH2 0x1A5E PUSH1 0x40 DUP7 KECCAK256 SWAP2 DUP3 SLOAD PUSH2 0x2225 JUMP JUMPDEST SWAP1 SSTORE CODESIZE PUSH2 0x18B6 JUMP JUMPDEST PUSH2 0x1A86 SWAP2 POP DUP8 RETURNDATASIZE DUP10 GT PUSH2 0x1A8C JUMPI JUMPDEST PUSH2 0x1A7E DUP2 DUP4 PUSH2 0x20BB JUMP JUMPDEST DUP2 ADD SWAP1 PUSH2 0x2282 JUMP JUMPDEST CODESIZE PUSH2 0x1A25 JUMP JUMPDEST POP RETURNDATASIZE PUSH2 0x1A74 JUMP JUMPDEST PUSH1 0x40 MLOAD PUSH3 0x461BCD PUSH1 0xE5 SHL DUP2 MSTORE SWAP2 DUP3 ADD MSTORE PUSH1 0x27 PUSH1 0x24 DUP3 ADD MSTORE PUSH32 0x4C61756E63687061643A204D617820636F6E747269627574696F6E206E6F7420 PUSH1 0x44 DUP3 ADD MSTORE PUSH7 0x1C995858DA1959 PUSH1 0xCA SHL PUSH1 0x64 DUP3 ADD MSTORE PUSH1 0x84 SWAP2 POP REVERT JUMPDEST PUSH1 0x40 MLOAD PUSH3 0x461BCD PUSH1 0xE5 SHL DUP2 MSTORE SWAP2 DUP3 ADD MSTORE PUSH1 0x27 PUSH1 0x24 DUP3 ADD MSTORE PUSH32 0x4C61756E63687061643A204D696E20636F6E747269627574696F6E206E6F7420 PUSH1 0x44 DUP3 ADD MSTORE PUSH7 0x1C995858DA1959 PUSH1 0xCA SHL PUSH1 0x64 DUP3 ADD MSTORE PUSH1 0x84 SWAP2 POP REVERT JUMPDEST PUSH4 0x4E487B71 PUSH1 0xE0 SHL DUP7 MSTORE PUSH1 0x21 DUP4 MSTORE PUSH1 0x24 DUP7 REVERT JUMPDEST PUSH1 0x16 DUP1 SLOAD DUP7 MSTORE PUSH1 0x1B DUP3 MSTORE PUSH1 0x40 DUP7 KECCAK256 DUP1 SLOAD PUSH1 0x1 PUSH1 0x1 PUSH1 0xA0 SHL SUB NOT AND CALLER OR SWAP1 SSTORE SLOAD PUSH2 0x1B74 SWAP1 PUSH2 0x2260 JUMP JUMPDEST PUSH1 0x16 SSTORE PUSH2 0x1886 JUMP JUMPDEST PUSH1 0x40 MLOAD PUSH3 0x461BCD PUSH1 0xE5 SHL DUP2 MSTORE SWAP2 DUP3 ADD MSTORE PUSH1 0x21 PUSH1 0x24 DUP3 ADD MSTORE PUSH32 0x4C61756E63687061643A20496E76616C6964207061796D656E7420616D6F756E PUSH1 0x44 DUP3 ADD MSTORE PUSH1 0x1D PUSH1 0xFA SHL PUSH1 0x64 DUP3 ADD MSTORE PUSH1 0x84 SWAP2 POP REVERT JUMPDEST PUSH1 0x64 PUSH1 0x40 MLOAD DUP1 SWAP5 DUP2 SWAP4 PUSH4 0x23B872DD PUSH1 0xE0 SHL DUP4 MSTORE CALLER DUP10 DUP5 ADD MSTORE ADDRESS PUSH1 0x24 DUP5 ADD MSTORE DUP11 PUSH1 0x44 DUP5 ADD MSTORE GAS CALL DUP1 ISZERO PUSH2 0xB8A JUMPI PUSH2 0x1C00 JUMPI JUMPDEST POP PUSH2 0x1874 JUMP JUMPDEST PUSH2 0x1C16 SWAP1 DUP3 RETURNDATASIZE DUP5 GT PUSH2 0x459 JUMPI PUSH2 0x449 DUP2 DUP4 PUSH2 0x20BB JUMP JUMPDEST POP CODESIZE PUSH2 0x1BFA JUMP JUMPDEST PUSH2 0x1C29 PUSH1 0x13 SLOAD DUP5 PUSH2 0x2225 JUMP JUMPDEST PUSH1 0x3 SLOAD LT ISZERO PUSH2 0x1851 JUMPI PUSH1 0x84 SWAP2 PUSH1 0x40 MLOAD SWAP2 PUSH3 0x461BCD PUSH1 0xE5 SHL DUP4 MSTORE DUP3 ADD MSTORE PUSH1 0x22 PUSH1 0x24 DUP3 ADD MSTORE PUSH32 0x4C61756E6368706164284E6F726D616C293A2048617264636170207265616368 PUSH1 0x44 DUP3 ADD MSTORE PUSH2 0x1959 PUSH1 0xF2 SHL PUSH1 0x64 DUP3 ADD MSTORE REVERT JUMPDEST PUSH4 0x4E487B71 PUSH1 0xE0 SHL DUP6 MSTORE PUSH1 0x21 DUP3 MSTORE PUSH1 0x24 DUP6 REVERT JUMPDEST PUSH1 0x84 SWAP2 PUSH1 0x40 MLOAD SWAP2 PUSH3 0x461BCD PUSH1 0xE5 SHL DUP4 MSTORE DUP3 ADD MSTORE PUSH1 0x21 PUSH1 0x24 DUP3 ADD MSTORE PUSH32 0x4C61756E63687061643A2053616C6520697320616C726561647920636C6F7365 PUSH1 0x44 DUP3 ADD MSTORE PUSH1 0x19 PUSH1 0xFA SHL PUSH1 0x64 DUP3 ADD MSTORE REVERT JUMPDEST PUSH1 0x64 SWAP2 PUSH1 0x40 MLOAD SWAP2 PUSH3 0x461BCD PUSH1 0xE5 SHL DUP4 MSTORE DUP3 ADD MSTORE PUSH1 0x1F PUSH1 0x24 DUP3 ADD MSTORE PUSH32 0x4C61756E63687061643A2053616C65206973206E6F74206F70656E2079657400 PUSH1 0x44 DUP3 ADD MSTORE REVERT JUMPDEST PUSH1 0x64 SWAP2 PUSH1 0x40 MLOAD SWAP2 PUSH3 0x461BCD PUSH1 0xE5 SHL DUP4 MSTORE DUP3 ADD MSTORE PUSH1 0x1B PUSH1 0x24 DUP3 ADD MSTORE PUSH27 0x2630BAB731B43830B21D1029B0B6329034B9903737BA1037B832B7 PUSH1 0x29 SHL PUSH1 0x44 DUP3 ADD MSTORE REVERT JUMPDEST PUSH1 0x5 SLOAD DUP1 ISZERO ISZERO SWAP1 DUP2 PUSH2 0x1DB4 JUMPI JUMPDEST POP PUSH2 0x181F JUMPI PUSH1 0x64 SWAP2 PUSH1 0x40 MLOAD SWAP2 PUSH3 0x461BCD PUSH1 0xE5 SHL DUP4 MSTORE DUP3 ADD MSTORE PUSH1 0x1E PUSH1 0x24 DUP3 ADD MSTORE PUSH32 0x4C61756E63687061643A20557365722063616E206E6F7420696E766573740000 PUSH1 0x44 DUP3 ADD MSTORE REVERT JUMPDEST SWAP1 POP TIMESTAMP LT ISZERO CODESIZE PUSH2 0x1D6D JUMP JUMPDEST POP CALLER DUP5 MSTORE PUSH1 0x1C DUP3 MSTORE PUSH1 0xFF PUSH1 0x40 DUP6 KECCAK256 SLOAD AND ISZERO PUSH2 0x181A JUMP JUMPDEST DUP3 CALLVALUE PUSH2 0x222 JUMPI PUSH1 0x20 DUP1 PUSH1 0x3 NOT CALLDATASIZE ADD SLT PUSH2 0x306 JUMPI PUSH1 0x1 PUSH1 0x1 PUSH1 0x40 SHL SUB SWAP1 DUP4 CALLDATALOAD SWAP1 DUP3 DUP3 GT PUSH2 0x302 JUMPI CALLDATASIZE PUSH1 0x23 DUP4 ADD SLT ISZERO PUSH2 0x302 JUMPI DUP2 DUP6 ADD CALLDATALOAD SWAP5 DUP4 DUP7 GT PUSH2 0x1F53 JUMPI PUSH1 0x40 MLOAD SWAP6 PUSH1 0x1F NOT SWAP4 PUSH2 0x1E2B PUSH1 0x1F DUP4 ADD DUP7 AND DUP6 ADD DUP10 PUSH2 0x20BB JUMP JUMPDEST DUP2 DUP9 MSTORE CALLDATASIZE PUSH1 0x24 DUP4 DUP4 ADD ADD GT PUSH2 0x1F66 JUMPI DUP2 DUP8 SWAP3 PUSH1 0x24 DUP7 SWAP4 ADD DUP4 DUP12 ADD CALLDATACOPY DUP9 ADD ADD MSTORE PUSH2 0x1E52 PUSH2 0x21CD JUMP JUMPDEST DUP6 MLOAD SWAP4 DUP5 GT PUSH2 0x1F53 JUMPI POP PUSH2 0x1E67 PUSH1 0xC SLOAD PUSH2 0x20DE JUMP JUMPDEST PUSH1 0x1F DUP2 GT PUSH2 0x1F0F JUMPI JUMPDEST POP DUP1 SWAP2 PUSH1 0x1F DUP5 GT PUSH1 0x1 EQ PUSH2 0x1EAD JUMPI POP POP DUP3 SWAP4 DUP3 SWAP4 SWAP3 PUSH2 0x1EA2 JUMPI JUMPDEST POP POP DUP2 PUSH1 0x1 SHL SWAP2 PUSH1 0x0 NOT SWAP1 PUSH1 0x3 SHL SHR NOT AND OR PUSH1 0xC SSTORE DUP1 RETURN JUMPDEST ADD MLOAD SWAP1 POP DUP4 DUP1 PUSH2 0x1E8A JUMP JUMPDEST DUP4 SWAP3 SWAP2 SWAP3 AND SWAP5 PUSH1 0xC DUP6 MSTORE DUP3 DUP6 KECCAK256 SWAP3 DUP6 SWAP1 JUMPDEST DUP8 DUP3 LT PUSH2 0x1EF7 JUMPI POP POP DUP4 PUSH1 0x1 SWAP6 SWAP7 LT PUSH2 0x1EDE JUMPI JUMPDEST POP POP POP DUP2 SHL ADD PUSH1 0xC SSTORE DUP1 RETURN JUMPDEST ADD MLOAD PUSH1 0x0 NOT PUSH1 0xF8 DUP5 PUSH1 0x3 SHL AND SHR NOT AND SWAP1 SSTORE DUP4 DUP1 DUP1 PUSH2 0x1ED2 JUMP JUMPDEST DUP1 PUSH1 0x1 DUP6 SWAP7 DUP3 SWAP5 SWAP7 DUP7 ADD MLOAD DUP2 SSTORE ADD SWAP6 ADD SWAP4 ADD SWAP1 PUSH2 0x1EBE JUMP JUMPDEST PUSH1 0xC DUP6 MSTORE DUP2 DUP6 KECCAK256 PUSH1 0x1F DUP6 ADD PUSH1 0x5 SHR DUP2 ADD SWAP2 DUP4 DUP7 LT PUSH2 0x1F49 JUMPI JUMPDEST PUSH1 0x1F ADD PUSH1 0x5 SHR ADD SWAP1 JUMPDEST DUP2 DUP2 LT PUSH2 0x1F3E JUMPI POP PUSH2 0x1E70 JUMP JUMPDEST DUP6 DUP2 SSTORE PUSH1 0x1 ADD PUSH2 0x1F31 JUMP JUMPDEST SWAP1 SWAP2 POP DUP2 SWAP1 PUSH2 0x1F28 JUMP JUMPDEST PUSH4 0x4E487B71 PUSH1 0xE0 SHL DUP6 MSTORE PUSH1 0x41 SWAP1 MSTORE PUSH1 0x24 DUP5 REVERT JUMPDEST DUP7 DUP1 REVERT JUMPDEST DUP3 CALLVALUE PUSH2 0x222 JUMPI DUP1 PUSH1 0x3 NOT CALLDATASIZE ADD SLT PUSH2 0x222 JUMPI PUSH1 0x20 PUSH1 0x11 SLOAD PUSH1 0x40 MLOAD SWAP1 DUP2 MSTORE RETURN JUMPDEST DUP3 CALLVALUE PUSH2 0x222 JUMPI DUP1 PUSH1 0x3 NOT CALLDATASIZE ADD SLT PUSH2 0x222 JUMPI PUSH1 0x20 PUSH1 0xFF PUSH1 0x12 SLOAD PUSH1 0x8 SHR AND PUSH1 0x40 MLOAD SWAP1 ISZERO ISZERO DUP2 MSTORE RETURN JUMPDEST DUP3 CALLVALUE PUSH2 0x222 JUMPI DUP1 PUSH1 0x3 NOT CALLDATASIZE ADD SLT PUSH2 0x222 JUMPI PUSH1 0x20 PUSH1 0x17 SLOAD PUSH1 0x40 MLOAD SWAP1 DUP2 MSTORE RETURN JUMPDEST DUP3 CALLVALUE PUSH2 0x222 JUMPI DUP1 PUSH1 0x3 NOT CALLDATASIZE ADD SLT PUSH2 0x222 JUMPI PUSH1 0x20 PUSH2 0x1FE7 PUSH2 0x23F4 JUMP JUMPDEST PUSH1 0x40 MLOAD SWAP1 DUP2 MSTORE RETURN JUMPDEST SWAP1 POP CALLVALUE PUSH2 0x306 JUMPI PUSH1 0x20 CALLDATASIZE PUSH1 0x3 NOT ADD SLT PUSH2 0x306 JUMPI SWAP1 PUSH1 0x20 SWAP2 CALLDATALOAD DUP2 MSTORE PUSH1 0x1B DUP3 MSTORE PUSH1 0x40 PUSH1 0x1 DUP1 PUSH1 0xA0 SHL SUB SWAP2 KECCAK256 SLOAD AND PUSH1 0x40 MLOAD SWAP1 DUP2 MSTORE RETURN JUMPDEST DUP3 CALLVALUE PUSH2 0x222 JUMPI DUP1 PUSH1 0x3 NOT CALLDATASIZE ADD SLT PUSH2 0x222 JUMPI PUSH1 0x20 PUSH1 0x16 SLOAD PUSH1 0x40 MLOAD SWAP1 DUP2 MSTORE RETURN JUMPDEST SWAP1 POP CALLVALUE PUSH2 0x306 JUMPI PUSH1 0x20 CALLDATASIZE PUSH1 0x3 NOT ADD SLT PUSH2 0x306 JUMPI CALLDATALOAD DUP1 ISZERO ISZERO DUP1 SWAP2 SUB PUSH2 0x306 JUMPI PUSH2 0x2066 PUSH2 0x21CD JUMP JUMPDEST PUSH1 0xFF DUP1 NOT PUSH1 0x12 SLOAD AND SWAP2 AND OR PUSH1 0x12 SSTORE DUP1 RETURN JUMPDEST PUSH1 0x1 PUSH1 0x1 PUSH1 0x40 SHL SUB DUP2 GT PUSH2 0x208A JUMPI PUSH1 0x40 MSTORE JUMP JUMPDEST PUSH4 0x4E487B71 PUSH1 0xE0 SHL PUSH1 0x0 MSTORE PUSH1 0x41 PUSH1 0x4 MSTORE PUSH1 0x24 PUSH1 0x0 REVERT JUMPDEST PUSH1 0x40 DUP2 ADD SWAP1 DUP2 LT PUSH1 0x1 PUSH1 0x1 PUSH1 0x40 SHL SUB DUP3 GT OR PUSH2 0x208A JUMPI PUSH1 0x40 MSTORE JUMP JUMPDEST PUSH1 0x1F SWAP1 SWAP2 ADD PUSH1 0x1F NOT AND DUP2 ADD SWAP1 PUSH1 0x1 PUSH1 0x1 PUSH1 0x40 SHL SUB DUP3 GT SWAP1 DUP3 LT OR PUSH2 0x208A JUMPI PUSH1 0x40 MSTORE JUMP JUMPDEST SWAP1 PUSH1 0x1 DUP3 DUP2 SHR SWAP3 AND DUP1 ISZERO PUSH2 0x210E JUMPI JUMPDEST PUSH1 0x20 DUP4 LT EQ PUSH2 0x20F8 JUMPI JUMP JUMPDEST PUSH4 0x4E487B71 PUSH1 0xE0 SHL PUSH1 0x0 MSTORE PUSH1 0x22 PUSH1 0x4 MSTORE PUSH1 0x24 PUSH1 0x0 REVERT JUMPDEST SWAP2 PUSH1 0x7F AND SWAP2 PUSH2 0x20ED JUMP JUMPDEST SWAP2 SWAP1 DUP3 MLOAD SWAP3 DUP4 DUP3 MSTORE PUSH1 0x0 JUMPDEST DUP5 DUP2 LT PUSH2 0x2144 JUMPI POP POP DUP3 PUSH1 0x0 PUSH1 0x20 DUP1 SWAP5 SWAP6 DUP5 ADD ADD MSTORE PUSH1 0x1F DUP1 NOT SWAP2 ADD AND ADD ADD SWAP1 JUMP JUMPDEST PUSH1 0x20 DUP2 DUP4 ADD DUP2 ADD MLOAD DUP5 DUP4 ADD DUP3 ADD MSTORE ADD PUSH2 0x2123 JUMP JUMPDEST PUSH1 0x0 SWAP2 JUMPDEST PUSH1 0x2 DUP4 LT PUSH2 0x2169 JUMPI POP POP POP JUMP JUMPDEST PUSH1 0x1 SWAP1 DUP3 MLOAD DUP2 MSTORE PUSH1 0x20 DUP1 SWAP2 ADD SWAP3 ADD SWAP3 ADD SWAP2 SWAP1 PUSH2 0x215C JUMP JUMPDEST SWAP1 PUSH1 0x20 PUSH1 0x3 NOT DUP4 ADD SLT PUSH2 0x497 JUMPI PUSH1 0x1 PUSH1 0x1 PUSH1 0x40 SHL SUB SWAP2 PUSH1 0x4 CALLDATALOAD SWAP1 DUP4 DUP3 GT PUSH2 0x497 JUMPI DUP1 PUSH1 0x23 DUP4 ADD SLT ISZERO PUSH2 0x497 JUMPI DUP2 PUSH1 0x4 ADD CALLDATALOAD SWAP4 DUP5 GT PUSH2 0x497 JUMPI PUSH1 0x24 DUP5 PUSH1 0x5 SHL DUP4 ADD ADD GT PUSH2 0x497 JUMPI PUSH1 0x24 ADD SWAP2 SWAP1 JUMP JUMPDEST PUSH1 0x0 SLOAD PUSH1 0x1 PUSH1 0x1 PUSH1 0xA0 SHL SUB AND CALLER SUB PUSH2 0x21E1 JUMPI JUMP JUMPDEST PUSH1 0x64 PUSH1 0x40 MLOAD PUSH3 0x461BCD PUSH1 0xE5 SHL DUP2 MSTORE PUSH1 0x20 PUSH1 0x4 DUP3 ADD MSTORE PUSH1 0x20 PUSH1 0x24 DUP3 ADD MSTORE PUSH32 0x4F776E61626C653A2063616C6C6572206973206E6F7420746865206F776E6572 PUSH1 0x44 DUP3 ADD MSTORE REVERT JUMPDEST SWAP2 SWAP1 DUP3 ADD DUP1 SWAP3 GT PUSH2 0x2232 JUMPI JUMP JUMPDEST PUSH4 0x4E487B71 PUSH1 0xE0 SHL PUSH1 0x0 MSTORE PUSH1 0x11 PUSH1 0x4 MSTORE PUSH1 0x24 PUSH1 0x0 REVERT JUMPDEST SWAP1 DUP2 PUSH1 0x20 SWAP2 SUB SLT PUSH2 0x497 JUMPI MLOAD DUP1 ISZERO ISZERO DUP2 SUB PUSH2 0x497 JUMPI SWAP1 JUMP JUMPDEST PUSH1 0x0 NOT DUP2 EQ PUSH2 0x2232 JUMPI PUSH1 0x1 ADD SWAP1 JUMP JUMPDEST DUP2 DUP2 MUL SWAP3 SWAP2 DUP2 ISZERO SWAP2 DUP5 DIV EQ OR ISZERO PUSH2 0x2232 JUMPI JUMP JUMPDEST SWAP1 DUP2 PUSH1 0x20 SWAP2 SUB SLT PUSH2 0x497 JUMPI MLOAD PUSH1 0xFF DUP2 AND DUP2 SUB PUSH2 0x497 JUMPI SWAP1 JUMP JUMPDEST PUSH1 0xFF AND PUSH1 0x4D DUP2 GT PUSH2 0x2232 JUMPI PUSH1 0xA EXP SWAP1 JUMP JUMPDEST PUSH1 0x1 PUSH1 0x1 PUSH1 0xA0 SHL SUB SWAP1 SWAP2 AND DUP2 MSTORE PUSH1 0x20 DUP2 ADD SWAP2 SWAP1 SWAP2 MSTORE PUSH1 0x40 ADD SWAP1 JUMP JUMPDEST SWAP1 DUP2 MSTORE PUSH1 0x1 PUSH1 0x1 PUSH1 0xA0 SHL SUB SWAP1 SWAP2 AND PUSH1 0x20 DUP3 ADD MSTORE PUSH1 0x40 ADD SWAP1 JUMP JUMPDEST PUSH1 0x2 PUSH1 0x1 SLOAD EQ PUSH2 0x22F1 JUMPI PUSH1 0x2 PUSH1 0x1 SSTORE JUMP JUMPDEST PUSH1 0x40 MLOAD PUSH3 0x461BCD PUSH1 0xE5 SHL DUP2 MSTORE PUSH1 0x20 PUSH1 0x4 DUP3 ADD MSTORE PUSH1 0x1F PUSH1 0x24 DUP3 ADD MSTORE PUSH32 0x5265656E7472616E637947756172643A207265656E7472616E742063616C6C00 PUSH1 0x44 DUP3 ADD MSTORE PUSH1 0x64 SWAP1 REVERT JUMPDEST SWAP2 SWAP1 DUP3 SUB SWAP2 DUP3 GT PUSH2 0x2232 JUMPI JUMP JUMPDEST ISZERO PUSH2 0x234A JUMPI JUMP JUMPDEST PUSH1 0x40 MLOAD PUSH3 0x461BCD PUSH1 0xE5 SHL DUP2 MSTORE PUSH1 0x20 PUSH1 0x4 DUP3 ADD MSTORE PUSH1 0x1D PUSH1 0x24 DUP3 ADD MSTORE PUSH32 0x4C61756E63687061643A2043616C6C6572206E6F7420616C6C6F776564000000 PUSH1 0x44 DUP3 ADD MSTORE PUSH1 0x64 SWAP1 REVERT JUMPDEST SWAP2 SWAP1 DUP2 LT ISZERO PUSH2 0x239F JUMPI PUSH1 0x5 SHL ADD SWAP1 JUMP JUMPDEST PUSH4 0x4E487B71 PUSH1 0xE0 SHL PUSH1 0x0 MSTORE PUSH1 0x32 PUSH1 0x4 MSTORE PUSH1 0x24 PUSH1 0x0 REVERT JUMPDEST CALLDATALOAD PUSH1 0x1 PUSH1 0x1 PUSH1 0xA0 SHL SUB DUP2 AND DUP2 SUB PUSH2 0x497 JUMPI SWAP1 JUMP JUMPDEST PUSH1 0x1 PUSH1 0x1 PUSH1 0x40 SHL SUB DUP2 GT PUSH2 0x208A JUMPI PUSH1 0x5 SHL PUSH1 0x20 ADD SWAP1 JUMP JUMPDEST DUP1 MLOAD DUP3 LT ISZERO PUSH2 0x239F JUMPI PUSH1 0x20 SWAP2 PUSH1 0x5 SHL ADD ADD SWAP1 JUMP JUMPDEST PUSH1 0x4 PUSH2 0x2405 PUSH1 0x3 SLOAD PUSH1 0x9 SLOAD SWAP1 PUSH2 0x226F JUMP JUMPDEST PUSH1 0xD SLOAD PUSH1 0x40 MLOAD PUSH4 0x313CE567 PUSH1 0xE0 SHL DUP2 MSTORE SWAP3 PUSH1 0x20 SWAP2 DUP5 SWAP2 SWAP1 DUP3 SWAP1 PUSH1 0x1 PUSH1 0x1 PUSH1 0xA0 SHL SUB AND GAS STATICCALL SWAP1 DUP2 ISZERO PUSH2 0x246A JUMPI PUSH2 0x1578 PUSH2 0x244E SWAP3 PUSH8 0xDE0B6B3A7640000 SWAP5 PUSH1 0x0 SWAP2 PUSH2 0x2452 JUMPI POP PUSH2 0x229B JUMP JUMPDEST DIV SWAP1 JUMP JUMPDEST PUSH2 0x1A86 SWAP2 POP PUSH1 0x20 RETURNDATASIZE DUP2 GT PUSH2 0x1A8C JUMPI PUSH2 0x1A7E DUP2 DUP4 PUSH2 0x20BB JUMP JUMPDEST PUSH1 0x40 MLOAD RETURNDATASIZE PUSH1 0x0 DUP3 RETURNDATACOPY RETURNDATASIZE SWAP1 REVERT JUMPDEST ISZERO PUSH2 0x247D JUMPI JUMP JUMPDEST PUSH1 0x40 MLOAD PUSH3 0x461BCD PUSH1 0xE5 SHL DUP2 MSTORE PUSH1 0x20 PUSH1 0x4 DUP3 ADD MSTORE PUSH1 0x30 PUSH1 0x24 DUP3 ADD MSTORE PUSH32 0x4C61756E63687061643A2053616C6520697320616C72656164792066696E6973 PUSH1 0x44 DUP3 ADD MSTORE PUSH16 0x1A1959081BDC8818D85B98D95B1B1959 PUSH1 0x82 SHL PUSH1 0x64 DUP3 ADD MSTORE PUSH1 0x84 SWAP1 REVERT JUMPDEST PUSH1 0x6 SLOAD TIMESTAMP GT ISZERO PUSH2 0x25D0 JUMPI PUSH2 0x24F1 PUSH1 0x17 SLOAD ISZERO PUSH2 0x2476 JUMP JUMPDEST PUSH1 0xFF PUSH1 0x18 SLOAD PUSH1 0xA0 SHR AND PUSH1 0x2 DUP2 LT ISZERO PUSH2 0x25BA JUMPI PUSH2 0x2569 JUMPI PUSH1 0x13 SLOAD PUSH1 0x2 SLOAD GT PUSH2 0x2514 JUMPI JUMP JUMPDEST PUSH1 0x40 MLOAD PUSH3 0x461BCD PUSH1 0xE5 SHL DUP2 MSTORE PUSH1 0x20 PUSH1 0x4 DUP3 ADD MSTORE PUSH1 0x27 PUSH1 0x24 DUP3 ADD MSTORE PUSH32 0x4C61756E6368706164284E6F726D616C293A20536F667420636170206E6F7420 PUSH1 0x44 DUP3 ADD MSTORE PUSH7 0x1C995858DA1959 PUSH1 0xCA SHL PUSH1 0x64 DUP3 ADD MSTORE PUSH1 0x84 SWAP1 REVERT JUMPDEST PUSH1 0x13 SLOAD PUSH1 0x3 SLOAD GT PUSH2 0x2576 JUMPI JUMP JUMPDEST PUSH1 0x64 PUSH1 0x40 MLOAD PUSH3 0x461BCD PUSH1 0xE5 SHL DUP2 MSTORE PUSH1 0x20 PUSH1 0x4 DUP3 ADD MSTORE PUSH1 0x20 PUSH1 0x24 DUP3 ADD MSTORE PUSH32 0x4C61756E63687061642846616972293A20436170206E6F742072656163686564 PUSH1 0x44 DUP3 ADD MSTORE REVERT JUMPDEST PUSH4 0x4E487B71 PUSH1 0xE0 SHL PUSH1 0x0 MSTORE PUSH1 0x21 PUSH1 0x4 MSTORE PUSH1 0x24 PUSH1 0x0 REVERT JUMPDEST PUSH1 0x40 MLOAD PUSH3 0x461BCD PUSH1 0xE5 SHL DUP2 MSTORE PUSH1 0x20 PUSH1 0x4 DUP3 ADD MSTORE PUSH1 0x35 PUSH1 0x24 DUP3 ADD MSTORE PUSH32 0x4C61756E63687061643A2046696E697368696E67206C61756E63687061642064 PUSH1 0x44 DUP3 ADD MSTORE PUSH21 0x6F6573206E6F7420617661696C61626C65206E6F77 PUSH1 0x58 SHL PUSH1 0x64 DUP3 ADD MSTORE PUSH1 0x84 SWAP1 REVERT JUMPDEST PUSH2 0x263F PUSH1 0x17 SLOAD ISZERO PUSH2 0x2476 JUMP JUMPDEST PUSH1 0xFF PUSH1 0x18 SLOAD PUSH1 0xA0 SHR AND PUSH1 0x2 DUP2 LT ISZERO PUSH2 0x25BA JUMPI PUSH2 0x26B4 JUMPI PUSH1 0x13 SLOAD PUSH1 0x2 SLOAD GT ISZERO PUSH2 0x2663 JUMPI JUMP JUMPDEST PUSH1 0x40 MLOAD PUSH3 0x461BCD PUSH1 0xE5 SHL DUP2 MSTORE PUSH1 0x20 PUSH1 0x4 DUP3 ADD MSTORE PUSH1 0x23 PUSH1 0x24 DUP3 ADD MSTORE PUSH32 0x4C61756E6368706164284E6F726D616C293A20536F6674206361702072656163 PUSH1 0x44 DUP3 ADD MSTORE PUSH3 0x1A1959 PUSH1 0xEA SHL PUSH1 0x64 DUP3 ADD MSTORE PUSH1 0x84 SWAP1 REVERT JUMPDEST PUSH1 0x13 SLOAD PUSH1 0x3 SLOAD GT ISZERO PUSH2 0x26C2 JUMPI JUMP JUMPDEST PUSH1 0x40 MLOAD PUSH3 0x461BCD PUSH1 0xE5 SHL DUP2 MSTORE PUSH1 0x20 PUSH1 0x4 DUP3 ADD MSTORE PUSH1 0x1C PUSH1 0x24 DUP3 ADD MSTORE PUSH28 0x13185D5B98DA1C18590A11985A5C8A4E8810D85C081C995858DA1959 PUSH1 0x22 SHL PUSH1 0x44 DUP3 ADD MSTORE PUSH1 0x64 SWAP1 REVERT INVALID 0xDF PUSH10 0x66C971051C3D54EC5916 0x26 MOD MSTORE8 EQ SWAP4 0xA5 EQ DIV LOG0 MUL DUP5 0x2F JUMP STOP SWAP14 PUSH31 0x5CF4A8C7EDB8F34A75DC967013BAC8C91F25135D59BC85673D66FC55A7DBD7 0xED EXTCODEHASH DUP11 0x1F PUSH10 0x8BE0079C531659141344 0xCD 0x1F 0xD0 LOG4 CALLCODE DUP5 NOT 0x49 PUSH32 0x9722A3DAAFE3B4186F6B6457E0A264697066735822122031A962B978090D5ED6 REVERT 0xC7 0x2C 0xD1 RETURNDATASIZE MULMOD PUSH13 0xFD800796FE416D9A55F0D173E7 SIGNEXTEND PUSH8 0xE864736F6C634300 ADDMOD GT STOP CALLER DUP12 0xE0 SMOD SWAP13 MSTORE8 AND MSIZE EQ SGT DIFFICULTY 0xCD 0x1F 0xD0 LOG4 CALLCODE DUP5 NOT 0x49 PUSH32 0x9722A3DAAFE3B4186F6B6457E0A26469706673582212203C86C38A1018E6E405 0x1E DUP6 EXTCODEHASH 0xE3 0xEF DUP5 0x2D 0xDB 0xB2 DUP14 GASLIMIT 0xD9 CHAINID 0x5C 0xEF PC SWAP13 SWAP3 TIMESTAMP 0xD6 0xB3 DUP3 PUSH29 0x64736F6C63430008110033000000000000000000000000000000000000 "},"methodIdentifiers":{"addToUserLaunchpad(address,address,uint8)":"a8f5ab01","changeLaunchpadState(address,uint256)":"07fcebce","createLaunchpad(uint256[2],uint256[3],uint256[2],uint256[2],uint256[2],address[2],string,bool,uint8)":"6adfc3ba","deployCost()":"7788a7ee","getAllLaunchpads()":"7c0bb6b7","getDeployedLaunchpads(uint256,uint256,uint8)":"c1282e11","getUserContributions(address,uint8)":"070e6e7e","launchpadById(uint8,uint256)":"783997c2","launchpadByToken(address)":"f007735c","launchpadCount(uint8)":"8e7780dc","launchpadIdByAddress(uint8,address)":"7240e0e5","launchpadRaisedAmountChangedReport(address,uint256)":"913b7e1d","owner()":"8da5cb5b","renounceOwnership()":"715018a6","setDeployPrice(uint256)":"86cb9e0c","transferOwnership(address)":"f2fde38b","userLaunchpadCreated(uint8,address,uint256)":"00682bcc","userLaunchpadInvested(uint8,address,uint256)":"e1fa6825"}}}}}