{"contracts/LaunchpadDeployer.sol":{"LaunchpadDeployer":{"abi":[{"anonymous":false,"inputs":[{"indexed":true,"internalType":"address","name":"previousOwner","type":"address"},{"indexed":true,"internalType":"address","name":"newOwner","type":"address"}],"name":"OwnershipTransferred","type":"event"},{"anonymous":false,"inputs":[{"indexed":false,"internalType":"address","name":"launchpad","type":"address"},{"indexed":false,"internalType":"bool","name":"usingWhitelist","type":"bool"},{"indexed":false,"internalType":"uint256","name":"endOfWhitelistTime","type":"uint256"}],"name":"launchpadActionChanged","type":"event"},{"anonymous":false,"inputs":[{"indexed":false,"internalType":"address","name":"launchpad","type":"address"},{"indexed":false,"internalType":"address","name":"deployer","type":"address"},{"indexed":false,"internalType":"address","name":"tokenSale","type":"address"},{"indexed":false,"internalType":"address","name":"tokenPayment","type":"address"},{"indexed":false,"internalType":"enum IEnums.LAUNCHPAD_TYPE","name":"launchPadType","type":"uint8"},{"indexed":false,"internalType":"string","name":"uriData","type":"string"},{"indexed":false,"internalType":"bool","name":"refundWhenFinish","type":"bool"},{"indexed":false,"internalType":"uint256","name":"startTime","type":"uint256"},{"indexed":false,"internalType":"uint256","name":"endTime","type":"uint256"},{"indexed":false,"internalType":"uint256","name":"claimTime","type":"uint256"},{"indexed":false,"internalType":"uint256","name":"adminTokenSaleFee","type":"uint256"},{"indexed":false,"internalType":"string","name":"opcode","type":"string"}],"name":"launchpadDeployed","type":"event"},{"anonymous":false,"inputs":[{"indexed":false,"internalType":"address","name":"launchpad","type":"address"},{"indexed":false,"internalType":"uint256","name":"softcap","type":"uint256"},{"indexed":false,"internalType":"uint256","name":"hardcap","type":"uint256"},{"indexed":false,"internalType":"uint256","name":"presaleRate","type":"uint256"},{"indexed":false,"internalType":"uint256","name":"listingRate","type":"uint256"},{"indexed":false,"internalType":"uint256","name":"minBuyPerParticipant","type":"uint256"},{"indexed":false,"internalType":"uint256","name":"maxBuyPerParticipant","type":"uint256"}],"name":"launchpadDeployedParameter","type":"event"},{"anonymous":false,"inputs":[{"indexed":false,"internalType":"address","name":"launchpad","type":"address"},{"indexed":false,"internalType":"uint256","name":"newRaisedAmount","type":"uint256"},{"indexed":false,"internalType":"uint256","name":"newNeedToRaised","type":"uint256"}],"name":"launchpadRaisedChanged","type":"event"},{"anonymous":false,"inputs":[{"indexed":false,"internalType":"address","name":"launchpad","type":"address"},{"indexed":false,"internalType":"uint256","name":"state","type":"uint256"}],"name":"launchpadStateChanged","type":"event"},{"anonymous":false,"inputs":[{"indexed":false,"internalType":"address","name":"launchpad","type":"address"},{"indexed":false,"internalType":"address[]","name":"users","type":"address[]"},{"indexed":false,"internalType":"uint256","name":"action","type":"uint256"}],"name":"launchpadWhitelistUsersChanged","type":"event"},{"inputs":[{"internalType":"address","name":"_user","type":"address"},{"internalType":"address","name":"_token","type":"address"},{"internalType":"enum IEnums.LAUNCHPAD_TYPE","name":"_launchpadType","type":"uint8"}],"name":"addToUserLaunchpad","outputs":[],"stateMutability":"nonpayable","type":"function"},{"inputs":[{"internalType":"address","name":"launchpad","type":"address"},{"internalType":"bool","name":"usingWhitelist","type":"bool"},{"internalType":"uint256","name":"endOfWhitelistTime","type":"uint256"}],"name":"changeActionChanged","outputs":[],"stateMutability":"nonpayable","type":"function"},{"inputs":[{"internalType":"address","name":"_token","type":"address"},{"internalType":"uint256","name":"_newState","type":"uint256"}],"name":"changeLaunchpadState","outputs":[],"stateMutability":"nonpayable","type":"function"},{"inputs":[{"internalType":"address","name":"launchpad","type":"address"},{"internalType":"address[]","name":"users","type":"address[]"},{"internalType":"uint256","name":"action","type":"uint256"}],"name":"changeWhitelistUsers","outputs":[],"stateMutability":"nonpayable","type":"function"},{"inputs":[{"internalType":"uint256[2]","name":"_caps","type":"uint256[2]"},{"internalType":"uint256[3]","name":"_times","type":"uint256[3]"},{"internalType":"uint256[2]","name":"_rates","type":"uint256[2]"},{"internalType":"uint256[2]","name":"_limits","type":"uint256[2]"},{"internalType":"uint256[2]","name":"_adminFees","type":"uint256[2]"},{"internalType":"address[2]","name":"_tokens","type":"address[2]"},{"internalType":"string","name":"_URIData","type":"string"},{"internalType":"bool","name":"_refundWhenFinish","type":"bool"},{"internalType":"enum IEnums.LAUNCHPAD_TYPE","name":"_launchpadType","type":"uint8"},{"internalType":"string","name":"_opcode","type":"string"}],"name":"createLaunchpad","outputs":[],"stateMutability":"payable","type":"function"},{"inputs":[],"name":"deployCost","outputs":[{"internalType":"uint256","name":"","type":"uint256"}],"stateMutability":"view","type":"function"},{"inputs":[],"name":"getAllLaunchpads","outputs":[{"internalType":"address[]","name":"","type":"address[]"},{"internalType":"address[]","name":"","type":"address[]"}],"stateMutability":"view","type":"function"},{"inputs":[{"internalType":"uint256","name":"startIndex","type":"uint256"},{"internalType":"uint256","name":"endIndex","type":"uint256"},{"internalType":"enum IEnums.LAUNCHPAD_TYPE","name":"_launchpadType","type":"uint8"}],"name":"getDeployedLaunchpads","outputs":[{"internalType":"address[]","name":"","type":"address[]"}],"stateMutability":"view","type":"function"},{"inputs":[{"internalType":"address","name":"_user","type":"address"},{"internalType":"enum IEnums.LAUNCHPAD_TYPE","name":"_launchpadType","type":"uint8"}],"name":"getUserContributions","outputs":[{"internalType":"uint256[]","name":"ids","type":"uint256[]"},{"internalType":"uint256[]","name":"contributions","type":"uint256[]"}],"stateMutability":"view","type":"function"},{"inputs":[{"internalType":"enum IEnums.LAUNCHPAD_TYPE","name":"","type":"uint8"},{"internalType":"uint256","name":"","type":"uint256"}],"name":"launchpadById","outputs":[{"internalType":"address","name":"","type":"address"}],"stateMutability":"view","type":"function"},{"inputs":[{"internalType":"address","name":"","type":"address"}],"name":"launchpadByToken","outputs":[{"internalType":"address","name":"","type":"address"}],"stateMutability":"view","type":"function"},{"inputs":[{"internalType":"enum IEnums.LAUNCHPAD_TYPE","name":"","type":"uint8"}],"name":"launchpadCount","outputs":[{"internalType":"uint256","name":"","type":"uint256"}],"stateMutability":"view","type":"function"},{"inputs":[{"internalType":"enum IEnums.LAUNCHPAD_TYPE","name":"","type":"uint8"},{"internalType":"address","name":"","type":"address"}],"name":"launchpadIdByAddress","outputs":[{"internalType":"uint256","name":"","type":"uint256"}],"stateMutability":"view","type":"function"},{"inputs":[{"internalType":"address","name":"_token","type":"address"},{"internalType":"uint256","name":"_currentRaisedAmount","type":"uint256"},{"internalType":"uint256","name":"_currentNeedToRaised","type":"uint256"}],"name":"launchpadRaisedAmountChangedReport","outputs":[],"stateMutability":"nonpayable","type":"function"},{"inputs":[],"name":"owner","outputs":[{"internalType":"address","name":"","type":"address"}],"stateMutability":"view","type":"function"},{"inputs":[],"name":"renounceOwnership","outputs":[],"stateMutability":"nonpayable","type":"function"},{"inputs":[{"internalType":"uint256","name":"_price","type":"uint256"}],"name":"setDeployPrice","outputs":[],"stateMutability":"nonpayable","type":"function"},{"inputs":[{"internalType":"address","name":"newOwner","type":"address"}],"name":"transferOwnership","outputs":[],"stateMutability":"nonpayable","type":"function"},{"inputs":[{"internalType":"enum IEnums.LAUNCHPAD_TYPE","name":"","type":"uint8"},{"internalType":"address","name":"","type":"address"},{"internalType":"uint256","name":"","type":"uint256"}],"name":"userLaunchpadCreated","outputs":[{"internalType":"address","name":"","type":"address"}],"stateMutability":"view","type":"function"},{"inputs":[{"internalType":"enum IEnums.LAUNCHPAD_TYPE","name":"","type":"uint8"},{"internalType":"address","name":"","type":"address"},{"internalType":"uint256","name":"","type":"uint256"}],"name":"userLaunchpadInvested","outputs":[{"internalType":"address","name":"","type":"address"}],"stateMutability":"view","type":"function"}],"evm":{"bytecode":{"linkReferences":{},"object":"608080604052346100665760008054336001600160a01b0319821681178355916001600160a01b03909116907f8be0079c531659141344cd1fd0a4f28419497f9722a3daafe3b4186f6b6457e09080a366038d7ea4c68000600155614a54908161006c8239f35b600080fdfe608060405260043610156200001357600080fd5b6000803560e01c8062682bcc1462001564578063070e6e7e14620013d257806307fcebce14620012f65780630b9d5ff51462000a19578063673c8e31146200091c578063715018a614620008cf5780637240e0e514620008785780637788a7ee1462000858578063783997c214620008095780637c0bb6b714620006bb57806386cb9e0c14620006945780638da5cb5b146200066b5780638e7780dc1462000630578063a8f5ab011462000509578063af299fda146200043d578063c1282e1114620002fe578063d7c7418f1462000289578063e1fa68251462000208578063f007735c14620001c85763f2fde38b146200010d57600080fd5b34620001c5576020366003190112620001c5576200012a620015cf565b6200013462001837565b6001600160a01b0390811690811562000171576000548260018060a01b031982161760005516600080516020620049ff833981519152600080a380f35b60405162461bcd60e51b815260206004820152602660248201527f4f776e61626c653a206e6577206f776e657220697320746865207a65726f206160448201526564647265737360d01b6064820152608490fd5b80fd5b5034620001c5576020366003190112620001c5576020906001600160a01b039060409082620001f6620015cf565b16815260028452205416604051908152f35b5034620001c5576200021a3662001612565b929091600281101562000273576000526006602052604060002060018060a01b038093166000526020526040600020908154841015620001c557506020926200026391620016ca565b9190546040519260031b1c168152f35b634e487b7160e01b600052602160045260246000fd5b5034620001c5576060366003190112620001c557620002a7620015cf565b602435801515809103620002f9577f26d85214ce01d532a5d244ea2f207b26d947f38742cb8018116d5fe5369c3310916060916040519160018060a01b0316825260208201526044356040820152a180f35b600080fd5b5034620001c5576060366003190112620001c55760043560243590604435926002841015620001c55782620003338562001662565b54111562000407575b81830391838311620003f15760018301809311620003dd5762000360829362001918565b9481935b85851115620003895760405160208082528190620003859082018a620017f8565b0390f35b620003cf620003d6916200039d846200167c565b620003a988876200190a565b875260205260408620546001600160a01b0316620003c8828b62001960565b5262001950565b9462001950565b9362000364565b634e487b7160e01b82526011600452602482fd5b634e487b7160e01b600052601160045260246000fd5b9150620004148362001662565b5460001981019081116200042957916200033c565b634e487b7160e01b83526011600452602483fd5b5034620001c5576060366003190112620001c5576001600160a01b038062000464620015cf565b168083526002602052816040842054163303620004c7577fae8758e30241757273bc11034c392ab50e0a4fb48318ada56153e71404a49697916060918452600260205260408420541660405190815260243560208201526044356040820152a180f35b60405162461bcd60e51b815260206004820152601a60248201527913db9b1e481b185d5b98da1c18591cc818d85b881c995c1bdc9d60321b6044820152606490fd5b5034620001c5576060366003190112620001c55762000527620015cf565b62000531620015e6565b9060443560028110156200062c576001600160a01b03928316845260026020908152604085205490939081163303620005ea576200056f82620016b0565b921691826000528352604060002033600052835260ff604060002054161562000596578380f35b80620005a6620005c29262001648565b836000528452620005bc33604060002062001975565b620016b0565b90600052815260406000209033600052526040600020600160ff198254161790553880808380f35b60405162461bcd60e51b815260048101859052601a60248201527913db9b1e481b185d5b98da1c18591cc818d85b88191bc818591960321b6044820152606490fd5b8380fd5b5034620001c5576020366003190112620001c557600435906002821015620001c5575060005260036020526020604060002054604051908152f35b5034620001c55780600319360112620001c557546040516001600160a01b039091168152602090f35b5034620001c5576020366003190112620001c557620006b262001837565b60043560015580f35b5034620001c55780600319360112620001c557600360209081527f3617319a054d772f909f7c479a2cebe5066e836a939412e32403c99029b92eff54600160008190527fa15bc60c955c405d20d9149c709e2460f1c2d9a497496a7f46004d1772c3054c549293929190620007308262001918565b936200073c8462001918565b93808411156200080157835b825b85811062000780576200077288620003858b8a604051948594604086526040860190620017f8565b9184830390850152620017f8565b80826200079c9210620007ce575b838110620007a25762001950565b6200074a565b600086815260048b526040908190208287528b528520546001600160a01b0316620003c8828a62001960565b600080805260048b526040908190208287528b528520546001600160a01b0316620007fa828b62001960565b526200078e565b809362000748565b5034620001c5576040366003190112620001c5576004356002811015620008545790620008386020926200167c565b60243582528252604060018060a01b0391205416604051908152f35b5080fd5b5034620001c55780600319360112620001c5576020600154604051908152f35b5034620001c5576040366003190112620001c557600435906002821015620001c55750620008b0620008a9620015e6565b9162001696565b9060018060a01b03166000526020526020604060002054604051908152f35b5034620001c55780600319360112620001c557620008ec62001837565b600080546001600160a01b0319811682556001600160a01b0316600080516020620049ff8339815191528280a380f35b5034620001c5576060366003190112620001c5576200093a620015cf565b60243591906001600160401b03831162000854573660238401121562000854578260040135906200096b82620017e0565b936200097b604051958662001761565b82855260209260248487019160051b8301019136831162000a1557602401905b828210620009fb57505050620009ed7fa02c1efbaab597e86b4d73ce579f2b7b75aae48fd876c1c8989f5b044872a7b49394606060405194859460018060a01b031685528401526060830190620017f8565b60443560408301520390a180f35b84809162000a0984620015fd565b8152019101906200099b565b8580fd5b50610220366003190112620001c5573660231215620001c55760405162000a40816200172f565b8036604411620012f2576004905b60448210620012e15750503660631215620008545760405190606082016001600160401b03811183821017620012cd576040528160a492368411620012a7576044905b848210620012bc5750503660c312156200062c576040519162000ab4836200172f565b8260e4943686116200128157905b858210620012ab575050366101031215620012a75760405162000ae5816200172f565b80610124953687116200126257905b8682106200129657505036610143121562000a15576040519362000b18856200172f565b84610164963688116200125e57905b8782106200128557505036610183121562001281576040519562000b4b876200172f565b866101a4913683116200125a57905b82821062001266575050356001600160401b038111620012625762000b8490369060040162001785565b6101c4359687151588036200125e5760026101e43510156200125e57610204356001600160401b0381116200125a5762000bc390369060040162001785565b9660018060a01b0382511660015434106200121a578a52600260205260408a20546001600160a01b0316620011d95760016101e4351462001169575b8954604051906001600160a01b03166001600160401b0361303283019081119083111762001155578190613032620019cd833962000c4261303283018a62001890565b898d61303284016040015b600382106200113a5750505062000c6c60a06130328401018862001890565b62000c7f60e06130328401018962001890565b62000c936101206130328401018562001890565b848d6130328401610160015b6002821062001116575050506102206101a06130328401015262000ccc61022061303284010187620018ba565b906101c0613032840101528b15156101e06130328401015262000cfb6102006130328401016101e435620018fc565b03908bf096871562000ff15784516020880151845184516001600160a01b039b8c169b90911692909162000d2f91620019b8565b60405163313ce56760e01b81528e90602081600481885afa9182156200110a5791620010c3575b50604d60ff821611620010af57918b8f9262000d85670de0b6b3a76400009160ff60209716600a0a90620019b8565b0491806200108a575b506064919260405195869485936323b872dd60e01b8552336004860152602485015260448401525af18015620010385762001047575b5062000dd36101e43562001662565b5483516001600160a01b03168c5260026020526040808d2080546001600160a01b03199081168c17909155908a908e62000e106101e4356200167c565b858252602052209182541617905562000e2c6101e43562001696565b898d5260205260408c205562000e456101e43562001662565b62000e51815462001950565b90556101e4358b52600760205260408b20338c5260205262000e778860408d2062001975565b873b15620010435760405163f2fde38b60e01b81523360048201528b81602481838d5af18015620010385762001007575b508a80808060018060a01b038154168190341562000ffc575b3491f11562000ff1577fee90580c82c1dd621940d2475e74d781f1a7c448598eb66061b3d90e8a79f05d9960e0997f3168ae2f2728d9df8af2e3d73090ec30b48ca66e0df68d3c786bfd10b0dd6320958a9462000fae9460018060a01b0388511697602060018060a01b03910151169262000f81825191604060208501519401519451956040519b8c9b8c523360208d015260408c015260608b015262000f6f60808b016101e435620018fc565b6101808060a08c01528a0190620018ba565b95151560c08901528e880152610100870152610120860152610140850152838203610160850152620018ba565b0390a1602083519301519060208151910151916020845194015194604051968752602087015260408601526060850152608084015260a083015260c0820152a180f35b6040513d8c823e3d90fd5b6108fc915062000ec1565b909a906001600160401b0381116200102457604052993862000ea8565b634e487b7160e01b82526041600452602482fd5b6040513d8e823e3d90fd5b8a80fd5b6020813d60201162001081575b81620010636020938362001761565b810103126200107d57518015150362001043573862000dc4565b8b80fd5b3d915062001054565b82612710620010a0620010a893606496620019b8565b04906200190a565b9162000d8e565b634e487b7160e01b8f52601160045260248ffd5b90506020813d60201162001101575b81620010e16020938362001761565b81010312620010fd575160ff81168103620010fd573862000d56565b8e80fd5b3d9150620010d2565b604051903d90823e3d90fd5b82516001600160a01b03168152859450602092830192600192909201910162000c9f565b82518152859450602092830192600192909201910162000c4d565b634e487b7160e01b8c52604160045260248cfd5b85511580620011cf575b80620011c2575b62000bff5760405162461bcd60e51b815260206004820152601b60248201527a125b9d985b1a590818dc99585d19481b185d5b98da081a5b9c1d5d602a1b6044820152606490fd5b506020850151156200117a565b5084511562001173565b60405162461bcd60e51b815260206004820152601960248201527813185d5b98da1c185908185b1c9958591e4818dc99585d1959603a1b6044820152606490fd5b60405162461bcd60e51b81526020600482015260186024820152774e6f7420656e6f75676820424e4220746f206465706c6f7960401b6044820152606490fd5b8980fd5b8880fd5b8780fd5b602080916200127584620015fd565b81520191019062000b5a565b8680fd5b813581526020918201910162000b27565b813581526020918201910162000af4565b8480fd5b813581526020918201910162000ac2565b813581526020918201910162000a91565b634e487b7160e01b84526041600452602484fd5b813581526020918201910162000a4e565b8280fd5b5034620001c5576040366003190112620001c5576001600160a01b03806200131d620015cf565b16908183526002602052806040842054163303620013905760407f88b4950cd633eb83502dc130d021af06d80a2e22f3f0fc48ec3efdea1fc57517918385526002602052818520541681519081526024356020820152a1815260026020526040812080546001600160a01b031916905580f35b60405162461bcd60e51b815260206004820152601a6024820152794f6e6c79206c61756e6368706164732063616e2072656d6f766560301b6044820152606490fd5b5034620001c5576040366003190112620001c557620013f0620015cf565b602490813591600283101580620012a7576200140c8462001648565b6001600160a01b039384168087526020918252604087205491969193620014338562001918565b966200143f8662001918565b96845b87811062001478576200146a8a620003858d8c604051948594604086526040860190620016f9565b9184830390850152620016f9565b620014838362001648565b8587528b528682620014998360408a20620016ca565b90549060031b1c16906200155157908b85928589526005825260408920818a5282528c620014cd8460408c20549262001960565b5260405193848092634a4643f760e01b82528a60048301525afa8015620015465787906200150e575b620015089250620003c8828c62001960565b62001442565b50908b81813d83116200153e575b62001528818362001761565b81010312620012815790620015089151620014f6565b503d6200151c565b6040513d89823e3d90fd5b634e487b7160e01b875260216004528487fd5b5034620001c557620015763662001612565b9290916002811015620015bb57815260076020526040812060018060a01b03809316825260205260408120908154841015620001c557506020926200026391620016ca565b634e487b7160e01b82526021600452602482fd5b600435906001600160a01b0382168203620002f957565b602435906001600160a01b0382168203620002f957565b35906001600160a01b0382168203620002f957565b6060906003190112620002f9576004356002811015620002f957906024356001600160a01b0381168103620002f9579060443590565b600281101562000273576000526006602052604060002090565b600281101562000273576000526003602052604060002090565b600281101562000273576000526004602052604060002090565b600281101562000273576000526005602052604060002090565b600281101562000273576000526008602052604060002090565b8054821015620016e35760005260206000200190600090565b634e487b7160e01b600052603260045260246000fd5b90815180825260208080930193019160005b8281106200171a575050505090565b8351855293810193928101926001016200170b565b604081019081106001600160401b038211176200174b57604052565b634e487b7160e01b600052604160045260246000fd5b601f909101601f19168101906001600160401b038211908210176200174b57604052565b81601f82011215620002f9578035906001600160401b0382116200174b5760405192620017bd601f8401601f19166020018562001761565b82845260208383010111620002f957816000926020809301838601378301015290565b6001600160401b0381116200174b5760051b60200190565b90815180825260208080930193019160005b82811062001819575050505090565b83516001600160a01b0316855293810193928101926001016200180a565b6000546001600160a01b031633036200184c57565b606460405162461bcd60e51b815260206004820152602060248201527f4f776e61626c653a2063616c6c6572206973206e6f7420746865206f776e65726044820152fd5b6000915b60028310620018a257505050565b60019082518152602080910192019201919062001894565b919082519283825260005b848110620018e7575050826000602080949584010152601f8019910116010190565b602081830181015184830182015201620018c5565b906002821015620002735752565b91908201809211620003f157565b906200192482620017e0565b62001933604051918262001761565b828152809262001946601f1991620017e0565b0190602036910137565b6000198114620003f15760010190565b8051821015620016e35760209160051b010190565b8054600160401b8110156200174b576200199591600182018155620016ca565b819291549060031b9160018060a01b039283811b93849216901b16911916179055565b81810292918115918404141715620003f15756fe6080604052346200045f5762003032803803806200001d81620004c8565b928339810190610220818303126200045f576200003b8282620004ee565b9082605f820112156200045f5760405191606083016001600160401b03811184821017620004495760405260a08201838582116200045f57859060408501905b838210620004945750506200009091620004ee565b6200009f8560e08501620004ee565b91620000b0866101208601620004ee565b908661017f860112156200045f57620000c8620004a8565b916101a08601838982116200045f576101608801905b82821062000479575050516001600160401b0381116200045f57860188601f820112156200045f578051906001600160401b03821162000449576200012d601f8301601f1916602001620004c8565b99828b52602083830101116200045f5760005b8281106200046457505060206000918a010152620001626101c0870162000534565b916101e08701519687151588036200045f5761020001519760028910156200045f5760206040926000543360018060a01b0382167f8be0079c531659141344cd1fd0a4f28419497f9722a3daafe3b4186f6b6457e0600080a36001600160a81b0319163360ff60a01b191617600055600180556012805461ff0019166101001790558051600255015160035580516004556020810151600655015160075587516001600160401b0381116200044957600c54600181811c911680156200043e575b60208210146200042857601f8111620003be575b50602098601f82116001146200032b57908060209798999a8894936000926200031f575b50508160011b916000199060031b1c191617600c555b805160115501516010558151600d80546001600160a01b03199081166001600160a01b039384161790915592850151600e80548516918316919091179055600f805490931691161790558051600955015160089081556020820151600a559051600b556012805461ff00191692151590911b61ff0016919091179055601880546001600160a81b03191660a09290921b60ff60a01b169190911733179055604051612ae890816200054a8239f35b0151905038806200025b565b600c600090815290997fdf6966c971051c3d54ec59162606531493a51404a002842f56009d7e5cf4a8c791601f198416905b818110620003a557509183916020999a9b9c8a9695600195106200038b575b505050811b01600c5562000271565b015160001960f88460031b161c191690553880806200037c565b91926020600181928f870151815501940192016200035d565b600c6000527fdf6966c971051c3d54ec59162606531493a51404a002842f56009d7e5cf4a8c7601f830160051c810191602084106200041d575b601f0160051c01905b81811062000410575062000237565b6000815560010162000401565b9091508190620003f8565b634e487b7160e01b600052602260045260246000fd5b90607f169062000223565b634e487b7160e01b600052604160045260246000fd5b600080fd5b60208183018101518c83018201520162000140565b60208091620004888462000534565b815201910190620000de565b81518152879250602091820191016200007b565b60408051919082016001600160401b038111838210176200044957604052565b6040519190601f01601f191682016001600160401b038111838210176200044957604052565b9080601f830112156200045f5762000505620004a8565b8092604081019283116200045f57905b828210620005235750505090565b815181526020918201910162000515565b51906001600160a01b03821682036200045f5756fe608060405260048036101561001357600080fd5b600090813560e01c908163041f78cc1461221f5781630521b4da146122015781630b9f2c4a146121ce5781630f6b1724146121ab578163200d2ed21461218d57816326bfb5891461216757816329763ed0146121495781632a0fccd514611fb45781632afcf480146119765781633197cbb61461195857816339b012b81461193a5781633a66c2781461191c57816342706c391461184857816342f393811461182a5781634a4643f7146117ee5781635072b084146115c957816358371ccd146115ab5781635c975abb14611586578163715018a61461153e57816376320b2414611520578163782dae0a1461150257816378e97925146114e45781637b7a7ca7146114c15781637cc1f867146112365781637d7cd7721461113e5781637d882097146111205781637f9bb7aa146111025781638da5cb5b146110db5781638f86f5ea14610a8a578163906a26e014610a6c5781639b19251a14610a2b5781639cccac37146109ef578163a1ac3907146108dd578163a20ecbbb146108bf578163a4f3a7c714610896578163b5545a3c14610728578163b59bd5911461062d578163b942031014610604578163c5c4744c146105e6578163cdfb2b4e146104de578163e7e104901461030a578163f2fde38b1461024e57508063f851a440146102255763fb86a4041461020557600080fd5b346102225780600319360112610222576020600354604051908152f35b80fd5b5034610222578060031936011261022257600f546040516001600160a01b039091168152602090f35b905034610306576020366003190112610306576001600160a01b03813581811692908390036103025761027f6124c9565b82156102af57506000548260018060a01b031982161760005516600080516020612a93833981519152600080a380f35b60849060206040519162461bcd60e51b8352820152602660248201527f4f776e61626c653a206e6577206f776e657220697320746865207a65726f206160448201526564647265737360d01b6064820152fd5b8380fd5b5080fd5b90503461030657816003193601126103065781546001600160a01b03908116331480156104d1575b61033b9061265d565b6103436125df565b61034b61297f565b600260175582816018541682600d5416813b156104c25782916044839260405194859384926303fe75e760e11b84528a840152600260248401525af180156104c6576104ae575b5050600d54166040516370a0823160e01b815230838201526020928382602481865afa9081156104a3578492869261046b575b50926103e8938660405180968195829463a9059cbb60e01b845233908401612642565b03925af1801561046057610432575b827f7d789068b0deed1c53f4572064780ab55e54305e6df362874c45ad39c4c3766e604051806104283342836125c6565b0390a16001805580f35b8161045192903d10610459575b610449818361237a565b810190612544565b5038806103f7565b503d61043f565b6040513d85823e3d90fd5b8381949293503d831161049c575b610483818361237a565b8101031261049757905183916103e86103c5565b600080fd5b503d610479565b6040513d87823e3d90fd5b6104b790612336565b6104c2578238610392565b8280fd5b6040513d84823e3d90fd5b50600f5481163314610332565b82346102225780600319360112610222576104f76124c9565b60125460ff81161580156105c8575b156105885760ff1981166001176012556005829055601854919283926001600160a01b031691823b156105835760648493928480946001604051978896879563d7c7418f60e01b87523090870152161715156024840152600060448401525af180156104c6576105735750f35b61057c90612336565b6102225780f35b505050fd5b60405162461bcd60e51b8152602081850152601960248201527857686974656c697374206d6f6465206973206f6e676f696e6760381b6044820152606490fd5b5060055480151590816105dc575b50610506565b90504211846105d6565b82346102225780600319360112610222576020601454604051908152f35b8234610222578060031936011261022257600d546040516001600160a01b039091168152602090f35b82346102225780600319360112610222576016549061064b826126c0565b90610655836126a9565b90610663604051928361237a565b83825261066f846126a9565b6020948584019391601f1901368537825b8181106106d9575050846106a29560405196879660408852604088019061248c565b928684038288015251928381520193925b8281106106c257505050500390f35b8351855286955093810193928101926001016106b3565b8061071d9185949697989552601b855260018060a01b0360408520541680610701838b61272c565b528452601985526040842054610717828861272c565b5261255c565b959493919295610680565b9050346103065781600319360112610306576107426125df565b6017546002146108915761075461297f565b3382526020601981526040832054918215610841573384526019825260408420849055600e546001600160a01b031690816107c85750505081808080843382f1156107bb57610428600080516020612a73833981519152915b6040519182913390836125c6565b50604051903d90823e3d90fd5b836107ed949284928760405180988195829463a9059cbb60e01b845233908401612642565b03925af191821561083657600080516020612a738339815191529361042893610818575b50506107ad565b8161082e92903d1061045957610449818361237a565b503880610811565b6040513d86823e3d90fd5b6084916040519162461bcd60e51b8352820152602560248201527f4c61756e63687061643a205573657220646f65736e27742068617665206465706044820152646f7369747360d81b6064820152fd5b610754565b8234610222578060031936011261022257600e546040516001600160a01b039091168152602090f35b82346102225780600319360112610222576020600854604051908152f35b8234610222576108ec3661243f565b6108f46124c9565b6108fd816126c0565b91835b82811061096757505050819260018060a01b036018541691823b156105835761094f9284928360405180968195829463673c8e3160e01b8452309084015260606024840152606483019061248c565b6001604483015203925af180156104c6576105735750f35b6109a6906001600160a01b03806109876109828488886126f2565b612718565b168752601c602081815260ff60408a2054166109ab575b50505061255c565b610900565b826109ba610982868a8a6126f2565b1689525260408720805460ff191690556109d86109828387876126f2565b906109e3838861272c565b9116905287808061099e565b90503461030657602036600319011261030657356001600160a01b03811690819003610306578160409160209352601a83522054604051908152f35b90503461030657602036600319011261030657356001600160a01b038116908190036103065760408260ff9260209452601c84522054166040519015158152f35b82346102225780600319360112610222576020600254604051908152f35b90503461030657816003193601126103065781546001600160a01b03908116331480156110ce575b610abb9061265d565b610ac36125df565b610acb612827565b60ff60185460a01c1660028110156110bb5783919080159081806110b0575b611027575b6001148061101c575b610f29575b60016017558283916011549081610efd575b505080610ea4575b5060105480610e8c575b50600e54821680610d6657504790838080808487600f5416828215610d5d575bf115610460578380610b568194938294612635565b818115610d54575b3390f1156107bb575b600d546040516370a0823160e01b815230818601526020949183168582602481845afa9081156104a35786928692610d1f575b5085929190811515908180610d10575b610cb2575b5080610ca2575b610c4a575b505050816018541691600d5416823b1561030257604484928360405195869485936303fe75e760e11b8552840152600160248401525af180156104c657610c36575b507f99e95c9a161a7c99d3dc664b3058a5482967afe83ae408003ebd3223d68c2964604083601354825191428352820152a16001805580f35b610c3f90612336565b610306578138610bfd565b604485600d541691604051948593849263a9059cbb60e01b845261dead8985015260248401525af1801561083657610c85575b848491610bbb565b610c9b90853d871161045957610449818361237a565b5038610c7d565b5060ff60125460081c1615610bb6565b935091604051809463a9059cbb60e01b8252818981610cd487338c8401612642565b03925af1918215610d05578693889315610baf57610cfe90843d861161045957610449818361237a565b5038610baf565b6040513d88823e3d90fd5b5060ff60125460081c16610baa565b955091905084813d8311610d4d575b610d38818361237a565b81010312610497579251859385919085610b9a565b503d610d2e565b506108fc610b5e565b506108fc610b41565b6040516370a0823160e01b81523086820152602092918382602481845afa908115610d055787928792610e56575b50908484610dbf949388600f54168a60405180988195829463a9059cbb60e01b9a8b85528401612642565b03925af18015610e4b57610dfa948694610de492610e2e575b5087600e541692612635565b91876040518096819582948352338d8401612642565b03925af1801561083657610e10575b5050610b67565b81610e2692903d1061045957610449818361237a565b503880610e09565b610e4490863d881161045957610449818361237a565b5038610dd8565b6040513d89823e3d90fd5b96509150508285813d8311610e85575b610e70818361237a565b81010312610497579351869486919084610d94565b503d610e66565b6127109150610e9d9060135461256b565b0438610b21565b6020610ed09184600d541685600f54168760405180968195829463a9059cbb60e01b84528d8401612642565b03925af180156108365715610b1757610ef69060203d811161045957610449818361237a565b5038610b17565b6127109250610f14919015610f1c5760145461256b565b043880610b0f565b610f24612740565b61256b565b9091506024602083600d5416604051928380926370a0823160e01b825230898301525afa9081156104a3578591610feb575b50612710610f73610f6a612740565b6011549061256b565b0410610f8157908391610afd565b60848360206040519162461bcd60e51b8352820152604060248201527f4c61756e63687061642846616972293a20416c6c20746f6b656e2073616c652060448201527f6e65656420726169736564206265666f726520656e642073616c652074696d656064820152fd5b90506020813d8211611014575b816110056020938361237a565b81010312610497575138610f5b565b3d9150610ff8565b506007544210610af8565b9091925060155461103b5790849291610aef565b60405162461bcd60e51b8152602081860152604260248201527f4c61756e6368706164284e6f726d616c293a20416c6c20746f6b656e2073616c60448201527f65206e65656420726169736564206265666f726520656e642073616c652074696064820152616d6560f01b608482015260a490fd5b506007544210610aea565b634e487b7160e01b845260218352602484fd5b50600f5481163314610ab2565b8234610222578060031936011261022257546040516001600160a01b039091168152602090f35b82346102225780600319360112610222576020600554604051908152f35b82346102225780600319360112610222576020601354604051908152f35b82346102225761114d3661243f565b6111556124c9565b61115e816126c0565b91835b8281106111c757505050819260018060a01b036018541691823b15610583576111b09284928360405180968195829463673c8e3160e01b8452309084015260606024840152606483019061248c565b82604483015203925af180156104c6576105735750f35b611201906001600160a01b03806111e26109828488886126f2565b168752601c602081815260ff60408a205416156112065750505061255c565b611161565b82611215610982868a8a6126f2565b1689525260408720805460ff191660011790556109d86109828387876126f2565b905034610306578160031936011261030657604080516112558161235f565b3690376040516001600160401b03929060608101848111828210176114ac576040526060903690376040805161128a8161235f565b3690376040805161129a8161235f565b369037604051906112aa8261235f565b600254825260035460208301526040519360608501908111858210176114ac5760405282548452600654602085015260075460408501526040516112ed8161235f565b60095481526008546020820152604051916113078361235f565b600b548352600a54602084015260018060a01b039283600d541693600e54169160125492601354916017549360ff60185460a01c169660405192600084600c54916113518361239d565b808352926001811690811561148d575060011461143f575b929e926113789250038561237a565b611385604051809c612417565b9b60408b015b60038210611428575050916113bb6113cd926113b160ff999897969560a08e0190612417565b60e08c0190612417565b610220806101208c01528a01906123d7565b9661014089015261016088015283831615156101808801526101a08701526101c086015260081c1615156101e08401526002811015611413578293506102008301520390f35b602184634e487b7160e01b6000525260246000fd5b6020808f92600193518152019e019101909c61138b565b50600c60009081529091600080516020612a538339815191525b81831061147157505090602061137892820101611369565b6020919350806001915483858b01015201910190918692611459565b6020925061137894915060ff191682840152151560051b820101611369565b604184634e487b7160e01b6000525260246000fd5b8234610222578060031936011261022257602060ff601254166040519015158152f35b90503461030657816003193601126103065760209054604051908152f35b82346102225780600319360112610222576020600b54604051908152f35b82346102225780600319360112610222576020600a54604051908152f35b82346102225780600319360112610222576115576124c9565b600080546001600160a01b0319811682556001600160a01b0316600080516020612a938339815191528280a380f35b823461022257806003193601126102225760ff6020915460a01c166040519015158152f35b82346102225780600319360112610222576020600754604051908152f35b9050346103065781600319360112610306576115e36125df565b6115eb612827565b60ff60185460a01c1660028110156117db5761178957338252601a6020526040822080549083905560155490919082808211611778575050826015555b811561172557600d5460405163a9059cbb60e01b815284926001600160a01b0392909190602090829085168187816116638b33838b01612642565b03925af1801561083657611707575b50816018541691600d5416916013549060155493813b15611703578580946116ae60405197889687958694635794cfed60e11b865285016125a8565b03925af180156104c6576116ef575b506040517f3beb98421d990a16ca9090d8d7c25aaeeff9d855a287ac0854e6bee846ba990d90806104283386836125c6565b6116f890612336565b6103065781386116bd565b8580fd5b61171e9060203d811161045957610449818361237a565b5038611672565b60849060206040519162461bcd60e51b8352820152602660248201527f4c61756e63687061643a20557365722068617665206e6f20746f6b656e20746f60448201526520636c61696d60d01b6064820152fd5b61178191612635565b601555611628565b33825260196020526117a760408320546117a1612740565b9061256b565b6013549081156117c65704903383526019602052826040812055611628565b601283634e487b7160e01b6000525260246000fd5b634e487b7160e01b835260218252602483fd5b90503461030657602036600319011261030657356001600160a01b03811690819003610306578160409160209352601983522054604051908152f35b82346102225780600319360112610222576020600954604051908152f35b8234610222578060031936011261022257604051600090600c5461186b8161239d565b8083526001918083169081156118f457506001146118ac575b6118a8836118948187038261237a565b6040519182916020835260208301906123d7565b0390f35b600c60009081526020945091600080516020612a538339815191525b8284106118e15750505081019091019061189481611884565b80548585018701529285019281016118c8565b6118a8955061189493506020915091849260ff191682840152151560051b8201019350611884565b82346102225780600319360112610222576020601554604051908152f35b82346102225780600319360112610222576020601054604051908152f35b82346102225780600319360112610222576020600654604051908152f35b90506020806003193601126104c2578135916119906125df565b60ff601254168080611f94575b81611f7e575b8115611f75575b8115611f4b575b5015611f0957601754611ec9578054421115611e8757426006541115611e3b5760ff60185460a01c166002811015611e285715611dc6575b600e546001600160a01b03929085908290851680611d7257505050348403611d25575b33855260198152604085205415611cf5575b3385526019815260408520611a34858254612521565b905560ff60185460a01c166002811015611ce257908593929115611b57575b50611a6084601354612521565b601355816018541682600d5416813b15611b5357849160648392604051948593849263a8f5ab0160e01b845233898501526024840152600060448401525af1908115610836578491611b3f575b5050816018541691600d5416916013549060155493813b1561170357858094611aea60405197889687958694635794cfed60e11b865285016125a8565b03925af180156104c657611b2b575b506040517f04da1776b54ebfe9617caf57a31e9a4b2f316bfd0ee0614d6c61597ae94ba25190806104283386836125c6565b611b3490612336565b610306578138611af9565b611b4890612336565b6104c2578238611aad565b8480fd5b90919250338552601981526040852054600b5411611c8f57338552601981526040852054600a5410611c3c5790849291611b936009548661256b565b828285600d54166040519283809263313ce56760e01b82525afa8015610d0557601a926117a1611bd492670de0b6b3a7640000948a91611c0f575b50612597565b0491611be283601454612521565b601455611bf183601554612521565b60155533865252611c0760408520918254612521565b905538611a53565b611c2f9150873d8911611c35575b611c27818361237a565b81019061257e565b38611bce565b503d611c1d565b60405162461bcd60e51b815291820152602760248201527f4c61756e63687061643a204d617820636f6e747269627574696f6e206e6f74206044820152661c995858da195960ca1b606482015260849150fd5b60405162461bcd60e51b815291820152602760248201527f4c61756e63687061643a204d696e20636f6e747269627574696f6e206e6f74206044820152661c995858da195960ca1b606482015260849150fd5b634e487b7160e01b865260218352602486fd5b601680548652601b82526040862080546001600160a01b0319163317905554611d1d9061255c565b601655611a1e565b60405162461bcd60e51b815291820152602160248201527f4c61756e63687061643a20496e76616c6964207061796d656e7420616d6f756e6044820152601d60fa1b606482015260849150fd5b6064604051809481936323b872dd60e01b835233898401523060248401528a60448401525af18015610d0557611da9575b50611a0c565b611dbf90823d841161045957610449818361237a565b5038611da3565b611dd260135484612521565b60035410156119e9576084916040519162461bcd60e51b8352820152602260248201527f4c61756e6368706164284e6f726d616c293a2048617264636170207265616368604482015261195960f21b6064820152fd5b634e487b7160e01b855260218252602485fd5b6084916040519162461bcd60e51b8352820152602160248201527f4c61756e63687061643a2053616c6520697320616c726561647920636c6f73656044820152601960fa1b6064820152fd5b6064916040519162461bcd60e51b8352820152601f60248201527f4c61756e63687061643a2053616c65206973206e6f74206f70656e20796574006044820152fd5b6064916040519162461bcd60e51b8352820152601b60248201527a2630bab731b43830b21d1029b0b6329034b9903737ba1037b832b760291b6044820152fd5b6064916040519162461bcd60e51b8352820152601e60248201527f4c61756e63687061643a20557365722063616e206e6f7420696e7665737400006044820152fd5b905080611f6a575b80611f5f575b386119b1565b506005544211611f59565b506005541515611f53565b801591506119aa565b338652601c8452604086205460ff1691506119a3565b90506005548015908115611faa575b509061199d565b9050421038611fa3565b823461022257602080600319360112610306576001600160401b039083359082821161030257366023830112156103025781850135948386116121325760405195601f199361200a601f8301861685018961237a565b8188523660248383010111612145578187926024869301838b0137880101526120316124c9565b85519384116121325750612046600c5461239d565b601f81116120ee575b508091601f841160011461208c5750508293829392612081575b50508160011b916000199060031b1c191617600c5580f35b015190508380612069565b839291921694600c85528285209285905b8782106120d65750508360019596106120bd575b505050811b01600c5580f35b015160001960f88460031b161c191690558380806120b1565b8060018596829496860151815501950193019061209d565b600c8552818520601f850160051c810191838610612128575b601f0160051c01905b81811061211d575061204f565b858155600101612110565b9091508190612107565b634e487b7160e01b855260419052602484fd5b8680fd5b82346102225780600319360112610222576020601154604051908152f35b8234610222578060031936011261022257602060ff60125460081c166040519015158152f35b82346102225780600319360112610222576020601754604051908152f35b823461022257806003193601126102225760206121c6612740565b604051908152f35b9050346103065760203660031901126103065790602091358152601b8252604060018060a01b0391205416604051908152f35b82346102225780600319360112610222576020601654604051908152f35b90503461030657602036600319011261030657803561223c6124c9565b600160ff6012541615151480612318575b156122d457806122c4575060ff19601254166012555b8160018060a01b036018541660ff601254169060055493813b156103025783606492604051968795869463d7c7418f60e01b865230908601521515602485015260448401525af180156104c6576122b8575080f35b6122c190612336565b80f35b428111156104c257600555612263565b60405162461bcd60e51b8152602081840152601d60248201527f57686974656c697374206d6f6465206973206e6f74206f6e676f696e670000006044820152606490fd5b50600554801590811561232c575b5061224d565b9050421038612326565b6001600160401b03811161234957604052565b634e487b7160e01b600052604160045260246000fd5b604081019081106001600160401b0382111761234957604052565b601f909101601f19168101906001600160401b0382119082101761234957604052565b90600182811c921680156123cd575b60208310146123b757565b634e487b7160e01b600052602260045260246000fd5b91607f16916123ac565b919082519283825260005b848110612403575050826000602080949584010152601f8019910116010190565b6020818301810151848301820152016123e2565b6000915b6002831061242857505050565b60019082518152602080910192019201919061241b565b906020600319830112610497576001600160401b03916004359083821161049757806023830112156104975781600401359384116104975760248460051b83010111610497576024019190565b90815180825260208080930193019160005b8281106124ac575050505090565b83516001600160a01b03168552938101939281019260010161249e565b6000546001600160a01b031633036124dd57565b606460405162461bcd60e51b815260206004820152602060248201527f4f776e61626c653a2063616c6c6572206973206e6f7420746865206f776e65726044820152fd5b9190820180921161252e57565b634e487b7160e01b600052601160045260246000fd5b90816020910312610497575180151581036104975790565b600019811461252e5760010190565b8181029291811591840414171561252e57565b90816020910312610497575160ff811681036104975790565b60ff16604d811161252e57600a0a90565b604091949392606082019560018060a01b0316825260208201520152565b9081526001600160a01b03909116602082015260400190565b6002600154146125f0576002600155565b60405162461bcd60e51b815260206004820152601f60248201527f5265656e7472616e637947756172643a207265656e7472616e742063616c6c006044820152606490fd5b9190820391821161252e57565b6001600160a01b039091168152602081019190915260400190565b1561266457565b60405162461bcd60e51b815260206004820152601d60248201527f4c61756e63687061643a2043616c6c6572206e6f7420616c6c6f7765640000006044820152606490fd5b6001600160401b0381116123495760051b60200190565b906126ca826126a9565b6126d7604051918261237a565b82815280926126e8601f19916126a9565b0190602036910137565b91908110156127025760051b0190565b634e487b7160e01b600052603260045260246000fd5b356001600160a01b03811681036104975790565b80518210156127025760209160051b010190565b60046127516003546009549061256b565b600d5460405163313ce56760e01b81529260209184919082906001600160a01b03165afa9081156127b6576117a161279a92670de0b6b3a76400009460009161279e5750612597565b0490565b611c2f915060203d8111611c3557611c27818361237a565b6040513d6000823e3d90fd5b156127c957565b60405162461bcd60e51b815260206004820152603060248201527f4c61756e63687061643a2053616c6520697320616c72656164792066696e697360448201526f1a1959081bdc8818d85b98d95b1b195960821b6064820152608490fd5b60065442111561291c5761283d601754156127c2565b60ff60185460a01c166002811015612906576128b5576013546002541161286057565b60405162461bcd60e51b815260206004820152602760248201527f4c61756e6368706164284e6f726d616c293a20536f667420636170206e6f74206044820152661c995858da195960ca1b6064820152608490fd5b601354600354116128c257565b606460405162461bcd60e51b815260206004820152602060248201527f4c61756e63687061642846616972293a20436170206e6f7420726561636865646044820152fd5b634e487b7160e01b600052602160045260246000fd5b60405162461bcd60e51b815260206004820152603560248201527f4c61756e63687061643a2046696e697368696e67206c61756e636870616420646044820152746f6573206e6f7420617661696c61626c65206e6f7760581b6064820152608490fd5b61298b601754156127c2565b60ff60185460a01c16600281101561290657612a005760135460025411156129af57565b60405162461bcd60e51b815260206004820152602360248201527f4c61756e6368706164284e6f726d616c293a20536f66742063617020726561636044820152621a195960ea1b6064820152608490fd5b6013546003541115612a0e57565b60405162461bcd60e51b815260206004820152601c60248201527b13185d5b98da1c18590a11985a5c8a4e8810d85c081c995858da195960221b6044820152606490fdfedf6966c971051c3d54ec59162606531493a51404a002842f56009d7e5cf4a8c7edb8f34a75dc967013bac8c91f25135d59bc85673d66fc55a7dbd7ed3f8a1f698be0079c531659141344cd1fd0a4f28419497f9722a3daafe3b4186f6b6457e0a2646970667358221220c8ea3f2a6a758a42fca136f5695ce13f2b4af1db6534f4fa406bea3d61a5519d64736f6c634300081100338be0079c531659141344cd1fd0a4f28419497f9722a3daafe3b4186f6b6457e0a2646970667358221220d975910cd27f423ad0caa596362f738d3c22ef7c02a53e6422da71df4c53a52164736f6c63430008110033","opcodes":"PUSH1 0x80 DUP1 PUSH1 0x40 MSTORE CALLVALUE PUSH2 0x66 JUMPI PUSH1 0x0 DUP1 SLOAD CALLER PUSH1 0x1 PUSH1 0x1 PUSH1 0xA0 SHL SUB NOT DUP3 AND DUP2 OR DUP4 SSTORE SWAP2 PUSH1 0x1 PUSH1 0x1 PUSH1 0xA0 SHL SUB SWAP1 SWAP2 AND SWAP1 PUSH32 0x8BE0079C531659141344CD1FD0A4F28419497F9722A3DAAFE3B4186F6B6457E0 SWAP1 DUP1 LOG3 PUSH7 0x38D7EA4C68000 PUSH1 0x1 SSTORE PUSH2 0x4A54 SWAP1 DUP2 PUSH2 0x6C DUP3 CODECOPY RETURN JUMPDEST PUSH1 0x0 DUP1 REVERT INVALID PUSH1 0x80 PUSH1 0x40 MSTORE PUSH1 0x4 CALLDATASIZE LT ISZERO PUSH3 0x13 JUMPI PUSH1 0x0 DUP1 REVERT JUMPDEST PUSH1 0x0 DUP1 CALLDATALOAD PUSH1 0xE0 SHR DUP1 PUSH3 0x682BCC EQ PUSH3 0x1564 JUMPI DUP1 PUSH4 0x70E6E7E EQ PUSH3 0x13D2 JUMPI DUP1 PUSH4 0x7FCEBCE EQ PUSH3 0x12F6 JUMPI DUP1 PUSH4 0xB9D5FF5 EQ PUSH3 0xA19 JUMPI DUP1 PUSH4 0x673C8E31 EQ PUSH3 0x91C JUMPI DUP1 PUSH4 0x715018A6 EQ PUSH3 0x8CF JUMPI DUP1 PUSH4 0x7240E0E5 EQ PUSH3 0x878 JUMPI DUP1 PUSH4 0x7788A7EE EQ PUSH3 0x858 JUMPI DUP1 PUSH4 0x783997C2 EQ PUSH3 0x809 JUMPI DUP1 PUSH4 0x7C0BB6B7 EQ PUSH3 0x6BB JUMPI DUP1 PUSH4 0x86CB9E0C EQ PUSH3 0x694 JUMPI DUP1 PUSH4 0x8DA5CB5B EQ PUSH3 0x66B JUMPI DUP1 PUSH4 0x8E7780DC EQ PUSH3 0x630 JUMPI DUP1 PUSH4 0xA8F5AB01 EQ PUSH3 0x509 JUMPI DUP1 PUSH4 0xAF299FDA EQ PUSH3 0x43D JUMPI DUP1 PUSH4 0xC1282E11 EQ PUSH3 0x2FE JUMPI DUP1 PUSH4 0xD7C7418F EQ PUSH3 0x289 JUMPI DUP1 PUSH4 0xE1FA6825 EQ PUSH3 0x208 JUMPI DUP1 PUSH4 0xF007735C EQ PUSH3 0x1C8 JUMPI PUSH4 0xF2FDE38B EQ PUSH3 0x10D JUMPI PUSH1 0x0 DUP1 REVERT JUMPDEST CALLVALUE PUSH3 0x1C5 JUMPI PUSH1 0x20 CALLDATASIZE PUSH1 0x3 NOT ADD SLT PUSH3 0x1C5 JUMPI PUSH3 0x12A PUSH3 0x15CF JUMP JUMPDEST PUSH3 0x134 PUSH3 0x1837 JUMP JUMPDEST PUSH1 0x1 PUSH1 0x1 PUSH1 0xA0 SHL SUB SWAP1 DUP2 AND SWAP1 DUP2 ISZERO PUSH3 0x171 JUMPI PUSH1 0x0 SLOAD DUP3 PUSH1 0x1 DUP1 PUSH1 0xA0 SHL SUB NOT DUP3 AND OR PUSH1 0x0 SSTORE AND PUSH1 0x0 DUP1 MLOAD PUSH1 0x20 PUSH3 0x49FF DUP4 CODECOPY DUP2 MLOAD SWAP2 MSTORE PUSH1 0x0 DUP1 LOG3 DUP1 RETURN JUMPDEST PUSH1 0x40 MLOAD PUSH3 0x461BCD PUSH1 0xE5 SHL DUP2 MSTORE PUSH1 0x20 PUSH1 0x4 DUP3 ADD MSTORE PUSH1 0x26 PUSH1 0x24 DUP3 ADD MSTORE PUSH32 0x4F776E61626C653A206E6577206F776E657220697320746865207A65726F2061 PUSH1 0x44 DUP3 ADD MSTORE PUSH6 0x646472657373 PUSH1 0xD0 SHL PUSH1 0x64 DUP3 ADD MSTORE PUSH1 0x84 SWAP1 REVERT JUMPDEST DUP1 REVERT JUMPDEST POP CALLVALUE PUSH3 0x1C5 JUMPI PUSH1 0x20 CALLDATASIZE PUSH1 0x3 NOT ADD SLT PUSH3 0x1C5 JUMPI PUSH1 0x20 SWAP1 PUSH1 0x1 PUSH1 0x1 PUSH1 0xA0 SHL SUB SWAP1 PUSH1 0x40 SWAP1 DUP3 PUSH3 0x1F6 PUSH3 0x15CF JUMP JUMPDEST AND DUP2 MSTORE PUSH1 0x2 DUP5 MSTORE KECCAK256 SLOAD AND PUSH1 0x40 MLOAD SWAP1 DUP2 MSTORE RETURN JUMPDEST POP CALLVALUE PUSH3 0x1C5 JUMPI PUSH3 0x21A CALLDATASIZE PUSH3 0x1612 JUMP JUMPDEST SWAP3 SWAP1 SWAP2 PUSH1 0x2 DUP2 LT ISZERO PUSH3 0x273 JUMPI PUSH1 0x0 MSTORE PUSH1 0x6 PUSH1 0x20 MSTORE PUSH1 0x40 PUSH1 0x0 KECCAK256 PUSH1 0x1 DUP1 PUSH1 0xA0 SHL SUB DUP1 SWAP4 AND PUSH1 0x0 MSTORE PUSH1 0x20 MSTORE PUSH1 0x40 PUSH1 0x0 KECCAK256 SWAP1 DUP2 SLOAD DUP5 LT ISZERO PUSH3 0x1C5 JUMPI POP PUSH1 0x20 SWAP3 PUSH3 0x263 SWAP2 PUSH3 0x16CA JUMP JUMPDEST SWAP2 SWAP1 SLOAD PUSH1 0x40 MLOAD SWAP3 PUSH1 0x3 SHL SHR AND DUP2 MSTORE RETURN JUMPDEST PUSH4 0x4E487B71 PUSH1 0xE0 SHL PUSH1 0x0 MSTORE PUSH1 0x21 PUSH1 0x4 MSTORE PUSH1 0x24 PUSH1 0x0 REVERT JUMPDEST POP CALLVALUE PUSH3 0x1C5 JUMPI PUSH1 0x60 CALLDATASIZE PUSH1 0x3 NOT ADD SLT PUSH3 0x1C5 JUMPI PUSH3 0x2A7 PUSH3 0x15CF JUMP JUMPDEST PUSH1 0x24 CALLDATALOAD DUP1 ISZERO ISZERO DUP1 SWAP2 SUB PUSH3 0x2F9 JUMPI PUSH32 0x26D85214CE01D532A5D244EA2F207B26D947F38742CB8018116D5FE5369C3310 SWAP2 PUSH1 0x60 SWAP2 PUSH1 0x40 MLOAD SWAP2 PUSH1 0x1 DUP1 PUSH1 0xA0 SHL SUB AND DUP3 MSTORE PUSH1 0x20 DUP3 ADD MSTORE PUSH1 0x44 CALLDATALOAD PUSH1 0x40 DUP3 ADD MSTORE LOG1 DUP1 RETURN JUMPDEST PUSH1 0x0 DUP1 REVERT JUMPDEST POP CALLVALUE PUSH3 0x1C5 JUMPI PUSH1 0x60 CALLDATASIZE PUSH1 0x3 NOT ADD SLT PUSH3 0x1C5 JUMPI PUSH1 0x4 CALLDATALOAD PUSH1 0x24 CALLDATALOAD SWAP1 PUSH1 0x44 CALLDATALOAD SWAP3 PUSH1 0x2 DUP5 LT ISZERO PUSH3 0x1C5 JUMPI DUP3 PUSH3 0x333 DUP6 PUSH3 0x1662 JUMP JUMPDEST SLOAD GT ISZERO PUSH3 0x407 JUMPI JUMPDEST DUP2 DUP4 SUB SWAP2 DUP4 DUP4 GT PUSH3 0x3F1 JUMPI PUSH1 0x1 DUP4 ADD DUP1 SWAP4 GT PUSH3 0x3DD JUMPI PUSH3 0x360 DUP3 SWAP4 PUSH3 0x1918 JUMP JUMPDEST SWAP5 DUP2 SWAP4 JUMPDEST DUP6 DUP6 GT ISZERO PUSH3 0x389 JUMPI PUSH1 0x40 MLOAD PUSH1 0x20 DUP1 DUP3 MSTORE DUP2 SWAP1 PUSH3 0x385 SWAP1 DUP3 ADD DUP11 PUSH3 0x17F8 JUMP JUMPDEST SUB SWAP1 RETURN JUMPDEST PUSH3 0x3CF PUSH3 0x3D6 SWAP2 PUSH3 0x39D DUP5 PUSH3 0x167C JUMP JUMPDEST PUSH3 0x3A9 DUP9 DUP8 PUSH3 0x190A JUMP JUMPDEST DUP8 MSTORE PUSH1 0x20 MSTORE PUSH1 0x40 DUP7 KECCAK256 SLOAD PUSH1 0x1 PUSH1 0x1 PUSH1 0xA0 SHL SUB AND PUSH3 0x3C8 DUP3 DUP12 PUSH3 0x1960 JUMP JUMPDEST MSTORE PUSH3 0x1950 JUMP JUMPDEST SWAP5 PUSH3 0x1950 JUMP JUMPDEST SWAP4 PUSH3 0x364 JUMP JUMPDEST PUSH4 0x4E487B71 PUSH1 0xE0 SHL DUP3 MSTORE PUSH1 0x11 PUSH1 0x4 MSTORE PUSH1 0x24 DUP3 REVERT JUMPDEST PUSH4 0x4E487B71 PUSH1 0xE0 SHL PUSH1 0x0 MSTORE PUSH1 0x11 PUSH1 0x4 MSTORE PUSH1 0x24 PUSH1 0x0 REVERT JUMPDEST SWAP2 POP PUSH3 0x414 DUP4 PUSH3 0x1662 JUMP JUMPDEST SLOAD PUSH1 0x0 NOT DUP2 ADD SWAP1 DUP2 GT PUSH3 0x429 JUMPI SWAP2 PUSH3 0x33C JUMP JUMPDEST PUSH4 0x4E487B71 PUSH1 0xE0 SHL DUP4 MSTORE PUSH1 0x11 PUSH1 0x4 MSTORE PUSH1 0x24 DUP4 REVERT JUMPDEST POP CALLVALUE PUSH3 0x1C5 JUMPI PUSH1 0x60 CALLDATASIZE PUSH1 0x3 NOT ADD SLT PUSH3 0x1C5 JUMPI PUSH1 0x1 PUSH1 0x1 PUSH1 0xA0 SHL SUB DUP1 PUSH3 0x464 PUSH3 0x15CF JUMP JUMPDEST AND DUP1 DUP4 MSTORE PUSH1 0x2 PUSH1 0x20 MSTORE DUP2 PUSH1 0x40 DUP5 KECCAK256 SLOAD AND CALLER SUB PUSH3 0x4C7 JUMPI PUSH32 0xAE8758E30241757273BC11034C392AB50E0A4FB48318ADA56153E71404A49697 SWAP2 PUSH1 0x60 SWAP2 DUP5 MSTORE PUSH1 0x2 PUSH1 0x20 MSTORE PUSH1 0x40 DUP5 KECCAK256 SLOAD AND PUSH1 0x40 MLOAD SWAP1 DUP2 MSTORE PUSH1 0x24 CALLDATALOAD PUSH1 0x20 DUP3 ADD MSTORE PUSH1 0x44 CALLDATALOAD PUSH1 0x40 DUP3 ADD MSTORE LOG1 DUP1 RETURN JUMPDEST PUSH1 0x40 MLOAD PUSH3 0x461BCD PUSH1 0xE5 SHL DUP2 MSTORE PUSH1 0x20 PUSH1 0x4 DUP3 ADD MSTORE PUSH1 0x1A PUSH1 0x24 DUP3 ADD MSTORE PUSH26 0x13DB9B1E481B185D5B98DA1C18591CC818D85B881C995C1BDC9D PUSH1 0x32 SHL PUSH1 0x44 DUP3 ADD MSTORE PUSH1 0x64 SWAP1 REVERT JUMPDEST POP CALLVALUE PUSH3 0x1C5 JUMPI PUSH1 0x60 CALLDATASIZE PUSH1 0x3 NOT ADD SLT PUSH3 0x1C5 JUMPI PUSH3 0x527 PUSH3 0x15CF JUMP JUMPDEST PUSH3 0x531 PUSH3 0x15E6 JUMP JUMPDEST SWAP1 PUSH1 0x44 CALLDATALOAD PUSH1 0x2 DUP2 LT ISZERO PUSH3 0x62C JUMPI PUSH1 0x1 PUSH1 0x1 PUSH1 0xA0 SHL SUB SWAP3 DUP4 AND DUP5 MSTORE PUSH1 0x2 PUSH1 0x20 SWAP1 DUP2 MSTORE PUSH1 0x40 DUP6 KECCAK256 SLOAD SWAP1 SWAP4 SWAP1 DUP2 AND CALLER SUB PUSH3 0x5EA JUMPI PUSH3 0x56F DUP3 PUSH3 0x16B0 JUMP JUMPDEST SWAP3 AND SWAP2 DUP3 PUSH1 0x0 MSTORE DUP4 MSTORE PUSH1 0x40 PUSH1 0x0 KECCAK256 CALLER PUSH1 0x0 MSTORE DUP4 MSTORE PUSH1 0xFF PUSH1 0x40 PUSH1 0x0 KECCAK256 SLOAD AND ISZERO PUSH3 0x596 JUMPI DUP4 DUP1 RETURN JUMPDEST DUP1 PUSH3 0x5A6 PUSH3 0x5C2 SWAP3 PUSH3 0x1648 JUMP JUMPDEST DUP4 PUSH1 0x0 MSTORE DUP5 MSTORE PUSH3 0x5BC CALLER PUSH1 0x40 PUSH1 0x0 KECCAK256 PUSH3 0x1975 JUMP JUMPDEST PUSH3 0x16B0 JUMP JUMPDEST SWAP1 PUSH1 0x0 MSTORE DUP2 MSTORE PUSH1 0x40 PUSH1 0x0 KECCAK256 SWAP1 CALLER PUSH1 0x0 MSTORE MSTORE PUSH1 0x40 PUSH1 0x0 KECCAK256 PUSH1 0x1 PUSH1 0xFF NOT DUP3 SLOAD AND OR SWAP1 SSTORE CODESIZE DUP1 DUP1 DUP4 DUP1 RETURN JUMPDEST PUSH1 0x40 MLOAD PUSH3 0x461BCD PUSH1 0xE5 SHL DUP2 MSTORE PUSH1 0x4 DUP2 ADD DUP6 SWAP1 MSTORE PUSH1 0x1A PUSH1 0x24 DUP3 ADD MSTORE PUSH26 0x13DB9B1E481B185D5B98DA1C18591CC818D85B88191BC8185919 PUSH1 0x32 SHL PUSH1 0x44 DUP3 ADD MSTORE PUSH1 0x64 SWAP1 REVERT JUMPDEST DUP4 DUP1 REVERT JUMPDEST POP CALLVALUE PUSH3 0x1C5 JUMPI PUSH1 0x20 CALLDATASIZE PUSH1 0x3 NOT ADD SLT PUSH3 0x1C5 JUMPI PUSH1 0x4 CALLDATALOAD SWAP1 PUSH1 0x2 DUP3 LT ISZERO PUSH3 0x1C5 JUMPI POP PUSH1 0x0 MSTORE PUSH1 0x3 PUSH1 0x20 MSTORE PUSH1 0x20 PUSH1 0x40 PUSH1 0x0 KECCAK256 SLOAD PUSH1 0x40 MLOAD SWAP1 DUP2 MSTORE RETURN JUMPDEST POP CALLVALUE PUSH3 0x1C5 JUMPI DUP1 PUSH1 0x3 NOT CALLDATASIZE ADD SLT PUSH3 0x1C5 JUMPI SLOAD PUSH1 0x40 MLOAD PUSH1 0x1 PUSH1 0x1 PUSH1 0xA0 SHL SUB SWAP1 SWAP2 AND DUP2 MSTORE PUSH1 0x20 SWAP1 RETURN JUMPDEST POP CALLVALUE PUSH3 0x1C5 JUMPI PUSH1 0x20 CALLDATASIZE PUSH1 0x3 NOT ADD SLT PUSH3 0x1C5 JUMPI PUSH3 0x6B2 PUSH3 0x1837 JUMP JUMPDEST PUSH1 0x4 CALLDATALOAD PUSH1 0x1 SSTORE DUP1 RETURN JUMPDEST POP CALLVALUE PUSH3 0x1C5 JUMPI DUP1 PUSH1 0x3 NOT CALLDATASIZE ADD SLT PUSH3 0x1C5 JUMPI PUSH1 0x3 PUSH1 0x20 SWAP1 DUP2 MSTORE PUSH32 0x3617319A054D772F909F7C479A2CEBE5066E836A939412E32403C99029B92EFF SLOAD PUSH1 0x1 PUSH1 0x0 DUP2 SWAP1 MSTORE PUSH32 0xA15BC60C955C405D20D9149C709E2460F1C2D9A497496A7F46004D1772C3054C SLOAD SWAP3 SWAP4 SWAP3 SWAP2 SWAP1 PUSH3 0x730 DUP3 PUSH3 0x1918 JUMP JUMPDEST SWAP4 PUSH3 0x73C DUP5 PUSH3 0x1918 JUMP JUMPDEST SWAP4 DUP1 DUP5 GT ISZERO PUSH3 0x801 JUMPI DUP4 JUMPDEST DUP3 JUMPDEST DUP6 DUP2 LT PUSH3 0x780 JUMPI PUSH3 0x772 DUP9 PUSH3 0x385 DUP12 DUP11 PUSH1 0x40 MLOAD SWAP5 DUP6 SWAP5 PUSH1 0x40 DUP7 MSTORE PUSH1 0x40 DUP7 ADD SWAP1 PUSH3 0x17F8 JUMP JUMPDEST SWAP2 DUP5 DUP4 SUB SWAP1 DUP6 ADD MSTORE PUSH3 0x17F8 JUMP JUMPDEST DUP1 DUP3 PUSH3 0x79C SWAP3 LT PUSH3 0x7CE JUMPI JUMPDEST DUP4 DUP2 LT PUSH3 0x7A2 JUMPI PUSH3 0x1950 JUMP JUMPDEST PUSH3 0x74A JUMP JUMPDEST PUSH1 0x0 DUP7 DUP2 MSTORE PUSH1 0x4 DUP12 MSTORE PUSH1 0x40 SWAP1 DUP2 SWAP1 KECCAK256 DUP3 DUP8 MSTORE DUP12 MSTORE DUP6 KECCAK256 SLOAD PUSH1 0x1 PUSH1 0x1 PUSH1 0xA0 SHL SUB AND PUSH3 0x3C8 DUP3 DUP11 PUSH3 0x1960 JUMP JUMPDEST PUSH1 0x0 DUP1 DUP1 MSTORE PUSH1 0x4 DUP12 MSTORE PUSH1 0x40 SWAP1 DUP2 SWAP1 KECCAK256 DUP3 DUP8 MSTORE DUP12 MSTORE DUP6 KECCAK256 SLOAD PUSH1 0x1 PUSH1 0x1 PUSH1 0xA0 SHL SUB AND PUSH3 0x7FA DUP3 DUP12 PUSH3 0x1960 JUMP JUMPDEST MSTORE PUSH3 0x78E JUMP JUMPDEST DUP1 SWAP4 PUSH3 0x748 JUMP JUMPDEST POP CALLVALUE PUSH3 0x1C5 JUMPI PUSH1 0x40 CALLDATASIZE PUSH1 0x3 NOT ADD SLT PUSH3 0x1C5 JUMPI PUSH1 0x4 CALLDATALOAD PUSH1 0x2 DUP2 LT ISZERO PUSH3 0x854 JUMPI SWAP1 PUSH3 0x838 PUSH1 0x20 SWAP3 PUSH3 0x167C JUMP JUMPDEST PUSH1 0x24 CALLDATALOAD DUP3 MSTORE DUP3 MSTORE PUSH1 0x40 PUSH1 0x1 DUP1 PUSH1 0xA0 SHL SUB SWAP2 KECCAK256 SLOAD AND PUSH1 0x40 MLOAD SWAP1 DUP2 MSTORE RETURN JUMPDEST POP DUP1 REVERT JUMPDEST POP CALLVALUE PUSH3 0x1C5 JUMPI DUP1 PUSH1 0x3 NOT CALLDATASIZE ADD SLT PUSH3 0x1C5 JUMPI PUSH1 0x20 PUSH1 0x1 SLOAD PUSH1 0x40 MLOAD SWAP1 DUP2 MSTORE RETURN JUMPDEST POP CALLVALUE PUSH3 0x1C5 JUMPI PUSH1 0x40 CALLDATASIZE PUSH1 0x3 NOT ADD SLT PUSH3 0x1C5 JUMPI PUSH1 0x4 CALLDATALOAD SWAP1 PUSH1 0x2 DUP3 LT ISZERO PUSH3 0x1C5 JUMPI POP PUSH3 0x8B0 PUSH3 0x8A9 PUSH3 0x15E6 JUMP JUMPDEST SWAP2 PUSH3 0x1696 JUMP JUMPDEST SWAP1 PUSH1 0x1 DUP1 PUSH1 0xA0 SHL SUB AND PUSH1 0x0 MSTORE PUSH1 0x20 MSTORE PUSH1 0x20 PUSH1 0x40 PUSH1 0x0 KECCAK256 SLOAD PUSH1 0x40 MLOAD SWAP1 DUP2 MSTORE RETURN JUMPDEST POP CALLVALUE PUSH3 0x1C5 JUMPI DUP1 PUSH1 0x3 NOT CALLDATASIZE ADD SLT PUSH3 0x1C5 JUMPI PUSH3 0x8EC PUSH3 0x1837 JUMP JUMPDEST PUSH1 0x0 DUP1 SLOAD PUSH1 0x1 PUSH1 0x1 PUSH1 0xA0 SHL SUB NOT DUP2 AND DUP3 SSTORE PUSH1 0x1 PUSH1 0x1 PUSH1 0xA0 SHL SUB AND PUSH1 0x0 DUP1 MLOAD PUSH1 0x20 PUSH3 0x49FF DUP4 CODECOPY DUP2 MLOAD SWAP2 MSTORE DUP3 DUP1 LOG3 DUP1 RETURN JUMPDEST POP CALLVALUE PUSH3 0x1C5 JUMPI PUSH1 0x60 CALLDATASIZE PUSH1 0x3 NOT ADD SLT PUSH3 0x1C5 JUMPI PUSH3 0x93A PUSH3 0x15CF JUMP JUMPDEST PUSH1 0x24 CALLDATALOAD SWAP2 SWAP1 PUSH1 0x1 PUSH1 0x1 PUSH1 0x40 SHL SUB DUP4 GT PUSH3 0x854 JUMPI CALLDATASIZE PUSH1 0x23 DUP5 ADD SLT ISZERO PUSH3 0x854 JUMPI DUP3 PUSH1 0x4 ADD CALLDATALOAD SWAP1 PUSH3 0x96B DUP3 PUSH3 0x17E0 JUMP JUMPDEST SWAP4 PUSH3 0x97B PUSH1 0x40 MLOAD SWAP6 DUP7 PUSH3 0x1761 JUMP JUMPDEST DUP3 DUP6 MSTORE PUSH1 0x20 SWAP3 PUSH1 0x24 DUP5 DUP8 ADD SWAP2 PUSH1 0x5 SHL DUP4 ADD ADD SWAP2 CALLDATASIZE DUP4 GT PUSH3 0xA15 JUMPI PUSH1 0x24 ADD SWAP1 JUMPDEST DUP3 DUP3 LT PUSH3 0x9FB JUMPI POP POP POP PUSH3 0x9ED PUSH32 0xA02C1EFBAAB597E86B4D73CE579F2B7B75AAE48FD876C1C8989F5B044872A7B4 SWAP4 SWAP5 PUSH1 0x60 PUSH1 0x40 MLOAD SWAP5 DUP6 SWAP5 PUSH1 0x1 DUP1 PUSH1 0xA0 SHL SUB AND DUP6 MSTORE DUP5 ADD MSTORE PUSH1 0x60 DUP4 ADD SWAP1 PUSH3 0x17F8 JUMP JUMPDEST PUSH1 0x44 CALLDATALOAD PUSH1 0x40 DUP4 ADD MSTORE SUB SWAP1 LOG1 DUP1 RETURN JUMPDEST DUP5 DUP1 SWAP2 PUSH3 0xA09 DUP5 PUSH3 0x15FD JUMP JUMPDEST DUP2 MSTORE ADD SWAP2 ADD SWAP1 PUSH3 0x99B JUMP JUMPDEST DUP6 DUP1 REVERT JUMPDEST POP PUSH2 0x220 CALLDATASIZE PUSH1 0x3 NOT ADD SLT PUSH3 0x1C5 JUMPI CALLDATASIZE PUSH1 0x23 SLT ISZERO PUSH3 0x1C5 JUMPI PUSH1 0x40 MLOAD PUSH3 0xA40 DUP2 PUSH3 0x172F JUMP JUMPDEST DUP1 CALLDATASIZE PUSH1 0x44 GT PUSH3 0x12F2 JUMPI PUSH1 0x4 SWAP1 JUMPDEST PUSH1 0x44 DUP3 LT PUSH3 0x12E1 JUMPI POP POP CALLDATASIZE PUSH1 0x63 SLT ISZERO PUSH3 0x854 JUMPI PUSH1 0x40 MLOAD SWAP1 PUSH1 0x60 DUP3 ADD PUSH1 0x1 PUSH1 0x1 PUSH1 0x40 SHL SUB DUP2 GT DUP4 DUP3 LT OR PUSH3 0x12CD JUMPI PUSH1 0x40 MSTORE DUP2 PUSH1 0xA4 SWAP3 CALLDATASIZE DUP5 GT PUSH3 0x12A7 JUMPI PUSH1 0x44 SWAP1 JUMPDEST DUP5 DUP3 LT PUSH3 0x12BC JUMPI POP POP CALLDATASIZE PUSH1 0xC3 SLT ISZERO PUSH3 0x62C JUMPI PUSH1 0x40 MLOAD SWAP2 PUSH3 0xAB4 DUP4 PUSH3 0x172F JUMP JUMPDEST DUP3 PUSH1 0xE4 SWAP5 CALLDATASIZE DUP7 GT PUSH3 0x1281 JUMPI SWAP1 JUMPDEST DUP6 DUP3 LT PUSH3 0x12AB JUMPI POP POP CALLDATASIZE PUSH2 0x103 SLT ISZERO PUSH3 0x12A7 JUMPI PUSH1 0x40 MLOAD PUSH3 0xAE5 DUP2 PUSH3 0x172F JUMP JUMPDEST DUP1 PUSH2 0x124 SWAP6 CALLDATASIZE DUP8 GT PUSH3 0x1262 JUMPI SWAP1 JUMPDEST DUP7 DUP3 LT PUSH3 0x1296 JUMPI POP POP CALLDATASIZE PUSH2 0x143 SLT ISZERO PUSH3 0xA15 JUMPI PUSH1 0x40 MLOAD SWAP4 PUSH3 0xB18 DUP6 PUSH3 0x172F JUMP JUMPDEST DUP5 PUSH2 0x164 SWAP7 CALLDATASIZE DUP9 GT PUSH3 0x125E JUMPI SWAP1 JUMPDEST DUP8 DUP3 LT PUSH3 0x1285 JUMPI POP POP CALLDATASIZE PUSH2 0x183 SLT ISZERO PUSH3 0x1281 JUMPI PUSH1 0x40 MLOAD SWAP6 PUSH3 0xB4B DUP8 PUSH3 0x172F JUMP JUMPDEST DUP7 PUSH2 0x1A4 SWAP2 CALLDATASIZE DUP4 GT PUSH3 0x125A JUMPI SWAP1 JUMPDEST DUP3 DUP3 LT PUSH3 0x1266 JUMPI POP POP CALLDATALOAD PUSH1 0x1 PUSH1 0x1 PUSH1 0x40 SHL SUB DUP2 GT PUSH3 0x1262 JUMPI PUSH3 0xB84 SWAP1 CALLDATASIZE SWAP1 PUSH1 0x4 ADD PUSH3 0x1785 JUMP JUMPDEST PUSH2 0x1C4 CALLDATALOAD SWAP7 DUP8 ISZERO ISZERO DUP9 SUB PUSH3 0x125E JUMPI PUSH1 0x2 PUSH2 0x1E4 CALLDATALOAD LT ISZERO PUSH3 0x125E JUMPI PUSH2 0x204 CALLDATALOAD PUSH1 0x1 PUSH1 0x1 PUSH1 0x40 SHL SUB DUP2 GT PUSH3 0x125A JUMPI PUSH3 0xBC3 SWAP1 CALLDATASIZE SWAP1 PUSH1 0x4 ADD PUSH3 0x1785 JUMP JUMPDEST SWAP7 PUSH1 0x1 DUP1 PUSH1 0xA0 SHL SUB DUP3 MLOAD AND PUSH1 0x1 SLOAD CALLVALUE LT PUSH3 0x121A JUMPI DUP11 MSTORE PUSH1 0x2 PUSH1 0x20 MSTORE PUSH1 0x40 DUP11 KECCAK256 SLOAD PUSH1 0x1 PUSH1 0x1 PUSH1 0xA0 SHL SUB AND PUSH3 0x11D9 JUMPI PUSH1 0x1 PUSH2 0x1E4 CALLDATALOAD EQ PUSH3 0x1169 JUMPI JUMPDEST DUP10 SLOAD PUSH1 0x40 MLOAD SWAP1 PUSH1 0x1 PUSH1 0x1 PUSH1 0xA0 SHL SUB AND PUSH1 0x1 PUSH1 0x1 PUSH1 0x40 SHL SUB PUSH2 0x3032 DUP4 ADD SWAP1 DUP2 GT SWAP1 DUP4 GT OR PUSH3 0x1155 JUMPI DUP2 SWAP1 PUSH2 0x3032 PUSH3 0x19CD DUP4 CODECOPY PUSH3 0xC42 PUSH2 0x3032 DUP4 ADD DUP11 PUSH3 0x1890 JUMP JUMPDEST DUP10 DUP14 PUSH2 0x3032 DUP5 ADD PUSH1 0x40 ADD JUMPDEST PUSH1 0x3 DUP3 LT PUSH3 0x113A JUMPI POP POP POP PUSH3 0xC6C PUSH1 0xA0 PUSH2 0x3032 DUP5 ADD ADD DUP9 PUSH3 0x1890 JUMP JUMPDEST PUSH3 0xC7F PUSH1 0xE0 PUSH2 0x3032 DUP5 ADD ADD DUP10 PUSH3 0x1890 JUMP JUMPDEST PUSH3 0xC93 PUSH2 0x120 PUSH2 0x3032 DUP5 ADD ADD DUP6 PUSH3 0x1890 JUMP JUMPDEST DUP5 DUP14 PUSH2 0x3032 DUP5 ADD PUSH2 0x160 ADD JUMPDEST PUSH1 0x2 DUP3 LT PUSH3 0x1116 JUMPI POP POP POP PUSH2 0x220 PUSH2 0x1A0 PUSH2 0x3032 DUP5 ADD ADD MSTORE PUSH3 0xCCC PUSH2 0x220 PUSH2 0x3032 DUP5 ADD ADD DUP8 PUSH3 0x18BA JUMP JUMPDEST SWAP1 PUSH2 0x1C0 PUSH2 0x3032 DUP5 ADD ADD MSTORE DUP12 ISZERO ISZERO PUSH2 0x1E0 PUSH2 0x3032 DUP5 ADD ADD MSTORE PUSH3 0xCFB PUSH2 0x200 PUSH2 0x3032 DUP5 ADD ADD PUSH2 0x1E4 CALLDATALOAD PUSH3 0x18FC JUMP JUMPDEST SUB SWAP1 DUP12 CREATE SWAP7 DUP8 ISZERO PUSH3 0xFF1 JUMPI DUP5 MLOAD PUSH1 0x20 DUP9 ADD MLOAD DUP5 MLOAD DUP5 MLOAD PUSH1 0x1 PUSH1 0x1 PUSH1 0xA0 SHL SUB SWAP12 DUP13 AND SWAP12 SWAP1 SWAP2 AND SWAP3 SWAP1 SWAP2 PUSH3 0xD2F SWAP2 PUSH3 0x19B8 JUMP JUMPDEST PUSH1 0x40 MLOAD PUSH4 0x313CE567 PUSH1 0xE0 SHL DUP2 MSTORE DUP15 SWAP1 PUSH1 0x20 DUP2 PUSH1 0x4 DUP2 DUP9 GAS STATICCALL SWAP2 DUP3 ISZERO PUSH3 0x110A JUMPI SWAP2 PUSH3 0x10C3 JUMPI JUMPDEST POP PUSH1 0x4D PUSH1 0xFF DUP3 AND GT PUSH3 0x10AF JUMPI SWAP2 DUP12 DUP16 SWAP3 PUSH3 0xD85 PUSH8 0xDE0B6B3A7640000 SWAP2 PUSH1 0xFF PUSH1 0x20 SWAP8 AND PUSH1 0xA EXP SWAP1 PUSH3 0x19B8 JUMP JUMPDEST DIV SWAP2 DUP1 PUSH3 0x108A JUMPI JUMPDEST POP PUSH1 0x64 SWAP2 SWAP3 PUSH1 0x40 MLOAD SWAP6 DUP7 SWAP5 DUP6 SWAP4 PUSH4 0x23B872DD PUSH1 0xE0 SHL DUP6 MSTORE CALLER PUSH1 0x4 DUP7 ADD MSTORE PUSH1 0x24 DUP6 ADD MSTORE PUSH1 0x44 DUP5 ADD MSTORE GAS CALL DUP1 ISZERO PUSH3 0x1038 JUMPI PUSH3 0x1047 JUMPI JUMPDEST POP PUSH3 0xDD3 PUSH2 0x1E4 CALLDATALOAD PUSH3 0x1662 JUMP JUMPDEST SLOAD DUP4 MLOAD PUSH1 0x1 PUSH1 0x1 PUSH1 0xA0 SHL SUB AND DUP13 MSTORE PUSH1 0x2 PUSH1 0x20 MSTORE PUSH1 0x40 DUP1 DUP14 KECCAK256 DUP1 SLOAD PUSH1 0x1 PUSH1 0x1 PUSH1 0xA0 SHL SUB NOT SWAP1 DUP2 AND DUP13 OR SWAP1 SWAP2 SSTORE SWAP1 DUP11 SWAP1 DUP15 PUSH3 0xE10 PUSH2 0x1E4 CALLDATALOAD PUSH3 0x167C JUMP JUMPDEST DUP6 DUP3 MSTORE PUSH1 0x20 MSTORE KECCAK256 SWAP2 DUP3 SLOAD AND OR SWAP1 SSTORE PUSH3 0xE2C PUSH2 0x1E4 CALLDATALOAD PUSH3 0x1696 JUMP JUMPDEST DUP10 DUP14 MSTORE PUSH1 0x20 MSTORE PUSH1 0x40 DUP13 KECCAK256 SSTORE PUSH3 0xE45 PUSH2 0x1E4 CALLDATALOAD PUSH3 0x1662 JUMP JUMPDEST PUSH3 0xE51 DUP2 SLOAD PUSH3 0x1950 JUMP JUMPDEST SWAP1 SSTORE PUSH2 0x1E4 CALLDATALOAD DUP12 MSTORE PUSH1 0x7 PUSH1 0x20 MSTORE PUSH1 0x40 DUP12 KECCAK256 CALLER DUP13 MSTORE PUSH1 0x20 MSTORE PUSH3 0xE77 DUP9 PUSH1 0x40 DUP14 KECCAK256 PUSH3 0x1975 JUMP JUMPDEST DUP8 EXTCODESIZE ISZERO PUSH3 0x1043 JUMPI PUSH1 0x40 MLOAD PUSH4 0xF2FDE38B PUSH1 0xE0 SHL DUP2 MSTORE CALLER PUSH1 0x4 DUP3 ADD MSTORE DUP12 DUP2 PUSH1 0x24 DUP2 DUP4 DUP14 GAS CALL DUP1 ISZERO PUSH3 0x1038 JUMPI PUSH3 0x1007 JUMPI JUMPDEST POP DUP11 DUP1 DUP1 DUP1 PUSH1 0x1 DUP1 PUSH1 0xA0 SHL SUB DUP2 SLOAD AND DUP2 SWAP1 CALLVALUE ISZERO PUSH3 0xFFC JUMPI JUMPDEST CALLVALUE SWAP2 CALL ISZERO PUSH3 0xFF1 JUMPI PUSH32 0xEE90580C82C1DD621940D2475E74D781F1A7C448598EB66061B3D90E8A79F05D SWAP10 PUSH1 0xE0 SWAP10 PUSH32 0x3168AE2F2728D9DF8AF2E3D73090EC30B48CA66E0DF68D3C786BFD10B0DD6320 SWAP6 DUP11 SWAP5 PUSH3 0xFAE SWAP5 PUSH1 0x1 DUP1 PUSH1 0xA0 SHL SUB DUP9 MLOAD AND SWAP8 PUSH1 0x20 PUSH1 0x1 DUP1 PUSH1 0xA0 SHL SUB SWAP2 ADD MLOAD AND SWAP3 PUSH3 0xF81 DUP3 MLOAD SWAP2 PUSH1 0x40 PUSH1 0x20 DUP6 ADD MLOAD SWAP5 ADD MLOAD SWAP5 MLOAD SWAP6 PUSH1 0x40 MLOAD SWAP12 DUP13 SWAP12 DUP13 MSTORE CALLER PUSH1 0x20 DUP14 ADD MSTORE PUSH1 0x40 DUP13 ADD MSTORE PUSH1 0x60 DUP12 ADD MSTORE PUSH3 0xF6F PUSH1 0x80 DUP12 ADD PUSH2 0x1E4 CALLDATALOAD PUSH3 0x18FC JUMP JUMPDEST PUSH2 0x180 DUP1 PUSH1 0xA0 DUP13 ADD MSTORE DUP11 ADD SWAP1 PUSH3 0x18BA JUMP JUMPDEST SWAP6 ISZERO ISZERO PUSH1 0xC0 DUP10 ADD MSTORE DUP15 DUP9 ADD MSTORE PUSH2 0x100 DUP8 ADD MSTORE PUSH2 0x120 DUP7 ADD MSTORE PUSH2 0x140 DUP6 ADD MSTORE DUP4 DUP3 SUB PUSH2 0x160 DUP6 ADD MSTORE PUSH3 0x18BA JUMP JUMPDEST SUB SWAP1 LOG1 PUSH1 0x20 DUP4 MLOAD SWAP4 ADD MLOAD SWAP1 PUSH1 0x20 DUP2 MLOAD SWAP2 ADD MLOAD SWAP2 PUSH1 0x20 DUP5 MLOAD SWAP5 ADD MLOAD SWAP5 PUSH1 0x40 MLOAD SWAP7 DUP8 MSTORE PUSH1 0x20 DUP8 ADD MSTORE PUSH1 0x40 DUP7 ADD MSTORE PUSH1 0x60 DUP6 ADD MSTORE PUSH1 0x80 DUP5 ADD MSTORE PUSH1 0xA0 DUP4 ADD MSTORE PUSH1 0xC0 DUP3 ADD MSTORE LOG1 DUP1 RETURN JUMPDEST PUSH1 0x40 MLOAD RETURNDATASIZE DUP13 DUP3 RETURNDATACOPY RETURNDATASIZE SWAP1 REVERT JUMPDEST PUSH2 0x8FC SWAP2 POP PUSH3 0xEC1 JUMP JUMPDEST SWAP1 SWAP11 SWAP1 PUSH1 0x1 PUSH1 0x1 PUSH1 0x40 SHL SUB DUP2 GT PUSH3 0x1024 JUMPI PUSH1 0x40 MSTORE SWAP10 CODESIZE PUSH3 0xEA8 JUMP JUMPDEST PUSH4 0x4E487B71 PUSH1 0xE0 SHL DUP3 MSTORE PUSH1 0x41 PUSH1 0x4 MSTORE PUSH1 0x24 DUP3 REVERT JUMPDEST PUSH1 0x40 MLOAD RETURNDATASIZE DUP15 DUP3 RETURNDATACOPY RETURNDATASIZE SWAP1 REVERT JUMPDEST DUP11 DUP1 REVERT JUMPDEST PUSH1 0x20 DUP2 RETURNDATASIZE PUSH1 0x20 GT PUSH3 0x1081 JUMPI JUMPDEST DUP2 PUSH3 0x1063 PUSH1 0x20 SWAP4 DUP4 PUSH3 0x1761 JUMP JUMPDEST DUP2 ADD SUB SLT PUSH3 0x107D JUMPI MLOAD DUP1 ISZERO ISZERO SUB PUSH3 0x1043 JUMPI CODESIZE PUSH3 0xDC4 JUMP JUMPDEST DUP12 DUP1 REVERT JUMPDEST RETURNDATASIZE SWAP2 POP PUSH3 0x1054 JUMP JUMPDEST DUP3 PUSH2 0x2710 PUSH3 0x10A0 PUSH3 0x10A8 SWAP4 PUSH1 0x64 SWAP7 PUSH3 0x19B8 JUMP JUMPDEST DIV SWAP1 PUSH3 0x190A JUMP JUMPDEST SWAP2 PUSH3 0xD8E JUMP JUMPDEST PUSH4 0x4E487B71 PUSH1 0xE0 SHL DUP16 MSTORE PUSH1 0x11 PUSH1 0x4 MSTORE PUSH1 0x24 DUP16 REVERT JUMPDEST SWAP1 POP PUSH1 0x20 DUP2 RETURNDATASIZE PUSH1 0x20 GT PUSH3 0x1101 JUMPI JUMPDEST DUP2 PUSH3 0x10E1 PUSH1 0x20 SWAP4 DUP4 PUSH3 0x1761 JUMP JUMPDEST DUP2 ADD SUB SLT PUSH3 0x10FD JUMPI MLOAD PUSH1 0xFF DUP2 AND DUP2 SUB PUSH3 0x10FD JUMPI CODESIZE PUSH3 0xD56 JUMP JUMPDEST DUP15 DUP1 REVERT JUMPDEST RETURNDATASIZE SWAP2 POP PUSH3 0x10D2 JUMP JUMPDEST PUSH1 0x40 MLOAD SWAP1 RETURNDATASIZE SWAP1 DUP3 RETURNDATACOPY RETURNDATASIZE SWAP1 REVERT JUMPDEST DUP3 MLOAD PUSH1 0x1 PUSH1 0x1 PUSH1 0xA0 SHL SUB AND DUP2 MSTORE DUP6 SWAP5 POP PUSH1 0x20 SWAP3 DUP4 ADD SWAP3 PUSH1 0x1 SWAP3 SWAP1 SWAP3 ADD SWAP2 ADD PUSH3 0xC9F JUMP JUMPDEST DUP3 MLOAD DUP2 MSTORE DUP6 SWAP5 POP PUSH1 0x20 SWAP3 DUP4 ADD SWAP3 PUSH1 0x1 SWAP3 SWAP1 SWAP3 ADD SWAP2 ADD PUSH3 0xC4D JUMP JUMPDEST PUSH4 0x4E487B71 PUSH1 0xE0 SHL DUP13 MSTORE PUSH1 0x41 PUSH1 0x4 MSTORE PUSH1 0x24 DUP13 REVERT JUMPDEST DUP6 MLOAD ISZERO DUP1 PUSH3 0x11CF JUMPI JUMPDEST DUP1 PUSH3 0x11C2 JUMPI JUMPDEST PUSH3 0xBFF JUMPI PUSH1 0x40 MLOAD PUSH3 0x461BCD PUSH1 0xE5 SHL DUP2 MSTORE PUSH1 0x20 PUSH1 0x4 DUP3 ADD MSTORE PUSH1 0x1B PUSH1 0x24 DUP3 ADD MSTORE PUSH27 0x125B9D985B1A590818DC99585D19481B185D5B98DA081A5B9C1D5D PUSH1 0x2A SHL PUSH1 0x44 DUP3 ADD MSTORE PUSH1 0x64 SWAP1 REVERT JUMPDEST POP PUSH1 0x20 DUP6 ADD MLOAD ISZERO PUSH3 0x117A JUMP JUMPDEST POP DUP5 MLOAD ISZERO PUSH3 0x1173 JUMP JUMPDEST PUSH1 0x40 MLOAD PUSH3 0x461BCD PUSH1 0xE5 SHL DUP2 MSTORE PUSH1 0x20 PUSH1 0x4 DUP3 ADD MSTORE PUSH1 0x19 PUSH1 0x24 DUP3 ADD MSTORE PUSH25 0x13185D5B98DA1C185908185B1C9958591E4818DC99585D1959 PUSH1 0x3A SHL PUSH1 0x44 DUP3 ADD MSTORE PUSH1 0x64 SWAP1 REVERT JUMPDEST PUSH1 0x40 MLOAD PUSH3 0x461BCD PUSH1 0xE5 SHL DUP2 MSTORE PUSH1 0x20 PUSH1 0x4 DUP3 ADD MSTORE PUSH1 0x18 PUSH1 0x24 DUP3 ADD MSTORE PUSH24 0x4E6F7420656E6F75676820424E4220746F206465706C6F79 PUSH1 0x40 SHL PUSH1 0x44 DUP3 ADD MSTORE PUSH1 0x64 SWAP1 REVERT JUMPDEST DUP10 DUP1 REVERT JUMPDEST DUP9 DUP1 REVERT JUMPDEST DUP8 DUP1 REVERT JUMPDEST PUSH1 0x20 DUP1 SWAP2 PUSH3 0x1275 DUP5 PUSH3 0x15FD JUMP JUMPDEST DUP2 MSTORE ADD SWAP2 ADD SWAP1 PUSH3 0xB5A JUMP JUMPDEST DUP7 DUP1 REVERT JUMPDEST DUP2 CALLDATALOAD DUP2 MSTORE PUSH1 0x20 SWAP2 DUP3 ADD SWAP2 ADD PUSH3 0xB27 JUMP JUMPDEST DUP2 CALLDATALOAD DUP2 MSTORE PUSH1 0x20 SWAP2 DUP3 ADD SWAP2 ADD PUSH3 0xAF4 JUMP JUMPDEST DUP5 DUP1 REVERT JUMPDEST DUP2 CALLDATALOAD DUP2 MSTORE PUSH1 0x20 SWAP2 DUP3 ADD SWAP2 ADD PUSH3 0xAC2 JUMP JUMPDEST DUP2 CALLDATALOAD DUP2 MSTORE PUSH1 0x20 SWAP2 DUP3 ADD SWAP2 ADD PUSH3 0xA91 JUMP JUMPDEST PUSH4 0x4E487B71 PUSH1 0xE0 SHL DUP5 MSTORE PUSH1 0x41 PUSH1 0x4 MSTORE PUSH1 0x24 DUP5 REVERT JUMPDEST DUP2 CALLDATALOAD DUP2 MSTORE PUSH1 0x20 SWAP2 DUP3 ADD SWAP2 ADD PUSH3 0xA4E JUMP JUMPDEST DUP3 DUP1 REVERT JUMPDEST POP CALLVALUE PUSH3 0x1C5 JUMPI PUSH1 0x40 CALLDATASIZE PUSH1 0x3 NOT ADD SLT PUSH3 0x1C5 JUMPI PUSH1 0x1 PUSH1 0x1 PUSH1 0xA0 SHL SUB DUP1 PUSH3 0x131D PUSH3 0x15CF JUMP JUMPDEST AND SWAP1 DUP2 DUP4 MSTORE PUSH1 0x2 PUSH1 0x20 MSTORE DUP1 PUSH1 0x40 DUP5 KECCAK256 SLOAD AND CALLER SUB PUSH3 0x1390 JUMPI PUSH1 0x40 PUSH32 0x88B4950CD633EB83502DC130D021AF06D80A2E22F3F0FC48EC3EFDEA1FC57517 SWAP2 DUP4 DUP6 MSTORE PUSH1 0x2 PUSH1 0x20 MSTORE DUP2 DUP6 KECCAK256 SLOAD AND DUP2 MLOAD SWAP1 DUP2 MSTORE PUSH1 0x24 CALLDATALOAD PUSH1 0x20 DUP3 ADD MSTORE LOG1 DUP2 MSTORE PUSH1 0x2 PUSH1 0x20 MSTORE PUSH1 0x40 DUP2 KECCAK256 DUP1 SLOAD PUSH1 0x1 PUSH1 0x1 PUSH1 0xA0 SHL SUB NOT AND SWAP1 SSTORE DUP1 RETURN JUMPDEST PUSH1 0x40 MLOAD PUSH3 0x461BCD PUSH1 0xE5 SHL DUP2 MSTORE PUSH1 0x20 PUSH1 0x4 DUP3 ADD MSTORE PUSH1 0x1A PUSH1 0x24 DUP3 ADD MSTORE PUSH26 0x4F6E6C79206C61756E6368706164732063616E2072656D6F7665 PUSH1 0x30 SHL PUSH1 0x44 DUP3 ADD MSTORE PUSH1 0x64 SWAP1 REVERT JUMPDEST POP CALLVALUE PUSH3 0x1C5 JUMPI PUSH1 0x40 CALLDATASIZE PUSH1 0x3 NOT ADD SLT PUSH3 0x1C5 JUMPI PUSH3 0x13F0 PUSH3 0x15CF JUMP JUMPDEST PUSH1 0x24 SWAP1 DUP2 CALLDATALOAD SWAP2 PUSH1 0x2 DUP4 LT ISZERO DUP1 PUSH3 0x12A7 JUMPI PUSH3 0x140C DUP5 PUSH3 0x1648 JUMP JUMPDEST PUSH1 0x1 PUSH1 0x1 PUSH1 0xA0 SHL SUB SWAP4 DUP5 AND DUP1 DUP8 MSTORE PUSH1 0x20 SWAP2 DUP3 MSTORE PUSH1 0x40 DUP8 KECCAK256 SLOAD SWAP2 SWAP7 SWAP2 SWAP4 PUSH3 0x1433 DUP6 PUSH3 0x1918 JUMP JUMPDEST SWAP7 PUSH3 0x143F DUP7 PUSH3 0x1918 JUMP JUMPDEST SWAP7 DUP5 JUMPDEST DUP8 DUP2 LT PUSH3 0x1478 JUMPI PUSH3 0x146A DUP11 PUSH3 0x385 DUP14 DUP13 PUSH1 0x40 MLOAD SWAP5 DUP6 SWAP5 PUSH1 0x40 DUP7 MSTORE PUSH1 0x40 DUP7 ADD SWAP1 PUSH3 0x16F9 JUMP JUMPDEST SWAP2 DUP5 DUP4 SUB SWAP1 DUP6 ADD MSTORE PUSH3 0x16F9 JUMP JUMPDEST PUSH3 0x1483 DUP4 PUSH3 0x1648 JUMP JUMPDEST DUP6 DUP8 MSTORE DUP12 MSTORE DUP7 DUP3 PUSH3 0x1499 DUP4 PUSH1 0x40 DUP11 KECCAK256 PUSH3 0x16CA JUMP JUMPDEST SWAP1 SLOAD SWAP1 PUSH1 0x3 SHL SHR AND SWAP1 PUSH3 0x1551 JUMPI SWAP1 DUP12 DUP6 SWAP3 DUP6 DUP10 MSTORE PUSH1 0x5 DUP3 MSTORE PUSH1 0x40 DUP10 KECCAK256 DUP2 DUP11 MSTORE DUP3 MSTORE DUP13 PUSH3 0x14CD DUP5 PUSH1 0x40 DUP13 KECCAK256 SLOAD SWAP3 PUSH3 0x1960 JUMP JUMPDEST MSTORE PUSH1 0x40 MLOAD SWAP4 DUP5 DUP1 SWAP3 PUSH4 0x4A4643F7 PUSH1 0xE0 SHL DUP3 MSTORE DUP11 PUSH1 0x4 DUP4 ADD MSTORE GAS STATICCALL DUP1 ISZERO PUSH3 0x1546 JUMPI DUP8 SWAP1 PUSH3 0x150E JUMPI JUMPDEST PUSH3 0x1508 SWAP3 POP PUSH3 0x3C8 DUP3 DUP13 PUSH3 0x1960 JUMP JUMPDEST PUSH3 0x1442 JUMP JUMPDEST POP SWAP1 DUP12 DUP2 DUP2 RETURNDATASIZE DUP4 GT PUSH3 0x153E JUMPI JUMPDEST PUSH3 0x1528 DUP2 DUP4 PUSH3 0x1761 JUMP JUMPDEST DUP2 ADD SUB SLT PUSH3 0x1281 JUMPI SWAP1 PUSH3 0x1508 SWAP2 MLOAD PUSH3 0x14F6 JUMP JUMPDEST POP RETURNDATASIZE PUSH3 0x151C JUMP JUMPDEST PUSH1 0x40 MLOAD RETURNDATASIZE DUP10 DUP3 RETURNDATACOPY RETURNDATASIZE SWAP1 REVERT JUMPDEST PUSH4 0x4E487B71 PUSH1 0xE0 SHL DUP8 MSTORE PUSH1 0x21 PUSH1 0x4 MSTORE DUP5 DUP8 REVERT JUMPDEST POP CALLVALUE PUSH3 0x1C5 JUMPI PUSH3 0x1576 CALLDATASIZE PUSH3 0x1612 JUMP JUMPDEST SWAP3 SWAP1 SWAP2 PUSH1 0x2 DUP2 LT ISZERO PUSH3 0x15BB JUMPI DUP2 MSTORE PUSH1 0x7 PUSH1 0x20 MSTORE PUSH1 0x40 DUP2 KECCAK256 PUSH1 0x1 DUP1 PUSH1 0xA0 SHL SUB DUP1 SWAP4 AND DUP3 MSTORE PUSH1 0x20 MSTORE PUSH1 0x40 DUP2 KECCAK256 SWAP1 DUP2 SLOAD DUP5 LT ISZERO PUSH3 0x1C5 JUMPI POP PUSH1 0x20 SWAP3 PUSH3 0x263 SWAP2 PUSH3 0x16CA JUMP JUMPDEST PUSH4 0x4E487B71 PUSH1 0xE0 SHL DUP3 MSTORE PUSH1 0x21 PUSH1 0x4 MSTORE PUSH1 0x24 DUP3 REVERT JUMPDEST PUSH1 0x4 CALLDATALOAD SWAP1 PUSH1 0x1 PUSH1 0x1 PUSH1 0xA0 SHL SUB DUP3 AND DUP3 SUB PUSH3 0x2F9 JUMPI JUMP JUMPDEST PUSH1 0x24 CALLDATALOAD SWAP1 PUSH1 0x1 PUSH1 0x1 PUSH1 0xA0 SHL SUB DUP3 AND DUP3 SUB PUSH3 0x2F9 JUMPI JUMP JUMPDEST CALLDATALOAD SWAP1 PUSH1 0x1 PUSH1 0x1 PUSH1 0xA0 SHL SUB DUP3 AND DUP3 SUB PUSH3 0x2F9 JUMPI JUMP JUMPDEST PUSH1 0x60 SWAP1 PUSH1 0x3 NOT ADD SLT PUSH3 0x2F9 JUMPI PUSH1 0x4 CALLDATALOAD PUSH1 0x2 DUP2 LT ISZERO PUSH3 0x2F9 JUMPI SWAP1 PUSH1 0x24 CALLDATALOAD PUSH1 0x1 PUSH1 0x1 PUSH1 0xA0 SHL SUB DUP2 AND DUP2 SUB PUSH3 0x2F9 JUMPI SWAP1 PUSH1 0x44 CALLDATALOAD SWAP1 JUMP JUMPDEST PUSH1 0x2 DUP2 LT ISZERO PUSH3 0x273 JUMPI PUSH1 0x0 MSTORE PUSH1 0x6 PUSH1 0x20 MSTORE PUSH1 0x40 PUSH1 0x0 KECCAK256 SWAP1 JUMP JUMPDEST PUSH1 0x2 DUP2 LT ISZERO PUSH3 0x273 JUMPI PUSH1 0x0 MSTORE PUSH1 0x3 PUSH1 0x20 MSTORE PUSH1 0x40 PUSH1 0x0 KECCAK256 SWAP1 JUMP JUMPDEST PUSH1 0x2 DUP2 LT ISZERO PUSH3 0x273 JUMPI PUSH1 0x0 MSTORE PUSH1 0x4 PUSH1 0x20 MSTORE PUSH1 0x40 PUSH1 0x0 KECCAK256 SWAP1 JUMP JUMPDEST PUSH1 0x2 DUP2 LT ISZERO PUSH3 0x273 JUMPI PUSH1 0x0 MSTORE PUSH1 0x5 PUSH1 0x20 MSTORE PUSH1 0x40 PUSH1 0x0 KECCAK256 SWAP1 JUMP JUMPDEST PUSH1 0x2 DUP2 LT ISZERO PUSH3 0x273 JUMPI PUSH1 0x0 MSTORE PUSH1 0x8 PUSH1 0x20 MSTORE PUSH1 0x40 PUSH1 0x0 KECCAK256 SWAP1 JUMP JUMPDEST DUP1 SLOAD DUP3 LT ISZERO PUSH3 0x16E3 JUMPI PUSH1 0x0 MSTORE PUSH1 0x20 PUSH1 0x0 KECCAK256 ADD SWAP1 PUSH1 0x0 SWAP1 JUMP JUMPDEST PUSH4 0x4E487B71 PUSH1 0xE0 SHL PUSH1 0x0 MSTORE PUSH1 0x32 PUSH1 0x4 MSTORE PUSH1 0x24 PUSH1 0x0 REVERT JUMPDEST SWAP1 DUP2 MLOAD DUP1 DUP3 MSTORE PUSH1 0x20 DUP1 DUP1 SWAP4 ADD SWAP4 ADD SWAP2 PUSH1 0x0 JUMPDEST DUP3 DUP2 LT PUSH3 0x171A JUMPI POP POP POP POP SWAP1 JUMP JUMPDEST DUP4 MLOAD DUP6 MSTORE SWAP4 DUP2 ADD SWAP4 SWAP3 DUP2 ADD SWAP3 PUSH1 0x1 ADD PUSH3 0x170B JUMP JUMPDEST PUSH1 0x40 DUP2 ADD SWAP1 DUP2 LT PUSH1 0x1 PUSH1 0x1 PUSH1 0x40 SHL SUB DUP3 GT OR PUSH3 0x174B JUMPI PUSH1 0x40 MSTORE JUMP JUMPDEST PUSH4 0x4E487B71 PUSH1 0xE0 SHL PUSH1 0x0 MSTORE PUSH1 0x41 PUSH1 0x4 MSTORE PUSH1 0x24 PUSH1 0x0 REVERT JUMPDEST PUSH1 0x1F SWAP1 SWAP2 ADD PUSH1 0x1F NOT AND DUP2 ADD SWAP1 PUSH1 0x1 PUSH1 0x1 PUSH1 0x40 SHL SUB DUP3 GT SWAP1 DUP3 LT OR PUSH3 0x174B JUMPI PUSH1 0x40 MSTORE JUMP JUMPDEST DUP2 PUSH1 0x1F DUP3 ADD SLT ISZERO PUSH3 0x2F9 JUMPI DUP1 CALLDATALOAD SWAP1 PUSH1 0x1 PUSH1 0x1 PUSH1 0x40 SHL SUB DUP3 GT PUSH3 0x174B JUMPI PUSH1 0x40 MLOAD SWAP3 PUSH3 0x17BD PUSH1 0x1F DUP5 ADD PUSH1 0x1F NOT AND PUSH1 0x20 ADD DUP6 PUSH3 0x1761 JUMP JUMPDEST DUP3 DUP5 MSTORE PUSH1 0x20 DUP4 DUP4 ADD ADD GT PUSH3 0x2F9 JUMPI DUP2 PUSH1 0x0 SWAP3 PUSH1 0x20 DUP1 SWAP4 ADD DUP4 DUP7 ADD CALLDATACOPY DUP4 ADD ADD MSTORE SWAP1 JUMP JUMPDEST PUSH1 0x1 PUSH1 0x1 PUSH1 0x40 SHL SUB DUP2 GT PUSH3 0x174B JUMPI PUSH1 0x5 SHL PUSH1 0x20 ADD SWAP1 JUMP JUMPDEST SWAP1 DUP2 MLOAD DUP1 DUP3 MSTORE PUSH1 0x20 DUP1 DUP1 SWAP4 ADD SWAP4 ADD SWAP2 PUSH1 0x0 JUMPDEST DUP3 DUP2 LT PUSH3 0x1819 JUMPI POP POP POP POP SWAP1 JUMP JUMPDEST DUP4 MLOAD PUSH1 0x1 PUSH1 0x1 PUSH1 0xA0 SHL SUB AND DUP6 MSTORE SWAP4 DUP2 ADD SWAP4 SWAP3 DUP2 ADD SWAP3 PUSH1 0x1 ADD PUSH3 0x180A JUMP JUMPDEST PUSH1 0x0 SLOAD PUSH1 0x1 PUSH1 0x1 PUSH1 0xA0 SHL SUB AND CALLER SUB PUSH3 0x184C JUMPI JUMP JUMPDEST PUSH1 0x64 PUSH1 0x40 MLOAD PUSH3 0x461BCD PUSH1 0xE5 SHL DUP2 MSTORE PUSH1 0x20 PUSH1 0x4 DUP3 ADD MSTORE PUSH1 0x20 PUSH1 0x24 DUP3 ADD MSTORE PUSH32 0x4F776E61626C653A2063616C6C6572206973206E6F7420746865206F776E6572 PUSH1 0x44 DUP3 ADD MSTORE REVERT JUMPDEST PUSH1 0x0 SWAP2 JUMPDEST PUSH1 0x2 DUP4 LT PUSH3 0x18A2 JUMPI POP POP POP JUMP JUMPDEST PUSH1 0x1 SWAP1 DUP3 MLOAD DUP2 MSTORE PUSH1 0x20 DUP1 SWAP2 ADD SWAP3 ADD SWAP3 ADD SWAP2 SWAP1 PUSH3 0x1894 JUMP JUMPDEST SWAP2 SWAP1 DUP3 MLOAD SWAP3 DUP4 DUP3 MSTORE PUSH1 0x0 JUMPDEST DUP5 DUP2 LT PUSH3 0x18E7 JUMPI POP POP DUP3 PUSH1 0x0 PUSH1 0x20 DUP1 SWAP5 SWAP6 DUP5 ADD ADD MSTORE PUSH1 0x1F DUP1 NOT SWAP2 ADD AND ADD ADD SWAP1 JUMP JUMPDEST PUSH1 0x20 DUP2 DUP4 ADD DUP2 ADD MLOAD DUP5 DUP4 ADD DUP3 ADD MSTORE ADD PUSH3 0x18C5 JUMP JUMPDEST SWAP1 PUSH1 0x2 DUP3 LT ISZERO PUSH3 0x273 JUMPI MSTORE JUMP JUMPDEST SWAP2 SWAP1 DUP3 ADD DUP1 SWAP3 GT PUSH3 0x3F1 JUMPI JUMP JUMPDEST SWAP1 PUSH3 0x1924 DUP3 PUSH3 0x17E0 JUMP JUMPDEST PUSH3 0x1933 PUSH1 0x40 MLOAD SWAP2 DUP3 PUSH3 0x1761 JUMP JUMPDEST DUP3 DUP2 MSTORE DUP1 SWAP3 PUSH3 0x1946 PUSH1 0x1F NOT SWAP2 PUSH3 0x17E0 JUMP JUMPDEST ADD SWAP1 PUSH1 0x20 CALLDATASIZE SWAP2 ADD CALLDATACOPY JUMP JUMPDEST PUSH1 0x0 NOT DUP2 EQ PUSH3 0x3F1 JUMPI PUSH1 0x1 ADD SWAP1 JUMP JUMPDEST DUP1 MLOAD DUP3 LT ISZERO PUSH3 0x16E3 JUMPI PUSH1 0x20 SWAP2 PUSH1 0x5 SHL ADD ADD SWAP1 JUMP JUMPDEST DUP1 SLOAD PUSH1 0x1 PUSH1 0x40 SHL DUP2 LT ISZERO PUSH3 0x174B JUMPI PUSH3 0x1995 SWAP2 PUSH1 0x1 DUP3 ADD DUP2 SSTORE PUSH3 0x16CA JUMP JUMPDEST DUP2 SWAP3 SWAP2 SLOAD SWAP1 PUSH1 0x3 SHL SWAP2 PUSH1 0x1 DUP1 PUSH1 0xA0 SHL SUB SWAP3 DUP4 DUP2 SHL SWAP4 DUP5 SWAP3 AND SWAP1 SHL AND SWAP2 NOT AND OR SWAP1 SSTORE JUMP JUMPDEST DUP2 DUP2 MUL SWAP3 SWAP2 DUP2 ISZERO SWAP2 DUP5 DIV EQ OR ISZERO PUSH3 0x3F1 JUMPI JUMP INVALID PUSH1 0x80 PUSH1 0x40 MSTORE CALLVALUE PUSH3 0x45F JUMPI PUSH3 0x3032 DUP1 CODESIZE SUB DUP1 PUSH3 0x1D DUP2 PUSH3 0x4C8 JUMP JUMPDEST SWAP3 DUP4 CODECOPY DUP2 ADD SWAP1 PUSH2 0x220 DUP2 DUP4 SUB SLT PUSH3 0x45F JUMPI PUSH3 0x3B DUP3 DUP3 PUSH3 0x4EE JUMP JUMPDEST SWAP1 DUP3 PUSH1 0x5F DUP3 ADD SLT ISZERO PUSH3 0x45F JUMPI PUSH1 0x40 MLOAD SWAP2 PUSH1 0x60 DUP4 ADD PUSH1 0x1 PUSH1 0x1 PUSH1 0x40 SHL SUB DUP2 GT DUP5 DUP3 LT OR PUSH3 0x449 JUMPI PUSH1 0x40 MSTORE PUSH1 0xA0 DUP3 ADD DUP4 DUP6 DUP3 GT PUSH3 0x45F JUMPI DUP6 SWAP1 PUSH1 0x40 DUP6 ADD SWAP1 JUMPDEST DUP4 DUP3 LT PUSH3 0x494 JUMPI POP POP PUSH3 0x90 SWAP2 PUSH3 0x4EE JUMP JUMPDEST PUSH3 0x9F DUP6 PUSH1 0xE0 DUP6 ADD PUSH3 0x4EE JUMP JUMPDEST SWAP2 PUSH3 0xB0 DUP7 PUSH2 0x120 DUP7 ADD PUSH3 0x4EE JUMP JUMPDEST SWAP1 DUP7 PUSH2 0x17F DUP7 ADD SLT ISZERO PUSH3 0x45F JUMPI PUSH3 0xC8 PUSH3 0x4A8 JUMP JUMPDEST SWAP2 PUSH2 0x1A0 DUP7 ADD DUP4 DUP10 DUP3 GT PUSH3 0x45F JUMPI PUSH2 0x160 DUP9 ADD SWAP1 JUMPDEST DUP3 DUP3 LT PUSH3 0x479 JUMPI POP POP MLOAD PUSH1 0x1 PUSH1 0x1 PUSH1 0x40 SHL SUB DUP2 GT PUSH3 0x45F JUMPI DUP7 ADD DUP9 PUSH1 0x1F DUP3 ADD SLT ISZERO PUSH3 0x45F JUMPI DUP1 MLOAD SWAP1 PUSH1 0x1 PUSH1 0x1 PUSH1 0x40 SHL SUB DUP3 GT PUSH3 0x449 JUMPI PUSH3 0x12D PUSH1 0x1F DUP4 ADD PUSH1 0x1F NOT AND PUSH1 0x20 ADD PUSH3 0x4C8 JUMP JUMPDEST SWAP10 DUP3 DUP12 MSTORE PUSH1 0x20 DUP4 DUP4 ADD ADD GT PUSH3 0x45F JUMPI PUSH1 0x0 JUMPDEST DUP3 DUP2 LT PUSH3 0x464 JUMPI POP POP PUSH1 0x20 PUSH1 0x0 SWAP2 DUP11 ADD ADD MSTORE PUSH3 0x162 PUSH2 0x1C0 DUP8 ADD PUSH3 0x534 JUMP JUMPDEST SWAP2 PUSH2 0x1E0 DUP8 ADD MLOAD SWAP7 DUP8 ISZERO ISZERO DUP9 SUB PUSH3 0x45F JUMPI PUSH2 0x200 ADD MLOAD SWAP8 PUSH1 0x2 DUP10 LT ISZERO PUSH3 0x45F JUMPI PUSH1 0x20 PUSH1 0x40 SWAP3 PUSH1 0x0 SLOAD CALLER PUSH1 0x1 DUP1 PUSH1 0xA0 SHL SUB DUP3 AND PUSH32 0x8BE0079C531659141344CD1FD0A4F28419497F9722A3DAAFE3B4186F6B6457E0 PUSH1 0x0 DUP1 LOG3 PUSH1 0x1 PUSH1 0x1 PUSH1 0xA8 SHL SUB NOT AND CALLER PUSH1 0xFF PUSH1 0xA0 SHL NOT AND OR PUSH1 0x0 SSTORE PUSH1 0x1 DUP1 SSTORE PUSH1 0x12 DUP1 SLOAD PUSH2 0xFF00 NOT AND PUSH2 0x100 OR SWAP1 SSTORE DUP1 MLOAD PUSH1 0x2 SSTORE ADD MLOAD PUSH1 0x3 SSTORE DUP1 MLOAD PUSH1 0x4 SSTORE PUSH1 0x20 DUP2 ADD MLOAD PUSH1 0x6 SSTORE ADD MLOAD PUSH1 0x7 SSTORE DUP8 MLOAD PUSH1 0x1 PUSH1 0x1 PUSH1 0x40 SHL SUB DUP2 GT PUSH3 0x449 JUMPI PUSH1 0xC SLOAD PUSH1 0x1 DUP2 DUP2 SHR SWAP2 AND DUP1 ISZERO PUSH3 0x43E JUMPI JUMPDEST PUSH1 0x20 DUP3 LT EQ PUSH3 0x428 JUMPI PUSH1 0x1F DUP2 GT PUSH3 0x3BE JUMPI JUMPDEST POP PUSH1 0x20 SWAP9 PUSH1 0x1F DUP3 GT PUSH1 0x1 EQ PUSH3 0x32B JUMPI SWAP1 DUP1 PUSH1 0x20 SWAP8 SWAP9 SWAP10 SWAP11 DUP9 SWAP5 SWAP4 PUSH1 0x0 SWAP3 PUSH3 0x31F JUMPI JUMPDEST POP POP DUP2 PUSH1 0x1 SHL SWAP2 PUSH1 0x0 NOT SWAP1 PUSH1 0x3 SHL SHR NOT AND OR PUSH1 0xC SSTORE JUMPDEST DUP1 MLOAD PUSH1 0x11 SSTORE ADD MLOAD PUSH1 0x10 SSTORE DUP2 MLOAD PUSH1 0xD DUP1 SLOAD PUSH1 0x1 PUSH1 0x1 PUSH1 0xA0 SHL SUB NOT SWAP1 DUP2 AND PUSH1 0x1 PUSH1 0x1 PUSH1 0xA0 SHL SUB SWAP4 DUP5 AND OR SWAP1 SWAP2 SSTORE SWAP3 DUP6 ADD MLOAD PUSH1 0xE DUP1 SLOAD DUP6 AND SWAP2 DUP4 AND SWAP2 SWAP1 SWAP2 OR SWAP1 SSTORE PUSH1 0xF DUP1 SLOAD SWAP1 SWAP4 AND SWAP2 AND OR SWAP1 SSTORE DUP1 MLOAD PUSH1 0x9 SSTORE ADD MLOAD PUSH1 0x8 SWAP1 DUP2 SSTORE PUSH1 0x20 DUP3 ADD MLOAD PUSH1 0xA SSTORE SWAP1 MLOAD PUSH1 0xB SSTORE PUSH1 0x12 DUP1 SLOAD PUSH2 0xFF00 NOT AND SWAP3 ISZERO ISZERO SWAP1 SWAP2 SHL PUSH2 0xFF00 AND SWAP2 SWAP1 SWAP2 OR SWAP1 SSTORE PUSH1 0x18 DUP1 SLOAD PUSH1 0x1 PUSH1 0x1 PUSH1 0xA8 SHL SUB NOT AND PUSH1 0xA0 SWAP3 SWAP1 SWAP3 SHL PUSH1 0xFF PUSH1 0xA0 SHL AND SWAP2 SWAP1 SWAP2 OR CALLER OR SWAP1 SSTORE PUSH1 0x40 MLOAD PUSH2 0x2AE8 SWAP1 DUP2 PUSH3 0x54A DUP3 CODECOPY RETURN JUMPDEST ADD MLOAD SWAP1 POP CODESIZE DUP1 PUSH3 0x25B JUMP JUMPDEST PUSH1 0xC PUSH1 0x0 SWAP1 DUP2 MSTORE SWAP1 SWAP10 PUSH32 0xDF6966C971051C3D54EC59162606531493A51404A002842F56009D7E5CF4A8C7 SWAP2 PUSH1 0x1F NOT DUP5 AND SWAP1 JUMPDEST DUP2 DUP2 LT PUSH3 0x3A5 JUMPI POP SWAP2 DUP4 SWAP2 PUSH1 0x20 SWAP10 SWAP11 SWAP12 SWAP13 DUP11 SWAP7 SWAP6 PUSH1 0x1 SWAP6 LT PUSH3 0x38B JUMPI JUMPDEST POP POP POP DUP2 SHL ADD PUSH1 0xC SSTORE PUSH3 0x271 JUMP JUMPDEST ADD MLOAD PUSH1 0x0 NOT PUSH1 0xF8 DUP5 PUSH1 0x3 SHL AND SHR NOT AND SWAP1 SSTORE CODESIZE DUP1 DUP1 PUSH3 0x37C JUMP JUMPDEST SWAP2 SWAP3 PUSH1 0x20 PUSH1 0x1 DUP2 SWAP3 DUP16 DUP8 ADD MLOAD DUP2 SSTORE ADD SWAP5 ADD SWAP3 ADD PUSH3 0x35D JUMP JUMPDEST PUSH1 0xC PUSH1 0x0 MSTORE PUSH32 0xDF6966C971051C3D54EC59162606531493A51404A002842F56009D7E5CF4A8C7 PUSH1 0x1F DUP4 ADD PUSH1 0x5 SHR DUP2 ADD SWAP2 PUSH1 0x20 DUP5 LT PUSH3 0x41D JUMPI JUMPDEST PUSH1 0x1F ADD PUSH1 0x5 SHR ADD SWAP1 JUMPDEST DUP2 DUP2 LT PUSH3 0x410 JUMPI POP PUSH3 0x237 JUMP JUMPDEST PUSH1 0x0 DUP2 SSTORE PUSH1 0x1 ADD PUSH3 0x401 JUMP JUMPDEST SWAP1 SWAP2 POP DUP2 SWAP1 PUSH3 0x3F8 JUMP JUMPDEST PUSH4 0x4E487B71 PUSH1 0xE0 SHL PUSH1 0x0 MSTORE PUSH1 0x22 PUSH1 0x4 MSTORE PUSH1 0x24 PUSH1 0x0 REVERT JUMPDEST SWAP1 PUSH1 0x7F AND SWAP1 PUSH3 0x223 JUMP JUMPDEST PUSH4 0x4E487B71 PUSH1 0xE0 SHL PUSH1 0x0 MSTORE PUSH1 0x41 PUSH1 0x4 MSTORE PUSH1 0x24 PUSH1 0x0 REVERT JUMPDEST PUSH1 0x0 DUP1 REVERT JUMPDEST PUSH1 0x20 DUP2 DUP4 ADD DUP2 ADD MLOAD DUP13 DUP4 ADD DUP3 ADD MSTORE ADD PUSH3 0x140 JUMP JUMPDEST PUSH1 0x20 DUP1 SWAP2 PUSH3 0x488 DUP5 PUSH3 0x534 JUMP JUMPDEST DUP2 MSTORE ADD SWAP2 ADD SWAP1 PUSH3 0xDE JUMP JUMPDEST DUP2 MLOAD DUP2 MSTORE DUP8 SWAP3 POP PUSH1 0x20 SWAP2 DUP3 ADD SWAP2 ADD PUSH3 0x7B JUMP JUMPDEST PUSH1 0x40 DUP1 MLOAD SWAP2 SWAP1 DUP3 ADD PUSH1 0x1 PUSH1 0x1 PUSH1 0x40 SHL SUB DUP2 GT DUP4 DUP3 LT OR PUSH3 0x449 JUMPI PUSH1 0x40 MSTORE JUMP JUMPDEST PUSH1 0x40 MLOAD SWAP2 SWAP1 PUSH1 0x1F ADD PUSH1 0x1F NOT AND DUP3 ADD PUSH1 0x1 PUSH1 0x1 PUSH1 0x40 SHL SUB DUP2 GT DUP4 DUP3 LT OR PUSH3 0x449 JUMPI PUSH1 0x40 MSTORE JUMP JUMPDEST SWAP1 DUP1 PUSH1 0x1F DUP4 ADD SLT ISZERO PUSH3 0x45F JUMPI PUSH3 0x505 PUSH3 0x4A8 JUMP JUMPDEST DUP1 SWAP3 PUSH1 0x40 DUP2 ADD SWAP3 DUP4 GT PUSH3 0x45F JUMPI SWAP1 JUMPDEST DUP3 DUP3 LT PUSH3 0x523 JUMPI POP POP POP SWAP1 JUMP JUMPDEST DUP2 MLOAD DUP2 MSTORE PUSH1 0x20 SWAP2 DUP3 ADD SWAP2 ADD PUSH3 0x515 JUMP JUMPDEST MLOAD SWAP1 PUSH1 0x1 PUSH1 0x1 PUSH1 0xA0 SHL SUB DUP3 AND DUP3 SUB PUSH3 0x45F JUMPI JUMP INVALID PUSH1 0x80 PUSH1 0x40 MSTORE PUSH1 0x4 DUP1 CALLDATASIZE LT ISZERO PUSH2 0x13 JUMPI PUSH1 0x0 DUP1 REVERT JUMPDEST PUSH1 0x0 SWAP1 DUP2 CALLDATALOAD PUSH1 0xE0 SHR SWAP1 DUP2 PUSH4 0x41F78CC EQ PUSH2 0x221F JUMPI DUP2 PUSH4 0x521B4DA EQ PUSH2 0x2201 JUMPI DUP2 PUSH4 0xB9F2C4A EQ PUSH2 0x21CE JUMPI DUP2 PUSH4 0xF6B1724 EQ PUSH2 0x21AB JUMPI DUP2 PUSH4 0x200D2ED2 EQ PUSH2 0x218D JUMPI DUP2 PUSH4 0x26BFB589 EQ PUSH2 0x2167 JUMPI DUP2 PUSH4 0x29763ED0 EQ PUSH2 0x2149 JUMPI DUP2 PUSH4 0x2A0FCCD5 EQ PUSH2 0x1FB4 JUMPI DUP2 PUSH4 0x2AFCF480 EQ PUSH2 0x1976 JUMPI DUP2 PUSH4 0x3197CBB6 EQ PUSH2 0x1958 JUMPI DUP2 PUSH4 0x39B012B8 EQ PUSH2 0x193A JUMPI DUP2 PUSH4 0x3A66C278 EQ PUSH2 0x191C JUMPI DUP2 PUSH4 0x42706C39 EQ PUSH2 0x1848 JUMPI DUP2 PUSH4 0x42F39381 EQ PUSH2 0x182A JUMPI DUP2 PUSH4 0x4A4643F7 EQ PUSH2 0x17EE JUMPI DUP2 PUSH4 0x5072B084 EQ PUSH2 0x15C9 JUMPI DUP2 PUSH4 0x58371CCD EQ PUSH2 0x15AB JUMPI DUP2 PUSH4 0x5C975ABB EQ PUSH2 0x1586 JUMPI DUP2 PUSH4 0x715018A6 EQ PUSH2 0x153E JUMPI DUP2 PUSH4 0x76320B24 EQ PUSH2 0x1520 JUMPI DUP2 PUSH4 0x782DAE0A EQ PUSH2 0x1502 JUMPI DUP2 PUSH4 0x78E97925 EQ PUSH2 0x14E4 JUMPI DUP2 PUSH4 0x7B7A7CA7 EQ PUSH2 0x14C1 JUMPI DUP2 PUSH4 0x7CC1F867 EQ PUSH2 0x1236 JUMPI DUP2 PUSH4 0x7D7CD772 EQ PUSH2 0x113E JUMPI DUP2 PUSH4 0x7D882097 EQ PUSH2 0x1120 JUMPI DUP2 PUSH4 0x7F9BB7AA EQ PUSH2 0x1102 JUMPI DUP2 PUSH4 0x8DA5CB5B EQ PUSH2 0x10DB JUMPI DUP2 PUSH4 0x8F86F5EA EQ PUSH2 0xA8A JUMPI DUP2 PUSH4 0x906A26E0 EQ PUSH2 0xA6C JUMPI DUP2 PUSH4 0x9B19251A EQ PUSH2 0xA2B JUMPI DUP2 PUSH4 0x9CCCAC37 EQ PUSH2 0x9EF JUMPI DUP2 PUSH4 0xA1AC3907 EQ PUSH2 0x8DD JUMPI DUP2 PUSH4 0xA20ECBBB EQ PUSH2 0x8BF JUMPI DUP2 PUSH4 0xA4F3A7C7 EQ PUSH2 0x896 JUMPI DUP2 PUSH4 0xB5545A3C EQ PUSH2 0x728 JUMPI DUP2 PUSH4 0xB59BD591 EQ PUSH2 0x62D JUMPI DUP2 PUSH4 0xB9420310 EQ PUSH2 0x604 JUMPI DUP2 PUSH4 0xC5C4744C EQ PUSH2 0x5E6 JUMPI DUP2 PUSH4 0xCDFB2B4E EQ PUSH2 0x4DE JUMPI DUP2 PUSH4 0xE7E10490 EQ PUSH2 0x30A JUMPI DUP2 PUSH4 0xF2FDE38B EQ PUSH2 0x24E JUMPI POP DUP1 PUSH4 0xF851A440 EQ PUSH2 0x225 JUMPI PUSH4 0xFB86A404 EQ PUSH2 0x205 JUMPI PUSH1 0x0 DUP1 REVERT JUMPDEST CALLVALUE PUSH2 0x222 JUMPI DUP1 PUSH1 0x3 NOT CALLDATASIZE ADD SLT PUSH2 0x222 JUMPI PUSH1 0x20 PUSH1 0x3 SLOAD PUSH1 0x40 MLOAD SWAP1 DUP2 MSTORE RETURN JUMPDEST DUP1 REVERT JUMPDEST POP CALLVALUE PUSH2 0x222 JUMPI DUP1 PUSH1 0x3 NOT CALLDATASIZE ADD SLT PUSH2 0x222 JUMPI PUSH1 0xF SLOAD PUSH1 0x40 MLOAD PUSH1 0x1 PUSH1 0x1 PUSH1 0xA0 SHL SUB SWAP1 SWAP2 AND DUP2 MSTORE PUSH1 0x20 SWAP1 RETURN JUMPDEST SWAP1 POP CALLVALUE PUSH2 0x306 JUMPI PUSH1 0x20 CALLDATASIZE PUSH1 0x3 NOT ADD SLT PUSH2 0x306 JUMPI PUSH1 0x1 PUSH1 0x1 PUSH1 0xA0 SHL SUB DUP2 CALLDATALOAD DUP2 DUP2 AND SWAP3 SWAP1 DUP4 SWAP1 SUB PUSH2 0x302 JUMPI PUSH2 0x27F PUSH2 0x24C9 JUMP JUMPDEST DUP3 ISZERO PUSH2 0x2AF JUMPI POP PUSH1 0x0 SLOAD DUP3 PUSH1 0x1 DUP1 PUSH1 0xA0 SHL SUB NOT DUP3 AND OR PUSH1 0x0 SSTORE AND PUSH1 0x0 DUP1 MLOAD PUSH1 0x20 PUSH2 0x2A93 DUP4 CODECOPY DUP2 MLOAD SWAP2 MSTORE PUSH1 0x0 DUP1 LOG3 DUP1 RETURN JUMPDEST PUSH1 0x84 SWAP1 PUSH1 0x20 PUSH1 0x40 MLOAD SWAP2 PUSH3 0x461BCD PUSH1 0xE5 SHL DUP4 MSTORE DUP3 ADD MSTORE PUSH1 0x26 PUSH1 0x24 DUP3 ADD MSTORE PUSH32 0x4F776E61626C653A206E6577206F776E657220697320746865207A65726F2061 PUSH1 0x44 DUP3 ADD MSTORE PUSH6 0x646472657373 PUSH1 0xD0 SHL PUSH1 0x64 DUP3 ADD MSTORE REVERT JUMPDEST DUP4 DUP1 REVERT JUMPDEST POP DUP1 REVERT JUMPDEST SWAP1 POP CALLVALUE PUSH2 0x306 JUMPI DUP2 PUSH1 0x3 NOT CALLDATASIZE ADD SLT PUSH2 0x306 JUMPI DUP2 SLOAD PUSH1 0x1 PUSH1 0x1 PUSH1 0xA0 SHL SUB SWAP1 DUP2 AND CALLER EQ DUP1 ISZERO PUSH2 0x4D1 JUMPI JUMPDEST PUSH2 0x33B SWAP1 PUSH2 0x265D JUMP JUMPDEST PUSH2 0x343 PUSH2 0x25DF JUMP JUMPDEST PUSH2 0x34B PUSH2 0x297F JUMP JUMPDEST PUSH1 0x2 PUSH1 0x17 SSTORE DUP3 DUP2 PUSH1 0x18 SLOAD AND DUP3 PUSH1 0xD SLOAD AND DUP2 EXTCODESIZE ISZERO PUSH2 0x4C2 JUMPI DUP3 SWAP2 PUSH1 0x44 DUP4 SWAP3 PUSH1 0x40 MLOAD SWAP5 DUP6 SWAP4 DUP5 SWAP3 PUSH4 0x3FE75E7 PUSH1 0xE1 SHL DUP5 MSTORE DUP11 DUP5 ADD MSTORE PUSH1 0x2 PUSH1 0x24 DUP5 ADD MSTORE GAS CALL DUP1 ISZERO PUSH2 0x4C6 JUMPI PUSH2 0x4AE JUMPI JUMPDEST POP POP PUSH1 0xD SLOAD AND PUSH1 0x40 MLOAD PUSH4 0x70A08231 PUSH1 0xE0 SHL DUP2 MSTORE ADDRESS DUP4 DUP3 ADD MSTORE PUSH1 0x20 SWAP3 DUP4 DUP3 PUSH1 0x24 DUP2 DUP7 GAS STATICCALL SWAP1 DUP2 ISZERO PUSH2 0x4A3 JUMPI DUP5 SWAP3 DUP7 SWAP3 PUSH2 0x46B JUMPI JUMPDEST POP SWAP3 PUSH2 0x3E8 SWAP4 DUP7 PUSH1 0x40 MLOAD DUP1 SWAP7 DUP2 SWAP6 DUP3 SWAP5 PUSH4 0xA9059CBB PUSH1 0xE0 SHL DUP5 MSTORE CALLER SWAP1 DUP5 ADD PUSH2 0x2642 JUMP JUMPDEST SUB SWAP3 GAS CALL DUP1 ISZERO PUSH2 0x460 JUMPI PUSH2 0x432 JUMPI JUMPDEST DUP3 PUSH32 0x7D789068B0DEED1C53F4572064780AB55E54305E6DF362874C45AD39C4C3766E PUSH1 0x40 MLOAD DUP1 PUSH2 0x428 CALLER TIMESTAMP DUP4 PUSH2 0x25C6 JUMP JUMPDEST SUB SWAP1 LOG1 PUSH1 0x1 DUP1 SSTORE DUP1 RETURN JUMPDEST DUP2 PUSH2 0x451 SWAP3 SWAP1 RETURNDATASIZE LT PUSH2 0x459 JUMPI JUMPDEST PUSH2 0x449 DUP2 DUP4 PUSH2 0x237A JUMP JUMPDEST DUP2 ADD SWAP1 PUSH2 0x2544 JUMP JUMPDEST POP CODESIZE DUP1 PUSH2 0x3F7 JUMP JUMPDEST POP RETURNDATASIZE PUSH2 0x43F JUMP JUMPDEST PUSH1 0x40 MLOAD RETURNDATASIZE DUP6 DUP3 RETURNDATACOPY RETURNDATASIZE SWAP1 REVERT JUMPDEST DUP4 DUP2 SWAP5 SWAP3 SWAP4 POP RETURNDATASIZE DUP4 GT PUSH2 0x49C JUMPI JUMPDEST PUSH2 0x483 DUP2 DUP4 PUSH2 0x237A JUMP JUMPDEST DUP2 ADD SUB SLT PUSH2 0x497 JUMPI SWAP1 MLOAD DUP4 SWAP2 PUSH2 0x3E8 PUSH2 0x3C5 JUMP JUMPDEST PUSH1 0x0 DUP1 REVERT JUMPDEST POP RETURNDATASIZE PUSH2 0x479 JUMP JUMPDEST PUSH1 0x40 MLOAD RETURNDATASIZE DUP8 DUP3 RETURNDATACOPY RETURNDATASIZE SWAP1 REVERT JUMPDEST PUSH2 0x4B7 SWAP1 PUSH2 0x2336 JUMP JUMPDEST PUSH2 0x4C2 JUMPI DUP3 CODESIZE PUSH2 0x392 JUMP JUMPDEST DUP3 DUP1 REVERT JUMPDEST PUSH1 0x40 MLOAD RETURNDATASIZE DUP5 DUP3 RETURNDATACOPY RETURNDATASIZE SWAP1 REVERT JUMPDEST POP PUSH1 0xF SLOAD DUP2 AND CALLER EQ PUSH2 0x332 JUMP JUMPDEST DUP3 CALLVALUE PUSH2 0x222 JUMPI DUP1 PUSH1 0x3 NOT CALLDATASIZE ADD SLT PUSH2 0x222 JUMPI PUSH2 0x4F7 PUSH2 0x24C9 JUMP JUMPDEST PUSH1 0x12 SLOAD PUSH1 0xFF DUP2 AND ISZERO DUP1 ISZERO PUSH2 0x5C8 JUMPI JUMPDEST ISZERO PUSH2 0x588 JUMPI PUSH1 0xFF NOT DUP2 AND PUSH1 0x1 OR PUSH1 0x12 SSTORE PUSH1 0x5 DUP3 SWAP1 SSTORE PUSH1 0x18 SLOAD SWAP2 SWAP3 DUP4 SWAP3 PUSH1 0x1 PUSH1 0x1 PUSH1 0xA0 SHL SUB AND SWAP2 DUP3 EXTCODESIZE ISZERO PUSH2 0x583 JUMPI PUSH1 0x64 DUP5 SWAP4 SWAP3 DUP5 DUP1 SWAP5 PUSH1 0x1 PUSH1 0x40 MLOAD SWAP8 DUP9 SWAP7 DUP8 SWAP6 PUSH4 0xD7C7418F PUSH1 0xE0 SHL DUP8 MSTORE ADDRESS SWAP1 DUP8 ADD MSTORE AND OR ISZERO ISZERO PUSH1 0x24 DUP5 ADD MSTORE PUSH1 0x0 PUSH1 0x44 DUP5 ADD MSTORE GAS CALL DUP1 ISZERO PUSH2 0x4C6 JUMPI PUSH2 0x573 JUMPI POP RETURN JUMPDEST PUSH2 0x57C SWAP1 PUSH2 0x2336 JUMP JUMPDEST PUSH2 0x222 JUMPI DUP1 RETURN JUMPDEST POP POP POP REVERT JUMPDEST PUSH1 0x40 MLOAD PUSH3 0x461BCD PUSH1 0xE5 SHL DUP2 MSTORE PUSH1 0x20 DUP2 DUP6 ADD MSTORE PUSH1 0x19 PUSH1 0x24 DUP3 ADD MSTORE PUSH25 0x57686974656C697374206D6F6465206973206F6E676F696E67 PUSH1 0x38 SHL PUSH1 0x44 DUP3 ADD MSTORE PUSH1 0x64 SWAP1 REVERT JUMPDEST POP PUSH1 0x5 SLOAD DUP1 ISZERO ISZERO SWAP1 DUP2 PUSH2 0x5DC JUMPI JUMPDEST POP PUSH2 0x506 JUMP JUMPDEST SWAP1 POP TIMESTAMP GT DUP5 PUSH2 0x5D6 JUMP JUMPDEST DUP3 CALLVALUE PUSH2 0x222 JUMPI DUP1 PUSH1 0x3 NOT CALLDATASIZE ADD SLT PUSH2 0x222 JUMPI PUSH1 0x20 PUSH1 0x14 SLOAD PUSH1 0x40 MLOAD SWAP1 DUP2 MSTORE RETURN JUMPDEST DUP3 CALLVALUE PUSH2 0x222 JUMPI DUP1 PUSH1 0x3 NOT CALLDATASIZE ADD SLT PUSH2 0x222 JUMPI PUSH1 0xD SLOAD PUSH1 0x40 MLOAD PUSH1 0x1 PUSH1 0x1 PUSH1 0xA0 SHL SUB SWAP1 SWAP2 AND DUP2 MSTORE PUSH1 0x20 SWAP1 RETURN JUMPDEST DUP3 CALLVALUE PUSH2 0x222 JUMPI DUP1 PUSH1 0x3 NOT CALLDATASIZE ADD SLT PUSH2 0x222 JUMPI PUSH1 0x16 SLOAD SWAP1 PUSH2 0x64B DUP3 PUSH2 0x26C0 JUMP JUMPDEST SWAP1 PUSH2 0x655 DUP4 PUSH2 0x26A9 JUMP JUMPDEST SWAP1 PUSH2 0x663 PUSH1 0x40 MLOAD SWAP3 DUP4 PUSH2 0x237A JUMP JUMPDEST DUP4 DUP3 MSTORE PUSH2 0x66F DUP5 PUSH2 0x26A9 JUMP JUMPDEST PUSH1 0x20 SWAP5 DUP6 DUP5 ADD SWAP4 SWAP2 PUSH1 0x1F NOT ADD CALLDATASIZE DUP6 CALLDATACOPY DUP3 JUMPDEST DUP2 DUP2 LT PUSH2 0x6D9 JUMPI POP POP DUP5 PUSH2 0x6A2 SWAP6 PUSH1 0x40 MLOAD SWAP7 DUP8 SWAP7 PUSH1 0x40 DUP9 MSTORE PUSH1 0x40 DUP9 ADD SWAP1 PUSH2 0x248C JUMP JUMPDEST SWAP3 DUP7 DUP5 SUB DUP3 DUP9 ADD MSTORE MLOAD SWAP3 DUP4 DUP2 MSTORE ADD SWAP4 SWAP3 JUMPDEST DUP3 DUP2 LT PUSH2 0x6C2 JUMPI POP POP POP POP SUB SWAP1 RETURN JUMPDEST DUP4 MLOAD DUP6 MSTORE DUP7 SWAP6 POP SWAP4 DUP2 ADD SWAP4 SWAP3 DUP2 ADD SWAP3 PUSH1 0x1 ADD PUSH2 0x6B3 JUMP JUMPDEST DUP1 PUSH2 0x71D SWAP2 DUP6 SWAP5 SWAP7 SWAP8 SWAP9 SWAP6 MSTORE PUSH1 0x1B DUP6 MSTORE PUSH1 0x1 DUP1 PUSH1 0xA0 SHL SUB PUSH1 0x40 DUP6 KECCAK256 SLOAD AND DUP1 PUSH2 0x701 DUP4 DUP12 PUSH2 0x272C JUMP JUMPDEST MSTORE DUP5 MSTORE PUSH1 0x19 DUP6 MSTORE PUSH1 0x40 DUP5 KECCAK256 SLOAD PUSH2 0x717 DUP3 DUP9 PUSH2 0x272C JUMP JUMPDEST MSTORE PUSH2 0x255C JUMP JUMPDEST SWAP6 SWAP5 SWAP4 SWAP2 SWAP3 SWAP6 PUSH2 0x680 JUMP JUMPDEST SWAP1 POP CALLVALUE PUSH2 0x306 JUMPI DUP2 PUSH1 0x3 NOT CALLDATASIZE ADD SLT PUSH2 0x306 JUMPI PUSH2 0x742 PUSH2 0x25DF JUMP JUMPDEST PUSH1 0x17 SLOAD PUSH1 0x2 EQ PUSH2 0x891 JUMPI PUSH2 0x754 PUSH2 0x297F JUMP JUMPDEST CALLER DUP3 MSTORE PUSH1 0x20 PUSH1 0x19 DUP2 MSTORE PUSH1 0x40 DUP4 KECCAK256 SLOAD SWAP2 DUP3 ISZERO PUSH2 0x841 JUMPI CALLER DUP5 MSTORE PUSH1 0x19 DUP3 MSTORE PUSH1 0x40 DUP5 KECCAK256 DUP5 SWAP1 SSTORE PUSH1 0xE SLOAD PUSH1 0x1 PUSH1 0x1 PUSH1 0xA0 SHL SUB AND SWAP1 DUP2 PUSH2 0x7C8 JUMPI POP POP POP DUP2 DUP1 DUP1 DUP1 DUP5 CALLER DUP3 CALL ISZERO PUSH2 0x7BB JUMPI PUSH2 0x428 PUSH1 0x0 DUP1 MLOAD PUSH1 0x20 PUSH2 0x2A73 DUP4 CODECOPY DUP2 MLOAD SWAP2 MSTORE SWAP2 JUMPDEST PUSH1 0x40 MLOAD SWAP2 DUP3 SWAP2 CALLER SWAP1 DUP4 PUSH2 0x25C6 JUMP JUMPDEST POP PUSH1 0x40 MLOAD SWAP1 RETURNDATASIZE SWAP1 DUP3 RETURNDATACOPY RETURNDATASIZE SWAP1 REVERT JUMPDEST DUP4 PUSH2 0x7ED SWAP5 SWAP3 DUP5 SWAP3 DUP8 PUSH1 0x40 MLOAD DUP1 SWAP9 DUP2 SWAP6 DUP3 SWAP5 PUSH4 0xA9059CBB PUSH1 0xE0 SHL DUP5 MSTORE CALLER SWAP1 DUP5 ADD PUSH2 0x2642 JUMP JUMPDEST SUB SWAP3 GAS CALL SWAP2 DUP3 ISZERO PUSH2 0x836 JUMPI PUSH1 0x0 DUP1 MLOAD PUSH1 0x20 PUSH2 0x2A73 DUP4 CODECOPY DUP2 MLOAD SWAP2 MSTORE SWAP4 PUSH2 0x428 SWAP4 PUSH2 0x818 JUMPI JUMPDEST POP POP PUSH2 0x7AD JUMP JUMPDEST DUP2 PUSH2 0x82E SWAP3 SWAP1 RETURNDATASIZE LT PUSH2 0x459 JUMPI PUSH2 0x449 DUP2 DUP4 PUSH2 0x237A JUMP JUMPDEST POP CODESIZE DUP1 PUSH2 0x811 JUMP JUMPDEST PUSH1 0x40 MLOAD RETURNDATASIZE DUP7 DUP3 RETURNDATACOPY RETURNDATASIZE SWAP1 REVERT JUMPDEST PUSH1 0x84 SWAP2 PUSH1 0x40 MLOAD SWAP2 PUSH3 0x461BCD PUSH1 0xE5 SHL DUP4 MSTORE DUP3 ADD MSTORE PUSH1 0x25 PUSH1 0x24 DUP3 ADD MSTORE PUSH32 0x4C61756E63687061643A205573657220646F65736E2774206861766520646570 PUSH1 0x44 DUP3 ADD MSTORE PUSH5 0x6F73697473 PUSH1 0xD8 SHL PUSH1 0x64 DUP3 ADD MSTORE REVERT JUMPDEST PUSH2 0x754 JUMP JUMPDEST DUP3 CALLVALUE PUSH2 0x222 JUMPI DUP1 PUSH1 0x3 NOT CALLDATASIZE ADD SLT PUSH2 0x222 JUMPI PUSH1 0xE SLOAD PUSH1 0x40 MLOAD PUSH1 0x1 PUSH1 0x1 PUSH1 0xA0 SHL SUB SWAP1 SWAP2 AND DUP2 MSTORE PUSH1 0x20 SWAP1 RETURN JUMPDEST DUP3 CALLVALUE PUSH2 0x222 JUMPI DUP1 PUSH1 0x3 NOT CALLDATASIZE ADD SLT PUSH2 0x222 JUMPI PUSH1 0x20 PUSH1 0x8 SLOAD PUSH1 0x40 MLOAD SWAP1 DUP2 MSTORE RETURN JUMPDEST DUP3 CALLVALUE PUSH2 0x222 JUMPI PUSH2 0x8EC CALLDATASIZE PUSH2 0x243F JUMP JUMPDEST PUSH2 0x8F4 PUSH2 0x24C9 JUMP JUMPDEST PUSH2 0x8FD DUP2 PUSH2 0x26C0 JUMP JUMPDEST SWAP2 DUP4 JUMPDEST DUP3 DUP2 LT PUSH2 0x967 JUMPI POP POP POP DUP2 SWAP3 PUSH1 0x1 DUP1 PUSH1 0xA0 SHL SUB PUSH1 0x18 SLOAD AND SWAP2 DUP3 EXTCODESIZE ISZERO PUSH2 0x583 JUMPI PUSH2 0x94F SWAP3 DUP5 SWAP3 DUP4 PUSH1 0x40 MLOAD DUP1 SWAP7 DUP2 SWAP6 DUP3 SWAP5 PUSH4 0x673C8E31 PUSH1 0xE0 SHL DUP5 MSTORE ADDRESS SWAP1 DUP5 ADD MSTORE PUSH1 0x60 PUSH1 0x24 DUP5 ADD MSTORE PUSH1 0x64 DUP4 ADD SWAP1 PUSH2 0x248C JUMP JUMPDEST PUSH1 0x1 PUSH1 0x44 DUP4 ADD MSTORE SUB SWAP3 GAS CALL DUP1 ISZERO PUSH2 0x4C6 JUMPI PUSH2 0x573 JUMPI POP RETURN JUMPDEST PUSH2 0x9A6 SWAP1 PUSH1 0x1 PUSH1 0x1 PUSH1 0xA0 SHL SUB DUP1 PUSH2 0x987 PUSH2 0x982 DUP5 DUP9 DUP9 PUSH2 0x26F2 JUMP JUMPDEST PUSH2 0x2718 JUMP JUMPDEST AND DUP8 MSTORE PUSH1 0x1C PUSH1 0x20 DUP2 DUP2 MSTORE PUSH1 0xFF PUSH1 0x40 DUP11 KECCAK256 SLOAD AND PUSH2 0x9AB JUMPI JUMPDEST POP POP POP PUSH2 0x255C JUMP JUMPDEST PUSH2 0x900 JUMP JUMPDEST DUP3 PUSH2 0x9BA PUSH2 0x982 DUP7 DUP11 DUP11 PUSH2 0x26F2 JUMP JUMPDEST AND DUP10 MSTORE MSTORE PUSH1 0x40 DUP8 KECCAK256 DUP1 SLOAD PUSH1 0xFF NOT AND SWAP1 SSTORE PUSH2 0x9D8 PUSH2 0x982 DUP4 DUP8 DUP8 PUSH2 0x26F2 JUMP JUMPDEST SWAP1 PUSH2 0x9E3 DUP4 DUP9 PUSH2 0x272C JUMP JUMPDEST SWAP2 AND SWAP1 MSTORE DUP8 DUP1 DUP1 PUSH2 0x99E JUMP JUMPDEST SWAP1 POP CALLVALUE PUSH2 0x306 JUMPI PUSH1 0x20 CALLDATASIZE PUSH1 0x3 NOT ADD SLT PUSH2 0x306 JUMPI CALLDATALOAD PUSH1 0x1 PUSH1 0x1 PUSH1 0xA0 SHL SUB DUP2 AND SWAP1 DUP2 SWAP1 SUB PUSH2 0x306 JUMPI DUP2 PUSH1 0x40 SWAP2 PUSH1 0x20 SWAP4 MSTORE PUSH1 0x1A DUP4 MSTORE KECCAK256 SLOAD PUSH1 0x40 MLOAD SWAP1 DUP2 MSTORE RETURN JUMPDEST SWAP1 POP CALLVALUE PUSH2 0x306 JUMPI PUSH1 0x20 CALLDATASIZE PUSH1 0x3 NOT ADD SLT PUSH2 0x306 JUMPI CALLDATALOAD PUSH1 0x1 PUSH1 0x1 PUSH1 0xA0 SHL SUB DUP2 AND SWAP1 DUP2 SWAP1 SUB PUSH2 0x306 JUMPI PUSH1 0x40 DUP3 PUSH1 0xFF SWAP3 PUSH1 0x20 SWAP5 MSTORE PUSH1 0x1C DUP5 MSTORE KECCAK256 SLOAD AND PUSH1 0x40 MLOAD SWAP1 ISZERO ISZERO DUP2 MSTORE RETURN JUMPDEST DUP3 CALLVALUE PUSH2 0x222 JUMPI DUP1 PUSH1 0x3 NOT CALLDATASIZE ADD SLT PUSH2 0x222 JUMPI PUSH1 0x20 PUSH1 0x2 SLOAD PUSH1 0x40 MLOAD SWAP1 DUP2 MSTORE RETURN JUMPDEST SWAP1 POP CALLVALUE PUSH2 0x306 JUMPI DUP2 PUSH1 0x3 NOT CALLDATASIZE ADD SLT PUSH2 0x306 JUMPI DUP2 SLOAD PUSH1 0x1 PUSH1 0x1 PUSH1 0xA0 SHL SUB SWAP1 DUP2 AND CALLER EQ DUP1 ISZERO PUSH2 0x10CE JUMPI JUMPDEST PUSH2 0xABB SWAP1 PUSH2 0x265D JUMP JUMPDEST PUSH2 0xAC3 PUSH2 0x25DF JUMP JUMPDEST PUSH2 0xACB PUSH2 0x2827 JUMP JUMPDEST PUSH1 0xFF PUSH1 0x18 SLOAD PUSH1 0xA0 SHR AND PUSH1 0x2 DUP2 LT ISZERO PUSH2 0x10BB JUMPI DUP4 SWAP2 SWAP1 DUP1 ISZERO SWAP1 DUP2 DUP1 PUSH2 0x10B0 JUMPI JUMPDEST PUSH2 0x1027 JUMPI JUMPDEST PUSH1 0x1 EQ DUP1 PUSH2 0x101C JUMPI JUMPDEST PUSH2 0xF29 JUMPI JUMPDEST PUSH1 0x1 PUSH1 0x17 SSTORE DUP3 DUP4 SWAP2 PUSH1 0x11 SLOAD SWAP1 DUP2 PUSH2 0xEFD JUMPI JUMPDEST POP POP DUP1 PUSH2 0xEA4 JUMPI JUMPDEST POP PUSH1 0x10 SLOAD DUP1 PUSH2 0xE8C JUMPI JUMPDEST POP PUSH1 0xE SLOAD DUP3 AND DUP1 PUSH2 0xD66 JUMPI POP SELFBALANCE SWAP1 DUP4 DUP1 DUP1 DUP1 DUP5 DUP8 PUSH1 0xF SLOAD AND DUP3 DUP3 ISZERO PUSH2 0xD5D JUMPI JUMPDEST CALL ISZERO PUSH2 0x460 JUMPI DUP4 DUP1 PUSH2 0xB56 DUP2 SWAP5 SWAP4 DUP3 SWAP5 PUSH2 0x2635 JUMP JUMPDEST DUP2 DUP2 ISZERO PUSH2 0xD54 JUMPI JUMPDEST CALLER SWAP1 CALL ISZERO PUSH2 0x7BB JUMPI JUMPDEST PUSH1 0xD SLOAD PUSH1 0x40 MLOAD PUSH4 0x70A08231 PUSH1 0xE0 SHL DUP2 MSTORE ADDRESS DUP2 DUP7 ADD MSTORE PUSH1 0x20 SWAP5 SWAP2 DUP4 AND DUP6 DUP3 PUSH1 0x24 DUP2 DUP5 GAS STATICCALL SWAP1 DUP2 ISZERO PUSH2 0x4A3 JUMPI DUP7 SWAP3 DUP7 SWAP3 PUSH2 0xD1F JUMPI JUMPDEST POP DUP6 SWAP3 SWAP2 SWAP1 DUP2 ISZERO ISZERO SWAP1 DUP2 DUP1 PUSH2 0xD10 JUMPI JUMPDEST PUSH2 0xCB2 JUMPI JUMPDEST POP DUP1 PUSH2 0xCA2 JUMPI JUMPDEST PUSH2 0xC4A JUMPI JUMPDEST POP POP POP DUP2 PUSH1 0x18 SLOAD AND SWAP2 PUSH1 0xD SLOAD AND DUP3 EXTCODESIZE ISZERO PUSH2 0x302 JUMPI PUSH1 0x44 DUP5 SWAP3 DUP4 PUSH1 0x40 MLOAD SWAP6 DUP7 SWAP5 DUP6 SWAP4 PUSH4 0x3FE75E7 PUSH1 0xE1 SHL DUP6 MSTORE DUP5 ADD MSTORE PUSH1 0x1 PUSH1 0x24 DUP5 ADD MSTORE GAS CALL DUP1 ISZERO PUSH2 0x4C6 JUMPI PUSH2 0xC36 JUMPI JUMPDEST POP PUSH32 0x99E95C9A161A7C99D3DC664B3058A5482967AFE83AE408003EBD3223D68C2964 PUSH1 0x40 DUP4 PUSH1 0x13 SLOAD DUP3 MLOAD SWAP2 TIMESTAMP DUP4 MSTORE DUP3 ADD MSTORE LOG1 PUSH1 0x1 DUP1 SSTORE DUP1 RETURN JUMPDEST PUSH2 0xC3F SWAP1 PUSH2 0x2336 JUMP JUMPDEST PUSH2 0x306 JUMPI DUP2 CODESIZE PUSH2 0xBFD JUMP JUMPDEST PUSH1 0x44 DUP6 PUSH1 0xD SLOAD AND SWAP2 PUSH1 0x40 MLOAD SWAP5 DUP6 SWAP4 DUP5 SWAP3 PUSH4 0xA9059CBB PUSH1 0xE0 SHL DUP5 MSTORE PUSH2 0xDEAD DUP10 DUP6 ADD MSTORE PUSH1 0x24 DUP5 ADD MSTORE GAS CALL DUP1 ISZERO PUSH2 0x836 JUMPI PUSH2 0xC85 JUMPI JUMPDEST DUP5 DUP5 SWAP2 PUSH2 0xBBB JUMP JUMPDEST PUSH2 0xC9B SWAP1 DUP6 RETURNDATASIZE DUP8 GT PUSH2 0x459 JUMPI PUSH2 0x449 DUP2 DUP4 PUSH2 0x237A JUMP JUMPDEST POP CODESIZE PUSH2 0xC7D JUMP JUMPDEST POP PUSH1 0xFF PUSH1 0x12 SLOAD PUSH1 0x8 SHR AND ISZERO PUSH2 0xBB6 JUMP JUMPDEST SWAP4 POP SWAP2 PUSH1 0x40 MLOAD DUP1 SWAP5 PUSH4 0xA9059CBB PUSH1 0xE0 SHL DUP3 MSTORE DUP2 DUP10 DUP2 PUSH2 0xCD4 DUP8 CALLER DUP13 DUP5 ADD PUSH2 0x2642 JUMP JUMPDEST SUB SWAP3 GAS CALL SWAP2 DUP3 ISZERO PUSH2 0xD05 JUMPI DUP7 SWAP4 DUP9 SWAP4 ISZERO PUSH2 0xBAF JUMPI PUSH2 0xCFE SWAP1 DUP5 RETURNDATASIZE DUP7 GT PUSH2 0x459 JUMPI PUSH2 0x449 DUP2 DUP4 PUSH2 0x237A JUMP JUMPDEST POP CODESIZE PUSH2 0xBAF JUMP JUMPDEST PUSH1 0x40 MLOAD RETURNDATASIZE DUP9 DUP3 RETURNDATACOPY RETURNDATASIZE SWAP1 REVERT JUMPDEST POP PUSH1 0xFF PUSH1 0x12 SLOAD PUSH1 0x8 SHR AND PUSH2 0xBAA JUMP JUMPDEST SWAP6 POP SWAP2 SWAP1 POP DUP5 DUP2 RETURNDATASIZE DUP4 GT PUSH2 0xD4D JUMPI JUMPDEST PUSH2 0xD38 DUP2 DUP4 PUSH2 0x237A JUMP JUMPDEST DUP2 ADD SUB SLT PUSH2 0x497 JUMPI SWAP3 MLOAD DUP6 SWAP4 DUP6 SWAP2 SWAP1 DUP6 PUSH2 0xB9A JUMP JUMPDEST POP RETURNDATASIZE PUSH2 0xD2E JUMP JUMPDEST POP PUSH2 0x8FC PUSH2 0xB5E JUMP JUMPDEST POP PUSH2 0x8FC PUSH2 0xB41 JUMP JUMPDEST PUSH1 0x40 MLOAD PUSH4 0x70A08231 PUSH1 0xE0 SHL DUP2 MSTORE ADDRESS DUP7 DUP3 ADD MSTORE PUSH1 0x20 SWAP3 SWAP2 DUP4 DUP3 PUSH1 0x24 DUP2 DUP5 GAS STATICCALL SWAP1 DUP2 ISZERO PUSH2 0xD05 JUMPI DUP8 SWAP3 DUP8 SWAP3 PUSH2 0xE56 JUMPI JUMPDEST POP SWAP1 DUP5 DUP5 PUSH2 0xDBF SWAP5 SWAP4 DUP9 PUSH1 0xF SLOAD AND DUP11 PUSH1 0x40 MLOAD DUP1 SWAP9 DUP2 SWAP6 DUP3 SWAP5 PUSH4 0xA9059CBB PUSH1 0xE0 SHL SWAP11 DUP12 DUP6 MSTORE DUP5 ADD PUSH2 0x2642 JUMP JUMPDEST SUB SWAP3 GAS CALL DUP1 ISZERO PUSH2 0xE4B JUMPI PUSH2 0xDFA SWAP5 DUP7 SWAP5 PUSH2 0xDE4 SWAP3 PUSH2 0xE2E JUMPI JUMPDEST POP DUP8 PUSH1 0xE SLOAD AND SWAP3 PUSH2 0x2635 JUMP JUMPDEST SWAP2 DUP8 PUSH1 0x40 MLOAD DUP1 SWAP7 DUP2 SWAP6 DUP3 SWAP5 DUP4 MSTORE CALLER DUP14 DUP5 ADD PUSH2 0x2642 JUMP JUMPDEST SUB SWAP3 GAS CALL DUP1 ISZERO PUSH2 0x836 JUMPI PUSH2 0xE10 JUMPI JUMPDEST POP POP PUSH2 0xB67 JUMP JUMPDEST DUP2 PUSH2 0xE26 SWAP3 SWAP1 RETURNDATASIZE LT PUSH2 0x459 JUMPI PUSH2 0x449 DUP2 DUP4 PUSH2 0x237A JUMP JUMPDEST POP CODESIZE DUP1 PUSH2 0xE09 JUMP JUMPDEST PUSH2 0xE44 SWAP1 DUP7 RETURNDATASIZE DUP9 GT PUSH2 0x459 JUMPI PUSH2 0x449 DUP2 DUP4 PUSH2 0x237A JUMP JUMPDEST POP CODESIZE PUSH2 0xDD8 JUMP JUMPDEST PUSH1 0x40 MLOAD RETURNDATASIZE DUP10 DUP3 RETURNDATACOPY RETURNDATASIZE SWAP1 REVERT JUMPDEST SWAP7 POP SWAP2 POP POP DUP3 DUP6 DUP2 RETURNDATASIZE DUP4 GT PUSH2 0xE85 JUMPI JUMPDEST PUSH2 0xE70 DUP2 DUP4 PUSH2 0x237A JUMP JUMPDEST DUP2 ADD SUB SLT PUSH2 0x497 JUMPI SWAP4 MLOAD DUP7 SWAP5 DUP7 SWAP2 SWAP1 DUP5 PUSH2 0xD94 JUMP JUMPDEST POP RETURNDATASIZE PUSH2 0xE66 JUMP JUMPDEST PUSH2 0x2710 SWAP2 POP PUSH2 0xE9D SWAP1 PUSH1 0x13 SLOAD PUSH2 0x256B JUMP JUMPDEST DIV CODESIZE PUSH2 0xB21 JUMP JUMPDEST PUSH1 0x20 PUSH2 0xED0 SWAP2 DUP5 PUSH1 0xD SLOAD AND DUP6 PUSH1 0xF SLOAD AND DUP8 PUSH1 0x40 MLOAD DUP1 SWAP7 DUP2 SWAP6 DUP3 SWAP5 PUSH4 0xA9059CBB PUSH1 0xE0 SHL DUP5 MSTORE DUP14 DUP5 ADD PUSH2 0x2642 JUMP JUMPDEST SUB SWAP3 GAS CALL DUP1 ISZERO PUSH2 0x836 JUMPI ISZERO PUSH2 0xB17 JUMPI PUSH2 0xEF6 SWAP1 PUSH1 0x20 RETURNDATASIZE DUP2 GT PUSH2 0x459 JUMPI PUSH2 0x449 DUP2 DUP4 PUSH2 0x237A JUMP JUMPDEST POP CODESIZE PUSH2 0xB17 JUMP JUMPDEST PUSH2 0x2710 SWAP3 POP PUSH2 0xF14 SWAP2 SWAP1 ISZERO PUSH2 0xF1C JUMPI PUSH1 0x14 SLOAD PUSH2 0x256B JUMP JUMPDEST DIV CODESIZE DUP1 PUSH2 0xB0F JUMP JUMPDEST PUSH2 0xF24 PUSH2 0x2740 JUMP JUMPDEST PUSH2 0x256B JUMP JUMPDEST SWAP1 SWAP2 POP PUSH1 0x24 PUSH1 0x20 DUP4 PUSH1 0xD SLOAD AND PUSH1 0x40 MLOAD SWAP3 DUP4 DUP1 SWAP3 PUSH4 0x70A08231 PUSH1 0xE0 SHL DUP3 MSTORE ADDRESS DUP10 DUP4 ADD MSTORE GAS STATICCALL SWAP1 DUP2 ISZERO PUSH2 0x4A3 JUMPI DUP6 SWAP2 PUSH2 0xFEB JUMPI JUMPDEST POP PUSH2 0x2710 PUSH2 0xF73 PUSH2 0xF6A PUSH2 0x2740 JUMP JUMPDEST PUSH1 0x11 SLOAD SWAP1 PUSH2 0x256B JUMP JUMPDEST DIV LT PUSH2 0xF81 JUMPI SWAP1 DUP4 SWAP2 PUSH2 0xAFD JUMP JUMPDEST PUSH1 0x84 DUP4 PUSH1 0x20 PUSH1 0x40 MLOAD SWAP2 PUSH3 0x461BCD PUSH1 0xE5 SHL DUP4 MSTORE DUP3 ADD MSTORE PUSH1 0x40 PUSH1 0x24 DUP3 ADD MSTORE PUSH32 0x4C61756E63687061642846616972293A20416C6C20746F6B656E2073616C6520 PUSH1 0x44 DUP3 ADD MSTORE PUSH32 0x6E65656420726169736564206265666F726520656E642073616C652074696D65 PUSH1 0x64 DUP3 ADD MSTORE REVERT JUMPDEST SWAP1 POP PUSH1 0x20 DUP2 RETURNDATASIZE DUP3 GT PUSH2 0x1014 JUMPI JUMPDEST DUP2 PUSH2 0x1005 PUSH1 0x20 SWAP4 DUP4 PUSH2 0x237A JUMP JUMPDEST DUP2 ADD SUB SLT PUSH2 0x497 JUMPI MLOAD CODESIZE PUSH2 0xF5B JUMP JUMPDEST RETURNDATASIZE SWAP2 POP PUSH2 0xFF8 JUMP JUMPDEST POP PUSH1 0x7 SLOAD TIMESTAMP LT PUSH2 0xAF8 JUMP JUMPDEST SWAP1 SWAP2 SWAP3 POP PUSH1 0x15 SLOAD PUSH2 0x103B JUMPI SWAP1 DUP5 SWAP3 SWAP2 PUSH2 0xAEF JUMP JUMPDEST PUSH1 0x40 MLOAD PUSH3 0x461BCD PUSH1 0xE5 SHL DUP2 MSTORE PUSH1 0x20 DUP2 DUP7 ADD MSTORE PUSH1 0x42 PUSH1 0x24 DUP3 ADD MSTORE PUSH32 0x4C61756E6368706164284E6F726D616C293A20416C6C20746F6B656E2073616C PUSH1 0x44 DUP3 ADD MSTORE PUSH32 0x65206E65656420726169736564206265666F726520656E642073616C65207469 PUSH1 0x64 DUP3 ADD MSTORE PUSH2 0x6D65 PUSH1 0xF0 SHL PUSH1 0x84 DUP3 ADD MSTORE PUSH1 0xA4 SWAP1 REVERT JUMPDEST POP PUSH1 0x7 SLOAD TIMESTAMP LT PUSH2 0xAEA JUMP JUMPDEST PUSH4 0x4E487B71 PUSH1 0xE0 SHL DUP5 MSTORE PUSH1 0x21 DUP4 MSTORE PUSH1 0x24 DUP5 REVERT JUMPDEST POP PUSH1 0xF SLOAD DUP2 AND CALLER EQ PUSH2 0xAB2 JUMP JUMPDEST DUP3 CALLVALUE PUSH2 0x222 JUMPI DUP1 PUSH1 0x3 NOT CALLDATASIZE ADD SLT PUSH2 0x222 JUMPI SLOAD PUSH1 0x40 MLOAD PUSH1 0x1 PUSH1 0x1 PUSH1 0xA0 SHL SUB SWAP1 SWAP2 AND DUP2 MSTORE PUSH1 0x20 SWAP1 RETURN JUMPDEST DUP3 CALLVALUE PUSH2 0x222 JUMPI DUP1 PUSH1 0x3 NOT CALLDATASIZE ADD SLT PUSH2 0x222 JUMPI PUSH1 0x20 PUSH1 0x5 SLOAD PUSH1 0x40 MLOAD SWAP1 DUP2 MSTORE RETURN JUMPDEST DUP3 CALLVALUE PUSH2 0x222 JUMPI DUP1 PUSH1 0x3 NOT CALLDATASIZE ADD SLT PUSH2 0x222 JUMPI PUSH1 0x20 PUSH1 0x13 SLOAD PUSH1 0x40 MLOAD SWAP1 DUP2 MSTORE RETURN JUMPDEST DUP3 CALLVALUE PUSH2 0x222 JUMPI PUSH2 0x114D CALLDATASIZE PUSH2 0x243F JUMP JUMPDEST PUSH2 0x1155 PUSH2 0x24C9 JUMP JUMPDEST PUSH2 0x115E DUP2 PUSH2 0x26C0 JUMP JUMPDEST SWAP2 DUP4 JUMPDEST DUP3 DUP2 LT PUSH2 0x11C7 JUMPI POP POP POP DUP2 SWAP3 PUSH1 0x1 DUP1 PUSH1 0xA0 SHL SUB PUSH1 0x18 SLOAD AND SWAP2 DUP3 EXTCODESIZE ISZERO PUSH2 0x583 JUMPI PUSH2 0x11B0 SWAP3 DUP5 SWAP3 DUP4 PUSH1 0x40 MLOAD DUP1 SWAP7 DUP2 SWAP6 DUP3 SWAP5 PUSH4 0x673C8E31 PUSH1 0xE0 SHL DUP5 MSTORE ADDRESS SWAP1 DUP5 ADD MSTORE PUSH1 0x60 PUSH1 0x24 DUP5 ADD MSTORE PUSH1 0x64 DUP4 ADD SWAP1 PUSH2 0x248C JUMP JUMPDEST DUP3 PUSH1 0x44 DUP4 ADD MSTORE SUB SWAP3 GAS CALL DUP1 ISZERO PUSH2 0x4C6 JUMPI PUSH2 0x573 JUMPI POP RETURN JUMPDEST PUSH2 0x1201 SWAP1 PUSH1 0x1 PUSH1 0x1 PUSH1 0xA0 SHL SUB DUP1 PUSH2 0x11E2 PUSH2 0x982 DUP5 DUP9 DUP9 PUSH2 0x26F2 JUMP JUMPDEST AND DUP8 MSTORE PUSH1 0x1C PUSH1 0x20 DUP2 DUP2 MSTORE PUSH1 0xFF PUSH1 0x40 DUP11 KECCAK256 SLOAD AND ISZERO PUSH2 0x1206 JUMPI POP POP POP PUSH2 0x255C JUMP JUMPDEST PUSH2 0x1161 JUMP JUMPDEST DUP3 PUSH2 0x1215 PUSH2 0x982 DUP7 DUP11 DUP11 PUSH2 0x26F2 JUMP JUMPDEST AND DUP10 MSTORE MSTORE PUSH1 0x40 DUP8 KECCAK256 DUP1 SLOAD PUSH1 0xFF NOT AND PUSH1 0x1 OR SWAP1 SSTORE PUSH2 0x9D8 PUSH2 0x982 DUP4 DUP8 DUP8 PUSH2 0x26F2 JUMP JUMPDEST SWAP1 POP CALLVALUE PUSH2 0x306 JUMPI DUP2 PUSH1 0x3 NOT CALLDATASIZE ADD SLT PUSH2 0x306 JUMPI PUSH1 0x40 DUP1 MLOAD PUSH2 0x1255 DUP2 PUSH2 0x235F JUMP JUMPDEST CALLDATASIZE SWAP1 CALLDATACOPY PUSH1 0x40 MLOAD PUSH1 0x1 PUSH1 0x1 PUSH1 0x40 SHL SUB SWAP3 SWAP1 PUSH1 0x60 DUP2 ADD DUP5 DUP2 GT DUP3 DUP3 LT OR PUSH2 0x14AC JUMPI PUSH1 0x40 MSTORE PUSH1 0x60 SWAP1 CALLDATASIZE SWAP1 CALLDATACOPY PUSH1 0x40 DUP1 MLOAD PUSH2 0x128A DUP2 PUSH2 0x235F JUMP JUMPDEST CALLDATASIZE SWAP1 CALLDATACOPY PUSH1 0x40 DUP1 MLOAD PUSH2 0x129A DUP2 PUSH2 0x235F JUMP JUMPDEST CALLDATASIZE SWAP1 CALLDATACOPY PUSH1 0x40 MLOAD SWAP1 PUSH2 0x12AA DUP3 PUSH2 0x235F JUMP JUMPDEST PUSH1 0x2 SLOAD DUP3 MSTORE PUSH1 0x3 SLOAD PUSH1 0x20 DUP4 ADD MSTORE PUSH1 0x40 MLOAD SWAP4 PUSH1 0x60 DUP6 ADD SWAP1 DUP2 GT DUP6 DUP3 LT OR PUSH2 0x14AC JUMPI PUSH1 0x40 MSTORE DUP3 SLOAD DUP5 MSTORE PUSH1 0x6 SLOAD PUSH1 0x20 DUP6 ADD MSTORE PUSH1 0x7 SLOAD PUSH1 0x40 DUP6 ADD MSTORE PUSH1 0x40 MLOAD PUSH2 0x12ED DUP2 PUSH2 0x235F JUMP JUMPDEST PUSH1 0x9 SLOAD DUP2 MSTORE PUSH1 0x8 SLOAD PUSH1 0x20 DUP3 ADD MSTORE PUSH1 0x40 MLOAD SWAP2 PUSH2 0x1307 DUP4 PUSH2 0x235F JUMP JUMPDEST PUSH1 0xB SLOAD DUP4 MSTORE PUSH1 0xA SLOAD PUSH1 0x20 DUP5 ADD MSTORE PUSH1 0x1 DUP1 PUSH1 0xA0 SHL SUB SWAP3 DUP4 PUSH1 0xD SLOAD AND SWAP4 PUSH1 0xE SLOAD AND SWAP2 PUSH1 0x12 SLOAD SWAP3 PUSH1 0x13 SLOAD SWAP2 PUSH1 0x17 SLOAD SWAP4 PUSH1 0xFF PUSH1 0x18 SLOAD PUSH1 0xA0 SHR AND SWAP7 PUSH1 0x40 MLOAD SWAP3 PUSH1 0x0 DUP5 PUSH1 0xC SLOAD SWAP2 PUSH2 0x1351 DUP4 PUSH2 0x239D JUMP JUMPDEST DUP1 DUP4 MSTORE SWAP3 PUSH1 0x1 DUP2 AND SWAP1 DUP2 ISZERO PUSH2 0x148D JUMPI POP PUSH1 0x1 EQ PUSH2 0x143F JUMPI JUMPDEST SWAP3 SWAP15 SWAP3 PUSH2 0x1378 SWAP3 POP SUB DUP6 PUSH2 0x237A JUMP JUMPDEST PUSH2 0x1385 PUSH1 0x40 MLOAD DUP1 SWAP13 PUSH2 0x2417 JUMP JUMPDEST SWAP12 PUSH1 0x40 DUP12 ADD JUMPDEST PUSH1 0x3 DUP3 LT PUSH2 0x1428 JUMPI POP POP SWAP2 PUSH2 0x13BB PUSH2 0x13CD SWAP3 PUSH2 0x13B1 PUSH1 0xFF SWAP10 SWAP9 SWAP8 SWAP7 SWAP6 PUSH1 0xA0 DUP15 ADD SWAP1 PUSH2 0x2417 JUMP JUMPDEST PUSH1 0xE0 DUP13 ADD SWAP1 PUSH2 0x2417 JUMP JUMPDEST PUSH2 0x220 DUP1 PUSH2 0x120 DUP13 ADD MSTORE DUP11 ADD SWAP1 PUSH2 0x23D7 JUMP JUMPDEST SWAP7 PUSH2 0x140 DUP10 ADD MSTORE PUSH2 0x160 DUP9 ADD MSTORE DUP4 DUP4 AND ISZERO ISZERO PUSH2 0x180 DUP9 ADD MSTORE PUSH2 0x1A0 DUP8 ADD MSTORE PUSH2 0x1C0 DUP7 ADD MSTORE PUSH1 0x8 SHR AND ISZERO ISZERO PUSH2 0x1E0 DUP5 ADD MSTORE PUSH1 0x2 DUP2 LT ISZERO PUSH2 0x1413 JUMPI DUP3 SWAP4 POP PUSH2 0x200 DUP4 ADD MSTORE SUB SWAP1 RETURN JUMPDEST PUSH1 0x21 DUP5 PUSH4 0x4E487B71 PUSH1 0xE0 SHL PUSH1 0x0 MSTORE MSTORE PUSH1 0x24 PUSH1 0x0 REVERT JUMPDEST PUSH1 0x20 DUP1 DUP16 SWAP3 PUSH1 0x1 SWAP4 MLOAD DUP2 MSTORE ADD SWAP15 ADD SWAP2 ADD SWAP1 SWAP13 PUSH2 0x138B JUMP JUMPDEST POP PUSH1 0xC PUSH1 0x0 SWAP1 DUP2 MSTORE SWAP1 SWAP2 PUSH1 0x0 DUP1 MLOAD PUSH1 0x20 PUSH2 0x2A53 DUP4 CODECOPY DUP2 MLOAD SWAP2 MSTORE JUMPDEST DUP2 DUP4 LT PUSH2 0x1471 JUMPI POP POP SWAP1 PUSH1 0x20 PUSH2 0x1378 SWAP3 DUP3 ADD ADD PUSH2 0x1369 JUMP JUMPDEST PUSH1 0x20 SWAP2 SWAP4 POP DUP1 PUSH1 0x1 SWAP2 SLOAD DUP4 DUP6 DUP12 ADD ADD MSTORE ADD SWAP2 ADD SWAP1 SWAP2 DUP7 SWAP3 PUSH2 0x1459 JUMP JUMPDEST PUSH1 0x20 SWAP3 POP PUSH2 0x1378 SWAP5 SWAP2 POP PUSH1 0xFF NOT AND DUP3 DUP5 ADD MSTORE ISZERO ISZERO PUSH1 0x5 SHL DUP3 ADD ADD PUSH2 0x1369 JUMP JUMPDEST PUSH1 0x41 DUP5 PUSH4 0x4E487B71 PUSH1 0xE0 SHL PUSH1 0x0 MSTORE MSTORE PUSH1 0x24 PUSH1 0x0 REVERT JUMPDEST DUP3 CALLVALUE PUSH2 0x222 JUMPI DUP1 PUSH1 0x3 NOT CALLDATASIZE ADD SLT PUSH2 0x222 JUMPI PUSH1 0x20 PUSH1 0xFF PUSH1 0x12 SLOAD AND PUSH1 0x40 MLOAD SWAP1 ISZERO ISZERO DUP2 MSTORE RETURN JUMPDEST SWAP1 POP CALLVALUE PUSH2 0x306 JUMPI DUP2 PUSH1 0x3 NOT CALLDATASIZE ADD SLT PUSH2 0x306 JUMPI PUSH1 0x20 SWAP1 SLOAD PUSH1 0x40 MLOAD SWAP1 DUP2 MSTORE RETURN JUMPDEST DUP3 CALLVALUE PUSH2 0x222 JUMPI DUP1 PUSH1 0x3 NOT CALLDATASIZE ADD SLT PUSH2 0x222 JUMPI PUSH1 0x20 PUSH1 0xB SLOAD PUSH1 0x40 MLOAD SWAP1 DUP2 MSTORE RETURN JUMPDEST DUP3 CALLVALUE PUSH2 0x222 JUMPI DUP1 PUSH1 0x3 NOT CALLDATASIZE ADD SLT PUSH2 0x222 JUMPI PUSH1 0x20 PUSH1 0xA SLOAD PUSH1 0x40 MLOAD SWAP1 DUP2 MSTORE RETURN JUMPDEST DUP3 CALLVALUE PUSH2 0x222 JUMPI DUP1 PUSH1 0x3 NOT CALLDATASIZE ADD SLT PUSH2 0x222 JUMPI PUSH2 0x1557 PUSH2 0x24C9 JUMP JUMPDEST PUSH1 0x0 DUP1 SLOAD PUSH1 0x1 PUSH1 0x1 PUSH1 0xA0 SHL SUB NOT DUP2 AND DUP3 SSTORE PUSH1 0x1 PUSH1 0x1 PUSH1 0xA0 SHL SUB AND PUSH1 0x0 DUP1 MLOAD PUSH1 0x20 PUSH2 0x2A93 DUP4 CODECOPY DUP2 MLOAD SWAP2 MSTORE DUP3 DUP1 LOG3 DUP1 RETURN JUMPDEST DUP3 CALLVALUE PUSH2 0x222 JUMPI DUP1 PUSH1 0x3 NOT CALLDATASIZE ADD SLT PUSH2 0x222 JUMPI PUSH1 0xFF PUSH1 0x20 SWAP2 SLOAD PUSH1 0xA0 SHR AND PUSH1 0x40 MLOAD SWAP1 ISZERO ISZERO DUP2 MSTORE RETURN JUMPDEST DUP3 CALLVALUE PUSH2 0x222 JUMPI DUP1 PUSH1 0x3 NOT CALLDATASIZE ADD SLT PUSH2 0x222 JUMPI PUSH1 0x20 PUSH1 0x7 SLOAD PUSH1 0x40 MLOAD SWAP1 DUP2 MSTORE RETURN JUMPDEST SWAP1 POP CALLVALUE PUSH2 0x306 JUMPI DUP2 PUSH1 0x3 NOT CALLDATASIZE ADD SLT PUSH2 0x306 JUMPI PUSH2 0x15E3 PUSH2 0x25DF JUMP JUMPDEST PUSH2 0x15EB PUSH2 0x2827 JUMP JUMPDEST PUSH1 0xFF PUSH1 0x18 SLOAD PUSH1 0xA0 SHR AND PUSH1 0x2 DUP2 LT ISZERO PUSH2 0x17DB JUMPI PUSH2 0x1789 JUMPI CALLER DUP3 MSTORE PUSH1 0x1A PUSH1 0x20 MSTORE PUSH1 0x40 DUP3 KECCAK256 DUP1 SLOAD SWAP1 DUP4 SWAP1 SSTORE PUSH1 0x15 SLOAD SWAP1 SWAP2 SWAP1 DUP3 DUP1 DUP3 GT PUSH2 0x1778 JUMPI POP POP DUP3 PUSH1 0x15 SSTORE JUMPDEST DUP2 ISZERO PUSH2 0x1725 JUMPI PUSH1 0xD SLOAD PUSH1 0x40 MLOAD PUSH4 0xA9059CBB PUSH1 0xE0 SHL DUP2 MSTORE DUP5 SWAP3 PUSH1 0x1 PUSH1 0x1 PUSH1 0xA0 SHL SUB SWAP3 SWAP1 SWAP2 SWAP1 PUSH1 0x20 SWAP1 DUP3 SWAP1 DUP6 AND DUP2 DUP8 DUP2 PUSH2 0x1663 DUP12 CALLER DUP4 DUP12 ADD PUSH2 0x2642 JUMP JUMPDEST SUB SWAP3 GAS CALL DUP1 ISZERO PUSH2 0x836 JUMPI PUSH2 0x1707 JUMPI JUMPDEST POP DUP2 PUSH1 0x18 SLOAD AND SWAP2 PUSH1 0xD SLOAD AND SWAP2 PUSH1 0x13 SLOAD SWAP1 PUSH1 0x15 SLOAD SWAP4 DUP2 EXTCODESIZE ISZERO PUSH2 0x1703 JUMPI DUP6 DUP1 SWAP5 PUSH2 0x16AE PUSH1 0x40 MLOAD SWAP8 DUP9 SWAP7 DUP8 SWAP6 DUP7 SWAP5 PUSH4 0x5794CFED PUSH1 0xE1 SHL DUP7 MSTORE DUP6 ADD PUSH2 0x25A8 JUMP JUMPDEST SUB SWAP3 GAS CALL DUP1 ISZERO PUSH2 0x4C6 JUMPI PUSH2 0x16EF JUMPI JUMPDEST POP PUSH1 0x40 MLOAD PUSH32 0x3BEB98421D990A16CA9090D8D7C25AAEEFF9D855A287AC0854E6BEE846BA990D SWAP1 DUP1 PUSH2 0x428 CALLER DUP7 DUP4 PUSH2 0x25C6 JUMP JUMPDEST PUSH2 0x16F8 SWAP1 PUSH2 0x2336 JUMP JUMPDEST PUSH2 0x306 JUMPI DUP2 CODESIZE PUSH2 0x16BD JUMP JUMPDEST DUP6 DUP1 REVERT JUMPDEST PUSH2 0x171E SWAP1 PUSH1 0x20 RETURNDATASIZE DUP2 GT PUSH2 0x459 JUMPI PUSH2 0x449 DUP2 DUP4 PUSH2 0x237A JUMP JUMPDEST POP CODESIZE PUSH2 0x1672 JUMP JUMPDEST PUSH1 0x84 SWAP1 PUSH1 0x20 PUSH1 0x40 MLOAD SWAP2 PUSH3 0x461BCD PUSH1 0xE5 SHL DUP4 MSTORE DUP3 ADD MSTORE PUSH1 0x26 PUSH1 0x24 DUP3 ADD MSTORE PUSH32 0x4C61756E63687061643A20557365722068617665206E6F20746F6B656E20746F PUSH1 0x44 DUP3 ADD MSTORE PUSH6 0x20636C61696D PUSH1 0xD0 SHL PUSH1 0x64 DUP3 ADD MSTORE REVERT JUMPDEST PUSH2 0x1781 SWAP2 PUSH2 0x2635 JUMP JUMPDEST PUSH1 0x15 SSTORE PUSH2 0x1628 JUMP JUMPDEST CALLER DUP3 MSTORE PUSH1 0x19 PUSH1 0x20 MSTORE PUSH2 0x17A7 PUSH1 0x40 DUP4 KECCAK256 SLOAD PUSH2 0x17A1 PUSH2 0x2740 JUMP JUMPDEST SWAP1 PUSH2 0x256B JUMP JUMPDEST PUSH1 0x13 SLOAD SWAP1 DUP2 ISZERO PUSH2 0x17C6 JUMPI DIV SWAP1 CALLER DUP4 MSTORE PUSH1 0x19 PUSH1 0x20 MSTORE DUP3 PUSH1 0x40 DUP2 KECCAK256 SSTORE PUSH2 0x1628 JUMP JUMPDEST PUSH1 0x12 DUP4 PUSH4 0x4E487B71 PUSH1 0xE0 SHL PUSH1 0x0 MSTORE MSTORE PUSH1 0x24 PUSH1 0x0 REVERT JUMPDEST PUSH4 0x4E487B71 PUSH1 0xE0 SHL DUP4 MSTORE PUSH1 0x21 DUP3 MSTORE PUSH1 0x24 DUP4 REVERT JUMPDEST SWAP1 POP CALLVALUE PUSH2 0x306 JUMPI PUSH1 0x20 CALLDATASIZE PUSH1 0x3 NOT ADD SLT PUSH2 0x306 JUMPI CALLDATALOAD PUSH1 0x1 PUSH1 0x1 PUSH1 0xA0 SHL SUB DUP2 AND SWAP1 DUP2 SWAP1 SUB PUSH2 0x306 JUMPI DUP2 PUSH1 0x40 SWAP2 PUSH1 0x20 SWAP4 MSTORE PUSH1 0x19 DUP4 MSTORE KECCAK256 SLOAD PUSH1 0x40 MLOAD SWAP1 DUP2 MSTORE RETURN JUMPDEST DUP3 CALLVALUE PUSH2 0x222 JUMPI DUP1 PUSH1 0x3 NOT CALLDATASIZE ADD SLT PUSH2 0x222 JUMPI PUSH1 0x20 PUSH1 0x9 SLOAD PUSH1 0x40 MLOAD SWAP1 DUP2 MSTORE RETURN JUMPDEST DUP3 CALLVALUE PUSH2 0x222 JUMPI DUP1 PUSH1 0x3 NOT CALLDATASIZE ADD SLT PUSH2 0x222 JUMPI PUSH1 0x40 MLOAD PUSH1 0x0 SWAP1 PUSH1 0xC SLOAD PUSH2 0x186B DUP2 PUSH2 0x239D JUMP JUMPDEST DUP1 DUP4 MSTORE PUSH1 0x1 SWAP2 DUP1 DUP4 AND SWAP1 DUP2 ISZERO PUSH2 0x18F4 JUMPI POP PUSH1 0x1 EQ PUSH2 0x18AC JUMPI JUMPDEST PUSH2 0x18A8 DUP4 PUSH2 0x1894 DUP2 DUP8 SUB DUP3 PUSH2 0x237A JUMP JUMPDEST PUSH1 0x40 MLOAD SWAP2 DUP3 SWAP2 PUSH1 0x20 DUP4 MSTORE PUSH1 0x20 DUP4 ADD SWAP1 PUSH2 0x23D7 JUMP JUMPDEST SUB SWAP1 RETURN JUMPDEST PUSH1 0xC PUSH1 0x0 SWAP1 DUP2 MSTORE PUSH1 0x20 SWAP5 POP SWAP2 PUSH1 0x0 DUP1 MLOAD PUSH1 0x20 PUSH2 0x2A53 DUP4 CODECOPY DUP2 MLOAD SWAP2 MSTORE JUMPDEST DUP3 DUP5 LT PUSH2 0x18E1 JUMPI POP POP POP DUP2 ADD SWAP1 SWAP2 ADD SWAP1 PUSH2 0x1894 DUP2 PUSH2 0x1884 JUMP JUMPDEST DUP1 SLOAD DUP6 DUP6 ADD DUP8 ADD MSTORE SWAP3 DUP6 ADD SWAP3 DUP2 ADD PUSH2 0x18C8 JUMP JUMPDEST PUSH2 0x18A8 SWAP6 POP PUSH2 0x1894 SWAP4 POP PUSH1 0x20 SWAP2 POP SWAP2 DUP5 SWAP3 PUSH1 0xFF NOT AND DUP3 DUP5 ADD MSTORE ISZERO ISZERO PUSH1 0x5 SHL DUP3 ADD ADD SWAP4 POP PUSH2 0x1884 JUMP JUMPDEST DUP3 CALLVALUE PUSH2 0x222 JUMPI DUP1 PUSH1 0x3 NOT CALLDATASIZE ADD SLT PUSH2 0x222 JUMPI PUSH1 0x20 PUSH1 0x15 SLOAD PUSH1 0x40 MLOAD SWAP1 DUP2 MSTORE RETURN JUMPDEST DUP3 CALLVALUE PUSH2 0x222 JUMPI DUP1 PUSH1 0x3 NOT CALLDATASIZE ADD SLT PUSH2 0x222 JUMPI PUSH1 0x20 PUSH1 0x10 SLOAD PUSH1 0x40 MLOAD SWAP1 DUP2 MSTORE RETURN JUMPDEST DUP3 CALLVALUE PUSH2 0x222 JUMPI DUP1 PUSH1 0x3 NOT CALLDATASIZE ADD SLT PUSH2 0x222 JUMPI PUSH1 0x20 PUSH1 0x6 SLOAD PUSH1 0x40 MLOAD SWAP1 DUP2 MSTORE RETURN JUMPDEST SWAP1 POP PUSH1 0x20 DUP1 PUSH1 0x3 NOT CALLDATASIZE ADD SLT PUSH2 0x4C2 JUMPI DUP2 CALLDATALOAD SWAP2 PUSH2 0x1990 PUSH2 0x25DF JUMP JUMPDEST PUSH1 0xFF PUSH1 0x12 SLOAD AND DUP1 DUP1 PUSH2 0x1F94 JUMPI JUMPDEST DUP2 PUSH2 0x1F7E JUMPI JUMPDEST DUP2 ISZERO PUSH2 0x1F75 JUMPI JUMPDEST DUP2 ISZERO PUSH2 0x1F4B JUMPI JUMPDEST POP ISZERO PUSH2 0x1F09 JUMPI PUSH1 0x17 SLOAD PUSH2 0x1EC9 JUMPI DUP1 SLOAD TIMESTAMP GT ISZERO PUSH2 0x1E87 JUMPI TIMESTAMP PUSH1 0x6 SLOAD GT ISZERO PUSH2 0x1E3B JUMPI PUSH1 0xFF PUSH1 0x18 SLOAD PUSH1 0xA0 SHR AND PUSH1 0x2 DUP2 LT ISZERO PUSH2 0x1E28 JUMPI ISZERO PUSH2 0x1DC6 JUMPI JUMPDEST PUSH1 0xE SLOAD PUSH1 0x1 PUSH1 0x1 PUSH1 0xA0 SHL SUB SWAP3 SWAP1 DUP6 SWAP1 DUP3 SWAP1 DUP6 AND DUP1 PUSH2 0x1D72 JUMPI POP POP POP CALLVALUE DUP5 SUB PUSH2 0x1D25 JUMPI JUMPDEST CALLER DUP6 MSTORE PUSH1 0x19 DUP2 MSTORE PUSH1 0x40 DUP6 KECCAK256 SLOAD ISZERO PUSH2 0x1CF5 JUMPI JUMPDEST CALLER DUP6 MSTORE PUSH1 0x19 DUP2 MSTORE PUSH1 0x40 DUP6 KECCAK256 PUSH2 0x1A34 DUP6 DUP3 SLOAD PUSH2 0x2521 JUMP JUMPDEST SWAP1 SSTORE PUSH1 0xFF PUSH1 0x18 SLOAD PUSH1 0xA0 SHR AND PUSH1 0x2 DUP2 LT ISZERO PUSH2 0x1CE2 JUMPI SWAP1 DUP6 SWAP4 SWAP3 SWAP2 ISZERO PUSH2 0x1B57 JUMPI JUMPDEST POP PUSH2 0x1A60 DUP5 PUSH1 0x13 SLOAD PUSH2 0x2521 JUMP JUMPDEST PUSH1 0x13 SSTORE DUP2 PUSH1 0x18 SLOAD AND DUP3 PUSH1 0xD SLOAD AND DUP2 EXTCODESIZE ISZERO PUSH2 0x1B53 JUMPI DUP5 SWAP2 PUSH1 0x64 DUP4 SWAP3 PUSH1 0x40 MLOAD SWAP5 DUP6 SWAP4 DUP5 SWAP3 PUSH4 0xA8F5AB01 PUSH1 0xE0 SHL DUP5 MSTORE CALLER DUP10 DUP6 ADD MSTORE PUSH1 0x24 DUP5 ADD MSTORE PUSH1 0x0 PUSH1 0x44 DUP5 ADD MSTORE GAS CALL SWAP1 DUP2 ISZERO PUSH2 0x836 JUMPI DUP5 SWAP2 PUSH2 0x1B3F JUMPI JUMPDEST POP POP DUP2 PUSH1 0x18 SLOAD AND SWAP2 PUSH1 0xD SLOAD AND SWAP2 PUSH1 0x13 SLOAD SWAP1 PUSH1 0x15 SLOAD SWAP4 DUP2 EXTCODESIZE ISZERO PUSH2 0x1703 JUMPI DUP6 DUP1 SWAP5 PUSH2 0x1AEA PUSH1 0x40 MLOAD SWAP8 DUP9 SWAP7 DUP8 SWAP6 DUP7 SWAP5 PUSH4 0x5794CFED PUSH1 0xE1 SHL DUP7 MSTORE DUP6 ADD PUSH2 0x25A8 JUMP JUMPDEST SUB SWAP3 GAS CALL DUP1 ISZERO PUSH2 0x4C6 JUMPI PUSH2 0x1B2B JUMPI JUMPDEST POP PUSH1 0x40 MLOAD PUSH32 0x4DA1776B54EBFE9617CAF57A31E9A4B2F316BFD0EE0614D6C61597AE94BA251 SWAP1 DUP1 PUSH2 0x428 CALLER DUP7 DUP4 PUSH2 0x25C6 JUMP JUMPDEST PUSH2 0x1B34 SWAP1 PUSH2 0x2336 JUMP JUMPDEST PUSH2 0x306 JUMPI DUP2 CODESIZE PUSH2 0x1AF9 JUMP JUMPDEST PUSH2 0x1B48 SWAP1 PUSH2 0x2336 JUMP JUMPDEST PUSH2 0x4C2 JUMPI DUP3 CODESIZE PUSH2 0x1AAD JUMP JUMPDEST DUP5 DUP1 REVERT JUMPDEST SWAP1 SWAP2 SWAP3 POP CALLER DUP6 MSTORE PUSH1 0x19 DUP2 MSTORE PUSH1 0x40 DUP6 KECCAK256 SLOAD PUSH1 0xB SLOAD GT PUSH2 0x1C8F JUMPI CALLER DUP6 MSTORE PUSH1 0x19 DUP2 MSTORE PUSH1 0x40 DUP6 KECCAK256 SLOAD PUSH1 0xA SLOAD LT PUSH2 0x1C3C JUMPI SWAP1 DUP5 SWAP3 SWAP2 PUSH2 0x1B93 PUSH1 0x9 SLOAD DUP7 PUSH2 0x256B JUMP JUMPDEST DUP3 DUP3 DUP6 PUSH1 0xD SLOAD AND PUSH1 0x40 MLOAD SWAP3 DUP4 DUP1 SWAP3 PUSH4 0x313CE567 PUSH1 0xE0 SHL DUP3 MSTORE GAS STATICCALL DUP1 ISZERO PUSH2 0xD05 JUMPI PUSH1 0x1A SWAP3 PUSH2 0x17A1 PUSH2 0x1BD4 SWAP3 PUSH8 0xDE0B6B3A7640000 SWAP5 DUP11 SWAP2 PUSH2 0x1C0F JUMPI JUMPDEST POP PUSH2 0x2597 JUMP JUMPDEST DIV SWAP2 PUSH2 0x1BE2 DUP4 PUSH1 0x14 SLOAD PUSH2 0x2521 JUMP JUMPDEST PUSH1 0x14 SSTORE PUSH2 0x1BF1 DUP4 PUSH1 0x15 SLOAD PUSH2 0x2521 JUMP JUMPDEST PUSH1 0x15 SSTORE CALLER DUP7 MSTORE MSTORE PUSH2 0x1C07 PUSH1 0x40 DUP6 KECCAK256 SWAP2 DUP3 SLOAD PUSH2 0x2521 JUMP JUMPDEST SWAP1 SSTORE CODESIZE PUSH2 0x1A53 JUMP JUMPDEST PUSH2 0x1C2F SWAP2 POP DUP8 RETURNDATASIZE DUP10 GT PUSH2 0x1C35 JUMPI JUMPDEST PUSH2 0x1C27 DUP2 DUP4 PUSH2 0x237A JUMP JUMPDEST DUP2 ADD SWAP1 PUSH2 0x257E JUMP JUMPDEST CODESIZE PUSH2 0x1BCE JUMP JUMPDEST POP RETURNDATASIZE PUSH2 0x1C1D JUMP JUMPDEST PUSH1 0x40 MLOAD PUSH3 0x461BCD PUSH1 0xE5 SHL DUP2 MSTORE SWAP2 DUP3 ADD MSTORE PUSH1 0x27 PUSH1 0x24 DUP3 ADD MSTORE PUSH32 0x4C61756E63687061643A204D617820636F6E747269627574696F6E206E6F7420 PUSH1 0x44 DUP3 ADD MSTORE PUSH7 0x1C995858DA1959 PUSH1 0xCA SHL PUSH1 0x64 DUP3 ADD MSTORE PUSH1 0x84 SWAP2 POP REVERT JUMPDEST PUSH1 0x40 MLOAD PUSH3 0x461BCD PUSH1 0xE5 SHL DUP2 MSTORE SWAP2 DUP3 ADD MSTORE PUSH1 0x27 PUSH1 0x24 DUP3 ADD MSTORE PUSH32 0x4C61756E63687061643A204D696E20636F6E747269627574696F6E206E6F7420 PUSH1 0x44 DUP3 ADD MSTORE PUSH7 0x1C995858DA1959 PUSH1 0xCA SHL PUSH1 0x64 DUP3 ADD MSTORE PUSH1 0x84 SWAP2 POP REVERT JUMPDEST PUSH4 0x4E487B71 PUSH1 0xE0 SHL DUP7 MSTORE PUSH1 0x21 DUP4 MSTORE PUSH1 0x24 DUP7 REVERT JUMPDEST PUSH1 0x16 DUP1 SLOAD DUP7 MSTORE PUSH1 0x1B DUP3 MSTORE PUSH1 0x40 DUP7 KECCAK256 DUP1 SLOAD PUSH1 0x1 PUSH1 0x1 PUSH1 0xA0 SHL SUB NOT AND CALLER OR SWAP1 SSTORE SLOAD PUSH2 0x1D1D SWAP1 PUSH2 0x255C JUMP JUMPDEST PUSH1 0x16 SSTORE PUSH2 0x1A1E JUMP JUMPDEST PUSH1 0x40 MLOAD PUSH3 0x461BCD PUSH1 0xE5 SHL DUP2 MSTORE SWAP2 DUP3 ADD MSTORE PUSH1 0x21 PUSH1 0x24 DUP3 ADD MSTORE PUSH32 0x4C61756E63687061643A20496E76616C6964207061796D656E7420616D6F756E PUSH1 0x44 DUP3 ADD MSTORE PUSH1 0x1D PUSH1 0xFA SHL PUSH1 0x64 DUP3 ADD MSTORE PUSH1 0x84 SWAP2 POP REVERT JUMPDEST PUSH1 0x64 PUSH1 0x40 MLOAD DUP1 SWAP5 DUP2 SWAP4 PUSH4 0x23B872DD PUSH1 0xE0 SHL DUP4 MSTORE CALLER DUP10 DUP5 ADD MSTORE ADDRESS PUSH1 0x24 DUP5 ADD MSTORE DUP11 PUSH1 0x44 DUP5 ADD MSTORE GAS CALL DUP1 ISZERO PUSH2 0xD05 JUMPI PUSH2 0x1DA9 JUMPI JUMPDEST POP PUSH2 0x1A0C JUMP JUMPDEST PUSH2 0x1DBF SWAP1 DUP3 RETURNDATASIZE DUP5 GT PUSH2 0x459 JUMPI PUSH2 0x449 DUP2 DUP4 PUSH2 0x237A JUMP JUMPDEST POP CODESIZE PUSH2 0x1DA3 JUMP JUMPDEST PUSH2 0x1DD2 PUSH1 0x13 SLOAD DUP5 PUSH2 0x2521 JUMP JUMPDEST PUSH1 0x3 SLOAD LT ISZERO PUSH2 0x19E9 JUMPI PUSH1 0x84 SWAP2 PUSH1 0x40 MLOAD SWAP2 PUSH3 0x461BCD PUSH1 0xE5 SHL DUP4 MSTORE DUP3 ADD MSTORE PUSH1 0x22 PUSH1 0x24 DUP3 ADD MSTORE PUSH32 0x4C61756E6368706164284E6F726D616C293A2048617264636170207265616368 PUSH1 0x44 DUP3 ADD MSTORE PUSH2 0x1959 PUSH1 0xF2 SHL PUSH1 0x64 DUP3 ADD MSTORE REVERT JUMPDEST PUSH4 0x4E487B71 PUSH1 0xE0 SHL DUP6 MSTORE PUSH1 0x21 DUP3 MSTORE PUSH1 0x24 DUP6 REVERT JUMPDEST PUSH1 0x84 SWAP2 PUSH1 0x40 MLOAD SWAP2 PUSH3 0x461BCD PUSH1 0xE5 SHL DUP4 MSTORE DUP3 ADD MSTORE PUSH1 0x21 PUSH1 0x24 DUP3 ADD MSTORE PUSH32 0x4C61756E63687061643A2053616C6520697320616C726561647920636C6F7365 PUSH1 0x44 DUP3 ADD MSTORE PUSH1 0x19 PUSH1 0xFA SHL PUSH1 0x64 DUP3 ADD MSTORE REVERT JUMPDEST PUSH1 0x64 SWAP2 PUSH1 0x40 MLOAD SWAP2 PUSH3 0x461BCD PUSH1 0xE5 SHL DUP4 MSTORE DUP3 ADD MSTORE PUSH1 0x1F PUSH1 0x24 DUP3 ADD MSTORE PUSH32 0x4C61756E63687061643A2053616C65206973206E6F74206F70656E2079657400 PUSH1 0x44 DUP3 ADD MSTORE REVERT JUMPDEST PUSH1 0x64 SWAP2 PUSH1 0x40 MLOAD SWAP2 PUSH3 0x461BCD PUSH1 0xE5 SHL DUP4 MSTORE DUP3 ADD MSTORE PUSH1 0x1B PUSH1 0x24 DUP3 ADD MSTORE PUSH27 0x2630BAB731B43830B21D1029B0B6329034B9903737BA1037B832B7 PUSH1 0x29 SHL PUSH1 0x44 DUP3 ADD MSTORE REVERT JUMPDEST PUSH1 0x64 SWAP2 PUSH1 0x40 MLOAD SWAP2 PUSH3 0x461BCD PUSH1 0xE5 SHL DUP4 MSTORE DUP3 ADD MSTORE PUSH1 0x1E PUSH1 0x24 DUP3 ADD MSTORE PUSH32 0x4C61756E63687061643A20557365722063616E206E6F7420696E766573740000 PUSH1 0x44 DUP3 ADD MSTORE REVERT JUMPDEST SWAP1 POP DUP1 PUSH2 0x1F6A JUMPI JUMPDEST DUP1 PUSH2 0x1F5F JUMPI JUMPDEST CODESIZE PUSH2 0x19B1 JUMP JUMPDEST POP PUSH1 0x5 SLOAD TIMESTAMP GT PUSH2 0x1F59 JUMP JUMPDEST POP PUSH1 0x5 SLOAD ISZERO ISZERO PUSH2 0x1F53 JUMP JUMPDEST DUP1 ISZERO SWAP2 POP PUSH2 0x19AA JUMP JUMPDEST CALLER DUP7 MSTORE PUSH1 0x1C DUP5 MSTORE PUSH1 0x40 DUP7 KECCAK256 SLOAD PUSH1 0xFF AND SWAP2 POP PUSH2 0x19A3 JUMP JUMPDEST SWAP1 POP PUSH1 0x5 SLOAD DUP1 ISZERO SWAP1 DUP2 ISZERO PUSH2 0x1FAA JUMPI JUMPDEST POP SWAP1 PUSH2 0x199D JUMP JUMPDEST SWAP1 POP TIMESTAMP LT CODESIZE PUSH2 0x1FA3 JUMP JUMPDEST DUP3 CALLVALUE PUSH2 0x222 JUMPI PUSH1 0x20 DUP1 PUSH1 0x3 NOT CALLDATASIZE ADD SLT PUSH2 0x306 JUMPI PUSH1 0x1 PUSH1 0x1 PUSH1 0x40 SHL SUB SWAP1 DUP4 CALLDATALOAD SWAP1 DUP3 DUP3 GT PUSH2 0x302 JUMPI CALLDATASIZE PUSH1 0x23 DUP4 ADD SLT ISZERO PUSH2 0x302 JUMPI DUP2 DUP6 ADD CALLDATALOAD SWAP5 DUP4 DUP7 GT PUSH2 0x2132 JUMPI PUSH1 0x40 MLOAD SWAP6 PUSH1 0x1F NOT SWAP4 PUSH2 0x200A PUSH1 0x1F DUP4 ADD DUP7 AND DUP6 ADD DUP10 PUSH2 0x237A JUMP JUMPDEST DUP2 DUP9 MSTORE CALLDATASIZE PUSH1 0x24 DUP4 DUP4 ADD ADD GT PUSH2 0x2145 JUMPI DUP2 DUP8 SWAP3 PUSH1 0x24 DUP7 SWAP4 ADD DUP4 DUP12 ADD CALLDATACOPY DUP9 ADD ADD MSTORE PUSH2 0x2031 PUSH2 0x24C9 JUMP JUMPDEST DUP6 MLOAD SWAP4 DUP5 GT PUSH2 0x2132 JUMPI POP PUSH2 0x2046 PUSH1 0xC SLOAD PUSH2 0x239D JUMP JUMPDEST PUSH1 0x1F DUP2 GT PUSH2 0x20EE JUMPI JUMPDEST POP DUP1 SWAP2 PUSH1 0x1F DUP5 GT PUSH1 0x1 EQ PUSH2 0x208C JUMPI POP POP DUP3 SWAP4 DUP3 SWAP4 SWAP3 PUSH2 0x2081 JUMPI JUMPDEST POP POP DUP2 PUSH1 0x1 SHL SWAP2 PUSH1 0x0 NOT SWAP1 PUSH1 0x3 SHL SHR NOT AND OR PUSH1 0xC SSTORE DUP1 RETURN JUMPDEST ADD MLOAD SWAP1 POP DUP4 DUP1 PUSH2 0x2069 JUMP JUMPDEST DUP4 SWAP3 SWAP2 SWAP3 AND SWAP5 PUSH1 0xC DUP6 MSTORE DUP3 DUP6 KECCAK256 SWAP3 DUP6 SWAP1 JUMPDEST DUP8 DUP3 LT PUSH2 0x20D6 JUMPI POP POP DUP4 PUSH1 0x1 SWAP6 SWAP7 LT PUSH2 0x20BD JUMPI JUMPDEST POP POP POP DUP2 SHL ADD PUSH1 0xC SSTORE DUP1 RETURN JUMPDEST ADD MLOAD PUSH1 0x0 NOT PUSH1 0xF8 DUP5 PUSH1 0x3 SHL AND SHR NOT AND SWAP1 SSTORE DUP4 DUP1 DUP1 PUSH2 0x20B1 JUMP JUMPDEST DUP1 PUSH1 0x1 DUP6 SWAP7 DUP3 SWAP5 SWAP7 DUP7 ADD MLOAD DUP2 SSTORE ADD SWAP6 ADD SWAP4 ADD SWAP1 PUSH2 0x209D JUMP JUMPDEST PUSH1 0xC DUP6 MSTORE DUP2 DUP6 KECCAK256 PUSH1 0x1F DUP6 ADD PUSH1 0x5 SHR DUP2 ADD SWAP2 DUP4 DUP7 LT PUSH2 0x2128 JUMPI JUMPDEST PUSH1 0x1F ADD PUSH1 0x5 SHR ADD SWAP1 JUMPDEST DUP2 DUP2 LT PUSH2 0x211D JUMPI POP PUSH2 0x204F JUMP JUMPDEST DUP6 DUP2 SSTORE PUSH1 0x1 ADD PUSH2 0x2110 JUMP JUMPDEST SWAP1 SWAP2 POP DUP2 SWAP1 PUSH2 0x2107 JUMP JUMPDEST PUSH4 0x4E487B71 PUSH1 0xE0 SHL DUP6 MSTORE PUSH1 0x41 SWAP1 MSTORE PUSH1 0x24 DUP5 REVERT JUMPDEST DUP7 DUP1 REVERT JUMPDEST DUP3 CALLVALUE PUSH2 0x222 JUMPI DUP1 PUSH1 0x3 NOT CALLDATASIZE ADD SLT PUSH2 0x222 JUMPI PUSH1 0x20 PUSH1 0x11 SLOAD PUSH1 0x40 MLOAD SWAP1 DUP2 MSTORE RETURN JUMPDEST DUP3 CALLVALUE PUSH2 0x222 JUMPI DUP1 PUSH1 0x3 NOT CALLDATASIZE ADD SLT PUSH2 0x222 JUMPI PUSH1 0x20 PUSH1 0xFF PUSH1 0x12 SLOAD PUSH1 0x8 SHR AND PUSH1 0x40 MLOAD SWAP1 ISZERO ISZERO DUP2 MSTORE RETURN JUMPDEST DUP3 CALLVALUE PUSH2 0x222 JUMPI DUP1 PUSH1 0x3 NOT CALLDATASIZE ADD SLT PUSH2 0x222 JUMPI PUSH1 0x20 PUSH1 0x17 SLOAD PUSH1 0x40 MLOAD SWAP1 DUP2 MSTORE RETURN JUMPDEST DUP3 CALLVALUE PUSH2 0x222 JUMPI DUP1 PUSH1 0x3 NOT CALLDATASIZE ADD SLT PUSH2 0x222 JUMPI PUSH1 0x20 PUSH2 0x21C6 PUSH2 0x2740 JUMP JUMPDEST PUSH1 0x40 MLOAD SWAP1 DUP2 MSTORE RETURN JUMPDEST SWAP1 POP CALLVALUE PUSH2 0x306 JUMPI PUSH1 0x20 CALLDATASIZE PUSH1 0x3 NOT ADD SLT PUSH2 0x306 JUMPI SWAP1 PUSH1 0x20 SWAP2 CALLDATALOAD DUP2 MSTORE PUSH1 0x1B DUP3 MSTORE PUSH1 0x40 PUSH1 0x1 DUP1 PUSH1 0xA0 SHL SUB SWAP2 KECCAK256 SLOAD AND PUSH1 0x40 MLOAD SWAP1 DUP2 MSTORE RETURN JUMPDEST DUP3 CALLVALUE PUSH2 0x222 JUMPI DUP1 PUSH1 0x3 NOT CALLDATASIZE ADD SLT PUSH2 0x222 JUMPI PUSH1 0x20 PUSH1 0x16 SLOAD PUSH1 0x40 MLOAD SWAP1 DUP2 MSTORE RETURN JUMPDEST SWAP1 POP CALLVALUE PUSH2 0x306 JUMPI PUSH1 0x20 CALLDATASIZE PUSH1 0x3 NOT ADD SLT PUSH2 0x306 JUMPI DUP1 CALLDATALOAD PUSH2 0x223C PUSH2 0x24C9 JUMP JUMPDEST PUSH1 0x1 PUSH1 0xFF PUSH1 0x12 SLOAD AND ISZERO ISZERO EQ DUP1 PUSH2 0x2318 JUMPI JUMPDEST ISZERO PUSH2 0x22D4 JUMPI DUP1 PUSH2 0x22C4 JUMPI POP PUSH1 0xFF NOT PUSH1 0x12 SLOAD AND PUSH1 0x12 SSTORE JUMPDEST DUP2 PUSH1 0x1 DUP1 PUSH1 0xA0 SHL SUB PUSH1 0x18 SLOAD AND PUSH1 0xFF PUSH1 0x12 SLOAD AND SWAP1 PUSH1 0x5 SLOAD SWAP4 DUP2 EXTCODESIZE ISZERO PUSH2 0x302 JUMPI DUP4 PUSH1 0x64 SWAP3 PUSH1 0x40 MLOAD SWAP7 DUP8 SWAP6 DUP7 SWAP5 PUSH4 0xD7C7418F PUSH1 0xE0 SHL DUP7 MSTORE ADDRESS SWAP1 DUP7 ADD MSTORE ISZERO ISZERO PUSH1 0x24 DUP6 ADD MSTORE PUSH1 0x44 DUP5 ADD MSTORE GAS CALL DUP1 ISZERO PUSH2 0x4C6 JUMPI PUSH2 0x22B8 JUMPI POP DUP1 RETURN JUMPDEST PUSH2 0x22C1 SWAP1 PUSH2 0x2336 JUMP JUMPDEST DUP1 RETURN JUMPDEST TIMESTAMP DUP2 GT ISZERO PUSH2 0x4C2 JUMPI PUSH1 0x5 SSTORE PUSH2 0x2263 JUMP JUMPDEST PUSH1 0x40 MLOAD PUSH3 0x461BCD PUSH1 0xE5 SHL DUP2 MSTORE PUSH1 0x20 DUP2 DUP5 ADD MSTORE PUSH1 0x1D PUSH1 0x24 DUP3 ADD MSTORE PUSH32 0x57686974656C697374206D6F6465206973206E6F74206F6E676F696E67000000 PUSH1 0x44 DUP3 ADD MSTORE PUSH1 0x64 SWAP1 REVERT JUMPDEST POP PUSH1 0x5 SLOAD DUP1 ISZERO SWAP1 DUP2 ISZERO PUSH2 0x232C JUMPI JUMPDEST POP PUSH2 0x224D JUMP JUMPDEST SWAP1 POP TIMESTAMP LT CODESIZE PUSH2 0x2326 JUMP JUMPDEST PUSH1 0x1 PUSH1 0x1 PUSH1 0x40 SHL SUB DUP2 GT PUSH2 0x2349 JUMPI PUSH1 0x40 MSTORE JUMP JUMPDEST PUSH4 0x4E487B71 PUSH1 0xE0 SHL PUSH1 0x0 MSTORE PUSH1 0x41 PUSH1 0x4 MSTORE PUSH1 0x24 PUSH1 0x0 REVERT JUMPDEST PUSH1 0x40 DUP2 ADD SWAP1 DUP2 LT PUSH1 0x1 PUSH1 0x1 PUSH1 0x40 SHL SUB DUP3 GT OR PUSH2 0x2349 JUMPI PUSH1 0x40 MSTORE JUMP JUMPDEST PUSH1 0x1F SWAP1 SWAP2 ADD PUSH1 0x1F NOT AND DUP2 ADD SWAP1 PUSH1 0x1 PUSH1 0x1 PUSH1 0x40 SHL SUB DUP3 GT SWAP1 DUP3 LT OR PUSH2 0x2349 JUMPI PUSH1 0x40 MSTORE JUMP JUMPDEST SWAP1 PUSH1 0x1 DUP3 DUP2 SHR SWAP3 AND DUP1 ISZERO PUSH2 0x23CD JUMPI JUMPDEST PUSH1 0x20 DUP4 LT EQ PUSH2 0x23B7 JUMPI JUMP JUMPDEST PUSH4 0x4E487B71 PUSH1 0xE0 SHL PUSH1 0x0 MSTORE PUSH1 0x22 PUSH1 0x4 MSTORE PUSH1 0x24 PUSH1 0x0 REVERT JUMPDEST SWAP2 PUSH1 0x7F AND SWAP2 PUSH2 0x23AC JUMP JUMPDEST SWAP2 SWAP1 DUP3 MLOAD SWAP3 DUP4 DUP3 MSTORE PUSH1 0x0 JUMPDEST DUP5 DUP2 LT PUSH2 0x2403 JUMPI POP POP DUP3 PUSH1 0x0 PUSH1 0x20 DUP1 SWAP5 SWAP6 DUP5 ADD ADD MSTORE PUSH1 0x1F DUP1 NOT SWAP2 ADD AND ADD ADD SWAP1 JUMP JUMPDEST PUSH1 0x20 DUP2 DUP4 ADD DUP2 ADD MLOAD DUP5 DUP4 ADD DUP3 ADD MSTORE ADD PUSH2 0x23E2 JUMP JUMPDEST PUSH1 0x0 SWAP2 JUMPDEST PUSH1 0x2 DUP4 LT PUSH2 0x2428 JUMPI POP POP POP JUMP JUMPDEST PUSH1 0x1 SWAP1 DUP3 MLOAD DUP2 MSTORE PUSH1 0x20 DUP1 SWAP2 ADD SWAP3 ADD SWAP3 ADD SWAP2 SWAP1 PUSH2 0x241B JUMP JUMPDEST SWAP1 PUSH1 0x20 PUSH1 0x3 NOT DUP4 ADD SLT PUSH2 0x497 JUMPI PUSH1 0x1 PUSH1 0x1 PUSH1 0x40 SHL SUB SWAP2 PUSH1 0x4 CALLDATALOAD SWAP1 DUP4 DUP3 GT PUSH2 0x497 JUMPI DUP1 PUSH1 0x23 DUP4 ADD SLT ISZERO PUSH2 0x497 JUMPI DUP2 PUSH1 0x4 ADD CALLDATALOAD SWAP4 DUP5 GT PUSH2 0x497 JUMPI PUSH1 0x24 DUP5 PUSH1 0x5 SHL DUP4 ADD ADD GT PUSH2 0x497 JUMPI PUSH1 0x24 ADD SWAP2 SWAP1 JUMP JUMPDEST SWAP1 DUP2 MLOAD DUP1 DUP3 MSTORE PUSH1 0x20 DUP1 DUP1 SWAP4 ADD SWAP4 ADD SWAP2 PUSH1 0x0 JUMPDEST DUP3 DUP2 LT PUSH2 0x24AC JUMPI POP POP POP POP SWAP1 JUMP JUMPDEST DUP4 MLOAD PUSH1 0x1 PUSH1 0x1 PUSH1 0xA0 SHL SUB AND DUP6 MSTORE SWAP4 DUP2 ADD SWAP4 SWAP3 DUP2 ADD SWAP3 PUSH1 0x1 ADD PUSH2 0x249E JUMP JUMPDEST PUSH1 0x0 SLOAD PUSH1 0x1 PUSH1 0x1 PUSH1 0xA0 SHL SUB AND CALLER SUB PUSH2 0x24DD JUMPI JUMP JUMPDEST PUSH1 0x64 PUSH1 0x40 MLOAD PUSH3 0x461BCD PUSH1 0xE5 SHL DUP2 MSTORE PUSH1 0x20 PUSH1 0x4 DUP3 ADD MSTORE PUSH1 0x20 PUSH1 0x24 DUP3 ADD MSTORE PUSH32 0x4F776E61626C653A2063616C6C6572206973206E6F7420746865206F776E6572 PUSH1 0x44 DUP3 ADD MSTORE REVERT JUMPDEST SWAP2 SWAP1 DUP3 ADD DUP1 SWAP3 GT PUSH2 0x252E JUMPI JUMP JUMPDEST PUSH4 0x4E487B71 PUSH1 0xE0 SHL PUSH1 0x0 MSTORE PUSH1 0x11 PUSH1 0x4 MSTORE PUSH1 0x24 PUSH1 0x0 REVERT JUMPDEST SWAP1 DUP2 PUSH1 0x20 SWAP2 SUB SLT PUSH2 0x497 JUMPI MLOAD DUP1 ISZERO ISZERO DUP2 SUB PUSH2 0x497 JUMPI SWAP1 JUMP JUMPDEST PUSH1 0x0 NOT DUP2 EQ PUSH2 0x252E JUMPI PUSH1 0x1 ADD SWAP1 JUMP JUMPDEST DUP2 DUP2 MUL SWAP3 SWAP2 DUP2 ISZERO SWAP2 DUP5 DIV EQ OR ISZERO PUSH2 0x252E JUMPI JUMP JUMPDEST SWAP1 DUP2 PUSH1 0x20 SWAP2 SUB SLT PUSH2 0x497 JUMPI MLOAD PUSH1 0xFF DUP2 AND DUP2 SUB PUSH2 0x497 JUMPI SWAP1 JUMP JUMPDEST PUSH1 0xFF AND PUSH1 0x4D DUP2 GT PUSH2 0x252E JUMPI PUSH1 0xA EXP SWAP1 JUMP JUMPDEST PUSH1 0x40 SWAP2 SWAP5 SWAP4 SWAP3 PUSH1 0x60 DUP3 ADD SWAP6 PUSH1 0x1 DUP1 PUSH1 0xA0 SHL SUB AND DUP3 MSTORE PUSH1 0x20 DUP3 ADD MSTORE ADD MSTORE JUMP JUMPDEST SWAP1 DUP2 MSTORE PUSH1 0x1 PUSH1 0x1 PUSH1 0xA0 SHL SUB SWAP1 SWAP2 AND PUSH1 0x20 DUP3 ADD MSTORE PUSH1 0x40 ADD SWAP1 JUMP JUMPDEST PUSH1 0x2 PUSH1 0x1 SLOAD EQ PUSH2 0x25F0 JUMPI PUSH1 0x2 PUSH1 0x1 SSTORE JUMP JUMPDEST PUSH1 0x40 MLOAD PUSH3 0x461BCD PUSH1 0xE5 SHL DUP2 MSTORE PUSH1 0x20 PUSH1 0x4 DUP3 ADD MSTORE PUSH1 0x1F PUSH1 0x24 DUP3 ADD MSTORE PUSH32 0x5265656E7472616E637947756172643A207265656E7472616E742063616C6C00 PUSH1 0x44 DUP3 ADD MSTORE PUSH1 0x64 SWAP1 REVERT JUMPDEST SWAP2 SWAP1 DUP3 SUB SWAP2 DUP3 GT PUSH2 0x252E JUMPI JUMP JUMPDEST PUSH1 0x1 PUSH1 0x1 PUSH1 0xA0 SHL SUB SWAP1 SWAP2 AND DUP2 MSTORE PUSH1 0x20 DUP2 ADD SWAP2 SWAP1 SWAP2 MSTORE PUSH1 0x40 ADD SWAP1 JUMP JUMPDEST ISZERO PUSH2 0x2664 JUMPI JUMP JUMPDEST PUSH1 0x40 MLOAD PUSH3 0x461BCD PUSH1 0xE5 SHL DUP2 MSTORE PUSH1 0x20 PUSH1 0x4 DUP3 ADD MSTORE PUSH1 0x1D PUSH1 0x24 DUP3 ADD MSTORE PUSH32 0x4C61756E63687061643A2043616C6C6572206E6F7420616C6C6F776564000000 PUSH1 0x44 DUP3 ADD MSTORE PUSH1 0x64 SWAP1 REVERT JUMPDEST PUSH1 0x1 PUSH1 0x1 PUSH1 0x40 SHL SUB DUP2 GT PUSH2 0x2349 JUMPI PUSH1 0x5 SHL PUSH1 0x20 ADD SWAP1 JUMP JUMPDEST SWAP1 PUSH2 0x26CA DUP3 PUSH2 0x26A9 JUMP JUMPDEST PUSH2 0x26D7 PUSH1 0x40 MLOAD SWAP2 DUP3 PUSH2 0x237A JUMP JUMPDEST DUP3 DUP2 MSTORE DUP1 SWAP3 PUSH2 0x26E8 PUSH1 0x1F NOT SWAP2 PUSH2 0x26A9 JUMP JUMPDEST ADD SWAP1 PUSH1 0x20 CALLDATASIZE SWAP2 ADD CALLDATACOPY JUMP JUMPDEST SWAP2 SWAP1 DUP2 LT ISZERO PUSH2 0x2702 JUMPI PUSH1 0x5 SHL ADD SWAP1 JUMP JUMPDEST PUSH4 0x4E487B71 PUSH1 0xE0 SHL PUSH1 0x0 MSTORE PUSH1 0x32 PUSH1 0x4 MSTORE PUSH1 0x24 PUSH1 0x0 REVERT JUMPDEST CALLDATALOAD PUSH1 0x1 PUSH1 0x1 PUSH1 0xA0 SHL SUB DUP2 AND DUP2 SUB PUSH2 0x497 JUMPI SWAP1 JUMP JUMPDEST DUP1 MLOAD DUP3 LT ISZERO PUSH2 0x2702 JUMPI PUSH1 0x20 SWAP2 PUSH1 0x5 SHL ADD ADD SWAP1 JUMP JUMPDEST PUSH1 0x4 PUSH2 0x2751 PUSH1 0x3 SLOAD PUSH1 0x9 SLOAD SWAP1 PUSH2 0x256B JUMP JUMPDEST PUSH1 0xD SLOAD PUSH1 0x40 MLOAD PUSH4 0x313CE567 PUSH1 0xE0 SHL DUP2 MSTORE SWAP3 PUSH1 0x20 SWAP2 DUP5 SWAP2 SWAP1 DUP3 SWAP1 PUSH1 0x1 PUSH1 0x1 PUSH1 0xA0 SHL SUB AND GAS STATICCALL SWAP1 DUP2 ISZERO PUSH2 0x27B6 JUMPI PUSH2 0x17A1 PUSH2 0x279A SWAP3 PUSH8 0xDE0B6B3A7640000 SWAP5 PUSH1 0x0 SWAP2 PUSH2 0x279E JUMPI POP PUSH2 0x2597 JUMP JUMPDEST DIV SWAP1 JUMP JUMPDEST PUSH2 0x1C2F SWAP2 POP PUSH1 0x20 RETURNDATASIZE DUP2 GT PUSH2 0x1C35 JUMPI PUSH2 0x1C27 DUP2 DUP4 PUSH2 0x237A JUMP JUMPDEST PUSH1 0x40 MLOAD RETURNDATASIZE PUSH1 0x0 DUP3 RETURNDATACOPY RETURNDATASIZE SWAP1 REVERT JUMPDEST ISZERO PUSH2 0x27C9 JUMPI JUMP JUMPDEST PUSH1 0x40 MLOAD PUSH3 0x461BCD PUSH1 0xE5 SHL DUP2 MSTORE PUSH1 0x20 PUSH1 0x4 DUP3 ADD MSTORE PUSH1 0x30 PUSH1 0x24 DUP3 ADD MSTORE PUSH32 0x4C61756E63687061643A2053616C6520697320616C72656164792066696E6973 PUSH1 0x44 DUP3 ADD MSTORE PUSH16 0x1A1959081BDC8818D85B98D95B1B1959 PUSH1 0x82 SHL PUSH1 0x64 DUP3 ADD MSTORE PUSH1 0x84 SWAP1 REVERT JUMPDEST PUSH1 0x6 SLOAD TIMESTAMP GT ISZERO PUSH2 0x291C JUMPI PUSH2 0x283D PUSH1 0x17 SLOAD ISZERO PUSH2 0x27C2 JUMP JUMPDEST PUSH1 0xFF PUSH1 0x18 SLOAD PUSH1 0xA0 SHR AND PUSH1 0x2 DUP2 LT ISZERO PUSH2 0x2906 JUMPI PUSH2 0x28B5 JUMPI PUSH1 0x13 SLOAD PUSH1 0x2 SLOAD GT PUSH2 0x2860 JUMPI JUMP JUMPDEST PUSH1 0x40 MLOAD PUSH3 0x461BCD PUSH1 0xE5 SHL DUP2 MSTORE PUSH1 0x20 PUSH1 0x4 DUP3 ADD MSTORE PUSH1 0x27 PUSH1 0x24 DUP3 ADD MSTORE PUSH32 0x4C61756E6368706164284E6F726D616C293A20536F667420636170206E6F7420 PUSH1 0x44 DUP3 ADD MSTORE PUSH7 0x1C995858DA1959 PUSH1 0xCA SHL PUSH1 0x64 DUP3 ADD MSTORE PUSH1 0x84 SWAP1 REVERT JUMPDEST PUSH1 0x13 SLOAD PUSH1 0x3 SLOAD GT PUSH2 0x28C2 JUMPI JUMP JUMPDEST PUSH1 0x64 PUSH1 0x40 MLOAD PUSH3 0x461BCD PUSH1 0xE5 SHL DUP2 MSTORE PUSH1 0x20 PUSH1 0x4 DUP3 ADD MSTORE PUSH1 0x20 PUSH1 0x24 DUP3 ADD MSTORE PUSH32 0x4C61756E63687061642846616972293A20436170206E6F742072656163686564 PUSH1 0x44 DUP3 ADD MSTORE REVERT JUMPDEST PUSH4 0x4E487B71 PUSH1 0xE0 SHL PUSH1 0x0 MSTORE PUSH1 0x21 PUSH1 0x4 MSTORE PUSH1 0x24 PUSH1 0x0 REVERT JUMPDEST PUSH1 0x40 MLOAD PUSH3 0x461BCD PUSH1 0xE5 SHL DUP2 MSTORE PUSH1 0x20 PUSH1 0x4 DUP3 ADD MSTORE PUSH1 0x35 PUSH1 0x24 DUP3 ADD MSTORE PUSH32 0x4C61756E63687061643A2046696E697368696E67206C61756E63687061642064 PUSH1 0x44 DUP3 ADD MSTORE PUSH21 0x6F6573206E6F7420617661696C61626C65206E6F77 PUSH1 0x58 SHL PUSH1 0x64 DUP3 ADD MSTORE PUSH1 0x84 SWAP1 REVERT JUMPDEST PUSH2 0x298B PUSH1 0x17 SLOAD ISZERO PUSH2 0x27C2 JUMP JUMPDEST PUSH1 0xFF PUSH1 0x18 SLOAD PUSH1 0xA0 SHR AND PUSH1 0x2 DUP2 LT ISZERO PUSH2 0x2906 JUMPI PUSH2 0x2A00 JUMPI PUSH1 0x13 SLOAD PUSH1 0x2 SLOAD GT ISZERO PUSH2 0x29AF JUMPI JUMP JUMPDEST PUSH1 0x40 MLOAD PUSH3 0x461BCD PUSH1 0xE5 SHL DUP2 MSTORE PUSH1 0x20 PUSH1 0x4 DUP3 ADD MSTORE PUSH1 0x23 PUSH1 0x24 DUP3 ADD MSTORE PUSH32 0x4C61756E6368706164284E6F726D616C293A20536F6674206361702072656163 PUSH1 0x44 DUP3 ADD MSTORE PUSH3 0x1A1959 PUSH1 0xEA SHL PUSH1 0x64 DUP3 ADD MSTORE PUSH1 0x84 SWAP1 REVERT JUMPDEST PUSH1 0x13 SLOAD PUSH1 0x3 SLOAD GT ISZERO PUSH2 0x2A0E JUMPI JUMP JUMPDEST PUSH1 0x40 MLOAD PUSH3 0x461BCD PUSH1 0xE5 SHL DUP2 MSTORE PUSH1 0x20 PUSH1 0x4 DUP3 ADD MSTORE PUSH1 0x1C PUSH1 0x24 DUP3 ADD MSTORE PUSH28 0x13185D5B98DA1C18590A11985A5C8A4E8810D85C081C995858DA1959 PUSH1 0x22 SHL PUSH1 0x44 DUP3 ADD MSTORE PUSH1 0x64 SWAP1 REVERT INVALID 0xDF PUSH10 0x66C971051C3D54EC5916 0x26 MOD MSTORE8 EQ SWAP4 0xA5 EQ DIV LOG0 MUL DUP5 0x2F JUMP STOP SWAP14 PUSH31 0x5CF4A8C7EDB8F34A75DC967013BAC8C91F25135D59BC85673D66FC55A7DBD7 0xED EXTCODEHASH DUP11 0x1F PUSH10 0x8BE0079C531659141344 0xCD 0x1F 0xD0 LOG4 CALLCODE DUP5 NOT 0x49 PUSH32 0x9722A3DAAFE3B4186F6B6457E0A2646970667358221220C8EA3F2A6A758A42FC LOG1 CALLDATASIZE CREATE2 PUSH10 0x5CE13F2B4AF1DB6534F4 STATICCALL BLOCKHASH PUSH12 0xEA3D61A5519D64736F6C6343 STOP ADDMOD GT STOP CALLER DUP12 0xE0 SMOD SWAP13 MSTORE8 AND MSIZE EQ SGT DIFFICULTY 0xCD 0x1F 0xD0 LOG4 CALLCODE DUP5 NOT 0x49 PUSH32 0x9722A3DAAFE3B4186F6B6457E0A2646970667358221220D975910CD27F423AD0 0xCA 0xA5 SWAP7 CALLDATASIZE 0x2F PUSH20 0x8D3C22EF7C02A53E6422DA71DF4C53A52164736F PUSH13 0x63430008110033000000000000 "},"methodIdentifiers":{"addToUserLaunchpad(address,address,uint8)":"a8f5ab01","changeActionChanged(address,bool,uint256)":"d7c7418f","changeLaunchpadState(address,uint256)":"07fcebce","changeWhitelistUsers(address,address[],uint256)":"673c8e31","createLaunchpad(uint256[2],uint256[3],uint256[2],uint256[2],uint256[2],address[2],string,bool,uint8,string)":"0b9d5ff5","deployCost()":"7788a7ee","getAllLaunchpads()":"7c0bb6b7","getDeployedLaunchpads(uint256,uint256,uint8)":"c1282e11","getUserContributions(address,uint8)":"070e6e7e","launchpadById(uint8,uint256)":"783997c2","launchpadByToken(address)":"f007735c","launchpadCount(uint8)":"8e7780dc","launchpadIdByAddress(uint8,address)":"7240e0e5","launchpadRaisedAmountChangedReport(address,uint256,uint256)":"af299fda","owner()":"8da5cb5b","renounceOwnership()":"715018a6","setDeployPrice(uint256)":"86cb9e0c","transferOwnership(address)":"f2fde38b","userLaunchpadCreated(uint8,address,uint256)":"00682bcc","userLaunchpadInvested(uint8,address,uint256)":"e1fa6825"}}}}}