{
	"data": {
		"bytecode": {
			"linkReferences": {},
			"object": "6080604052662386f26fc1000060025534801561001b57600080fd5b5061002c610027610031565b610035565b610085565b3390565b600080546001600160a01b038381166001600160a01b0319831681178455604051919092169283917f8be0079c531659141344cd1fd0a4f28419497f9722a3daafe3b4186f6b6457e09190a35050565b614098806100946000396000f3fe608060405260043610620001165760003560e01c8063b12821eb11620000a3578063cbcab787116200006d578063cbcab78714620002db578063e36465a314620002f3578063e5eb1bcf1462000328578063f007735c146200033f578063f2fde38b14620003645762000116565b8063b12821eb1462000247578063bda40d5c146200026c578063bf21695f1462000291578063c3f296a314620002b65762000116565b80637788a7ee11620000e55780637788a7ee14620001cb5780637c0bb6b714620001f257806386cb9e0c146200020a5780638da5cb5b146200022f5762000116565b80632e1114ec146200011b5780635b19e73214620001585780636f19bd1d146200018c578063715018a614620001b3575b600080fd5b3480156200012857600080fd5b50620001406200013a36600462001267565b62000389565b6040516200014f91906200134d565b60405180910390f35b3480156200016557600080fd5b506200017d62000177366004620010af565b620004c1565b6040516200014f9190620012fb565b3480156200019957600080fd5b50620001b1620001ab36600462001078565b620004fa565b005b348015620001c057600080fd5b50620001b162000576565b348015620001d857600080fd5b50620001e36200058e565b6040516200014f91906200162f565b348015620001ff57600080fd5b506200014062000594565b3480156200021757600080fd5b50620001b16200022936600462001235565b6200066e565b3480156200023c57600080fd5b506200017d6200067d565b3480156200025457600080fd5b506200017d62000266366004620010af565b6200068c565b3480156200027957600080fd5b506200017d6200028b36600462001235565b620006a9565b3480156200029e57600080fd5b50620001b1620002b036600462001078565b620006c4565b348015620002c357600080fd5b50620001e3620002d536600462001054565b62000788565b348015620002e857600080fd5b50620001e36200079a565b3480156200030057600080fd5b50620003186200031236600462001054565b620007a0565b6040516200014f9291906200139c565b620001b162000339366004620010db565b620009cf565b3480156200034c57600080fd5b506200017d6200035e36600462001054565b62000e29565b3480156200037157600080fd5b50620001b16200038336600462001054565b62000e44565b60606001548210620003a85760018054620003a59190620016c3565b91505b6000620003b68484620016c3565b620003c390600162001665565b90506000808267ffffffffffffffff811115620003f057634e487b7160e01b600052604160045260246000fd5b6040519080825280602002602001820160405280156200041a578160200160208202803683370190505b509050855b858111620004b7576003600062000437838a62001665565b815260200190815260200160002060009054906101000a90046001600160a01b03168284815181106200047a57634e487b7160e01b600052603260045260246000fd5b6001600160a01b0390921660209283029190910190910152826200049e81620016dd565b9350508080620004ae90620016dd565b9150506200041f565b5095945050505050565b60086020528160005260406000208181548110620004de57600080fd5b6000918252602090912001546001600160a01b03169150829050565b3360009081526005602052604090205460ff16620005355760405162461bcd60e51b81526004016200052c9062001555565b60405180910390fd5b6001600160a01b03918216600090815260066020908152604080832080546001600160a01b031916905592909316815260059092529020805460ff19169055565b6200058062000e85565b6200058c600062000ecb565b565b60025481565b6060600060015467ffffffffffffffff811115620005c257634e487b7160e01b600052604160045260246000fd5b604051908082528060200260200182016040528015620005ec578160200160208202803683370190505b50905060005b600154811015620006685760008181526003602052604090205482516001600160a01b03909116908390839081106200063b57634e487b7160e01b600052603260045260246000fd5b6001600160a01b0390921660209283029190910190910152806200065f81620016dd565b915050620005f2565b50905090565b6200067862000e85565b600255565b6000546001600160a01b031690565b60076020528160005260406000208181548110620004de57600080fd5b6003602052600090815260409020546001600160a01b031681565b3360009081526005602052604090205460ff16620006f65760405162461bcd60e51b81526004016200052c90620015f8565b6001600160a01b0380831660009081526009602090815260408083209385168352929052205460ff1662000784576001600160a01b0382811660008181526007602090815260408083208054600180820183559185528385200180546001600160a01b03191696881696871790559383526009825280832094835293905291909120805460ff191690911790555b5050565b60046020526000908152604090205481565b60015481565b6001600160a01b03811660009081526007602052604090205460609081908067ffffffffffffffff811115620007e657634e487b7160e01b600052604160045260246000fd5b60405190808252806020026020018201604052801562000810578160200160208202803683370190505b5092508067ffffffffffffffff8111156200083b57634e487b7160e01b600052604160045260246000fd5b60405190808252806020026020018201604052801562000865578160200160208202803683370190505b50915060005b81811015620009c8576001600160a01b0385166000908152600760205260408120805483908110620008ad57634e487b7160e01b600052603260045260246000fd5b60009182526020808320909101546001600160a01b03168083526004909152604090912054865191925090869084908110620008f957634e487b7160e01b600052603260045260246000fd5b6020908102919091010152604051634a4643f760e01b81526001600160a01b03821690634a4643f79062000932908990600401620012fb565b60206040518083038186803b1580156200094b57600080fd5b505afa15801562000960573d6000803e3d6000fd5b505050506040513d601f19601f820116820180604052508101906200098691906200124e565b848381518110620009a757634e487b7160e01b600052603260045260246000fd5b60209081029190910101525080620009bf81620016dd565b9150506200086b565b5050915091565b600254341015620009f45760405162461bcd60e51b81526004016200052c90620015c1565b6001600160a01b03838116600090815260066020526040902054161562000a2f5760405162461bcd60e51b81526004016200052c906200151e565b6000898989898989898962000a436200067d565b8a60405162000a529062000f1f565b62000a679a99989796959493929190620013ce565b604051809103906000f08015801562000a84573d6000803e3d6000fd5b5060405163f2fde38b60e01b81529091506001600160a01b0382169063f2fde38b9062000ab6903390600401620012fb565b600060405180830381600087803b15801562000ad157600080fd5b505af115801562000ae6573d6000803e3d6000fd5b5050505060008860008151811062000b0e57634e487b7160e01b600052603260045260246000fd5b6020026020010151905060008b60018151811062000b3c57634e487b7160e01b600052603260045260246000fd5b602002602001015190506000670de0b6b3a7640000876001600160a01b031663313ce5676040518163ffffffff1660e01b815260040160206040518083038186803b15801562000b8b57600080fd5b505afa15801562000ba0573d6000803e3d6000fd5b505050506040513d601f19601f8201168201806040525081019062000bc6919062001289565b60ff1662000bd58486620016a1565b62000be19190620016a1565b62000bed919062001680565b905060008960018151811062000c1357634e487b7160e01b600052603260045260246000fd5b60200260200101519050600081111562000c515761271062000c368284620016a1565b62000c42919062001680565b62000c4e908362001665565b91505b6040516323b872dd60e01b81526001600160a01b038916906323b872dd9062000c839033908990879060040162001329565b602060405180830381600087803b15801562000c9e57600080fd5b505af115801562000cb3573d6000803e3d6000fd5b505050506040513d601f19601f8201168201806040525081019062000cd9919062001216565b5062000ce46200067d565b6001600160a01b03166108fc349081150290604051600060405180830381858888f1935050505015801562000d1d573d6000803e3d6000fd5b5060018054600090815260036020908152604080832080546001600160a01b0319166001600160a01b038b16908117909155845490845260049092528220819055919062000d6b83620016dd565b90915550506001600160a01b0380881660009081526006602090815260408083208054948a166001600160a01b0319958616811790915580845260058352818420805460ff191660019081179091553380865260088552838620805492830181558652939094209093018054909416909217909255517ff0b286ea8e415aa6c494031bdb9b350083555233b508f5d265056ead4f264de99162000e11918891906200130f565b60405180910390a15050505050505050505050505050565b6006602052600090815260409020546001600160a01b031681565b62000e4e62000e85565b6001600160a01b03811662000e775760405162461bcd60e51b81526004016200052c90620014d8565b62000e828162000ecb565b50565b62000e8f62000f1b565b6001600160a01b031662000ea26200067d565b6001600160a01b0316146200058c5760405162461bcd60e51b81526004016200052c906200158c565b600080546001600160a01b038381166001600160a01b0319831681178455604051919092169283917f8be0079c531659141344cd1fd0a4f28419497f9722a3daafe3b4186f6b6457e09190a35050565b3390565b61292c806200173783390190565b80356001600160a01b038116811462000f4557600080fd5b919050565b600082601f83011262000f5b578081fd5b8135602067ffffffffffffffff82111562000f7a5762000f7a62001711565b80820262000f8a82820162001638565b83815282810190868401838801850189101562000fa5578687fd5b8693505b8584101562000fc957803583526001939093019291840191840162000fa9565b50979650505050505050565b803562000f458162001727565b600082601f83011262000ff3578081fd5b813567ffffffffffffffff81111562001010576200101062001711565b62001025601f8201601f191660200162001638565b8181528460208386010111156200103a578283fd5b816020850160208301379081016020019190915292915050565b60006020828403121562001066578081fd5b620010718262000f2d565b9392505050565b600080604083850312156200108b578081fd5b620010968362000f2d565b9150620010a66020840162000f2d565b90509250929050565b60008060408385031215620010c2578182fd5b620010cd8362000f2d565b946020939093013593505050565b60008060008060008060008060006101208a8c031215620010fa578485fd5b893567ffffffffffffffff8082111562001112578687fd5b620011208d838e0162000f4a565b9a5060208c013591508082111562001136578687fd5b620011448d838e0162000f4a565b995060408c01359150808211156200115a578687fd5b620011688d838e0162000f4a565b985060608c01359150808211156200117e578687fd5b6200118c8d838e0162000f4a565b975060808c0135915080821115620011a2578687fd5b620011b08d838e0162000f4a565b965060a08c0135915080821115620011c6578586fd5b50620011d58c828d0162000fe2565b945050620011e660c08b0162000f2d565b9250620011f660e08b0162000f2d565b9150620012076101008b0162000fd5565b90509295985092959850929598565b60006020828403121562001228578081fd5b8151620010718162001727565b60006020828403121562001247578081fd5b5035919050565b60006020828403121562001260578081fd5b5051919050565b600080604083850312156200127a578182fd5b50508035926020909101359150565b6000602082840312156200129b578081fd5b815160ff8116811462001071578182fd5b6001600160a01b03169052565b6000815180845260208085019450808401835b83811015620012ea57815187529582019590820190600101620012cc565b509495945050505050565b15159052565b6001600160a01b0391909116815260200190565b6001600160a01b0392831681529116602082015260400190565b6001600160a01b039384168152919092166020820152604081019190915260600190565b6020808252825182820181905260009190848201906040850190845b81811015620013905783516001600160a01b03168352928401929184019160010162001369565b50909695505050505050565b600060408252620013b16040830185620012b9565b8281036020840152620013c58185620012b9565b95945050505050565b6000610140808352620013e48184018e620012b9565b9050602083820381850152620013fb828e620012b9565b9150838203604085015262001411828d620012b9565b9150838203606085015262001427828c620012b9565b915083820360808501526200143d828b620012b9565b915083820360a08501528851808352835b818110156200146b578a810183015184820184015282016200144e565b818111156200147c57848383860101525b50601f01601f1916919091010190506200149a60c0830187620012ac565b620014a960e0830186620012ac565b620014b9610100830185620012ac565b620014c9610120830184620012f5565b9b9a5050505050505050505050565b60208082526026908201527f4f776e61626c653a206e6577206f776e657220697320746865207a65726f206160408201526564647265737360d01b606082015260800190565b60208082526019908201527f4c61756e636870616420616c7265616479206372656174656400000000000000604082015260600190565b6020808252601a908201527f4f6e6c79206c61756e6368706164732063616e2072656d6f7665000000000000604082015260600190565b6020808252818101527f4f776e61626c653a2063616c6c6572206973206e6f7420746865206f776e6572604082015260600190565b60208082526018908201527f4e6f7420656e6f75676820424e4220746f206465706c6f790000000000000000604082015260600190565b60208082526017908201527f4f6e6c79206c61756e6368706164732063616e20616464000000000000000000604082015260600190565b90815260200190565b60405181810167ffffffffffffffff811182821017156200165d576200165d62001711565b604052919050565b600082198211156200167b576200167b620016fb565b500190565b6000826200169c57634e487b7160e01b81526012600452602481fd5b500490565b6000816000190483118215151615620016be57620016be620016fb565b500290565b600082821015620016d857620016d8620016fb565b500390565b6000600019821415620016f457620016f4620016fb565b5060010190565b634e487b7160e01b600052601160045260246000fd5b634e487b7160e01b600052604160045260246000fd5b801515811462000e8257600080fdfe6080604052600f805462ff00001916620100001790553480156200002257600080fd5b506040516200292c3803806200292c833981016040819052620000459162000516565b6200005962000053620002d3565b620002d7565b6000805460ff60a01b191681558a518b91906200008657634e487b7160e01b600052603260045260246000fd5b602002602001015160018190555089600181518110620000b657634e487b7160e01b600052603260045260246000fd5b602002602001015160028190555088600081518110620000e657634e487b7160e01b600052603260045260246000fd5b6020026020010151600381905550886001815181106200011657634e487b7160e01b600052603260045260246000fd5b602090810291909101810151600455855162000139916009919088019062000327565b50856000815181106200015c57634e487b7160e01b600052603260045260246000fd5b6020026020010151600d81905550856001815181106200018c57634e487b7160e01b600052603260045260246000fd5b6020908102919091010151600e55600b80546001600160a01b038086166001600160a01b031992831617909255600a8054878416908316179055600c80549285169290911691909117905587518890600090620001f957634e487b7160e01b600052603260045260246000fd5b6020026020010151600681905550876001815181106200022957634e487b7160e01b600052603260045260246000fd5b6020026020010151600581905550866001815181106200025957634e487b7160e01b600052603260045260246000fd5b6020026020010151600781905550866000815181106200028957634e487b7160e01b600052603260045260246000fd5b6020908102919091010151600855600f8054911515620100000262ff0000199092169190911790555050601780546001600160a01b0319163317905550620006e395505050505050565b3390565b600080546001600160a01b038381166001600160a01b0319831681178455604051919092169283917f8be0079c531659141344cd1fd0a4f28419497f9722a3daafe3b4186f6b6457e09190a35050565b828054620003359062000690565b90600052602060002090601f016020900481019282620003595760008555620003a4565b82601f106200037457805160ff1916838001178555620003a4565b82800160010185558215620003a4579182015b82811115620003a457825182559160200191906001019062000387565b50620003b2929150620003b6565b5090565b5b80821115620003b25760008155600101620003b7565b80516001600160a01b0381168114620003e557600080fd5b919050565b600082601f830112620003fb578081fd5b815160206001600160401b03821115620004195762000419620006cd565b8082026200042982820162000664565b83815282810190868401838801850189101562000444578687fd5b8693505b858410156200046857805183526001939093019291840191840162000448565b50979650505050505050565b80518015158114620003e557600080fd5b600082601f83011262000496578081fd5b81516001600160401b03811115620004b257620004b2620006cd565b6020620004c8601f8301601f1916820162000664565b8281528582848701011115620004dc578384fd5b835b83811015620004fb578581018301518282018401528201620004de565b838111156200050c57848385840101525b5095945050505050565b6000806000806000806000806000806101408b8d03121562000536578586fd5b8a516001600160401b03808211156200054d578788fd5b6200055b8e838f01620003ea565b9b5060208d015191508082111562000571578788fd5b6200057f8e838f01620003ea565b9a5060408d015191508082111562000595578788fd5b620005a38e838f01620003ea565b995060608d0151915080821115620005b9578788fd5b620005c78e838f01620003ea565b985060808d0151915080821115620005dd578788fd5b620005eb8e838f01620003ea565b975060a08d015191508082111562000601578687fd5b50620006108d828e0162000485565b9550506200062160c08c01620003cd565b93506200063160e08c01620003cd565b9250620006426101008c01620003cd565b9150620006536101208c0162000474565b90509295989b9194979a5092959850565b6040518181016001600160401b0381118282101715620006885762000688620006cd565b604052919050565b600281046001821680620006a557607f821691505b60208210811415620006c757634e487b7160e01b600052602260045260246000fd5b50919050565b634e487b7160e01b600052604160045260246000fd5b61223980620006f36000396000f3fe6080604052600436106102255760003560e01c80637b7a7ca711610123578063a4f3a7c7116100ab578063e7e104901161006f578063e7e1049014610578578063f12cdaa61461058d578063f2fde38b146105ad578063f851a440146105cd578063fb86a404146105e257610225565b8063a4f3a7c714610501578063b5545a3c14610516578063b59bd5911461052b578063b94203101461054e578063c5c4744c1461056357610225565b80638f86f5ea116100f25780638f86f5ea1461048d578063906a26e0146104a257806390d6b45f146104b75780639cccac37146104cc578063a20ecbbb146104ec57610225565b80637b7a7ca7146104225780637cc1f867146104375780637d882097146104635780638da5cb5b1461047857610225565b806339b012b8116101b15780635c975abb116101755780635c975abb146103b9578063715018a6146103ce57806376320b24146103e3578063782dae0a146103f857806378e979251461040d57610225565b806339b012b81461033857806342706c391461034d57806342f393811461036f5780634a4643f7146103845780635072b084146103a457610225565b806326bfb589116101f857806326bfb589146102b957806329763ed0146102db5780632a0fccd5146102f05780632afcf480146103105780633197cbb61461032357610225565b8063040b65831461022a5780630521b4da1461024c5780630b9f2c4a14610277578063200d2ed2146102a4575b600080fd5b34801561023657600080fd5b5061024a610245366004611a23565b6105f7565b005b34801561025857600080fd5b50610261610619565b60405161026e91906120d7565b60405180910390f35b34801561028357600080fd5b50610297610292366004611afc565b61061f565b60405161026e9190611bbb565b3480156102b057600080fd5b5061026161063a565b3480156102c557600080fd5b506102ce610640565b60405161026e9190611d37565b3480156102e757600080fd5b5061026161064f565b3480156102fc57600080fd5b5061024a61030b366004611a5b565b610655565b61024a61031e366004611afc565b61069f565b34801561032f57600080fd5b50610261610a67565b34801561034457600080fd5b50610261610a6d565b34801561035957600080fd5b50610362610a73565b60405161026e9190611d42565b34801561037b57600080fd5b50610261610b01565b34801561039057600080fd5b5061026161039f3660046119f5565b610b07565b3480156103b057600080fd5b5061024a610b19565b3480156103c557600080fd5b506102ce610c32565b3480156103da57600080fd5b5061024a610c42565b3480156103ef57600080fd5b50610261610c56565b34801561040457600080fd5b50610261610c5c565b34801561041957600080fd5b50610261610c62565b34801561042e57600080fd5b506102ce610c68565b34801561044357600080fd5b5061044c610c76565b60405161026e9b9a99989796959493929190611ca9565b34801561046f57600080fd5b50610261610e08565b34801561048457600080fd5b50610297610e0e565b34801561049957600080fd5b5061024a610e1d565b3480156104ae57600080fd5b50610261610f19565b3480156104c357600080fd5b506102ce610f1f565b3480156104d857600080fd5b506102616104e73660046119f5565b610f28565b3480156104f857600080fd5b50610261610f3a565b34801561050d57600080fd5b50610297610f40565b34801561052257600080fd5b5061024a610f4f565b34801561053757600080fd5b506105406110a8565b60405161026e929190611c26565b34801561055a57600080fd5b5061029761122a565b34801561056f57600080fd5b50610261611239565b34801561058457600080fd5b5061024a61123f565b34801561059957600080fd5b5061024a6105a8366004611a23565b611344565b3480156105b957600080fd5b5061024a6105c83660046119f5565b611381565b3480156105d957600080fd5b506102976113bb565b3480156105ee57600080fd5b506102616113ca565b6105ff6113d0565b600f80549115156101000261ff0019909216919091179055565b60125481565b6016602052600090815260409020546001600160a01b031681565b60135481565b600f5462010000900460ff1681565b600e5481565b600c546001600160a01b031633146106885760405162461bcd60e51b815260040161067f90612008565b60405180910390fd5b805161069b90600990602084019061193e565b5050565b601354156106bf5760405162461bcd60e51b815260040161067f90611f5d565b42600354106106e05760405162461bcd60e51b815260040161067f90611e2e565b42600454116107015760405162461bcd60e51b815260040161067f90611e5c565b6002546010546107119083612105565b111561072f5760405162461bcd60e51b815260040161067f906120ae565b600b546001600160a01b03166107635734811461075e5760405162461bcd60e51b815260040161067f90611dc7565b6107eb565b600b546040516323b872dd60e01b81526001600160a01b03909116906323b872dd9061079790339030908690600401611be9565b602060405180830381600087803b1580156107b157600080fd5b505af11580156107c5573d6000803e3d6000fd5b505050506040513d601f19601f820116820180604052508101906107e99190611a3f565b505b336000908152601460205260409020546108345760128054600090815260166020526040812080546001600160a01b031916331790558154919061082e836121ae565b91905055505b3360009081526014602052604081208054839290610853908490612105565b90915550506008543360009081526014602052604090205410156108895760405162461bcd60e51b815260040161067f90611f26565b6007543360009081526014602052604090205411156108ba5760405162461bcd60e51b815260040161067f90612032565b6000670de0b6b3a7640000600a60009054906101000a90046001600160a01b03166001600160a01b031663313ce5676040518163ffffffff1660e01b815260040160206040518083038186803b15801561091357600080fd5b505afa158015610927573d6000803e3d6000fd5b505050506040513d601f19601f8201168201806040525081019061094b9190611b2c565b60ff166006548461095c919061213d565b610966919061213d565b610970919061211d565b905081601060008282546109849190612105565b92505081905550806011600082825461099d9190612105565b909155505033600090815260156020526040812080548392906109c1908490612105565b909155505060175460405163bf21695f60e01b81526001600160a01b039091169063bf21695f906109f89033903090600401611bcf565b600060405180830381600087803b158015610a1257600080fd5b505af1158015610a26573d6000803e3d6000fd5b505050507f04da1776b54ebfe9617caf57a31e9a4b2f316bfd0ee0614d6c61597ae94ba2518233604051610a5b9291906120e0565b60405180910390a15050565b60045481565b600d5481565b60098054610a8090612173565b80601f0160208091040260200160405190810160405280929190818152602001828054610aac90612173565b8015610af95780601f10610ace57610100808354040283529160200191610af9565b820191906000526020600020905b815481529060010190602001808311610adc57829003601f168201915b505050505081565b60065481565b60146020526000908152604090205481565b6004544211610b3a5760405162461bcd60e51b815260040161067f90611df7565b60135415610b5a5760405162461bcd60e51b815260040161067f90612069565b336000818152601560205260408082208054929055600a5490516323b872dd60e01b815291926001600160a01b03909116916323b872dd91610ba3913091908690600401611be9565b602060405180830381600087803b158015610bbd57600080fd5b505af1158015610bd1573d6000803e3d6000fd5b505050506040513d601f19601f82011682018060405250810190610bf59190611a3f565b507f3beb98421d990a16ca9090d8d7c25aaeeff9d855a287ac0854e6bee846ba990d8133604051610c279291906120e0565b60405180910390a150565b600054600160a01b900460ff1690565b610c4a6113d0565b610c54600061140f565b565b60075481565b60085481565b60035481565b600f54610100900460ff1681565b610c7e6119c2565b610c866119c2565b610c8e6119c2565b610c966119c2565b6060600080600080600080604051806040016040528060015481526020016002548152506040518060400160405280600354815260200160045481525060405180604001604052806006548152602001600554815250604051806040016040528060085481526020016007548152506009600a60009054906101000a90046001600160a01b0316600b60009054906101000a90046001600160a01b0316600f60009054906101000a900460ff16600f60019054906101000a900460ff16601054601354868054610d6590612173565b80601f0160208091040260200160405190810160405280929190818152602001828054610d9190612173565b8015610dde5780601f10610db357610100808354040283529160200191610dde565b820191906000526020600020905b815481529060010190602001808311610dc157829003601f168201915b505050505096509a509a509a509a509a509a509a509a509a509a509a50909192939495969798999a565b60105481565b6000546001600160a01b031690565b610e25610e0e565b6001600160a01b0316336001600160a01b03161480610e4e5750600c546001600160a01b031633145b610e6a5760405162461bcd60e51b815260040161067f90611d55565b6004544211610e8b5760405162461bcd60e51b815260040161067f90611fbe565b60135415610eab5760405162461bcd60e51b815260040161067f90612069565b6001546010541015610ecf5760405162461bcd60e51b815260040161067f90611ec1565b6001601355610edc61145f565b7f99e95c9a161a7c99d3dc664b3058a5482967afe83ae408003ebd3223d68c296442601054604051610f0f9291906120f7565b60405180910390a1565b60015481565b600f5460ff1681565b60156020526000908152604090205481565b60055481565b600b546001600160a01b031681565b601354600214610f715760405162461bcd60e51b815260040161067f90611f87565b3360009081526014602052604090205480610f9e5760405162461bcd60e51b815260040161067f90611eef565b33600090815260146020526040812055600b546001600160a01b0316610ff157604051339082156108fc029083906000818181858888f19350505050158015610feb573d6000803e3d6000fd5b50611077565b600b5460405163a9059cbb60e01b81526001600160a01b039091169063a9059cbb906110239033908590600401611c0d565b602060405180830381600087803b15801561103d57600080fd5b505af1158015611051573d6000803e3d6000fd5b505050506040513d601f19601f820116820180604052508101906110759190611a3f565b505b7fedb8f34a75dc967013bac8c91f25135d59bc85673d66fc55a7dbd7ed3f8a1f698133604051610c279291906120e0565b60608060125467ffffffffffffffff8111156110d457634e487b7160e01b600052604160045260246000fd5b6040519080825280602002602001820160405280156110fd578160200160208202803683370190505b50915060125467ffffffffffffffff81111561112957634e487b7160e01b600052604160045260246000fd5b604051908082528060200260200182016040528015611152578160200160208202803683370190505b50905060005b6012548110156112255760008181526016602052604090205483516001600160a01b039091169081908590849081106111a157634e487b7160e01b600052603260045260246000fd5b60200260200101906001600160a01b031690816001600160a01b03168152505060146000826001600160a01b03166001600160a01b031681526020019081526020016000205483838151811061120757634e487b7160e01b600052603260045260246000fd5b6020908102919091010152508061121d816121ae565b915050611158565b509091565b600a546001600160a01b031681565b60115481565b611247610e0e565b6001600160a01b0316336001600160a01b031614806112705750600c546001600160a01b031633145b61128c5760405162461bcd60e51b815260040161067f90611d55565b601354156112ac5760405162461bcd60e51b815260040161067f90612069565b600260135560175460405163c4b07d8560e01b81526001600160a01b039091169063c4b07d85906112e1903090600401611bbb565b600060405180830381600087803b1580156112fb57600080fd5b505af115801561130f573d6000803e3d6000fd5b505050507f7d789068b0deed1c53f4572064780ab55e54305e6df362874c45ad39c4c3766e4233604051610f0f9291906120e0565b600c546001600160a01b0316331461136e5760405162461bcd60e51b815260040161067f90612008565b600f805460ff1916911515919091179055565b6113896113d0565b6001600160a01b0381166113af5760405162461bcd60e51b815260040161067f90611d81565b6113b88161140f565b50565b600c546001600160a01b031681565b60025481565b6113d861193a565b6001600160a01b03166113e9610e0e565b6001600160a01b031614610c545760405162461bcd60e51b815260040161067f90611e8c565b600080546001600160a01b038381166001600160a01b0319831681178455604051919092169283917f8be0079c531659141344cd1fd0a4f28419497f9722a3daafe3b4186f6b6457e09190a35050565b600080600080600e54111561148e57612710600e54601054611481919061213d565b61148b919061211d565b91505b600d54156114b657612710600d546011546114a9919061213d565b6114b3919061211d565b90505b600b546001600160a01b031661154057600c546040514794506001600160a01b039091169083156108fc029084906000818181858888f19350505050158015611503573d6000803e3d6000fd5b50336108fc611512848661215c565b6040518115909202916000818181858888f1935050505015801561153a573d6000803e3d6000fd5b506116d8565b600b546040516370a0823160e01b81526001600160a01b03909116906370a0823190611570903090600401611bbb565b60206040518083038186803b15801561158857600080fd5b505afa15801561159c573d6000803e3d6000fd5b505050506040513d601f19601f820116820180604052508101906115c09190611b14565b600b54600c5460405163a9059cbb60e01b81529295506001600160a01b039182169263a9059cbb926115f89216908690600401611c0d565b602060405180830381600087803b15801561161257600080fd5b505af1158015611626573d6000803e3d6000fd5b505050506040513d601f19601f8201168201806040525081019061164a9190611a3f565b50600b546001600160a01b031663a9059cbb33611667858761215c565b6040518363ffffffff1660e01b8152600401611684929190611c0d565b602060405180830381600087803b15801561169e57600080fd5b505af11580156116b2573d6000803e3d6000fd5b505050506040513d601f19601f820116820180604052508101906116d69190611a3f565b505b801561176857600a54600c5460405163a9059cbb60e01b81526001600160a01b039283169263a9059cbb92611714929116908590600401611c0d565b602060405180830381600087803b15801561172e57600080fd5b505af1158015611742573d6000803e3d6000fd5b505050506040513d601f19601f820116820180604052508101906117669190611a3f565b505b600a546040516370a0823160e01b81526000916001600160a01b0316906370a0823190611799903090600401611bbb565b60206040518083038186803b1580156117b157600080fd5b505afa1580156117c5573d6000803e3d6000fd5b505050506040513d601f19601f820116820180604052508101906117e99190611b14565b90506000811180156118035750600f5462010000900460ff165b1561188e57600a5460405163a9059cbb60e01b81526001600160a01b039091169063a9059cbb9061183a9033908590600401611c0d565b602060405180830381600087803b15801561185457600080fd5b505af1158015611868573d6000803e3d6000fd5b505050506040513d601f19601f8201168201806040525081019061188c9190611a3f565b505b6000811180156118a75750600f5462010000900460ff16155b1561193457600a5460405163a9059cbb60e01b81526001600160a01b039091169063a9059cbb906118e09061dead908590600401611c0d565b602060405180830381600087803b1580156118fa57600080fd5b505af115801561190e573d6000803e3d6000fd5b505050506040513d601f19601f820116820180604052508101906119329190611a3f565b505b50505050565b3390565b82805461194a90612173565b90600052602060002090601f01602090048101928261196c57600085556119b2565b82601f1061198557805160ff19168380011785556119b2565b828001600101855582156119b2579182015b828111156119b2578251825591602001919060010190611997565b506119be9291506119e0565b5090565b60405180604001604052806002906020820280368337509192915050565b5b808211156119be57600081556001016119e1565b600060208284031215611a06578081fd5b81356001600160a01b0381168114611a1c578182fd5b9392505050565b600060208284031215611a34578081fd5b8135611a1c816121f5565b600060208284031215611a50578081fd5b8151611a1c816121f5565b60006020808385031215611a6d578182fd5b823567ffffffffffffffff80821115611a84578384fd5b818501915085601f830112611a97578384fd5b813581811115611aa957611aa96121df565b604051601f8201601f1916810185018381118282101715611acc57611acc6121df565b6040528181528382018501881015611ae2578586fd5b818585018683013790810190930193909352509392505050565b600060208284031215611b0d578081fd5b5035919050565b600060208284031215611b25578081fd5b5051919050565b600060208284031215611b3d578081fd5b815160ff81168114611a1c578182fd5b8060005b6002811015611934578151845260209384019390910190600101611b51565b60008151808452815b81811015611b9557602081850181015186830182015201611b79565b81811115611ba65782602083870101525b50601f01601f19169290920160200192915050565b6001600160a01b0391909116815260200190565b6001600160a01b0392831681529116602082015260400190565b6001600160a01b039384168152919092166020820152604081019190915260600190565b6001600160a01b03929092168252602082015260400190565b604080825283519082018190526000906020906060840190828701845b82811015611c685781516001600160a01b031684529284019290840190600101611c43565b50505083810382850152845180825285830191830190845b81811015611c9c57835183529284019291840191600101611c80565b5090979650505050505050565b60006101e0611cb8838f611b4d565b611cc5604084018e611b4d565b611cd2608084018d611b4d565b611cdf60c084018c611b4d565b80610100840152611cf28184018b611b70565b6001600160a01b03998a1661012085015297909816610140830152509315156101608501529115156101808401526101a08301526101c0909101529695505050505050565b901515815260200190565b600060208252611a1c6020830184611b70565b60208082526012908201527110d85b1b195c881b9bdd08185b1b1bddd95960721b604082015260600190565b60208082526026908201527f4f776e61626c653a206e6577206f776e657220697320746865207a65726f206160408201526564647265737360d01b606082015260800190565b602080825260169082015275125b9d985b1a59081c185e5b595b9d08185b5bdd5b9d60521b604082015260600190565b60208082526017908201527f53616c657320686173206e6f7420656e64656420796574000000000000000000604082015260600190565b60208082526014908201527314d85b19481a5cc81b9bdd081bdc195b881e595d60621b604082015260600190565b60208082526016908201527514d85b19481a5cc8185b1c9958591e4818db1bdcd95960521b604082015260600190565b6020808252818101527f4f776e61626c653a2063616c6c6572206973206e6f7420746865206f776e6572604082015260600190565b60208082526014908201527314dbd99d0818d85c081b9bdd081c995858da195960621b604082015260600190565b6020808252601a908201527f5573657220646f65736e27742068617665206465706f73697473000000000000604082015260600190565b6020808252601c908201527f4d696e20636f6e747269627574696f6e206e6f74207265616368656400000000604082015260600190565b60208082526010908201526f29b0b6329034b9903737ba1037b832b760811b604082015260600190565b60208082526017908201527f526566756e64206973206e6f7420617661696c61626c65000000000000000000604082015260600190565b6020808252602a908201527f46696e697368696e67206c61756e636870616420646f6573206e6f7420617661604082015269696c61626c65206e6f7760b01b606082015260800190565b60208082526010908201526f21b0b63632b9103737ba1030b236b4b760811b604082015260600190565b6020808252601c908201527f4d617820636f6e747269627574696f6e206e6f74207265616368656400000000604082015260600190565b60208082526025908201527f53616c6520697320616c72656164792066696e6973686564206f722063616e63604082015264195b1b195960da1b606082015260800190565b6020808252600f908201526e12185c9918d85c081c995858da1959608a1b604082015260600190565b90815260200190565b9182526001600160a01b0316602082015260400190565b918252602082015260400190565b60008219821115612118576121186121c9565b500190565b60008261213857634e487b7160e01b81526012600452602481fd5b500490565b6000816000190483118215151615612157576121576121c9565b500290565b60008282101561216e5761216e6121c9565b500390565b60028104600182168061218757607f821691505b602082108114156121a857634e487b7160e01b600052602260045260246000fd5b50919050565b60006000198214156121c2576121c26121c9565b5060010190565b634e487b7160e01b600052601160045260246000fd5b634e487b7160e01b600052604160045260246000fd5b80151581146113b857600080fdfea2646970667358221220a956c401087696dc3cec149b2a31133c18ea64a7f22cb9016b38caef46ee496a64736f6c63430008000033a26469706673582212206c8f4c52cae56783ac9407c2d6f636465a51f3286df283e76e1ccda2ab599f3764736f6c63430008000033",
			"opcodes": "PUSH1 0x80 PUSH1 0x40 MSTORE PUSH7 0x2386F26FC10000 PUSH1 0x2 SSTORE CALLVALUE DUP1 ISZERO PUSH2 0x1B JUMPI PUSH1 0x0 DUP1 REVERT JUMPDEST POP PUSH2 0x2C PUSH2 0x27 PUSH2 0x31 JUMP JUMPDEST PUSH2 0x35 JUMP JUMPDEST PUSH2 0x85 JUMP JUMPDEST CALLER SWAP1 JUMP JUMPDEST PUSH1 0x0 DUP1 SLOAD PUSH1 0x1 PUSH1 0x1 PUSH1 0xA0 SHL SUB DUP4 DUP2 AND PUSH1 0x1 PUSH1 0x1 PUSH1 0xA0 SHL SUB NOT DUP4 AND DUP2 OR DUP5 SSTORE PUSH1 0x40 MLOAD SWAP2 SWAP1 SWAP3 AND SWAP3 DUP4 SWAP2 PUSH32 0x8BE0079C531659141344CD1FD0A4F28419497F9722A3DAAFE3B4186F6B6457E0 SWAP2 SWAP1 LOG3 POP POP JUMP JUMPDEST PUSH2 0x4098 DUP1 PUSH2 0x94 PUSH1 0x0 CODECOPY PUSH1 0x0 RETURN INVALID PUSH1 0x80 PUSH1 0x40 MSTORE PUSH1 0x4 CALLDATASIZE LT PUSH3 0x116 JUMPI PUSH1 0x0 CALLDATALOAD PUSH1 0xE0 SHR DUP1 PUSH4 0xB12821EB GT PUSH3 0xA3 JUMPI DUP1 PUSH4 0xCBCAB787 GT PUSH3 0x6D JUMPI DUP1 PUSH4 0xCBCAB787 EQ PUSH3 0x2DB JUMPI DUP1 PUSH4 0xE36465A3 EQ PUSH3 0x2F3 JUMPI DUP1 PUSH4 0xE5EB1BCF EQ PUSH3 0x328 JUMPI DUP1 PUSH4 0xF007735C EQ PUSH3 0x33F JUMPI DUP1 PUSH4 0xF2FDE38B EQ PUSH3 0x364 JUMPI PUSH3 0x116 JUMP JUMPDEST DUP1 PUSH4 0xB12821EB EQ PUSH3 0x247 JUMPI DUP1 PUSH4 0xBDA40D5C EQ PUSH3 0x26C JUMPI DUP1 PUSH4 0xBF21695F EQ PUSH3 0x291 JUMPI DUP1 PUSH4 0xC3F296A3 EQ PUSH3 0x2B6 JUMPI PUSH3 0x116 JUMP JUMPDEST DUP1 PUSH4 0x7788A7EE GT PUSH3 0xE5 JUMPI DUP1 PUSH4 0x7788A7EE EQ PUSH3 0x1CB JUMPI DUP1 PUSH4 0x7C0BB6B7 EQ PUSH3 0x1F2 JUMPI DUP1 PUSH4 0x86CB9E0C EQ PUSH3 0x20A JUMPI DUP1 PUSH4 0x8DA5CB5B EQ PUSH3 0x22F JUMPI PUSH3 0x116 JUMP JUMPDEST DUP1 PUSH4 0x2E1114EC EQ PUSH3 0x11B JUMPI DUP1 PUSH4 0x5B19E732 EQ PUSH3 0x158 JUMPI DUP1 PUSH4 0x6F19BD1D EQ PUSH3 0x18C JUMPI DUP1 PUSH4 0x715018A6 EQ PUSH3 0x1B3 JUMPI JUMPDEST PUSH1 0x0 DUP1 REVERT JUMPDEST CALLVALUE DUP1 ISZERO PUSH3 0x128 JUMPI PUSH1 0x0 DUP1 REVERT JUMPDEST POP PUSH3 0x140 PUSH3 0x13A CALLDATASIZE PUSH1 0x4 PUSH3 0x1267 JUMP JUMPDEST PUSH3 0x389 JUMP JUMPDEST PUSH1 0x40 MLOAD PUSH3 0x14F SWAP2 SWAP1 PUSH3 0x134D JUMP JUMPDEST PUSH1 0x40 MLOAD DUP1 SWAP2 SUB SWAP1 RETURN JUMPDEST CALLVALUE DUP1 ISZERO PUSH3 0x165 JUMPI PUSH1 0x0 DUP1 REVERT JUMPDEST POP PUSH3 0x17D PUSH3 0x177 CALLDATASIZE PUSH1 0x4 PUSH3 0x10AF JUMP JUMPDEST PUSH3 0x4C1 JUMP JUMPDEST PUSH1 0x40 MLOAD PUSH3 0x14F SWAP2 SWAP1 PUSH3 0x12FB JUMP JUMPDEST CALLVALUE DUP1 ISZERO PUSH3 0x199 JUMPI PUSH1 0x0 DUP1 REVERT JUMPDEST POP PUSH3 0x1B1 PUSH3 0x1AB CALLDATASIZE PUSH1 0x4 PUSH3 0x1078 JUMP JUMPDEST PUSH3 0x4FA JUMP JUMPDEST STOP JUMPDEST CALLVALUE DUP1 ISZERO PUSH3 0x1C0 JUMPI PUSH1 0x0 DUP1 REVERT JUMPDEST POP PUSH3 0x1B1 PUSH3 0x576 JUMP JUMPDEST CALLVALUE DUP1 ISZERO PUSH3 0x1D8 JUMPI PUSH1 0x0 DUP1 REVERT JUMPDEST POP PUSH3 0x1E3 PUSH3 0x58E JUMP JUMPDEST PUSH1 0x40 MLOAD PUSH3 0x14F SWAP2 SWAP1 PUSH3 0x162F JUMP JUMPDEST CALLVALUE DUP1 ISZERO PUSH3 0x1FF JUMPI PUSH1 0x0 DUP1 REVERT JUMPDEST POP PUSH3 0x140 PUSH3 0x594 JUMP JUMPDEST CALLVALUE DUP1 ISZERO PUSH3 0x217 JUMPI PUSH1 0x0 DUP1 REVERT JUMPDEST POP PUSH3 0x1B1 PUSH3 0x229 CALLDATASIZE PUSH1 0x4 PUSH3 0x1235 JUMP JUMPDEST PUSH3 0x66E JUMP JUMPDEST CALLVALUE DUP1 ISZERO PUSH3 0x23C JUMPI PUSH1 0x0 DUP1 REVERT JUMPDEST POP PUSH3 0x17D PUSH3 0x67D JUMP JUMPDEST CALLVALUE DUP1 ISZERO PUSH3 0x254 JUMPI PUSH1 0x0 DUP1 REVERT JUMPDEST POP PUSH3 0x17D PUSH3 0x266 CALLDATASIZE PUSH1 0x4 PUSH3 0x10AF JUMP JUMPDEST PUSH3 0x68C JUMP JUMPDEST CALLVALUE DUP1 ISZERO PUSH3 0x279 JUMPI PUSH1 0x0 DUP1 REVERT JUMPDEST POP PUSH3 0x17D PUSH3 0x28B CALLDATASIZE PUSH1 0x4 PUSH3 0x1235 JUMP JUMPDEST PUSH3 0x6A9 JUMP JUMPDEST CALLVALUE DUP1 ISZERO PUSH3 0x29E JUMPI PUSH1 0x0 DUP1 REVERT JUMPDEST POP PUSH3 0x1B1 PUSH3 0x2B0 CALLDATASIZE PUSH1 0x4 PUSH3 0x1078 JUMP JUMPDEST PUSH3 0x6C4 JUMP JUMPDEST CALLVALUE DUP1 ISZERO PUSH3 0x2C3 JUMPI PUSH1 0x0 DUP1 REVERT JUMPDEST POP PUSH3 0x1E3 PUSH3 0x2D5 CALLDATASIZE PUSH1 0x4 PUSH3 0x1054 JUMP JUMPDEST PUSH3 0x788 JUMP JUMPDEST CALLVALUE DUP1 ISZERO PUSH3 0x2E8 JUMPI PUSH1 0x0 DUP1 REVERT JUMPDEST POP PUSH3 0x1E3 PUSH3 0x79A JUMP JUMPDEST CALLVALUE DUP1 ISZERO PUSH3 0x300 JUMPI PUSH1 0x0 DUP1 REVERT JUMPDEST POP PUSH3 0x318 PUSH3 0x312 CALLDATASIZE PUSH1 0x4 PUSH3 0x1054 JUMP JUMPDEST PUSH3 0x7A0 JUMP JUMPDEST PUSH1 0x40 MLOAD PUSH3 0x14F SWAP3 SWAP2 SWAP1 PUSH3 0x139C JUMP JUMPDEST PUSH3 0x1B1 PUSH3 0x339 CALLDATASIZE PUSH1 0x4 PUSH3 0x10DB JUMP JUMPDEST PUSH3 0x9CF JUMP JUMPDEST CALLVALUE DUP1 ISZERO PUSH3 0x34C JUMPI PUSH1 0x0 DUP1 REVERT JUMPDEST POP PUSH3 0x17D PUSH3 0x35E CALLDATASIZE PUSH1 0x4 PUSH3 0x1054 JUMP JUMPDEST PUSH3 0xE29 JUMP JUMPDEST CALLVALUE DUP1 ISZERO PUSH3 0x371 JUMPI PUSH1 0x0 DUP1 REVERT JUMPDEST POP PUSH3 0x1B1 PUSH3 0x383 CALLDATASIZE PUSH1 0x4 PUSH3 0x1054 JUMP JUMPDEST PUSH3 0xE44 JUMP JUMPDEST PUSH1 0x60 PUSH1 0x1 SLOAD DUP3 LT PUSH3 0x3A8 JUMPI PUSH1 0x1 DUP1 SLOAD PUSH3 0x3A5 SWAP2 SWAP1 PUSH3 0x16C3 JUMP JUMPDEST SWAP2 POP JUMPDEST PUSH1 0x0 PUSH3 0x3B6 DUP5 DUP5 PUSH3 0x16C3 JUMP JUMPDEST PUSH3 0x3C3 SWAP1 PUSH1 0x1 PUSH3 0x1665 JUMP JUMPDEST SWAP1 POP PUSH1 0x0 DUP1 DUP3 PUSH8 0xFFFFFFFFFFFFFFFF DUP2 GT ISZERO PUSH3 0x3F0 JUMPI PUSH4 0x4E487B71 PUSH1 0xE0 SHL PUSH1 0x0 MSTORE PUSH1 0x41 PUSH1 0x4 MSTORE PUSH1 0x24 PUSH1 0x0 REVERT JUMPDEST PUSH1 0x40 MLOAD SWAP1 DUP1 DUP3 MSTORE DUP1 PUSH1 0x20 MUL PUSH1 0x20 ADD DUP3 ADD PUSH1 0x40 MSTORE DUP1 ISZERO PUSH3 0x41A JUMPI DUP2 PUSH1 0x20 ADD PUSH1 0x20 DUP3 MUL DUP1 CALLDATASIZE DUP4 CALLDATACOPY ADD SWAP1 POP JUMPDEST POP SWAP1 POP DUP6 JUMPDEST DUP6 DUP2 GT PUSH3 0x4B7 JUMPI PUSH1 0x3 PUSH1 0x0 PUSH3 0x437 DUP4 DUP11 PUSH3 0x1665 JUMP JUMPDEST DUP2 MSTORE PUSH1 0x20 ADD SWAP1 DUP2 MSTORE PUSH1 0x20 ADD PUSH1 0x0 KECCAK256 PUSH1 0x0 SWAP1 SLOAD SWAP1 PUSH2 0x100 EXP SWAP1 DIV PUSH1 0x1 PUSH1 0x1 PUSH1 0xA0 SHL SUB AND DUP3 DUP5 DUP2 MLOAD DUP2 LT PUSH3 0x47A JUMPI PUSH4 0x4E487B71 PUSH1 0xE0 SHL PUSH1 0x0 MSTORE PUSH1 0x32 PUSH1 0x4 MSTORE PUSH1 0x24 PUSH1 0x0 REVERT JUMPDEST PUSH1 0x1 PUSH1 0x1 PUSH1 0xA0 SHL SUB SWAP1 SWAP3 AND PUSH1 0x20 SWAP3 DUP4 MUL SWAP2 SWAP1 SWAP2 ADD SWAP1 SWAP2 ADD MSTORE DUP3 PUSH3 0x49E DUP2 PUSH3 0x16DD JUMP JUMPDEST SWAP4 POP POP DUP1 DUP1 PUSH3 0x4AE SWAP1 PUSH3 0x16DD JUMP JUMPDEST SWAP2 POP POP PUSH3 0x41F JUMP JUMPDEST POP SWAP6 SWAP5 POP POP POP POP POP JUMP JUMPDEST PUSH1 0x8 PUSH1 0x20 MSTORE DUP2 PUSH1 0x0 MSTORE PUSH1 0x40 PUSH1 0x0 KECCAK256 DUP2 DUP2 SLOAD DUP2 LT PUSH3 0x4DE JUMPI PUSH1 0x0 DUP1 REVERT JUMPDEST PUSH1 0x0 SWAP2 DUP3 MSTORE PUSH1 0x20 SWAP1 SWAP2 KECCAK256 ADD SLOAD PUSH1 0x1 PUSH1 0x1 PUSH1 0xA0 SHL SUB AND SWAP2 POP DUP3 SWAP1 POP JUMP JUMPDEST CALLER PUSH1 0x0 SWAP1 DUP2 MSTORE PUSH1 0x5 PUSH1 0x20 MSTORE PUSH1 0x40 SWAP1 KECCAK256 SLOAD PUSH1 0xFF AND PUSH3 0x535 JUMPI PUSH1 0x40 MLOAD PUSH3 0x461BCD PUSH1 0xE5 SHL DUP2 MSTORE PUSH1 0x4 ADD PUSH3 0x52C SWAP1 PUSH3 0x1555 JUMP JUMPDEST PUSH1 0x40 MLOAD DUP1 SWAP2 SUB SWAP1 REVERT JUMPDEST PUSH1 0x1 PUSH1 0x1 PUSH1 0xA0 SHL SUB SWAP2 DUP3 AND PUSH1 0x0 SWAP1 DUP2 MSTORE PUSH1 0x6 PUSH1 0x20 SWAP1 DUP2 MSTORE PUSH1 0x40 DUP1 DUP4 KECCAK256 DUP1 SLOAD PUSH1 0x1 PUSH1 0x1 PUSH1 0xA0 SHL SUB NOT AND SWAP1 SSTORE SWAP3 SWAP1 SWAP4 AND DUP2 MSTORE PUSH1 0x5 SWAP1 SWAP3 MSTORE SWAP1 KECCAK256 DUP1 SLOAD PUSH1 0xFF NOT AND SWAP1 SSTORE JUMP JUMPDEST PUSH3 0x580 PUSH3 0xE85 JUMP JUMPDEST PUSH3 0x58C PUSH1 0x0 PUSH3 0xECB JUMP JUMPDEST JUMP JUMPDEST PUSH1 0x2 SLOAD DUP2 JUMP JUMPDEST PUSH1 0x60 PUSH1 0x0 PUSH1 0x1 SLOAD PUSH8 0xFFFFFFFFFFFFFFFF DUP2 GT ISZERO PUSH3 0x5C2 JUMPI PUSH4 0x4E487B71 PUSH1 0xE0 SHL PUSH1 0x0 MSTORE PUSH1 0x41 PUSH1 0x4 MSTORE PUSH1 0x24 PUSH1 0x0 REVERT JUMPDEST PUSH1 0x40 MLOAD SWAP1 DUP1 DUP3 MSTORE DUP1 PUSH1 0x20 MUL PUSH1 0x20 ADD DUP3 ADD PUSH1 0x40 MSTORE DUP1 ISZERO PUSH3 0x5EC JUMPI DUP2 PUSH1 0x20 ADD PUSH1 0x20 DUP3 MUL DUP1 CALLDATASIZE DUP4 CALLDATACOPY ADD SWAP1 POP JUMPDEST POP SWAP1 POP PUSH1 0x0 JUMPDEST PUSH1 0x1 SLOAD DUP2 LT ISZERO PUSH3 0x668 JUMPI PUSH1 0x0 DUP2 DUP2 MSTORE PUSH1 0x3 PUSH1 0x20 MSTORE PUSH1 0x40 SWAP1 KECCAK256 SLOAD DUP3 MLOAD PUSH1 0x1 PUSH1 0x1 PUSH1 0xA0 SHL SUB SWAP1 SWAP2 AND SWAP1 DUP4 SWAP1 DUP4 SWAP1 DUP2 LT PUSH3 0x63B JUMPI PUSH4 0x4E487B71 PUSH1 0xE0 SHL PUSH1 0x0 MSTORE PUSH1 0x32 PUSH1 0x4 MSTORE PUSH1 0x24 PUSH1 0x0 REVERT JUMPDEST PUSH1 0x1 PUSH1 0x1 PUSH1 0xA0 SHL SUB SWAP1 SWAP3 AND PUSH1 0x20 SWAP3 DUP4 MUL SWAP2 SWAP1 SWAP2 ADD SWAP1 SWAP2 ADD MSTORE DUP1 PUSH3 0x65F DUP2 PUSH3 0x16DD JUMP JUMPDEST SWAP2 POP POP PUSH3 0x5F2 JUMP JUMPDEST POP SWAP1 POP SWAP1 JUMP JUMPDEST PUSH3 0x678 PUSH3 0xE85 JUMP JUMPDEST PUSH1 0x2 SSTORE JUMP JUMPDEST PUSH1 0x0 SLOAD PUSH1 0x1 PUSH1 0x1 PUSH1 0xA0 SHL SUB AND SWAP1 JUMP JUMPDEST PUSH1 0x7 PUSH1 0x20 MSTORE DUP2 PUSH1 0x0 MSTORE PUSH1 0x40 PUSH1 0x0 KECCAK256 DUP2 DUP2 SLOAD DUP2 LT PUSH3 0x4DE JUMPI PUSH1 0x0 DUP1 REVERT JUMPDEST PUSH1 0x3 PUSH1 0x20 MSTORE PUSH1 0x0 SWAP1 DUP2 MSTORE PUSH1 0x40 SWAP1 KECCAK256 SLOAD PUSH1 0x1 PUSH1 0x1 PUSH1 0xA0 SHL SUB AND DUP2 JUMP JUMPDEST CALLER PUSH1 0x0 SWAP1 DUP2 MSTORE PUSH1 0x5 PUSH1 0x20 MSTORE PUSH1 0x40 SWAP1 KECCAK256 SLOAD PUSH1 0xFF AND PUSH3 0x6F6 JUMPI PUSH1 0x40 MLOAD PUSH3 0x461BCD PUSH1 0xE5 SHL DUP2 MSTORE PUSH1 0x4 ADD PUSH3 0x52C SWAP1 PUSH3 0x15F8 JUMP JUMPDEST PUSH1 0x1 PUSH1 0x1 PUSH1 0xA0 SHL SUB DUP1 DUP4 AND PUSH1 0x0 SWAP1 DUP2 MSTORE PUSH1 0x9 PUSH1 0x20 SWAP1 DUP2 MSTORE PUSH1 0x40 DUP1 DUP4 KECCAK256 SWAP4 DUP6 AND DUP4 MSTORE SWAP3 SWAP1 MSTORE KECCAK256 SLOAD PUSH1 0xFF AND PUSH3 0x784 JUMPI PUSH1 0x1 PUSH1 0x1 PUSH1 0xA0 SHL SUB DUP3 DUP2 AND PUSH1 0x0 DUP2 DUP2 MSTORE PUSH1 0x7 PUSH1 0x20 SWAP1 DUP2 MSTORE PUSH1 0x40 DUP1 DUP4 KECCAK256 DUP1 SLOAD PUSH1 0x1 DUP1 DUP3 ADD DUP4 SSTORE SWAP2 DUP6 MSTORE DUP4 DUP6 KECCAK256 ADD DUP1 SLOAD PUSH1 0x1 PUSH1 0x1 PUSH1 0xA0 SHL SUB NOT AND SWAP7 DUP9 AND SWAP7 DUP8 OR SWAP1 SSTORE SWAP4 DUP4 MSTORE PUSH1 0x9 DUP3 MSTORE DUP1 DUP4 KECCAK256 SWAP5 DUP4 MSTORE SWAP4 SWAP1 MSTORE SWAP2 SWAP1 SWAP2 KECCAK256 DUP1 SLOAD PUSH1 0xFF NOT AND SWAP1 SWAP2 OR SWAP1 SSTORE JUMPDEST POP POP JUMP JUMPDEST PUSH1 0x4 PUSH1 0x20 MSTORE PUSH1 0x0 SWAP1 DUP2 MSTORE PUSH1 0x40 SWAP1 KECCAK256 SLOAD DUP2 JUMP JUMPDEST PUSH1 0x1 SLOAD DUP2 JUMP JUMPDEST PUSH1 0x1 PUSH1 0x1 PUSH1 0xA0 SHL SUB DUP2 AND PUSH1 0x0 SWAP1 DUP2 MSTORE PUSH1 0x7 PUSH1 0x20 MSTORE PUSH1 0x40 SWAP1 KECCAK256 SLOAD PUSH1 0x60 SWAP1 DUP2 SWAP1 DUP1 PUSH8 0xFFFFFFFFFFFFFFFF DUP2 GT ISZERO PUSH3 0x7E6 JUMPI PUSH4 0x4E487B71 PUSH1 0xE0 SHL PUSH1 0x0 MSTORE PUSH1 0x41 PUSH1 0x4 MSTORE PUSH1 0x24 PUSH1 0x0 REVERT JUMPDEST PUSH1 0x40 MLOAD SWAP1 DUP1 DUP3 MSTORE DUP1 PUSH1 0x20 MUL PUSH1 0x20 ADD DUP3 ADD PUSH1 0x40 MSTORE DUP1 ISZERO PUSH3 0x810 JUMPI DUP2 PUSH1 0x20 ADD PUSH1 0x20 DUP3 MUL DUP1 CALLDATASIZE DUP4 CALLDATACOPY ADD SWAP1 POP JUMPDEST POP SWAP3 POP DUP1 PUSH8 0xFFFFFFFFFFFFFFFF DUP2 GT ISZERO PUSH3 0x83B JUMPI PUSH4 0x4E487B71 PUSH1 0xE0 SHL PUSH1 0x0 MSTORE PUSH1 0x41 PUSH1 0x4 MSTORE PUSH1 0x24 PUSH1 0x0 REVERT JUMPDEST PUSH1 0x40 MLOAD SWAP1 DUP1 DUP3 MSTORE DUP1 PUSH1 0x20 MUL PUSH1 0x20 ADD DUP3 ADD PUSH1 0x40 MSTORE DUP1 ISZERO PUSH3 0x865 JUMPI DUP2 PUSH1 0x20 ADD PUSH1 0x20 DUP3 MUL DUP1 CALLDATASIZE DUP4 CALLDATACOPY ADD SWAP1 POP JUMPDEST POP SWAP2 POP PUSH1 0x0 JUMPDEST DUP2 DUP2 LT ISZERO PUSH3 0x9C8 JUMPI PUSH1 0x1 PUSH1 0x1 PUSH1 0xA0 SHL SUB DUP6 AND PUSH1 0x0 SWAP1 DUP2 MSTORE PUSH1 0x7 PUSH1 0x20 MSTORE PUSH1 0x40 DUP2 KECCAK256 DUP1 SLOAD DUP4 SWAP1 DUP2 LT PUSH3 0x8AD JUMPI PUSH4 0x4E487B71 PUSH1 0xE0 SHL PUSH1 0x0 MSTORE PUSH1 0x32 PUSH1 0x4 MSTORE PUSH1 0x24 PUSH1 0x0 REVERT JUMPDEST PUSH1 0x0 SWAP2 DUP3 MSTORE PUSH1 0x20 DUP1 DUP4 KECCAK256 SWAP1 SWAP2 ADD SLOAD PUSH1 0x1 PUSH1 0x1 PUSH1 0xA0 SHL SUB AND DUP1 DUP4 MSTORE PUSH1 0x4 SWAP1 SWAP2 MSTORE PUSH1 0x40 SWAP1 SWAP2 KECCAK256 SLOAD DUP7 MLOAD SWAP2 SWAP3 POP SWAP1 DUP7 SWAP1 DUP5 SWAP1 DUP2 LT PUSH3 0x8F9 JUMPI PUSH4 0x4E487B71 PUSH1 0xE0 SHL PUSH1 0x0 MSTORE PUSH1 0x32 PUSH1 0x4 MSTORE PUSH1 0x24 PUSH1 0x0 REVERT JUMPDEST PUSH1 0x20 SWAP1 DUP2 MUL SWAP2 SWAP1 SWAP2 ADD ADD MSTORE PUSH1 0x40 MLOAD PUSH4 0x4A4643F7 PUSH1 0xE0 SHL DUP2 MSTORE PUSH1 0x1 PUSH1 0x1 PUSH1 0xA0 SHL SUB DUP3 AND SWAP1 PUSH4 0x4A4643F7 SWAP1 PUSH3 0x932 SWAP1 DUP10 SWAP1 PUSH1 0x4 ADD PUSH3 0x12FB JUMP JUMPDEST PUSH1 0x20 PUSH1 0x40 MLOAD DUP1 DUP4 SUB DUP2 DUP7 DUP1 EXTCODESIZE ISZERO DUP1 ISZERO PUSH3 0x94B JUMPI PUSH1 0x0 DUP1 REVERT JUMPDEST POP GAS STATICCALL ISZERO DUP1 ISZERO PUSH3 0x960 JUMPI RETURNDATASIZE PUSH1 0x0 DUP1 RETURNDATACOPY RETURNDATASIZE PUSH1 0x0 REVERT JUMPDEST POP POP POP POP PUSH1 0x40 MLOAD RETURNDATASIZE PUSH1 0x1F NOT PUSH1 0x1F DUP3 ADD AND DUP3 ADD DUP1 PUSH1 0x40 MSTORE POP DUP2 ADD SWAP1 PUSH3 0x986 SWAP2 SWAP1 PUSH3 0x124E JUMP JUMPDEST DUP5 DUP4 DUP2 MLOAD DUP2 LT PUSH3 0x9A7 JUMPI PUSH4 0x4E487B71 PUSH1 0xE0 SHL PUSH1 0x0 MSTORE PUSH1 0x32 PUSH1 0x4 MSTORE PUSH1 0x24 PUSH1 0x0 REVERT JUMPDEST PUSH1 0x20 SWAP1 DUP2 MUL SWAP2 SWAP1 SWAP2 ADD ADD MSTORE POP DUP1 PUSH3 0x9BF DUP2 PUSH3 0x16DD JUMP JUMPDEST SWAP2 POP POP PUSH3 0x86B JUMP JUMPDEST POP POP SWAP2 POP SWAP2 JUMP JUMPDEST PUSH1 0x2 SLOAD CALLVALUE LT ISZERO PUSH3 0x9F4 JUMPI PUSH1 0x40 MLOAD PUSH3 0x461BCD PUSH1 0xE5 SHL DUP2 MSTORE PUSH1 0x4 ADD PUSH3 0x52C SWAP1 PUSH3 0x15C1 JUMP JUMPDEST PUSH1 0x1 PUSH1 0x1 PUSH1 0xA0 SHL SUB DUP4 DUP2 AND PUSH1 0x0 SWAP1 DUP2 MSTORE PUSH1 0x6 PUSH1 0x20 MSTORE PUSH1 0x40 SWAP1 KECCAK256 SLOAD AND ISZERO PUSH3 0xA2F JUMPI PUSH1 0x40 MLOAD PUSH3 0x461BCD PUSH1 0xE5 SHL DUP2 MSTORE PUSH1 0x4 ADD PUSH3 0x52C SWAP1 PUSH3 0x151E JUMP JUMPDEST PUSH1 0x0 DUP10 DUP10 DUP10 DUP10 DUP10 DUP10 DUP10 DUP10 PUSH3 0xA43 PUSH3 0x67D JUMP JUMPDEST DUP11 PUSH1 0x40 MLOAD PUSH3 0xA52 SWAP1 PUSH3 0xF1F JUMP JUMPDEST PUSH3 0xA67 SWAP11 SWAP10 SWAP9 SWAP8 SWAP7 SWAP6 SWAP5 SWAP4 SWAP3 SWAP2 SWAP1 PUSH3 0x13CE JUMP JUMPDEST PUSH1 0x40 MLOAD DUP1 SWAP2 SUB SWAP1 PUSH1 0x0 CREATE DUP1 ISZERO DUP1 ISZERO PUSH3 0xA84 JUMPI RETURNDATASIZE PUSH1 0x0 DUP1 RETURNDATACOPY RETURNDATASIZE PUSH1 0x0 REVERT JUMPDEST POP PUSH1 0x40 MLOAD PUSH4 0xF2FDE38B PUSH1 0xE0 SHL DUP2 MSTORE SWAP1 SWAP2 POP PUSH1 0x1 PUSH1 0x1 PUSH1 0xA0 SHL SUB DUP3 AND SWAP1 PUSH4 0xF2FDE38B SWAP1 PUSH3 0xAB6 SWAP1 CALLER SWAP1 PUSH1 0x4 ADD PUSH3 0x12FB JUMP JUMPDEST PUSH1 0x0 PUSH1 0x40 MLOAD DUP1 DUP4 SUB DUP2 PUSH1 0x0 DUP8 DUP1 EXTCODESIZE ISZERO DUP1 ISZERO PUSH3 0xAD1 JUMPI PUSH1 0x0 DUP1 REVERT JUMPDEST POP GAS CALL ISZERO DUP1 ISZERO PUSH3 0xAE6 JUMPI RETURNDATASIZE PUSH1 0x0 DUP1 RETURNDATACOPY RETURNDATASIZE PUSH1 0x0 REVERT JUMPDEST POP POP POP POP PUSH1 0x0 DUP9 PUSH1 0x0 DUP2 MLOAD DUP2 LT PUSH3 0xB0E JUMPI PUSH4 0x4E487B71 PUSH1 0xE0 SHL PUSH1 0x0 MSTORE PUSH1 0x32 PUSH1 0x4 MSTORE PUSH1 0x24 PUSH1 0x0 REVERT JUMPDEST PUSH1 0x20 MUL PUSH1 0x20 ADD ADD MLOAD SWAP1 POP PUSH1 0x0 DUP12 PUSH1 0x1 DUP2 MLOAD DUP2 LT PUSH3 0xB3C JUMPI PUSH4 0x4E487B71 PUSH1 0xE0 SHL PUSH1 0x0 MSTORE PUSH1 0x32 PUSH1 0x4 MSTORE PUSH1 0x24 PUSH1 0x0 REVERT JUMPDEST PUSH1 0x20 MUL PUSH1 0x20 ADD ADD MLOAD SWAP1 POP PUSH1 0x0 PUSH8 0xDE0B6B3A7640000 DUP8 PUSH1 0x1 PUSH1 0x1 PUSH1 0xA0 SHL SUB AND PUSH4 0x313CE567 PUSH1 0x40 MLOAD DUP2 PUSH4 0xFFFFFFFF AND PUSH1 0xE0 SHL DUP2 MSTORE PUSH1 0x4 ADD PUSH1 0x20 PUSH1 0x40 MLOAD DUP1 DUP4 SUB DUP2 DUP7 DUP1 EXTCODESIZE ISZERO DUP1 ISZERO PUSH3 0xB8B JUMPI PUSH1 0x0 DUP1 REVERT JUMPDEST POP GAS STATICCALL ISZERO DUP1 ISZERO PUSH3 0xBA0 JUMPI RETURNDATASIZE PUSH1 0x0 DUP1 RETURNDATACOPY RETURNDATASIZE PUSH1 0x0 REVERT JUMPDEST POP POP POP POP PUSH1 0x40 MLOAD RETURNDATASIZE PUSH1 0x1F NOT PUSH1 0x1F DUP3 ADD AND DUP3 ADD DUP1 PUSH1 0x40 MSTORE POP DUP2 ADD SWAP1 PUSH3 0xBC6 SWAP2 SWAP1 PUSH3 0x1289 JUMP JUMPDEST PUSH1 0xFF AND PUSH3 0xBD5 DUP5 DUP7 PUSH3 0x16A1 JUMP JUMPDEST PUSH3 0xBE1 SWAP2 SWAP1 PUSH3 0x16A1 JUMP JUMPDEST PUSH3 0xBED SWAP2 SWAP1 PUSH3 0x1680 JUMP JUMPDEST SWAP1 POP PUSH1 0x0 DUP10 PUSH1 0x1 DUP2 MLOAD DUP2 LT PUSH3 0xC13 JUMPI PUSH4 0x4E487B71 PUSH1 0xE0 SHL PUSH1 0x0 MSTORE PUSH1 0x32 PUSH1 0x4 MSTORE PUSH1 0x24 PUSH1 0x0 REVERT JUMPDEST PUSH1 0x20 MUL PUSH1 0x20 ADD ADD MLOAD SWAP1 POP PUSH1 0x0 DUP2 GT ISZERO PUSH3 0xC51 JUMPI PUSH2 0x2710 PUSH3 0xC36 DUP3 DUP5 PUSH3 0x16A1 JUMP JUMPDEST PUSH3 0xC42 SWAP2 SWAP1 PUSH3 0x1680 JUMP JUMPDEST PUSH3 0xC4E SWAP1 DUP4 PUSH3 0x1665 JUMP JUMPDEST SWAP2 POP JUMPDEST PUSH1 0x40 MLOAD PUSH4 0x23B872DD PUSH1 0xE0 SHL DUP2 MSTORE PUSH1 0x1 PUSH1 0x1 PUSH1 0xA0 SHL SUB DUP10 AND SWAP1 PUSH4 0x23B872DD SWAP1 PUSH3 0xC83 SWAP1 CALLER SWAP1 DUP10 SWAP1 DUP8 SWAP1 PUSH1 0x4 ADD PUSH3 0x1329 JUMP JUMPDEST PUSH1 0x20 PUSH1 0x40 MLOAD DUP1 DUP4 SUB DUP2 PUSH1 0x0 DUP8 DUP1 EXTCODESIZE ISZERO DUP1 ISZERO PUSH3 0xC9E JUMPI PUSH1 0x0 DUP1 REVERT JUMPDEST POP GAS CALL ISZERO DUP1 ISZERO PUSH3 0xCB3 JUMPI RETURNDATASIZE PUSH1 0x0 DUP1 RETURNDATACOPY RETURNDATASIZE PUSH1 0x0 REVERT JUMPDEST POP POP POP POP PUSH1 0x40 MLOAD RETURNDATASIZE PUSH1 0x1F NOT PUSH1 0x1F DUP3 ADD AND DUP3 ADD DUP1 PUSH1 0x40 MSTORE POP DUP2 ADD SWAP1 PUSH3 0xCD9 SWAP2 SWAP1 PUSH3 0x1216 JUMP JUMPDEST POP PUSH3 0xCE4 PUSH3 0x67D JUMP JUMPDEST PUSH1 0x1 PUSH1 0x1 PUSH1 0xA0 SHL SUB AND PUSH2 0x8FC CALLVALUE SWAP1 DUP2 ISZERO MUL SWAP1 PUSH1 0x40 MLOAD PUSH1 0x0 PUSH1 0x40 MLOAD DUP1 DUP4 SUB DUP2 DUP6 DUP9 DUP9 CALL SWAP4 POP POP POP POP ISZERO DUP1 ISZERO PUSH3 0xD1D JUMPI RETURNDATASIZE PUSH1 0x0 DUP1 RETURNDATACOPY RETURNDATASIZE PUSH1 0x0 REVERT JUMPDEST POP PUSH1 0x1 DUP1 SLOAD PUSH1 0x0 SWAP1 DUP2 MSTORE PUSH1 0x3 PUSH1 0x20 SWAP1 DUP2 MSTORE PUSH1 0x40 DUP1 DUP4 KECCAK256 DUP1 SLOAD PUSH1 0x1 PUSH1 0x1 PUSH1 0xA0 SHL SUB NOT AND PUSH1 0x1 PUSH1 0x1 PUSH1 0xA0 SHL SUB DUP12 AND SWAP1 DUP2 OR SWAP1 SWAP2 SSTORE DUP5 SLOAD SWAP1 DUP5 MSTORE PUSH1 0x4 SWAP1 SWAP3 MSTORE DUP3 KECCAK256 DUP2 SWAP1 SSTORE SWAP2 SWAP1 PUSH3 0xD6B DUP4 PUSH3 0x16DD JUMP JUMPDEST SWAP1 SWAP2 SSTORE POP POP PUSH1 0x1 PUSH1 0x1 PUSH1 0xA0 SHL SUB DUP1 DUP9 AND PUSH1 0x0 SWAP1 DUP2 MSTORE PUSH1 0x6 PUSH1 0x20 SWAP1 DUP2 MSTORE PUSH1 0x40 DUP1 DUP4 KECCAK256 DUP1 SLOAD SWAP5 DUP11 AND PUSH1 0x1 PUSH1 0x1 PUSH1 0xA0 SHL SUB NOT SWAP6 DUP7 AND DUP2 OR SWAP1 SWAP2 SSTORE DUP1 DUP5 MSTORE PUSH1 0x5 DUP4 MSTORE DUP2 DUP5 KECCAK256 DUP1 SLOAD PUSH1 0xFF NOT AND PUSH1 0x1 SWAP1 DUP2 OR SWAP1 SWAP2 SSTORE CALLER DUP1 DUP7 MSTORE PUSH1 0x8 DUP6 MSTORE DUP4 DUP7 KECCAK256 DUP1 SLOAD SWAP3 DUP4 ADD DUP2 SSTORE DUP7 MSTORE SWAP4 SWAP1 SWAP5 KECCAK256 SWAP1 SWAP4 ADD DUP1 SLOAD SWAP1 SWAP5 AND SWAP1 SWAP3 OR SWAP1 SWAP3 SSTORE MLOAD PUSH32 0xF0B286EA8E415AA6C494031BDB9B350083555233B508F5D265056EAD4F264DE9 SWAP2 PUSH3 0xE11 SWAP2 DUP9 SWAP2 SWAP1 PUSH3 0x130F JUMP JUMPDEST PUSH1 0x40 MLOAD DUP1 SWAP2 SUB SWAP1 LOG1 POP POP POP POP POP POP POP POP POP POP POP POP POP POP JUMP JUMPDEST PUSH1 0x6 PUSH1 0x20 MSTORE PUSH1 0x0 SWAP1 DUP2 MSTORE PUSH1 0x40 SWAP1 KECCAK256 SLOAD PUSH1 0x1 PUSH1 0x1 PUSH1 0xA0 SHL SUB AND DUP2 JUMP JUMPDEST PUSH3 0xE4E PUSH3 0xE85 JUMP JUMPDEST PUSH1 0x1 PUSH1 0x1 PUSH1 0xA0 SHL SUB DUP2 AND PUSH3 0xE77 JUMPI PUSH1 0x40 MLOAD PUSH3 0x461BCD PUSH1 0xE5 SHL DUP2 MSTORE PUSH1 0x4 ADD PUSH3 0x52C SWAP1 PUSH3 0x14D8 JUMP JUMPDEST PUSH3 0xE82 DUP2 PUSH3 0xECB JUMP JUMPDEST POP JUMP JUMPDEST PUSH3 0xE8F PUSH3 0xF1B JUMP JUMPDEST PUSH1 0x1 PUSH1 0x1 PUSH1 0xA0 SHL SUB AND PUSH3 0xEA2 PUSH3 0x67D JUMP JUMPDEST PUSH1 0x1 PUSH1 0x1 PUSH1 0xA0 SHL SUB AND EQ PUSH3 0x58C JUMPI PUSH1 0x40 MLOAD PUSH3 0x461BCD PUSH1 0xE5 SHL DUP2 MSTORE PUSH1 0x4 ADD PUSH3 0x52C SWAP1 PUSH3 0x158C JUMP JUMPDEST PUSH1 0x0 DUP1 SLOAD PUSH1 0x1 PUSH1 0x1 PUSH1 0xA0 SHL SUB DUP4 DUP2 AND PUSH1 0x1 PUSH1 0x1 PUSH1 0xA0 SHL SUB NOT DUP4 AND DUP2 OR DUP5 SSTORE PUSH1 0x40 MLOAD SWAP2 SWAP1 SWAP3 AND SWAP3 DUP4 SWAP2 PUSH32 0x8BE0079C531659141344CD1FD0A4F28419497F9722A3DAAFE3B4186F6B6457E0 SWAP2 SWAP1 LOG3 POP POP JUMP JUMPDEST CALLER SWAP1 JUMP JUMPDEST PUSH2 0x292C DUP1 PUSH3 0x1737 DUP4 CODECOPY ADD SWAP1 JUMP JUMPDEST DUP1 CALLDATALOAD PUSH1 0x1 PUSH1 0x1 PUSH1 0xA0 SHL SUB DUP2 AND DUP2 EQ PUSH3 0xF45 JUMPI PUSH1 0x0 DUP1 REVERT JUMPDEST SWAP2 SWAP1 POP JUMP JUMPDEST PUSH1 0x0 DUP3 PUSH1 0x1F DUP4 ADD SLT PUSH3 0xF5B JUMPI DUP1 DUP2 REVERT JUMPDEST DUP2 CALLDATALOAD PUSH1 0x20 PUSH8 0xFFFFFFFFFFFFFFFF DUP3 GT ISZERO PUSH3 0xF7A JUMPI PUSH3 0xF7A PUSH3 0x1711 JUMP JUMPDEST DUP1 DUP3 MUL PUSH3 0xF8A DUP3 DUP3 ADD PUSH3 0x1638 JUMP JUMPDEST DUP4 DUP2 MSTORE DUP3 DUP2 ADD SWAP1 DUP7 DUP5 ADD DUP4 DUP9 ADD DUP6 ADD DUP10 LT ISZERO PUSH3 0xFA5 JUMPI DUP7 DUP8 REVERT JUMPDEST DUP7 SWAP4 POP JUMPDEST DUP6 DUP5 LT ISZERO PUSH3 0xFC9 JUMPI DUP1 CALLDATALOAD DUP4 MSTORE PUSH1 0x1 SWAP4 SWAP1 SWAP4 ADD SWAP3 SWAP2 DUP5 ADD SWAP2 DUP5 ADD PUSH3 0xFA9 JUMP JUMPDEST POP SWAP8 SWAP7 POP POP POP POP POP POP POP JUMP JUMPDEST DUP1 CALLDATALOAD PUSH3 0xF45 DUP2 PUSH3 0x1727 JUMP JUMPDEST PUSH1 0x0 DUP3 PUSH1 0x1F DUP4 ADD SLT PUSH3 0xFF3 JUMPI DUP1 DUP2 REVERT JUMPDEST DUP2 CALLDATALOAD PUSH8 0xFFFFFFFFFFFFFFFF DUP2 GT ISZERO PUSH3 0x1010 JUMPI PUSH3 0x1010 PUSH3 0x1711 JUMP JUMPDEST PUSH3 0x1025 PUSH1 0x1F DUP3 ADD PUSH1 0x1F NOT AND PUSH1 0x20 ADD PUSH3 0x1638 JUMP JUMPDEST DUP2 DUP2 MSTORE DUP5 PUSH1 0x20 DUP4 DUP7 ADD ADD GT ISZERO PUSH3 0x103A JUMPI DUP3 DUP4 REVERT JUMPDEST DUP2 PUSH1 0x20 DUP6 ADD PUSH1 0x20 DUP4 ADD CALLDATACOPY SWAP1 DUP2 ADD PUSH1 0x20 ADD SWAP2 SWAP1 SWAP2 MSTORE SWAP3 SWAP2 POP POP JUMP JUMPDEST PUSH1 0x0 PUSH1 0x20 DUP3 DUP5 SUB SLT ISZERO PUSH3 0x1066 JUMPI DUP1 DUP2 REVERT JUMPDEST PUSH3 0x1071 DUP3 PUSH3 0xF2D JUMP JUMPDEST SWAP4 SWAP3 POP POP POP JUMP JUMPDEST PUSH1 0x0 DUP1 PUSH1 0x40 DUP4 DUP6 SUB SLT ISZERO PUSH3 0x108B JUMPI DUP1 DUP2 REVERT JUMPDEST PUSH3 0x1096 DUP4 PUSH3 0xF2D JUMP JUMPDEST SWAP2 POP PUSH3 0x10A6 PUSH1 0x20 DUP5 ADD PUSH3 0xF2D JUMP JUMPDEST SWAP1 POP SWAP3 POP SWAP3 SWAP1 POP JUMP JUMPDEST PUSH1 0x0 DUP1 PUSH1 0x40 DUP4 DUP6 SUB SLT ISZERO PUSH3 0x10C2 JUMPI DUP2 DUP3 REVERT JUMPDEST PUSH3 0x10CD DUP4 PUSH3 0xF2D JUMP JUMPDEST SWAP5 PUSH1 0x20 SWAP4 SWAP1 SWAP4 ADD CALLDATALOAD SWAP4 POP POP POP JUMP JUMPDEST PUSH1 0x0 DUP1 PUSH1 0x0 DUP1 PUSH1 0x0 DUP1 PUSH1 0x0 DUP1 PUSH1 0x0 PUSH2 0x120 DUP11 DUP13 SUB SLT ISZERO PUSH3 0x10FA JUMPI DUP5 DUP6 REVERT JUMPDEST DUP10 CALLDATALOAD PUSH8 0xFFFFFFFFFFFFFFFF DUP1 DUP3 GT ISZERO PUSH3 0x1112 JUMPI DUP7 DUP8 REVERT JUMPDEST PUSH3 0x1120 DUP14 DUP4 DUP15 ADD PUSH3 0xF4A JUMP JUMPDEST SWAP11 POP PUSH1 0x20 DUP13 ADD CALLDATALOAD SWAP2 POP DUP1 DUP3 GT ISZERO PUSH3 0x1136 JUMPI DUP7 DUP8 REVERT JUMPDEST PUSH3 0x1144 DUP14 DUP4 DUP15 ADD PUSH3 0xF4A JUMP JUMPDEST SWAP10 POP PUSH1 0x40 DUP13 ADD CALLDATALOAD SWAP2 POP DUP1 DUP3 GT ISZERO PUSH3 0x115A JUMPI DUP7 DUP8 REVERT JUMPDEST PUSH3 0x1168 DUP14 DUP4 DUP15 ADD PUSH3 0xF4A JUMP JUMPDEST SWAP9 POP PUSH1 0x60 DUP13 ADD CALLDATALOAD SWAP2 POP DUP1 DUP3 GT ISZERO PUSH3 0x117E JUMPI DUP7 DUP8 REVERT JUMPDEST PUSH3 0x118C DUP14 DUP4 DUP15 ADD PUSH3 0xF4A JUMP JUMPDEST SWAP8 POP PUSH1 0x80 DUP13 ADD CALLDATALOAD SWAP2 POP DUP1 DUP3 GT ISZERO PUSH3 0x11A2 JUMPI DUP7 DUP8 REVERT JUMPDEST PUSH3 0x11B0 DUP14 DUP4 DUP15 ADD PUSH3 0xF4A JUMP JUMPDEST SWAP7 POP PUSH1 0xA0 DUP13 ADD CALLDATALOAD SWAP2 POP DUP1 DUP3 GT ISZERO PUSH3 0x11C6 JUMPI DUP6 DUP7 REVERT JUMPDEST POP PUSH3 0x11D5 DUP13 DUP3 DUP14 ADD PUSH3 0xFE2 JUMP JUMPDEST SWAP5 POP POP PUSH3 0x11E6 PUSH1 0xC0 DUP12 ADD PUSH3 0xF2D JUMP JUMPDEST SWAP3 POP PUSH3 0x11F6 PUSH1 0xE0 DUP12 ADD PUSH3 0xF2D JUMP JUMPDEST SWAP2 POP PUSH3 0x1207 PUSH2 0x100 DUP12 ADD PUSH3 0xFD5 JUMP JUMPDEST SWAP1 POP SWAP3 SWAP6 SWAP9 POP SWAP3 SWAP6 SWAP9 POP SWAP3 SWAP6 SWAP9 JUMP JUMPDEST PUSH1 0x0 PUSH1 0x20 DUP3 DUP5 SUB SLT ISZERO PUSH3 0x1228 JUMPI DUP1 DUP2 REVERT JUMPDEST DUP2 MLOAD PUSH3 0x1071 DUP2 PUSH3 0x1727 JUMP JUMPDEST PUSH1 0x0 PUSH1 0x20 DUP3 DUP5 SUB SLT ISZERO PUSH3 0x1247 JUMPI DUP1 DUP2 REVERT JUMPDEST POP CALLDATALOAD SWAP2 SWAP1 POP JUMP JUMPDEST PUSH1 0x0 PUSH1 0x20 DUP3 DUP5 SUB SLT ISZERO PUSH3 0x1260 JUMPI DUP1 DUP2 REVERT JUMPDEST POP MLOAD SWAP2 SWAP1 POP JUMP JUMPDEST PUSH1 0x0 DUP1 PUSH1 0x40 DUP4 DUP6 SUB SLT ISZERO PUSH3 0x127A JUMPI DUP2 DUP3 REVERT JUMPDEST POP POP DUP1 CALLDATALOAD SWAP3 PUSH1 0x20 SWAP1 SWAP2 ADD CALLDATALOAD SWAP2 POP JUMP JUMPDEST PUSH1 0x0 PUSH1 0x20 DUP3 DUP5 SUB SLT ISZERO PUSH3 0x129B JUMPI DUP1 DUP2 REVERT JUMPDEST DUP2 MLOAD PUSH1 0xFF DUP2 AND DUP2 EQ PUSH3 0x1071 JUMPI DUP2 DUP3 REVERT JUMPDEST PUSH1 0x1 PUSH1 0x1 PUSH1 0xA0 SHL SUB AND SWAP1 MSTORE JUMP JUMPDEST PUSH1 0x0 DUP2 MLOAD DUP1 DUP5 MSTORE PUSH1 0x20 DUP1 DUP6 ADD SWAP5 POP DUP1 DUP5 ADD DUP4 JUMPDEST DUP4 DUP2 LT ISZERO PUSH3 0x12EA JUMPI DUP2 MLOAD DUP8 MSTORE SWAP6 DUP3 ADD SWAP6 SWAP1 DUP3 ADD SWAP1 PUSH1 0x1 ADD PUSH3 0x12CC JUMP JUMPDEST POP SWAP5 SWAP6 SWAP5 POP POP POP POP POP JUMP JUMPDEST ISZERO ISZERO SWAP1 MSTORE JUMP JUMPDEST PUSH1 0x1 PUSH1 0x1 PUSH1 0xA0 SHL SUB SWAP2 SWAP1 SWAP2 AND DUP2 MSTORE PUSH1 0x20 ADD SWAP1 JUMP JUMPDEST PUSH1 0x1 PUSH1 0x1 PUSH1 0xA0 SHL SUB SWAP3 DUP4 AND DUP2 MSTORE SWAP2 AND PUSH1 0x20 DUP3 ADD MSTORE PUSH1 0x40 ADD SWAP1 JUMP JUMPDEST PUSH1 0x1 PUSH1 0x1 PUSH1 0xA0 SHL SUB SWAP4 DUP5 AND DUP2 MSTORE SWAP2 SWAP1 SWAP3 AND PUSH1 0x20 DUP3 ADD MSTORE PUSH1 0x40 DUP2 ADD SWAP2 SWAP1 SWAP2 MSTORE PUSH1 0x60 ADD SWAP1 JUMP JUMPDEST PUSH1 0x20 DUP1 DUP3 MSTORE DUP3 MLOAD DUP3 DUP3 ADD DUP2 SWAP1 MSTORE PUSH1 0x0 SWAP2 SWAP1 DUP5 DUP3 ADD SWAP1 PUSH1 0x40 DUP6 ADD SWAP1 DUP5 JUMPDEST DUP2 DUP2 LT ISZERO PUSH3 0x1390 JUMPI DUP4 MLOAD PUSH1 0x1 PUSH1 0x1 PUSH1 0xA0 SHL SUB AND DUP4 MSTORE SWAP3 DUP5 ADD SWAP3 SWAP2 DUP5 ADD SWAP2 PUSH1 0x1 ADD PUSH3 0x1369 JUMP JUMPDEST POP SWAP1 SWAP7 SWAP6 POP POP POP POP POP POP JUMP JUMPDEST PUSH1 0x0 PUSH1 0x40 DUP3 MSTORE PUSH3 0x13B1 PUSH1 0x40 DUP4 ADD DUP6 PUSH3 0x12B9 JUMP JUMPDEST DUP3 DUP2 SUB PUSH1 0x20 DUP5 ADD MSTORE PUSH3 0x13C5 DUP2 DUP6 PUSH3 0x12B9 JUMP JUMPDEST SWAP6 SWAP5 POP POP POP POP POP JUMP JUMPDEST PUSH1 0x0 PUSH2 0x140 DUP1 DUP4 MSTORE PUSH3 0x13E4 DUP2 DUP5 ADD DUP15 PUSH3 0x12B9 JUMP JUMPDEST SWAP1 POP PUSH1 0x20 DUP4 DUP3 SUB DUP2 DUP6 ADD MSTORE PUSH3 0x13FB DUP3 DUP15 PUSH3 0x12B9 JUMP JUMPDEST SWAP2 POP DUP4 DUP3 SUB PUSH1 0x40 DUP6 ADD MSTORE PUSH3 0x1411 DUP3 DUP14 PUSH3 0x12B9 JUMP JUMPDEST SWAP2 POP DUP4 DUP3 SUB PUSH1 0x60 DUP6 ADD MSTORE PUSH3 0x1427 DUP3 DUP13 PUSH3 0x12B9 JUMP JUMPDEST SWAP2 POP DUP4 DUP3 SUB PUSH1 0x80 DUP6 ADD MSTORE PUSH3 0x143D DUP3 DUP12 PUSH3 0x12B9 JUMP JUMPDEST SWAP2 POP DUP4 DUP3 SUB PUSH1 0xA0 DUP6 ADD MSTORE DUP9 MLOAD DUP1 DUP4 MSTORE DUP4 JUMPDEST DUP2 DUP2 LT ISZERO PUSH3 0x146B JUMPI DUP11 DUP2 ADD DUP4 ADD MLOAD DUP5 DUP3 ADD DUP5 ADD MSTORE DUP3 ADD PUSH3 0x144E JUMP JUMPDEST DUP2 DUP2 GT ISZERO PUSH3 0x147C JUMPI DUP5 DUP4 DUP4 DUP7 ADD ADD MSTORE JUMPDEST POP PUSH1 0x1F ADD PUSH1 0x1F NOT AND SWAP2 SWAP1 SWAP2 ADD ADD SWAP1 POP PUSH3 0x149A PUSH1 0xC0 DUP4 ADD DUP8 PUSH3 0x12AC JUMP JUMPDEST PUSH3 0x14A9 PUSH1 0xE0 DUP4 ADD DUP7 PUSH3 0x12AC JUMP JUMPDEST PUSH3 0x14B9 PUSH2 0x100 DUP4 ADD DUP6 PUSH3 0x12AC JUMP JUMPDEST PUSH3 0x14C9 PUSH2 0x120 DUP4 ADD DUP5 PUSH3 0x12F5 JUMP JUMPDEST SWAP12 SWAP11 POP POP POP POP POP POP POP POP POP POP POP JUMP JUMPDEST PUSH1 0x20 DUP1 DUP3 MSTORE PUSH1 0x26 SWAP1 DUP3 ADD MSTORE PUSH32 0x4F776E61626C653A206E6577206F776E657220697320746865207A65726F2061 PUSH1 0x40 DUP3 ADD MSTORE PUSH6 0x646472657373 PUSH1 0xD0 SHL PUSH1 0x60 DUP3 ADD MSTORE PUSH1 0x80 ADD SWAP1 JUMP JUMPDEST PUSH1 0x20 DUP1 DUP3 MSTORE PUSH1 0x19 SWAP1 DUP3 ADD MSTORE PUSH32 0x4C61756E636870616420616C7265616479206372656174656400000000000000 PUSH1 0x40 DUP3 ADD MSTORE PUSH1 0x60 ADD SWAP1 JUMP JUMPDEST PUSH1 0x20 DUP1 DUP3 MSTORE PUSH1 0x1A SWAP1 DUP3 ADD MSTORE PUSH32 0x4F6E6C79206C61756E6368706164732063616E2072656D6F7665000000000000 PUSH1 0x40 DUP3 ADD MSTORE PUSH1 0x60 ADD SWAP1 JUMP JUMPDEST PUSH1 0x20 DUP1 DUP3 MSTORE DUP2 DUP2 ADD MSTORE PUSH32 0x4F776E61626C653A2063616C6C6572206973206E6F7420746865206F776E6572 PUSH1 0x40 DUP3 ADD MSTORE PUSH1 0x60 ADD SWAP1 JUMP JUMPDEST PUSH1 0x20 DUP1 DUP3 MSTORE PUSH1 0x18 SWAP1 DUP3 ADD MSTORE PUSH32 0x4E6F7420656E6F75676820424E4220746F206465706C6F790000000000000000 PUSH1 0x40 DUP3 ADD MSTORE PUSH1 0x60 ADD SWAP1 JUMP JUMPDEST PUSH1 0x20 DUP1 DUP3 MSTORE PUSH1 0x17 SWAP1 DUP3 ADD MSTORE PUSH32 0x4F6E6C79206C61756E6368706164732063616E20616464000000000000000000 PUSH1 0x40 DUP3 ADD MSTORE PUSH1 0x60 ADD SWAP1 JUMP JUMPDEST SWAP1 DUP2 MSTORE PUSH1 0x20 ADD SWAP1 JUMP JUMPDEST PUSH1 0x40 MLOAD DUP2 DUP2 ADD PUSH8 0xFFFFFFFFFFFFFFFF DUP2 GT DUP3 DUP3 LT OR ISZERO PUSH3 0x165D JUMPI PUSH3 0x165D PUSH3 0x1711 JUMP JUMPDEST PUSH1 0x40 MSTORE SWAP2 SWAP1 POP JUMP JUMPDEST PUSH1 0x0 DUP3 NOT DUP3 GT ISZERO PUSH3 0x167B JUMPI PUSH3 0x167B PUSH3 0x16FB JUMP JUMPDEST POP ADD SWAP1 JUMP JUMPDEST PUSH1 0x0 DUP3 PUSH3 0x169C JUMPI PUSH4 0x4E487B71 PUSH1 0xE0 SHL DUP2 MSTORE PUSH1 0x12 PUSH1 0x4 MSTORE PUSH1 0x24 DUP2 REVERT JUMPDEST POP DIV SWAP1 JUMP JUMPDEST PUSH1 0x0 DUP2 PUSH1 0x0 NOT DIV DUP4 GT DUP3 ISZERO ISZERO AND ISZERO PUSH3 0x16BE JUMPI PUSH3 0x16BE PUSH3 0x16FB JUMP JUMPDEST POP MUL SWAP1 JUMP JUMPDEST PUSH1 0x0 DUP3 DUP3 LT ISZERO PUSH3 0x16D8 JUMPI PUSH3 0x16D8 PUSH3 0x16FB JUMP JUMPDEST POP SUB SWAP1 JUMP JUMPDEST PUSH1 0x0 PUSH1 0x0 NOT DUP3 EQ ISZERO PUSH3 0x16F4 JUMPI PUSH3 0x16F4 PUSH3 0x16FB JUMP JUMPDEST POP PUSH1 0x1 ADD SWAP1 JUMP JUMPDEST PUSH4 0x4E487B71 PUSH1 0xE0 SHL PUSH1 0x0 MSTORE PUSH1 0x11 PUSH1 0x4 MSTORE PUSH1 0x24 PUSH1 0x0 REVERT JUMPDEST PUSH4 0x4E487B71 PUSH1 0xE0 SHL PUSH1 0x0 MSTORE PUSH1 0x41 PUSH1 0x4 MSTORE PUSH1 0x24 PUSH1 0x0 REVERT JUMPDEST DUP1 ISZERO ISZERO DUP2 EQ PUSH3 0xE82 JUMPI PUSH1 0x0 DUP1 REVERT INVALID PUSH1 0x80 PUSH1 0x40 MSTORE PUSH1 0xF DUP1 SLOAD PUSH3 0xFF0000 NOT AND PUSH3 0x10000 OR SWAP1 SSTORE CALLVALUE DUP1 ISZERO PUSH3 0x22 JUMPI PUSH1 0x0 DUP1 REVERT JUMPDEST POP PUSH1 0x40 MLOAD PUSH3 0x292C CODESIZE SUB DUP1 PUSH3 0x292C DUP4 CODECOPY DUP2 ADD PUSH1 0x40 DUP2 SWAP1 MSTORE PUSH3 0x45 SWAP2 PUSH3 0x516 JUMP JUMPDEST PUSH3 0x59 PUSH3 0x53 PUSH3 0x2D3 JUMP JUMPDEST PUSH3 0x2D7 JUMP JUMPDEST PUSH1 0x0 DUP1 SLOAD PUSH1 0xFF PUSH1 0xA0 SHL NOT AND DUP2 SSTORE DUP11 MLOAD DUP12 SWAP2 SWAP1 PUSH3 0x86 JUMPI PUSH4 0x4E487B71 PUSH1 0xE0 SHL PUSH1 0x0 MSTORE PUSH1 0x32 PUSH1 0x4 MSTORE PUSH1 0x24 PUSH1 0x0 REVERT JUMPDEST PUSH1 0x20 MUL PUSH1 0x20 ADD ADD MLOAD PUSH1 0x1 DUP2 SWAP1 SSTORE POP DUP10 PUSH1 0x1 DUP2 MLOAD DUP2 LT PUSH3 0xB6 JUMPI PUSH4 0x4E487B71 PUSH1 0xE0 SHL PUSH1 0x0 MSTORE PUSH1 0x32 PUSH1 0x4 MSTORE PUSH1 0x24 PUSH1 0x0 REVERT JUMPDEST PUSH1 0x20 MUL PUSH1 0x20 ADD ADD MLOAD PUSH1 0x2 DUP2 SWAP1 SSTORE POP DUP9 PUSH1 0x0 DUP2 MLOAD DUP2 LT PUSH3 0xE6 JUMPI PUSH4 0x4E487B71 PUSH1 0xE0 SHL PUSH1 0x0 MSTORE PUSH1 0x32 PUSH1 0x4 MSTORE PUSH1 0x24 PUSH1 0x0 REVERT JUMPDEST PUSH1 0x20 MUL PUSH1 0x20 ADD ADD MLOAD PUSH1 0x3 DUP2 SWAP1 SSTORE POP DUP9 PUSH1 0x1 DUP2 MLOAD DUP2 LT PUSH3 0x116 JUMPI PUSH4 0x4E487B71 PUSH1 0xE0 SHL PUSH1 0x0 MSTORE PUSH1 0x32 PUSH1 0x4 MSTORE PUSH1 0x24 PUSH1 0x0 REVERT JUMPDEST PUSH1 0x20 SWAP1 DUP2 MUL SWAP2 SWAP1 SWAP2 ADD DUP2 ADD MLOAD PUSH1 0x4 SSTORE DUP6 MLOAD PUSH3 0x139 SWAP2 PUSH1 0x9 SWAP2 SWAP1 DUP9 ADD SWAP1 PUSH3 0x327 JUMP JUMPDEST POP DUP6 PUSH1 0x0 DUP2 MLOAD DUP2 LT PUSH3 0x15C JUMPI PUSH4 0x4E487B71 PUSH1 0xE0 SHL PUSH1 0x0 MSTORE PUSH1 0x32 PUSH1 0x4 MSTORE PUSH1 0x24 PUSH1 0x0 REVERT JUMPDEST PUSH1 0x20 MUL PUSH1 0x20 ADD ADD MLOAD PUSH1 0xD DUP2 SWAP1 SSTORE POP DUP6 PUSH1 0x1 DUP2 MLOAD DUP2 LT PUSH3 0x18C JUMPI PUSH4 0x4E487B71 PUSH1 0xE0 SHL PUSH1 0x0 MSTORE PUSH1 0x32 PUSH1 0x4 MSTORE PUSH1 0x24 PUSH1 0x0 REVERT JUMPDEST PUSH1 0x20 SWAP1 DUP2 MUL SWAP2 SWAP1 SWAP2 ADD ADD MLOAD PUSH1 0xE SSTORE PUSH1 0xB DUP1 SLOAD PUSH1 0x1 PUSH1 0x1 PUSH1 0xA0 SHL SUB DUP1 DUP7 AND PUSH1 0x1 PUSH1 0x1 PUSH1 0xA0 SHL SUB NOT SWAP3 DUP4 AND OR SWAP1 SWAP3 SSTORE PUSH1 0xA DUP1 SLOAD DUP8 DUP5 AND SWAP1 DUP4 AND OR SWAP1 SSTORE PUSH1 0xC DUP1 SLOAD SWAP3 DUP6 AND SWAP3 SWAP1 SWAP2 AND SWAP2 SWAP1 SWAP2 OR SWAP1 SSTORE DUP8 MLOAD DUP9 SWAP1 PUSH1 0x0 SWAP1 PUSH3 0x1F9 JUMPI PUSH4 0x4E487B71 PUSH1 0xE0 SHL PUSH1 0x0 MSTORE PUSH1 0x32 PUSH1 0x4 MSTORE PUSH1 0x24 PUSH1 0x0 REVERT JUMPDEST PUSH1 0x20 MUL PUSH1 0x20 ADD ADD MLOAD PUSH1 0x6 DUP2 SWAP1 SSTORE POP DUP8 PUSH1 0x1 DUP2 MLOAD DUP2 LT PUSH3 0x229 JUMPI PUSH4 0x4E487B71 PUSH1 0xE0 SHL PUSH1 0x0 MSTORE PUSH1 0x32 PUSH1 0x4 MSTORE PUSH1 0x24 PUSH1 0x0 REVERT JUMPDEST PUSH1 0x20 MUL PUSH1 0x20 ADD ADD MLOAD PUSH1 0x5 DUP2 SWAP1 SSTORE POP DUP7 PUSH1 0x1 DUP2 MLOAD DUP2 LT PUSH3 0x259 JUMPI PUSH4 0x4E487B71 PUSH1 0xE0 SHL PUSH1 0x0 MSTORE PUSH1 0x32 PUSH1 0x4 MSTORE PUSH1 0x24 PUSH1 0x0 REVERT JUMPDEST PUSH1 0x20 MUL PUSH1 0x20 ADD ADD MLOAD PUSH1 0x7 DUP2 SWAP1 SSTORE POP DUP7 PUSH1 0x0 DUP2 MLOAD DUP2 LT PUSH3 0x289 JUMPI PUSH4 0x4E487B71 PUSH1 0xE0 SHL PUSH1 0x0 MSTORE PUSH1 0x32 PUSH1 0x4 MSTORE PUSH1 0x24 PUSH1 0x0 REVERT JUMPDEST PUSH1 0x20 SWAP1 DUP2 MUL SWAP2 SWAP1 SWAP2 ADD ADD MLOAD PUSH1 0x8 SSTORE PUSH1 0xF DUP1 SLOAD SWAP2 ISZERO ISZERO PUSH3 0x10000 MUL PUSH3 0xFF0000 NOT SWAP1 SWAP3 AND SWAP2 SWAP1 SWAP2 OR SWAP1 SSTORE POP POP PUSH1 0x17 DUP1 SLOAD PUSH1 0x1 PUSH1 0x1 PUSH1 0xA0 SHL SUB NOT AND CALLER OR SWAP1 SSTORE POP PUSH3 0x6E3 SWAP6 POP POP POP POP POP POP JUMP JUMPDEST CALLER SWAP1 JUMP JUMPDEST PUSH1 0x0 DUP1 SLOAD PUSH1 0x1 PUSH1 0x1 PUSH1 0xA0 SHL SUB DUP4 DUP2 AND PUSH1 0x1 PUSH1 0x1 PUSH1 0xA0 SHL SUB NOT DUP4 AND DUP2 OR DUP5 SSTORE PUSH1 0x40 MLOAD SWAP2 SWAP1 SWAP3 AND SWAP3 DUP4 SWAP2 PUSH32 0x8BE0079C531659141344CD1FD0A4F28419497F9722A3DAAFE3B4186F6B6457E0 SWAP2 SWAP1 LOG3 POP POP JUMP JUMPDEST DUP3 DUP1 SLOAD PUSH3 0x335 SWAP1 PUSH3 0x690 JUMP JUMPDEST SWAP1 PUSH1 0x0 MSTORE PUSH1 0x20 PUSH1 0x0 KECCAK256 SWAP1 PUSH1 0x1F ADD PUSH1 0x20 SWAP1 DIV DUP2 ADD SWAP3 DUP3 PUSH3 0x359 JUMPI PUSH1 0x0 DUP6 SSTORE PUSH3 0x3A4 JUMP JUMPDEST DUP3 PUSH1 0x1F LT PUSH3 0x374 JUMPI DUP1 MLOAD PUSH1 0xFF NOT AND DUP4 DUP1 ADD OR DUP6 SSTORE PUSH3 0x3A4 JUMP JUMPDEST DUP3 DUP1 ADD PUSH1 0x1 ADD DUP6 SSTORE DUP3 ISZERO PUSH3 0x3A4 JUMPI SWAP2 DUP3 ADD JUMPDEST DUP3 DUP2 GT ISZERO PUSH3 0x3A4 JUMPI DUP3 MLOAD DUP3 SSTORE SWAP2 PUSH1 0x20 ADD SWAP2 SWAP1 PUSH1 0x1 ADD SWAP1 PUSH3 0x387 JUMP JUMPDEST POP PUSH3 0x3B2 SWAP3 SWAP2 POP PUSH3 0x3B6 JUMP JUMPDEST POP SWAP1 JUMP JUMPDEST JUMPDEST DUP1 DUP3 GT ISZERO PUSH3 0x3B2 JUMPI PUSH1 0x0 DUP2 SSTORE PUSH1 0x1 ADD PUSH3 0x3B7 JUMP JUMPDEST DUP1 MLOAD PUSH1 0x1 PUSH1 0x1 PUSH1 0xA0 SHL SUB DUP2 AND DUP2 EQ PUSH3 0x3E5 JUMPI PUSH1 0x0 DUP1 REVERT JUMPDEST SWAP2 SWAP1 POP JUMP JUMPDEST PUSH1 0x0 DUP3 PUSH1 0x1F DUP4 ADD SLT PUSH3 0x3FB JUMPI DUP1 DUP2 REVERT JUMPDEST DUP2 MLOAD PUSH1 0x20 PUSH1 0x1 PUSH1 0x1 PUSH1 0x40 SHL SUB DUP3 GT ISZERO PUSH3 0x419 JUMPI PUSH3 0x419 PUSH3 0x6CD JUMP JUMPDEST DUP1 DUP3 MUL PUSH3 0x429 DUP3 DUP3 ADD PUSH3 0x664 JUMP JUMPDEST DUP4 DUP2 MSTORE DUP3 DUP2 ADD SWAP1 DUP7 DUP5 ADD DUP4 DUP9 ADD DUP6 ADD DUP10 LT ISZERO PUSH3 0x444 JUMPI DUP7 DUP8 REVERT JUMPDEST DUP7 SWAP4 POP JUMPDEST DUP6 DUP5 LT ISZERO PUSH3 0x468 JUMPI DUP1 MLOAD DUP4 MSTORE PUSH1 0x1 SWAP4 SWAP1 SWAP4 ADD SWAP3 SWAP2 DUP5 ADD SWAP2 DUP5 ADD PUSH3 0x448 JUMP JUMPDEST POP SWAP8 SWAP7 POP POP POP POP POP POP POP JUMP JUMPDEST DUP1 MLOAD DUP1 ISZERO ISZERO DUP2 EQ PUSH3 0x3E5 JUMPI PUSH1 0x0 DUP1 REVERT JUMPDEST PUSH1 0x0 DUP3 PUSH1 0x1F DUP4 ADD SLT PUSH3 0x496 JUMPI DUP1 DUP2 REVERT JUMPDEST DUP2 MLOAD PUSH1 0x1 PUSH1 0x1 PUSH1 0x40 SHL SUB DUP2 GT ISZERO PUSH3 0x4B2 JUMPI PUSH3 0x4B2 PUSH3 0x6CD JUMP JUMPDEST PUSH1 0x20 PUSH3 0x4C8 PUSH1 0x1F DUP4 ADD PUSH1 0x1F NOT AND DUP3 ADD PUSH3 0x664 JUMP JUMPDEST DUP3 DUP2 MSTORE DUP6 DUP3 DUP5 DUP8 ADD ADD GT ISZERO PUSH3 0x4DC JUMPI DUP4 DUP5 REVERT JUMPDEST DUP4 JUMPDEST DUP4 DUP2 LT ISZERO PUSH3 0x4FB JUMPI DUP6 DUP2 ADD DUP4 ADD MLOAD DUP3 DUP3 ADD DUP5 ADD MSTORE DUP3 ADD PUSH3 0x4DE JUMP JUMPDEST DUP4 DUP2 GT ISZERO PUSH3 0x50C JUMPI DUP5 DUP4 DUP6 DUP5 ADD ADD MSTORE JUMPDEST POP SWAP6 SWAP5 POP POP POP POP POP JUMP JUMPDEST PUSH1 0x0 DUP1 PUSH1 0x0 DUP1 PUSH1 0x0 DUP1 PUSH1 0x0 DUP1 PUSH1 0x0 DUP1 PUSH2 0x140 DUP12 DUP14 SUB SLT ISZERO PUSH3 0x536 JUMPI DUP6 DUP7 REVERT JUMPDEST DUP11 MLOAD PUSH1 0x1 PUSH1 0x1 PUSH1 0x40 SHL SUB DUP1 DUP3 GT ISZERO PUSH3 0x54D JUMPI DUP8 DUP9 REVERT JUMPDEST PUSH3 0x55B DUP15 DUP4 DUP16 ADD PUSH3 0x3EA JUMP JUMPDEST SWAP12 POP PUSH1 0x20 DUP14 ADD MLOAD SWAP2 POP DUP1 DUP3 GT ISZERO PUSH3 0x571 JUMPI DUP8 DUP9 REVERT JUMPDEST PUSH3 0x57F DUP15 DUP4 DUP16 ADD PUSH3 0x3EA JUMP JUMPDEST SWAP11 POP PUSH1 0x40 DUP14 ADD MLOAD SWAP2 POP DUP1 DUP3 GT ISZERO PUSH3 0x595 JUMPI DUP8 DUP9 REVERT JUMPDEST PUSH3 0x5A3 DUP15 DUP4 DUP16 ADD PUSH3 0x3EA JUMP JUMPDEST SWAP10 POP PUSH1 0x60 DUP14 ADD MLOAD SWAP2 POP DUP1 DUP3 GT ISZERO PUSH3 0x5B9 JUMPI DUP8 DUP9 REVERT JUMPDEST PUSH3 0x5C7 DUP15 DUP4 DUP16 ADD PUSH3 0x3EA JUMP JUMPDEST SWAP9 POP PUSH1 0x80 DUP14 ADD MLOAD SWAP2 POP DUP1 DUP3 GT ISZERO PUSH3 0x5DD JUMPI DUP8 DUP9 REVERT JUMPDEST PUSH3 0x5EB DUP15 DUP4 DUP16 ADD PUSH3 0x3EA JUMP JUMPDEST SWAP8 POP PUSH1 0xA0 DUP14 ADD MLOAD SWAP2 POP DUP1 DUP3 GT ISZERO PUSH3 0x601 JUMPI DUP7 DUP8 REVERT JUMPDEST POP PUSH3 0x610 DUP14 DUP3 DUP15 ADD PUSH3 0x485 JUMP JUMPDEST SWAP6 POP POP PUSH3 0x621 PUSH1 0xC0 DUP13 ADD PUSH3 0x3CD JUMP JUMPDEST SWAP4 POP PUSH3 0x631 PUSH1 0xE0 DUP13 ADD PUSH3 0x3CD JUMP JUMPDEST SWAP3 POP PUSH3 0x642 PUSH2 0x100 DUP13 ADD PUSH3 0x3CD JUMP JUMPDEST SWAP2 POP PUSH3 0x653 PUSH2 0x120 DUP13 ADD PUSH3 0x474 JUMP JUMPDEST SWAP1 POP SWAP3 SWAP6 SWAP9 SWAP12 SWAP2 SWAP5 SWAP8 SWAP11 POP SWAP3 SWAP6 SWAP9 POP JUMP JUMPDEST PUSH1 0x40 MLOAD DUP2 DUP2 ADD PUSH1 0x1 PUSH1 0x1 PUSH1 0x40 SHL SUB DUP2 GT DUP3 DUP3 LT OR ISZERO PUSH3 0x688 JUMPI PUSH3 0x688 PUSH3 0x6CD JUMP JUMPDEST PUSH1 0x40 MSTORE SWAP2 SWAP1 POP JUMP JUMPDEST PUSH1 0x2 DUP2 DIV PUSH1 0x1 DUP3 AND DUP1 PUSH3 0x6A5 JUMPI PUSH1 0x7F DUP3 AND SWAP2 POP JUMPDEST PUSH1 0x20 DUP3 LT DUP2 EQ ISZERO PUSH3 0x6C7 JUMPI PUSH4 0x4E487B71 PUSH1 0xE0 SHL PUSH1 0x0 MSTORE PUSH1 0x22 PUSH1 0x4 MSTORE PUSH1 0x24 PUSH1 0x0 REVERT JUMPDEST POP SWAP2 SWAP1 POP JUMP JUMPDEST PUSH4 0x4E487B71 PUSH1 0xE0 SHL PUSH1 0x0 MSTORE PUSH1 0x41 PUSH1 0x4 MSTORE PUSH1 0x24 PUSH1 0x0 REVERT JUMPDEST PUSH2 0x2239 DUP1 PUSH3 0x6F3 PUSH1 0x0 CODECOPY PUSH1 0x0 RETURN INVALID PUSH1 0x80 PUSH1 0x40 MSTORE PUSH1 0x4 CALLDATASIZE LT PUSH2 0x225 JUMPI PUSH1 0x0 CALLDATALOAD PUSH1 0xE0 SHR DUP1 PUSH4 0x7B7A7CA7 GT PUSH2 0x123 JUMPI DUP1 PUSH4 0xA4F3A7C7 GT PUSH2 0xAB JUMPI DUP1 PUSH4 0xE7E10490 GT PUSH2 0x6F JUMPI DUP1 PUSH4 0xE7E10490 EQ PUSH2 0x578 JUMPI DUP1 PUSH4 0xF12CDAA6 EQ PUSH2 0x58D JUMPI DUP1 PUSH4 0xF2FDE38B EQ PUSH2 0x5AD JUMPI DUP1 PUSH4 0xF851A440 EQ PUSH2 0x5CD JUMPI DUP1 PUSH4 0xFB86A404 EQ PUSH2 0x5E2 JUMPI PUSH2 0x225 JUMP JUMPDEST DUP1 PUSH4 0xA4F3A7C7 EQ PUSH2 0x501 JUMPI DUP1 PUSH4 0xB5545A3C EQ PUSH2 0x516 JUMPI DUP1 PUSH4 0xB59BD591 EQ PUSH2 0x52B JUMPI DUP1 PUSH4 0xB9420310 EQ PUSH2 0x54E JUMPI DUP1 PUSH4 0xC5C4744C EQ PUSH2 0x563 JUMPI PUSH2 0x225 JUMP JUMPDEST DUP1 PUSH4 0x8F86F5EA GT PUSH2 0xF2 JUMPI DUP1 PUSH4 0x8F86F5EA EQ PUSH2 0x48D JUMPI DUP1 PUSH4 0x906A26E0 EQ PUSH2 0x4A2 JUMPI DUP1 PUSH4 0x90D6B45F EQ PUSH2 0x4B7 JUMPI DUP1 PUSH4 0x9CCCAC37 EQ PUSH2 0x4CC JUMPI DUP1 PUSH4 0xA20ECBBB EQ PUSH2 0x4EC JUMPI PUSH2 0x225 JUMP JUMPDEST DUP1 PUSH4 0x7B7A7CA7 EQ PUSH2 0x422 JUMPI DUP1 PUSH4 0x7CC1F867 EQ PUSH2 0x437 JUMPI DUP1 PUSH4 0x7D882097 EQ PUSH2 0x463 JUMPI DUP1 PUSH4 0x8DA5CB5B EQ PUSH2 0x478 JUMPI PUSH2 0x225 JUMP JUMPDEST DUP1 PUSH4 0x39B012B8 GT PUSH2 0x1B1 JUMPI DUP1 PUSH4 0x5C975ABB GT PUSH2 0x175 JUMPI DUP1 PUSH4 0x5C975ABB EQ PUSH2 0x3B9 JUMPI DUP1 PUSH4 0x715018A6 EQ PUSH2 0x3CE JUMPI DUP1 PUSH4 0x76320B24 EQ PUSH2 0x3E3 JUMPI DUP1 PUSH4 0x782DAE0A EQ PUSH2 0x3F8 JUMPI DUP1 PUSH4 0x78E97925 EQ PUSH2 0x40D JUMPI PUSH2 0x225 JUMP JUMPDEST DUP1 PUSH4 0x39B012B8 EQ PUSH2 0x338 JUMPI DUP1 PUSH4 0x42706C39 EQ PUSH2 0x34D JUMPI DUP1 PUSH4 0x42F39381 EQ PUSH2 0x36F JUMPI DUP1 PUSH4 0x4A4643F7 EQ PUSH2 0x384 JUMPI DUP1 PUSH4 0x5072B084 EQ PUSH2 0x3A4 JUMPI PUSH2 0x225 JUMP JUMPDEST DUP1 PUSH4 0x26BFB589 GT PUSH2 0x1F8 JUMPI DUP1 PUSH4 0x26BFB589 EQ PUSH2 0x2B9 JUMPI DUP1 PUSH4 0x29763ED0 EQ PUSH2 0x2DB JUMPI DUP1 PUSH4 0x2A0FCCD5 EQ PUSH2 0x2F0 JUMPI DUP1 PUSH4 0x2AFCF480 EQ PUSH2 0x310 JUMPI DUP1 PUSH4 0x3197CBB6 EQ PUSH2 0x323 JUMPI PUSH2 0x225 JUMP JUMPDEST DUP1 PUSH4 0x40B6583 EQ PUSH2 0x22A JUMPI DUP1 PUSH4 0x521B4DA EQ PUSH2 0x24C JUMPI DUP1 PUSH4 0xB9F2C4A EQ PUSH2 0x277 JUMPI DUP1 PUSH4 0x200D2ED2 EQ PUSH2 0x2A4 JUMPI JUMPDEST PUSH1 0x0 DUP1 REVERT JUMPDEST CALLVALUE DUP1 ISZERO PUSH2 0x236 JUMPI PUSH1 0x0 DUP1 REVERT JUMPDEST POP PUSH2 0x24A PUSH2 0x245 CALLDATASIZE PUSH1 0x4 PUSH2 0x1A23 JUMP JUMPDEST PUSH2 0x5F7 JUMP JUMPDEST STOP JUMPDEST CALLVALUE DUP1 ISZERO PUSH2 0x258 JUMPI PUSH1 0x0 DUP1 REVERT JUMPDEST POP PUSH2 0x261 PUSH2 0x619 JUMP JUMPDEST PUSH1 0x40 MLOAD PUSH2 0x26E SWAP2 SWAP1 PUSH2 0x20D7 JUMP JUMPDEST PUSH1 0x40 MLOAD DUP1 SWAP2 SUB SWAP1 RETURN JUMPDEST CALLVALUE DUP1 ISZERO PUSH2 0x283 JUMPI PUSH1 0x0 DUP1 REVERT JUMPDEST POP PUSH2 0x297 PUSH2 0x292 CALLDATASIZE PUSH1 0x4 PUSH2 0x1AFC JUMP JUMPDEST PUSH2 0x61F JUMP JUMPDEST PUSH1 0x40 MLOAD PUSH2 0x26E SWAP2 SWAP1 PUSH2 0x1BBB JUMP JUMPDEST CALLVALUE DUP1 ISZERO PUSH2 0x2B0 JUMPI PUSH1 0x0 DUP1 REVERT JUMPDEST POP PUSH2 0x261 PUSH2 0x63A JUMP JUMPDEST CALLVALUE DUP1 ISZERO PUSH2 0x2C5 JUMPI PUSH1 0x0 DUP1 REVERT JUMPDEST POP PUSH2 0x2CE PUSH2 0x640 JUMP JUMPDEST PUSH1 0x40 MLOAD PUSH2 0x26E SWAP2 SWAP1 PUSH2 0x1D37 JUMP JUMPDEST CALLVALUE DUP1 ISZERO PUSH2 0x2E7 JUMPI PUSH1 0x0 DUP1 REVERT JUMPDEST POP PUSH2 0x261 PUSH2 0x64F JUMP JUMPDEST CALLVALUE DUP1 ISZERO PUSH2 0x2FC JUMPI PUSH1 0x0 DUP1 REVERT JUMPDEST POP PUSH2 0x24A PUSH2 0x30B CALLDATASIZE PUSH1 0x4 PUSH2 0x1A5B JUMP JUMPDEST PUSH2 0x655 JUMP JUMPDEST PUSH2 0x24A PUSH2 0x31E CALLDATASIZE PUSH1 0x4 PUSH2 0x1AFC JUMP JUMPDEST PUSH2 0x69F JUMP JUMPDEST CALLVALUE DUP1 ISZERO PUSH2 0x32F JUMPI PUSH1 0x0 DUP1 REVERT JUMPDEST POP PUSH2 0x261 PUSH2 0xA67 JUMP JUMPDEST CALLVALUE DUP1 ISZERO PUSH2 0x344 JUMPI PUSH1 0x0 DUP1 REVERT JUMPDEST POP PUSH2 0x261 PUSH2 0xA6D JUMP JUMPDEST CALLVALUE DUP1 ISZERO PUSH2 0x359 JUMPI PUSH1 0x0 DUP1 REVERT JUMPDEST POP PUSH2 0x362 PUSH2 0xA73 JUMP JUMPDEST PUSH1 0x40 MLOAD PUSH2 0x26E SWAP2 SWAP1 PUSH2 0x1D42 JUMP JUMPDEST CALLVALUE DUP1 ISZERO PUSH2 0x37B JUMPI PUSH1 0x0 DUP1 REVERT JUMPDEST POP PUSH2 0x261 PUSH2 0xB01 JUMP JUMPDEST CALLVALUE DUP1 ISZERO PUSH2 0x390 JUMPI PUSH1 0x0 DUP1 REVERT JUMPDEST POP PUSH2 0x261 PUSH2 0x39F CALLDATASIZE PUSH1 0x4 PUSH2 0x19F5 JUMP JUMPDEST PUSH2 0xB07 JUMP JUMPDEST CALLVALUE DUP1 ISZERO PUSH2 0x3B0 JUMPI PUSH1 0x0 DUP1 REVERT JUMPDEST POP PUSH2 0x24A PUSH2 0xB19 JUMP JUMPDEST CALLVALUE DUP1 ISZERO PUSH2 0x3C5 JUMPI PUSH1 0x0 DUP1 REVERT JUMPDEST POP PUSH2 0x2CE PUSH2 0xC32 JUMP JUMPDEST CALLVALUE DUP1 ISZERO PUSH2 0x3DA JUMPI PUSH1 0x0 DUP1 REVERT JUMPDEST POP PUSH2 0x24A PUSH2 0xC42 JUMP JUMPDEST CALLVALUE DUP1 ISZERO PUSH2 0x3EF JUMPI PUSH1 0x0 DUP1 REVERT JUMPDEST POP PUSH2 0x261 PUSH2 0xC56 JUMP JUMPDEST CALLVALUE DUP1 ISZERO PUSH2 0x404 JUMPI PUSH1 0x0 DUP1 REVERT JUMPDEST POP PUSH2 0x261 PUSH2 0xC5C JUMP JUMPDEST CALLVALUE DUP1 ISZERO PUSH2 0x419 JUMPI PUSH1 0x0 DUP1 REVERT JUMPDEST POP PUSH2 0x261 PUSH2 0xC62 JUMP JUMPDEST CALLVALUE DUP1 ISZERO PUSH2 0x42E JUMPI PUSH1 0x0 DUP1 REVERT JUMPDEST POP PUSH2 0x2CE PUSH2 0xC68 JUMP JUMPDEST CALLVALUE DUP1 ISZERO PUSH2 0x443 JUMPI PUSH1 0x0 DUP1 REVERT JUMPDEST POP PUSH2 0x44C PUSH2 0xC76 JUMP JUMPDEST PUSH1 0x40 MLOAD PUSH2 0x26E SWAP12 SWAP11 SWAP10 SWAP9 SWAP8 SWAP7 SWAP6 SWAP5 SWAP4 SWAP3 SWAP2 SWAP1 PUSH2 0x1CA9 JUMP JUMPDEST CALLVALUE DUP1 ISZERO PUSH2 0x46F JUMPI PUSH1 0x0 DUP1 REVERT JUMPDEST POP PUSH2 0x261 PUSH2 0xE08 JUMP JUMPDEST CALLVALUE DUP1 ISZERO PUSH2 0x484 JUMPI PUSH1 0x0 DUP1 REVERT JUMPDEST POP PUSH2 0x297 PUSH2 0xE0E JUMP JUMPDEST CALLVALUE DUP1 ISZERO PUSH2 0x499 JUMPI PUSH1 0x0 DUP1 REVERT JUMPDEST POP PUSH2 0x24A PUSH2 0xE1D JUMP JUMPDEST CALLVALUE DUP1 ISZERO PUSH2 0x4AE JUMPI PUSH1 0x0 DUP1 REVERT JUMPDEST POP PUSH2 0x261 PUSH2 0xF19 JUMP JUMPDEST CALLVALUE DUP1 ISZERO PUSH2 0x4C3 JUMPI PUSH1 0x0 DUP1 REVERT JUMPDEST POP PUSH2 0x2CE PUSH2 0xF1F JUMP JUMPDEST CALLVALUE DUP1 ISZERO PUSH2 0x4D8 JUMPI PUSH1 0x0 DUP1 REVERT JUMPDEST POP PUSH2 0x261 PUSH2 0x4E7 CALLDATASIZE PUSH1 0x4 PUSH2 0x19F5 JUMP JUMPDEST PUSH2 0xF28 JUMP JUMPDEST CALLVALUE DUP1 ISZERO PUSH2 0x4F8 JUMPI PUSH1 0x0 DUP1 REVERT JUMPDEST POP PUSH2 0x261 PUSH2 0xF3A JUMP JUMPDEST CALLVALUE DUP1 ISZERO PUSH2 0x50D JUMPI PUSH1 0x0 DUP1 REVERT JUMPDEST POP PUSH2 0x297 PUSH2 0xF40 JUMP JUMPDEST CALLVALUE DUP1 ISZERO PUSH2 0x522 JUMPI PUSH1 0x0 DUP1 REVERT JUMPDEST POP PUSH2 0x24A PUSH2 0xF4F JUMP JUMPDEST CALLVALUE DUP1 ISZERO PUSH2 0x537 JUMPI PUSH1 0x0 DUP1 REVERT JUMPDEST POP PUSH2 0x540 PUSH2 0x10A8 JUMP JUMPDEST PUSH1 0x40 MLOAD PUSH2 0x26E SWAP3 SWAP2 SWAP1 PUSH2 0x1C26 JUMP JUMPDEST CALLVALUE DUP1 ISZERO PUSH2 0x55A JUMPI PUSH1 0x0 DUP1 REVERT JUMPDEST POP PUSH2 0x297 PUSH2 0x122A JUMP JUMPDEST CALLVALUE DUP1 ISZERO PUSH2 0x56F JUMPI PUSH1 0x0 DUP1 REVERT JUMPDEST POP PUSH2 0x261 PUSH2 0x1239 JUMP JUMPDEST CALLVALUE DUP1 ISZERO PUSH2 0x584 JUMPI PUSH1 0x0 DUP1 REVERT JUMPDEST POP PUSH2 0x24A PUSH2 0x123F JUMP JUMPDEST CALLVALUE DUP1 ISZERO PUSH2 0x599 JUMPI PUSH1 0x0 DUP1 REVERT JUMPDEST POP PUSH2 0x24A PUSH2 0x5A8 CALLDATASIZE PUSH1 0x4 PUSH2 0x1A23 JUMP JUMPDEST PUSH2 0x1344 JUMP JUMPDEST CALLVALUE DUP1 ISZERO PUSH2 0x5B9 JUMPI PUSH1 0x0 DUP1 REVERT JUMPDEST POP PUSH2 0x24A PUSH2 0x5C8 CALLDATASIZE PUSH1 0x4 PUSH2 0x19F5 JUMP JUMPDEST PUSH2 0x1381 JUMP JUMPDEST CALLVALUE DUP1 ISZERO PUSH2 0x5D9 JUMPI PUSH1 0x0 DUP1 REVERT JUMPDEST POP PUSH2 0x297 PUSH2 0x13BB JUMP JUMPDEST CALLVALUE DUP1 ISZERO PUSH2 0x5EE JUMPI PUSH1 0x0 DUP1 REVERT JUMPDEST POP PUSH2 0x261 PUSH2 0x13CA JUMP JUMPDEST PUSH2 0x5FF PUSH2 0x13D0 JUMP JUMPDEST PUSH1 0xF DUP1 SLOAD SWAP2 ISZERO ISZERO PUSH2 0x100 MUL PUSH2 0xFF00 NOT SWAP1 SWAP3 AND SWAP2 SWAP1 SWAP2 OR SWAP1 SSTORE JUMP JUMPDEST PUSH1 0x12 SLOAD DUP2 JUMP JUMPDEST PUSH1 0x16 PUSH1 0x20 MSTORE PUSH1 0x0 SWAP1 DUP2 MSTORE PUSH1 0x40 SWAP1 KECCAK256 SLOAD PUSH1 0x1 PUSH1 0x1 PUSH1 0xA0 SHL SUB AND DUP2 JUMP JUMPDEST PUSH1 0x13 SLOAD DUP2 JUMP JUMPDEST PUSH1 0xF SLOAD PUSH3 0x10000 SWAP1 DIV PUSH1 0xFF AND DUP2 JUMP JUMPDEST PUSH1 0xE SLOAD DUP2 JUMP JUMPDEST PUSH1 0xC SLOAD PUSH1 0x1 PUSH1 0x1 PUSH1 0xA0 SHL SUB AND CALLER EQ PUSH2 0x688 JUMPI PUSH1 0x40 MLOAD PUSH3 0x461BCD PUSH1 0xE5 SHL DUP2 MSTORE PUSH1 0x4 ADD PUSH2 0x67F SWAP1 PUSH2 0x2008 JUMP JUMPDEST PUSH1 0x40 MLOAD DUP1 SWAP2 SUB SWAP1 REVERT JUMPDEST DUP1 MLOAD PUSH2 0x69B SWAP1 PUSH1 0x9 SWAP1 PUSH1 0x20 DUP5 ADD SWAP1 PUSH2 0x193E JUMP JUMPDEST POP POP JUMP JUMPDEST PUSH1 0x13 SLOAD ISZERO PUSH2 0x6BF JUMPI PUSH1 0x40 MLOAD PUSH3 0x461BCD PUSH1 0xE5 SHL DUP2 MSTORE PUSH1 0x4 ADD PUSH2 0x67F SWAP1 PUSH2 0x1F5D JUMP JUMPDEST TIMESTAMP PUSH1 0x3 SLOAD LT PUSH2 0x6E0 JUMPI PUSH1 0x40 MLOAD PUSH3 0x461BCD PUSH1 0xE5 SHL DUP2 MSTORE PUSH1 0x4 ADD PUSH2 0x67F SWAP1 PUSH2 0x1E2E JUMP JUMPDEST TIMESTAMP PUSH1 0x4 SLOAD GT PUSH2 0x701 JUMPI PUSH1 0x40 MLOAD PUSH3 0x461BCD PUSH1 0xE5 SHL DUP2 MSTORE PUSH1 0x4 ADD PUSH2 0x67F SWAP1 PUSH2 0x1E5C JUMP JUMPDEST PUSH1 0x2 SLOAD PUSH1 0x10 SLOAD PUSH2 0x711 SWAP1 DUP4 PUSH2 0x2105 JUMP JUMPDEST GT ISZERO PUSH2 0x72F JUMPI PUSH1 0x40 MLOAD PUSH3 0x461BCD PUSH1 0xE5 SHL DUP2 MSTORE PUSH1 0x4 ADD PUSH2 0x67F SWAP1 PUSH2 0x20AE JUMP JUMPDEST PUSH1 0xB SLOAD PUSH1 0x1 PUSH1 0x1 PUSH1 0xA0 SHL SUB AND PUSH2 0x763 JUMPI CALLVALUE DUP2 EQ PUSH2 0x75E JUMPI PUSH1 0x40 MLOAD PUSH3 0x461BCD PUSH1 0xE5 SHL DUP2 MSTORE PUSH1 0x4 ADD PUSH2 0x67F SWAP1 PUSH2 0x1DC7 JUMP JUMPDEST PUSH2 0x7EB JUMP JUMPDEST PUSH1 0xB SLOAD PUSH1 0x40 MLOAD PUSH4 0x23B872DD PUSH1 0xE0 SHL DUP2 MSTORE PUSH1 0x1 PUSH1 0x1 PUSH1 0xA0 SHL SUB SWAP1 SWAP2 AND SWAP1 PUSH4 0x23B872DD SWAP1 PUSH2 0x797 SWAP1 CALLER SWAP1 ADDRESS SWAP1 DUP7 SWAP1 PUSH1 0x4 ADD PUSH2 0x1BE9 JUMP JUMPDEST PUSH1 0x20 PUSH1 0x40 MLOAD DUP1 DUP4 SUB DUP2 PUSH1 0x0 DUP8 DUP1 EXTCODESIZE ISZERO DUP1 ISZERO PUSH2 0x7B1 JUMPI PUSH1 0x0 DUP1 REVERT JUMPDEST POP GAS CALL ISZERO DUP1 ISZERO PUSH2 0x7C5 JUMPI RETURNDATASIZE PUSH1 0x0 DUP1 RETURNDATACOPY RETURNDATASIZE PUSH1 0x0 REVERT JUMPDEST POP POP POP POP PUSH1 0x40 MLOAD RETURNDATASIZE PUSH1 0x1F NOT PUSH1 0x1F DUP3 ADD AND DUP3 ADD DUP1 PUSH1 0x40 MSTORE POP DUP2 ADD SWAP1 PUSH2 0x7E9 SWAP2 SWAP1 PUSH2 0x1A3F JUMP JUMPDEST POP JUMPDEST CALLER PUSH1 0x0 SWAP1 DUP2 MSTORE PUSH1 0x14 PUSH1 0x20 MSTORE PUSH1 0x40 SWAP1 KECCAK256 SLOAD PUSH2 0x834 JUMPI PUSH1 0x12 DUP1 SLOAD PUSH1 0x0 SWAP1 DUP2 MSTORE PUSH1 0x16 PUSH1 0x20 MSTORE PUSH1 0x40 DUP2 KECCAK256 DUP1 SLOAD PUSH1 0x1 PUSH1 0x1 PUSH1 0xA0 SHL SUB NOT AND CALLER OR SWAP1 SSTORE DUP2 SLOAD SWAP2 SWAP1 PUSH2 0x82E DUP4 PUSH2 0x21AE JUMP JUMPDEST SWAP2 SWAP1 POP SSTORE POP JUMPDEST CALLER PUSH1 0x0 SWAP1 DUP2 MSTORE PUSH1 0x14 PUSH1 0x20 MSTORE PUSH1 0x40 DUP2 KECCAK256 DUP1 SLOAD DUP4 SWAP3 SWAP1 PUSH2 0x853 SWAP1 DUP5 SWAP1 PUSH2 0x2105 JUMP JUMPDEST SWAP1 SWAP2 SSTORE POP POP PUSH1 0x8 SLOAD CALLER PUSH1 0x0 SWAP1 DUP2 MSTORE PUSH1 0x14 PUSH1 0x20 MSTORE PUSH1 0x40 SWAP1 KECCAK256 SLOAD LT ISZERO PUSH2 0x889 JUMPI PUSH1 0x40 MLOAD PUSH3 0x461BCD PUSH1 0xE5 SHL DUP2 MSTORE PUSH1 0x4 ADD PUSH2 0x67F SWAP1 PUSH2 0x1F26 JUMP JUMPDEST PUSH1 0x7 SLOAD CALLER PUSH1 0x0 SWAP1 DUP2 MSTORE PUSH1 0x14 PUSH1 0x20 MSTORE PUSH1 0x40 SWAP1 KECCAK256 SLOAD GT ISZERO PUSH2 0x8BA JUMPI PUSH1 0x40 MLOAD PUSH3 0x461BCD PUSH1 0xE5 SHL DUP2 MSTORE PUSH1 0x4 ADD PUSH2 0x67F SWAP1 PUSH2 0x2032 JUMP JUMPDEST PUSH1 0x0 PUSH8 0xDE0B6B3A7640000 PUSH1 0xA PUSH1 0x0 SWAP1 SLOAD SWAP1 PUSH2 0x100 EXP SWAP1 DIV PUSH1 0x1 PUSH1 0x1 PUSH1 0xA0 SHL SUB AND PUSH1 0x1 PUSH1 0x1 PUSH1 0xA0 SHL SUB AND PUSH4 0x313CE567 PUSH1 0x40 MLOAD DUP2 PUSH4 0xFFFFFFFF AND PUSH1 0xE0 SHL DUP2 MSTORE PUSH1 0x4 ADD PUSH1 0x20 PUSH1 0x40 MLOAD DUP1 DUP4 SUB DUP2 DUP7 DUP1 EXTCODESIZE ISZERO DUP1 ISZERO PUSH2 0x913 JUMPI PUSH1 0x0 DUP1 REVERT JUMPDEST POP GAS STATICCALL ISZERO DUP1 ISZERO PUSH2 0x927 JUMPI RETURNDATASIZE PUSH1 0x0 DUP1 RETURNDATACOPY RETURNDATASIZE PUSH1 0x0 REVERT JUMPDEST POP POP POP POP PUSH1 0x40 MLOAD RETURNDATASIZE PUSH1 0x1F NOT PUSH1 0x1F DUP3 ADD AND DUP3 ADD DUP1 PUSH1 0x40 MSTORE POP DUP2 ADD SWAP1 PUSH2 0x94B SWAP2 SWAP1 PUSH2 0x1B2C JUMP JUMPDEST PUSH1 0xFF AND PUSH1 0x6 SLOAD DUP5 PUSH2 0x95C SWAP2 SWAP1 PUSH2 0x213D JUMP JUMPDEST PUSH2 0x966 SWAP2 SWAP1 PUSH2 0x213D JUMP JUMPDEST PUSH2 0x970 SWAP2 SWAP1 PUSH2 0x211D JUMP JUMPDEST SWAP1 POP DUP2 PUSH1 0x10 PUSH1 0x0 DUP3 DUP3 SLOAD PUSH2 0x984 SWAP2 SWAP1 PUSH2 0x2105 JUMP JUMPDEST SWAP3 POP POP DUP2 SWAP1 SSTORE POP DUP1 PUSH1 0x11 PUSH1 0x0 DUP3 DUP3 SLOAD PUSH2 0x99D SWAP2 SWAP1 PUSH2 0x2105 JUMP JUMPDEST SWAP1 SWAP2 SSTORE POP POP CALLER PUSH1 0x0 SWAP1 DUP2 MSTORE PUSH1 0x15 PUSH1 0x20 MSTORE PUSH1 0x40 DUP2 KECCAK256 DUP1 SLOAD DUP4 SWAP3 SWAP1 PUSH2 0x9C1 SWAP1 DUP5 SWAP1 PUSH2 0x2105 JUMP JUMPDEST SWAP1 SWAP2 SSTORE POP POP PUSH1 0x17 SLOAD PUSH1 0x40 MLOAD PUSH4 0xBF21695F PUSH1 0xE0 SHL DUP2 MSTORE PUSH1 0x1 PUSH1 0x1 PUSH1 0xA0 SHL SUB SWAP1 SWAP2 AND SWAP1 PUSH4 0xBF21695F SWAP1 PUSH2 0x9F8 SWAP1 CALLER SWAP1 ADDRESS SWAP1 PUSH1 0x4 ADD PUSH2 0x1BCF JUMP JUMPDEST PUSH1 0x0 PUSH1 0x40 MLOAD DUP1 DUP4 SUB DUP2 PUSH1 0x0 DUP8 DUP1 EXTCODESIZE ISZERO DUP1 ISZERO PUSH2 0xA12 JUMPI PUSH1 0x0 DUP1 REVERT JUMPDEST POP GAS CALL ISZERO DUP1 ISZERO PUSH2 0xA26 JUMPI RETURNDATASIZE PUSH1 0x0 DUP1 RETURNDATACOPY RETURNDATASIZE PUSH1 0x0 REVERT JUMPDEST POP POP POP POP PUSH32 0x4DA1776B54EBFE9617CAF57A31E9A4B2F316BFD0EE0614D6C61597AE94BA251 DUP3 CALLER PUSH1 0x40 MLOAD PUSH2 0xA5B SWAP3 SWAP2 SWAP1 PUSH2 0x20E0 JUMP JUMPDEST PUSH1 0x40 MLOAD DUP1 SWAP2 SUB SWAP1 LOG1 POP POP JUMP JUMPDEST PUSH1 0x4 SLOAD DUP2 JUMP JUMPDEST PUSH1 0xD SLOAD DUP2 JUMP JUMPDEST PUSH1 0x9 DUP1 SLOAD PUSH2 0xA80 SWAP1 PUSH2 0x2173 JUMP JUMPDEST DUP1 PUSH1 0x1F ADD PUSH1 0x20 DUP1 SWAP2 DIV MUL PUSH1 0x20 ADD PUSH1 0x40 MLOAD SWAP1 DUP2 ADD PUSH1 0x40 MSTORE DUP1 SWAP3 SWAP2 SWAP1 DUP2 DUP2 MSTORE PUSH1 0x20 ADD DUP3 DUP1 SLOAD PUSH2 0xAAC SWAP1 PUSH2 0x2173 JUMP JUMPDEST DUP1 ISZERO PUSH2 0xAF9 JUMPI DUP1 PUSH1 0x1F LT PUSH2 0xACE JUMPI PUSH2 0x100 DUP1 DUP4 SLOAD DIV MUL DUP4 MSTORE SWAP2 PUSH1 0x20 ADD SWAP2 PUSH2 0xAF9 JUMP JUMPDEST DUP3 ADD SWAP2 SWAP1 PUSH1 0x0 MSTORE PUSH1 0x20 PUSH1 0x0 KECCAK256 SWAP1 JUMPDEST DUP2 SLOAD DUP2 MSTORE SWAP1 PUSH1 0x1 ADD SWAP1 PUSH1 0x20 ADD DUP1 DUP4 GT PUSH2 0xADC JUMPI DUP3 SWAP1 SUB PUSH1 0x1F AND DUP3 ADD SWAP2 JUMPDEST POP POP POP POP POP DUP2 JUMP JUMPDEST PUSH1 0x6 SLOAD DUP2 JUMP JUMPDEST PUSH1 0x14 PUSH1 0x20 MSTORE PUSH1 0x0 SWAP1 DUP2 MSTORE PUSH1 0x40 SWAP1 KECCAK256 SLOAD DUP2 JUMP JUMPDEST PUSH1 0x4 SLOAD TIMESTAMP GT PUSH2 0xB3A JUMPI PUSH1 0x40 MLOAD PUSH3 0x461BCD PUSH1 0xE5 SHL DUP2 MSTORE PUSH1 0x4 ADD PUSH2 0x67F SWAP1 PUSH2 0x1DF7 JUMP JUMPDEST PUSH1 0x13 SLOAD ISZERO PUSH2 0xB5A JUMPI PUSH1 0x40 MLOAD PUSH3 0x461BCD PUSH1 0xE5 SHL DUP2 MSTORE PUSH1 0x4 ADD PUSH2 0x67F SWAP1 PUSH2 0x2069 JUMP JUMPDEST CALLER PUSH1 0x0 DUP2 DUP2 MSTORE PUSH1 0x15 PUSH1 0x20 MSTORE PUSH1 0x40 DUP1 DUP3 KECCAK256 DUP1 SLOAD SWAP3 SWAP1 SSTORE PUSH1 0xA SLOAD SWAP1 MLOAD PUSH4 0x23B872DD PUSH1 0xE0 SHL DUP2 MSTORE SWAP2 SWAP3 PUSH1 0x1 PUSH1 0x1 PUSH1 0xA0 SHL SUB SWAP1 SWAP2 AND SWAP2 PUSH4 0x23B872DD SWAP2 PUSH2 0xBA3 SWAP2 ADDRESS SWAP2 SWAP1 DUP7 SWAP1 PUSH1 0x4 ADD PUSH2 0x1BE9 JUMP JUMPDEST PUSH1 0x20 PUSH1 0x40 MLOAD DUP1 DUP4 SUB DUP2 PUSH1 0x0 DUP8 DUP1 EXTCODESIZE ISZERO DUP1 ISZERO PUSH2 0xBBD JUMPI PUSH1 0x0 DUP1 REVERT JUMPDEST POP GAS CALL ISZERO DUP1 ISZERO PUSH2 0xBD1 JUMPI RETURNDATASIZE PUSH1 0x0 DUP1 RETURNDATACOPY RETURNDATASIZE PUSH1 0x0 REVERT JUMPDEST POP POP POP POP PUSH1 0x40 MLOAD RETURNDATASIZE PUSH1 0x1F NOT PUSH1 0x1F DUP3 ADD AND DUP3 ADD DUP1 PUSH1 0x40 MSTORE POP DUP2 ADD SWAP1 PUSH2 0xBF5 SWAP2 SWAP1 PUSH2 0x1A3F JUMP JUMPDEST POP PUSH32 0x3BEB98421D990A16CA9090D8D7C25AAEEFF9D855A287AC0854E6BEE846BA990D DUP2 CALLER PUSH1 0x40 MLOAD PUSH2 0xC27 SWAP3 SWAP2 SWAP1 PUSH2 0x20E0 JUMP JUMPDEST PUSH1 0x40 MLOAD DUP1 SWAP2 SUB SWAP1 LOG1 POP JUMP JUMPDEST PUSH1 0x0 SLOAD PUSH1 0x1 PUSH1 0xA0 SHL SWAP1 DIV PUSH1 0xFF AND SWAP1 JUMP JUMPDEST PUSH2 0xC4A PUSH2 0x13D0 JUMP JUMPDEST PUSH2 0xC54 PUSH1 0x0 PUSH2 0x140F JUMP JUMPDEST JUMP JUMPDEST PUSH1 0x7 SLOAD DUP2 JUMP JUMPDEST PUSH1 0x8 SLOAD DUP2 JUMP JUMPDEST PUSH1 0x3 SLOAD DUP2 JUMP JUMPDEST PUSH1 0xF SLOAD PUSH2 0x100 SWAP1 DIV PUSH1 0xFF AND DUP2 JUMP JUMPDEST PUSH2 0xC7E PUSH2 0x19C2 JUMP JUMPDEST PUSH2 0xC86 PUSH2 0x19C2 JUMP JUMPDEST PUSH2 0xC8E PUSH2 0x19C2 JUMP JUMPDEST PUSH2 0xC96 PUSH2 0x19C2 JUMP JUMPDEST PUSH1 0x60 PUSH1 0x0 DUP1 PUSH1 0x0 DUP1 PUSH1 0x0 DUP1 PUSH1 0x40 MLOAD DUP1 PUSH1 0x40 ADD PUSH1 0x40 MSTORE DUP1 PUSH1 0x1 SLOAD DUP2 MSTORE PUSH1 0x20 ADD PUSH1 0x2 SLOAD DUP2 MSTORE POP PUSH1 0x40 MLOAD DUP1 PUSH1 0x40 ADD PUSH1 0x40 MSTORE DUP1 PUSH1 0x3 SLOAD DUP2 MSTORE PUSH1 0x20 ADD PUSH1 0x4 SLOAD DUP2 MSTORE POP PUSH1 0x40 MLOAD DUP1 PUSH1 0x40 ADD PUSH1 0x40 MSTORE DUP1 PUSH1 0x6 SLOAD DUP2 MSTORE PUSH1 0x20 ADD PUSH1 0x5 SLOAD DUP2 MSTORE POP PUSH1 0x40 MLOAD DUP1 PUSH1 0x40 ADD PUSH1 0x40 MSTORE DUP1 PUSH1 0x8 SLOAD DUP2 MSTORE PUSH1 0x20 ADD PUSH1 0x7 SLOAD DUP2 MSTORE POP PUSH1 0x9 PUSH1 0xA PUSH1 0x0 SWAP1 SLOAD SWAP1 PUSH2 0x100 EXP SWAP1 DIV PUSH1 0x1 PUSH1 0x1 PUSH1 0xA0 SHL SUB AND PUSH1 0xB PUSH1 0x0 SWAP1 SLOAD SWAP1 PUSH2 0x100 EXP SWAP1 DIV PUSH1 0x1 PUSH1 0x1 PUSH1 0xA0 SHL SUB AND PUSH1 0xF PUSH1 0x0 SWAP1 SLOAD SWAP1 PUSH2 0x100 EXP SWAP1 DIV PUSH1 0xFF AND PUSH1 0xF PUSH1 0x1 SWAP1 SLOAD SWAP1 PUSH2 0x100 EXP SWAP1 DIV PUSH1 0xFF AND PUSH1 0x10 SLOAD PUSH1 0x13 SLOAD DUP7 DUP1 SLOAD PUSH2 0xD65 SWAP1 PUSH2 0x2173 JUMP JUMPDEST DUP1 PUSH1 0x1F ADD PUSH1 0x20 DUP1 SWAP2 DIV MUL PUSH1 0x20 ADD PUSH1 0x40 MLOAD SWAP1 DUP2 ADD PUSH1 0x40 MSTORE DUP1 SWAP3 SWAP2 SWAP1 DUP2 DUP2 MSTORE PUSH1 0x20 ADD DUP3 DUP1 SLOAD PUSH2 0xD91 SWAP1 PUSH2 0x2173 JUMP JUMPDEST DUP1 ISZERO PUSH2 0xDDE JUMPI DUP1 PUSH1 0x1F LT PUSH2 0xDB3 JUMPI PUSH2 0x100 DUP1 DUP4 SLOAD DIV MUL DUP4 MSTORE SWAP2 PUSH1 0x20 ADD SWAP2 PUSH2 0xDDE JUMP JUMPDEST DUP3 ADD SWAP2 SWAP1 PUSH1 0x0 MSTORE PUSH1 0x20 PUSH1 0x0 KECCAK256 SWAP1 JUMPDEST DUP2 SLOAD DUP2 MSTORE SWAP1 PUSH1 0x1 ADD SWAP1 PUSH1 0x20 ADD DUP1 DUP4 GT PUSH2 0xDC1 JUMPI DUP3 SWAP1 SUB PUSH1 0x1F AND DUP3 ADD SWAP2 JUMPDEST POP POP POP POP POP SWAP7 POP SWAP11 POP SWAP11 POP SWAP11 POP SWAP11 POP SWAP11 POP SWAP11 POP SWAP11 POP SWAP11 POP SWAP11 POP SWAP11 POP SWAP11 POP SWAP1 SWAP2 SWAP3 SWAP4 SWAP5 SWAP6 SWAP7 SWAP8 SWAP9 SWAP10 SWAP11 JUMP JUMPDEST PUSH1 0x10 SLOAD DUP2 JUMP JUMPDEST PUSH1 0x0 SLOAD PUSH1 0x1 PUSH1 0x1 PUSH1 0xA0 SHL SUB AND SWAP1 JUMP JUMPDEST PUSH2 0xE25 PUSH2 0xE0E JUMP JUMPDEST PUSH1 0x1 PUSH1 0x1 PUSH1 0xA0 SHL SUB AND CALLER PUSH1 0x1 PUSH1 0x1 PUSH1 0xA0 SHL SUB AND EQ DUP1 PUSH2 0xE4E JUMPI POP PUSH1 0xC SLOAD PUSH1 0x1 PUSH1 0x1 PUSH1 0xA0 SHL SUB AND CALLER EQ JUMPDEST PUSH2 0xE6A JUMPI PUSH1 0x40 MLOAD PUSH3 0x461BCD PUSH1 0xE5 SHL DUP2 MSTORE PUSH1 0x4 ADD PUSH2 0x67F SWAP1 PUSH2 0x1D55 JUMP JUMPDEST PUSH1 0x4 SLOAD TIMESTAMP GT PUSH2 0xE8B JUMPI PUSH1 0x40 MLOAD PUSH3 0x461BCD PUSH1 0xE5 SHL DUP2 MSTORE PUSH1 0x4 ADD PUSH2 0x67F SWAP1 PUSH2 0x1FBE JUMP JUMPDEST PUSH1 0x13 SLOAD ISZERO PUSH2 0xEAB JUMPI PUSH1 0x40 MLOAD PUSH3 0x461BCD PUSH1 0xE5 SHL DUP2 MSTORE PUSH1 0x4 ADD PUSH2 0x67F SWAP1 PUSH2 0x2069 JUMP JUMPDEST PUSH1 0x1 SLOAD PUSH1 0x10 SLOAD LT ISZERO PUSH2 0xECF JUMPI PUSH1 0x40 MLOAD PUSH3 0x461BCD PUSH1 0xE5 SHL DUP2 MSTORE PUSH1 0x4 ADD PUSH2 0x67F SWAP1 PUSH2 0x1EC1 JUMP JUMPDEST PUSH1 0x1 PUSH1 0x13 SSTORE PUSH2 0xEDC PUSH2 0x145F JUMP JUMPDEST PUSH32 0x99E95C9A161A7C99D3DC664B3058A5482967AFE83AE408003EBD3223D68C2964 TIMESTAMP PUSH1 0x10 SLOAD PUSH1 0x40 MLOAD PUSH2 0xF0F SWAP3 SWAP2 SWAP1 PUSH2 0x20F7 JUMP JUMPDEST PUSH1 0x40 MLOAD DUP1 SWAP2 SUB SWAP1 LOG1 JUMP JUMPDEST PUSH1 0x1 SLOAD DUP2 JUMP JUMPDEST PUSH1 0xF SLOAD PUSH1 0xFF AND DUP2 JUMP JUMPDEST PUSH1 0x15 PUSH1 0x20 MSTORE PUSH1 0x0 SWAP1 DUP2 MSTORE PUSH1 0x40 SWAP1 KECCAK256 SLOAD DUP2 JUMP JUMPDEST PUSH1 0x5 SLOAD DUP2 JUMP JUMPDEST PUSH1 0xB SLOAD PUSH1 0x1 PUSH1 0x1 PUSH1 0xA0 SHL SUB AND DUP2 JUMP JUMPDEST PUSH1 0x13 SLOAD PUSH1 0x2 EQ PUSH2 0xF71 JUMPI PUSH1 0x40 MLOAD PUSH3 0x461BCD PUSH1 0xE5 SHL DUP2 MSTORE PUSH1 0x4 ADD PUSH2 0x67F SWAP1 PUSH2 0x1F87 JUMP JUMPDEST CALLER PUSH1 0x0 SWAP1 DUP2 MSTORE PUSH1 0x14 PUSH1 0x20 MSTORE PUSH1 0x40 SWAP1 KECCAK256 SLOAD DUP1 PUSH2 0xF9E JUMPI PUSH1 0x40 MLOAD PUSH3 0x461BCD PUSH1 0xE5 SHL DUP2 MSTORE PUSH1 0x4 ADD PUSH2 0x67F SWAP1 PUSH2 0x1EEF JUMP JUMPDEST CALLER PUSH1 0x0 SWAP1 DUP2 MSTORE PUSH1 0x14 PUSH1 0x20 MSTORE PUSH1 0x40 DUP2 KECCAK256 SSTORE PUSH1 0xB SLOAD PUSH1 0x1 PUSH1 0x1 PUSH1 0xA0 SHL SUB AND PUSH2 0xFF1 JUMPI PUSH1 0x40 MLOAD CALLER SWAP1 DUP3 ISZERO PUSH2 0x8FC MUL SWAP1 DUP4 SWAP1 PUSH1 0x0 DUP2 DUP2 DUP2 DUP6 DUP9 DUP9 CALL SWAP4 POP POP POP POP ISZERO DUP1 ISZERO PUSH2 0xFEB JUMPI RETURNDATASIZE PUSH1 0x0 DUP1 RETURNDATACOPY RETURNDATASIZE PUSH1 0x0 REVERT JUMPDEST POP PUSH2 0x1077 JUMP JUMPDEST PUSH1 0xB SLOAD PUSH1 0x40 MLOAD PUSH4 0xA9059CBB PUSH1 0xE0 SHL DUP2 MSTORE PUSH1 0x1 PUSH1 0x1 PUSH1 0xA0 SHL SUB SWAP1 SWAP2 AND SWAP1 PUSH4 0xA9059CBB SWAP1 PUSH2 0x1023 SWAP1 CALLER SWAP1 DUP6 SWAP1 PUSH1 0x4 ADD PUSH2 0x1C0D JUMP JUMPDEST PUSH1 0x20 PUSH1 0x40 MLOAD DUP1 DUP4 SUB DUP2 PUSH1 0x0 DUP8 DUP1 EXTCODESIZE ISZERO DUP1 ISZERO PUSH2 0x103D JUMPI PUSH1 0x0 DUP1 REVERT JUMPDEST POP GAS CALL ISZERO DUP1 ISZERO PUSH2 0x1051 JUMPI RETURNDATASIZE PUSH1 0x0 DUP1 RETURNDATACOPY RETURNDATASIZE PUSH1 0x0 REVERT JUMPDEST POP POP POP POP PUSH1 0x40 MLOAD RETURNDATASIZE PUSH1 0x1F NOT PUSH1 0x1F DUP3 ADD AND DUP3 ADD DUP1 PUSH1 0x40 MSTORE POP DUP2 ADD SWAP1 PUSH2 0x1075 SWAP2 SWAP1 PUSH2 0x1A3F JUMP JUMPDEST POP JUMPDEST PUSH32 0xEDB8F34A75DC967013BAC8C91F25135D59BC85673D66FC55A7DBD7ED3F8A1F69 DUP2 CALLER PUSH1 0x40 MLOAD PUSH2 0xC27 SWAP3 SWAP2 SWAP1 PUSH2 0x20E0 JUMP JUMPDEST PUSH1 0x60 DUP1 PUSH1 0x12 SLOAD PUSH8 0xFFFFFFFFFFFFFFFF DUP2 GT ISZERO PUSH2 0x10D4 JUMPI PUSH4 0x4E487B71 PUSH1 0xE0 SHL PUSH1 0x0 MSTORE PUSH1 0x41 PUSH1 0x4 MSTORE PUSH1 0x24 PUSH1 0x0 REVERT JUMPDEST PUSH1 0x40 MLOAD SWAP1 DUP1 DUP3 MSTORE DUP1 PUSH1 0x20 MUL PUSH1 0x20 ADD DUP3 ADD PUSH1 0x40 MSTORE DUP1 ISZERO PUSH2 0x10FD JUMPI DUP2 PUSH1 0x20 ADD PUSH1 0x20 DUP3 MUL DUP1 CALLDATASIZE DUP4 CALLDATACOPY ADD SWAP1 POP JUMPDEST POP SWAP2 POP PUSH1 0x12 SLOAD PUSH8 0xFFFFFFFFFFFFFFFF DUP2 GT ISZERO PUSH2 0x1129 JUMPI PUSH4 0x4E487B71 PUSH1 0xE0 SHL PUSH1 0x0 MSTORE PUSH1 0x41 PUSH1 0x4 MSTORE PUSH1 0x24 PUSH1 0x0 REVERT JUMPDEST PUSH1 0x40 MLOAD SWAP1 DUP1 DUP3 MSTORE DUP1 PUSH1 0x20 MUL PUSH1 0x20 ADD DUP3 ADD PUSH1 0x40 MSTORE DUP1 ISZERO PUSH2 0x1152 JUMPI DUP2 PUSH1 0x20 ADD PUSH1 0x20 DUP3 MUL DUP1 CALLDATASIZE DUP4 CALLDATACOPY ADD SWAP1 POP JUMPDEST POP SWAP1 POP PUSH1 0x0 JUMPDEST PUSH1 0x12 SLOAD DUP2 LT ISZERO PUSH2 0x1225 JUMPI PUSH1 0x0 DUP2 DUP2 MSTORE PUSH1 0x16 PUSH1 0x20 MSTORE PUSH1 0x40 SWAP1 KECCAK256 SLOAD DUP4 MLOAD PUSH1 0x1 PUSH1 0x1 PUSH1 0xA0 SHL SUB SWAP1 SWAP2 AND SWAP1 DUP2 SWAP1 DUP6 SWAP1 DUP5 SWAP1 DUP2 LT PUSH2 0x11A1 JUMPI PUSH4 0x4E487B71 PUSH1 0xE0 SHL PUSH1 0x0 MSTORE PUSH1 0x32 PUSH1 0x4 MSTORE PUSH1 0x24 PUSH1 0x0 REVERT JUMPDEST PUSH1 0x20 MUL PUSH1 0x20 ADD ADD SWAP1 PUSH1 0x1 PUSH1 0x1 PUSH1 0xA0 SHL SUB AND SWAP1 DUP2 PUSH1 0x1 PUSH1 0x1 PUSH1 0xA0 SHL SUB AND DUP2 MSTORE POP POP PUSH1 0x14 PUSH1 0x0 DUP3 PUSH1 0x1 PUSH1 0x1 PUSH1 0xA0 SHL SUB AND PUSH1 0x1 PUSH1 0x1 PUSH1 0xA0 SHL SUB AND DUP2 MSTORE PUSH1 0x20 ADD SWAP1 DUP2 MSTORE PUSH1 0x20 ADD PUSH1 0x0 KECCAK256 SLOAD DUP4 DUP4 DUP2 MLOAD DUP2 LT PUSH2 0x1207 JUMPI PUSH4 0x4E487B71 PUSH1 0xE0 SHL PUSH1 0x0 MSTORE PUSH1 0x32 PUSH1 0x4 MSTORE PUSH1 0x24 PUSH1 0x0 REVERT JUMPDEST PUSH1 0x20 SWAP1 DUP2 MUL SWAP2 SWAP1 SWAP2 ADD ADD MSTORE POP DUP1 PUSH2 0x121D DUP2 PUSH2 0x21AE JUMP JUMPDEST SWAP2 POP POP PUSH2 0x1158 JUMP JUMPDEST POP SWAP1 SWAP2 JUMP JUMPDEST PUSH1 0xA SLOAD PUSH1 0x1 PUSH1 0x1 PUSH1 0xA0 SHL SUB AND DUP2 JUMP JUMPDEST PUSH1 0x11 SLOAD DUP2 JUMP JUMPDEST PUSH2 0x1247 PUSH2 0xE0E JUMP JUMPDEST PUSH1 0x1 PUSH1 0x1 PUSH1 0xA0 SHL SUB AND CALLER PUSH1 0x1 PUSH1 0x1 PUSH1 0xA0 SHL SUB AND EQ DUP1 PUSH2 0x1270 JUMPI POP PUSH1 0xC SLOAD PUSH1 0x1 PUSH1 0x1 PUSH1 0xA0 SHL SUB AND CALLER EQ JUMPDEST PUSH2 0x128C JUMPI PUSH1 0x40 MLOAD PUSH3 0x461BCD PUSH1 0xE5 SHL DUP2 MSTORE PUSH1 0x4 ADD PUSH2 0x67F SWAP1 PUSH2 0x1D55 JUMP JUMPDEST PUSH1 0x13 SLOAD ISZERO PUSH2 0x12AC JUMPI PUSH1 0x40 MLOAD PUSH3 0x461BCD PUSH1 0xE5 SHL DUP2 MSTORE PUSH1 0x4 ADD PUSH2 0x67F SWAP1 PUSH2 0x2069 JUMP JUMPDEST PUSH1 0x2 PUSH1 0x13 SSTORE PUSH1 0x17 SLOAD PUSH1 0x40 MLOAD PUSH4 0xC4B07D85 PUSH1 0xE0 SHL DUP2 MSTORE PUSH1 0x1 PUSH1 0x1 PUSH1 0xA0 SHL SUB SWAP1 SWAP2 AND SWAP1 PUSH4 0xC4B07D85 SWAP1 PUSH2 0x12E1 SWAP1 ADDRESS SWAP1 PUSH1 0x4 ADD PUSH2 0x1BBB JUMP JUMPDEST PUSH1 0x0 PUSH1 0x40 MLOAD DUP1 DUP4 SUB DUP2 PUSH1 0x0 DUP8 DUP1 EXTCODESIZE ISZERO DUP1 ISZERO PUSH2 0x12FB JUMPI PUSH1 0x0 DUP1 REVERT JUMPDEST POP GAS CALL ISZERO DUP1 ISZERO PUSH2 0x130F JUMPI RETURNDATASIZE PUSH1 0x0 DUP1 RETURNDATACOPY RETURNDATASIZE PUSH1 0x0 REVERT JUMPDEST POP POP POP POP PUSH32 0x7D789068B0DEED1C53F4572064780AB55E54305E6DF362874C45AD39C4C3766E TIMESTAMP CALLER PUSH1 0x40 MLOAD PUSH2 0xF0F SWAP3 SWAP2 SWAP1 PUSH2 0x20E0 JUMP JUMPDEST PUSH1 0xC SLOAD PUSH1 0x1 PUSH1 0x1 PUSH1 0xA0 SHL SUB AND CALLER EQ PUSH2 0x136E JUMPI PUSH1 0x40 MLOAD PUSH3 0x461BCD PUSH1 0xE5 SHL DUP2 MSTORE PUSH1 0x4 ADD PUSH2 0x67F SWAP1 PUSH2 0x2008 JUMP JUMPDEST PUSH1 0xF DUP1 SLOAD PUSH1 0xFF NOT AND SWAP2 ISZERO ISZERO SWAP2 SWAP1 SWAP2 OR SWAP1 SSTORE JUMP JUMPDEST PUSH2 0x1389 PUSH2 0x13D0 JUMP JUMPDEST PUSH1 0x1 PUSH1 0x1 PUSH1 0xA0 SHL SUB DUP2 AND PUSH2 0x13AF JUMPI PUSH1 0x40 MLOAD PUSH3 0x461BCD PUSH1 0xE5 SHL DUP2 MSTORE PUSH1 0x4 ADD PUSH2 0x67F SWAP1 PUSH2 0x1D81 JUMP JUMPDEST PUSH2 0x13B8 DUP2 PUSH2 0x140F JUMP JUMPDEST POP JUMP JUMPDEST PUSH1 0xC SLOAD PUSH1 0x1 PUSH1 0x1 PUSH1 0xA0 SHL SUB AND DUP2 JUMP JUMPDEST PUSH1 0x2 SLOAD DUP2 JUMP JUMPDEST PUSH2 0x13D8 PUSH2 0x193A JUMP JUMPDEST PUSH1 0x1 PUSH1 0x1 PUSH1 0xA0 SHL SUB AND PUSH2 0x13E9 PUSH2 0xE0E JUMP JUMPDEST PUSH1 0x1 PUSH1 0x1 PUSH1 0xA0 SHL SUB AND EQ PUSH2 0xC54 JUMPI PUSH1 0x40 MLOAD PUSH3 0x461BCD PUSH1 0xE5 SHL DUP2 MSTORE PUSH1 0x4 ADD PUSH2 0x67F SWAP1 PUSH2 0x1E8C JUMP JUMPDEST PUSH1 0x0 DUP1 SLOAD PUSH1 0x1 PUSH1 0x1 PUSH1 0xA0 SHL SUB DUP4 DUP2 AND PUSH1 0x1 PUSH1 0x1 PUSH1 0xA0 SHL SUB NOT DUP4 AND DUP2 OR DUP5 SSTORE PUSH1 0x40 MLOAD SWAP2 SWAP1 SWAP3 AND SWAP3 DUP4 SWAP2 PUSH32 0x8BE0079C531659141344CD1FD0A4F28419497F9722A3DAAFE3B4186F6B6457E0 SWAP2 SWAP1 LOG3 POP POP JUMP JUMPDEST PUSH1 0x0 DUP1 PUSH1 0x0 DUP1 PUSH1 0xE SLOAD GT ISZERO PUSH2 0x148E JUMPI PUSH2 0x2710 PUSH1 0xE SLOAD PUSH1 0x10 SLOAD PUSH2 0x1481 SWAP2 SWAP1 PUSH2 0x213D JUMP JUMPDEST PUSH2 0x148B SWAP2 SWAP1 PUSH2 0x211D JUMP JUMPDEST SWAP2 POP JUMPDEST PUSH1 0xD SLOAD ISZERO PUSH2 0x14B6 JUMPI PUSH2 0x2710 PUSH1 0xD SLOAD PUSH1 0x11 SLOAD PUSH2 0x14A9 SWAP2 SWAP1 PUSH2 0x213D JUMP JUMPDEST PUSH2 0x14B3 SWAP2 SWAP1 PUSH2 0x211D JUMP JUMPDEST SWAP1 POP JUMPDEST PUSH1 0xB SLOAD PUSH1 0x1 PUSH1 0x1 PUSH1 0xA0 SHL SUB AND PUSH2 0x1540 JUMPI PUSH1 0xC SLOAD PUSH1 0x40 MLOAD SELFBALANCE SWAP5 POP PUSH1 0x1 PUSH1 0x1 PUSH1 0xA0 SHL SUB SWAP1 SWAP2 AND SWAP1 DUP4 ISZERO PUSH2 0x8FC MUL SWAP1 DUP5 SWAP1 PUSH1 0x0 DUP2 DUP2 DUP2 DUP6 DUP9 DUP9 CALL SWAP4 POP POP POP POP ISZERO DUP1 ISZERO PUSH2 0x1503 JUMPI RETURNDATASIZE PUSH1 0x0 DUP1 RETURNDATACOPY RETURNDATASIZE PUSH1 0x0 REVERT JUMPDEST POP CALLER PUSH2 0x8FC PUSH2 0x1512 DUP5 DUP7 PUSH2 0x215C JUMP JUMPDEST PUSH1 0x40 MLOAD DUP2 ISZERO SWAP1 SWAP3 MUL SWAP2 PUSH1 0x0 DUP2 DUP2 DUP2 DUP6 DUP9 DUP9 CALL SWAP4 POP POP POP POP ISZERO DUP1 ISZERO PUSH2 0x153A JUMPI RETURNDATASIZE PUSH1 0x0 DUP1 RETURNDATACOPY RETURNDATASIZE PUSH1 0x0 REVERT JUMPDEST POP PUSH2 0x16D8 JUMP JUMPDEST PUSH1 0xB SLOAD PUSH1 0x40 MLOAD PUSH4 0x70A08231 PUSH1 0xE0 SHL DUP2 MSTORE PUSH1 0x1 PUSH1 0x1 PUSH1 0xA0 SHL SUB SWAP1 SWAP2 AND SWAP1 PUSH4 0x70A08231 SWAP1 PUSH2 0x1570 SWAP1 ADDRESS SWAP1 PUSH1 0x4 ADD PUSH2 0x1BBB JUMP JUMPDEST PUSH1 0x20 PUSH1 0x40 MLOAD DUP1 DUP4 SUB DUP2 DUP7 DUP1 EXTCODESIZE ISZERO DUP1 ISZERO PUSH2 0x1588 JUMPI PUSH1 0x0 DUP1 REVERT JUMPDEST POP GAS STATICCALL ISZERO DUP1 ISZERO PUSH2 0x159C JUMPI RETURNDATASIZE PUSH1 0x0 DUP1 RETURNDATACOPY RETURNDATASIZE PUSH1 0x0 REVERT JUMPDEST POP POP POP POP PUSH1 0x40 MLOAD RETURNDATASIZE PUSH1 0x1F NOT PUSH1 0x1F DUP3 ADD AND DUP3 ADD DUP1 PUSH1 0x40 MSTORE POP DUP2 ADD SWAP1 PUSH2 0x15C0 SWAP2 SWAP1 PUSH2 0x1B14 JUMP JUMPDEST PUSH1 0xB SLOAD PUSH1 0xC SLOAD PUSH1 0x40 MLOAD PUSH4 0xA9059CBB PUSH1 0xE0 SHL DUP2 MSTORE SWAP3 SWAP6 POP PUSH1 0x1 PUSH1 0x1 PUSH1 0xA0 SHL SUB SWAP2 DUP3 AND SWAP3 PUSH4 0xA9059CBB SWAP3 PUSH2 0x15F8 SWAP3 AND SWAP1 DUP7 SWAP1 PUSH1 0x4 ADD PUSH2 0x1C0D JUMP JUMPDEST PUSH1 0x20 PUSH1 0x40 MLOAD DUP1 DUP4 SUB DUP2 PUSH1 0x0 DUP8 DUP1 EXTCODESIZE ISZERO DUP1 ISZERO PUSH2 0x1612 JUMPI PUSH1 0x0 DUP1 REVERT JUMPDEST POP GAS CALL ISZERO DUP1 ISZERO PUSH2 0x1626 JUMPI RETURNDATASIZE PUSH1 0x0 DUP1 RETURNDATACOPY RETURNDATASIZE PUSH1 0x0 REVERT JUMPDEST POP POP POP POP PUSH1 0x40 MLOAD RETURNDATASIZE PUSH1 0x1F NOT PUSH1 0x1F DUP3 ADD AND DUP3 ADD DUP1 PUSH1 0x40 MSTORE POP DUP2 ADD SWAP1 PUSH2 0x164A SWAP2 SWAP1 PUSH2 0x1A3F JUMP JUMPDEST POP PUSH1 0xB SLOAD PUSH1 0x1 PUSH1 0x1 PUSH1 0xA0 SHL SUB AND PUSH4 0xA9059CBB CALLER PUSH2 0x1667 DUP6 DUP8 PUSH2 0x215C JUMP JUMPDEST PUSH1 0x40 MLOAD DUP4 PUSH4 0xFFFFFFFF AND PUSH1 0xE0 SHL DUP2 MSTORE PUSH1 0x4 ADD PUSH2 0x1684 SWAP3 SWAP2 SWAP1 PUSH2 0x1C0D JUMP JUMPDEST PUSH1 0x20 PUSH1 0x40 MLOAD DUP1 DUP4 SUB DUP2 PUSH1 0x0 DUP8 DUP1 EXTCODESIZE ISZERO DUP1 ISZERO PUSH2 0x169E JUMPI PUSH1 0x0 DUP1 REVERT JUMPDEST POP GAS CALL ISZERO DUP1 ISZERO PUSH2 0x16B2 JUMPI RETURNDATASIZE PUSH1 0x0 DUP1 RETURNDATACOPY RETURNDATASIZE PUSH1 0x0 REVERT JUMPDEST POP POP POP POP PUSH1 0x40 MLOAD RETURNDATASIZE PUSH1 0x1F NOT PUSH1 0x1F DUP3 ADD AND DUP3 ADD DUP1 PUSH1 0x40 MSTORE POP DUP2 ADD SWAP1 PUSH2 0x16D6 SWAP2 SWAP1 PUSH2 0x1A3F JUMP JUMPDEST POP JUMPDEST DUP1 ISZERO PUSH2 0x1768 JUMPI PUSH1 0xA SLOAD PUSH1 0xC SLOAD PUSH1 0x40 MLOAD PUSH4 0xA9059CBB PUSH1 0xE0 SHL DUP2 MSTORE PUSH1 0x1 PUSH1 0x1 PUSH1 0xA0 SHL SUB SWAP3 DUP4 AND SWAP3 PUSH4 0xA9059CBB SWAP3 PUSH2 0x1714 SWAP3 SWAP2 AND SWAP1 DUP6 SWAP1 PUSH1 0x4 ADD PUSH2 0x1C0D JUMP JUMPDEST PUSH1 0x20 PUSH1 0x40 MLOAD DUP1 DUP4 SUB DUP2 PUSH1 0x0 DUP8 DUP1 EXTCODESIZE ISZERO DUP1 ISZERO PUSH2 0x172E JUMPI PUSH1 0x0 DUP1 REVERT JUMPDEST POP GAS CALL ISZERO DUP1 ISZERO PUSH2 0x1742 JUMPI RETURNDATASIZE PUSH1 0x0 DUP1 RETURNDATACOPY RETURNDATASIZE PUSH1 0x0 REVERT JUMPDEST POP POP POP POP PUSH1 0x40 MLOAD RETURNDATASIZE PUSH1 0x1F NOT PUSH1 0x1F DUP3 ADD AND DUP3 ADD DUP1 PUSH1 0x40 MSTORE POP DUP2 ADD SWAP1 PUSH2 0x1766 SWAP2 SWAP1 PUSH2 0x1A3F JUMP JUMPDEST POP JUMPDEST PUSH1 0xA SLOAD PUSH1 0x40 MLOAD PUSH4 0x70A08231 PUSH1 0xE0 SHL DUP2 MSTORE PUSH1 0x0 SWAP2 PUSH1 0x1 PUSH1 0x1 PUSH1 0xA0 SHL SUB AND SWAP1 PUSH4 0x70A08231 SWAP1 PUSH2 0x1799 SWAP1 ADDRESS SWAP1 PUSH1 0x4 ADD PUSH2 0x1BBB JUMP JUMPDEST PUSH1 0x20 PUSH1 0x40 MLOAD DUP1 DUP4 SUB DUP2 DUP7 DUP1 EXTCODESIZE ISZERO DUP1 ISZERO PUSH2 0x17B1 JUMPI PUSH1 0x0 DUP1 REVERT JUMPDEST POP GAS STATICCALL ISZERO DUP1 ISZERO PUSH2 0x17C5 JUMPI RETURNDATASIZE PUSH1 0x0 DUP1 RETURNDATACOPY RETURNDATASIZE PUSH1 0x0 REVERT JUMPDEST POP POP POP POP PUSH1 0x40 MLOAD RETURNDATASIZE PUSH1 0x1F NOT PUSH1 0x1F DUP3 ADD AND DUP3 ADD DUP1 PUSH1 0x40 MSTORE POP DUP2 ADD SWAP1 PUSH2 0x17E9 SWAP2 SWAP1 PUSH2 0x1B14 JUMP JUMPDEST SWAP1 POP PUSH1 0x0 DUP2 GT DUP1 ISZERO PUSH2 0x1803 JUMPI POP PUSH1 0xF SLOAD PUSH3 0x10000 SWAP1 DIV PUSH1 0xFF AND JUMPDEST ISZERO PUSH2 0x188E JUMPI PUSH1 0xA SLOAD PUSH1 0x40 MLOAD PUSH4 0xA9059CBB PUSH1 0xE0 SHL DUP2 MSTORE PUSH1 0x1 PUSH1 0x1 PUSH1 0xA0 SHL SUB SWAP1 SWAP2 AND SWAP1 PUSH4 0xA9059CBB SWAP1 PUSH2 0x183A SWAP1 CALLER SWAP1 DUP6 SWAP1 PUSH1 0x4 ADD PUSH2 0x1C0D JUMP JUMPDEST PUSH1 0x20 PUSH1 0x40 MLOAD DUP1 DUP4 SUB DUP2 PUSH1 0x0 DUP8 DUP1 EXTCODESIZE ISZERO DUP1 ISZERO PUSH2 0x1854 JUMPI PUSH1 0x0 DUP1 REVERT JUMPDEST POP GAS CALL ISZERO DUP1 ISZERO PUSH2 0x1868 JUMPI RETURNDATASIZE PUSH1 0x0 DUP1 RETURNDATACOPY RETURNDATASIZE PUSH1 0x0 REVERT JUMPDEST POP POP POP POP PUSH1 0x40 MLOAD RETURNDATASIZE PUSH1 0x1F NOT PUSH1 0x1F DUP3 ADD AND DUP3 ADD DUP1 PUSH1 0x40 MSTORE POP DUP2 ADD SWAP1 PUSH2 0x188C SWAP2 SWAP1 PUSH2 0x1A3F JUMP JUMPDEST POP JUMPDEST PUSH1 0x0 DUP2 GT DUP1 ISZERO PUSH2 0x18A7 JUMPI POP PUSH1 0xF SLOAD PUSH3 0x10000 SWAP1 DIV PUSH1 0xFF AND ISZERO JUMPDEST ISZERO PUSH2 0x1934 JUMPI PUSH1 0xA SLOAD PUSH1 0x40 MLOAD PUSH4 0xA9059CBB PUSH1 0xE0 SHL DUP2 MSTORE PUSH1 0x1 PUSH1 0x1 PUSH1 0xA0 SHL SUB SWAP1 SWAP2 AND SWAP1 PUSH4 0xA9059CBB SWAP1 PUSH2 0x18E0 SWAP1 PUSH2 0xDEAD SWAP1 DUP6 SWAP1 PUSH1 0x4 ADD PUSH2 0x1C0D JUMP JUMPDEST PUSH1 0x20 PUSH1 0x40 MLOAD DUP1 DUP4 SUB DUP2 PUSH1 0x0 DUP8 DUP1 EXTCODESIZE ISZERO DUP1 ISZERO PUSH2 0x18FA JUMPI PUSH1 0x0 DUP1 REVERT JUMPDEST POP GAS CALL ISZERO DUP1 ISZERO PUSH2 0x190E JUMPI RETURNDATASIZE PUSH1 0x0 DUP1 RETURNDATACOPY RETURNDATASIZE PUSH1 0x0 REVERT JUMPDEST POP POP POP POP PUSH1 0x40 MLOAD RETURNDATASIZE PUSH1 0x1F NOT PUSH1 0x1F DUP3 ADD AND DUP3 ADD DUP1 PUSH1 0x40 MSTORE POP DUP2 ADD SWAP1 PUSH2 0x1932 SWAP2 SWAP1 PUSH2 0x1A3F JUMP JUMPDEST POP JUMPDEST POP POP POP POP JUMP JUMPDEST CALLER SWAP1 JUMP JUMPDEST DUP3 DUP1 SLOAD PUSH2 0x194A SWAP1 PUSH2 0x2173 JUMP JUMPDEST SWAP1 PUSH1 0x0 MSTORE PUSH1 0x20 PUSH1 0x0 KECCAK256 SWAP1 PUSH1 0x1F ADD PUSH1 0x20 SWAP1 DIV DUP2 ADD SWAP3 DUP3 PUSH2 0x196C JUMPI PUSH1 0x0 DUP6 SSTORE PUSH2 0x19B2 JUMP JUMPDEST DUP3 PUSH1 0x1F LT PUSH2 0x1985 JUMPI DUP1 MLOAD PUSH1 0xFF NOT AND DUP4 DUP1 ADD OR DUP6 SSTORE PUSH2 0x19B2 JUMP JUMPDEST DUP3 DUP1 ADD PUSH1 0x1 ADD DUP6 SSTORE DUP3 ISZERO PUSH2 0x19B2 JUMPI SWAP2 DUP3 ADD JUMPDEST DUP3 DUP2 GT ISZERO PUSH2 0x19B2 JUMPI DUP3 MLOAD DUP3 SSTORE SWAP2 PUSH1 0x20 ADD SWAP2 SWAP1 PUSH1 0x1 ADD SWAP1 PUSH2 0x1997 JUMP JUMPDEST POP PUSH2 0x19BE SWAP3 SWAP2 POP PUSH2 0x19E0 JUMP JUMPDEST POP SWAP1 JUMP JUMPDEST PUSH1 0x40 MLOAD DUP1 PUSH1 0x40 ADD PUSH1 0x40 MSTORE DUP1 PUSH1 0x2 SWAP1 PUSH1 0x20 DUP3 MUL DUP1 CALLDATASIZE DUP4 CALLDATACOPY POP SWAP2 SWAP3 SWAP2 POP POP JUMP JUMPDEST JUMPDEST DUP1 DUP3 GT ISZERO PUSH2 0x19BE JUMPI PUSH1 0x0 DUP2 SSTORE PUSH1 0x1 ADD PUSH2 0x19E1 JUMP JUMPDEST PUSH1 0x0 PUSH1 0x20 DUP3 DUP5 SUB SLT ISZERO PUSH2 0x1A06 JUMPI DUP1 DUP2 REVERT JUMPDEST DUP2 CALLDATALOAD PUSH1 0x1 PUSH1 0x1 PUSH1 0xA0 SHL SUB DUP2 AND DUP2 EQ PUSH2 0x1A1C JUMPI DUP2 DUP3 REVERT JUMPDEST SWAP4 SWAP3 POP POP POP JUMP JUMPDEST PUSH1 0x0 PUSH1 0x20 DUP3 DUP5 SUB SLT ISZERO PUSH2 0x1A34 JUMPI DUP1 DUP2 REVERT JUMPDEST DUP2 CALLDATALOAD PUSH2 0x1A1C DUP2 PUSH2 0x21F5 JUMP JUMPDEST PUSH1 0x0 PUSH1 0x20 DUP3 DUP5 SUB SLT ISZERO PUSH2 0x1A50 JUMPI DUP1 DUP2 REVERT JUMPDEST DUP2 MLOAD PUSH2 0x1A1C DUP2 PUSH2 0x21F5 JUMP JUMPDEST PUSH1 0x0 PUSH1 0x20 DUP1 DUP4 DUP6 SUB SLT ISZERO PUSH2 0x1A6D JUMPI DUP2 DUP3 REVERT JUMPDEST DUP3 CALLDATALOAD PUSH8 0xFFFFFFFFFFFFFFFF DUP1 DUP3 GT ISZERO PUSH2 0x1A84 JUMPI DUP4 DUP5 REVERT JUMPDEST DUP2 DUP6 ADD SWAP2 POP DUP6 PUSH1 0x1F DUP4 ADD SLT PUSH2 0x1A97 JUMPI DUP4 DUP5 REVERT JUMPDEST DUP2 CALLDATALOAD DUP2 DUP2 GT ISZERO PUSH2 0x1AA9 JUMPI PUSH2 0x1AA9 PUSH2 0x21DF JUMP JUMPDEST PUSH1 0x40 MLOAD PUSH1 0x1F DUP3 ADD PUSH1 0x1F NOT AND DUP2 ADD DUP6 ADD DUP4 DUP2 GT DUP3 DUP3 LT OR ISZERO PUSH2 0x1ACC JUMPI PUSH2 0x1ACC PUSH2 0x21DF JUMP JUMPDEST PUSH1 0x40 MSTORE DUP2 DUP2 MSTORE DUP4 DUP3 ADD DUP6 ADD DUP9 LT ISZERO PUSH2 0x1AE2 JUMPI DUP6 DUP7 REVERT JUMPDEST DUP2 DUP6 DUP6 ADD DUP7 DUP4 ADD CALLDATACOPY SWAP1 DUP2 ADD SWAP1 SWAP4 ADD SWAP4 SWAP1 SWAP4 MSTORE POP SWAP4 SWAP3 POP POP POP JUMP JUMPDEST PUSH1 0x0 PUSH1 0x20 DUP3 DUP5 SUB SLT ISZERO PUSH2 0x1B0D JUMPI DUP1 DUP2 REVERT JUMPDEST POP CALLDATALOAD SWAP2 SWAP1 POP JUMP JUMPDEST PUSH1 0x0 PUSH1 0x20 DUP3 DUP5 SUB SLT ISZERO PUSH2 0x1B25 JUMPI DUP1 DUP2 REVERT JUMPDEST POP MLOAD SWAP2 SWAP1 POP JUMP JUMPDEST PUSH1 0x0 PUSH1 0x20 DUP3 DUP5 SUB SLT ISZERO PUSH2 0x1B3D JUMPI DUP1 DUP2 REVERT JUMPDEST DUP2 MLOAD PUSH1 0xFF DUP2 AND DUP2 EQ PUSH2 0x1A1C JUMPI DUP2 DUP3 REVERT JUMPDEST DUP1 PUSH1 0x0 JUMPDEST PUSH1 0x2 DUP2 LT ISZERO PUSH2 0x1934 JUMPI DUP2 MLOAD DUP5 MSTORE PUSH1 0x20 SWAP4 DUP5 ADD SWAP4 SWAP1 SWAP2 ADD SWAP1 PUSH1 0x1 ADD PUSH2 0x1B51 JUMP JUMPDEST PUSH1 0x0 DUP2 MLOAD DUP1 DUP5 MSTORE DUP2 JUMPDEST DUP2 DUP2 LT ISZERO PUSH2 0x1B95 JUMPI PUSH1 0x20 DUP2 DUP6 ADD DUP2 ADD MLOAD DUP7 DUP4 ADD DUP3 ADD MSTORE ADD PUSH2 0x1B79 JUMP JUMPDEST DUP2 DUP2 GT ISZERO PUSH2 0x1BA6 JUMPI DUP3 PUSH1 0x20 DUP4 DUP8 ADD ADD MSTORE JUMPDEST POP PUSH1 0x1F ADD PUSH1 0x1F NOT AND SWAP3 SWAP1 SWAP3 ADD PUSH1 0x20 ADD SWAP3 SWAP2 POP POP JUMP JUMPDEST PUSH1 0x1 PUSH1 0x1 PUSH1 0xA0 SHL SUB SWAP2 SWAP1 SWAP2 AND DUP2 MSTORE PUSH1 0x20 ADD SWAP1 JUMP JUMPDEST PUSH1 0x1 PUSH1 0x1 PUSH1 0xA0 SHL SUB SWAP3 DUP4 AND DUP2 MSTORE SWAP2 AND PUSH1 0x20 DUP3 ADD MSTORE PUSH1 0x40 ADD SWAP1 JUMP JUMPDEST PUSH1 0x1 PUSH1 0x1 PUSH1 0xA0 SHL SUB SWAP4 DUP5 AND DUP2 MSTORE SWAP2 SWAP1 SWAP3 AND PUSH1 0x20 DUP3 ADD MSTORE PUSH1 0x40 DUP2 ADD SWAP2 SWAP1 SWAP2 MSTORE PUSH1 0x60 ADD SWAP1 JUMP JUMPDEST PUSH1 0x1 PUSH1 0x1 PUSH1 0xA0 SHL SUB SWAP3 SWAP1 SWAP3 AND DUP3 MSTORE PUSH1 0x20 DUP3 ADD MSTORE PUSH1 0x40 ADD SWAP1 JUMP JUMPDEST PUSH1 0x40 DUP1 DUP3 MSTORE DUP4 MLOAD SWAP1 DUP3 ADD DUP2 SWAP1 MSTORE PUSH1 0x0 SWAP1 PUSH1 0x20 SWAP1 PUSH1 0x60 DUP5 ADD SWAP1 DUP3 DUP8 ADD DUP5 JUMPDEST DUP3 DUP2 LT ISZERO PUSH2 0x1C68 JUMPI DUP2 MLOAD PUSH1 0x1 PUSH1 0x1 PUSH1 0xA0 SHL SUB AND DUP5 MSTORE SWAP3 DUP5 ADD SWAP3 SWAP1 DUP5 ADD SWAP1 PUSH1 0x1 ADD PUSH2 0x1C43 JUMP JUMPDEST POP POP POP DUP4 DUP2 SUB DUP3 DUP6 ADD MSTORE DUP5 MLOAD DUP1 DUP3 MSTORE DUP6 DUP4 ADD SWAP2 DUP4 ADD SWAP1 DUP5 JUMPDEST DUP2 DUP2 LT ISZERO PUSH2 0x1C9C JUMPI DUP4 MLOAD DUP4 MSTORE SWAP3 DUP5 ADD SWAP3 SWAP2 DUP5 ADD SWAP2 PUSH1 0x1 ADD PUSH2 0x1C80 JUMP JUMPDEST POP SWAP1 SWAP8 SWAP7 POP POP POP POP POP POP POP JUMP JUMPDEST PUSH1 0x0 PUSH2 0x1E0 PUSH2 0x1CB8 DUP4 DUP16 PUSH2 0x1B4D JUMP JUMPDEST PUSH2 0x1CC5 PUSH1 0x40 DUP5 ADD DUP15 PUSH2 0x1B4D JUMP JUMPDEST PUSH2 0x1CD2 PUSH1 0x80 DUP5 ADD DUP14 PUSH2 0x1B4D JUMP JUMPDEST PUSH2 0x1CDF PUSH1 0xC0 DUP5 ADD DUP13 PUSH2 0x1B4D JUMP JUMPDEST DUP1 PUSH2 0x100 DUP5 ADD MSTORE PUSH2 0x1CF2 DUP2 DUP5 ADD DUP12 PUSH2 0x1B70 JUMP JUMPDEST PUSH1 0x1 PUSH1 0x1 PUSH1 0xA0 SHL SUB SWAP10 DUP11 AND PUSH2 0x120 DUP6 ADD MSTORE SWAP8 SWAP1 SWAP9 AND PUSH2 0x140 DUP4 ADD MSTORE POP SWAP4 ISZERO ISZERO PUSH2 0x160 DUP6 ADD MSTORE SWAP2 ISZERO ISZERO PUSH2 0x180 DUP5 ADD MSTORE PUSH2 0x1A0 DUP4 ADD MSTORE PUSH2 0x1C0 SWAP1 SWAP2 ADD MSTORE SWAP7 SWAP6 POP POP POP POP POP POP JUMP JUMPDEST SWAP1 ISZERO ISZERO DUP2 MSTORE PUSH1 0x20 ADD SWAP1 JUMP JUMPDEST PUSH1 0x0 PUSH1 0x20 DUP3 MSTORE PUSH2 0x1A1C PUSH1 0x20 DUP4 ADD DUP5 PUSH2 0x1B70 JUMP JUMPDEST PUSH1 0x20 DUP1 DUP3 MSTORE PUSH1 0x12 SWAP1 DUP3 ADD MSTORE PUSH18 0x10D85B1B195C881B9BDD08185B1B1BDDD959 PUSH1 0x72 SHL PUSH1 0x40 DUP3 ADD MSTORE PUSH1 0x60 ADD SWAP1 JUMP JUMPDEST PUSH1 0x20 DUP1 DUP3 MSTORE PUSH1 0x26 SWAP1 DUP3 ADD MSTORE PUSH32 0x4F776E61626C653A206E6577206F776E657220697320746865207A65726F2061 PUSH1 0x40 DUP3 ADD MSTORE PUSH6 0x646472657373 PUSH1 0xD0 SHL PUSH1 0x60 DUP3 ADD MSTORE PUSH1 0x80 ADD SWAP1 JUMP JUMPDEST PUSH1 0x20 DUP1 DUP3 MSTORE PUSH1 0x16 SWAP1 DUP3 ADD MSTORE PUSH22 0x125B9D985B1A59081C185E5B595B9D08185B5BDD5B9D PUSH1 0x52 SHL PUSH1 0x40 DUP3 ADD MSTORE PUSH1 0x60 ADD SWAP1 JUMP JUMPDEST PUSH1 0x20 DUP1 DUP3 MSTORE PUSH1 0x17 SWAP1 DUP3 ADD MSTORE PUSH32 0x53616C657320686173206E6F7420656E64656420796574000000000000000000 PUSH1 0x40 DUP3 ADD MSTORE PUSH1 0x60 ADD SWAP1 JUMP JUMPDEST PUSH1 0x20 DUP1 DUP3 MSTORE PUSH1 0x14 SWAP1 DUP3 ADD MSTORE PUSH20 0x14D85B19481A5CC81B9BDD081BDC195B881E595D PUSH1 0x62 SHL PUSH1 0x40 DUP3 ADD MSTORE PUSH1 0x60 ADD SWAP1 JUMP JUMPDEST PUSH1 0x20 DUP1 DUP3 MSTORE PUSH1 0x16 SWAP1 DUP3 ADD MSTORE PUSH22 0x14D85B19481A5CC8185B1C9958591E4818DB1BDCD959 PUSH1 0x52 SHL PUSH1 0x40 DUP3 ADD MSTORE PUSH1 0x60 ADD SWAP1 JUMP JUMPDEST PUSH1 0x20 DUP1 DUP3 MSTORE DUP2 DUP2 ADD MSTORE PUSH32 0x4F776E61626C653A2063616C6C6572206973206E6F7420746865206F776E6572 PUSH1 0x40 DUP3 ADD MSTORE PUSH1 0x60 ADD SWAP1 JUMP JUMPDEST PUSH1 0x20 DUP1 DUP3 MSTORE PUSH1 0x14 SWAP1 DUP3 ADD MSTORE PUSH20 0x14DBD99D0818D85C081B9BDD081C995858DA1959 PUSH1 0x62 SHL PUSH1 0x40 DUP3 ADD MSTORE PUSH1 0x60 ADD SWAP1 JUMP JUMPDEST PUSH1 0x20 DUP1 DUP3 MSTORE PUSH1 0x1A SWAP1 DUP3 ADD MSTORE PUSH32 0x5573657220646F65736E27742068617665206465706F73697473000000000000 PUSH1 0x40 DUP3 ADD MSTORE PUSH1 0x60 ADD SWAP1 JUMP JUMPDEST PUSH1 0x20 DUP1 DUP3 MSTORE PUSH1 0x1C SWAP1 DUP3 ADD MSTORE PUSH32 0x4D696E20636F6E747269627574696F6E206E6F74207265616368656400000000 PUSH1 0x40 DUP3 ADD MSTORE PUSH1 0x60 ADD SWAP1 JUMP JUMPDEST PUSH1 0x20 DUP1 DUP3 MSTORE PUSH1 0x10 SWAP1 DUP3 ADD MSTORE PUSH16 0x29B0B6329034B9903737BA1037B832B7 PUSH1 0x81 SHL PUSH1 0x40 DUP3 ADD MSTORE PUSH1 0x60 ADD SWAP1 JUMP JUMPDEST PUSH1 0x20 DUP1 DUP3 MSTORE PUSH1 0x17 SWAP1 DUP3 ADD MSTORE PUSH32 0x526566756E64206973206E6F7420617661696C61626C65000000000000000000 PUSH1 0x40 DUP3 ADD MSTORE PUSH1 0x60 ADD SWAP1 JUMP JUMPDEST PUSH1 0x20 DUP1 DUP3 MSTORE PUSH1 0x2A SWAP1 DUP3 ADD MSTORE PUSH32 0x46696E697368696E67206C61756E636870616420646F6573206E6F7420617661 PUSH1 0x40 DUP3 ADD MSTORE PUSH10 0x696C61626C65206E6F77 PUSH1 0xB0 SHL PUSH1 0x60 DUP3 ADD MSTORE PUSH1 0x80 ADD SWAP1 JUMP JUMPDEST PUSH1 0x20 DUP1 DUP3 MSTORE PUSH1 0x10 SWAP1 DUP3 ADD MSTORE PUSH16 0x21B0B63632B9103737BA1030B236B4B7 PUSH1 0x81 SHL PUSH1 0x40 DUP3 ADD MSTORE PUSH1 0x60 ADD SWAP1 JUMP JUMPDEST PUSH1 0x20 DUP1 DUP3 MSTORE PUSH1 0x1C SWAP1 DUP3 ADD MSTORE PUSH32 0x4D617820636F6E747269627574696F6E206E6F74207265616368656400000000 PUSH1 0x40 DUP3 ADD MSTORE PUSH1 0x60 ADD SWAP1 JUMP JUMPDEST PUSH1 0x20 DUP1 DUP3 MSTORE PUSH1 0x25 SWAP1 DUP3 ADD MSTORE PUSH32 0x53616C6520697320616C72656164792066696E6973686564206F722063616E63 PUSH1 0x40 DUP3 ADD MSTORE PUSH5 0x195B1B1959 PUSH1 0xDA SHL PUSH1 0x60 DUP3 ADD MSTORE PUSH1 0x80 ADD SWAP1 JUMP JUMPDEST PUSH1 0x20 DUP1 DUP3 MSTORE PUSH1 0xF SWAP1 DUP3 ADD MSTORE PUSH15 0x12185C9918D85C081C995858DA1959 PUSH1 0x8A SHL PUSH1 0x40 DUP3 ADD MSTORE PUSH1 0x60 ADD SWAP1 JUMP JUMPDEST SWAP1 DUP2 MSTORE PUSH1 0x20 ADD SWAP1 JUMP JUMPDEST SWAP2 DUP3 MSTORE PUSH1 0x1 PUSH1 0x1 PUSH1 0xA0 SHL SUB AND PUSH1 0x20 DUP3 ADD MSTORE PUSH1 0x40 ADD SWAP1 JUMP JUMPDEST SWAP2 DUP3 MSTORE PUSH1 0x20 DUP3 ADD MSTORE PUSH1 0x40 ADD SWAP1 JUMP JUMPDEST PUSH1 0x0 DUP3 NOT DUP3 GT ISZERO PUSH2 0x2118 JUMPI PUSH2 0x2118 PUSH2 0x21C9 JUMP JUMPDEST POP ADD SWAP1 JUMP JUMPDEST PUSH1 0x0 DUP3 PUSH2 0x2138 JUMPI PUSH4 0x4E487B71 PUSH1 0xE0 SHL DUP2 MSTORE PUSH1 0x12 PUSH1 0x4 MSTORE PUSH1 0x24 DUP2 REVERT JUMPDEST POP DIV SWAP1 JUMP JUMPDEST PUSH1 0x0 DUP2 PUSH1 0x0 NOT DIV DUP4 GT DUP3 ISZERO ISZERO AND ISZERO PUSH2 0x2157 JUMPI PUSH2 0x2157 PUSH2 0x21C9 JUMP JUMPDEST POP MUL SWAP1 JUMP JUMPDEST PUSH1 0x0 DUP3 DUP3 LT ISZERO PUSH2 0x216E JUMPI PUSH2 0x216E PUSH2 0x21C9 JUMP JUMPDEST POP SUB SWAP1 JUMP JUMPDEST PUSH1 0x2 DUP2 DIV PUSH1 0x1 DUP3 AND DUP1 PUSH2 0x2187 JUMPI PUSH1 0x7F DUP3 AND SWAP2 POP JUMPDEST PUSH1 0x20 DUP3 LT DUP2 EQ ISZERO PUSH2 0x21A8 JUMPI PUSH4 0x4E487B71 PUSH1 0xE0 SHL PUSH1 0x0 MSTORE PUSH1 0x22 PUSH1 0x4 MSTORE PUSH1 0x24 PUSH1 0x0 REVERT JUMPDEST POP SWAP2 SWAP1 POP JUMP JUMPDEST PUSH1 0x0 PUSH1 0x0 NOT DUP3 EQ ISZERO PUSH2 0x21C2 JUMPI PUSH2 0x21C2 PUSH2 0x21C9 JUMP JUMPDEST POP PUSH1 0x1 ADD SWAP1 JUMP JUMPDEST PUSH4 0x4E487B71 PUSH1 0xE0 SHL PUSH1 0x0 MSTORE PUSH1 0x11 PUSH1 0x4 MSTORE PUSH1 0x24 PUSH1 0x0 REVERT JUMPDEST PUSH4 0x4E487B71 PUSH1 0xE0 SHL PUSH1 0x0 MSTORE PUSH1 0x41 PUSH1 0x4 MSTORE PUSH1 0x24 PUSH1 0x0 REVERT JUMPDEST DUP1 ISZERO ISZERO DUP2 EQ PUSH2 0x13B8 JUMPI PUSH1 0x0 DUP1 REVERT INVALID LOG2 PUSH5 0x6970667358 0x22 SLT KECCAK256 0xA9 JUMP 0xC4 ADD ADDMOD PUSH23 0x96DC3CEC149B2A31133C18EA64A7F22CB9016B38CAEF46 0xEE 0x49 PUSH11 0x64736F6C63430008000033 LOG2 PUSH5 0x6970667358 0x22 SLT KECCAK256 PUSH13 0x8F4C52CAE56783AC9407C2D6F6 CALLDATASIZE CHAINID GAS MLOAD RETURN 0x28 PUSH14 0xF283E76E1CCDA2AB599F3764736F PUSH13 0x63430008000033000000000000 "
		},
		"gasEstimates": {
			"creation": {
				"codeDepositCost": "3307200",
				"executionCost": "46149",
				"totalCost": "3353349"
			},
			"external": {
				"addToUserLaunchpad(address,address)": "infinite",
				"createLaunchpad(uint256[],uint256[],uint256[],uint256[],uint256[],string,address,address,bool)": "infinite",
				"deployCost()": "1051",
				"getAllLaunchpads()": "infinite",
				"getDeployedLaunchpads(uint256,uint256)": "infinite",
				"getUserContributions(address)": "infinite",
				"launchpadById(uint256)": "1258",
				"launchpadByToken(address)": "1382",
				"launchpadCount()": "1050",
				"launchpadIdByAddress(address)": "1341",
				"owner()": "1159",
				"removeLaunchpad(address,address)": "infinite",
				"renounceOwnership()": "infinite",
				"setDeployPrice(uint256)": "21245",
				"transferOwnership(address)": "23833",
				"userLaunchpadCreated(address,uint256)": "2254",
				"userLaunchpadInvested(address,uint256)": "2231"
			}
		},
		"methodIdentifiers": {
			"addToUserLaunchpad(address,address)": "bf21695f",
			"createLaunchpad(uint256[],uint256[],uint256[],uint256[],uint256[],string,address,address,bool)": "e5eb1bcf",
			"deployCost()": "7788a7ee",
			"getAllLaunchpads()": "7c0bb6b7",
			"getDeployedLaunchpads(uint256,uint256)": "2e1114ec",
			"getUserContributions(address)": "e36465a3",
			"launchpadById(uint256)": "bda40d5c",
			"launchpadByToken(address)": "f007735c",
			"launchpadCount()": "cbcab787",
			"launchpadIdByAddress(address)": "c3f296a3",
			"owner()": "8da5cb5b",
			"removeLaunchpad(address,address)": "6f19bd1d",
			"renounceOwnership()": "715018a6",
			"setDeployPrice(uint256)": "86cb9e0c",
			"transferOwnership(address)": "f2fde38b",
			"userLaunchpadCreated(address,uint256)": "5b19e732",
			"userLaunchpadInvested(address,uint256)": "b12821eb"
		}
	},
	"abi": [
		{
			"anonymous": false,
			"inputs": [
				{
					"indexed": true,
					"internalType": "address",
					"name": "previousOwner",
					"type": "address"
				},
				{
					"indexed": true,
					"internalType": "address",
					"name": "newOwner",
					"type": "address"
				}
			],
			"name": "OwnershipTransferred",
			"type": "event"
		},
		{
			"anonymous": false,
			"inputs": [
				{
					"indexed": false,
					"internalType": "address",
					"name": "newTokenAddress",
					"type": "address"
				},
				{
					"indexed": false,
					"internalType": "address",
					"name": "deployer",
					"type": "address"
				}
			],
			"name": "launchpadDeployed",
			"type": "event"
		},
		{
			"inputs": [
				{
					"internalType": "address",
					"name": "_user",
					"type": "address"
				},
				{
					"internalType": "address",
					"name": "_launchpad",
					"type": "address"
				}
			],
			"name": "addToUserLaunchpad",
			"outputs": [],
			"stateMutability": "nonpayable",
			"type": "function"
		},
		{
			"inputs": [
				{
					"internalType": "uint256[]",
					"name": "_caps",
					"type": "uint256[]"
				},
				{
					"internalType": "uint256[]",
					"name": "_times",
					"type": "uint256[]"
				},
				{
					"internalType": "uint256[]",
					"name": "_rates",
					"type": "uint256[]"
				},
				{
					"internalType": "uint256[]",
					"name": "_limits",
					"type": "uint256[]"
				},
				{
					"internalType": "uint256[]",
					"name": "_adminFees",
					"type": "uint256[]"
				},
				{
					"internalType": "string",
					"name": "_URIData",
					"type": "string"
				},
				{
					"internalType": "address",
					"name": "_tokenSale",
					"type": "address"
				},
				{
					"internalType": "address",
					"name": "_tokenPayment",
					"type": "address"
				},
				{
					"internalType": "bool",
					"name": "_refundWhenFinish",
					"type": "bool"
				}
			],
			"name": "createLaunchpad",
			"outputs": [],
			"stateMutability": "payable",
			"type": "function"
		},
		{
			"inputs": [],
			"name": "deployCost",
			"outputs": [
				{
					"internalType": "uint256",
					"name": "",
					"type": "uint256"
				}
			],
			"stateMutability": "view",
			"type": "function"
		},
		{
			"inputs": [],
			"name": "getAllLaunchpads",
			"outputs": [
				{
					"internalType": "address[]",
					"name": "",
					"type": "address[]"
				}
			],
			"stateMutability": "view",
			"type": "function"
		},
		{
			"inputs": [
				{
					"internalType": "uint256",
					"name": "startIndex",
					"type": "uint256"
				},
				{
					"internalType": "uint256",
					"name": "endIndex",
					"type": "uint256"
				}
			],
			"name": "getDeployedLaunchpads",
			"outputs": [
				{
					"internalType": "address[]",
					"name": "",
					"type": "address[]"
				}
			],
			"stateMutability": "view",
			"type": "function"
		},
		{
			"inputs": [
				{
					"internalType": "address",
					"name": "_user",
					"type": "address"
				}
			],
			"name": "getUserContributions",
			"outputs": [
				{
					"internalType": "uint256[]",
					"name": "ids",
					"type": "uint256[]"
				},
				{
					"internalType": "uint256[]",
					"name": "contributions",
					"type": "uint256[]"
				}
			],
			"stateMutability": "view",
			"type": "function"
		},
		{
			"inputs": [
				{
					"internalType": "uint256",
					"name": "",
					"type": "uint256"
				}
			],
			"name": "launchpadById",
			"outputs": [
				{
					"internalType": "address",
					"name": "",
					"type": "address"
				}
			],
			"stateMutability": "view",
			"type": "function"
		},
		{
			"inputs": [
				{
					"internalType": "address",
					"name": "",
					"type": "address"
				}
			],
			"name": "launchpadByToken",
			"outputs": [
				{
					"internalType": "address",
					"name": "",
					"type": "address"
				}
			],
			"stateMutability": "view",
			"type": "function"
		},
		{
			"inputs": [],
			"name": "launchpadCount",
			"outputs": [
				{
					"internalType": "uint256",
					"name": "",
					"type": "uint256"
				}
			],
			"stateMutability": "view",
			"type": "function"
		},
		{
			"inputs": [
				{
					"internalType": "address",
					"name": "",
					"type": "address"
				}
			],
			"name": "launchpadIdByAddress",
			"outputs": [
				{
					"internalType": "uint256",
					"name": "",
					"type": "uint256"
				}
			],
			"stateMutability": "view",
			"type": "function"
		},
		{
			"inputs": [],
			"name": "owner",
			"outputs": [
				{
					"internalType": "address",
					"name": "",
					"type": "address"
				}
			],
			"stateMutability": "view",
			"type": "function"
		},
		{
			"inputs": [
				{
					"internalType": "address",
					"name": "_token",
					"type": "address"
				},
				{
					"internalType": "address",
					"name": "_launchpad",
					"type": "address"
				}
			],
			"name": "removeLaunchpad",
			"outputs": [],
			"stateMutability": "nonpayable",
			"type": "function"
		},
		{
			"inputs": [],
			"name": "renounceOwnership",
			"outputs": [],
			"stateMutability": "nonpayable",
			"type": "function"
		},
		{
			"inputs": [
				{
					"internalType": "uint256",
					"name": "_price",
					"type": "uint256"
				}
			],
			"name": "setDeployPrice",
			"outputs": [],
			"stateMutability": "nonpayable",
			"type": "function"
		},
		{
			"inputs": [
				{
					"internalType": "address",
					"name": "newOwner",
					"type": "address"
				}
			],
			"name": "transferOwnership",
			"outputs": [],
			"stateMutability": "nonpayable",
			"type": "function"
		},
		{
			"inputs": [
				{
					"internalType": "address",
					"name": "",
					"type": "address"
				},
				{
					"internalType": "uint256",
					"name": "",
					"type": "uint256"
				}
			],
			"name": "userLaunchpadCreated",
			"outputs": [
				{
					"internalType": "address",
					"name": "",
					"type": "address"
				}
			],
			"stateMutability": "view",
			"type": "function"
		},
		{
			"inputs": [
				{
					"internalType": "address",
					"name": "",
					"type": "address"
				},
				{
					"internalType": "uint256",
					"name": "",
					"type": "uint256"
				}
			],
			"name": "userLaunchpadInvested",
			"outputs": [
				{
					"internalType": "address",
					"name": "",
					"type": "address"
				}
			],
			"stateMutability": "view",
			"type": "function"
		}
	]
}