{
  "_format": "hh-sol-artifact-1",
  "contractName": "DepositWithdraw",
  "sourceName": "contracts/depositWithdraw.sol",
  "abi": [
    {
      "inputs": [
        {
          "internalType": "address",
          "name": "_receiver",
          "type": "address"
        },
        {
          "internalType": "address",
          "name": "_verifier",
          "type": "address"
        },
        {
          "internalType": "address[]",
          "name": "_tokenList",
          "type": "address[]"
        }
      ],
      "stateMutability": "nonpayable",
      "type": "constructor"
    },
    {
      "anonymous": false,
      "inputs": [
        {
          "indexed": false,
          "internalType": "string",
          "name": "orderId",
          "type": "string"
        },
        {
          "indexed": false,
          "internalType": "address",
          "name": "user",
          "type": "address"
        },
        {
          "indexed": false,
          "internalType": "address",
          "name": "token",
          "type": "address"
        },
        {
          "indexed": false,
          "internalType": "uint256",
          "name": "timestamp",
          "type": "uint256"
        }
      ],
      "name": "Cancel",
      "type": "event"
    },
    {
      "anonymous": false,
      "inputs": [
        {
          "indexed": false,
          "internalType": "address",
          "name": "user",
          "type": "address"
        },
        {
          "indexed": false,
          "internalType": "address",
          "name": "token",
          "type": "address"
        },
        {
          "indexed": false,
          "internalType": "uint256",
          "name": "amount",
          "type": "uint256"
        },
        {
          "indexed": false,
          "internalType": "uint256",
          "name": "timestamp",
          "type": "uint256"
        }
      ],
      "name": "Deposit",
      "type": "event"
    },
    {
      "anonymous": false,
      "inputs": [
        {
          "indexed": true,
          "internalType": "address",
          "name": "previousOwner",
          "type": "address"
        },
        {
          "indexed": true,
          "internalType": "address",
          "name": "newOwner",
          "type": "address"
        }
      ],
      "name": "OwnershipTransferred",
      "type": "event"
    },
    {
      "anonymous": false,
      "inputs": [
        {
          "indexed": false,
          "internalType": "string",
          "name": "orderId",
          "type": "string"
        },
        {
          "indexed": false,
          "internalType": "address",
          "name": "user",
          "type": "address"
        },
        {
          "indexed": false,
          "internalType": "address",
          "name": "token",
          "type": "address"
        },
        {
          "indexed": false,
          "internalType": "uint256",
          "name": "amount",
          "type": "uint256"
        },
        {
          "indexed": false,
          "internalType": "uint256",
          "name": "timestamp",
          "type": "uint256"
        }
      ],
      "name": "Withdraw",
      "type": "event"
    },
    {
      "inputs": [
        {
          "internalType": "string",
          "name": "_orderId",
          "type": "string"
        },
        {
          "internalType": "address",
          "name": "_token",
          "type": "address"
        },
        {
          "internalType": "bytes",
          "name": "_signature",
          "type": "bytes"
        }
      ],
      "name": "cancel",
      "outputs": [],
      "stateMutability": "nonpayable",
      "type": "function"
    },
    {
      "inputs": [
        {
          "internalType": "string",
          "name": "",
          "type": "string"
        }
      ],
      "name": "cancelOrderIds",
      "outputs": [
        {
          "internalType": "bool",
          "name": "",
          "type": "bool"
        }
      ],
      "stateMutability": "view",
      "type": "function"
    },
    {
      "inputs": [
        {
          "internalType": "address",
          "name": "_token",
          "type": "address"
        },
        {
          "internalType": "uint256",
          "name": "_amount",
          "type": "uint256"
        }
      ],
      "name": "deposit",
      "outputs": [],
      "stateMutability": "payable",
      "type": "function"
    },
    {
      "inputs": [],
      "name": "depositFee",
      "outputs": [
        {
          "internalType": "uint256",
          "name": "",
          "type": "uint256"
        }
      ],
      "stateMutability": "view",
      "type": "function"
    },
    {
      "inputs": [
        {
          "internalType": "string",
          "name": "",
          "type": "string"
        }
      ],
      "name": "executeOrderIds",
      "outputs": [
        {
          "internalType": "bool",
          "name": "",
          "type": "bool"
        }
      ],
      "stateMutability": "view",
      "type": "function"
    },
    {
      "inputs": [],
      "name": "owner",
      "outputs": [
        {
          "internalType": "address",
          "name": "",
          "type": "address"
        }
      ],
      "stateMutability": "view",
      "type": "function"
    },
    {
      "inputs": [],
      "name": "receiver",
      "outputs": [
        {
          "internalType": "address",
          "name": "",
          "type": "address"
        }
      ],
      "stateMutability": "view",
      "type": "function"
    },
    {
      "inputs": [],
      "name": "renounceOwnership",
      "outputs": [],
      "stateMutability": "nonpayable",
      "type": "function"
    },
    {
      "inputs": [
        {
          "internalType": "uint256",
          "name": "_depositFee",
          "type": "uint256"
        }
      ],
      "name": "setDepositFee",
      "outputs": [],
      "stateMutability": "nonpayable",
      "type": "function"
    },
    {
      "inputs": [
        {
          "internalType": "address",
          "name": "_receiver",
          "type": "address"
        }
      ],
      "name": "setReceiver",
      "outputs": [],
      "stateMutability": "nonpayable",
      "type": "function"
    },
    {
      "inputs": [
        {
          "internalType": "address",
          "name": "_token",
          "type": "address"
        }
      ],
      "name": "setToken",
      "outputs": [],
      "stateMutability": "nonpayable",
      "type": "function"
    },
    {
      "inputs": [
        {
          "internalType": "address",
          "name": "_verifier",
          "type": "address"
        }
      ],
      "name": "setVerifier",
      "outputs": [],
      "stateMutability": "nonpayable",
      "type": "function"
    },
    {
      "inputs": [
        {
          "internalType": "uint256",
          "name": "_withdrawFee",
          "type": "uint256"
        }
      ],
      "name": "setWithdrawFee",
      "outputs": [],
      "stateMutability": "nonpayable",
      "type": "function"
    },
    {
      "inputs": [
        {
          "internalType": "address",
          "name": "",
          "type": "address"
        }
      ],
      "name": "tokenList",
      "outputs": [
        {
          "internalType": "bool",
          "name": "",
          "type": "bool"
        }
      ],
      "stateMutability": "view",
      "type": "function"
    },
    {
      "inputs": [
        {
          "internalType": "address",
          "name": "newOwner",
          "type": "address"
        }
      ],
      "name": "transferOwnership",
      "outputs": [],
      "stateMutability": "nonpayable",
      "type": "function"
    },
    {
      "inputs": [],
      "name": "verifier",
      "outputs": [
        {
          "internalType": "address",
          "name": "",
          "type": "address"
        }
      ],
      "stateMutability": "view",
      "type": "function"
    },
    {
      "inputs": [
        {
          "internalType": "string",
          "name": "_orderId",
          "type": "string"
        },
        {
          "internalType": "address",
          "name": "_token",
          "type": "address"
        },
        {
          "internalType": "uint256",
          "name": "_amount",
          "type": "uint256"
        },
        {
          "internalType": "bytes",
          "name": "_signature",
          "type": "bytes"
        }
      ],
      "name": "withdraw",
      "outputs": [],
      "stateMutability": "nonpayable",
      "type": "function"
    },
    {
      "inputs": [],
      "name": "withdrawFee",
      "outputs": [
        {
          "internalType": "uint256",
          "name": "",
          "type": "uint256"
        }
      ],
      "stateMutability": "view",
      "type": "function"
    }
  ],
  "bytecode": "0x60406080815234620001a95762001349803803806200001e81620001c4565b9283398101606082820312620001a9576200003982620001ea565b91602062000049818301620001ea565b928583015160018060401b0393848211620001a957019080601f83011215620001a9578151938411620001ae5760059184831b9084806200008c818501620001c4565b809881520192820101928311620001a9579697968401905b8282106200018957505060008054336001600160a01b0319808316821784556001600160a01b039a93978b9690955093909286929083167f8be0079c531659141344cd1fd0a4f28419497f9722a3daafe3b4186f6b6457e08a80a360019a8b998a8055168360025416176002551690600354161760035584975b62000133575b86516111499081620002008239f35b8151881015620001835787811b82018401518316855260068452868520805460ff19168717905560001988146200016f5796850196856200011e565b634e487b7160e01b85526011600452602485fd5b62000124565b8480916200019a849b9a9b620001ea565b815201910190979697620000a4565b600080fd5b634e487b7160e01b600052604160045260246000fd5b6040519190601f01601f191682016001600160401b03811183821017620001ae57604052565b51906001600160a01b0382168203620001a95756fe6040608081526004908136101561001557600080fd5b600091823560e01c908163144fa6d714610b115781631f15035a1461077b5781632b7ac3f31461075257816347e7ef24146105e1578163490ae210146105bf5781635437988d1461057a578163616f0c2d1461052b57816364e9f35f146104ed57816367a52793146104cf578163715018a614610487578163718da7ee146104425781638da5cb5b1461041a578163a2c7d844146103b6578163b6ac642a14610394578163c8fc3766146101e8578163e941fa78146101c9578163f2fde38b14610114575063f7260d3e146100e957600080fd5b3461011057816003193601126101105760035490516001600160a01b039091168152602090f35b5080fd5b9050346101c55760203660031901126101c55761012f610b54565b90610138610c37565b6001600160a01b0391821692831561017357505082546001600160a01b0319811683178455166000805160206110b48339815191528380a380f35b906020608492519162461bcd60e51b8352820152602660248201527f4f776e61626c653a206e6577206f776e657220697320746865207a65726f206160448201526564647265737360d01b6064820152fd5b8280fd5b5050346101105781600319360112610110576020906005549051908152f35b9050346101c55760603660031901126101c5576001600160401b039080358281116103905761021a9036908301610bbe565b91610223610b6f565b9160443591821161038c5761023a91369101610bbe565b9060018060a01b0390818116918287526020936006855260ff87892054168015610384575b61026890610c8f565b86518581019080885195888a019661028181868a610c14565b820190600160601b60019003199060601b16898201523360601b6034820152036028810182526048016102b49082610b85565b5190206102c09061103e565b906102ca91610f81565b6102d690929192610e6c565b80600254169116146102e790610da1565b8451838186516102f8818387610c14565b810160088152030190205460ff161561031090610d54565b8285518080938751809261032392610c14565b8101600881520301902060ff1981541660011790558351938493608085526080850161034e91610e47565b923390850152830152426060830152037fbfe316277bd1a5d8818d228d89ee27c57269bed56aeb1102fca854011919062b91a180f35b50831561025f565b8580fd5b8480fd5b839034610110576020366003190112610110576103af610c37565b3560055580f35b828434610417576020366003190112610417578235906001600160401b038211610417575061040260206103f0819560ff94369101610bbe565b81855193828580945193849201610c14565b81016008815203019020541690519015158152f35b80fd5b505034610110578160031936011261011057905490516001600160a01b039091168152602090f35b83346104175760203660031901126104175761045c610b54565b610464610c37565b600380546001600160a01b0319166001600160a01b039290921691909117905580f35b83346104175780600319360112610417576104a0610c37565b80546001600160a01b03198116825581906001600160a01b03166000805160206110b48339815191528280a380f35b9050346101c557826003193601126101c55760209250549051908152f35b5050346101105760203660031901126101105760209160ff9082906001600160a01b03610518610b54565b1681526006855220541690519015158152f35b828434610417576020366003190112610417578235906001600160401b038211610417575061056560206103f0819560ff94369101610bbe565b81016007815203019020541690519015158152f35b833461041757602036600319011261041757610594610b54565b61059c610c37565b600280546001600160a01b0319166001600160a01b039290921691909117905580f35b839034610110576020366003190112610110576105da610c37565b8035905580f35b918091506003193601126101c5576105f7610b54565b9060243591610604610cfe565b6001600160a01b0316808552600660209081528286205490949060ff16801561074a575b61063190610c8f565b816106c15734840361066e5750916000805160206110f483398151915293916080935b815193338552840152820152426060820152a16001805580f35b825162461bcd60e51b8152908101859052602760248201527f6465706f73697457697468647261773a20496e76616c6964206465706f73697460448201526608185b5bdd5b9d60ca1b6064820152608490fd5b8294939251906323b872dd60e01b82523390820152306024820152826044820152838160648189865af1801561074057916000805160206110f483398151915295916080959493610713575b50610654565b61073290853d8711610739575b61072a8183610b85565b810190610ce6565b503861070d565b503d610720565b85513d88823e3d90fd5b508115610628565b50503461011057816003193601126101105760025490516001600160a01b039091168152602090f35b9050346101c55760803660031901126101c5576001600160401b03908035828111610390576107ad9036908301610bbe565b916107b6610b6f565b60443591606435908111610b0d576107d19036908501610bbe565b926107da610cfe565b60018060a01b0390818316928389526020956006875260ff898b2054168015610b05575b61080790610c8f565b88519160ff8951938981818d019661082081838a610c14565b810160078152030190205416610ac157916108e66108d86108d08a946108cb858f8f60688f916108f69c6108c3938561087d8f9761086b898b60ff9351809381928b51928391610c14565b81016008815203019020541615610d54565b51958693610893828601998a9251928391610c14565b84019260018060601b03199060601b169083015260348201523360601b6054820152036048810184520182610b85565b51902061103e565b610f81565b919091610e6c565b868060025416911614610da1565b8951809381928b51928391610c14565b81016007815203019020600160ff19825416179055600554808502908582041485151715610aae5790612710899392049084156000146109d657508280808061093f858a610e09565b8181156109cd575b3390f1156109c357828092918192600354168282156109ba575bf1156109b05790610992939291600080516020611094833981519152955b805195869560a0875260a0870190610e47565b93339086015284015260608301524260808301520390a16001805580f35b84513d87823e3d90fd5b506108fc610961565b87513d84823e3d90fd5b506108fc610947565b9092506109e38386610e09565b88519287848c8180610a0363a9059cbb60e01b97888352338a8401610e2c565b03918a5af1908115610aa4578894610a3092610a87575b5060035416948a51958694859485528401610e2c565b03818a865af18015610a7d5795610992959493929160008051602061109483398151915297610a60575b5061097f565b610a7690853d87116107395761072a8183610b85565b5038610a5a565b86513d89823e3d90fd5b610a9d90863d88116107395761072a8183610b85565b5038610a1a565b8a513d8d823e3d90fd5b634e487b7160e01b895260118252602489fd5b895162461bcd60e51b8152808501899052602a60248201526000805160206110d48339815191526044820152691b88195e1958dd5d195960b21b6064820152608490fd5b5084156107fe565b8680fd5b50503461011057602036600319011261011057610b2c610b54565b610b34610c37565b6001600160a01b0316825260066020528120805460ff1916600117905580f35b600435906001600160a01b0382168203610b6a57565b600080fd5b602435906001600160a01b0382168203610b6a57565b601f909101601f19168101906001600160401b03821190821017610ba857604052565b634e487b7160e01b600052604160045260246000fd5b81601f82011215610b6a578035906001600160401b038211610ba85760405192610bf2601f8401601f191660200185610b85565b82845260208383010111610b6a57816000926020809301838601378301015290565b60005b838110610c275750506000910152565b8181015183820152602001610c17565b6000546001600160a01b03163303610c4b57565b606460405162461bcd60e51b815260206004820152602060248201527f4f776e61626c653a2063616c6c6572206973206e6f7420746865206f776e65726044820152fd5b15610c9657565b60405162461bcd60e51b815260206004820152602260248201527f6465706f73697457697468647261773a20746f6b656e206e6f7420616c6c6f77604482015261195960f21b6064820152608490fd5b90816020910312610b6a57518015158103610b6a5790565b600260015414610d0f576002600155565b60405162461bcd60e51b815260206004820152601f60248201527f5265656e7472616e637947756172643a207265656e7472616e742063616c6c006044820152606490fd5b15610d5b57565b60405162461bcd60e51b815260206004820152602a60248201526000805160206110d48339815191526044820152691b8818d85b98d95b195960b21b6064820152608490fd5b15610da857565b60405162461bcd60e51b815260206004820152603360248201527f6465706f73697457697468647261773a204d657373616765206d7573742062656044820152721039b4b3b732b210313c902b32b934b334b2b960691b6064820152608490fd5b91908203918211610e1657565b634e487b7160e01b600052601160045260246000fd5b6001600160a01b039091168152602081019190915260400190565b90602091610e6081518092818552858086019101610c14565b601f01601f1916010190565b6005811015610f6b5780610e7d5750565b60018103610ec55760405162461bcd60e51b815260206004820152601860248201527745434453413a20696e76616c6964207369676e617475726560401b6044820152606490fd5b60028103610f125760405162461bcd60e51b815260206004820152601f60248201527f45434453413a20696e76616c6964207369676e6174757265206c656e677468006044820152606490fd5b600314610f1b57565b60405162461bcd60e51b815260206004820152602260248201527f45434453413a20696e76616c6964207369676e6174757265202773272076616c604482015261756560f01b6064820152608490fd5b634e487b7160e01b600052602160045260246000fd5b906041815114600014610faf57610fab916020820151906060604084015193015160001a90610fb9565b9091565b5050600090600290565b9291906fa2a8918ca85bafe22016d0b997e4df60600160ff1b0383116110325791608094939160ff602094604051948552168484015260408301526060820152600093849182805260015afa156110255781516001600160a01b0381161561101f579190565b50600190565b50604051903d90823e3d90fd5b50505050600090600390565b6040517b0ca2ba3432b932bab69029b4b3b732b21026b2b9b9b0b3b29d05199960211b60208201908152603c80830193909352918152606081016001600160401b03811182821017610ba8576040525190209056fed64c21970d492e8c762aa7701b4f7192bfd2eccb0adfd5b7ebf2208a13f663008be0079c531659141344cd1fd0a4f28419497f9722a3daafe3b4186f6b6457e06465706f73697457697468647261773a204f7264657249642068616420626565dcbc1c05240f31ff3ad067ef1ee35ce4997762752e3a095284754544f4c709d7a264697066735822122001492d2682a09a9180b4234402bfc629f7524ac0785c98a0b6931e4a421ec84764736f6c63430008110033",
  "linkReferences": {},
  "deployedLinkReferences": {}
}